:100000000C9434040C945C040C945C040C945C0418
:100010000C945C040C945C040C94421C0C945C04E2
:100020000C945C040C945C040C945C040C94861B8F
:100030000C945C040C945C040C945C040C945C04C0
:100040000C94E41A0C945C040C94541B0C942E1B1A
:100050000C945C040C945C040C945C040C945C04A0
:100060000C945C040C945C044E414E494E49545926
:10007000494E46CDCCCC3D0AD7233C17B7D1387773
:10008000CC2B329595E6241FB14F0A000020410089
:1000900000C84200401C4620BCBE4CCA1B0E5AAED3
:1000A000C59D7400407A10F35A00A0724E180900E2
:1000B00010A5D4E80000E87648170000E40B5402CD
:1000C0000000CA9A3B000000E1F505000080969808
:1000D00000000040420F000000A086010000001058
:1000E0002700000000E8030000000064000000009A
:1000F000000A00000000000100000000002C76D87B
:1001000088DC674F0823DFC1DFAE59E1B1B796E560
:10011000E3E453C63AE651997696E8E6C28426EBC4
:10012000898C9B62ED407C6FFCEFBC9C9F40F2BAD7
:10013000A56FA5F490055A2AF75C936B6CF9676D6F
:10014000C11BFCE0E40D47FEF520E6B500D0ED90C4
:100150002E0300943577050080841E080000204E91
:100160000A000000C80C333333330F986E1283112A
:1001700041EF8D2114893BE65516CFFEE6DB18D101
:10018000844B381BF77C1D901DA4BBE424203284D3
:10019000725E228100C9F124ECA1E53D272243488B
:1001A00045434B53554D223A200022535445455266
:1001B000494E475F4F46465F5357495443485F5047
:1001C000494E223A2000225354454552494E475F3A
:1001D0004F46465F535749544348223A20005D2C0E
:1001E00020002C002C00223A205B00224452495669
:1001F000455F425554544F4E5F00224E554D5F446B
:10020000524956455F425554544F4E53223A2000AE
:1002100022425554544F4E5F4D4F44455F50494E16
:10022000223A2000225553455F425554544F4E5FA9
:100230004D4F44455F50494E223A200022454E41E1
:10024000424C455F425554544F4E5F4354524C22EA
:100250003A2000224A4F595F43414C49425F434F85
:10026000554E54223A20002253544152545F4D4F70
:10027000544F525F50554C53455F54494D45223AB7
:1002800020002252494748545F4D4F544F525F500F
:10029000554C5345223A2000224C4546545F4D4F61
:1002A000544F525F50554C5345223A200022454E40
:1002B00041424C455F535441525455505F50554C48
:1002C0005345223A20002252494748545F4D4F542B
:1002D0004F525F434F4E54524F4C4C45525F504922
:1002E0004E223A2000224C4546545F4D4F544F5207
:1002F0005F434F4E54524F4C4C45525F50494E2233
:100300003A2000224A4F595F595F50494E223A2005
:1003100000224A4F595F585F50494E223A2000222E
:1003200053504545445F4B4E4F425F50494E223A31
:100330002000225343414C455F414343454C5F57A6
:100340004954485F5350454544223A2000225350B7
:100350004545445F4B4E4F425F464153545F5641C3
:100360004C223A20002253504545445F4B4E4F42A9
:100370005F534C4F575F56414C223A200022555351
:10038000455F53504545445F4B4E4F42223A200053
:100390002252494748545F4D4F544F525F46415394
:1003A00054223A20002252494748545F4D4F544F3F
:1003B000525F534C4F57223A20002252494748542B
:1003C0005F4D4F544F525F43454E544552223A20A1
:1003D00000224C4546545F4D4F544F525F464153A7
:1003E00054223A2000224C4546545F4D4F544F5200
:1003F0005F534C4F57223A2000224C4546545F4DE4
:100400004F544F525F43454E544552223A200022EA
:10041000524556455253455F5455524E5F494E5FC3
:1004200052455645525345223A2000225343414CEF
:10043000455F5455524E494E475F5748454E5F4DB4
:100440004F56494E47223A2000225455524E5F5390
:1004500050454544223A20002246415354455354C6
:100460005F4241434B57415244223A2000224641C9
:1004700053544553545F464F5257415244223A20F9
:100480000022444543454C45524154494F4E5F5428
:1004900055524E494E47223A200022414343454C93
:1004A00045524154494F4E5F5455524E494E472292
:1004B0003A200022444543454C45524154494F4E51
:1004C0005F4241434B57415244223A20002241436C
:1004D00043454C45524154494F4E5F4241434B576F
:1004E000415244223A200022444543454C45524162
:1004F00054494F4E5F464F5257415244223A2000D2
:1005000022414343454C45524154494F4E5F464F6B
:100510005257415244223A200022595F44454144F7
:100520005A4F4E45223A200022434F4E54524F4CD0
:100530005F444F574E223A200022434F4E54524FB1
:100540004C5F43454E5445525F59223A20002243A6
:100550004F4E54524F4C5F5550223A200022585F64
:10056000444541445A4F4E45223A200022434F4EC3
:1005700054524F4C5F4C454654223A200022434F80
:100580004E54524F4C5F43454E5445525F58223AA9
:10059000200022434F4E54524F4C5F52494748541B
:1005A000223A20007B2263757272656E7420736537
:1005B0007474696E67732C2076657273696F6E3A16
:1005C000223A2000000000006410B71DC8206E3BD6
:1005D000AC30D9269041DC76F4516B6B5861B24D4A
:1005E0003C7105502083B8ED44930FF0E8A3D6D6B4
:1005F0008CB361CBB0C2649BD4D2D38678E20AA01C
:100600001CF2BDBD2276616C7565223A2022002263
:1006100073657474696E67223A2022007B227265CA
:1006200073756C74223A20226368616E67652200DC
:100630007B22726573756C74223A20226E6F206380
:1006400068616E6765227D007B22726573756C74CC
:10065000223A202273746F70706564227D007B22C1
:10066000726573756C74223A20226D6F76656D65C4
:100670006E7420616C6C6F776564227D007B2272E2
:100680006573756C74223A20227361766564227DED
:10069000002276616C7565223A205B0022736574D6
:1006A00074696E67223A2022007B22726573756C32
:1006B00074223A20226368616E676522007B22659E
:1006C00072726F72223A2022656570726F6D2066B9
:1006D00061696C757265227D007B226572726F7232
:1006E000223A2022656570726F6D206661696C75B3
:1006F0007265227D0022434845434B53554D223AB3
:10070000200022625F6D5F70223A200022627574C1
:10071000746F6E73223A2000226A6F794F4B223A2F
:100720002000226D6F76656D656E74416C6C6F771D
:100730006564223A20002273706565644B6E6F62B7
:1007400056616C223A20002272696768744D6F749A
:100750006F72577269746556616C223A2000226C80
:100760006566744D6F746F72577269746556616C0B
:10077000223A2000227370656564546F4472697672
:1007800065223A2000227475726E546F4472697645
:1007900065223A200022737065656450726F63654C
:1007A00073736564223A2000227475726E50726F02
:1007B000636573736564223A200022737065656413
:1007C000496E707574223A2000227475726E496EFB
:1007D000707574223A2000226A6F795956616C2232
:1007E0003A2000226A6F795856616C223A20007BC9
:1007F0002263757272656E742076616C7565732CF8
:10080000206D696C6C69733A223A20000000000088
:10081000240027002A0000000000250028002B00EB
:10082000000000002300260029000404040404043E
:10083000040402020202020203030303030301028F
:10084000040810204080010204081020010204085E
:10085000102000000008000201000003040700004F
:10086000000000000000681C11241FBECFEFD8E07C
:10087000DEBFCDBF15E0A0E0B1E0EEE6FDE602C0D0
:1008800005900D92AE31B107D9F726E0AEE1B5E0A3
:1008900001C01D92AF38B207E1F714E0C4E3D4E021
:1008A00004C02197FE010E94E133C333D107C9F789
:1008B0000E94DF1C0C94B5360C940000833081F04C
:1008C00028F4813099F08230A9F008958730A9F09A
:1008D0008830C9F08430B1F4809180008F7D03C0EE
:1008E000809180008F7780938000089584B58F7702
:1008F00084BD089584B58F7DFBCF8091B0008F7744
:100900008093B00008958091B0008F7DF9CFCF9390
:10091000DF93282F30E0F901EE5AF74F8491F90167
:10092000E25CF74FD491F901E65DF74FC491CC2317
:10093000A1F081110E945E04EC2FF0E0EE0FFF1F8A
:10094000E05EF74FA591B491EC91ED2381E090E04A
:1009500009F480E0DF91CF91089580E090E0FACF34
:100960001F93CF93DF93282F30E0F901EE5AF74F12
:100970008491F901E25CF74FD491F901E65DF74FFC
:10098000C491CC23A9F0162F81110E945E04EC2F94
:10099000F0E0EE0FFF1FEA5EF74FA591B4918FB71D
:1009A000F894EC91111108C0D095DE23DC938FBF31
:1009B000DF91CF911F910895DE2BF8CFCF93DF9376
:1009C00090E0FC01E25CF74F2491865D974FFC01BB
:1009D00084918823C9F090E0880F991FFC01E45F9F
:1009E000F74FA591B491FC01EA5EF74FC591D49100
:1009F00061110DC09FB7F8948C91209582238C9340
:100A00008881282328839FBFDF91CF91089562308A
:100A100051F49FB7F8943C91822F809583238C9357
:100A2000E8812E2BEFCF8FB7F894EC912E2B2C93DF
:100A30008FBFEACF8E3008F08E508770806480932D
:100A40007C0080917A00806480937A0080917A00A3
:100A500086FDFCCF809178009091790008953FB792
:100A6000F8948091BF059091C005A091C105B09107
:100A7000C20526B5A89B05C02F3F19F00196A11D00
:100A8000B11D3FBFBA2FA92F982F8827BC01CD01D8
:100A9000620F711D811D911D42E0660F771F881F37
:100AA000991F4A95D1F708958F929F92AF92BF9266
:100AB000CF92DF92EF92FF926B017C010E942F0593
:100AC0004B015C01C114D104E104F104B9F00E94AE
:100AD0002F05681979098A099B09683E73408105C9
:100AE000910580F321E0C21AD108E108F10888EEEF
:100AF000880E83E0981EA11CB11CE4CFFF90EF90FC
:100B0000DF90CF90BF90AF909F908F900895AF925D
:100B1000BF92CF92DF92EF92FF920F931F93CF93EA
:100B2000DF936C017B018B01040F151FEB015E014C
:100B3000AE18BF08C017D10759F06991D601ED91E1
:100B4000FC910190F081E02DC6010995892B79F780
:100B5000C501DF91CF911F910F91FF90EF90DF9032
:100B6000CF90BF90AF900895FC01538D448D252FF9
:100B700030E0842F90E0821B930B541710F0CF9637
:100B8000089501970895FC01918D828D981761F069
:100B9000A28DAE0FBF2FB11D5D968C91928D9F5F80
:100BA0009F73928F90E008958FEF9FEF0895FC015F
:100BB000918D828D981731F0828DE80FF11D858D12
:100BC00090E008958FEF9FEF0895FC01918D228DA5
:100BD000892F90E0805C9F4F821B91098F7399272A
:100BE000089583EC95E00E94E50521E0892B09F446
:100BF00020E0822F089580E090E0892B29F00E9468
:100C0000F10581110C9400000895FC01A48DA80F3A
:100C1000B92FB11DA35ABF4F2C91848D90E001963E
:100C20008F739927848FA689B7892C93A089B1895E
:100C30008C91837080648C93938D848D981306C0FF
:100C40000288F389E02D80818F7D80830895EF9263
:100C5000FF920F931F93CF93DF93EC0181E0888F76
:100C60009B8D8C8D98131AC0E889F989808185FF46
:100C700015C09FB7F894EE89FF896083E889F989E8
:100C800080818370806480839FBF81E090E0DF91EA
:100C9000CF911F910F91FF90EF900895F62E0B8D3D
:100CA00010E00F5F1F4F0F731127E02E8C8D8E11F8
:100CB0000CC00FB607FCFACFE889F989808185FF5F
:100CC000F5CFCE010E940506F1CFEB8DEC0FFD2F85
:100CD000F11DE35AFF4FF0829FB7F8940B8FEA891A
:100CE000FB8980818062CFCF0F931F93CF93DF93D7
:100CF0008C01D0E0C0E0F801EC0FFD1F6491662389
:100D000041F083EC95E00E942706892B11F0219693
:100D1000F2CFCE01DF91CF911F910F910895CF9324
:100D2000DF93EC01888D8823B9F0AA89BB89E88913
:100D3000F9898C9185FD03C0808186FD0DC00FB6B9
:100D400007FCF7CF8C9185FFF2CF808185FFEDCF37
:100D5000CE010E940506E9CFDF91CF910895DC0115
:100D6000EC91EC3090F511968C91119728E830E0D9
:100D7000281B310987FD3395220F331F220F331FA4
:100D80006217730784F012968C9128E532E0281BD5
:100D9000310987FD3395220F331F220F331F62174E
:100DA00073070CF49B0122503109220F331F4FB7F8
:100DB000F8948E2F90E0FC01EE0FFF1FE80FF91F53
:100DC000E05AF94F328321834FBF08951F93CF9389
:100DD000DF93EC01162F88818C3008F04EC061E063
:100DE000812F0E94DE048881282F30E0F901EE0F68
:100DF000FF1FE20FF31FE05AF94F1F736081607C01
:100E0000612B608319821A822CE0622F0E94D533F5
:100E1000829FB001112430E020E0AB01420F531F4C
:100E2000FA01EE0FFF1FE40FF51FE05AF94F908112
:100E300096FD16C02F5F3F4F2C30310571F78111A1
:100E40000FC01092800082E0809381001092850094
:100E500010928400B19A80916F00826080936F003D
:100E6000E8818E2F90E0FC01EE0FFF1FE80FF91FC5
:100E7000E05AF94F8081806480838881DF91CF912F
:100E80001F9108950F931F93E42FE627EF7024E03E
:100E9000E29FF0011124EC53FA4F05911591259131
:100EA000349154E096958795779567955A95D1F743
:100EB0006027712782279327E42FE295EF70E627BA
:100EC000EF7024E0E29FF0011124EC53FA4F0591FA
:100ED000159125913491E4E09695879577956795DE
:100EE000EA95D1F760277127822793271F910F91E9
:100EF000089597FF03C09195819591098A309105D6
:100F00006CF0843691056CF0883E23E0920764F023
:100F10008031974264F085E090E0089581E090E0B0
:100F2000089582E090E0089583E090E0089584E0E1
:100F300090E008950E94740620917B0530917C0515
:100F4000820F931F90937C0580937B0508952F92C9
:100F50003F924F925F926F927F928F929F92AF9249
:100F6000BF92CF92DF92EF92FF920F931F93CF9396
:100F7000DF93EC016A01790117FF02C010E000E085
:100F80006E157F050CF019C11601201A310AC21521
:100F9000D3050CF093C0621573050CF08FC0072EBB
:100FA000000C880B990B0E940D314B015C01BE01B6
:100FB0000D2E000C880B990B0E940D31A501940198
:100FC0000E94B6322B013C01B101330C880B990B06
:100FD0000E940D31A50194010E94B6329B01AC0123
:100FE000C301B2010E94233320E030E040E85FE318
:100FF0000E94B6324B015C010C0D1D1D0C171D0724
:101000009CF50E151F0584F5B701FF0C880B990B95
:101010000E940D316B017C01BE01DD0F880B990B25
:101020000E940D31A70196010E94B6324B015C016E
:10103000B7FAB094B7F8B094B801110F880B990BB8
:101040000E940D31A70196010E94B6329B01AC01AE
:10105000C501B4010E94233320E030E040E85FE3A3
:101060000E94B7324B015C0120E030E040E85FEBCA
:10107000C501B4010E94063187FD91C020E030E037
:1010800040E85FE3C501B4010E94CB3318160CF4AD
:101090008DC0C501B401DF91CF911F910F91FF90D9
:1010A000EF90DF90CF90BF90AF909F908F907F9008
:1010B0006F905F904F903F902F900895812C912CCE
:1010C00054019ACF18012C0C3D1C2C163D060CF037
:1010D00062C0261637060CF05EC0072E000C880B87
:1010E000990B0E940D314B015C01BE010D2E000CCD
:1010F000880B990B0E940D31A50194010E94B63214
:101100002B013C01B101330C880B990B0E940D316E
:10111000A50194010E94B6329B01AC01C301B2014A
:101120000E94233320E030E040E85FE30E94B632C3
:101130004B015C01C01AD10ACC15DD050CF094CF2F
:10114000EC14FD040CF090CFB701FF0C880B990B49
:101150000E940D314B015C01BE01DD0F880B990B24
:101160000E940D31A50194010E94B6322B013C0171
:1011700077FA709477F87094B601DD0C880B990BB0
:101180000E940D31A50194010E94B6329B01AC0171
:10119000C301B2015FCF812C912C5401CBCF812CA4
:1011A000912C90E8A92E9FEBB92E73CF812C912C16
:1011B00080E8A82E8FE3B82E6CCFE616F7060CF465
:1011C00081CF812C912C540164CFFC01019000202F
:1011D000E9F73197AF01481B590BBC0183EC95E04F
:1011E0000C948705009711F00C94E50890E080E0DE
:1011F00008950C94F2088F929F92AF92BF920F9332
:101200001F93CF93DF93CDB7DEB7A1970FB6F894B6
:10121000DEBF0FBECDBF19A2423008F44AE08E01F6
:101220000F5D1F4F842E912CB12CA12CA501940190
:101230000E948532E62FB901CA01EA30D4F4E05D9C
:10124000D801EE938D01232B242B252B79F7CD018B
:101250000E94F208A1960FB6F894DEBF0FBECDBF74
:10126000DF91CF911F910F91BF90AF909F908F9082
:101270000895E95CE5CFCF93DF930E94F208EC017B
:1012800080EA91E00E94E5088C0F9D1FDF91CF91CD
:101290000895CF93DF930E947406EC0180EA91E0F9
:1012A0000E94E5088C0F9D1FDF91CF9108958DEB73
:1012B00094E00E94E50820917B0530917C05820F27
:1012C000931F90937C0580937B050895CF92DF92C6
:1012D000EF92FF92CF93DF936C01990FEE08FF0816
:1012E000F7FE19C06DE283EC95E00E942706EC0141
:1012F00066277727CB016C197D098E099F094AE083
:101300000E94FB088C0F9D1FDF91CF91FF90EF9003
:10131000DF90CF9008954AE0C701B601DF91CF91E9
:10132000FF90EF90DF90CF900C94FB084F925F926C
:101330006F927F928F929F92AF92BF92CF92DF92E5
:10134000EF92FF920F931F93CF936B017C01742E4A
:10135000AC019B010E94D033882399F083EA91E08D
:10136000CF911F910F91FF90EF90DF90CF90BF90A2
:10137000AF909F908F907F906F905F904F900C9464
:10138000E50846015701E894B7F82FEF3FEF4FE724
:101390005FE7C501B4010E94D03381110DC02FEF6A
:1013A0003FEF4FE75FE7C501B4010E940631181611
:1013B0001CF487EA91E0D4CF2FEF3FEF4FE75FE4D3
:1013C000C701B6010E94CB3318161CF48BEA91E0DA
:1013D000C7CF2FEF3FEF4FE75FECC701B6010E9489
:1013E000063187FDF3CF20E030E0A901C701B60147
:1013F0000E94063110E000E087FF0AC06DE283EC36
:1014000095E00E9427068C01F7FAF094F7F8F09423
:10141000C0E060E070E080E09FE37C1641F020E0F7
:1014200030E040E251E40E942333CF5FF6CFA701C2
:1014300096010E94B7322B013C010E949C334B0164
:101440005C014AE00E94FB087C01E00EF11ECC2307
:10145000C1F1C501B4010E940B319B01AC01C30174
:10146000B2010E94B6324B015C016EE283EC95E062
:101470000E942706E80EF91EC15018F120E030E066
:1014800040E251E4C501B4010E946C312B013C01E2
:101490000E949C334B01B12CA12C4AE0C501B40140
:1014A0000E94FB08E80EF91EC501B4010E940B3131
:1014B0009B01AC01C301B2010E94B6324B015C0139
:1014C000DBCFC701CF911F910F91FF90EF90DF907D
:1014D000CF90BF90AF909F908F907F906F905F90D4
:1014E0004F900895682F70E090E080E04AE00C94FF
:1014F000FB080F931F93CF93DF9310927C051092FC
:101500007B0584EA95E00E949A078BE090E00E94B8
:10151000660920917B0530917C05820F931F909383
:101520007C0580937B050E94570982E995E00E9423
:101530009A0780918701909188010E946609209105
:101540007B0530917C05820F931F90937C058093DF
:101550007B050E9457098DE795E00E949A078091CC
:101560008501909186010E94660920917B0530914A
:101570007C05820F931F90937C0580937B050E94CE
:1015800057098CE695E00E949A078091830190911B
:1015900084010E94660920917B0530917C05820FB1
:1015A000931F90937C0580937B050E9457098DE5DE
:1015B00095E00E949A078091890190918A010E948A
:1015C000660920917B0530917C05820F931F9093D3
:1015D0007C0580937B050E9457098EE495E00E946C
:1015E0009A0780917F01909180010E946609209165
:1015F0007B0530917C05820F931F90937C0580932F
:101600007B050E94570989E395E00E949A07809123
:101610007D0190917E010E94660920917B053091A9
:101620007C05820F931F90937C0580937B050E941D
:10163000570988E295E00E949A0780917B0190917A
:101640007C010E94660920917B0530917C05820F08
:10165000931F90937C0580937B050E94570989E135
:1016600095E00E949A0780918101909182010E94E9
:10167000660920917B0530917C05820F931F909322
:101680007C0580937B050E94570980E095E00E94CD
:101690009A0760912001709121018091220190911F
:1016A000230144E00E94960920917B0530917C053E
:1016B000820F931F90937C0580937B050E945709AE
:1016C00087EE94E00E949A076091240170912501B1
:1016D000809126019091270144E00E949609209173
:1016E0007B0530917C05820F931F90937C0580933E
:1016F0007B050E9457098DEC94E00E949A07609147
:1017000028017091290180912A0190912B0144E0D8
:101710000E94960920917B0530917C05820F931FD2
:1017200090937C0580937B050E94570983EB94E09E
:101730000E949A0760912C0170912D0180912E01D9
:1017400090912F0144E00E94960920917B053091F1
:101750007C05820F931F90937C0580937B050E94EC
:1017600057098AE994E00E949A07609117017091E5
:1017700018018091190190911A0144E00E94960984
:1017800020917B0530917C05820F931F90937C05FF
:1017900080937B050E94570981E894E00E949A0794
:1017A00060911B0170911C0180911D0190911E019F
:1017B00044E00E94960920917B0530917C05820FC0
:1017C000931F90937C0580937B050E9457098DE6BB
:1017D00094E00E949A0760913401709135018091E4
:1017E00036019091370144E00E94960920917B05D3
:1017F00030917C05820F931F90937C0580937B052D
:101800000E94570988E594E00E949A076091380188
:101810007091390180913A0190913B0144E00E941E
:10182000960920917B0530917C05820F931F909340
:101830007C0580937B050E94570989E494E00E940F
:101840009A0760913C0170913D0180913E01909119
:101850003F0144E00E94960920917B0530917C0570
:10186000820F931F90937C0580937B050E945709FC
:101870008BE294E00E949A076091300170913101EF
:10188000809132019091330144E00E9496092091A9
:101890007B0530917C05820F931F90937C0580938C
:1018A0007B050E9457098FE094E00E949A0780917F
:1018B00094058111BBC284EB91E00E94F208209153
:1018C0007B0530917C05820F931F90937C0580935C
:1018D0007B050E94570989EF93E00E949A07809147
:1018E0000B0190910C010E94660920917B053091BB
:1018F0007C05820F931F90937C0580937B050E944B
:10190000570985EE93E00E949A0780910D0190910E
:101910000E010E94660920917B0530917C05820FA3
:10192000931F90937C0580937B050E94570981ED5E
:1019300093E00E949A0780910F01909110010E94FC
:10194000660920917B0530917C05820F931F90934F
:101950007C0580937B050E9457098AEB93E00E94E7
:101960009A0780911101909112010E9466092091BD
:101970007B0530917C05820F931F90937C058093AB
:101980007B050E94570985EA93E00E949A0780919F
:101990001301909114010E94660920917B053091FA
:1019A0007C05820F931F90937C0580937B050E949A
:1019B000570980E993E00E949A0780911501909160
:1019C00016010E94660920917B0530917C05820FEB
:1019D000931F90937C0580937B050E9457098DE7A8
:1019E00093E00E949A0780919D05811122C284EBA9
:1019F00091E00E94F20820917B0530917C05820FD6
:101A0000931F90937C0580937B050E94570985E680
:101A100093E00E949A0780914101909142010E94B7
:101A2000660920917B0530917C05820F931F90936E
:101A30007C0580937B050E9457098DE493E00E940A
:101A40009A0780919B0590919C050E9466092091C0
:101A50007B0530917C05820F931F90937C058093CA
:101A60007B050E94570982E393E00E949A078091C8
:101A70001F018111E1C184EB91E00E94F2082091E5
:101A80007B0530917C05820F931F90937C0580939A
:101A90007B050E9457098FE193E00E949A0780918D
:101AA00040010E94720A20917B0530917C05820FD3
:101AB000931F90937C0580937B050E94570981E1D9
:101AC00093E00E949A0780918C010E94720A2091F3
:101AD0007B0530917C05820F931F90937C0580934A
:101AE0007B050E94570983E093E00E949A0780914A
:101AF0008B010E94720A20917B0530917C05820F38
:101B0000931F90937C0580937B050E94570985EE77
:101B100092E00E949A07809101010E94720A20912E
:101B20007B0530917C05820F931F90937C058093F9
:101B30007B050E94570986EC92E00E949A078091EB
:101B400000010E94720A20917B0530917C05820F72
:101B5000931F90937C0580937B050E9457098DEA23
:101B600092E00E949A0780910201811168C184EB82
:101B700091E00E94F20820917B0530917C05820F54
:101B8000931F90937C0580937B050E94570988E9F9
:101B900092E00E949A0780910701909108010E94AB
:101BA000660920917B0530917C05820F931F9093ED
:101BB0007C0580937B050E94570982E892E00E9491
:101BC0009A0780910501909106010E946609209173
:101BD0007B0530917C05820F931F90937C05809349
:101BE0007B050E94570987E692E00E949A07809140
:101BF0000301909104010E94660920917B053091B8
:101C00007C05820F931F90937C0580937B050E9437
:101C1000570983E592E00E949A078091090190910B
:101C20000A010E94660920917B0530917C05820F94
:101C3000931F90937C0580937B050E9457098CE34A
:101C400092E00E949A078091A9058111FBC084EB64
:101C500091E00E94F20820917B0530917C05820F73
:101C6000931F90937C0580937B050E94570984E223
:101C700092E00E949A078091A7058111E6C084EB4B
:101C800091E00E94F20820917B0530917C05820F43
:101C9000931F90937C0580937B050E94570980E1F8
:101CA00092E00E949A0780917A010E94720A209124
:101CB0007B0530917C05820F931F90937C05809368
:101CC0007B050E9457098AEF91E00E949A07809154
:101CD000A8050E94720A20917B0530917C05820F35
:101CE000931F90937C0580937B050E945709C4E461
:101CF000D1E001E010E08BEE91E00E949A07C8016C
:101D00000E94660920917B0530917C05820F931F0C
:101D100090937C0580937B0586EE91E00E949A0764
:101D200088810E94720A20917B0530917C05820F88
:101D3000931F90937C0580937B0584EE91E00E9435
:101D40009A0769817A818B819C8144E00E9496097F
:101D500020917B0530917C05820F931F90937C0529
:101D600080937B0582EE91E00E949A076D817E81CF
:101D70008F81988544E00E94960920917B053091DF
:101D80007C05820F931F90937C0580937B058EEDDD
:101D900091E00E949A070F5F1F4F299607301105A7
:101DA00009F0A9CF86EC91E00E949A0780919E05E8
:101DB00081114EC084EB91E00E94F20820917B05D6
:101DC00030917C05820F931F90937C0580937B0557
:101DD0000E9457098AEA91E00E949A078091430184
:101DE0000E94720A20917B0530917C05820F931F1F
:101DF00090937C0580937B050E9457098DE991E0C3
:101E00000E949A07C0917B05D0917C05CE010E946B
:101E1000790721968C0F9D1F0E9466098CE095E042
:101E2000DF91CF911F910F910C943B098FEA91E0C4
:101E300044CD8FEA91E0DDCD8FEA91E01ECE8FEAAE
:101E400091E097CE8FEA91E004CF8FEA91E019CF2D
:101E50008FEA91E0B1CF0C943532CF92DF92EF92BE
:101E6000FF920F931F93CF93DF93EC018B01C090F0
:101E70002E05D0902F05E0903005F0903105FB0144
:101E80006081888199810E942B0F88819981F80156
:101E9000608188539F4F0E942B0F88819981F801A0
:101EA000608180579E4F0E942B0FF8014081C7012F
:101EB000B6010E944207288139812F5F3F4F398345
:101EC000288360932E0570932F058093300590939F
:101ED0003105DF91CF911F910F91FF90EF90DF902F
:101EE000CF900895AF92BF92CF92DF92EF92FF9280
:101EF0000F931F93CF93DF938C01EB01C0902E05BE
:101F0000D0902F05E0903005F09031055B0184E022
:101F1000A80EB11C6881F801808191810E942B0F6D
:101F2000F80180819181688188539F4F0E942B0F17
:101F3000F80180819181688180579E4F0E942B0F0C
:101F40004991C701B6010E9442076B017C01F8016B
:101F500080819181019691838083AC16BD06D1F674
:101F6000C0922E05D0922F05E0923005F0923105F7
:101F7000DF91CF911F910F91FF90EF90DF90CF9065
:101F8000BF90AF900895AF92BF92CF92DF92EF9241
:101F9000FF920F931F93CF93DF938C01EB01C090BF
:101FA0002E05D0902F05E0903005F09031055B01B3
:101FB00082E0A80EB11C6881F801808191810E94A5
:101FC0002B0FF80180819181688188539F4F0E9477
:101FD0002B0FF80180819181688180579E4F0E946C
:101FE0002B0F4991C701B6010E9442076B017C018A
:101FF000F80180819181019691838083AC16BD06A2
:10200000D1F6C0922E05D0922F05E0923005F092C5
:102010003105DF91CF911F910F91FF90EF90DF90ED
:10202000CF90BF90AF900895CF92DF92EF92FF9242
:102030000F931F93CF93DF93EC018B01C0902E057C
:10204000D0902F05E0903005F0903105FB016081C4
:10205000888199810E942B0F88819981F801608184
:1020600088539F4F0E942B0F88819981F8016081CE
:1020700080579E4F0E942B0FF8014081C701B60187
:102080000E944207288139812F5F3F4F398328837F
:1020900060932E0570932F05809330059093310542
:1020A000DF91CF911F910F91FF90EF90DF90CF9034
:1020B0000895CF92DF92EF92FF920F931F93CF93E9
:1020C000DF9300D0CDB7DEB781E090E09A838983BB
:1020D00010922E0510922F051092300510923105A6
:1020E00067E871E0CE0101960E94C30F65E871E0D8
:1020F000CE0101960E94C30F63E871E0CE01019604
:102100000E94C30F69E871E0CE0101960E94C30FDF
:102110006FE771E0CE0101960E94C30F6DE771E099
:10212000CE0101960E94C30F6BE771E0CE010196CC
:102130000E94C30F61E871E0CE0101960E94C30FB7
:1021400060E271E0CE0101960E94720F64E271E0DC
:10215000CE0101960E94720F68E271E0CE010196F5
:102160000E94720F6CE271E0CE0101960E94720F24
:1021700067E171E0CE0101960E94720F6BE171E0A0
:10218000CE0101960E94720F64E371E0CE010196C8
:102190000E94720F68E371E0CE0101960E94720FF7
:1021A0006CE371E0CE0101960E94720F60E371E072
:1021B000CE0101960E94720F6FE171E0CE0101968F
:1021C0000E942D0F64E975E0CE0101960E942D0F4B
:1021D0006BE071E0CE0101960E94C30F6DE071E0EB
:1021E000CE0101960E94C30F6FE071E0CE0101960F
:1021F0000E94C30F61E171E0CE0101960E94C30FFE
:1022000063E171E0CE0101960E94C30F65E171E0C8
:10221000CE0101960E94C30F6DE975E0CE010196D3
:102220000E942D0F61E471E0CE0101960E94C30F60
:102230006BE975E0CE0101960E94C30F6CE871E076
:10224000CE0101960E9414106BE871E0CE01019658
:102250000E94141061E071E0CE0101960E941410FA
:1022600060E071E0CE0101960E94141060E471E01C
:10227000CE0101960E94141067E071E0CE01019634
:102280000E94C30F65E071E0CE0101960E94C30F6A
:1022900063E071E0CE0101960E94C30F62E071E03D
:1022A000CE0101960E942D0F69E071E0CE010196EA
:1022B0000E94C30F6AE771E0CE0101960E941410DC
:1022C00069EA75E0CE0101960E942D0F67EA75E07C
:1022D000CE0101960E942D0F68EA75E0CE010196AD
:1022E0000E941410C0902E05D0902F05E09030056C
:1022F000F090310504E411E0F801608189819A8150
:102300000E942B0F89819A81F801608188539F4F29
:102310000E942B0F89819A81F801608180579E4F1E
:102320000E942B0FF80141918F01C701B6010E9455
:1023300042076B017C0189819A8101969A83898386
:10234000F1E00A371F07C1F6C0922E05D0922F0583
:10235000E0923005F09231056EE975E0CE0101960C
:102360000E942D0F63E471E0CE0101960E941410CB
:10237000C0902E05D0902F05E0903005F0903105EB
:102380000EE215E0F801608189819A810E942B0F8D
:1023900089819A81F801608188539F4F0E942B0F99
:1023A00089819A81F801608180579E4F0E942B0F8E
:1023B000F80141918F01C701B6010E9442076B01EC
:1023C0007C0189819A8101969A838983F5E00233A1
:1023D0001F07C1F6C0922E05D0922F05E09230055E
:1023E000F09231050F900F90DF91CF911F910F91D7
:1023F000FF90EF90DF90CF900895AF92BF92CF9271
:10240000DF92EF92FF920F931F93CF93DF9300D051
:1024100000D0CDB7DEB7E0916E05F0E0EE5CFA4F8C
:1024200010826AEB71E082E395E00E942A2D7C0124
:102430006AEB71E090E080E00E942A2D8C016EE151
:10244000C62E65E0D62E8FE0F60111928A95E9F747
:102450006DEB71E0C7010E940434892BA9F5C80116
:102460000E940C2D80938701909388019F938F93F6
:102470008BEC91E09F938F93DF92CF920E94143464
:102480000F900F900F900F900F900F908CE196E0AF
:102490000E9474068DEB94E00E94F9088FE096E0AC
:1024A0000E947406C7010E94F9088CEB94E00E9418
:1024B000F90884E096E00E9474068EE195E00E949F
:1024C000F9088BE095E0DAC56EEC71E0C7010E9477
:1024D0000434892B41F4C8010E940C2D809385019E
:1024E00090938601C3CF6FED71E0C7010E94043461
:1024F000892B41F4C8010E940C2D80938301909395
:102500008401B4CF6CEE71E0C7010E940434892BC2
:10251000B9F4C8010E940C2D97FF03C091958195D5
:1025200091098093890190938A019F938F938BECFB
:1025300091E09F938F938EE195E09F938F939ECF31
:1025400067EF71E0C7010E940434892B41F4C80190
:102550000E940C2D80937F019093800187CF62E0D1
:1025600072E0C7010E940434892B41F4C8010E9423
:102570000C2D80937D0190937E0178CF63E172E012
:10258000C7010E940434892B41F4C8010E940C2D1C
:1025900080937B0190937C0169CF60E272E0C70178
:1025A0000E940434892B69F4C8010E940C2D97FF06
:1025B00003C0919581959109809381019093820147
:1025C000B4CF6BE272E0C7010E940434892B09F595
:1025D000C8010E94082D20E030E0A9010E94CB3301
:1025E000181694F4C8010E94082D6093200170937E
:1025F000210180932201909323010EE115E024E054
:1026000040E00E94EA2C42CFC8010E94082D905859
:10261000ECCF60E472E0C7010E940434892BD9F446
:10262000C8010E94082D20E030E0A9010E94CB33B0
:10263000181664F4C8010E94082D60932401709359
:1026400025018093260190932701D7CFC8010E94CE
:10265000082D9058F2CF65E572E0C7010E9404345E
:10266000892BD9F4C8010E94082D20E030E0A9018F
:102670000E94CB33181664F4C8010E94082D6093A1
:1026800028017093290180932A0190932B01B5CFE3
:10269000C8010E94082D9058F2CF6BE672E0C70186
:1026A0000E940434892BD9F4C8010E94082D20E02F
:1026B00030E0A9010E94CB33181664F4C8010E94CF
:1026C000082D60932C0170932D0180932E0190931F
:1026D0002F0193CFC8010E94082D9058F2CF61E8D6
:1026E00072E0C7010E940434892BD9F4C8010E940A
:1026F000082D20E030E0A9010E94CB33181664F4C5
:10270000C8010E94082D60931701709318018093EF
:10271000190190931A0171CFC8010E94082D905899
:10272000F2CF66E972E0C7010E940434892BD9F424
:10273000C8010E94082D20E030E0A9010E94CB339F
:10274000181664F4C8010E94082D60931B01709351
:102750001C0180931D0190931E014FCFC8010E9460
:10276000082D9058F2CF6BEA72E0C7010E94043442
:10277000892B09F062C0C8010E94082D20E030E0DA
:10278000A9010E94CB33181674F4C8010E94082DC9
:1027900020E030E0A9010E94063187FF0EC060E012
:1027A00070E0CB012CC0C8010E94082D20E030E071
:1027B000A9010E94CB33181694F3C8010E94082D7A
:1027C00020E030E0A9010E94CB3318160CF5C801B7
:1027D0000E94082D20E030E040E85FE30E94CB3308
:1027E00018160CF1C8010E94082D20E030E0A90164
:1027F0000E94CB331816E4F4C8010E94082D6093A0
:102800003401709335018093360190933701F5CEF2
:10281000C8010E94082D20E030E040E85FEB0E94F4
:10282000063187FFDFCF60E070E080E89FE3E7CF0D
:10283000C8010E94082D9058E2CF6BEB72E0C701EF
:102840000E940434892B09F062C0C8010E94082D3F
:1028500020E030E0A9010E94CB33181674F4C801BF
:102860000E94082D20E030E0A9010E94063187FF78
:102870000EC060E070E0CB012CC0C8010E94082DA2
:1028800020E030E0A9010E94CB33181694F3C80170
:102890000E94082D20E030E0A9010E94CB331816D9
:1028A0000CF5C8010E94082D20E030E040E85FE30D
:1028B0000E94CB3318160CF1C8010E94082D20E0AD
:1028C00030E0A9010E94CB331816E4F4C8010E943D
:1028D000082D609338017093390180933A019093E9
:1028E0003B018BCEC8010E94082D20E030E040E87B
:1028F0005FEB0E94063187FFDFCF60E070E080E889
:102900009FE3E7CFC8010E94082D9058E2CF6CECFE
:1029100072E0C7010E940434892B09F062C0C8012B
:102920000E94082D20E030E0A9010E94CB33181648
:1029300074F4C8010E94082D20E030E0A9010E9433
:10294000063187FF0EC060E070E0CB012CC0C801EB
:102950000E94082D20E030E0A9010E94CB33181618
:1029600094F3C8010E94082D20E030E0A9010E94E4
:10297000CB3318160CF5C8010E94082D20E030E07A
:1029800040E85FE30E94CB3318160CF1C8010E94A7
:10299000082D20E030E0A9010E94CB331816E4F4A2
:1029A000C8010E94082D60933C0170933D01809303
:1029B0003E0190933F0121CEC8010E94082D20E0E6
:1029C00030E040E85FEB0E94063187FFDFCF60E038
:1029D00070E080E89FE3E7CFC8010E94082D90587F
:1029E000E2CF67ED72E0C7010E940434892B61F4E5
:1029F000C8010E94082D60933001709331018093CB
:102A0000320190933301F9CD61EF72E0C7010E946A
:102A10000434892B79F4C8010E940C2D21E0009721
:102A200009F420E020931F01892B09F42DC26FEADD
:102A300071E02CC268E073E0C7010E940434892B66
:102A400051F4C8010E940C2D21E0009709F420E008
:102A500020939405E9CF60E273E0C7010E9404343B
:102A6000892B41F4C8010E940C2D80930B01909397
:102A70000C015BCD62E373E0C7010E940434892B33
:102A800041F4C8010E940C2D80930D0190930E011A
:102A90004CCD62E473E0C7010E940434892B41F4F9
:102AA000C8010E940C2D80930F01909310013DCD21
:102AB00062E573E0C7010E940434892B41F4C80128
:102AC0000E940C2D80931101909312012ECD65E68A
:102AD00073E0C7010E940434892B41F4C8010E94AD
:102AE0000C2D80931301909314011FCD66E773E0C2
:102AF000C7010E940434892B41F4C8010E940C2DA7
:102B0000809315019093160110CD67E873E0C7011B
:102B10000E940434892B51F4C8010E940C2D21E03D
:102B2000009709F420E020939D057ECF66E973E0CD
:102B3000C7010E940434892B41F4C8010E940C2D66
:102B40008093410190934201F0CC6AEA73E0C7019F
:102B50000E940434892B41F4C8010E940C2D8093FB
:102B60009B0590939C05E1CC6EEB73E0C7010E943E
:102B70000434892B61F4C8010E940C2D80938C01D0
:102B800060E00E94DE0480918C011F92CFCC68EC43
:102B900073E0C7010E940434892B59F4C8010E94D4
:102BA0000C2D80938B0160E00E94DE0480918B01EC
:102BB000ECCF62ED73E0C7010E940434892B09F069
:102BC00058C0609111017091120185E896E00E9451
:102BD000AF06E09185068E2F90E0FC01EE0FFF1FFF
:102BE000E80FF91FE05AF94F80818F7B8083609155
:102BF0000B0170910C0188E896E00E94AF06E0910D
:102C000088068E2F90E0FC01EE0FFF1FE80FF91FE2
:102C1000E05AF94F80818F7B8083C8010E940C2D80
:102C2000809301016AE070E080E090E00E9454052A
:102C30006091010170E088E896E00E94E6066091EC
:102C40000B0170910C0188E896E00E94AF0660913C
:102C5000000170E085E896E00E94E60660911101AF
:102C60007091120185E896E00E94AF068091010103
:102C70008CCF6CEE73E0C7010E940434892B09F0FD
:102C800058C060910B0170910C0188E896E00E9499
:102C9000AF06E09188068E2F90E0FC01EE0FFF1F3B
:102CA000E80FF91FE05AF94F80818F7B8083609194
:102CB00011017091120185E896E00E94AF06E09143
:102CC00085068E2F90E0FC01EE0FFF1FE80FF91F25
:102CD000E05AF94F80818F7B8083C8010E940C2DC0
:102CE000809300016AE070E080E090E00E9454056B
:102CF0006091000170E085E896E00E94E606609130
:102D000011017091120185E896E00E94AF06609172
:102D1000010170E088E896E00E94E60660910B01F0
:102D200070910C0188E896E00E94AF068091000146
:102D30002CCF67E074E0C7010E940434892B59F45A
:102D4000C8010E940C2D8093400160E00E94DE04C7
:102D5000809140011ACF66E174E0C7010E940434FB
:102D6000892B41F4C8010E940C2D80930701909398
:102D70000801DBCB67E274E0C7010E940434892BB1
:102D800041F4C8010E940C2D809305019093060127
:102D9000CCCB69E374E0C7010E940434892B91F421
:102DA000C8010E940C2D893EF3E09F0714F088EEC5
:102DB00093E097FF02C090E080E09093040180933D
:102DC0000301B3CB60E574E0C7010E940434892B92
:102DD00051F4C8010E940C2D21E0009709F420E075
:102DE0002093020121CE65E674E0C7010E940434FD
:102DF000892B41F4C8010E940C2D80930901909306
:102E00000A0193CB6CE874E0C7010E940434892B5B
:102E100059F4C8010E940C2D80937A0162E00E944F
:102E2000DE0480917A01B1CE65E774E0C7010E94AB
:102E30000434892B81F5C8010E940C2D21E00097F4
:102E400009F420E02093A905892BD1F08091A705F2
:102E5000882329F062E080917A010E94DE0410E06C
:102E600009E08091A805181758F4019FF00111247A
:102E7000EC5BFE4F62E080810E94DE041F5FF1CFB9
:102E80008091A9058111D3CD64EB71E08EE195E0CD
:102E90000E940D34FBCA68E874E0C7010E94043444
:102EA000892B41F5C8010E940C2D21E0009709F4FF
:102EB00020E02093A7052091A9052223C1F0892BAA
:102EC00029F062E080917A010E94DE0410E009E0BE
:102ED0008091A805181758F4019FF0011124EC5BAC
:102EE000FE4F62E080810E94DE041F5FF1CF80917F
:102EF000A705C8CF6CE974E0C7010E940434892B90
:102F000079F5C8010E940C2D97FD23C087309105EB
:102F100014F58093A8058091A9058823F1F080918C
:102F2000A705882329F062E080917A010E94DE04DF
:102F300010E009E08091A805181778F4019FF001CE
:102F40001124EC5BFE4F62E080810E94DE041F5F73
:102F5000F1CF80E0DECF86E0DCCF8091A80515CEF2
:102F600060EA74E0C7010E940434892B09F089C02B
:102F7000C8010E940C2D6C015C0121E0A21AB1086D
:102F800046E0A416B10408F0BEC06AEB74E0C801C4
:102F90000E942A2D6AEB74E090E080E00E942A2DC6
:102FA0000E940C2D99E09A9D90019B9D300D11245B
:102FB000F901EC5BFE4F7F0180836AEB74E090E0E7
:102FC00080E00E942A2D0E94082DF7016183728300
:102FD000838394836AEB74E090E080E00E942A2D62
:102FE0000E94082DF701658376838783908762E0CE
:102FF00080810E94DE0489EA96E00E9474068DEBCF
:1030000094E00E94F9088CE996E00E9474068EEA2A
:1030100094E00E94F908C6010E9466098CEB94E0D6
:103020000E94F90881E996E00E947406F701808108
:103030000E94720A8BEB91E00E94F908F70161810E
:103040007281838194810EE115E024E040E00E94CA
:10305000EA2CC8010E94F9088BEB91E00E94F90864
:10306000F701658176818781908524E040E00E94A8
:10307000EA2CC8010E94F90880EC94E00E943B0908
:1030800042C063EC74E0C7010E940434892B91F4C0
:10309000C8010E940C2D21E0009709F420E0209344
:1030A0009E05892B09F4F0CE62E0809143010E94D5
:1030B000DE04BDCC67ED74E0C7010E940434892BA7
:1030C00059F4C8010E940C2D8093430162E00E94D4
:1030D000DE048091430159CD6FEE74E0C7010E9478
:1030E0000434892B39F40E9459108DE796E00E9430
:1030F000490909C064EF74E0C7010E940434892BB8
:1031000099F40E94790A10926E050F900F900F901B
:103110000F90DF91CF911F910F91FF90EF90DF9073
:10312000CF90BF90AF9008956DEF74E0C7010E94FB
:103130000434892BA1F41C821B828CE090E09A83DA
:103140008983BE016F5F7F4FCE0103960E94C30F3C
:1031500068E873E180E090E00E94540597C964E05C
:1031600075E0C7010E940434892B91F364E972E091
:10317000C7010E940434892B31F481E080938105DA
:103180008EE596E0B4CF6BEF74E0C7010E94043483
:10319000892BA9F41092810560910B0170910C01AB
:1031A00088E896E00E94AF066091110170911201CB
:1031B00085E896E00E94AF0688E496E098CF80E329
:1031C00096E095CF0C942D32CF92DF92EF92FF9242
:1031D0000F931F93CF93DF938C017B01FC01C08081
:1031E000D180C6010E94E218C82FC60188539F4FA4
:1031F0000E94E218D82FC60180579E4F0E94E21805
:10320000CD1327C0C81325C0F701C08360912E05D8
:1032100070912F058091300590913105F701408123
:103220000E94420760932E0570932F05809330050E
:1032300090933105F801808191810196918380837B
:10324000DF91CF911F910F91FF90EF90DF90CF9082
:1032500008956C2F682B6D23C8236C2BF7016083B6
:10326000F801808191810E942B0FF801808191816A
:10327000F701608188539F4F0E942B0FF8018081D6
:103280009181F701608180579E4F0E942B0F61E072
:103290008DE00E94DE0460E08DE00E94B00464E6F0
:1032A00070E080E090E00E94540561E08DE00E94B3
:1032B000B00462E370E080E090E00E945405A895BD
:1032C000A5CFAF92BF92CF92DF92EF92FF920F9372
:1032D0001F93CF93DF937C01EB016B0184E0C80E59
:1032E000D11CF701A080B180C5010E94E218182FFF
:1032F000C50188539F4F0E94E218082FC5018057CF
:103300009E4F0E94E21810132AC0181328C0188379
:1033100060912E0570912F058091300590913105B7
:1033200049910E94420760932E0570932F05809368
:10333000300590933105F701808191810196918349
:103340008083CC15DD0569F6DF91CF911F910F9138
:10335000FF90EF90DF90CF90BF90AF900895612FD6
:10336000682B60231823612B6883F701808191818A
:103370000E942B0FF70180819181688188539F4FB4
:103380000E942B0FF70180819181688180579E4FA9
:103390000E942B0F61E08DE00E94DE0460E08DE072
:1033A0000E94B00464E670E080E090E00E94540562
:1033B00061E08DE00E94B00462E370E080E090E0A4
:1033C0000E945405A895A4CFAF92BF92CF92DF92EE
:1033D000EF92FF920F931F93CF93DF937C01EB014A
:1033E0006B0182E0C80ED11CF701A080B180C5013D
:1033F0000E94E218182FC50188539F4F0E94E218BF
:10340000082FC50180579E4F0E94E21810132AC052
:10341000181328C0188360912E0570912F05809194
:1034200030059091310549910E94420760932E0525
:1034300070932F058093300590933105F7018081BB
:103440009181019691838083CC15DD0569F6DF912A
:10345000CF911F910F91FF90EF90DF90CF90BF9091
:10346000AF900895612F682B60231823612B688328
:10347000F701808191810E942B0FF701808191815A
:10348000688188539F4F0E942B0FF70180819181A3
:10349000688180579E4F0E942B0F61E08DE00E9453
:1034A000DE0460E08DE00E94B00464E670E080E03D
:1034B00090E00E94540561E08DE00E94B00462E358
:1034C00070E080E090E00E945405A895A4CFCF92D0
:1034D000DF92EF92FF920F931F93CF93DF938C01B4
:1034E0007B01FC01C080D180C6010E94E218C82F78
:1034F000C60188539F4F0E94E218D82FC6018057FB
:103500009E4F0E94E218CD1327C0C81325C0F701B3
:10351000C08360912E0570912F05809130059091A8
:103520003105F70140810E94420760932E05709398
:103530002F058093300590933105F80180819181AA
:10354000019691838083DF91CF911F910F91FF901E
:10355000EF90DF90CF9008956C2F682B6D23C823D8
:103560006C2BF7016083F801808191810E942B0F01
:10357000F80180819181F701608188539F4F0E94FB
:103580002B0FF80180819181F701608180579E4F58
:103590000E942B0F61E08DE00E94DE0460E08DE070
:1035A0000E94B00464E670E080E090E00E94540560
:1035B00061E08DE00E94B00462E370E080E090E0A2
:1035C0000E945405A895A5CF1F920F920FB60F9297
:1035D00011242F933F938F939F93AF93BF93809129
:1035E000BB059091BC05A091BD05B091BE05309181
:1035F000BA0523E0230F2D3758F50196A11DB11D03
:103600002093BA058093BB059093BC05A093BD059C
:10361000B093BE058091BF059091C005A091C105F2
:10362000B091C2050196A11DB11D8093BF05909375
:10363000C005A093C105B093C205BF91AF919F9102
:103640008F913F912F910F900FBE0F901F90189563
:1036500026E8230F0296A11DB11DD2CF1F920F9213
:103660000FB60F9211242F933F934F935F936F9355
:103670007F938F939F93AF93BF93EF93FF9383ECCD
:1036800095E00E940506FF91EF91BF91AF919F9148
:103690008F917F916F915F914F913F912F910F90FB
:1036A0000FBE0F901F9018951F920F920FB60F929A
:1036B00011242F938F939F93EF93FF93E091D30562
:1036C000F091D4058081E091D905F091DA0582FD71
:1036D0001BC090818091DC058F5F8F732091DD0589
:1036E000821741F0E091DC05F0E0ED53FA4F958F41
:1036F0008093DC05FF91EF919F918F912F910F9017
:103700000FBE0F901F9018958081F4CF1F920F92DB
:103710000FB60F9211242F933F934F935F936F93A4
:103720007F938F939F93AF93BF93CF93DF93EF9349
:10373000FF9380912D05C0918406D0E087FF24C0BF
:10374000109285001092840080912D058F5F8093E8
:103750002D0580912D05082E000C990B8C179D07C7
:1037600024F480912D058C30C4F1809184009091D7
:103770008500049680349C4908F47AC080918400C6
:1037800090918500049676C080912D05082E000C3E
:10379000990B8C179D07C4F6E0912D058E2FEE0F27
:1037A000990BFC01EE0FFF1FE80FF91FE05AF94FCC
:1037B000808186FFC9CFE0912D058E2FEE0F990BEA
:1037C000FC01EE0FFF1FE80FF91FE05AF94F80814F
:1037D00060E08F730E94B004B7CF209184003091D5
:1037E0008500E0912D058E2FEE0F990BFC01EE0F59
:1037F000FF1FE80FF91FE05AF94F81819281820F74
:10380000931F9093890080938800E0912D058E2F5F
:10381000EE0F990BFC01EE0FFF1FE80FF91FE05AA6
:10382000F94F808186FF11C0E0912D058E2FEE0F9C
:10383000990BFC01EE0FFF1FE80FF91FE05AF94F3B
:10384000808161E08F730E94B004FF91EF91DF915E
:10385000CF91BF91AF919F918F917F916F915F9128
:103860004F913F912F910F900FBE0F901F90189581
:1038700080E49CE990938900809388008FEF809387
:103880002D05E3CF1F920F920FB60F9211242F93A5
:103890003F934F935F936F937F938F939F93AF93D8
:1038A000BF93EF93FF93A895F0E0E0E00995FF91B7
:1038B000EF91BF91AF919F918F917F916F915F91A8
:1038C0004F913F912F910F900FBE0F901F90189521
:1038D0001092C6051092C50588EE93E0A0E0B0E016
:1038E0008093C7059093C805A093C905B093CA05F6
:1038F00082E991E09093C4058093C30585EC90E044
:103900009093D0058093CF0584EC90E09093D205FE
:103910008093D10580EC90E09093D4058093D305FB
:1039200081EC90E09093D6058093D50582EC90E0F1
:103930009093D8058093D70586EC90E09093DA05B4
:103940008093D9051092DC051092DD051092DE05FA
:103950001092DF05809184068C3048F591E0980F35
:10396000909384068093880690E0FC01EE0FFF1F81
:10397000E80FF91FE05AF94F88EB9BE092838183AF
:10398000809184068C30B8F491E0980F909384066F
:103990008093850690E0FC01EE0FFF1FE80FF91FF2
:1039A000E05AF94F88EB9BE09283818308958FEF73
:1039B00080938806E5CF8FEF809385060895CF9397
:1039C000DF93CDB7DEB7A1970FB6F894DEBF0FBE79
:1039D000CDBF789484B5826084BD84B5816084BD98
:1039E00085B5826085BD85B5816085BD80916E009D
:1039F000816080936E0010928100809181008260CE
:103A0000809381008091810081608093810080910A
:103A100080008160809380008091B10084608093F9
:103A2000B1008091B00081608093B00080917A00F5
:103A3000846080937A0080917A00826080937A001B
:103A400080917A00816080937A0080917A0080680A
:103A500080937A001092C10061E08DE00E94DE0444
:103A600061E08DE00E94B004E091D305F091D405AF
:103A700082E08083E091CF05F091D0051082E09143
:103A8000D105F091D20587E080831092DB05E091AB
:103A9000D705F091D80586E08083E091D505F091B7
:103AA000D605808180618083E091D505F091D605AF
:103AB000808188608083E091D505F091D605808172
:103AC00080688083E091D505F091D60580818F7D57
:103AD000808380EA91E00E94E50862E370E080E084
:103AE00090E00E94540560E08DE00E94B004F894DC
:103AF000A8958091600088618093600087E480933E
:103B00006000789480E092E09093B5058093B405CE
:103B10009093B3058093B2051092AA051092AB055D
:103B20001092AC051092AD051092AE051092AF0543
:103B30001092B0051092B105109290051092910567
:103B4000109292051092930510928C0510928D059B
:103B500010928E0510928F0510929F051092A0056D
:103B60001092A1051092A2051092A3051092A4052F
:103B70001092A5051092A6058FEF9FEF90939A05DE
:103B80008093990580E090E0A0E8BFE380939505DD
:103B900090939605A0939705B09398051092B6055B
:103BA0001092B7051092B8051092B90510927D05D4
:103BB00010927E0510927F051092800581E080931F
:103BC000810510928705109283051092840510924A
:103BD00085051092860518861F82BE01675F7F4F9C
:103BE000CE0107960E94671A89858B3061F018868E
:103BF0001F826DE871E0CE0107960E9414100E94AA
:103C000059101092810581E090E09E838D8310927F
:103C10002E0510922F0510923005109231058E015D
:103C20000B5F1F4F67E871E0C8010E94E41965E867
:103C300071E0C8010E94E41963E871E0C8010E94C4
:103C4000E41969E871E0C8010E94E4196FE771E0C6
:103C5000C8010E94E4196DE771E0C8010E94E419EF
:103C60006BE771E0C8010E94E41961E871E0C801E6
:103C70000E94E41960E271E0C8010E94611964E2E7
:103C800071E0C8010E94611968E271E0C8010E94F8
:103C900061196CE271E0C8010E94611967E171E08D
:103CA000C8010E9461196BE171E0C8010E946119AD
:103CB00064E371E0C8010E94611968E371E0C80122
:103CC0000E9461196CE371E0C8010E94611960E310
:103CD00071E0C8010E9461196FE171E0C8010E94A2
:103CE000E41864E975E0C8010E94E4186BE071E033
:103CF000C8010E94E4196DE071E0C8010E94E41956
:103D00006FE071E0C8010E94E41961E171E0C8014F
:103D10000E94E41963E171E0C8010E94E41965E1C1
:103D200071E0C8010E94E4196DE975E0C8010E94C4
:103D3000E41861E471E0C8010E94E4196BE975E0E0
:103D4000C8010E94E4196CE871E0C8010E94671A7A
:103D50006BE871E0C8010E94671A61E071E0C80178
:103D60000E94671A60E071E0C8010E94671A60E46F
:103D700071E0C8010E94671A67E071E0C8010E9403
:103D8000E41965E071E0C8010E94E41963E071E0A4
:103D9000C8010E94E41962E071E0C8010E94E418C1
:103DA00069E071E0C8010E94E4196AE771E0C801A6
:103DB0000E94671A69EA75E0C8010E94E41867EA80
:103DC00075E0C8010E94E41868EA75E0C8010E9425
:103DD000671A64E4E62E61E0F62EAD80BE80C50170
:103DE0000E94E218D82EC50188539F4F0E94E21806
:103DF000C82EC50180579E4F0E94E218DC1098C162
:103E0000D81296C1D701DC9260912E0570912F05D2
:103E10008091300590913105D7014D917D010E942F
:103E2000420760932E0570932F0580933005909381
:103E300031058D819E8101969E838D83BAE7EB16B5
:103E4000B1E0FB0651F66EE975E0C8010E94E41886
:103E500063E471E0C8010E94671A40902E055090FB
:103E60002F05609030057090310519821A821B82EF
:103E70001C82FE0131966F01AD80BE80C5010E949B
:103E8000E218E82EC50188539F4F0E94E218982E31
:103E9000C50180579E4F0E94E218E9107DC1E812CB
:103EA0007BC1D601EC9260912E0570912F05809117
:103EB000300590913105D6014D916D010E94420768
:103EC00060932E0570932F058093300590933105F4
:103ED0008D819E8101969E838D83C016D10661F6E9
:103EE00089819A81AB81BC81481659066A067B0696
:103EF00009F485C162E370E080E090E00E9454051F
:103F000089ED96E00E94490962E370E080E090E06C
:103F10000E945405E09188068E2F90E0FC01EE0F80
:103F2000FF1FE80FF91FE05AF94F808186FF02C09A
:103F30008F7B8083E09185068E2F90E0FC01EE0F51
:103F4000FF1FE80FF91FE05AF94F808186FF02C07A
:103F50008F7B808364E670E080E090E00E945405EF
:103F600012E060E0812F0E94DE041F5F1536C9F762
:103F700061E08DE00E94DE0462E370E080E090E0AA
:103F80000E9454050FB6F894A8958091600088614E
:103F900080936000109260000FBE8DEB96E00E944F
:103FA000490961E08DE00E94B00468EC70E080E0B7
:103FB00090E00E94540560E08DE00E94B00468EC3F
:103FC00070E080E090E00E94540561E08DE00E9486
:103FD000B00468EC70E080E090E00E94540560E07E
:103FE0008DE00E94B00468EC70E080E090E00E94F8
:103FF000540561E08DE00E94B00468EC70E080E060
:1040000090E00E94540560E08DE00E94B00468ECEE
:1040100070E080E090E00E94540560E971E080E08B
:1040200090E00E94540561E08DE00E94B00464EFCE
:1040300071E080E090E00E94540560E08DE00E9415
:10404000B00460E971E080E090E00E94540561E016
:104050008DE00E94B00464EF71E080E090E00E9487
:10406000540560E08DE00E94B00460E971E080E0FA
:1040700090E00E94540561E08DE00E94B00464EF7E
:1040800071E080E090E00E94540560E08DE00E94C5
:10409000B00460E971E080E090E00E94540560E9BE
:1040A00071E080E090E00E94540561E08DE00E94A4
:1040B000B00468EC70E080E090E00E94540560E09D
:1040C0008DE00E94B00468EC70E080E090E00E9417
:1040D000540561E08DE00E94B00468EC70E080E07F
:1040E00090E00E94540560E08DE00E94B00468EC0E
:1040F00070E080E090E00E94540561E08DE00E9455
:10410000B00468EC70E080E090E00E94540560E04C
:104110008DE00E94B00468EC70E080E090E00E94C6
:10412000540568EE73E080E090E00E94540535CFBE
:104130006D2D682B6C21D8226D29F7016083C50194
:104140000E942B0F8D819E81D7016C9188539F4FC8
:104150000E942B0F8D819E81F701608180579E4FB9
:104160000E942B0F61E08DE00E94DE0460E08DE094
:104170000E94B00464E670E080E090E00E94540584
:1041800061E08DE00E94B00462E370E080E090E0C6
:104190000E945405A89538CEFE2CF82AF920E82272
:1041A000FE28F601F0826F2DC5010E942B0F8D8134
:1041B0009E816F2D88539F4F0E942B0F8D819E8172
:1041C0006F2D80579E4F0E942B0F61E08DE00E9463
:1041D000DE0460E08DE00E94B00464E670E080E000
:1041E00090E00E94540561E08DE00E94B00462E31B
:1041F00070E080E090E00E945405A89554CE809134
:104200000B0190910C0190938B0580938A0580910E
:1042100011019091120190938905809388058091F6
:1042200002018093820564E670E080E090E00E94E5
:1042300054050E94790A64E670E080E090E00E94F4
:1042400054050E94790A60E080918C010E94DE048E
:1042500060E080918B010E94DE0460E0809140016B
:104260000E94DE048091A9058823D1F08091A705E2
:10427000882329F062E080917A010E94DE0410E038
:1042800009E08091A805181758F4019FF001112446
:10429000EC5BFE4F62E080810E94DE041F5FF1CF85
:1042A00080919E05882329F062E0809143010E945D
:1042B000DE046091010170E088E896E00E94E60665
:1042C0006091000170E085E896E00E94E60660914A
:1042D0000B0170910C0188E896E00E94AF06609196
:1042E00011017091120185E896E00E94AF0664E624
:1042F00070E080E090E00E945405A89583EC95E082
:104300000E94C305F82EBFEF8B1729F0ECE28E1345
:10431000ECC00E94FD118091730581110DC00E94B7
:104320002F0560936F0570937005809371059093CE
:10433000720591E090937305C0906F05D090700561
:10434000E0907105F0907205C114D104E104F1040C
:1043500009F4F0C00E942F056C197D098E099F0990
:104360000E940B3120E034E244E759E40E942333F9
:104370006E8B7F8B888F998F0E942F0560936F05BE
:104380007093700580937105909372058E899F8953
:10439000A88DB98D8093B6059093B705A093B80505
:1043A000B093B90580918C010E941A056C0190931D
:1043B000B5058093B40580918B010E941A057C019C
:1043C0009093B3058093B2050091890110918A0101
:1043D000209187013091880140918501509186019B
:1043E0006091830170918401C6010E94A7076093C8
:1043F000AE057093AF058093B0059093B105009121
:1044000081011091820120917F01309180014091C2
:104410007D0150917E0160917B0170917C01C7010B
:104420000E94A7076093AA057093AB058093AC0523
:104430009093AD058091A905882309F491C0E0907F
:10444000A8058091A705811184C01092AA05109239
:10445000AB051092AC051092AD051092AE0510920E
:10446000AF051092B0051092B10504E411E0F12CF3
:10447000EF1409F475C0D8018C910E948704892B30
:1044800081F5F80121813281438154816091AA052F
:104490007091AB058091AC059091AD050E94B7324B
:1044A0006093AA057093AB058093AC059093AD051E
:1044B000D80115962D913D914D915C911897609181
:1044C000AE057091AF058091B0059091B1050E9445
:1044D000B7326093AE057093AF058093B0059093AB
:1044E000B105F394075F1F4FC3CF082F880F110B3F
:1044F000C8010E94E733892B51F483ED8F0D823080
:1045000030F0FAE3FF1619F08FE5F81204CFC80176
:104510000E94FC3390916E05E92FF0E0EE5CFA4FBB
:10452000808382E0890F8C3308F0F5CE9F5F9093F3
:104530006E05F1CE0E942F0560936F057093700594
:1045400080937105909372051E8A1F8A188E198EAA
:104550001DCF80917A010E948704892B09F475CFC1
:104560008091AE059091AF05A091B005B091B105D5
:104570008093A3059093A405A093A505B093A605E9
:104580008091AA059091AB05A091AC05B091AD05C5
:1045900080939F059093A005A093A105B093A205D9
:1045A00080919E05882371F0809143010E948704C9
:1045B000892B41F41092A3051092A4051092A50531
:1045C0001092A60580919D05882309F4C3C4C0906C
:1045D0009B05D0909C05E0904101F09042018091B4
:1045E00040010E941A058C0190939A0580939905C9
:1045F000B701FF0C880B990B0E940D314B015C0138
:10460000B801110F880B990B0E940D31A50194017F
:104610000E94B6322B013C01B601DD0C880B990BD0
:104620000E940D31A50194010E94B6329B01AC019C
:10463000C301B2010E94233320E030E0A9010E94AF
:10464000B7326B017C0120E030E0A9010E94063105
:1046500087FD7CC420E030E040E85FE3C701B6019D
:104660000E94CB33181634F4C12CD12C30E8E32E41
:104670003FE3F32EC0929505D0929605E092970500
:10468000F092980580913C0190913D01A0913E01EE
:10469000B0913F018A879B87AC87BD8780903801A6
:1046A00090903901A0903A01B0903B018091340183
:1046B00090913501A0913601B09137018E879F8787
:1046C000A88BB98B8091950590919605A09197053F
:1046D000B09198058A8B9B8BAC8BBD8B20E030E032
:1046E000A901C501B4010E94CB33750164011816FC
:1046F00024F0F7FAF094F7F8F09420E030E0A90104
:104700006E857F85888999890E94CB334E845F842A
:1047100068887988181624F077FA709477F870947E
:1047200020E030E0A9016A857B858C859D850E940B
:10473000CB3318164CF08A859B85AC85BD85B05867
:104740008A879B87AC87BD87A30192016A897B8991
:104750008C899D890E946C31562E472E382E292E29
:10476000C701B60190582A893B894C895D890E940E
:104770006C313B018C01C0909F05D090A005E0906A
:10478000A105F090A20520E030E0A901C701B60123
:104790000E940631882309F4F6C320E030E0A90125
:1047A000C701B6010E94CB33A701960118160CF081
:1047B000DEC3652D742D832D922D0E946C3120E077
:1047C00030E0A9010E94B7326B017C01A70196017C
:1047D000B301C8010E94CB3318160CF4D8C3A7014B
:1047E0009601652D742D832D922D0E94063187FF31
:1047F00004C0C52CD42CE32CF22CC0929F05D0927F
:10480000A005E092A105F092A2052091A3053091A8
:10481000A4054091A5055091A6056A857B858C85E8
:104820009D850E946C312A893B894C895D890E9453
:104830006C311B018C012A893B894C895D896A8511
:104840007B858C859D8590580E946C312B013C01A5
:104850009B01AC01B101C8010E94063187FD16C061
:104860002A853B854C855D856A897B898C899D89F4
:104870000E946C312B013C019B01AC01B101C801CC
:104880000E94CB33181614F02101380120E030E0EB
:10489000A901C701B6010E94CB3387FD04C08E84F5
:1048A0009F84A888B98820913001309131014091CE
:1048B00032015091330160E070E080E89FE30E9494
:1048C000B6326A877B878C879D8720E030E0A9011C
:1048D000C701B6010E94CB33A701960118160CF050
:1048E00050586A857B858C859D850E946C316A87CE
:1048F0007B878C879D8720E030E0A901C501B4014A
:104900000E94CB3318160CF045C327E137EB41ED7D
:1049100058E3C501B4010E94B7329B01AC016A851E
:104920007B858C859D850E9423339B01AC0160E0D3
:1049300070E080E89FE30E94B6324B015C0120E00A
:1049400030E0A9010E94CB3318161CF0812C912C69
:104950005401A5019401B201C3010E946C314B01C5
:104960005C0120E030E040E85FEB0E94063187FD0B
:104970001AC320E030E040E85FE3C501B4010E94C3
:10498000CB33181634F4812C912C20E8A22E2FE37F
:10499000B22E8092A3059092A405A092A505B09294
:1049A000A60520E030E0A901C701B6010E9406314A
:1049B00087FF10C080919405882361F0B7FAB09406
:1049C000B7F8B0948092A3059092A405A092A50593
:1049D000B092A60580912C0190912D01A0912E01FD
:1049E000B0912F018E879F87A88BB98B809028016B
:1049F00090902901A0902A01B0902B018091240170
:104A000090912501A0912601B09127018B8F9C8F59
:104A1000AD8FBE8F40902001509021016090220107
:104A20007090230180911F018111C4C21A8E1F8EC4
:104A300090E898A3AFE3A9A3809190059091910588
:104A4000A0919205B09193058A879B87AC87BD871B
:104A500020E030E0A901C301B2010E94CB33181657
:104A60001CF0412C512C3201A30192016A8D7F8DE3
:104A700088A199A10E946C312B013C0120E030E01B
:104A8000A9016B8D7C8D8D8D9E8D0E94CB33181668
:104A900024F01B8E1C8E1D8E1E8E20E030E0A9019E
:104AA000C501B4010E94CB3318161CF0812C912C47
:104AB0005401A50194016A8D7F8D88A199A10E945E
:104AC0006C314B015C0120E030E0A9016E857F85EF
:104AD000888999890E94CB33181624F01E861F8678
:104AE000188A198A2A853B854C855D85C701B601E0
:104AF0000E94B632D62EC72E382E292E20E030E066
:104B0000A9016A857B858C859D850E94063181116E
:104B10005AC2C501B40190582E893F89488D598DDC
:104B20000E946C317B018C012D2D3C2D432D522D8B
:104B30000E94CB331816B4F0A30192016E897F89CD
:104B4000888D998D0E946C317B018C012D2D3C2D1F
:104B5000432D522D0E94063187FD04C0ED2CFC2C04
:104B6000032D122D9701A8016A857B858C859D8573
:104B70000E94B732362E272E8A879E87832D922D4C
:104B8000AA85BE858093900590939105A093920588
:104B9000B093930580901B0190901C01A0901D0183
:104BA000B0901E01C0901701D0901801E09019013B
:104BB000F0901A014090A3055090A4056090A505BF
:104BC0007090A60580918C0590918D05A0918E0521
:104BD000B0918F058B8F9C8FAD8FBE8F20E030E022
:104BE000A901C701B6010E94CB3318161CF0C12CD5
:104BF000D12C7601A70196016A8D7F8D88A199A19C
:104C00000E946C316B017C0120E030E0A901C501FC
:104C1000B4010E94CB3318161CF0812C912C540146
:104C20002B8D3C8D4D8D5E8DC301B2010E94B6323D
:104C3000462E672E582E792E20E030E0A9016B8D8C
:104C40007C8D8D8D9E8D0E940631811157C22E89DB
:104C50003F89488D598DC701B60190580E946C312B
:104C60005B018C01242D362D452D572D0E94CB3311
:104C70001816B4F0A70196016E897F89888D998DE9
:104C80000E946C315B018C01242D362D452D572D52
:104C90000E94063187FD04C0A42CB62C052D172DCB
:104CA0009501A8016B8D7C8D8D8D9E8D0E94B732F4
:104CB0005B018C01C501D80180938C0590938D0513
:104CC000A0938E05B0938F0580919D05882309F4EC
:104CD00051C0CA88DB88EC88FD88F7FAF094F7F8B1
:104CE000F094232D322D4A855E85C701B6010E94BE
:104CF000CB3318160CF493C2232D322D4A855E85D2
:104D00006A897B898C899D890E94063187FF06C04C
:104D10003A882B889C899A87AD89AE87832D922DFE
:104D2000AA85BE858093900590939105A0939205E6
:104D3000B09393059501A801C701B6010E94CB333A
:104D4000181684F09501A8016A897B898C899D8950
:104D50000E9406316501780187FF04C0CA88DB889C
:104D6000EC88FD88C0928C05D0928D05E0928E056E
:104D7000F0928F05E0911501F0911601FB8BEA8B03
:104D800080911301909114019B878A8720901101D3
:104D900030901201A0910F01B0911001BF8BAE8B2A
:104DA000E0900D01F0900E0100910B0110910C01AB
:104DB0008091900590919105A0919205B0919305F5
:104DC0008E879F87A88BB98B40908C0550908D055E
:104DD00060908E0570908F05A3019201BC01CD01FA
:104DE0000E94B7324B015C0120E030E0A9010E9433
:104DF0000631811119C2B801012E000C880B990BE4
:104E00000E940D310E949533AB012E893F8937FFF7
:104E100003C0319521953109F801E21BF30B4E17C0
:104E20005F073CF0F801E20FF31F4E175F070CF429
:104E3000FB01F0938B05E0938A05A30192016E8537
:104E40007F85888999890E94B6326B017C0120E0B8
:104E500030E0A9010E940631811136C2B101032C54
:104E6000000C880B990B0E940D310E949533AB0109
:104E70002A893B8937FF03C0319521953109F1011A
:104E8000E21BF30B4E175F073CF0F101E20FF31F3B
:104E90004E175F070CF4FB01F0938905E09388053A
:104EA0008FB7F8948090BB059090BC05A090BD058D
:104EB000B090BE058FBF80918705882341F098EBA5
:104EC00089169BE09906A104B10408F096C280916E
:104ED0000B0190910C0190938B0580938A05809132
:104EE000110190911201909389058093880500919A
:104EF000090110910A01101611061CF0A1E0A093FF
:104F00008705C090AE05D090AF05E090B005F09059
:104F1000B10520E030E0A901C701B6010E94CB3302
:104F200018160CF024C22FE632E143E85AE3C70119
:104F3000B6010E94063187FD25C2109283051092AA
:104F40008405109285051092860557C2C12CD12C7C
:104F5000760190CB80E090E0A0E8BFE380939505D8
:104F600090939605A0939705B09398058BCBB301CA
:104F7000C8010E946C319B01AC0160E070E0CB0184
:104F80000E94B63221CCC12CD12C76011FCC6301FA
:104F9000780133CCA501940167E177EB81ED98E3CB
:104FA0000E94B632BACC812C912C90E8A92E9FEBAE
:104FB000B92EEFCCBA89BA8FEB89EF8FFC89F8A3B1
:104FC0008D8989A339CD20E030E0A9016A857B85F0
:104FD0008C859D850E94CB3318160CF049C02B8D13
:104FE0003C8D4D8D5E8D6A8D7F8D88A199A10E942B
:104FF0006C3190582E893F89488D598D0E946C31B3
:105000007B018C012D2D3C2D432D522D0E94CB3345
:105010001816B4F0A30192016E897F89888D998D4D
:105020000E946C317B018C012D2D3C2D432D522D86
:105030000E94063187FD04C0ED2CFC2C032D122D9F
:105040009701A8016A857B858C859D850E94B73272
:10505000362E272E8A879E8720E030E0A9010E9405
:10506000063187FF8BCD312C212C1A861E8686CDEA
:10507000C501B40190582E893F89488D598D0E94F1
:105080006C317B018C012D2D3C2D432D522D0E9426
:10509000CB331816F4F02E853F85488959896A8DDF
:1050A0007F8D88A199A10E946C312E893F89488DFE
:1050B000598D0E946C317B018C012D2D3C2D432D8F
:1050C000522D0E94063187FD04C0ED2CFC2C032DCF
:1050D000122D9701A8016A857B858C859D850E948C
:1050E000B732362E272E8A879E8720E030E0A9012E
:1050F0000E94CB3318160CF4B6CF40CDA501940115
:105100006A8D7F8D88A199A10E946C314B015C0151
:1051100020E030E0A9016B8D7C8D8D8D9E8D0E94ED
:10512000CB3318160CF03FC0C501B40190582E893E
:105130003F89488D598D0E946C315B018C01242D73
:10514000362D452D572D0E94CB331816B4F0A701EC
:1051500096016E897F89888D998D0E946C315B01E3
:105160008C01242D362D452D572D0E94063187FDAB
:1051700004C0A42CB62C052D172D9501A8016B8D0C
:105180007C8D8D8D9E8D0E94B7325B018C0120E05D
:1051900030E0A9010E94063187FF8CCDA12CB12CF3
:1051A00000E010E087CDC701B60190582E893F89F5
:1051B000488D598D0E946C317B018C01242D362D38
:1051C000452D572D0E94CB331816B4F0A50194013C
:1051D0006E897F89888D998D0E946C317B018C014D
:1051E000242D362D452D572D0E94063187FD04C0F4
:1051F000E42CF62C052D172D9701A8016B8D7C8DC5
:105200008D8D9E8D0E94B7325B018C0120E030E0D5
:10521000A9010E94CB3318160CF4C0CF4BCD3C2C07
:105220002D2CEA86FE867ACD20E030E0A901C5016A
:10523000B4010E94CB33181614F5B701600F711F2B
:10524000072E000C880B990B0E940D316B017C011D
:105250006E897F89600F711F072E000C880B990BD8
:105260000E940D31A70196010E94B632A50194015A
:105270000E946C31A70196010E94B732C3CDB801DC
:105280006E197F09072E000C880B990B0E940D31B7
:105290006B017C01B801AE89BF896A1B7B0B072EAD
:1052A000000C880B990B0E940D31A70196010E94FA
:1052B000B632A50194010E946C319B01AC01C7017B
:1052C000B6010E94B6329ECD20E030E0A901C701B0
:1052D000B6010E94CB3318161CF56A857B85620DDA
:1052E000731D072E000C880B990B0E940D314B018A
:1052F0005C016A897B89620D731D072E000C880B87
:10530000990B0E940D31A50194010E94B632A701AC
:1053100096010E946C31A50194010E94B732A5CD7F
:10532000B101EA85FB856E1B7F0B072E000C880BF5
:10533000990B0E940D314B015C01B1018A899B8957
:10534000681B790B072E000C880B990B0E940D31FE
:10535000A50194010E94B632A70196010E946C310A
:105360009B01AC01C501B4010E94B6327ECD2FE68F
:1053700032E143E85AEBC701B6010E94CB3318165D
:105380000CF0DBCDC090AA05D090AB05E090AC0549
:10539000F090AD0520E030E0A901C701B6010E9400
:1053A000CB3318160CF09FC02FE632E143E85AE3E6
:1053B000C701B6010E94063187FFBFCD80918305EA
:1053C00090918405A0918505B09186050196A11D57
:1053D000B11D8093830590938405A0938505B093B8
:1053E0008605012E000C220B330B081719072A071C
:1053F0003B071CF4B1E0B0938705109181058091C3
:105400008205882309F481C080918705882309F4E7
:105410007CC0E8EB8E16EBE09E06A104B10408F414
:1054200074C010928205112309F444C06AE070E050
:1054300080E090E00E94540580910D0190910E0152
:10544000181619060CF05BC081E090E0209107016E
:1054500030910801829FB001839F700D929F700D63
:10546000112480910B0190910C01680F791F88E83D
:1054700096E00E94AF0680911301909114011816D6
:1054800019060CF03FC081E090E0209105013091B9
:105490000601829FB001839F700D929F700D1124B1
:1054A0008091110190911201680F791F85E896E0B3
:1054B0000E94AF066091030170910401072E000C59
:1054C000880B990B0E945405112389F160910B01FF
:1054D00070910C0188E896E00E94AF06609111017E
:1054E0007091120120C02FE632E143E85AEBC70168
:1054F000B6010E94CB3318160CF01FCD5FCF8FEF93
:105500009FEFA4CF8FEF9FEFC0CF1123F9F26091EF
:105510008A0570918B0588E896E00E94AF0660913D
:1055200088057091890585E896E00E94AF062FB73F
:10553000F8948091BB059091BC05A091BD05B091F8
:10554000BE052FBF40917D0550917E0560917F057E
:1055500070918005841B950BA60BB70B84369105C3
:10556000A105B10508F409C22FB7F8948091BB05D5
:105570009091BC05A091BD05B091BE052FBF809351
:105580007D0590937E05A0937F05B09380051092D2
:105590007C0510927B058FEE97E00E949A072FB74B
:1055A000F8946091BB057091BC058091BD05909108
:1055B000BE052FBF4AE00E94FB0820917B05309179
:1055C0007C05820F931F90937C0580937B050E943E
:1055D000570983EE97E00E949A078091B405909155
:1055E000B5050E94660920917B0530917C05820FEC
:1055F000931F90937C0580937B050E94570987ED4C
:1056000097E00E949A078091B2059091B3050E949D
:10561000660920917B0530917C05820F931F909342
:105620007C0580937B050E94570989EC97E00E94D6
:105630009A076091AE057091AF058091B005909189
:10564000B10544E00E94960920917B0530917C05CC
:10565000820F931F90937C0580937B050E945709CE
:105660008AEB97E00E949A076091AA057091AB05BA
:105670008091AC059091AD0544E00E94960920917F
:105680007B0530917C05820F931F90937C0580935E
:105690007B050E94570988EA97E00E949A0760916B
:1056A000A3057091A4058091A5059091A60544E0FD
:1056B0000E94960920917B0530917C05820F931FF3
:1056C00090937C0580937B050E94570985E997E0BC
:1056D0000E949A0760919F057091A0058091A10595
:1056E0009091A20544E00E94960920917B0530919B
:1056F0007C05820F931F90937C0580937B050E940D
:10570000570985E897E00E949A0760918C0570918F
:105710008D0580918E0590918F0544E00E94960939
:1057200020917B0530917C05820F931F90937C051F
:1057300080937B050E94570984E797E00E949A07AF
:1057400060919005709191058091920590919305DB
:1057500044E00E94960920917B0530917C05820FE0
:10576000931F90937C0580937B050E9457098EE5DB
:1057700097E00E949A0780918A0590918B050E947C
:10578000660920917B0530917C05820F931F9093D1
:105790007C0580937B050E94570987E497E00E946F
:1057A0009A0780918805909189050E946609209149
:1057B0007B0530917C05820F931F90937C0580932D
:1057C0007B050E94570986E397E00E949A07809123
:1057D000990590919A050E94660920917B05309168
:1057E0007C05820F931F90937C0580937B050E941C
:1057F000570982E297E00E949A07809181058823E9
:1058000009F4D1C08FEA91E00E94F20820917B0553
:1058100030917C05820F931F90937C0580937B05CC
:105820000E94570988E197E00E949A0780918705B6
:10583000882309F4BBC08FEA91E00E94F20820910E
:105840007B0530917C05820F931F90937C0580939C
:105850007B050E9457098091A90510E000E088238C
:1058600009F43EC084E4C82E81E0D82E10E000E0A8
:10587000F12CE12CD6018C910E948704892B71F4C4
:1058800081E090E0A0E0B0E00E2C04C0880F991FEA
:10589000AA1FBB1F0A94D2F7082B192BBFEFEB1AD4
:1058A000FB0AE9E0CE0ED11CF6E0EF16F10411F789
:1058B0008091A905882359F08091A705882331F0AC
:1058C00080917A010E948704892B09F400648091F9
:1058D000A905882329F08091A70581116AC0006479
:1058E0008CE097E00E949A07C8010E946609209107
:1058F0007B0530917C05820F931F90937C058093EC
:105900007B050E94570982E097E00E949A078091E8
:10591000A905882309F45BC08091A705882309F4B1
:1059200053C080917A010E948704892B09F049C0F5
:105930008EE095E00E94E50820917B0530917C0582
:10594000820F931F90937C0580937B050E945709DB
:1059500085EF96E00E949A0700917B0510917C05E7
:10596000C8010E9479070F5F1F4F800F911F0E948F
:1059700066098CE095E00E943B0961E070E080E000
:1059800090E00E94540580E090E0892B11F40C9483
:105990007D210E94F105882311F40C947D210E9441
:1059A00000000C947D2184EB91E02ECF84EB91E0FC
:1059B00044CF80917A010E948704019709F08FCF2C
:1059C0008FCF82E195E0B6CF86E195E0B3CF8AE153
:1059D00095E0B0CFEF920F931F93CF93DF93E80141
:1059E00034E047FD34E1042E000C550B57FF03C093
:1059F000519541955109E32E022F242FAE010E94AB
:105A00005E2DCE01DF91CF911F910F91EF90089500
:105A1000662777270C94BD2EFC0188279927E894E8
:105A200021912032E9F3293010F02E30C8F32B32C7
:105A300041F02D3239F4689404C00E94562D820F33
:105A4000911D219120532A30C0F31EF49095819529
:105A50009F4F08954BE856E00E942F2D0895FA01BC
:105A6000A191B081009719F41097E1F0CD01DC010C
:105A7000CD010D90002011F4C00113C0FB01219154
:105A8000222319F02015D9F7F3CFFB01219120151E
:105A900019F41E92119606C02223C1F70D90002022
:105AA000A1F7D001FA01A193B08308957AE0979FFE
:105AB000902D879F802D910D11240895A9E0B0E0CD
:105AC000E4E6FDE20C9454326A01F22EB02E102F5F
:105AD000FBE3AF2EA01608F41BE31F5F012F27E0A6
