:100000000C9410040C9438040C9438040C94C41C04
:100010000C94641C0C94F61B0C94E01D0C94380496
:100020000C9438040C9438040C9438040C94241D5B
:100030000C9438040C9438040C9438040C94380450
:100040000C94541B0C9438040C94C41B0C949E1BED
:100050000C9438040C9438040C9438040C94380430
:100060000C9438040C9438044E414E494E4954596E
:10007000494E46CDCCCC3D0AD7233C17B7D1387773
:10008000CC2B329595E6241FB14F0A000020410089
:1000900000C84200401C4620BCBE4CCA1B0E5AAED3
:1000A000C59D7400407A10F35A00A0724E180900E2
:1000B00010A5D4E80000E87648170000E40B5402CD
:1000C0000000CA9A3B000000E1F505000080969808
:1000D00000000040420F000000A086010000001058
:1000E0002700000000E8030000000064000000009A
:1000F000000A00000000000100000000002C76D87B
:1001000088DC674F0823DFC1DFAE59E1B1B796E560
:10011000E3E453C63AE651997696E8E6C28426EBC4
:10012000898C9B62ED407C6FFCEFBC9C9F40F2BAD7
:10013000A56FA5F490055A2AF75C936B6CF9676D6F
:10014000C11BFCE0E40D47FEF520E6B500D0ED90C4
:100150002E0300943577050080841E080000204E91
:100160000A000000C80C333333330F986E1283112A
:1001700041EF8D2114893BE65516CFFEE6DB18D101
:10018000844B381BF77C1D901DA4BBE424203284D3
:10019000725E228100C9F124ECA1E53D272243488B
:1001A00045434B53554D223A005D2C002C002C004A
:1001B000223A5B002244524956455F425554544FFF
:1001C0004E5F004A4F595F43414C49425F434F5590
:1001D0004E540052494748545F4D4F544F525F5060
:1001E000554C5345004C4546545F4D4F544F525F5C
:1001F00050554C53450053504545445F4B4E4F427C
:100200005F464153545F56414C0053504545445F4F
:100210004B4E4F425F534C4F575F56414C00524933
:100220004748545F4D4F544F525F4641535400521C
:10023000494748545F4D4F544F525F534C4F5700FE
:1002400052494748545F4D4F544F525F43454E54B7
:100250004552004C4546545F4D4F544F525F464106
:100260005354004C4546545F4D4F544F525F534CCE
:100270004F57004C4546545F4D4F544F525F4345D6
:100280004E54455200595F444541445A4F4E450033
:10029000434F4E54524F4C5F444F574E00434F4EC6
:1002A00054524F4C5F43454E5445525F5900434FA3
:1002B0004E54524F4C5F555000585F444541445A8C
:1002C0004F4E4500434F4E54524F4C5F4C454654A1
:1002D00000434F4E54524F4C5F43454E5445525F7E
:1002E0005800434F4E54524F4C5F524947485400B8
:1002F00063757272656E742073657474696E67736A
:100300002C2076657273696F6E3A007B00000000E6
:10031000006410B71DC8206E3BAC30D9269041DC7C
:1003200076F4516B6B5861B24D3C7105502083B827
:10033000ED44930FF0E8A3D6D68CB361CBB0C26482
:100340009BD4D2D38678E20AA01CF2BDBD2276618E
:100350006C7565223A2022002273657474696E6799
:10036000223A2022007B22726573756C74223A2037
:10037000226368616E676522007B22726573756C0B
:1003800074223A20226E6F206368616E6765227D59
:10039000007B22726573756C74223A202273746F2D
:1003A00070706564227D007B22726573756C7422A7
:1003B0003A20226D6F76656D656E7420616C6C6F8E
:1003C000776564227D007B22726573756C74223AB6
:1003D00020227361766564227D00424148004642D6
:1003E000004E4200554F42004E53550053504800B6
:1003F000535000555353004E525300525050005228
:100400004350005253500052545000555200535420
:10041000454552494E475F4F46465F5357495443FF
:10042000485F50494E005354454552494E475F4F2F
:1004300046465F535749544348002276616C7565C0
:10044000223A5B002273657474696E67223A202237
:10045000007B22726573756C74223A202263686196
:100460006E676522004E554D5F44524956455F42C6
:100470005554544F4E5300425554544F4E5F4D4FB8
:1004800044455F50494E00424D54005553455F422C
:100490005554544F4E5F4D4F44455F50494E0045B3
:1004A0004E41424C455F425554544F4E5F43545267
:1004B0004C0053544152545F4D4F544F525F50556E
:1004C0004C53455F54494D4500454E41424C455FB4
:1004D000535441525455505F50554C534500524966
:1004E0004748545F4D4F544F525F434F4E54524F05
:1004F0004C4C45525F50494E004C4546545F4D4F61
:10050000544F525F434F4E54524F4C4C45525F50E4
:10051000494E004A4F595F595F50494E004A4F5962
:100520005F585F50494E0053504545445F4B4E4F16
:10053000425F50494E005343414C455F4143434560
:100540004C5F574954485F53504545440055534507
:100550005F53504545445F4B4E4F42005245564510
:100560005253455F5455524E5F494E5F5245564572
:10057000525345005343414C455F5455524E494EEA
:10058000475F5748454E5F4D4F56494E47005455BB
:10059000524E5F53504545440046415354455354D1
:1005A0005F4241434B5741524400464153544553E7
:1005B000545F464F525741524400444543454C45D1
:1005C000524154494F4E5F5455524E494E47004197
:1005D0004343454C45524154494F4E5F5455524E4A
:1005E000494E4700444543454C45524154494F4EBE
:1005F0005F4241434B5741524400414343454C45C0
:10060000524154494F4E5F4241434B57415244007F
:10061000444543454C45524154494F4E5F464F5225
:100620005741524400414343454C45524154494F80
:100630004E5F464F525741524400E202D102C4027B
:10064000B902AE029D029002850225061006FA0547
:10065000E405CF05BA05AA0599058E0574055C0564
:1006600073026302530240022F021E024D050A026A
:10067000F601360527051D051305F904DE04C90436
:10068000E501D301B204C3019F048B0487047704FE
:10069000650426040E04F303F003EC03E803E4030B
:1006A000E103DE03DA030B0403040704FB03FF0387
:1006B000F7037B226572726F72223A2022656570A1
:1006C000726F6D206661696C757265227D007B2298
:1006D0006572726F72223A2022656570726F6D20AA
:1006E0006661696C757265227D002C224348454322
:1006F0004B53554D223A0022625F6D5F70223A00E3
:10070000627574746F6E73006A6F794F4B006D6F12
:1007100076656D656E74416C6C6F7765640073709F
:100720006565644B6E6F6256616C007269676874D0
:100730004D6F746F72577269746556616C006C65A9
:1007400066744D6F746F72577269746556616C0090
:100750007370656564546F44726976650074757270
:100760006E546F447269766500737065656450728B
:100770006F636573736564007475726E50726F6336
:100780006573736564007370656564496E70757434
:10079000007475726E496E707574006A6F7959567F
:1007A000616C006A6F795856616C0063757272658E
:1007B0006E742076616C7565732C206D696C6C6944
:1007C000733A0000000000240027002A0000000007
:1007D00000250028002B000000000023002600292F
:1007E00000040404040404040402020202020203DA
:1007F00003030303030102040810204080010204E4
:100800000810200102040810200000000800020166
:100810000000030407000000000000000000FD1EAF
:1008200011241FBECFEFD8E0DEBFCDBF12E0A0E0A5
:10083000B1E0E8E2F3E702C005900D92A03BB107FA
:10084000D9F724E0A0EBB2E001C01D92AE34B207AC
:10085000E1F714E0C0E1D4E004C02197FE010E945A
:10086000BE36CF30D107C9F70E94741F0C9492395D
:100870000C940000833081F028F4813099F08230AC
:10088000A9F008958730A9F08830C9F08430B1F418
:10089000809180008F7D03C0809180008F7780934E
:1008A0008000089584B58F7784BD089584B58F7DC9
:1008B000FBCF8091B0008F778093B0000895809136
:1008C000B0008F7DF9CFCF93DF93282F30E0F9016F
:1008D000E75FF74F8491F901EB50F84FD491F9019C
:1008E000EF51F84FC491CC23A1F081110E943A043A
:1008F000EC2FF0E0EE0FFF1FE952F84FA591B491F5
:10090000EC91ED2381E090E009F480E0DF91CF915C
:10091000089580E090E0FACF1F93CF93DF93282FC4
:1009200030E0F901E75FF74F8491F901EB50F84FA0
:10093000D491F901EF51F84FC491CC23A9F0162FAF
:1009400081110E943A04EC2FF0E0EE0FFF1FE353F9
:10095000F84FA591B4918FB7F894EC91111108C09C
:10096000D095DE23DC938FBFDF91CF911F91089547
:10097000DE2BF8CFCF93DF9390E0FC01EB50F84FE4
:1009800024918F51984FFC0184918823C9F090E005
:10099000880F991FFC01ED53F84FA591B491FC010C
:1009A000E353F84FC591D49161110DC09FB7F894EE
:1009B0008C91209582238C938881282328839FBF44
:1009C000DF91CF910895623051F49FB7F8943C9134
:1009D000822F809583238C93E8812E2BEFCF8FB7C6
:1009E000F894EC912E2B2C938FBFEACF8E3008F029
:1009F0008E508770806480937C0080917A00806440
:100A000080937A0080917A0086FDFCCF80917800F7
:100A10009091790008953FB7F89480917E0390916A
:100A20007F03A0918003B091810326B5A89B05C0E8
:100A30002F3F19F00196A11DB11D3FBFBA2FA92F5D
:100A4000982F8827BC01CD01620F711D811D911D5A
:100A500042E0660F771F881F991F4A95D1F70895C6
:100A60008F929F92AF92BF92CF92DF92EF92FF92BE
:100A70006B017C010E940B054B015C01C114D10488
:100A8000E104F104B9F00E940B05681979098A099B
:100A90009B09683E73408105910580F321E0C21AED
:100AA000D108E108F10888EE880E83E0981EA11CA9
:100AB000B11CE4CFFF90EF90DF90CF90BF90AF904C
:100AC0009F908F9008952FB7F89460917A0370915A
:100AD0007B0380917C0390917D032FBF0895AF929B
:100AE000BF92CF92DF92EF92FF920F931F93CF931B
:100AF000DF936C017B018B01040F151FEB015E017D
:100B0000AE18BF08C017D10759F06991D601ED9111
:100B1000FC910190F081E02DC6010995892B79F7B0
:100B2000C501DF91CF911F910F91FF90EF90DF9062
:100B3000CF90BF90AF900895FC01538D448D252F29
:100B400030E0842F90E0821B930B541710F0CF9667
:100B5000089501970895FC01918D828D981761F099
:100B6000A28DAE0FBF2FB11D5D968C91928D9F5FB0
:100B70009F73928F90E008958FEF9FEF0895FC018F
:100B8000918D828D981731F0828DE80FF11D858D42
:100B900090E008958FEF9FEF0895FC01918D228DD5
:100BA000892F90E0805C9F4F821B91098F7399275A
:100BB000089582E893E00E94CD0521E0892B09F495
:100BC00020E0822F089580E090E0892B29F00E9498
:100BD000D90581110C9400000895FC01A48DA80F83
:100BE000B92FB11DA35ABF4F2C91848D90E001966F
:100BF0008F739927848FA689B7892C93A089B1898F
:100C00008C91837080648C93938D848D981306C02F
:100C10000288F389E02D80818F7D80830895EF9293
:100C2000FF920F931F93CF93DF93EC0181E0888FA6
:100C30009B8D8C8D98131AC0E889F989808185FF76
:100C400015C09FB7F894EE89FF896083E889F98918
:100C500080818370806480839FBF81E090E0DF911A
:100C6000CF911F910F91FF90EF900895F62E0B8D6D
:100C700010E00F5F1F4F0F731127E02E8C8D8E1128
:100C80000CC00FB607FCFACFE889F989808185FF8F
:100C9000F5CFCE010E94ED05F1CFEB8DEC0FFD2FCE
:100CA000F11DE35AFF4FF0829FB7F8940B8FEA894A
:100CB000FB8980818062CFCF0F931F93CF93DF9307
:100CC0008C01D0E0C0E0F801EC0FFD1F64916623B9
:100CD00041F082E893E00E940F06892B11F02196E3
:100CE000F2CFCE01DF91CF911F910F910895CF9355
:100CF000DF93EC01888D8823B9F0AA89BB89E88944
:100D0000F9898C9185FD03C0808186FD0DC00FB6E9
:100D100007FCF7CF8C9185FFF2CF808185FFEDCF67
:100D2000CE010E94ED05E9CFDF91CF91089508959E
:100D3000DC01EC91EC3090F511968C91119728E83C
:100D400030E0281B310987FD3395220F331F220F16
:100D5000331F6217730784F012968C9128E532E0F6
:100D6000281B310987FD3395220F331F220F331FB4
:100D7000621773070CF49B0122503109220F331FB5
:100D80004FB7F8948E2F90E0FC01EE0FFF1FE80F95
:100D9000F91FE15EFB4F328321834FBF08951F93FC
:100DA000CF93DF93EC01162F88818C3008F04EC072
:100DB00061E0812F0E94BA048881282F30E0F90178
:100DC000EE0FFF1FE20FF31FE15EFB4F1F73608109
:100DD000607C612B608319821A822CE0622F0E9452
:100DE000B236829FB001112430E020E0AB01420F07
:100DF000531FFA01EE0FFF1FE40FF51FE15EFB4FDB
:100E0000908196FD16C02F5F3F4F2C30310571F752
:100E100081110FC01092800082E0809381001092B7
:100E2000850010928400B19A80916F008260809357
:100E30006F00E8818E2F90E0FC01EE0FFF1FE80F9E
:100E4000F91FE15EFB4F8081806480838881DF91A0
:100E5000CF911F9108950F931F93E42FE627EF7012
:100E600024E0E29FF0011124E35FFC4F059115910E
:100E70002591349154E096958795779567955A9585
:100E8000D1F76027712782279327E42FE295EF702F
:100E9000E627EF7024E0E29FF0011124E35FFC4FAE
:100EA0000591159125913491E4E096958795779574
:100EB0006795EA95D1F760277127822793271F91BD
:100EC0000F9108950E945C06209134033091350300
:100ED000820F931F909335038093340308952F92CC
:100EE0003F924F925F926F927F928F929F92AF92BA
:100EF000BF92CF92DF92EF92FF920F931F93CF9307
:100F0000DF93EC016A01790117FF02C010E000E0F5
:100F10006E157F050CF019C11601201A310AC21591
:100F2000D3050CF093C0621573050CF08FC0072E2B
:100F3000000C880B990B0E94EA334B015C01BE0147
:100F40000D2E000C880B990B0E94EA33A501940129
:100F50000E9493352B013C01B101330C880B990B96
:100F60000E94EA33A50194010E9493359B01AC01D4
:100F7000C301B2010E94003620E030E040E85FE3A8
:100F80000E9493354B015C010C0D1D1D0C171D07B4
:100F90009CF50E151F0584F5B701FF0C880B990B06
:100FA0000E94EA336B017C01BE01DD0F880B990BB7
:100FB0000E94EA33A70196010E9493354B015C0120
:100FC000B7FAB094B7F8B094B801110F880B990B29
:100FD0000E94EA33A70196010E9493359B01AC0160
:100FE000C501B4010E94003620E030E040E85FE334
:100FF0000E9494354B015C0120E030E040E85FEB5B
:10100000C501B4010E94E33387FD91C020E030E0C8
:1010100040E85FE3C501B4010E94A83618160CF43D
:101020008DC0C501B401DF91CF911F910F91FF9049
:10103000EF90DF90CF90BF90AF909F908F907F9078
:101040006F905F904F903F902F900895812C912C3E
:1010500054019ACF18012C0C3D1C2C163D060CF0A7
:1010600062C0261637060CF05EC0072E000C880BF7
:10107000990B0E94EA334B015C01BE010D2E000C5E
:10108000880B990B0E94EA33A50194010E949335C5
:101090002B013C01B101330C880B990B0E94EA3300
:1010A000A50194010E9493359B01AC01C301B201DB
:1010B0000E94003620E030E040E85FE30E94933574
:1010C0004B015C01C01AD10ACC15DD050CF094CFA0
:1010D000EC14FD040CF090CFB701FF0C880B990BBA
:1010E0000E94EA334B015C01BE01DD0F880B990BB6
:1010F0000E94EA33A50194010E9493352B013C0123
:1011000077FA709477F87094B601DD0C880B990B20
:101110000E94EA33A50194010E9493359B01AC0122
:10112000C301B2015FCF812C912C5401CBCF812C14
:10113000912C90E8A92E9FEBB92E73CF812C912C86
:1011400080E8A82E8FE3B82E6CCFE616F7060CF4D5
:1011500081CF812C912C540164CFAF92BF92CF925A
:10116000DF92EF92FF920F931F93CF93DF9398E25A
:10117000A92E91E0B92E2CE2E22E21E0F22E85017B
:1011800062E0D8018D918D010E94BA04E016F1064B
:10119000B9F7EDEBF1E085ECC82E81E0D82E41E007
:1011A00050E021913191E50189915E01863188F508
:1011B00090E1883050F091E08E3008F490E0990F83
:1011C000990F990F8E3018F58850890FA82FA69582
:1011D000A695A69509F081C081111DC0309301012B
:1011E000209300018A0101C0000F8A95EAF7202FA1
:1011F0008091D302802B8093D3028091D002802BE8
:101200008093D00283B18093D60280E030C08E50AC
:10121000DCCF8FEFDBCF813029F4309303012093B3
:101220000201E0CF823009F042C0309305012093E3
:10123000040187708A0101C0000F8A95EAF7202F08
:101240008A2F90E0BC016D527D4FEB013881302B2D
:101250003883BC0160537D4FEB013881302B3883DC
:10126000A13009F454C070F2A23009F493C0B0E088
:10127000A559BF4F9C91292B2C93909168009A01FE
:1012800001C0220F8A95EAF7892F822B809368008C
:10129000CE16DF0609F085CFDF91CF911F910F9118
:1012A000FF90EF90DF90CF90BF90AF900895833084
:1012B00029F43093070120930601BBCF843029F431
:1012C0003093090120930801B4CF853009F08ACF0B
:1012D00030930B0120930A01ACCFA13009F040C03C
:1012E0008830D9F430930D0120930C0187708A0166
:1012F00001C0000F8A95EAF7202F8091D402802B3D
:101300008093D4028091D102802B8093D10286B148
:101310008093D70281E090E0AACF893029F43093FE
:101320000F0120930E01E2CF8A3029F4309311018E
:1013300020931001DBCF8B3029F4309313012093DD
:10134000120177CF8C3029F43093150120931401CA
:1013500070CF8D3059F6309317012093160169CF65
:10136000A23009F095CF8031D9F430932101209338
:10137000200187708A0101C0000F8A95EAF7202FAB
:101380008091D502802B8093D5028091D202802B50
:101390008093D20289B18093D80282E090E067CF37
:1013A000813129F43093230120932201E2CF82314D
:1013B00029F43093250120932401DBCF833129F4D4
:1013C0003093270120932601D4CF843129F4309320
:1013D000190120931801CDCF853129F430931B01D9
:1013E00020931A0126CF863129F430931D012093D2
:1013F0001C011FCF873109F0BCCF30931F01209310
:101400001E0117CFCF92DF92EF92FF920F931F939F
:10141000CF93DF93C82FD0E0FE01E85DFE4F8081BF
:101420000E9463048E01000F111F000F111F01970E
:10143000E1F40E940B05F801E055FD4F60837183D4
:10144000828393830E94630560932F03709330031C
:101450008093310390933203DF91CF911F910F91CD
:10146000FF90EF90DF90CF9008950E940B05F80158
:10147000E055FD4FC080D180E280F3806C197D097A
:101480008E099F09CC0FDD1F61347C4981059105D0
:10149000C8F40E940B05CA5DDC4F24E23AEF2C1918
:1014A0003D09620F731F653F81E0780714F064EF18
:1014B00071E06C302EEF720714F46CE07EEF7983EC
:1014C0006883CACFCA5DDC4F19821882C5CF83E01A
:1014D0000C94020A82E00C94020A81E00C94020A45
:1014E00080E00C94020AFC0101900020E9F731979A
:1014F000AF01481B590BBC0182E893E00C946F05C7
:101500008F929F92AF92BF920F931F93CF93DF93CF
:10151000CDB7DEB7A1970FB6F894DEBF0FBECDBF33
:1015200019A2423008F44AE08E010F5D1F4F842E4D
:10153000912CB12CA12CA50194010E946235E62FBB
:10154000B901CA01EA30F4F4E05DD801EE938D01EF
:10155000232B242B252B79F790E080E0109719F0AE
:10156000CD010E94730AA1960FB6F894DEBF0FBE9C
:10157000CDBFDF91CF911F910F91BF90AF909F9002
:101580008F900895E95CE1CFCF92DF92EF92FF92C6
:10159000CF93DF936B017C016DE282E893E00E94C0
:1015A0000F06EC0166277727CB016C197D098E09A0
:1015B0009F094AE00E94800A8C0F9D1FDF91CF9106
:1015C000FF90EF90DF90CF900895009711F00C946A
:1015D000730A90E080E00895CF93DF930E94730A2E
:1015E000EC0184E292E00E94730A8C0F9D1FDF9150
:1015F000CF910895CF93DF930E945C06EC0184E2C3
:1016000092E00E94730A8C0F9D1FDF91CF91089585
:101610000F931F93CF938C01C62F80913403909129
:1016200035030396909335038093340389EA92E05F
:101630000E94E50AC8010E945C06209134033091A3
:101640003503820F931F909335038093340387E211
:1016500092E00E94E50A8AE292E0C11102C081E3B1
:1016600092E00E94730A2091340330913503820F77
:10167000931F9093350380933403CF911F910F9163
:1016800008950F931F93CF93DF938C01EB0180910B
:10169000340390913503059690933503809334037A
:1016A00089EA92E00E94E50AC8010E945C06209146
:1016B000340330913503820F931F90933503809349
:1016C000340387E292E00E94E50ABE01DD0F880B39
:1016D000990B97FF14C00E94C40A209134033091E3
:1016E0003503820F931F909335038093340387E96A
:1016F00092E0DF91CF911F910F910C94E50A4AE09F
:101700000E94800AEACFBC01990F880B990B97FDC4
:101710000C94C40A4AE00C94800A4F925F926F9234
:101720007F928F929F92AF92BF92CF92DF92EF9271
:10173000FF920F931F93CF936B017C01742EAC012A
:101740009B010E94AD36882399F089E392E0CF9106
:101750001F910F91FF90EF90DF90CF90BF90AF90CF
:101760009F908F907F906F905F904F900C94730A32
:1017700046015701E894B7F82FEF3FEF4FE75FE7D7
:10178000C501B4010E94AD3681110DC02FEF3FEFAE
:101790004FE75FE7C501B4010E94E33318161CF45C
:1017A0008DE392E0D4CF2FEF3FEF4FE75FE4C70127
:1017B000B6010E94A83618161CF481E492E0C7CF47
:1017C0002FEF3FEF4FE75FECC701B6010E94E33315
:1017D00087FDF3CF20E030E0A901C701B6010E94E8
:1017E000E33310E000E087FF0AC06DE282E893E097
:1017F0000E940F068C01F7FAF094F7F8F094C0E01D
:1018000060E070E080E09FE37C1641F020E030E093
:1018100040E251E40E940036CF5FF6CFA701960167
:101820000E9494352B013C010E9479364B015C01EA
:101830004AE00E94800A7C01E00EF11ECC23C1F137
:10184000C501B4010E94E8339B01AC01C301B201A0
:101850000E9493354B015C016EE282E893E00E94A6
:101860000F06E80EF91EC15018F120E030E040E20A
:1018700051E4C501B4010E9449342B013C010E948E
:1018800079364B01B12CA12C4AE0C501B4010E946C
:10189000800AE80EF91EC501B4010E94E8339B01DD
:1018A000AC01C301B2010E9493354B015C01DBCF57
:1018B000C701CF911F910F91FF90EF90DF90CF90D4
:1018C000BF90AF909F908F907F906F905F904F9060
:1018D0000895CF92DF92EF92FF92CF93DF93EC01C6
:1018E0006A017B01809134039091350305969093B2
:1018F00035038093340389EA92E00E94E50ACE0121
:101900000E945C062091340330913503820F931FAF
:10191000909335038093340387E292E00E94E50AB6
:1019200044E0C701B6010E948D0B20913403309131
:101930003503820F931F909335038093340387E917
:1019400092E0DF91CF91FF90EF90DF90CF900C94D9
:10195000E50A0F931F93CF93DF9382E090E090937B
:101960003503809334038BE093E00E945C0662E1D0
:1019700070E080EF92E00E94410B6091B70170919E
:10198000B80182EE92E00E94410B6091B501709126
:10199000B60181ED92E00E94410B6091B30170911C
:1019A000B40184EC92E00E94410B6091B901709106
:1019B000BA0189EB92E00E94410B6091AF017091F6
:1019C000B0018EEA92E00E94410B6091AD017091EE
:1019D000AE018DE992E00E94410B6091AB017091E4
:1019E000AC0180E992E00E94410B6091B1017091DD
:1019F000B20185E892E00E94410B40914F01509165
:101A00005001609151017091520185E296E00E946F
:101A1000690C4091530150915401609155017091AE
:101A2000560180E196E00E94690C40915701509167
:101A300058016091590170915A018AEF95E00E9416
:101A4000690C40915B0150915C0160915D01709166
:101A50005E0184EE95E00E94690C40914601509130
:101A6000470160914801709149018FEC95E00E9417
:101A7000690C40914A0150914B0160914C01709169
:101A80004D018AEB95E00E94690C409163015091F1
:101A9000640160916501709166018AEA95E00E9497
:101AA000690C4091670150916801609169017091E2
:101AB0006A0189E995E00E94690C40916B0150919F
:101AC0006C0160916D0170916E018EE895E00E944D
:101AD000690C40915F0150916001609161017091CA
:101AE000620184E795E00E94690C609151038CE5E6
:101AF00095E00E94080B609137017091380183E7EF
:101B000092E00E94410B6091390170913A0183E6A5
:101B100092E00E94410B60913B0170913C0183E592
:101B200092E00E94410B60913D0170913E0180E482
:101B300092E00E94410B60913F01709140018FE261
:101B400092E00E94410B60914101709142018EE14F
:101B500092E00E94410B60915A038DE495E00E944F
:101B6000080B60917001709171018AE092E00E940F
:101B7000410B609158037091590386EF91E00E94E8
:101B8000410B60914E0186E395E00E94080B609145
:101B90006F0170E087E295E00E94410B6091BC010B
:101BA00070E08DE195E00E94410B6091BB0170E017
:101BB00083E195E00E94410B60912D0170E089EF77
:101BC00094E00E94410B60912C0170E08EED94E056
:101BD0000E94410B60912E0189EC94E00E94080B59
:101BE000609133017091340185EE91E00E94410BC8
:101BF000609131017091320183ED91E00E94410BBF
:101C000060912F017091300182EB94E00E94410BB2
:101C1000609135017091360183EC91E00E94410B97
:101C2000609168038FE994E00E94080B609165035E
:101C30008BE894E00E94080B6091AA0170E087E7AE
:101C400094E00E94410B6091670387E894E00E9452
:101C5000080B6091A90170E085E694E00E94410BB9
:101C6000C3E7D1E001E010E084EB91E00E9462075D
:101C7000C8010E94830B2091340330913503820FF9
:101C8000931F909335038093340380EB91E00E947F
:101C90006207688170E090E080E04AE00E94800A7C
:101CA0002091340330913503820F931F90933503B5
:101CB000809334038EEA91E00E94620769817A8101
:101CC0008B819C8144E00E948D0B209134033091E4
:101CD0003503820F931F90933503809334038CEA6E
:101CE00091E00E9462076D817E818F81988544E03A
:101CF0000E948D0B2091340330913503820F931F86
:101D0000909335038093340389EA91E00E9462073F
:101D10000F5F1F4F29960730110509F0A5CF60917D
:101D20005B0386E294E00E94080B6091720170E010
:101D30008EE094E00E94410B609133038BE094E0CD
:101D40000E94080B6091280170E083E094E00E94FB
:101D5000410B6091290170E087E094E00E94410B03
:101D600060912A0170E08FEF93E00E94410B609137
:101D70002B0170E08BEF93E00E94410B60912E03EA
:101D800087EF93E00E94080B6091460383EF93E096
:101D90000E94080B6091430170E080EF93E00E9485
:101DA000410B609145038CEE93E00E94080B60911B
:101DB000440388EE93E00E94080B6091480384EE90
:101DC00093E00E94080B6091450170E081EE93E082
:101DD0000E94410B6091440170E08EED93E00E94FF
:101DE000410B609147038AED93E00E94080B8DE957
:101DF00091E00E946207809134039091350304962C
:101E00000E94830B8BE992E0DF91CF911F910F919C
:101E10000C94EC0A65E472E0811102C06AE472E09D
:101E200080EC92E00C94EA360C941235CF92DF925B
:101E3000EF92FF920F931F93CF93DF93EC018B01EF
:101E4000C090D902D090DA02E090DB02F090DC0280
:101E5000FB016081888199810E94140F888199819A
:101E6000F801608188539F4F0E94140F88819981E7
:101E7000F801608180579E4F0E94140FF801408145
:101E8000C701B6010E942B07288139812F5F3F4F80
:101E9000398328836093D9027093DA028093DB023E
:101EA0009093DC02DF91CF911F910F91FF90EF9003
:101EB000DF90CF900895AF92BF92CF92DF92EF92D2
:101EC000FF920F931F93CF93DF938C01EB01C09090
:101ED000D902D090DA02E090DB02F090DC025B01E4
:101EE00084E0A80EB11C6881F801808191810E9474
:101EF000140FF80180819181688188539F4F0E945F
:101F0000140FF80180819181688180579E4F0E9453
:101F1000140F4991C701B6010E942B076B017C0188
:101F2000F80180819181019691838083AC16BD0672
:101F3000D1F6C092D902D092DA02E092DB02F0929E
:101F4000DC02DF91CF911F910F91FF90EF90DF9016
:101F5000CF90BF90AF900895AF92BF92CF92DF9293
:101F6000EF92FF920F931F93CF93DF938C01EB01BE
:101F7000C090D902D090DA02E090DB02F090DC024F
:101F80005B0182E0A80EB11C6881F801808191811B
:101F90000E94140FF80180819181688188539F4FBE
:101FA0000E94140FF80180819181688180579E4FB3
:101FB0000E94140F4991C701B6010E942B076B01C3
:101FC0007C01F80180819181019691838083AC1618
:101FD000BD06D1F6C092D902D092DA02E092DB02BD
:101FE000F092DC02DF91CF911F910F91FF90EF9063
:101FF000DF90CF90BF90AF900895CF92DF92EF9295
:10200000FF920F931F93CF93DF93EC018B01C0904E
:10201000D902D090DA02E090DB02F090DC02FB0102
:102020006081888199810E94140F88819981F801CB
:10203000608188539F4F0E94140F88819981F80115
:10204000608180579E4F0E94140FF8014081C701A4
:10205000B6010E942B07288139812F5F3F4F3983BA
:1020600028836093D9027093DA028093DB02909305
:10207000DC02DF91CF911F910F91FF90EF90DF90E5
:10208000CF900895CF92DF92EF92FF920F931F931C
:10209000CF93DF9300D0CDB7DEB781E090E09A8395
:1020A00089831092D9021092DA021092DB02109208
:1020B000DC0267EB71E0CE0101960E94AC0F65EB8C
:1020C00071E0CE0101960E94AC0F63EB71E0CE018E
:1020D00001960E94AC0F69EB71E0CE0101960E945F
:1020E000AC0F6FEA71E0CE0101960E94AC0F6DEA71
:1020F00071E0CE0101960E94AC0F6BEA71E0CE0157
:1021000001960E94AC0F61EB71E0CE0101960E9436
:10211000AC0F6FE471E0CE0101960E945B0F63E5A6
:1021200071E0CE0101960E945B0F67E571E0CE0180
:1021300001960E945B0F6BE571E0CE0101960E9453
:102140005B0F66E471E0CE0101960E945B0F6AE4CA
:1021500071E0CE0101960E945B0F63E671E0CE0153
:1021600001960E945B0F67E671E0CE0101960E9426
:102170005B0F6BE671E0CE0101960E945B0F6FE58D
:1021800071E0CE0101960E945B0F6EE471E0CE011A
:1021900001960E94160F61E573E0CE0101960E9440
:1021A000160F67E371E0CE0101960E94AC0F69E360
:1021B00071E0CE0101960E94AC0F6BE371E0CE019D
:1021C00001960E94AC0F6DE371E0CE0101960E9472
:1021D000AC0F6FE371E0CE0101960E94AC0F61E499
:1021E00071E0CE0101960E94AC0F6AE573E0CE016A
:1021F00001960E94160F60E771E0CE0101960E94E1
:10220000AC0F68E573E0CE0101960E94AC0F6CEB59
:1022100071E0CE0101960E94FD0F6BEB71E0CE01E3
:1022200001960E94FD0F6DE271E0CE0101960E94C1
:10223000FD0F6CE271E0CE0101960E94FD0F6FE68A
:1022400071E0CE0101960E94FD0F63E371E0CE01C3
:1022500001960E94AC0F61E371E0CE0101960E94ED
:10226000AC0F6FE271E0CE0101960E94AC0F6EE2FE
:1022700071E0CE0101960E94160F65E371E0CE0178
:1022800001960E94AC0F6AEA71E0CE0101960E94AD
:10229000FD0F68E673E0CE0101960E94160F65E619
:1022A00073E0CE0101960E94160F69EA71E0CE013B
:1022B00001960E94FD0FC090D902D090DA02E09002
:1022C000DB02F090DC0203E711E0F8016081898114
:1022D0009A810E94140F89819A81F8016081885344
:1022E0009F4F0E94140F89819A81F8016081805765
:1022F0009E4F0E94140FF80141918F01C701B60152
:102300000E942B076B017C0189819A8101969A8337
:102310008983F1E0093A1F07C1F6C092D902D09231
:10232000DA02E092DB02F092DC026BE573E0CE01B0
:1023300001960E94160F62E771E0CE0101960E949D
:10234000FD0F63E373E0CE0101960E94160F68E271
:1023500071E0CE0101960E94FD0F69E271E0CE01AD
:1023600001960E94FD0F6AE271E0CE0101960E9483
:10237000FD0F6BE271E0CE0101960E94FD0F6EE24F
:1023800073E0CE0101960E94160F66E473E0CE0161
:1023900001960E94160F63E471E0CE0101960E943F
:1023A000FD0F65E473E0CE0101960E94160F64E410
:1023B00073E0CE0101960E94160F68E473E0CE012F
:1023C00001960E94160F65E471E0CE0101960E940D
:1023D000FD0F64E471E0CE0101960E94FD0F67E4F9
:1023E00073E0CE0101960E94160FC090D902D090E2
:1023F000DA02E090DB02F090DC0209ED12E0F80175
:10240000608189819A810E94140F89819A81F801E3
:10241000608188539F4F0E94140F89819A81F8012F
:10242000608180579E4F0E94140FF80141918F01E7
:10243000C701B6010E942B076B017C0189819A813B
:1024400001969A838983F2E00D3D1F07C1F6C09281
:10245000D902D092DA02E092DB02F092DC020F9015
:102460000F90DF91CF911F910F91FF90EF90DF9030
:10247000CF900895AF92BF92CF92DF92EF92FF92EA
:102480000F931F93CF93DF9300D000D0CDB7DEB76B
:10249000E0911903F0E0E352FD4F108260E572E035
:1024A0008DED92E00E9407307C0160E572E090E0E3
:1024B00080E00E9407308C01E0ECF2E08FE0DF0169
:1024C0001D928A95E9F7EBEEAE2EE1E0BE2ED12CFF
:1024D000C12CD501ED91FD915D01EE0FFF1FE65C72
:1024E000F94F60817181C7010E94FE2F892B79F419
:1024F000C8010E94E02FF601EE0FFF1FEB53FE4FC5
:102500000190F081E02D808391839F938EC2BFEF75
:10251000CB1ADB0AE3E1CE16D104D9F665E276E008
:10252000C7010E94FE2F892B09F03EC0C8010E94FE
:10253000DC2F20E030E0A9010E94A83618167CF5B7
:10254000C8010E94DC2F60934F017093500180936B
:1025500051019093520100EC12E024E040E00E940F
:10256000BE2F85E693E00E945C0687E992E00E9418
:10257000E50A88E593E00E945C06C7010E94E50A2F
:1025800086E992E00E94E50A8DE493E00E945C06F1
:1025900080EC92E00E94E50A8AE992E0B5C4C801A5
:1025A0000E94DC2F9058CFCF60E176E0C7010E94F7
:1025B000FE2F892BD9F4C8010E94DC2F20E030E0E7
:1025C000A9010E94A836181664F4C8010E94DC2FE5
:1025D0006093530170935401809355019093560179
:1025E000BACFC8010E94DC2F9058F2CF6AEF75E095
:1025F000C7010E94FE2F892BD9F4C8010E94DC2F4D
:1026000020E030E0A9010E94A836181664F4C80141
:102610000E94DC2F609357017093580180935901F9
:1026200090935A0198CFC8010E94DC2F9058F2CFA6
:1026300064EE75E0C7010E94FE2F892BD9F4C80112
:102640000E94DC2F20E030E0A9010E94A836181675
:1026500064F4C8010E94DC2F60935B0170935C01FD
:1026600080935D0190935E0176CFC8010E94DC2FBC
:102670009058F2CF6FEC75E0C7010E94FE2F892BB6
:10268000D9F4C8010E94DC2F20E030E0A9010E94AB
:10269000A836181664F4C8010E94DC2F6093460126
:1026A00070934701809348019093490154CFC8012A
:1026B0000E94DC2F9058F2CF6AEB75E0C7010E94B0
:1026C000FE2F892BD9F4C8010E94DC2F20E030E0D6
:1026D000A9010E94A836181664F4C8010E94DC2FD4
:1026E00060934A0170934B0180934C0190934D018C
:1026F00032CFC8010E94DC2F9058F2CF6AEA75E011
:10270000C7010E94FE2F892B09F062C0C8010E94F8
:10271000DC2F20E030E0A9010E94A836181674F4DE
:10272000C8010E94DC2F20E030E0A9010E94E333C1
:1027300087FF0EC060E070E0CB012CC0C8010E9492
:10274000DC2F20E030E0A9010E94A836181694F38F
:10275000C8010E94DC2F20E030E0A9010E94A836C9
:1027600018160CF5C8010E94DC2F20E030E040E88C
:102770005FE30E94A83618160CF1C8010E94DC2FF6
:1027800020E030E0A9010E94A8361816E4F4C80140
:102790000E94DC2F60936301709364018093650154
:1027A00090936601D8CEC8010E94DC2F20E030E073
:1027B00040E85FEB0E94E33387FFDFCF60E070E02B
:1027C00080E89FE3E7CFC8010E94DC2F9058E2CF5A
:1027D00069E975E0C7010E94FE2F892B09F062C0EC
:1027E000C8010E94DC2F20E030E0A9010E94A83639
:1027F000181674F4C8010E94DC2F20E030E0A90113
:102800000E94E33387FF0EC060E070E0CB012CC074
:10281000C8010E94DC2F20E030E0A9010E94A83608
:10282000181694F3C8010E94DC2F20E030E0A901C3
:102830000E94A83618160CF5C8010E94DC2F20E073
:1028400030E040E85FE30E94A83618160CF1C8019A
:102850000E94DC2F20E030E0A9010E94A836181663
:10286000E4F4C8010E94DC2F609367017093680153
:102870008093690190936A016ECEC8010E94DC2F9B
:1028800020E030E040E85FEB0E94E33387FFDFCFDA
:1028900060E070E080E89FE3E7CFC8010E94DC2F92
:1028A0009058E2CF6EE875E0C7010E94FE2F892B99
:1028B00009F062C0C8010E94DC2F20E030E0A901CD
:1028C0000E94A836181674F4C8010E94DC2F20E07C
:1028D00030E0A9010E94E33387FF0EC060E070E0A2
:1028E000CB012CC0C8010E94DC2F20E030E0A90100
:1028F0000E94A836181694F3C8010E94DC2F20E02D
:1029000030E0A9010E94A83618160CF5C8010E94F3
:10291000DC2F20E030E040E85FE30E94A836181684
:102920000CF1C8010E94DC2F20E030E0A9010E94D8
:10293000A8361816E4F4C8010E94DC2F60936B01DE
:1029400070936C0180936D0190936E0104CEC80169
:102950000E94DC2F20E030E040E85FEB0E94E33390
:1029600087FFDFCF60E070E080E89FE3E7CFC8013A
:102970000E94DC2F9058E2CF64E775E0C7010E9407
:10298000FE2F892B61F4C8010E94DC2F60935F0148
:10299000709360018093610190936201DCCD6CE5DE
:1029A00075E0C7010E94FE2F892B59F4C8010E94CF
:1029B000E02F21E0892B09F420E020935103822F9E
:1029C00082C16DE475E0C7010E94FE2F892B51F48E
:1029D000C8010E94E02F21E0892B09F420E0209318
:1029E0005A03EDCF66E375E0C7010E94FE2F892BE5
:1029F00051F4C8010E94E02F21E0892B09F420E066
:102A000020934E01DCCF67E275E0C7010E94FE2FE4
:102A1000892BE9F4C8010E94E02F80936F0160E0E8
:102A20000E94BA0480916F011F928F9383E592E018
:102A30009F938F9380EC92E09F938F930E94F13647
:102A40000F900F900F900F900F900F908ACD6DE127
:102A500075E0C7010E94FE2F892B59F4C8010E941E
:102A6000E02F8093BC0160E00E94BA048091BC0119
:102A7000DBCF63E175E0C7010E94FE2F892B59F47B
:102A8000C8010E94E02F8093BB0160E00E94BA045D
:102A90008091BB01C9CF69EF74E0C7010E94FE2F8E
:102AA000892B09F058C060913D0170913E0184E48A
:102AB00094E00E949806E09144048E2F90E0FC017F
:102AC000EE0FFF1FE80FF91FE15EFB4F80818F7B48
:102AD0008083609137017091380187E494E00E940F
:102AE0009806E09147048E2F90E0FC01EE0FFF1F47
:102AF000E80FF91FE15EFB4F80818F7B8083C80167
:102B00000E94E02F80932D016AE070E080E090E069
:102B10000E94300560912D0170E087E494E00E94EE
:102B2000CF06609137017091380187E494E00E94EC
:102B3000980660912C0170E084E494E00E94CF0636
:102B400060913D0170913E0184E494E00E949806FA
:102B500080912D0169CF6EED74E0C7010E94FE2FB8
:102B6000892B09F058C0609137017091380187E4D2
:102B700094E00E949806E09147048E2F90E0FC01BB
:102B8000EE0FFF1FE80FF91FE15EFB4F80818F7B87
:102B9000808360913D0170913E0184E494E00E9445
:102BA0009806E09144048E2F90E0FC01EE0FFF1F89
:102BB000E80FF91FE15EFB4F80818F7B8083C801A6
:102BC0000E94E02F80932C016AE070E080E090E0AA
:102BD0000E94300560912C0170E084E494E00E9432
:102BE000CF0660913D0170913E0184E494E00E9423
:102BF000980660912D0170E087E494E00E94CF0672
:102C0000609137017091380187E494E00E94980642
:102C100080912C0109CF69EC74E0C7010E94FE2F5E
:102C2000892B51F4C8010E94E02F21E0892B09F47F
:102C300020E020932E01C3CE62EB74E0C7010E9416
:102C4000FE2F892B91F4C8010E94E02F893EF3E00A
:102C50009F0714F088EE93E097FF02C090E080E0B9
:102C60009093300180932F0150CC6FE974E0C7013D
:102C70000E94FE2F892B51F5C8010E94E02F21E010
:102C8000009709F420E020936803892BD1F080910C
:102C90006503882329F062E08091AA010E94BA04AA
:102CA00010E009E08091A901181758F4019FF00184
:102CB0001124ED58FE4F62E080810E94BA041F5F2C
:102CC000F1CF809168030E940A0F4BCC6BE874E04F
:102CD000C7010E94FE2F892B41F5C8010E94E02FF9
:102CE00021E0009709F420E0209365032091680318
:102CF0002223C1F0892B29F062E08091AA010E9471
:102D0000BA0410E009E08091A901181758F4019F56
:102D1000F0011124ED58FE4F62E080810E94BA0458
:102D20001F5FF1CF80916503CECF67E874E0C701E4
:102D30000E94FE2F892B51F4C8010E94E02F21E050
:102D4000892B09F420E02093670339CE67E774E00C
:102D5000C7010E94FE2F892B59F4C8010E94E02F61
:102D60008093AA0162E00E94BA048091AA015CCE1D
:102D700065E674E0C7010E94FE2F892B79F5C80132
:102D80000E94E02F97FD23C08730910514F58093B2
:102D9000A901809168038823F1F08091650388235D
:102DA00029F062E08091AA010E94BA0410E009E0D3
:102DB0008091A901181778F4019FF0011124ED58B2
:102DC000FE4F62E080810E94BA041F5FF1CF80E075
:102DD000DECF86E0DCCF8091A90126CE66E572E0E9
:102DE000C7010E94E136892B09F091C0C8010E94F9
:102DF000E02F6C015C0121E0A21AB10846E0A416A4
:102E0000B10408F0F0C160E772E0C8010E94073029
:102E100060E772E090E080E00E9407300E94E02FBF
:102E200099E09A9D90019B9D300D1124D901AD58D8
:102E3000BE4F7D018C9360E772E090E080E00E94DD
:102E400007300E94DC2FF7016183728383839483B0
:102E500060E772E090E080E00E9407300E94DC2F83
:102E6000D70115966D937D938D939C93189762E08F
:102E70008C910E94BA0481E594E00E945C0683E78D
:102E800092E00E94E50A84E494E00E945C0684E6F5
:102E900092E00E94E50AC6010E94830B82E792E05D
:102EA0000E94E50A8AE394E00E945C06F7016081D3
:102EB00070E090E080E04AE00E94800A83E792E0C0
:102EC0000E94E50AD70111966D917D918D919C919B
:102ED000149700EC12E024E040E00E94BE2FC801ED
:102EE0000E94E50A83E792E00E94E50AF701658106
:102EF00076818781908524E040E00E94BE2FC80142
:102F00000E94E50A85E792E00E94EC0A6CC166E245
:102F100074E0C7010E94FE2F892BB9F4C8010E94FA
:102F2000E02F21E0009709F420E020935B03892B38
:102F3000E9F162E0809172010E94BA0465E472E0F6
:102F400080EC92E00E94EA360CCB6EE074E0C701A0
:102F50000E94FE2F892B59F4C8010E94E02F809314
:102F6000720162E00E94BA04809172015DCD6BE053
:102F700074E0C7010E94FE2F892BD9F4C8010E947A
:102F8000E02F21E0009709F420E020933303892B00
:102F900059F00E94061E65E472E080EC92E00E9407
:102FA000EA360E94AD08DDCA0E94061E6AE472E09D
:102FB000C7CF67E074E0C7010E94FE2F892B61F440
:102FC0000E94061EC8010E94E02F809328010E94E3
:102FD000AD088091280128CD63E074E0C7010E940C
:102FE000FE2F892B61F40E94061EC8010E94E02F6B
:102FF000809329010E94AD088091290115CD6FEFC2
:1030000073E0C7010E94FE2F892B61F40E94061E07
:10301000C8010E94E02F80932A010E94AD08809190
:103020002A0102CD6BEF73E0C7010E94FE2F892BAE
:1030300061F40E94061EC8010E94E02F80932B01BC
:103040000E94AD0880912B01EFCC67EF73E0C701C0
:103050000E94FE2F892B51F4C8010E94E02F21E02D
:10306000892B09F420E020932E03A9CC63EF73E0B1
:10307000C7010E94FE2F892B99F4C8010E94E02FFE
:1030800021E0009709F420E020934603892B29F0E2
:1030900062E0809143010E94BA048091460313CEFE
:1030A00060EF73E0C7010E94FE2F892B79F4C801FD
:1030B0000E94E02F8093430190914603992319F0D9
:1030C00062E00E94BA0480914301AECC6CEE73E0E2
:1030D000C7010E94FE2F892B51F4C8010E94E02FE6
:1030E00021E0892B09F420E02093450368CC68EEA9
:1030F00073E0C7010E94FE2F892B51F4C8010E9482
:10310000E02F21E0892B09F420E02093440357CCE1
:1031100064EE73E0C7010E94FE2F892BC1F4C80141
:103120000E94E02F21E0009709F420E0209348035B
:10313000892B51F062E0809145010E94BA0462E05F
:10314000809144010E94BA0480914803BCCD61EE95
:1031500073E0C7010E94FE2F892B59F4C8010E9419
:10316000E02F8093450162E00E94BA0480914501FE
:103170005BCC6EED73E0C7010E94FE2F892B59F4E2
:10318000C8010E94E02F8093440162E00E94BA04CB
:103190008091440149CC6AED73E0C7010E94FE2F83
:1031A000892B51F4C8010E94E02F21E0892B09F4FA
:1031B00020E02093470303CC68E772E0C7010E9438
:1031C000E136892B39F40E94421086EC93E00E948C
:1031D000FA0A09C06DE772E0C7010E94E136892B47
:1031E00099F40E94A90C109219030F900F900F9060
:1031F0000F90DF91CF911F910F91FF90EF90DF9093
:10320000CF90BF90AF90089566E872E0C7010E942A
:10321000E136892BA1F41C821B8283E190E09A8322
:103220008983BE016F5F7F4FCE0103960E94AC0F72
:1032300068E873E180E090E00E94300592C96DE893
:1032400072E0C7010E94E136892B91F364E972E0D4
:10325000C7010E94E136892B31F481E080933A0363
:1032600087EA93E0B4CF64E872E0C7010E94E136D8
:10327000892BA9F410923A036091370170913801BB
:1032800087E494E00E94980660913D0170913E01B0
:1032900084E494E00E94980681E993E098CF89E75E
:1032A00093E095CF0C940A35CF92DF92EF92FF9284
:1032B0000F931F93CF93DF938C017B01FC01C080A0
:1032C000D180C6010E945219C82FC60188539F4F52
:1032D0000E945219D82FC60180579E4F0E94521942
:1032E000CD1327C0C81325C0F701C0836091D90250
:1032F0007091DA028091DB029091DC02F70140814B
:103300000E942B076093D9027093DA028093DB024C
:103310009093DC02F80180819181019691838083F2
:10332000DF91CF911F910F91FF90EF90DF90CF90A1
:1033300008956C2F682B6D23C8236C2BF7016083D5
:10334000F801808191810E94140FF80180819181A0
:10335000F701608188539F4F0E94140FF80180810C
:103360009181F701608180579E4F0E94140F61E0A8
:103370008DE00E94BA0460E08DE00E948C0464E657
:1033800070E080E090E00E94300561E08DE00E94F6
:103390008C0462E370E080E090E00E943005A89524
:1033A000A5CFAF92BF92CF92DF92EF92FF920F9391
:1033B0001F93CF93DF937C01EB016B0184E0C80E78
:1033C000D11CF701A080B180C5010E945219182FAD
:1033D000C50188539F4F0E945219082FC50180577D
:1033E0009E4F0E94521910132AC0181328C0188328
:1033F0006091D9027091DA028091DB029091DC0237
:1034000049910E942B076093D9027093DA0280934E
:10341000DB029093DC02F701808191810196918318
:103420008083CC15DD0569F6DF91CF911F910F9157
:10343000FF90EF90DF90CF90BF90AF900895612FF5
:10344000682B60231823612B6883F70180819181A9
:103450000E94140FF70180819181688188539F4FEA
:103460000E94140FF70180819181688180579E4FDF
:103470000E94140F61E08DE00E94BA0460E08DE0CC
:103480000E948C0464E670E080E090E00E943005C9
:1034900061E08DE00E948C0462E370E080E090E0E7
:1034A0000E943005A895A4CFAF92BF92CF92DF9231
:1034B000EF92FF920F931F93CF93DF937C01EB0169
:1034C0006B0182E0C80ED11CF701A080B180C5015C
:1034D0000E945219182FC50188539F4F0E945219FC
:1034E000082FC50180579E4F0E94521910132AC001
:1034F000181328C018836091D9027091DA02809164
:10350000DB029091DC0249910E942B076093D90263
:103510007093DA028093DB029093DC02F7018081E2
:103520009181019691838083CC15DD0569F6DF9149
:10353000CF911F910F91FF90EF90DF90CF90BF90B0
:10354000AF900895612F682B60231823612B688347
:10355000F701808191810E94140FF7018081918190
:10356000688188539F4F0E94140FF70180819181D9
:10357000688180579E4F0E94140F61E08DE00E9489
:10358000BA0460E08DE00E948C0464E670E080E0A4
:1035900090E00E94300561E08DE00E948C0462E3BF
:1035A00070E080E090E00E943005A895A4CFCF9213
:1035B000DF92EF92FF920F931F93CF93DF938C01D3
:1035C0007B01FC01C080D180C6010E945219C82F26
:1035D000C60188539F4F0E945219D82FC6018057A9
:1035E0009E4F0E945219CD1327C0C81325C0F70162
:1035F000C0836091D9027091DA028091DB029091D0
:10360000DC02F70140810E942B076093D90270937E
:10361000DA028093DB029093DC02F80180819181D1
:10362000019691838083DF91CF911F910F91FF903D
:10363000EF90DF90CF9008956C2F682B6D23C823F7
:103640006C2BF7016083F801808191810E94140F37
:10365000F80180819181F701608188539F4F0E941A
:10366000140FF80180819181F701608180579E4F8E
:103670000E94140F61E08DE00E94BA0460E08DE0CA
:103680000E948C0464E670E080E090E00E943005C7
:1036900061E08DE00E948C0462E370E080E090E0E5
:1036A0000E943005A895A5CF1F920F920FB60F92DA
:1036B00011242F933F938F939F93AF93BF93809148
:1036C0007A0390917B03A0917C03B0917D033091AC
:1036D000790323E0230F2D3758F50196A11DB11D65
:1036E0002093790380937A0390937B03A0937C03C8
:1036F000B0937D0380917E0390917F03A09180031E
:10370000B09181030196A11DB11D80937E0390931A
:103710007F03A0938003B0938103BF91AF919F91EA
:103720008F913F912F910F900FBE0F901F90189582
:1037300026E8230F0296A11DB11DD2CF1F920F9232
:103740000FB60F9211242F933F934F935F936F9374
:103750007F938F939F93AF93BF93EF93FF9382E8F1
:1037600093E00E94ED05FF91EF91BF91AF919F9182
:103770008F917F916F915F914F913F912F910F901A
:103780000FBE0F901F9018951F920F920FB60F92B9
:1037900011242F938F939F93EF93FF93E0919203C4
:1037A000F09193038081E0919803F091990382FD59
:1037B0001BC0908180919B038F5F8F7320919C032E
:1037C000821741F0E0919B03F0E0EE57FC4F958F9C
:1037D00080939B03FF91EF919F918F912F910F9079
:1037E0000FBE0F901F9018958081F4CF1F920F92FB
:1037F0000FB60F9211242F933F934F935F936F93C4
:103800007F938F939F93AF93BF93CF93EF93FF9348
:1038100099B18091D802C091D502C923282F209553
:10382000C2232091D2028223292F20958223C82BE4
:103830009093D802C4FF05C0E0911801F0911901DE
:103840000995C5FF05C0E0911A01F0911B0109958A
:10385000C6FF05C0E0911C01F0911D010995C7FF4D
:1038600005C0E0911E01F0911F010995C0FF05C040
:10387000E0912001F09121010995C1FF05C0E0917F
:103880002201F09123010995C2FF05C0E0912401B6
:10389000F09125010995C3FF05C0E0912601F09143
:1038A00027010995FF91EF91CF91BF91AF919F9122
:1038B0008F917F916F915F914F913F912F910F90D9
:1038C0000FBE0F901F9018951F920F920FB60F9278
:1038D00011242F933F934F935F936F937F938F9315
:1038E0009F93AF93BF93CF93EF93FF9396B1809144
:1038F000D702C091D402C923282F2095C22320913A
:10390000D1028223292F20958223C82B9093D7029E
:10391000C0FF05C0E0910C01F0910D010995C1FFB8
:1039200005C0E0910E01F0910F010995C2FF05C09D
:10393000E0911001F09111010995C3FF05C0E091DC
:103940001201F09113010995C4FF05C0E091140123
:10395000F09115010995C5FF05C0E0911601F091A0
:1039600017010995FF91EF91CF91BF91AF919F9171
:103970008F917F916F915F914F913F912F910F9018
:103980000FBE0F901F9018951F920F920FB60F92B7
:1039900011242F933F934F935F936F937F938F9354
:1039A0009F93AF93BF93CF93EF93FF9393B1809186
:1039B000D602C091D302C923282F2095C22320917B
:1039C000D0028223292F20958223C82B9093D602E0
:1039D000C0FF05C0E0910001F09101010995C1FF10
:1039E00005C0E0910201F09103010995C2FF05C0F5
:1039F000E0910401F09105010995C3FF05C0E09134
:103A00000601F09107010995C4FF05C0E091080186
:103A1000F09109010995C5FF05C0E0910A01F091F7
:103A20000B010995FF91EF91CF91BF91AF919F91BC
:103A30008F917F916F915F914F913F912F910F9057
:103A40000FBE0F901F9018951F920F920FB60F92F6
:103A500011242F933F934F935F936F937F938F9393
:103A60009F93AF93BF93CF93DF93EF93FF93809197
:103A7000CF02C0914304D0E087FF24C0109285009C
:103A8000109284008091CF028F5F8093CF0280914B
:103A9000CF02082E000C990B8C179D0724F48091FF
:103AA000CF028C30C4F180918400909185000496FF
:103AB00080349C4908F47AC08091840090918500FC
:103AC000049676C08091CF02082E000C990B8C17BB
:103AD0009D07C4F6E091CF028E2FEE0F990BFC01EB
:103AE000EE0FFF1FE80FF91FE15EFB4F808186FF9D
:103AF000C9CFE091CF028E2FEE0F990BFC01EE0F94
:103B0000FF1FE80FF91FE15EFB4F808160E08F73BC
:103B10000E948C04B7CF2091840030918500E09101
:103B2000CF028E2FEE0F990BFC01EE0FFF1FE80F57
:103B3000F91FE15EFB4F81819281820F931F909369
:103B4000890080938800E091CF028E2FEE0F990BB1
:103B5000FC01EE0FFF1FE80FF91FE15EFB4F8081B4
:103B600086FF11C0E091CF028E2FEE0F990BFC0162
:103B7000EE0FFF1FE80FF91FE15EFB4F808161E050
:103B80008F730E948C04FF91EF91DF91CF91BF91D1
:103B9000AF919F918F917F916F915F914F913F91E5
:103BA0002F910F900FBE0F901F90189580E49CE905
:103BB00090938900809388008FEF8093CF02E3CFAA
:103BC0001F920F920FB60F9211242F933F934F9392
:103BD0005F936F937F938F939F93AF93BF93EF9375
:103BE000FF93A895F0E0E0E00995FF91EF91BF9178
:103BF000AF919F918F917F916F915F914F913F9185
:103C00002F910F900FBE0F901F901895FF920F935A
:103C10001F93CF93DF93A8E2B1E06CE271E041E043
:103C200050E027E936E08D91863108F057C090E1E9
:103C3000883058F091E08E3008F490E0990F990F99
:103C4000990F8E3008F048C08850890F982F9695AC
:103C500096959695C82FC770911166C0811140C086
:103C60003093010120930001E92FF0E08A0102C0A6
:103C7000000F111FCA95E2F7F02EF0948F010D523C
:103C80001D4FE80188818F2188838F0100531D4FCC
:103C9000E80188818F218883E559FF4F8081CF2DEE
:103CA000C823C083808181110DC0E09168008A0122
:103CB00002C0000F111F9A95E2F7C80180958E236C
:103CC000809368006A177B0709F0ADCFDF91CF9131
:103CD0001F910F91FF9008958E50B7CF8FEFB6CF01
:103CE000813029F43093030120930201BDCF82304B
:103CF00029F43093050120930401B6CF833029F4D1
:103D00003093070120930601AFCF843029F430931C
:103D1000090120930801A8CF853009F0A5CF309381
:103D20000B0120930A01A0CF913059F5883029F476
:103D300030930D0120930C0197CF893029F43093F3
:103D40000F0120930E0190CF8A3029F43093110196
:103D50002093100189CF8B3029F4309313012093E5
:103D6000120182CF8C3029F4309315012093140175
:103D70007BCF8D3009F078CF309317012093160157
:103D800073CF923009F09ECF803129F43093210116
:103D90002093200169CF813129F4309323012093AE
:103DA000220162CF823129F430932501209324012E
:103DB0005BCF833129F4309327012093260154CF20
:103DC000843129F430931901209318014DCF8531A6
:103DD00029F430931B0120931A0146CF863129F430
:103DE00030931D0120931C013FCF873109F03CCF58
:103DF00030931F0120931E0137CF1092850310923C
:103E0000840388EE93E0A0E0B0E080938603909373
:103E10008703A0938803B093890386E192E090938F
:103E200083038093820385EC90E090938F038093CB
:103E30008E0384EC90E0909391038093900380EC48
:103E400090E0909393038093920381EC90E09093A1
:103E500095038093940382EC90E090939703809372
:103E6000960386EC90E090939903809398031092C8
:103E70009B0310929C0310929D0310929E038091CD
:103E800043048C3048F591E0980F9093430480935D
:103E9000470490E0FC01EE0FFF1FE80FF91FE15E01
:103EA000FB4F88EB9BE092838183809143048C30AD
:103EB000B8F491E0980F909343048093440490E009
:103EC000FC01EE0FFF1FE80FF91FE15EFB4F88EBCF
:103ED0009BE09283818308958FEF80934704E5CF21
:103EE0008FEF809344040895CF93DF93CDB7DEB76F
:103EF000A8970FB6F894DEBF0FBECDBF789484B5F7
:103F0000826084BD84B5816084BD85B5826085BDD5
:103F100085B5816085BD80916E00816080936E0063
:103F20001092810080918100826080938100809155
:103F30008100816080938100809180008160809306
:103F400080008091B10084608093B1008091B000C6
:103F500081608093B00080917A00846080937A00C1
:103F600080917A00826080937A0080917A008160EB
:103F700080937A0080917A00806880937A00109212
:103F8000C10061E08DE00E94BA0461E08DE00E9412
:103F90008C04E0919203F091930382E08083E0919E
:103FA0008E03F0918F031082E0919003F0919103C2
:103FB00087E0808310929A03E0919603F091970333
:103FC00086E08083E0919403F09195038081806185
:103FD0008083E0919403F0919503808188608083D1
:103FE000E0919403F0919503808180688083E09153
:103FF0009403F091950380818F7D808384E292E029
:104000000E94730A62E370E080E090E00E94300555
:1040100060E08DE00E948C04F894A8958091600087
:1040200088618093600087E480936000789480E0EA
:1040300092E0909374038093730390937203809340
:1040400071031092690310926A0310926B0310922D
:104050006C0310926D0310926E0310926F03109216
:10406000700310924D0310924E0310924F03109262
:1040700050031092490310924A0310924B0310927E
:104080004C0310925C0310925D0310925E03109239
:104090005F0310926003109261031092620310920A
:1040A00063038FEF9FEF909357038093560380E055
:1040B00090E0A0E8BFE38093520390935303A09352
:1040C0005403B09355031092750310927603109227
:1040D00077031092780310923603109237031092F0
:1040E00038031092390381E080933A0310926403FD
:1040F00010923C0310923D0310923E0310923F0336
:1041000018861F82BE01675F7F4FCE0107960E940F
:10411000D71A8985823161F018861F8261E172E0C9
:10412000CE0107960E94FD0F0E94421010923A03A2
:1041300081E090E09E838D831092D9021092DA0282
:104140001092DB021092DC028E010B5F1F4F67EBB7
:1041500071E0C8010E94541A65EB71E0C8010E9429
:10416000541A63EB71E0C8010E94541A69EB71E0C4
:10417000C8010E94541A6FEA71E0C8010E94541AE3
:104180006DEA71E0C8010E94541A6BEA71E0C8013F
:104190000E94541A61EB71E0C8010E94541A6FE446
:1041A00071E0C8010E94D11963E571E0C8010E9465
:1041B000D11967E571E0C8010E94D1196BE571E082
:1041C000C8010E94D11966E471E0C8010E94D119AA
:1041D0006AE471E0C8010E94D11963E671E0C80188
:1041E0000E94D11967E671E0C8010E94D1196BE6FF
:1041F00071E0C8010E94D1196FE571E0C8010E9409
:10420000D1196EE471E0C8010E94541961E573E0B0
:10421000C8010E94541967E371E0C8010E94541A52
:1042200069E371E0C8010E94541A6BE371E0C801B0
:104230000E94541A6DE371E0C8010E94541A6FE3A2
:1042400071E0C8010E94541A61E471E0C8010E9443
:10425000541A6AE573E0C8010E94541960E771E0DE
:10426000C8010E94541A68E573E0C8010E94541AFC
:104270006CEB71E0C8010E94D71A6BEB71E0C801CA
:104280000E94D71A6DE271E0C8010E94D71A6CE251
:1042900071E0C8010E94D71A6FE671E0C8010E9460
:1042A000D71A63E371E0C8010E94541A61E371E018
:1042B000C8010E94541A6FE271E0C8010E94541AAA
:1042C0006EE271E0C8010E94541965E371E0C80113
:1042D0000E94541A6AEA71E0C8010E94D71A68E67F
:1042E00073E0C8010E94541965E673E0C8010E949A
:1042F000541969EA71E0C8010E94D71A63E7E62EF3
:1043000061E0F62EAD80BE80C5010E945219D82E04
:10431000C50188539F4F0E945219C82EC50180576E
:104320009E4F0E945219DC101BC1D81219C1D7012F
:10433000DC926091D9027091DA028091DB02909157
:10434000DC02D7014D917D010E942B076093D902B9
:104350007093DA028093DB029093DC028D819E8160
:1043600001969E838D83B9EAEB16B1E0FB0651F608
:104370006BE573E0C8010E94541962E771E0C8015F
:104380000E94D71A63E373E0C8010E94541968E2DF
:1043900071E0C8010E94D71A69E271E0C8010E9469
:1043A000D71A6AE271E0C8010E94D71A6BE271E085
:1043B000C8010E94D71A6EE273E0C8010E94541926
:1043C00066E473E0C8010E94541963E471E0C80117
:1043D0000E94D71A65E473E0C8010E94541964E48E
:1043E00073E0C8010E94541968E473E0C8010E9498
:1043F000541965E471E0C8010E94D71A64E471E0C1
:10440000C8010E94D71A67E473E0C8010E945419DA
:104410004090D9025090DA026090DB027090DC028A
:1044200019821A821B821C82FE0131966F01AD80B7
:10443000BE80C5010E945219E82EC50188539F4FC6
:104440000E945219982EC50180579E4F0E94521902
:10445000E910BAC0E812B8C0D601EC926091D90256
:104460007091DA028091DB029091DC02D6014D91CD
:104470006D010E942B076093D9027093DA0280933A
:10448000DB029093DC028D819E8101969E838D8359
:10449000C016D10661F689819A81AB81BC8148162C
:1044A00059066A067B0609F4F0C062E370E080E01A
:1044B00090E00E9430058EEC96E00E94FA0A62E3DA
:1044C00070E080E090E00E943005E09147048E2F7C
:1044D00090E0FC01EE0FFF1FE80FF91FE15EFB4FBC
:1044E000808186FF02C08F7B8083E09144048E2F01
:1044F00090E0FC01EE0FFF1FE80FF91FE15EFB4F9C
:10450000808186FF02C08F7B808364E670E080E05C
:1045100090E00E94300512E060E0812F0E94BA0412
:104520001F5F1536C9F761E08DE00E94BA0462E3AF
:1045300070E080E090E00E9430050FB6F894A895F6
:1045400080916000886180936000109260000FBECF
:1045500082EB96E00E94FA0A10E088EC90E06CC0D2
:104560006D2D682B6C21D8226D29F7016083C50160
:104570000E94140F8D819E81D7016C9188539F4FAB
:104580000E94140F8D819E81F701608180579E4F9C
:104590000E94140F61E08DE00E94BA0460E08DE09B
:1045A0000E948C0464E670E080E090E00E94300598
:1045B00061E08DE00E948C0462E370E080E090E0B6
:1045C0000E943005A895B5CEFE2CF82AF920E822E5
:1045D000FE28F601F0826F2DC5010E94140F8D8117
:1045E0009E816F2D88539F4F0E94140F8D819E8155
:1045F0006F2D80579E4F0E94140F61E08DE00E9446
:10460000BA0460E08DE00E948C0464E670E080E013
:1046100090E00E94300561E08DE00E948C0462E32E
:1046200070E080E090E00E943005A89517CF11302F
:1046300009F093CF88E592E003E06C01990FEE0852
:10464000FF0861E08DE00E948C04C701B6010E9462
:10465000300560E08DE00E948C0468EC70E080E042
:1046600090E00E943005015061F760E971E080E060
:1046700090E0123021F468E775E080E090E00E945D
:1046800030051F5F133099F663CF80913701909109
:104690003801909343038093420380913D019091B0
:1046A0003E01909341038093400380912E018093BB
:1046B0003B0368E770E080E090E00E9430050E94D4
:1046C000A90C68E770E080E090E00E9430050E944D
:1046D000A90C60E08091BC010E94BA0460E0809166
:1046E000BB010E94BA0460E080916F010E94BA048D
:1046F000809168038823D1F080916503882329F095
:1047000062E08091AA010E94BA0410E009E0809161
:10471000A901181758F4019FF0011124ED58FE4F1C
:1047200062E080810E94BA041F5FF1CF80915B0339
:10473000882329F062E0809172010E94BA0460919E
:104740002D0170E087E494E00E94CF0660912C0177
:1047500070E084E494E00E94CF066091370170918C
:10476000380187E494E00E94980660913D017091C1
:104770003E0184E494E00E94980664E670E080E0E4
:1047800090E00E9430050E94AD08A89582E893E071
:104790000E94AB05F82EBFEF8B1729F0ECE28E13C9
:1047A0000DC10E943A1280911E0381110DC00E941A
:1047B0000B0560931A0370931B0380931C03909363
:1047C0001D0331E030931E03C0901A03D0901B03E9
:1047D000E0901C03F0901D03C114D104E104F10426
:1047E00009F411C10E940B056C197D098E099F09FE
:1047F0000E94E83320E034E244E759E40E940036A6
:104800006A8B7B8B8C8B9D8B0E940B0560931A03AC
:1048100070931B0380931C0390931D038A899B89CB
:10482000AC89BD898093750390937603A093770339
:10483000B09378038091BC010E94F6046C019093C0
:104840007403809373038091BB010E94F6047C0182
:1048500090937203809371030091B9011091BA0192
:104860002091B7013091B8014091B5015091B60146
:104870006091B3017091B401C6010E946F0760930B
:104880006D0370936E0380936F0390937003009198
:10489000B1011091B2012091AF013091B00140916E
:1048A000AD015091AE016091AB017091AC01C701B7
:1048B0000E946F076093690370936A0380936B0390
:1048C00090936C0380916803882309F4B7C08091AA
:1048D0006703882309F4A6C08091AA010E9463049B
:1048E00021E0009709F420E0892B69F480916603A8
:1048F00087FF09C086FB992790F9A1E09A2790FBD2
:1049000086F98093660380916603982F20FB97F9C0
:104910009093660386FF92C0E090A901109269030C
:1049200010926A0310926B0310926C0310926D0345
:1049300010926E0310926F031092700303E711E060
:10494000F12CEF1409F47AC0F80180810E9463040D
:10495000892B81F5D80111962D913D914D915C9156
:1049600014976091690370916A0380916B03909131
:104970006C030E9494356093690370936A0380937B
:104980006B0390936C03F801258136814781508534
:1049900060916D0370916E0380916F03909170032D
:1049A0000E94943560936D0370936E0380936F0340
:1049B00090937003F394075F1F4FC3CF082F880FA6
:1049C000110BC8010E94C436892B51F483ED8F0D61
:1049D000823030F0FAE3FF1619F02FE5F212E3CE41
:1049E000C8010E94D93690911903E92FF0E0E352F3
:1049F000FD4F808382E0890F8C3308F0D4CE9F5F17
:104A000090931903D0CE0E940B0560931A03709304
:104A10001B0380931C0390931D031A8A1B8A1C8A14
:104A20001D8AFCCE80916503882309F475CF80919F
:104A3000AA010E946304892B09F46ECFF0916403EC
:104A4000FCA3FF2309F476C010913303112309F46A
:104A500071C0F12E04E00E94630580902F039090B6
:104A60003003A0903103B0903203681979098A09A4
:104A70009B09693271058105910508F0F12C0150FF
:104A800051F7FF2009F40EC5809166038160809381
:104A9000660320912A0330912B03233331050CF454
:104AA000F3C482608093660380912C0390912D0360
:104AB000833391050CF4EEC4809166038460809387
:104AC00066031091660311FF30C060912803709156
:104AD0002903072E000C880B990B0E94EA3320E073
:104AE00030E04AEF53E40E9400366093690370930C
:104AF0006A0380936B0390936C036091260370911B
:104B00002703072E000C880B990B0E94EA3320E044
:104B100030E04AEF53E40E94003660936D037093D7
:104B20006E0380936F0390937003812F12FB83F9C0
:104B30008093660380916D0390916E03A0916F0343
:104B4000B09170038093600390936103A09362031C
:104B5000B09363038091690390916A03A0916B0302
:104B6000B0916C0380935C0390935D03A0935E030C
:104B7000B0935F0380915B03882371F08091720191
:104B80000E946304892B41F4109260031092610328
:104B9000109262031092630380915A03882309F4F0
:104BA00091C4C0905803D0905903E0907001F090E8
:104BB000710180916F010E94F6048C01909357035C
:104BC00080935603B701FF0C880B990B0E94EA33C0
:104BD0004B015C01B801110F880B990B0E94EA335D
:104BE000A50194010E9493352B013C01B601DD0C17
:104BF000880B990B0E94EA33A50194010E9493351A
:104C00009B01AC01C301B2010E94003620E030E0FC
:104C1000A9010E9494356B017C0120E030E0A901DC
:104C20000E94E33387FD4AC420E030E040E85FE3C0
:104C3000C701B6010E94A836181634F4C12CD12C35
:104C400030E8E32E3FE3F32EC0925203D092530399
:104C5000E0925403F092550380916B0190916C01A6
:104C6000A0916D01B0916E018A879B87AC87BD874B
:104C70008090670190906801A0906901B0906A01EE
:104C80008091630190916401A0916501B0916601EA
:104C90008E8B9F8BA88FB98F809152039091530375
:104CA000A0915403B09155038E879F87A88BB98B31
:104CB00020E030E0A901C501B4010E94A8367501C9
:104CC0006401181624F0F7FAF094F7F8F09420E055
:104CD00030E0A9016E897F89888D998D0E94A83660
:104CE0004E885F88688C798C181624F077FA709457
:104CF00077F8709420E030E0A9016A857B858C8587
:104D00009D850E94A83618164CF08A859B85AC8537
:104D1000BD85B0588A879B87AC87BD87A301920168
:104D20006E857F85888999890E944934562E472E41
:104D3000382E292EC701B60190582E853F85488907
:104D400059890E9449343B018C01C0905C03D0908A
:104D50005D03E0905E03F0905F0320E030E0A90186
:104D6000C701B6010E94E333882309F4C4C320E0DD
:104D700030E0A901C701B6010E94A836A70196013B
:104D800018160CF0ACC3652D742D832D922D0E9446
:104D9000493420E030E0A9010E9494356B017C0188
:104DA000A7019601B301C8010E94A83618160CF499
:104DB000A6C3A7019601652D742D832D922D0E9407
:104DC000E33387FF04C0C52CD42CE32CF22CC09213
:104DD0005C03D0925D03E0925E03F0925F0320914A
:104DE00060033091610340916203509163036A85CF
:104DF0007B858C859D850E9449342E853F85488919
:104E000059890E9449341B018C012E853F854889B0
:104E100059896A857B858C859D8590580E94493487
:104E20002B013C019B01AC01B101C8010E94E3339D
:104E300087FD16C02A853B854C855D856E857F85FF
:104E4000888999890E9449342B013C019B01AC015E
:104E5000B101C8010E94A836181614F021013801CA
:104E600020E030E0A901C701B6010E94A83687FD05
:104E700004C08E889F88A88CB98C20915F013091E6
:104E80006001409161015091620160E070E080E852
:104E90009FE30E9493356A877B878C879D8720E0FC
:104EA00030E0A901C701B6010E94A836A70196010A
:104EB00018160CF050586A857B858C859D850E945C
:104EC00049346A877B878C879D8720E030E0A90181
:104ED000C501B4010E94A83618160CF013C327E1CF
:104EE00037EB41ED58E3C501B4010E9494359B01B5
:104EF000AC016A857B858C859D850E9400369B016F
:104F0000AC0160E070E080E89FE30E9493354B01C4
:104F10005C0120E030E0A9010E94A83618161CF0C0
:104F2000812C912C5401A5019401B201C3010E946E
:104F300049344B015C0120E030E040E85FEB0E9427
:104F4000E33387FDE8C220E030E040E85FE3C501DD
:104F5000B4010E94A836181634F4812C912C20E854
:104F6000A22E2FE3B22E8092600390926103A09252
:104F70006203B092630320E030E0A901C701B601EB
:104F80000E94E33387FF10C080915103882361F0B2
:104F9000B7FAB094B7F8B09480926003909261032E
:104FA000A0926203B092630380915B0190915C01D7
:104FB000A0915D01B0915E0188A399A3AAA3BBA3B0
:104FC0008090570190905801A0905901B0905A01DB
:104FD0008091530190915401A0915501B0915601D7
:104FE0008DA39EA3AFA3B8A740904F01509050014E
:104FF000609051017090520180914E01811192C2D6
:105000001A861E8A90E89E8FAFE3AF8F80914D0382
:1050100090914E03A0914F03B09150038A8F9B8FC4
:10502000AC8FBD8F20E030E0A901C301B2010E9426
:10503000A83618161CF0412C512C3201A301920104
:105040006A857E898E8D9F8D0E9449342B013C019B
:1050500020E030E0A9016DA17EA18FA198A50E945A
:10506000A836181624F01DA21EA21FA218A620E022
:1050700030E0A901C501B4010E94A83618161CF041
:10508000812C912C5401A50194016A857E898E8D15
:105090009F8D0E9449344B015C0120E030E0A90162
:1050A00068A179A18AA19BA10E94A836181624F0B4
:1050B00018A219A21AA21BA22A8D3B8D4C8D5D8DC0
:1050C000C701B6010E949335D62EC72E382E292E41
:1050D00020E030E0A9016A8D7B8D8C8D9D8D0E9432
:1050E000E333811128C2C501B40190582A893B8954
:1050F0004C895D890E9449347B018C012D2D3C2D0A
:10510000432D522D0E94A8361816B4F0A301920127
:105110006A897B898C899D890E9449347B018C0135
:105120002D2D3C2D432D522D0E94E33387FD04C0CD
:10513000ED2CFC2C032D122D9701A8016A8D7B8D7F
:105140008C8D9D8D0E9494352B011C01C201D101D3
:1051500080934D0390934E03A0934F03B09350035D
:1051600080904A0190904B01A0904C01B0904D016D
:10517000C0904601D0904701E0904801F09049016D
:105180008091600390916103A0916203B0916303E9
:1051900088A399A3AAA3BBA38091490390914A0332
:1051A000A0914B03B0914C038A8F9B8FAC8FBD8F26
:1051B00020E030E0A901C701B6010E94A836181608
:1051C0001CF0C12CD12C7601A70196016A857E893D
:1051D0008E8D9F8D0E9449346B017C0120E030E070
:1051E000A901C501B4010E94A83618161CF0812C33
:1051F000912C54012A8D3B8D4C8D5D8D68A179A138
:105200008AA19BA10E949335762E072F182F692E15
:1052100020E030E0A9016A8D7B8D8C8D9D8D0E94F0
:10522000E33381111FC22A893B894C895D89C701FB
:10523000B60190580E9449344B015C01272D302F54
:10524000412F562D0E94A8361816B4F0A7019601DA
:105250006A897B898C899D890E9449344B015C0154
:10526000272D302F412F562D0E94E33387FD04C098
:10527000872C902EA12EB62C9401A5016A8D7B8DD2
:105280008C8D9D8D0E9494355B018C01C501D801E8
:105290008093490390934A03A0934B03B0934C032C
:1052A00080915A03882309F449C0CE84DF84E888BA
:1052B000F988F7FAF094F7F8F0949201A101C70188
:1052C000B6010E94A83618160CF45DC29201A10125
:1052D0006E857F85888999890E94E33387FF04C0A2
:1052E0004E845F8428883988C201D10180934D03A0
:1052F00090934E03A0934F03B09350039501A801E0
:10530000C701B6010E94A836181684F09501A801BD
:105310006E857F85888999890E94E33365017801CC
:1053200087FF04C0CE84DF84E888F988C0924903EF
:10533000D0924A03E0924B03F0924C0380914803D1
:105340008823E1F0809145010E9463042091470386
:105350002817190629F4809166038F7E80936603CF
:10536000809144010E946304209147032817190685
:1053700029F48091660380618093660380914603DF
:10538000882311F1809143010E9463042091450319
:105390002817190609F0FAC180914403882321F0E7
:1053A0008091660385FF10C010924D0310924E034A
:1053B00010924F03109250031092490310924A0327
:1053C00010924B0310924C038091660383FF10C030
:1053D00010924D0310924E0310924F0310925003FF
:1053E0001092490310924A0310924B0310924C03FF
:1053F00084FF10C010924D0310924E0310924F0381
:10540000109250031092490310924A0310924B03DA
:1054100010924C038090490390904A03A0904B0354
:10542000B0904C0320E030E0A901C501B4010E9416
:10543000A83618160CF0B0C12FE632E143E85AE363
:10544000C501B4010E94A83687FFB1C1C0904D03C9
:10545000D0904E03E0904F03F090500320E030E0F6
:10546000A901C701B6010E94A83618160CF083C224
:105470002FE632E143E85AE3C701B6010E94A8369D
:1054800087FF95C160E098C12E3C3F4F0CF00CCBDC
:105490008D7F08CB8E3C9F4F0CF013CB8091660321
:1054A0008B7F0DCB80912E03882319F0109166031A
:1054B00011708091660310FB83F93ACBC12CD12C7B
:1054C0007601C2CB80E090E0A0E8BFE38093520376
:1054D00090935303A0935403B0935503BDCBB301F2
:1054E000C8010E9449349B01AC0160E070E0CB012F
:1054F0000E94933553CCC12CD12C760151CC630141
:10550000780165CCA501940167E177EB81ED98E323
:105510000E949335ECCC812C912C90E8A92E9FEB26
:10552000B92E21CDBE85BA87EF85EE8BF889FE8F27
:1055300029892F8F6BCD20E030E0A9016A8D7B8D0A
:105540008C8D9D8D0E94A83618160CF047C02DA199
:105550003EA14FA158A56A857E898E8D9F8D0E94A0
:10556000493490582A893B894C895D890E94493485
:105570007B018C012D2D3C2D432D522D0E94A836F0
:105580001816B4F0A30192016A897B898C899D89E0
:105590000E9449347B018C012D2D3C2D432D522D31
:1055A0000E94E33387FD04C0ED2CFC2C032D122D4B
:1055B0009701A8016A8D7B8D8C8D9D8D0E949435FD
:1055C0002B011C0120E030E0A9010E94E33387FF9A
:1055D000BDCD412C512C212C312CB8CDC501B401AD
:1055E00090582A893B894C895D890E9449347B0106
:1055F0008C012D2D3C2D432D522D0E94A8361816BE
:10560000F4F028A139A14AA15BA16A857E898E8D1B
:105610009F8D0E9449342A893B894C895D890E946B
:1056200049347B018C012D2D3C2D432D522D0E94A0
:10563000E33387FD04C0ED2CFC2C032D122D9701C4
:10564000A8016A8D7B8D8C8D9D8D0E9494352B01D8
:105650001C0120E030E0A9010E94A83618160CF4C5
:10566000B8CF74CDA50194016A857E898E8D9F8DFA
:105670000E9449344B015C0120E030E0A9016A8DB1
:105680007B8D8C8D9D8D0E94A83618160CF03FC026
:10569000C501B40190582A893B894C895D890E94D3
:1056A00049344B015C01272D302F412F562D0E948C
:1056B000A8361816B4F0A70196016A897B898C89EF
:1056C0009D890E9449344B015C01272D302F412FC9
:1056D000562D0E94E33387FD04C0872C902EA12E07
:1056E000B62C9401A5016A8D7B8D8C8D9D8D0E94B9
:1056F00094355B018C0120E030E0A9010E94E33386
:1057000087FFC4CDA12CB12C00E010E0BFCDC701B4
:10571000B60190582A893B894C895D890E94493499
:105720006B017C01272D302F412F562D0E94A8366A
:105730001816B4F0A50194016A897B898C899D892A
:105740000E9449346B017C01272D302F412F562DAB
:105750000E94E33387FD04C0C72CD02EE12EF62C27
:105760009601A7016A8D7B8D8C8D9D8D0E9494354D
:105770005B018C0120E030E0A9010E94A8361816D8
:105780000CF4C0CF83CD26011701AECD8091660306
:1057900080628093660318CE2FE632E143E85AEB2D
:1057A000C501B4010E94E33318160CF44FCE9CA13E
:1057B000992309F4ECC061E08DE00E948C04A09173
:1057C0004101B0914201BF87AE87E0913F01F09166
:1057D0004001FB87EA8720903D0130903E012091F7
:1057E0003B0130913C013B8B2A8BE0903901F090DA
:1057F0003A01009137011091380180914D03909149
:105800004E03A0914F03B09150038E8B9F8BA88FB6
:10581000B98F9C01AD01C501B4010E9494352B01E3
:105820003C0120E030E0A9010E94E3338111BEC0B9
:10583000B801012E000C880B990B0E94EA330E94DC
:105840007236AB012A893B8937FF03C03195219518
:105850003109F801E21BF30B4E175F073CF0F8012A
:10586000E20FF31F4E175F070CF4FB01F0934303A5
:10587000E0934203A50194016E897F89888D998DFB
:105880000E9493356B017C0120E030E0A9010E9469
:10589000E3338111DBC0B101032C000C880B990BA1
:1058A0000E94EA330E947236AB012E853F8537FF96
:1058B00003C0319521953109F101E21BF30B4E171D
:1058C0005F073CF0F101E20FF31F4E175F070CF486
:1058D000FB01F0934103E09340030E9463056B01D9
:1058E0007C013CA1332341F088EBC8168BE0D8063D
:1058F000E104F10408F043C180913701909138012F
:10590000909343038093420380913D0190913E0127
:10591000909341038093400300913501109136012B
:10592000101611061CF091E09093640380906D03B3
:1059300090906E03A0906F03B090700320E030E071
:10594000A901C501B4010E94A83618160CF0D1C0F7
:105950002FE632E143E85AE3C501B4010E94E33384
:1059600087FDD2C010923C0310923D0310923E037B
:1059700010923F0304C12FE632E143E85AEBC7011E
:10598000B6010E94E33318160CF47CCD10CF0E94B0
:10599000630526E930E040E050E00E9462356B3458
:1059A00071058105910508F406CF6CCD20E030E04B
:1059B000A901C301B2010E94A836181614F5B70157
:1059C000600F711F072E000C880B990B0E94EA33A1
:1059D0006B017C016A897B89600F711F072E000CA7
:1059E000880B990B0E94EA33A70196010E94933518
:1059F000A30192010E944934A70196010E949435A7
:105A00001ECFB8016E197F09072E000C880B990B69
:105A10000E94EA336B017C01B801AA89BB896A1B29
:105A20007B0B072E000C880B990B0E94EA33A70111
:105A300096010E949335A30192010E9449349B0173
:105A4000AC01C701B6010E949335F9CE20E030E0E9
:105A5000A901C701B6010E94A83618161CF56A856F
:105A60007B85620D731D072E000C880B990B0E941D
:105A7000EA334B015C016E857F85620D731D072E35
:105A8000000C880B990B0E94EA33A50194010E9437
:105A90009335A70196010E944934A50194010E9403
:105AA000943500CFB101EA85FB856E1B7F0B072E75
:105AB000000C880B990B0E94EA334B015C01B10189
:105AC0002E853F85621B730B072E000C880B990BEC
:105AD0000E94EA33A50194010E949335A701960123
