:100000000C9418040C9440040C9440040C940216B4
:100010000C94A2150C9434150C941E170C944004E7
:100020000C9440040C9440040C9440040C9462160C
:100030000C9440040C9440040C9440040C94400430
:100040000C9492140C9440040C9402150C94DC143F
:100050000C9440040C9440040C9440040C94400410
:100060000C9440040C9440044E414E494E4954595E
:10007000494E46CDCCCC3D0AD7233C17B7D1387773
:10008000CC2B329595E6241FB14F0A000020410089
:1000900000C84200401C4620BCBE4CCA1B0E5AAED3
:1000A000C59D7400407A10F35A00A0724E180900E2
:1000B00010A5D4E80000E87648170000E40B5402CD
:1000C0000000CA9A3B000000E1F505000080969808
:1000D00000000040420F000000A086010000001058
:1000E0002700000000E8030000000064000000009A
:1000F000000A00000000000100000000002C76D87B
:1001000088DC674F0823DFC1DFAE59E1B1B796E560
:10011000E3E453C63AE651997696E8E6C28426EBC4
:10012000898C9B62ED407C6FFCEFBC9C9F40F2BAD7
:10013000A56FA5F490055A2AF75C936B6CF9676D6F
:10014000C11BFCE0E40D47FEF520E6B500D0ED90C4
:100150002E0300943577050080841E080000204E91
:100160000A000000C80C333333330F986E1283112A
:1001700041EF8D2114893BE65516CFFEE6DB18D101
:10018000844B381BF77C1D901DA4BBE424203284D3
:10019000725E228100C9F124ECA1E53D272243488B
:1001A00045434B53554D223A005D2C002C002C004A
:1001B000223A5B002244524956455F425554544FFF
:1001C0004E5F004A4F595F43414C49425F434F5590
:1001D0004E540052494748545F4D4F544F525F5060
:1001E000554C5345004C4546545F4D4F544F525F5C
:1001F00050554C53450053504545445F4B4E4F427C
:100200005F464153545F56414C0053504545445F4F
:100210004B4E4F425F534C4F575F56414C00524933
:100220004748545F4D4F544F525F4641535400521C
:10023000494748545F4D4F544F525F534C4F5700FE
:1002400052494748545F4D4F544F525F43454E54B7
:100250004552004C4546545F4D4F544F525F464106
:100260005354004C4546545F4D4F544F525F534CCE
:100270004F57004C4546545F4D4F544F525F4345D6
:100280004E544552005343414C455F5455524E49DC
:100290004E475F5748454E5F4D4F56494E470054B5
:1002A00055524E5F535045454400464153544553C3
:1002B000545F4241434B57415244004641535445D9
:1002C00053545F464F525741524400444543454CB6
:1002D00045524154494F4E5F5455524E494E470086
:1002E000414343454C45524154494F4E5F5455524A
:1002F0004E494E4700444543454C45524154494FB1
:100300004E5F4241434B5741524400414343454CA9
:1003100045524154494F4E5F4241434B574152442D
:1003200000444543454C45524154494F4E5F464F6A
:10033000525741524400414343454C455241544970
:100340004F4E5F464F525741524400595F4445411A
:10035000445A4F4E4500434F4E54524F4C5F444F0A
:10036000574E00434F4E54524F4C5F43454E5445F9
:10037000525F5900434F4E54524F4C5F55500058F6
:100380005F444541445A4F4E4500434F4E54524FEF
:100390004C5F4C45465400434F4E54524F4C5F43C4
:1003A000454E5445525F5800434F4E54524F4C5F98
:1003B00052494748540063757272656E74207365C4
:1003C0007474696E67732C2076657273696F6E3A08
:1003D000007B00000000006410B71DC8206E3BAC1D
:1003E00030D9269041DC76F4516B6B5861B24D3CAC
:1003F0007105502083B8ED44930FF0E8A3D6D68C56
:10040000B361CBB0C2649BD4D2D38678E20AA01C7D
:10041000F2BDBD7B226572726F72223A2022656541
:1004200070726F6D206661696C757265227D007BEC
:10043000226572726F72223A2022656570726F6D4A
:10044000206661696C757265227D002276616C752B
:1004500065223A2022002273657474696E67223A1D
:100460002022007B22726573756C74223A2022630D
:1004700068616E676522007B22726573756C7422F9
:100480003A20226E6F206368616E6765227D007B73
:1004900022726573756C74223A202273746F7070C7
:1004A0006564227D007B22726573756C74223A202C
:1004B000226D6F76656D656E7420616C6C6F77650B
:1004C00064227D007B22726573756C74223A20224F
:1004D0007361766564227D00424148004642004EC9
:1004E0004200554F42004E53550053504800535060
:1004F0000055535300414200524D004E525300529A
:100500005050005243500052545000525350005526
:1005100052005354454552494E475F4F46465F533C
:1005200057495443485F50494E005354454552493A
:100530004E475F4F46465F53574954434800227623
:10054000616C7565223A5B002273657474696E672D
:10055000223A2022007B22726573756C74223A2045
:10056000226368616E676522004E554D5F445249B3
:1005700056455F425554544F4E5300425341480034
:10058000425554544F4E5F4D4F44455F50494E00C5
:10059000424D54005553455F425554544F4E5F4DA4
:1005A0004F44455F50494E00454E41424C455F42E5
:1005B0005554544F4E5F4354524C0053544152547F
:1005C0005F4D4F544F525F50554C53455F54494D0A
:1005D0004500454E41424C455F535441525455509D
:1005E0005F50554C53450052494748545F4D4F5456
:1005F0004F525F434F4E54524F4C4C45525F5049FF
:100600004E004C4546545F4D4F544F525F434F4E42
:1006100054524F4C4C45525F50494E004A4F595F1F
:10062000595F50494E004A4F595F585F50494E003C
:1006300053504545445F4B4E4F425F50494E005327
:1006400043414C455F414343454C5F574954485FE4
:100650005350454544005553455F53504545445F0D
:100660004B4E4F4200524556455253455F545552EA
:100670004E5F494E5F5245564552534500A8039779
:10068000038A037F037403630356034B033603217A
:10069000030B03F502E002CB02BB02AA029F028514
:1006A00002650673026302530240022F021E0256C5
:1006B000060A02F6013F06300626061C060206E779
:1006C00005D205E501D301BB05C301A8059405903A
:1006D0000580057B0569052A051205F104EE04EA8B
:1006E00004E604E204DF04DC04D8040F050B05076C
:1006F00005FF040305FB04F804F5042C22434845D8
:10070000434B53554D223A0022625F6D5F70223A8F
:1007100000627574746F6E73006A6F794F4B006D71
:100720006F76656D656E74416C6C6F776564007390
:10073000706565644B6E6F6256616C0072696768C4
:10074000744D6F746F72577269746556616C006C8A
:100750006566744D6F746F72577269746556616C1B
:10076000007370656564546F4472697665007475D2
:10077000726E546F4472697665007370656564507B
:10078000726F636573736564007475726E50726F17
:10079000636573736564007370656564496E707535
:1007A00074007475726E496E707574006A6F795951
:1007B00056616C006A6F795856616C00637572728D
:1007C000656E742076616C7565732C206D696C6C38
:1007D00069733A0000000000240027002A0000008E
:1007E0000000250028002B00000000002300260048
:1007F00029000404040404040404020202020202A4
:1008000003030303030301020408102040800102D4
:100810000408102001020408102000000008000253
:1008200001000003040700000000000000003B1866
:1008300011241FBECFEFD8E0DEBFCDBF12E0A0E095
:10084000B1E0EAECF3E702C005900D92AC3DB107D0
:10085000D9F724E0ACEDB2E001C01D92AB39B2078C
:10086000E1F714E0C8E1D4E004C02197FE010E9442
:100870000F37C731D107C9F70E94B2180C94E3397A
:100880000C940000833081F028F4813099F082309C
:10089000A9F008958730A9F08830C9F08430B1F408
:1008A000809180008F7D03C0809180008F7780933E
:1008B0008000089584B58F7784BD089584B58F7DB9
:1008C000FBCF8091B0008F778093B0000895809126
:1008D000B0008F7DF9CFCF93DF93282F30E0F9015F
:1008E000E65EF74F8491F901EA5FF74FD491F90181
:1008F000EE50F84FC491CC23A1F081110E94420424
:10090000EC2FF0E0EE0FFF1FE851F84FA591B491E6
:10091000EC91ED2381E090E009F480E0DF91CF914C
:10092000089580E090E0FACF1F93CF93DF93282FB4
:1009300030E0F901E65EF74F8491F901EA5FF74F85
:10094000D491F901EE50F84FC491CC23A9F0162FA1
:1009500081110E944204EC2FF0E0EE0FFF1FE252E3
:10096000F84FA591B4918FB7F894EC91111108C08C
:10097000D095DE23DC938FBFDF91CF911F91089537
:10098000DE2BF8CFCF93DF9390E0FC01EA5FF74FC7
:1009900024918E50984FFC0184918823C9F090E0F7
:1009A000880F991FFC01EC52F84FA591B491FC01FE
:1009B000E252F84FC591D49161110DC09FB7F894E0
:1009C0008C91209582238C938881282328839FBF34
:1009D000DF91CF910895623051F49FB7F8943C9124
:1009E000822F809583238C93E8812E2BEFCF8FB7B6
:1009F000F894EC912E2B2C938FBFEACF8E3008F019
:100A00008E508770806480937C0080917A0080642F
:100A100080937A0080917A0086FDFCCF80917800E7
:100A20009091790008953FB7F8948091CB0390910D
:100A3000CC03A091CD03B091CE0326B5A89B05C0F1
:100A40002F3F19F00196A11DB11D3FBFBA2FA92F4D
:100A5000982F8827BC01CD01620F711D811D911D4A
:100A600042E0660F771F881F991F4A95D1F70895B6
:100A70008F929F92AF92BF92CF92DF92EF92FF92AE
:100A80006B017C010E9413054B015C01C114D10470
:100A9000E104F104B9F00E941305681979098A0983
:100AA0009B09683E73408105910580F321E0C21ADD
:100AB000D108E108F10888EE880E83E0981EA11C99
:100AC000B11CE4CFFF90EF90DF90CF90BF90AF903C
:100AD0009F908F9008952FB7F8946091C7037091FD
:100AE000C8038091C9039091CA032FBF0895AF92A4
:100AF000BF92CF92DF92EF92FF920F931F93CF930B
:100B0000DF936C017B018B01040F151FEB015E016C
:100B1000AE18BF08C017D10759F06991D601ED9101
:100B2000FC910190F081E02DC6010995892B79F7A0
:100B3000C501DF91CF911F910F91FF90EF90DF9052
:100B4000CF90BF90AF900895FC01538D448D252F19
:100B500030E0842F90E0821B930B541710F0CF9657
:100B6000089501970895FC01918D828D981761F089
:100B7000A28DAE0FBF2FB11D5D968C91928D9F5FA0
:100B80009F73928F90E008958FEF9FEF0895FC017F
:100B9000918D828D981731F0828DE80FF11D858D32
:100BA00090E008958FEF9FEF0895FC01918D228DC5
:100BB000892F90E0805C9F4F821B91098F7399274A
:100BC00008958FEC93E00E94D50521E0892B09F46C
:100BD00020E0822F089580E090E0892B29F00E9488
:100BE000E10581110C9400000895FC01A48DA80F6B
:100BF000B92FB11DA35ABF4F2C91848D90E001965F
:100C00008F739927848FA689B7892C93A089B1897E
:100C10008C91837080648C93938D848D981306C01F
:100C20000288F389E02D80818F7D80830895EF9283
:100C3000FF920F931F93CF93DF93EC0181E0888F96
:100C40009B8D8C8D98131AC0E889F989808185FF66
:100C500015C09FB7F894EE89FF896083E889F98908
:100C600080818370806480839FBF81E090E0DF910A
:100C7000CF911F910F91FF90EF900895F62E0B8D5D
:100C800010E00F5F1F4F0F731127E02E8C8D8E1118
:100C90000CC00FB607FCFACFE889F989808185FF7F
:100CA000F5CFCE010E94F505F1CFEB8DEC0FFD2FB6
:100CB000F11DE35AFF4FF0829FB7F8940B8FEA893A
:100CC000FB8980818062CFCF0F931F93CF93DF93F7
:100CD0008C01D0E0C0E0F801EC0FFD1F64916623A9
:100CE00041F08FEC93E00E941706892B11F02196BA
:100CF000F2CFCE01DF91CF911F910F910895CF9345
:100D0000DF93EC01888D8823B9F0AA89BB89E88933
:100D1000F9898C9185FD03C0808186FD0DC00FB6D9
:100D200007FCF7CF8C9185FFF2CF808185FFEDCF57
:100D3000CE010E94F505E9CFDF91CF910895089586
:100D4000DC01EC91EC3090F511968C91119728E82C
:100D500030E0281B310987FD3395220F331F220F06
:100D6000331F6217730784F012968C9128E532E0E6
:100D7000281B310987FD3395220F331F220F331FA4
:100D8000621773070CF49B0122503109220F331FA5
:100D90004FB7F8948E2F90E0FC01EE0FFF1FE80F85
:100DA000F91FE459FB4F328321834FBF08951F93EE
:100DB000CF93DF93EC01162F88818C3008F04EC062
:100DC00061E0812F0E94C2048881282F30E0F90160
:100DD000EE0FFF1FE20FF31FE459FB4F1F736081FB
:100DE000607C612B608319821A822CE0622F0E9442
:100DF0000337829FB001112430E020E0AB01420FA5
:100E0000531FFA01EE0FFF1FE40FF51FE459FB4FCC
:100E1000908196FD16C02F5F3F4F2C30310571F742
:100E200081110FC01092800082E0809381001092A7
:100E3000850010928400B19A80916F008260809347
:100E40006F00E8818E2F90E0FC01EE0FFF1FE80F8E
:100E5000F91FE459FB4F8081806480838881DF9192
:100E6000CF911F9108950F931F93E42FE627EF7002
:100E700024E0E29FF0011124ED52FC4F0591159101
:100E80002591349154E096958795779567955A9575
:100E9000D1F76027712782279327E42FE295EF701F
:100EA000E627EF7024E0E29FF0011124ED52FC4FA1
:100EB0000591159125913491E4E096958795779564
:100EC0006795EA95D1F760277127822793271F91AD
:100ED0000F9108950E94640620917F033091800352
:100EE000820F931F9093800380937F0308952F9226
:100EF0003F924F925F926F927F928F929F92AF92AA
:100F0000BF92CF92DF92EF92FF920F931F93CF93F6
:100F1000DF93EC016A01790117FF02C010E000E0E5
:100F20006E157F050CF019C11601201A310AC21581
:100F3000D3050CF093C0621573050CF08FC0072E1B
:100F4000000C880B990B0E943B344B015C01BE01E5
:100F50000D2E000C880B990B0E943B34A5019401C7
:100F60000E94E4352B013C01B101330C880B990B35
:100F70000E943B34A50194010E94E4359B01AC0121
:100F8000C301B2010E94513620E030E040E85FE347
:100F90000E94E4354B015C010C0D1D1D0C171D0753
:100FA0009CF50E151F0584F5B701FF0C880B990BF6
:100FB0000E943B346B017C01BE01DD0F880B990B55
:100FC0000E943B34A70196010E94E4354B015C016D
:100FD000B7FAB094B7F8B094B801110F880B990B19
:100FE0000E943B34A70196010E94E4359B01AC01AD
:100FF000C501B4010E94513620E030E040E85FE3D3
:101000000E94E5354B015C0120E030E040E85FEBF9
:10101000C501B4010E94343487FD91C020E030E066
:1010200040E85FE3C501B4010E94F93618160CF4DC
:101030008DC0C501B401DF91CF911F910F91FF9039
:10104000EF90DF90CF90BF90AF909F908F907F9068
:101050006F905F904F903F902F900895812C912C2E
:1010600054019ACF18012C0C3D1C2C163D060CF097
:1010700062C0261637060CF05EC0072E000C880BE7
:10108000990B0E943B344B015C01BE010D2E000CFC
:10109000880B990B0E943B34A50194010E94E43512
:1010A0002B013C01B101330C880B990B0E943B349E
:1010B000A50194010E94E4359B01AC01C301B2017A
:1010C0000E94513620E030E040E85FE30E94E435C2
:1010D0004B015C01C01AD10ACC15DD050CF094CF90
:1010E000EC14FD040CF090CFB701FF0C880B990BAA
:1010F0000E943B344B015C01BE01DD0F880B990B54
:101100000E943B34A50194010E94E4352B013C016F
:1011100077FA709477F87094B601DD0C880B990B10
:101120000E943B34A50194010E94E4359B01AC016F
:10113000C301B2015FCF812C912C5401CBCF812C04
:10114000912C90E8A92E9FEBB92E73CF812C912C76
:1011500080E8A82E8FE3B82E6CCFE616F7060CF4C5
:1011600081CF812C912C540164CFAF92BF92CF924A
:10117000DF92EF92FF920F931F93CF93DF9398E24A
:10118000A92E91E0B92E2CE2E22E21E0F22E85016B
:1011900062E0D8018D918D010E94C204E016F10633
:1011A000B9F7EEEBF1E086ECC82E81E0D82E41E0F5
:1011B00050E021913191E50189915E01863188F5F8
:1011C00090E1883050F091E08E3008F490E0990F73
:1011D000990F990F8E3018F58850890FA82FA69572
:1011E000A695A69509F081C081111DC0309301011B
:1011F000209300018A0101C0000F8A95EAF7202F91
:101200008091E002802B8093E0028091DD02802BB0
:101210008093DD0283B18093E30280E030C08E5082
:10122000DCCF8FEFDBCF813029F4309303012093A3
:101230000201E0CF823009F042C0309305012093D3
:10124000040187708A0101C0000F8A95EAF7202FF8
:101250008A2F90E0BC0160527D4FEB013881302B2A
:101260003883BC0163527D4FEB013881302B3883CA
:10127000A13009F454C070F2A23009F493C0B0E078
:10128000A559BF4F9C91292B2C93909168009A01EE
:1012900001C0220F8A95EAF7892F822B809368007C
:1012A000CE16DF0609F085CFDF91CF911F910F9108
:1012B000FF90EF90DF90CF90BF90AF900895833074
:1012C00029F43093070120930601BBCF843029F421
:1012D0003093090120930801B4CF853009F08ACFFB
:1012E00030930B0120930A01ACCFA13009F040C02C
:1012F0008830D9F430930D0120930C0187708A0156
:1013000001C0000F8A95EAF7202F8091E102802B1F
:101310008093E1028091DE02802B8093DE0286B111
:101320008093E40281E090E0AACF893029F43093E1
:101330000F0120930E01E2CF8A3029F4309311017E
:1013400020931001DBCF8B3029F4309313012093CD
:10135000120177CF8C3029F43093150120931401BA
:1013600070CF8D3059F6309317012093160169CF55
:10137000A23009F095CF8031D9F430932101209328
:10138000200187708A0101C0000F8A95EAF7202F9B
:101390008091E202802B8093E2028091DF02802B19
:1013A0008093DF0289B18093E50282E090E067CF0D
:1013B000813129F43093230120932201E2CF82313D
:1013C00029F43093250120932401DBCF833129F4C4
:1013D0003093270120932601D4CF843129F4309310
:1013E000190120931801CDCF853129F430931B01C9
:1013F00020931A0126CF863129F430931D012093C2
:101400001C011FCF873109F0BCCF30931F012093FF
:101410001E0117CFCF92DF92EF92FF920F931F938F
:10142000CF93DF93C82FD0E0FE01E85DFE4F8081AF
:101430000E946B048E01000F111F000F111F0197F6
:10144000E1F40E941305F801E659FC4F60837183B3
:10145000828393830E946B0560937A0370937B036E
:1014600080937C0390937D03DF91CF911F910F9127
:10147000FF90EF90DF90CF9008950E9413050659DA
:101480001C4FF801C080D180E280F3806C197D0987
:101490008E099F09613771418140910528F70E94AB
:1014A0001305F8010081118122813381601B710BCA
:1014B000820B930B8B019C01055F114021093109BF
:1014C0000F3C17402105310578F6683E23E072078E
:1014D0007CF0613D47E0740714F060ED77E06C5DEF
:1014E0007540CC0FDD1FCE59DC4F79836883BCCFAC
:1014F0006CE07EEFF6CF83E00C940A0A82E00C9455
:101500000A0A81E00C940A0A80E00C940A0AFC01A1
:1015100001900020E9F73197AF01481B590BBC013E
:101520008FEC93E00C9477058F929F92AF92BF92CD
:101530000F931F93CF93DF93CDB7DEB7A1970FB66D
:10154000F894DEBF0FBECDBF19A2423008F44AE0C6
:101550008E010F5D1F4F842E912CB12CA12CA50163
:1015600094010E94B335E62FB901CA01EA30F4F4C0
:10157000E05DD801EE938D01232B242B252B79F7E9
:1015800090E080E0109719F0CD010E94870AA196A3
:101590000FB6F894DEBF0FBECDBFDF91CF911F9184
:1015A0000F91BF90AF909F908F900895E95CE1CF2D
:1015B000CF92DF92EF92FF92CF93DF936B017C018A
:1015C0006DE28FEC93E00E941706EC016627772707
:1015D000CB016C197D098E099F094AE00E94940A8B
:1015E0008C0F9D1FDF91CF91FF90EF90DF90CF90F8
:1015F0000895009711F00C94870A90E080E0089518
:10160000CF93DF930E946406EC018DE492E00E9488
:10161000870A8C0F9D1FDF91CF910895CF93DF93A1
:101620000E94870AEC018DE492E00E94870A8C0FE9
:101630009D1FDF91CF9108950F931F93CF938C013E
:10164000C62F80917F03909180030396909380032F
:1016500080937F0386ED92E00E94F90AC8010E9400
:10166000640620917F0330918003820F931F909333
:10167000800380937F0380E592E00E94F90A83E56E
:1016800092E0C11102C08AE592E00E94870A20918F
:101690007F0330918003820F931F90938003809388
:1016A0007F03CF911F910F9108950F931F93CF93B5
:1016B000DF938C01EB0180917F039091800305966D
:1016C0009093800380937F0386ED92E00E94F90A55
:1016D000C8010E94640620917F0330918003820F2D
:1016E000931F9093800380937F0380E592E00E9494
:1016F000F90ABE01DD0F880B990B97FF14C00E94F9
:10170000D80A20917F0330918003820F931F90931A
:10171000800380937F0380EC92E0DF91CF911F9153
:101720000F910C94F90A4AE00E94940AEACFBC0196
:10173000990F880B990B97FD0C94D80A4AE00C94EA
:10174000940A4F925F926F927F928F929F92AF9284
:10175000BF92CF92DF92EF92FF920F931F93CF939E
:101760006B017C01742EAC019B010E94FE36882324
:1017700099F082E692E0CF911F910F91FF90EF9048
:10178000DF90CF90BF90AF909F908F907F906F90A1
:101790005F904F900C94870A46015701E894B7F880
:1017A0002FEF3FEF4FE75FE7C501B4010E94FE3620
:1017B00081110DC02FEF3FEF4FE75FE7C501B40187
:1017C0000E94343418161CF486E692E0D4CF2FEF32
:1017D0003FEF4FE75FE4C701B6010E94F9361816E4
:1017E0001CF48AE692E0C7CF2FEF3FEF4FE75FECA4
:1017F000C701B6010E94343487FDF3CF20E030E00A
:10180000A901C701B6010E94343410E000E087FF4F
:101810000AC06DE28FEC93E00E9417068C01F7FA84
:10182000F094F7F8F094C0E060E070E080E09FE3AF
:101830007C1641F020E030E040E251E40E94513655
:10184000CF5FF6CFA70196010E94E5352B013C0141
:101850000E94CA364B015C014AE00E94940A7C0156
:10186000E00EF11ECC23C1F1C501B4010E94393450
:101870009B01AC01C301B2010E94E4354B015C0144
:101880006EE28FEC93E00E941706E80EF91EC1503D
:1018900018F120E030E040E251E4C501B4010E94BB
:1018A0009A342B013C010E94CA364B01B12CA12C69
:1018B0004AE0C501B4010E94940AE80EF91EC50170
:1018C000B4010E9439349B01AC01C301B2010E94F2
:1018D000E4354B015C01DBCFC701CF911F910F9124
:1018E000FF90EF90DF90CF90BF90AF909F908F9040
:1018F0007F906F905F904F900895CF92DF92EF921C
:10190000FF92CF93DF93EC016A017B0180917F030B
:101910009091800305969093800380937F0386EDDA
:1019200092E00E94F90ACE010E94640620917F0392
:1019300030918003820F931F9093800380937F03E5
:1019400080E592E00E94F90A44E0C701B6010E94D6
:10195000A10B20917F0330918003820F931F9093FE
:10196000800380937F0380EC92E00E94F90A8FEC61
:1019700093E0DF91CF91FF90EF90DF90CF900C94A8
:101980007F060F931F93CF93DF9382E090E09093B5
:10199000800380937F0381ED93E00E94640664E1FD
:1019A00070E086EB93E00E94550B6091B801709156
:1019B000B90188EA93E00E94550B6091B6017091DD
:1019C000B70187E993E00E94550B6091B4017091D3
:1019D000B5018AE893E00E94550B6091BA017091BD
:1019E000BB018FE793E00E94550B6091B0017091AD
:1019F000B10184E793E00E94550B6091AE017091B4
:101A0000AF0183E693E00E94550B6091AC017091A9
:101A1000AD0186E593E00E94550B6091B201709193
:101A2000B3018BE493E00E94550B40914F0150911C
:101A30005001609151017091520186E393E00E9440
:101A40007D0C40915301509154016091550170916A
:101A5000560181E293E00E947D0C40915701509124
:101A600058016091590170915A018BE093E00E94F6
:101A70007D0C40915B0150915C0160915D01709122
:101A80005E0185EF92E00E947D0C409146015091ED
:101A90004701609148017091490180EE92E00E94F7
:101AA0007D0C40914A0150914B0160914C01709125
:101AB0004D018BEC92E00E947D0C409163015091AE
:101AC000640160916501709166018BEB92E00E9468
:101AD0007D0C40916701509168016091690170919E
:101AE0006A018AEA92E00E947D0C40916B0150915C
:101AF0006C0160916D0170916E018FE992E00E941E
:101B00007D0C40915F015091600160916101709185
:101B1000620185E892E00E947D0C60919C0385E65D
:101B200096E00E941C0B609137017091380183E7A9
:101B300092E00E94550B6091390170913A0183E661
:101B400092E00E94550B60913B0170913C0183E54E
:101B500092E00E94550B60913D0170913E0180E43E
:101B600092E00E94550B60913F01709140018FE21D
:101B700092E00E94550B60914101709142018EE10B
:101B800092E00E94550B6091A50386E596E00E94C5
:101B90001C0B60917001709171018AE092E00E94CB
:101BA000550B6091A3037091A40386EF91E00E940E
:101BB000550B60914E018FE396E00E941C0B6091E3
:101BC0006F0170E080E396E00E94550B6091BD01CB
:101BD00070E086E296E00E94550B6091BC0170E0D7
:101BE0008CE196E00E94550B60912E0170E082E03E
:101BF00096E00E94550B60912D0170E087EE95E014
:101C00000E94550B60912C0182ED95E00E941C0B07
:101C1000609133017091340185EE91E00E94550B83
:101C2000609131017091320183ED91E00E94550B7A
:101C300060912F01709130018BEB95E00E94550B64
:101C4000609135017091360183EC91E00E94550B53
:101C50006091B50388EA95E00E941C0B6091B00387
:101C600084E995E00E941C0B6091AB0170E080E874
:101C700095E00E94550B6091B40380E995E00E94C5
:101C80001C0B6091B3038BE795E00E941C0B6091E5
:101C9000A90185EF94E00E941C0B6091AA0170E0FD
:101CA00089E695E00E94550BC3E7D1E001E010E022
:101CB00084EB91E00E946A07C8010E94970B209173
:101CC0007F0330918003820F931F90938003809352
:101CD0007F0380EB91E00E946A07688170E090E0EA
:101CE00080E04AE00E94940A20917F0330918003B3
:101CF000820F931F9093800380937F038EEA91E07D
:101D00000E946A0769817A818B819C8144E00E94EC
:101D1000A10B20917F0330918003820F931F90933A
:101D2000800380937F038CEA91E00E946A076D81B3
:101D30007E818F81988544E00E94A10B20917F03D2
:101D400030918003820F931F9093800380937F03D1
:101D500089EA91E00E946A070F5F1F4F29960730BA
:101D6000110509F0A5CF6091A6038AE295E00E94D3
:101D70001C0B6091720170E082E195E00E94550BAE
:101D800060917E038FE095E00E941C0B609128011A
:101D900070E08BE095E00E94550B6091290170E0A6
:101DA00087E095E00E94550B60912A0170E083E086
:101DB00095E00E94550B60912B0170E08FEF94E04D
:101DC0000E94550B609160038BEF94E00E941C0B06
:101DD0006091610370E088EF94E00E94550B609180
:101DE000910381EF94E00E941C0B6091430170E02D
:101DF0008EEE94E00E94550B609190038AEE94E081
:101E00000E941C0B60918F0386EE94E00E941C0BD5
:101E10006091930382EE94E00E941C0B6091450157
:101E200070E08FED94E00E94550B6091440170E0EA
:101E30008CED94E00E94550B6091920388ED94E044
:101E40000E941C0B8DE991E00E946A0780917F033C
:101E50009091800304960E94970B84EC92E0DF91AE
:101E6000CF911F910F910C940E0B6EE672E08111D1
:101E700002C063E772E088E093E00C943B370C9477
:101E80006335CF92DF92EF92FF920F931F93CF9320
:101E9000DF93EC018B01C090E602D090E702E09066
:101EA000E802F090E902FB016081888199810E943B
:101EB0003F0F88819981F801608188539F4F0E946C
:101EC0003F0F88819981F801608180579E4F0E9461
:101ED0003F0FF8014081C701B6010E9433072881F6
:101EE00039812F5F3F4F398328836093E6027093D7
:101EF000E7028093E8029093E902DF91CF911F916E
:101F00000F91FF90EF90DF90CF900895AF92BF9226
:101F1000CF92DF92EF92FF920F931F93CF93DF93B5
:101F20008C01EB01C090E602D090E702E090E8025D
:101F3000F090E9025B0184E0A80EB11C6881F80111
:101F4000808191810E943F0FF80180819181688199
:101F500088539F4F0E943F0FF801808191816881D3
:101F600080579E4F0E943F0F4991C701B6010E94C2
:101F700033076B017C01F801808191810196918387
:101F80008083AC16BD06D1F6C092E602D092E7027D
:101F9000E092E802F092E902DF91CF911F910F9158
:101FA000FF90EF90DF90CF90BF90AF900895AF92E9
:101FB000BF92CF92DF92EF92FF920F931F93CF9336
:101FC000DF938C01EB01C090E602D090E702E09035
:101FD000E802F090E9025B0182E0A80EB11C688182
:101FE000F801808191810E943F0FF80180819181E9
:101FF000688188539F4F0E943F0FF8018081918133
:10200000688180579E4F0E943F0F4991C701B601DA
:102010000E9433076B017C01F80180819181019658
:1020200091838083AC16BD06D1F6C092E602D092B1
:10203000E702E092E802F092E902DF91CF911F916E
:102040000F91FF90EF90DF90CF90BF90AF900895E9
:10205000CF92DF92EF92FF920F931F93CF93DF9374
:10206000EC018B01C090E602D090E702E090E8021C
:10207000F090E902FB016081888199810E943F0F05
:1020800088819981F801608188539F4F0E943F0F9A
:1020900088819981F801608180579E4F0E943F0F8F
:1020A000F8014081C701B6010E94330728813981B8
:1020B0002F5F3F4F398328836093E6027093E702D6
:1020C0008093E8029093E902DF91CF911F910F91E5
:1020D000FF90EF90DF90CF900895CF92DF92EF9234
:1020E000FF920F931F93CF93DF9300D0CDB7DEB74E
:1020F00081E090E09A8389831092E6021092E702D1
:102100001092E8021092E90268EB71E0CE010196AC
:102110000E94D70F66EB71E0CE0101960E94D70FA7
:1021200064EB71E0CE0101960E94D70F6AEB71E07B
:10213000CE0101960E94D70F60EB71E0CE010196AF
:102140000E94D70F6EEA71E0CE0101960E94D70F70
:102150006CEA71E0CE0101960E94D70F62EB71E04C
:10216000CE0101960E94D70F6FE471E0CE01019677
:102170000E94860F63E571E0CE0101960E94860FF2
:1021800067E571E0CE0101960E94860F6BE571E074
:10219000CE0101960E94860F66E471E0CE010196A1
:1021A0000E94860F6AE471E0CE0101960E94860FBC
:1021B00063E671E0CE0101960E94860F67E671E04A
:1021C000CE0101960E94860F6BE671E0CE0101966A
:1021D0000E94860F6FE571E0CE0101960E94860F86
:1021E0006CE973E0CE0101960E94410F67E371E054
:1021F000CE0101960E94D70F69E371E0CE010196EE
:102200000E94D70F6BE371E0CE0101960E94D70FB9
:102210006DE371E0CE0101960E94D70F6FE371E08C
:10222000CE0101960E94D70F61E471E0CE010196C4
:102230000E94D70F65EA73E0CE0101960E94410F1C
:1022400060E771E0CE0101960E94D70F63EA73E068
:10225000CE0101960E94D70F6EE471E0CE01019687
:102260000E94410F6FE671E0CE0101960E94281096
:102270006DEB71E0CE0101960E9428106CEB71E0CD
:10228000CE0101960E9428106EE271E0CE01019607
:102290000E9428106DE271E0CE0101960E94281084
:1022A0006CE271E0CE0101960E94410F63E371E0A0
:1022B000CE0101960E94D70F61E371E0CE01019635
:1022C0000E94D70F6FE271E0CE0101960E94D70FF6
:1022D00065E371E0CE0101960E94D70F65EB73E0D4
:1022E000CE0101960E94410F60EB73E0CE01019692
:1022F0000E94410F64EB73E0CE0101960E94410FF2
:102300006BEA71E0CE0101960E94281063EB73E046
:10231000CE0101960E94410F6AEA71E0CE0101965A
:102320000E942810C090E602D090E702E090E802F8
:10233000F090E90203E711E0F801608189819A8158
:102340000E943F0F89819A81F801608188539F4FD5
:102350000E943F0F89819A81F801608180579E4FCA
:102360000E943F0FF80141918F01C701B6010E9401
:1023700033076B017C0189819A8101969A83898355
:10238000F1E0093A1F07C1F6C092E602D092E702D7
:10239000E092E802F092E90266EA73E0CE0101966B
:1023A0000E94410F62E771E0CE0101960E94281061
:1023B00061E973E0CE0101960E94410F63E471E090
:1023C000CE0101960E94281060E973E0CE010196CB
:1023D0000E94410F6FE873E0CE0101960E94410F09
:1023E00063E973E0CE0101960E94410F65E471E05C
:1023F000CE0101960E94281064E471E0CE0101969E
:102400000E94281062E973E0CE0101960E94410FFC
:102410006EE773E0CE0101960E94410F68E271E021
:10242000CE0101960E94281069E271E0CE0101966A
:102430000E9428106BE271E0CE0101960E942810E4
:102440006AE271E0CE0101960E94281060E673E016
:10245000CE0101960E94410F61E673E0CE01019624
:102460000E94281069EA71E0CE0101960E94410F96
:10247000C090E602D090E702E090E802F090E90216
:1024800006EE12E0F801608189819A810E943F0F77
:1024900089819A81F801608188539F4F0E943F0F84
:1024A00089819A81F801608180579E4F0E943F0F79
:1024B000F80141918F01C701B6010E9433076B01FA
:1024C0007C0189819A8101969A838983F2E00A3E90
:1024D0001F07C1F6C092E602D092E702E092E8023E
:1024E000F092E9020F900F90DF91CF911F910F9121
:1024F000FF90EF90DF90CF9008950C945B35CF92D2
:10250000DF92EF92FF920F931F93CF93DF938C0193
:102510007B01FC01C080D180C6010E947D12C82FC2
:10252000C60188539F4F0E947D12D82FC601805745
:102530009E4F0E947D12CD1327C0C81325C0F701FE
:10254000C0836091E6027091E7028091E802909169
:10255000E902F70140810E9433076093E60270931D
:10256000E7028093E8029093E902F801808191816B
:10257000019691838083DF91CF911F910F91FF90FE
:10258000EF90DF90CF9008956C2F682B6D23C823B8
:102590006C2BF7016083F801808191810E943F0FCD
:1025A000F80180819181F701608188539F4F0E94DB
:1025B0003F0FF80180819181F701608180579E4F24
:1025C0000E943F0F61E08DE00E94C20460E08DE058
:1025D0000E94940464E670E080E090E00E94380578
:1025E00061E08DE00E94940462E370E080E090E09E
:1025F0000E943805A895A5CFAF92BF92CF92DF92E7
:10260000EF92FF920F931F93CF93DF937C01EB0127
:102610006B0184E0C80ED11CF701A080B180C50118
:102620000E947D12182FC50188539F4F0E947D1272
:10263000082FC50180579E4F0E947D1210132AC09B
:10264000181328C018836091E6027091E702809108
:10265000E8029091E90249910E9433076093E602F3
:102660007093E7028093E8029093E902F70180817A
:102670009181019691838083CC15DD0569F6DF9108
:10268000CF911F910F91FF90EF90DF90CF90BF906F
:10269000AF900895612F682B60231823612B688306
:1026A000F701808191810E943F0FF7018081918124
:1026B000688188539F4F0E943F0FF701808191816D
:1026C000688180579E4F0E943F0F61E08DE00E941D
:1026D000C20460E08DE00E94940464E670E080E053
:1026E00090E00E94380561E08DE00E94940462E36E
:1026F00070E080E090E00E943805A895A4CFAF92EA
:10270000BF92CF92DF92EF92FF920F931F93CF93DE
:10271000DF937C01EB016B0182E0C80ED11CF70155
:10272000A080B180C5010E947D12182FC501885379
:102730009F4F0E947D12082FC50180579E4F0E9417
:102740007D1210132AC0181328C018836091E60266
:102750007091E7028091E8029091E90249910E940C
:1027600033076093E6027093E7028093E802909348
:10277000E902F70180819181019691838083CC15D4
:10278000DD0569F6DF91CF911F910F91FF90EF90DA
:10279000DF90CF90BF90AF900895612F682B60239A
:1027A0001823612B6883F701808191810E943F0F7C
:1027B000F70180819181688188539F4F0E943F0F6C
:1027C000F70180819181688180579E4F0E943F0F61
:1027D00061E08DE00E94C20460E08DE00E949404FC
:1027E00064E670E080E090E00E94380561E08DE0F2
:1027F0000E94940462E370E080E090E00E9438055B
:10280000A895A4CFCF92DF92EF92FF920F931F93E0
:10281000CF93DF938C017B01FC01C080D180C60186
:102820000E947D12C82FC60188539F4F0E947D12BF
:10283000D82FC60180579E4F0E947D12CD1327C00E
:10284000C81325C0F701C0836091E6027091E702CA
:102850008091E8029091E902F70140810E943307DC
:102860006093E6027093E7028093E8029093E90296
:10287000F80180819181019691838083DF91CF91CE
:102880001F910F91FF90EF90DF90CF9008956C2FE4
:10289000682B6D23C8236C2BF7016083F8018081BE
:1028A00091810E943F0FF80180819181F701608141
:1028B00088539F4F0E943F0FF80180819181F7015B
:1028C000608180579E4F0E943F0F61E08DE00E9423
:1028D000C20460E08DE00E94940464E670E080E051
:1028E00090E00E94380561E08DE00E94940462E36C
:1028F00070E080E090E00E943805A895A5CF9F93F6
:102900008F9389E792E09F938F9388E093E09F9362
:102910008F930E9442370F900F900F900F900F905F
:102920000F9008951F920F920FB60F9211242F93BC
:102930003F938F939F93AF93BF938091C7039091E1
:10294000C803A091C903B091CA033091C60323E024
:10295000230F2D3758F50196A11DB11D2093C603F5
:102960008093C7039093C803A093C903B093CA038D
:102970008091CB039091CC03A091CD03B091CE0375
:102980000196A11DB11D8093CB039093CC03A0931E
:10299000CD03B093CE03BF91AF919F918F913F91A3
:1029A0002F910F900FBE0F901F90189526E8230FC0
:1029B0000296A11DB11DD2CF1F920F920FB60F929A
:1029C00011242F933F934F935F936F937F938F9334
:1029D0009F93AF93BF93EF93FF938FEC93E00E948D
:1029E000F505FF91EF91BF91AF919F918F917F91ED
:1029F0006F915F914F913F912F910F900FBE0F906C
:102A00001F9018951F920F920FB60F9211242F93BB
:102A10008F939F93EF93FF93E091DF03F091E00397
:102A20008081E091E503F091E60382FD1BC0908177
:102A30008091E8038F5F8F732091E903821741F043
:102A4000E091E803F0E0E153FC4F958F8093E803B9
:102A5000FF91EF919F918F912F910F900FBE0F904B
:102A60001F9018958081F4CF1F920F920FB60F928E
:102A700011242F933F934F935F936F937F938F9383
:102A80009F93AF93BF93CF93EF93FF9399B18091AF
:102A9000E502C091E202C923282F2095C22320918C
:102AA000DF028223292F20958223C82B9093E502F1
:102AB000C4FF05C0E0911801F09119010995C5FF07
:102AC00005C0E0911A01F0911B010995C6FF05C0F0
:102AD000E0911C01F0911D010995C7FF05C0E0912F
:102AE0001E01F0911F010995C0FF05C0E091200172
:102AF000F09121010995C1FF05C0E0912201F091FB
:102B000023010995C2FF05C0E0912401F091250140
:102B10000995C3FF05C0E0912601F09127010995B1
:102B2000FF91EF91CF91BF91AF919F918F917F9145
:102B30006F915F914F913F912F910F900FBE0F902A
:102B40001F9018951F920F920FB60F9211242F937A
:102B50003F934F935F936F937F938F939F93AF9325
:102B6000BF93CF93EF93FF9396B18091E402C0910E
:102B7000E102C923282F2095C2232091DE0282235F
:102B8000292F20958223C82B9093E402C0FF05C013
:102B9000E0910C01F0910D010995C1FF05C0E09194
:102BA0000E01F0910F010995C2FF05C0E0911001DF
:102BB000F09111010995C3FF05C0E0911201F09158
:102BC00013010995C4FF05C0E0911401F0911501AE
:102BD0000995C5FF05C0E0911601F091170109950F
:102BE000FF91EF91CF91BF91AF919F918F917F9185
:102BF0006F915F914F913F912F910F900FBE0F906A
:102C00001F9018951F920F920FB60F9211242F93B9
:102C10003F934F935F936F937F938F939F93AF9364
:102C2000BF93CF93EF93FF9393B18091E302C09151
:102C3000E002C923282F2095C2232091DD028223A0
:102C4000292F20958223C82B9093E302C0FF05C053
:102C5000E0910001F09101010995C1FF05C0E091EB
:102C60000201F09103010995C2FF05C0E091040142
:102C7000F09105010995C3FF05C0E0910601F091AF
:102C800007010995C4FF05C0E0910801F091090111
:102C90000995C5FF05C0E0910A01F0910B01099566
:102CA000FF91EF91CF91BF91AF919F918F917F91C4
:102CB0006F915F914F913F912F910F900FBE0F90A9
:102CC0001F9018951F920F920FB60F9211242F93F9
:102CD0003F934F935F936F937F938F939F93AF93A4
:102CE000BF93CF93DF93EF93FF938091DC02C0916A
:102CF0009004D0E087FF24C01092850010928400D9
:102D00008091DC028F5F8093DC028091DC02082ED0
:102D1000000C990B8C179D0724F48091DC028C30F9
:102D2000C4F18091840090918500049680349C4980
:102D300008F47AC08091840090918500049676C052
:102D40008091DC02082E000C990B8C179D07C4F6AD
:102D5000E091DC028E2FEE0F990BFC01EE0FFF1FAE
:102D6000E80FF91FE459FB4F808186FFC9CFE0913E
:102D7000DC028E2FEE0F990BFC01EE0FFF1FE80F08
:102D8000F91FE459FB4F808160E08F730E94940427
:102D9000B7CF2091840030918500E091DC028E2F26
:102DA000EE0F990BFC01EE0FFF1FE80FF91FE4591E
:102DB000FB4F81819281820F931F909389008093B2
:102DC0008800E091DC028E2FEE0F990BFC01EE0FD4
:102DD000FF1FE80FF91FE459FB4F808186FF11C0E8
:102DE000E091DC028E2FEE0F990BFC01EE0FFF1F1E
:102DF000E80FF91FE459FB4F808161E08F730E9457
:102E00009404FF91EF91DF91CF91BF91AF919F918A
:102E10008F917F916F915F914F913F912F910F9083
:102E20000FBE0F901F90189580E49CE99093890045
:102E3000809388008FEF8093DC02E3CF1F920F9284
:102E40000FB60F9211242F933F934F935F936F937D
:102E50007F938F939F93AF93BF93EF93FF93A89527
:102E6000F0E0E0E00995FF91EF91BF91AF919F9164
:102E70008F917F916F915F914F913F912F910F9023
:102E80000FBE0F901F901895FF920F931F93CF9333
:102E9000DF93A8E2B1E06CE271E041E050E02FE99D
:102EA00036E08D91863108F057C090E1883058F0B7
:102EB00091E08E3008F490E0990F990F990F8E30C1
:102EC00008F048C08850890F982F9695969596954A
:102ED000C82FC770911166C0811140C030930101A5
:102EE00020930001E92FF0E08A0102C0000F111FBA
:102EF000CA95E2F7F02EF0948F0100521D4FE801C1
:102F000088818F2188838F0103521D4FE8018881BA
:102F10008F218883E559FF4F8081CF2DC823C0833F
:102F2000808181110DC0E09168008A0102C0000F0C
:102F3000111F9A95E2F7C80180958E23809368004F
:102F40006A177B0709F0ADCFDF91CF911F910F91E9
:102F5000FF9008958E50B7CF8FEFB6CF813029F410
:102F60003093030120930201BDCF823029F43093C6
:102F7000050120930401B6CF833029F43093070173
:102F800020930601AFCF843029F4309309012093B8
:102F90000801A8CF853009F0A5CF30930B0120930D
:102FA0000A01A0CF913059F5883029F430930D01F2
:102FB00020930C0197CF893029F430930F0120938F
:102FC0000E0190CF8A3029F4309311012093100123
:102FD00089CF8B3029F4309313012093120182CFD3
:102FE0008C3029F430931501209314017BCF8D3060
:102FF00009F078CF309317012093160173CF9230E8
:1030000009F09ECF803129F43093210120932001D3
:1030100069CF813129F4309323012093220162CFBB
:10302000823129F430932501209324015BCF833131
:1030300029F4309327012093260154CF843129F4B9
:1030400030931901209318014DCF853129F4309325
:103050001B0120931A0146CF863129F430931D01BC
:1030600020931C013FCF873109F03CCF30931F01E3
:1030700020931E0137CF1092D2031092D10388EE15
:1030800093E0A0E0B0E08093D3039093D403A093A7
:10309000D503B093D6038FE392E09093D00380934F
:1030A000CF0385EC90E09093DC038093DB0384EC0A
:1030B00090E09093DE038093DD0380EC90E09093AA
:1030C000E0038093DF0381EC90E09093E203809330
:1030D000E10382EC90E09093E4038093E30386ECB9
:1030E00090E09093E6038093E5031092E80310923A
:1030F000E9031092EA031092EB03809190048C3064
:1031000048F591E0980F909390048093940490E098
:10311000FC01EE0FFF1FE80FF91FE459FB4F88EB8E
:103120009BE092838183809190048C30B8F491E08D
:10313000980F909390048093910490E0FC01EE0F1F
:10314000FF1FE80FF91FE459FB4F88EB9BE09283C8
:10315000818308958FEF80939404E5CF8FEF809360
:1031600091040895CF93DF93CDB7DEB7E6970FB6FE
:10317000F894DEBF0FBECDBF789484B5826084BD65
:1031800084B5816084BD85B5826085BD85B581606B
:1031900085BD80916E00816080936E0010928100E9
:1031A00080918100826080938100809181008160A4
:1031B0008093810080918000816080938000809165
:1031C000B10084608093B1008091B00081608093F1
:1031D000B00080917A00846080937A0080917A00B8
:1031E000826080937A0080917A00816080937A0077
:1031F00080917A00806880937A001092C10061E02B
:103200008DE00E94C20461E08DE00E949404E09190
:10321000DF03F091E00382E08083E091DB03F09133
:10322000DC031082E091DD03F091DE0387E0808310
:103230001092E703E091E303F091E40386E08083DA
:10324000E091E103F091E203808180618083E0916D
:10325000E103F091E203808188608083E091E103E3
:10326000F091E203808180688083E091E103F09136
:10327000E20380818F7D80838DE492E00E94870A43
:1032800062E370E080E090E00E94380560E08DE04D
:103290000E949404F894A8958091600088618093BE
:1032A000600087E480936000789480E092E09093DF
:1032B000C1038093C0039093BF038093BE03109219
:1032C000B6031092B7031092B8031092B90310928C
:1032D000BA031092BB031092BC031092BD0310926C
:1032E00098031092990310929A0310929B031092E4
:1032F00094031092950310929603109297031092E4
:10330000A7031092A8031092A9031092AA03109287
:10331000AB031092AC031092AD031092AE038FEF8B
:103320009FEF9093A2038093A10380E090E0A0E838
:10333000BFE380939D0390939E03A0939F03B0935C
:10334000A0031092C2031092C3031092C403109200
:10335000C50310928103109282031092830310928E
:10336000840381E0809385031092AF03109287035A
:10337000109288031092890310928A031A8E198E74
:10338000BE01655E7F4FCE0149960E9402148B8D6F
:10339000843161F01A8E198E66EC71E0CE01499687
:1033A0000E9428100E946D101092850381E090E029
:1033B0009A8B898B1092E6021092E7021092E80233
:1033C0001092E90268EB71E0CE0141960E947F13F2
:1033D00066EB71E0CE0141960E947F1364EB71E0D1
:1033E000CE0141960E947F136AEB71E0CE014196B7
:1033F0000E947F1360EB71E0CE0141960E947F1323
:103400006EEA71E0CE0141960E947F136CEA71E092
:10341000CE0141960E947F1362EB71E0CE0141968E
:103420000E947F136FE471E0CE0141960E94FC126E
:1034300063E571E0CE0141960E94FC1267E571E000
:10344000CE0141960E94FC126BE571E0CE014196DF
:103450000E94FC1266E471E0CE0141960E94FC12CB
:103460006AE471E0CE0141960E94FC1263E671E0CD
:10347000CE0141960E94FC1267E671E0CE014196B2
:103480000E94FC126BE671E0CE0141960E94FC1294
:103490006FE571E0CE0141960E94FC126CE973E089
:1034A000CE0141960E947F1267E371E0CE01419602
:1034B0000E947F1369E371E0CE0141960E947F1361
:1034C0006BE371E0CE0141960E947F136DE371E0E2
:1034D000CE0141960E947F136FE371E0CE014196C9
:1034E0000E947F1361E471E0CE0141960E947F1338
:1034F00065EA73E0CE0141960E947F1260E771E0B9
:10350000CE0141960E947F1363EA73E0CE0141969B
:103510000E947F136EE471E0CE0141960E947F12FB
:103520006FE671E0CE0141960E9402146DEB71E0EE
:10353000CE0141960E9402146CEB71E0CE014196DF
:103540000E9402146EE271E0CE0141960E940214C4
:103550006DE271E0CE0141960E9402146CE271E0CE
:10356000CE0141960E947F1263E371E0CE01419645
:103570000E947F1361E371E0CE0141960E947F13A8
:103580006FE271E0CE0141960E947F1365E371E026
:10359000CE0141960E947F1365EB73E0CE01419608
:1035A0000E947F1260EB73E0CE0141960E947F1271
:1035B00064EB73E0CE0141960E947F126BEA71E0EA
:1035C000CE0141960E94021463EB73E0CE01419656
:1035D0000E947F126AEA71E0CE0141960E940214B5
:1035E00003E711E0C988DA88C6010E947D12F82E2F
:1035F000C60188539F4F0E947D12E82EC601805756
:103600009E4F0E947D12FE103AC1F81238C1D801B7
:10361000FC926091E6027091E7028091E80290913D
:10362000E902D8014D918D010E9433076093E602B3
:103630007093E7028093E8029093E90289899A895E
:1036400001969A8B898BB1E0093A1B0759F666EA15
:1036500073E0CE0141960E947F1262E771E0CE01D5
:1036600041960E94281061E973E0CE0141960E94C4
:103670007F1263E471E0CE0141960E94021460E97A
:1036800073E0CE0141960E947F126FE873E0CE0195
:1036900041960E947F1263E973E0CE0141960E9439
:1036A0007F1265E471E0CE0141960E94021464E449
:1036B00071E0CE0141960E94021462E973E0CE01EE
:1036C00041960E947F126EE773E0CE0141960E9400
:1036D0007F1268E271E0CE0141960E94021469E215
:1036E00071E0CE0141960E9402146BE271E0CE01BE
:1036F00041960E9402146AE271E0CE0141960E9456
:10370000021460E673E0CE0141960E947F1261E6EA
:1037100073E0CE0141960E94021469EA71E0CE0185
:1037200041960E947F124090E6025090E70260901E
:10373000E8027090E90219821A821B821C828E01B3
:103740000F5F1F4F6E01E5E0CE0ED11CA988BA882D
:10375000C5010E947D12F82EC50188539F4F0E941B
:103760007D12E82EC50180579E4F0E947D12FE10EB
:10377000BAC0F812B8C0D801FC926091E60270910C
:10378000E7028091E8029091E902D8014D918D0104
:103790000E9433076093E6027093E7028093E80289
:1037A0009093E90289899A8901969A8B898B0C15E5
:1037B0001D0561F689819A81AB81BC814816590645
:1037C0006A067B0609F4F2C062E370E080E090E0F4
:1037D0000E9438058FE294E00E94000B62E370E0E3
:1037E00080E090E00E943805E09194048E2F90E0F4
:1037F000FC01EE0FFF1FE80FF91FE459FB4F80811A
:1038000086FF02C08F7B8083E09191048E2F90E031
:10381000FC01EE0FFF1FE80FF91FE459FB4F8081F9
:1038200086FF02C08F7B808364E670E080E090E0DA
:103830000E94380512E060E0812F0E94C2041F5FE1
:103840001536C9F761E08DE00E94C20462E370E0C2
:1038500080E090E00E9438050FB6F894A89580911A
:103860006000886180936000109260000FBE83E169
:1038700094E00E94000B10E088EC90E06EC06F2D89
:10388000682B6E21F8226F29F8016083C6010E941F
:103890003F0F89899A89D8016C9188539F4F0E9464
:1038A0003F0F89899A89F801608180579E4F0E9455
:1038B0003F0F61E08DE00E94C20460E08DE00E9455
:1038C000940464E670E080E090E00E94380561E0D6
:1038D0008DE00E94940462E370E080E090E00E943A
:1038E0003805A89596CE6F2D682B6E21F8226F298A
:1038F000F801608389899A890E943F0F89899A8992
:10390000D8016C9188539F4F0E943F0F89899A89F3
:10391000F801608180579E4F0E943F0F61E08DE06B
:103920000E94C20460E08DE00E94940464E670E0AE
:1039300080E090E00E94380561E08DE00E949404F0
:1039400062E370E080E090E00E943805A89515CF12
:10395000113009F091CF88E592E003E06C01990FF6
:10396000EE08FF0861E08DE00E949404C701B601F3
:103970000E94380560E08DE00E94940468EC70E0DD
:1039800080E090E00E943805015061F760E971E045
:1039900080E090E0123021F468E775E080E090E08C
:1039A0000E9438051F5F133099F661CF809137016F
:1039B0009091380190938E0380938D0380913D0107
:1039C00090913E0190938C0380938B0380912C0106
:1039D0008093860368E770E080E090E00E943805FD
:1039E0000E94C10C6AEF70E080E090E00E94380510
:1039F0000E94C10C60E08091BD010E94C20460E0A1
:103A00008091BC010E94C20460E080916F010E941D
:103A1000C2048091B5038823D1F08091B00388233C
:103A200029F062E08091AB010E94C20410E009E03D
:103A30008091AA01181758F4019FF0011124ED5844
:103A4000FE4F62E080810E94C2041F5FF1CF80912F
:103A5000A603882329F062E0809172010E94C204CB
:103A600080917E0381110E94B50880919103882383
:103A700029F062E0809143010E94C2048091930387
:103A8000882351F062E0809145010E94C20462E007
:103A9000809144010E94C20460912E0170E084E98B
:103AA00094E00E94D70660912D0170E081E994E0D6
:103AB0000E94D706609137017091380184E994E043
:103AC0000E94A00660913D0170913E0181E994E061
:103AD0000E94A00664E670E080E090E00E94380555
:103AE000A8958FEC93E00E94B305F82EBFEF8B17DB
:103AF00009F438C5ECE28E139AC6E0915303F0E066
:103B0000E95EFC4F10826CE772E087E193E00E946F
:103B100058307C016CE772E090E080E00E94583001
:103B20008C018FE0A8E0B3E01D928A95E9F755E19A
:103B3000A52E52E0B52ED12CC12CD501ED91FD91D1
:103B40005D01EE0FFF1FE358F94F659174918AEE06
:103B500092E00E9451306AEE72E0C7010E94323753
:103B6000892B81F4C8010E942A30F601EE0FFF1F55
:103B7000E151FE4F0190F081E02D918380830E94FE
:103B80007F146BC0BFEFCB1ADB0AE3E1CE16D10482
:103B9000A1F62BEDA22E21E0B22ED12CC12C9C2C13
:103BA000D501ED91FD915D01EE0FFF1FE358F94F37
:103BB000659174918AEE92E00E9451306AEE72E053
:103BC000C7010E943237892B09F07BC0F601EE0F46
:103BD000FF1FE953FE4FC080D180C8010E942630EC
:103BE0002B013C01B9E09B1256C0F6014082518284
:103BF000628273828AEF890D833020F5F60180801E
:103C00009180A280B38020E030E0A901C501B40119
:103C10000E94343487FD51C020E030E040E85FE38B
:103C2000C501B4010E94F936181634F4812C912C88
:103C300010E8A12E1FE3B12ED6018D929D92AD9278
:103C4000BC921397F601608171818281938108E0B3
:103C500013E024E040E00E94083083E694E00E94F4
:103C6000640680EC92E00E94F90A86E594E00E94E6
:103C70006406C7010E94F90A8FEB92E00E94F90ADC
:103C80008BE494E00E94640688E093E00E94F90AC5
:103C900083EC92E0D4C220E030E0A9010E94F93622
:103CA000181624F077FA709477F87094D6014D9234
:103CB0005D926D927C9213979DCF812C912C540133
:103CC000BBCFFFEFCF1ADF0A2AE0C216D10409F0FA
:103CD00066CF65E676E0C7010E944830892B59F42B
:103CE000C8010E942A3021E0892B09F420E02093AA
:103CF0009C03822F71C166E576E0C7010E944830BF
:103D0000892B51F4C8010E942A3021E0892B09F443
:103D100020E02093A503EDCF6FE376E0C7010E947A
:103D20004830892B51F4C8010E942A3021E0892BA8
:103D300009F420E020934E01DCCF60E376E0C70178
:103D40000E944830892B61F4C8010E942A30809378
:103D50006F0160E00E94C20480916F0190E00FCF7C
:103D600066E276E0C7010E944830892B59F4C80109
:103D70000E942A308093BD0160E00E94C2048091BD
:103D8000BD01ECCF6CE176E0C7010E944830892B81
:103D900059F4C8010E942A308093BC0160E00E945F
:103DA000C2048091BC01DACF62E076E0C7010E94D4
:103DB0004830892B09F058C060913D0170913E0157
:103DC00081E994E00E94A006E09191048E2F90E09A
:103DD000FC01EE0FFF1FE80FF91FE459FB4F808134
:103DE0008F7B8083609137017091380184E994E082
:103DF0000E94A006E09194048E2F90E0FC01EE0F4B
:103E0000FF1FE80FF91FE459FB4F80818F7B8083F0
:103E1000C8010E942A3080932E016AE070E080E0A1
:103E200090E00E94380560912E0170E084E994E0F2
:103E30000E94D706609137017091380184E994E0BF
:103E40000E94A00660912D0170E081E994E00E943B
:103E5000D70660913D0170913E0181E994E00E9496
:103E6000A00680912E017ACF67EE75E0C7010E940F
:103E70004830892B09F058C06091370170913801A2
:103E800084E994E00E94A006E09194048E2F90E0D3
:103E9000FC01EE0FFF1FE80FF91FE459FB4F808173
:103EA0008F7B808360913D0170913E0181E994E0B8
:103EB0000E94A006E09191048E2F90E0FC01EE0F8D
:103EC000FF1FE80FF91FE459FB4F80818F7B808330
:103ED000C8010E942A3080932D016AE070E080E0E2
:103EE00090E00E94380560912D0170E081E994E036
:103EF0000E94D70660913D0170913E0181E994E0F6
:103F00000E94A00660912E0170E084E994E00E9476
:103F1000D706609137017091380184E994E00E94DE
:103F2000A00680912D011ACF62ED75E0C7010E94B5
:103F30004830892B51F4C8010E942A3021E0892B96
:103F400009F420E020932C01D4CE6BEB75E0C7017F
:103F50000E944830892B91F4C8010E942A30893E82
:103F600043E0940714F088EE93E097FF02C090E0DE
:103F700080E09093300180932F0101CE68EA75E0D4
:103F8000C7010E944830892B51F5C8010E942A3090
:103F900021E0009709F420E02093B503892BD1F0AC
:103FA0008091B003882329F062E08091AB010E94E8
:103FB000C20410E08091AA01181760F459E0519FE3
:103FC000F0011124ED58FE4F62E080810E94C2048E
:103FD0001F5FF0CF8091B5030E94350F3ECE64E99C
:103FE00075E0C7010E944830892B41F5C8010E9445
:103FF0002A3021E0009709F420E02093B0032091BB
:10400000B5032223C1F0892B29F062E08091AB0136
:104010000E94C20410E08091AA01181760F489E0A0
:10402000819FF0011124ED58FE4F62E080810E94D3
:10403000C2041F5FF0CF8091B003CECF60E975E07E
:10404000C7010E944830892B51F4C8010E942A30D0
:1040500021E0892B09F420E02093B4034ACE60E8E4
:1040600075E0C7010E944830892B59F4C8010E94AD
:104070002A308093AB0162E00E94C2048091AB01C0
:104080006DCE6BE775E0C7010E944830892B51F473
:10409000C8010E942A3021E0892B09F420E02093F6
:1040A000B30327CE69E675E0C7010E944830892B2B
:1040B00079F5C8010E942A3097FD23C08730910509
:1040C00014F58093AA018091B5038823F1F08091C3
:1040D000B003882329F062E08091AB010E94C20402
:1040E00010E08091AA01181780F499E0919FF001E7
:1040F0001124ED58FE4F62E080810E94C2041F5FD0
:10410000F0CF80E0DECF86E0DCCF8091AA0126CE22
:104110006FE772E0C7010E943237892B09F092C025
:10412000C8010E942A306C015C01A1E0AA1AB10802
:10413000B6E0AB16B10408F013C269E972E0C80139
:104140000E94583069E972E090E080E00E945830A7
:104150000E942A30E9E0EA9D9001EB9D300D112488
:10416000A9014D585E4F7A01DA018C9369E972E03A
:1041700090E080E00E9458300E942630F701618371
:1041800072838383948369E972E090E080E00E9407
:1041900058300E942630D70115966D937D938D93EC
:1041A0009C93189762E08C910E94C20485E595E08B
:1041B0000E9464068CE992E00E94F90A88E495E086
:1041C0000E9464068DE892E00E94F90AC6010E94EE
:1041D000970B8BE992E00E94F90A8EE395E00E942A
:1041E0006406F701608170E090E080E04AE00E94A0
:1041F000940A8CE992E00E94F90AD70111966D9118
:104200007D918D919C91149708E013E024E040E0AB
:104210000E940830C8010E94F90A8CE992E00E94CD
:10422000F90AF701658176818781908524E040E075
:104230000E940830C8010E94F90A8EE992E00E94AB
:104240000E0B8EC16AE275E0C7010E944830892BCF
:10425000B9F4C8010E942A3021E0009709F420E057
:104260002093A603892BE9F162E0809172010E94FC
:10427000C2046EE672E088E093E00E943B37EDCC2A
:1042800062E175E0C7010E944830892B59F4C801EA
:104290000E942A308093720162E00E94C2048091E1
:1042A00072015CCD6FE075E0C7010E944830892B38
:1042B000D9F4C8010E942A3021E0009709F420E0D7
:1042C00020937E03892B59F00E9444176EE672E01A
:1042D00088E093E00E943B370E94B508BECC0E9464
:1042E000441763E772E0C7CF6BE075E0C7010E9437
:1042F0004830892B61F40E944417C8010E942A307B
:10430000809328010E94B5088091280127CD67E09D
:1043100075E0C7010E944830892B61F40E94441760
:10432000C8010E942A30809329010E94B50880911B
:10433000290114CD63E075E0C7010E944830892B44
:1043400061F40E944417C8010E942A3080932A0118
:104350000E94B50880912A0101CD6FEF74E0C7017A
:104360000E944830892B61F40E944417C8010E94C2
:104370002A3080932B010E94B50880912B01EECC4E
:104380006BEF74E0C7010E944830892B51F4C801DB
:104390000E942A3021E0892B09F420E02093600359
:1043A000A8CC68EF74E0C7010E944830892B49F41B
:1043B000C8010E942A30833008F082E080936103B4
:1043C000CDCC65EF74E0C7010E944830892B51F4D1
:1043D000C8010E942A3021E0892B09F420E02093B3
:1043E000A90187CC61EF74E0C7010E944830892B96
:1043F00099F4C8010E942A3021E0009709F420E0D6
:1044000020939103892B29F062E0809143010E945F
:10441000C20480919103E0CD6EEE74E0C7010E946A
:104420004830892B79F4C8010E942A3080934301D7
:1044300090919103992319F062E00E94C204809147
:1044400043018CCC6AEE74E0C7010E944830892B8E
:1044500051F4C8010E942A3021E0892B09F420E0A0
:104460002093900346CC66EE74E0C7010E9448306A
:10447000892B51F4C8010E942A3021E0892B09F4CC
:1044800020E020938F0335CC62EE74E0C7010E94D8
:104490004830892BC1F4C8010E942A3021E00097DE
:1044A00009F420E020939303892B51F062E080917E
:1044B00045010E94C20462E0809144010E94C2044E
:1044C0008091930389CD6FED74E0C7010E9448305D
:1044D000892B59F4C8010E942A308093450162E07B
:1044E0000E94C2048091450139CC6CED74E0C70193
:1044F0000E944830892B59F4C8010E942A308093C9
:10450000440162E00E94C2048091440127CC68ED1E
:1045100074E0C7010E944830892B51F4C8010E9401
:104520002A3021E0892B09F420E020939203E1CB8B
:1045300061EA72E0C7010E943237892B39F40E9488
:104540006D1084EC94E00E94000B0AC066EA72E0F1
:10455000C7010E943237892B09F01BC10E94C10C90
:10456000109253038091580381110DC00E941305CE
:1045700060935403709355038093560390935703AD
:1045800081E080935803C0905403D0905503E0908D
:104590005603F0905703C114D104E104F10409F467
:1045A0006BC10E9413056C197D098E099F090E9439
:1045B000393420E034E244E759E40E9451366B017B
:1045C0007C010E94130560935403709355038093FC
:1045D000560390935703C092C203D092C303E09254
:1045E000C403F092C5038091BD010E94FE046C01DA
:1045F0009093C1038093C0038091BC010E94FE048C
:104600007C019093BF038093BE030091BA01109187
:10461000BB012091B8013091B9014091B601509190
:10462000B7016091B4017091B501C6010E9477078E
:104630006093BA037093BB038093BC039093BD0354
:104640000091B2011091B3012091B0013091B101FC
:104650004091AE015091AF016091AC017091AD01FC
:10466000C7010E9477076093B6037093B7038093E6
:10467000B8039093B9032091B503222309F41CC118
:104680008091B403882309F405C18091AB010E9495
:104690006B04AC0191E04115510509F490E0809163
:1046A000B303981311C02091B20327FB222720F9EE
:1046B00031E0452B09F030E0231306C08091B103AF
:1046C00021E082278093B1038091B20390FB87F9A8
:1046D0008093B2038091B103882309F4EFC0E09086
:1046E000B303C090AA018091A901811110C010925A
:1046F000B6031092B7031092B8031092B903109248
:10470000BA031092BB031092BC031092BD0303E7DF
:1047100011E0D12CF12CCD1409F4D0C0D8018C912A
:104720000E946B048E159F0581F5F801218132816D
:10473000438154816091B6037091B7038091B803AF
:104740009091B9030E94E5356093B6037093B70367
:104750008093B8039093B903D80115962D913D919C
:104760004D915C9118976091BA037091BB03809151
:10477000BC039091BD030E94E5356093BA0370932A
:10478000BB038093BC039093BD03D394075F1F4F7B
:10479000C2CF6FEA72E0C7010E943237892BA1F4C1
:1047A0001A8A198A45E150E05A834983BE016F5F36
:1047B0007F4FCE0141960E94D70F68E873E180E0F9
:1047C00090E00E94380549CA66EB72E0C7010E947A
:1047D0003237892B91F36DEB72E0C7010E943237BB
:1047E000892B31F481E08093850385EA94E0ABCE98
:1047F0006DEA72E0C7010E943237892BA9F410924A
:104800008503609137017091380184E994E00E943A
:10481000A00660913D0170913E0181E994E00E9403
:10482000A0068FE894E08FCE87E794E08CCE082F27
:10483000880F110BC8010E941537892B51F483EDA5
:104840008F0D823030F05AE3F51619F08FE5F8122B
:1048500089CEC8010E942A3790915303E92FF0E0D6
:10486000E95EFC4F808382E0890F8C3308F07ACEBA
:104870009F5F9093530376CE0E9413056093540379
:10488000709355038093560390935703C12CD12CFA
:104890007601A1CE8091B003882359F08091AB01BD
:1048A0000E946B043091B30321E03817190609F018
:1048B00020E02093B1030ECF1092B1038091AF039B
:1048C000882309F43FC6D0907E038091B2038D7F88
:1048D000877FDD2009F406C10E946B0500917A03F1
:1048E00010917B0320917C0330917D03601B710B41
:1048F000820B930BCC24C394673471058105910519
:1049000008F0C12CF8948E010F5F1F4FDE01519605
:10491000980190E080E0FC01EE0FFF1FEE0FFF1FFB
:10492000E659FC4F4081518162817381F9014193C5
:104930005193619371939F01FC01EE0FFF1FEE599C
:10494000FC4F408151814D935D93019684309105D8
:1049500011F778947801F0E1EF0EF11C0E94130535
:10496000D8018D909D90AD90BD908D016819790909
:104970008A099B09613771418140910508F0C12C7A
:10498000E016F10659F7CC2009F4CEC58091B203A8
:1049900081608093B2032D893E89233331050CF465
:1049A00047C082608093B2038F89988D83339105CD
:1049B0000CF444C08091B20384608093B20389896F
:1049C0009A89C1968336910510F41A8A198A8B89BF
:1049D0009C89C1968336910510F41C8A1B8A10911C
:1049E000B20311FF33C069897A89072E000C880B46
:1049F000990B0E943B3420E030E04AEF53E40E94E0
:104A000051366093B6037093B7038093B8039093C5
:104A1000B9036B897C89072E000C880B990B0E94C7
:104A20003B3420E030E04AEF53E40E9451364FC05F
:104A30002E3C3F4F0CF0B8CF8D7FB4CF8E3C9F4FB4
:104A40000CF0BDCF8091B2038B7FB7CF8091610313
:104A5000C090B603D090B703E090B803F090B903CC
:104A6000813009F007C569897A89072E000C880B07
:104A7000990B0E943B3420E030E04AEF53E40E945F
:104A80005136A70196010E94E5356093B6037093F5
:104A9000B7038093B8039093B9036B897C89072E81
:104AA000000C880B990B0E943B3420E030E04AEF69
:104AB00053E40E9451369B01AC016091BA0370919E
:104AC000BB038091BC039091BD030E94E5356093C8
:104AD000BA037093BB038093BC039093BD03812FF3
:104AE00012FB83F98093B2038091BA039091BB03C8
:104AF000A091BC03B091BD038093AB039093AC0332
:104B0000A093AD03B093AE038091B6039091B70329
:104B1000A091B803B091B9038093A7039093A80321
:104B2000A093A903B093AA038091A603882371F0F0
:104B3000809172010E946B04892B41F41092AB03A7
:104B40001092AC031092AD031092AE038091A503B6
:104B5000882309F4FEC4E090A303F090A403C0905E
:104B60007001D090710180916F010E94FE048C0150
:104B70009093A2038093A103B601DD0C880B990BDF
:104B80000E943B344B015C01B801110F880B990B5B
:104B90000E943B34A50194010E94E4352B013C01A5
:104BA000B701FF0C880B990B0E943B34A5019401BF
:104BB0000E94E4359B01AC01C301B2010E94513651
:104BC00020E030E0A9010E94E5356B017C0120E086
:104BD00030E0A9010E94343487FDB7C420E030E002
:104BE00040E85FE3C701B6010E94F936181634F4B5
:104BF000C12CD12C30E8E32E3FE3F32EC0929D036D
:104C0000D0929E03E0929F03F092A00380916B01EB
:104C100090916C01A0916D01B0916E018C8F9D8F70
:104C2000AE8FBF8F8090670190906801A09069015E
:104C3000B0906A018091630190916401A091650137
:104C4000B091660188A399A3AAA3BBA380919D03F9
:104C500090919E03A0919F03B091A0038CA39DA36C
:104C6000AEA3BFA320E030E0A901C501B4010E94BA
:104C7000F93675016401181624F0F7FAF094F7F884
:104C8000F09420E030E0A90168A179A18AA19BA15C
:104C90000E94F93648A059A06AA07BA0181624F0FB
:104CA00077FA709477F8709420E030E0A9016C8D69
:104CB0007D8D8E8D9F8D0E94F93618164CF08C8D4F
:104CC0009D8DAE8DBF8DB0588C8F9D8FAE8FBF8F59
:104CD000A30192016CA17DA18EA19FA10E949A3493
:104CE000562E472E382E292EC701B60190582CA1DA
:104CF0003DA14EA15FA10E949A343B018C01C0905E
:104D0000A703D090A803E090A903F090AA0320E0A5
:104D100030E0A901C701B6010E943434882309F4A8
:104D200031C420E030E0A901C701B6010E94F93684
:104D3000A701960118160CF019C4652D742D832D4A
:104D4000922D0E949A3420E030E0A9010E94E535BE
:104D50006B017C01A7019601B301C8010E94F936DD
:104D600018160CF413C4A7019601652D742D832D1C
:104D7000922D0E94343487FF04C0C52CD42CE32C20
:104D8000F22CC092A703D092A803E092A903F0925C
:104D9000AA032091AB033091AC034091AD03509135
:104DA000AE036C8D7D8D8E8D9F8D0E949A342CA1CB
:104DB0003DA14EA15FA10E949A341B018C012CA140
:104DC0003DA14EA15FA16C8D7D8D8E8D9F8D9058E4
:104DD0000E949A342B013C019B01AC01B101C80136
:104DE0000E94343487FD16C02C8D3D8D4E8D5F8D15
:104DF0006CA17DA18EA19FA10E949A342B013C0140
:104E00009B01AC01B101C8010E94F936181614F0DB
:104E10002101380120E030E0A901C701B6010E945C
:104E2000F93687FD04C088A099A0AAA0BBA0209154
:104E30005F0130916001409161015091620160E039
:104E400070E080E89FE30E94E4356C8F7D8F8E8F49
:104E50009F8F20E030E0A901C701B6010E94F9361A
:104E6000A701960118160CF050586C8D7D8D8E8D13
:104E70009F8D0E949A346C8F7D8F8E8F9F8F20E044
:104E800030E0A901C501B4010E94F93618160CF0F2
:104E900080C327E137EB41ED58E3C501B4010E941F
:104EA000E5359B01AC016C8D7D8D8E8D9F8D0E94B3
:104EB00051369B01AC0160E070E080E89FE30E9406
:104EC000E4354B015C0120E030E0A9010E94F93695
:104ED00018161CF0812C912C5401A5019401B201EB
:104EE000C3010E949A344B015C0120E030E040E8AD
:104EF0005FEB0E94343487FD55C320E030E040E88A
:104F00005FE3C501B4010E94F936181634F4812C10
:104F1000912C20E8A22E2FE3B22E8092AB03909228
:104F2000AC03A092AD03B092AE0320E030E0A90143
:104F3000C701B6010E94343487FF10C080919C03E2
:104F4000882361F0B7FAB094B7F8B0948092AB03BD
:104F50009092AC03A092AD03B092AE038091C203D5
:104F60009091C303A091C403B091C5038C8F9D8F12
:104F7000AE8FBF8F80915B0190915C01A0915D012C
:104F8000B0915E0188A799A7AAA7BBA780905701F7
:104F900090905801A0905901B0905A01809153010E
:104FA00090915401A0915501B091560188AB99ABF5
:104FB000AAABBBAB40904F015090500160905101A3
:104FC0007090520180914E018111F3C21CA61CAA5F
:104FD00090E89DABAFE3AEAB8091980390919903BD
:104FE000A0919A03B0919B0388A399A3AAA3BBA302
:104FF00020E030E0A901C301B2010E94F936181681
:105000001CF0412C512C3201A30192016CA57CA90A
:105010008DA99EA90E949A342B013C0120E030E02A
:10502000A90168A979A98AA99BA90E94F93618162D
:1050300024F018AA19AA1AAA1BAA20E030E0A90194
:10504000C501B4010E94F93618161CF0812C912C70
:105050005401A50194016CA57CA98DA99EA90E946B
:105060009A344B015C0120E030E0A90168A579A5E4
:105070008AA59BA50E94F936181624F018A619A631
:105080001AA61BA628A139A14AA15BA1C701B60196
:105090000E94E435D62EC72E382E292E20E030E08F
:1050A000A90168A179A18AA19BA10E943434811130
:1050B00089C2C501B40190582C8D3D8D4E8D5F8DF8
:1050C0000E949A347B018C019B01AC016D2D7C2DDB
:1050D000832D922D0E94343487FD18C0A3019201C4
:1050E0006C8D7D8D8E8D9F8D0E949A347B018C01FD
:1050F0009B01AC016D2D7C2D832D922D0E94F936E4
:10510000181624F0ED2CFC2C032D122D9701A8016C
:1051100068A179A18AA19BA10E94E53568A378A71F
:105120001C0188A198A5D1018093980390939903BD
:10513000A0939A03B0939B0380904A0190904B01F7
:10514000A0904C01B0904D01C0904601D090470115
:10515000E0904801F09049014090AB035090AC03BF
:105160006090AD037090AE0380919403909195038D
:10517000A0919603B091970388AB99ABAAABBBAB58
:1051800020E030E0A901C701B6010E94F9361816E7
:105190001CF0C12CD12C7601A70196016CA57CA92D
:1051A0008DA99EA90E949A346B017C0120E030E019
:1051B000A901C501B4010E94F93618161CF0812C12
:1051C000912C540128A939A94AA95BA9C301B201AC
:1051D0000E94E435762E672E582E492E20E030E0CE
:1051E000A90168A979A98AA99BA90E9434348111CF
:1051F0008AC22C8D3D8D4E8D5F8DC701B6019058B2
:105200000E949A345B018C019B01AC01672D762DC5
:10521000852D942D0E94343487FD18C0A701960176
:105220006C8D7D8D8E8D9F8D0E949A345B018C01DB
:105230009B01AC01672D762D852D942D0E94F936AA
:10524000181624F0A72CB62C052D142D9501A801B5
:1052500068A979A98AA99BA90E94E5355B018C01FF
:10526000C501D8018093940390939503A09396036E
:10527000B09397038091A503882309F44EC0CCA076
:10528000DDA0EEA0FFA0F7FAF094F7F8F09428A1C3
:1052900038A5A101C701B6010E94F93618160CF411
:1052A000CBC228A138A5A1016CA17DA18EA19FA18F
:1052B0000E94343487FF06C09CA198A3ADA1A8A783
:1052C0002EA03FA088A198A5D10180939803909328
:1052D0009903A0939A03B0939B039501A801C7017A
:1052E000B6010E94F936181684F09501A8016CA148
:1052F0007DA18EA19FA10E9434346501780187FFB2
:1053000004C0CCA0DDA0EEA0FFA0C0929403D09278
:105310009503E0929603F09297038091930388237C
:1053200009F48EC2809145010E946B042091920382
:105330002817190629F48091B2038F7E8093B20357
:10534000809144010E946B04209192032817190652
:1053500029F48091B20380618093B203809191031C
:10536000882311F1809143010E946B0420919003E6
:105370002817190609F068C280918F03882321F04D
:105380008091B20385FF10C0109298031092990388
:1053900010929A0310929B0310929403109295031B
:1053A00010929603109297038091B20383FF10C06E
:1053B000109298031092990310929A0310929B03F3
:1053C00010929403109295031092960310929703F3
:1053D00084FF10C0109298031092990310929A03C0
:1053E00010929B03109294031092950310929603CF
:1053F00010929703B091AF03B8A38090940390905C
:105400009503A0909603B0909703BB2309F419C3AA
:1054100020E030E0A901C501B4010E94F936181658
:105420000CF018C22FE632E143E85AE3C501B4019B
:105430000E94F93687FF19C2C0909803D090990353
:10544000E0909A03F0909B0320E030E0A901C701AF
:10545000B6010E94F93618160CF0E7C22FE632E1C9
:1054600043E85AE3C701B6010E94F93687FFFDC140
:1054700060E0FCC1823009F032CB20E030E0A901CD
:10548000C701B6010E94F9361816C4F52FE632E1BD
:1054900043E85AE3C701B6010E94F93618160CF426
:1054A000A2CAC090BA03D090BB03E090BC03F090B6
:1054B000BD0320E030E0A901C701B6010E94F93622
:1054C00018163CF52FE632E143E85AE3C701B6016E
:1054D0000E94F93618160CF486CA1092B603109280
:1054E000B7031092B8031092B9031092BA03109246
:1054F000BB031092BC031092BD03F1CA2FE632E148
:1055000043E85AEBC701B6010E94343487FD6BCAE9
:10551000C8CF2FE632E143E85AEBC701B6010E943B
:10552000343487FFDACF5FCA80916003882321F08B
:105530008091B2038170D82E8091B203D0FA83F9A2
:105540008D7FD0CA8091B203FBCFC12CD12C7601C4
:1055500055CB80E090E0A0E8BFE380939D0390935B
:105560009E03A0939F03B093A00350CBB301C80147
:105570000E949A349B01AC0160E070E0CB010E9474
:10558000E435E6CBC12CD12C7601E4CB6301780164
:10559000F8CBA501940167E177EB81ED98E30E94D8
:1055A000E4357FCC812C912C90E8A92E9FEBB92E6D
:1055B000B4CCBCA1BCA7EDA1ECABFEA1FDAB2FA16F
:1055C0002EAB0ACD20E030E0A90168A179A18AA123
:1055D0009BA10E94F93618160CF04CC028A939A9D5
:1055E0004AA95BA96CA57CA98DA99EA90E949A34A1
:1055F00090582C8D3D8D4E8D5F8D0E949A347B018D
:105600008C019B01AC016D2D7C2D832D922D0E9470
:10561000343487FD18C0A30192016C8D7D8D8E8D71
:105620009F8D0E949A347B018C019B01AC016D2DF2
:105630007C2D832D922D0E94F936181624F0ED2C26
:10564000FC2C032D122D9701A80168A179A18AA134
:105650009BA10E94E53568A378A71C0120E030E0FB
:10566000A9010E94343487FF5CCD18A218A6212C12
:10567000312C57CDC501B40190582C8D3D8D4E8DE8
:105680005F8D0E949A347B018C019B01AC016D2DD2
:105690007C2D832D922D0E94343487FD20C028A5B7
:1056A00039A54AA55BA56CA57CA98DA99EA90E94D8
:1056B0009A342C8D3D8D4E8D5F8D0E949A347B01E6
:1056C0008C019B01AC016D2D7C2D832D922D0E94B0
:1056D000F936181624F0ED2CFC2C032D122D970111
:1056E000A80168A179A18AA19BA10E94E53568A3C0
:1056F00078A71C0120E030E0A9010E94F9361816B5
:105700000CF4B3CF0ECDA50194016CA57CA98DA995
:105710009EA90E949A344B015C0120E030E0A9016F
:1057200068A979A98AA99BA90E94F93618160CF0D4
:1057300043C0C501B40190582C8D3D8D4E8D5F8DB9
:105740000E949A345B018C019B01AC01672D762D80
:10575000852D942D0E94343487FD18C0A701960131
:105760006C8D7D8D8E8D9F8D0E949A345B018C0196
:105770009B01AC01672D762D852D942D0E94F93665
:10578000181624F0A72CB62C052D142D9501A80170
:1057900068A979A98AA99BA90E94E5355B018C01BA
:1057A00020E030E0A9010E94343487FF59CDA12CBC
:1057B000B12C00E010E054CDC701B60190582C8DFB
:1057C0003D8D4E8D5F8D0E949A347B018C019B0133
:1057D000AC01672D762D852D942D0E94343487FDE4
:1057E00018C0A50194016C8D7D8D8E8D9F8D0E94BA
:1057F0009A347B018C019B01AC01672D762D852DA0
:10580000942D0E94F936181624F0E72CF62C052D5D
:10581000142D9701A80168A979A98AA99BA90E94BA
:10582000E5355B018C0120E030E0A9010E94F936EA
:1058300018160CF4BCCF14CDC8A2D8A6170142CDBF
:105840008091B2038F7E88CD8091B2038062809375
:10585000B203AACD2FE632E143E85AEBC501B40109
:105860000E94343418160CF4E7CD61E08DE00E94FC
:105870009404E0914101F0914201FDA3ECA3409119
:105880003F015091400159A748A720903D01309019
:105890003E0180913B0190913C019D8F8C8FE09067
:1058A0003901F0903A01009137011091380180914F
:1058B000980390919903A0919A03B0919B038CA7B0
:1058C0009DA7AEA7BFA79C01AD01C501B4010E9471
:1058D000E5352B013C0120E030E0A9010E94343481
:1058E0008111BEC0B801012E000C880B990B0E94DB
:1058F0003B340E94C336AB012C8D3D8D37FF03C076
:10590000319521953109F801E21BF30B4E175F0722
:105910003CF0F801E20FF31F4E175F070CF4FB0198
:10592000F0938E03E0938D03A50194016CA57DA5F2
:105930008EA59FA50E94E4356B017C0120E030E03C
:10594000A9010E9434348111DBC0B101032C000C89
:10595000880B990B0E943B340E94C336AB012CA1EB
:105960003DA137FF03C0319521953109F101E21BBB
:10597000F30B4E175F073CF0F101E20FF31F4E17D8
:105980005F070CF4FB01F0938C03E0938B030E9400
:105990006B056B017C0158A1552341F088EBC816BB
:1059A0008BE0D806E104F10408F043C1809137018F
:1059B0009091380190938E0380938D0380913D01E7
:1059C00090913E0190938C0380938B03009135015D
:1059D00010913601101611061CF081E08093AF0380
:1059E0008090BA039090BB03A090BC03B090BD031D
:1059F00020E030E0A901C501B4010E94F936181673
:105A00000CF0D1C02FE632E143E85AE3C501B401FE
:105A10000E94343487FDD2C010928703109288030D
:105A20001092890310928A0304C12FE632E143E801
:105A30005AEBC701B6010E94343418160CF418CD85
:105A400014CF0E946B0526E930E040E050E00E9450
:105A5000B3356B3471058105910508F406CF08CD87
:105A600020E030E0A901C301B2010E94F936181606
:105A700014F5B701600F711F072E000C880B990BEE
:105A80000E943B346B017C016C8D7D8D600F711F1A
:105A9000072E000C880B990B0E943B34A70196013E
:105AA0000E94E435A30192010E949A34A701960155
:105AB0000E94E5351ECFB8016E197F09072E000C34
:105AC000880B990B0E943B346B017C01B801AC8DB3
:105AD000BD8D6A1B7B0B072E000C880B990B0E9457
