:100000000C9418040C9440040C9440040C94011DAE
:100010000C94A11C0C94331C0C941D1E0C944004D5
:100020000C9440040C9440040C9440040C94611D06
:100030000C9440040C9440040C9440040C94400430
:100040000C94911B0C9440040C94011C0C94DB1B2D
:100050000C9440040C9440040C9440040C94400410
:100060000C9440040C9440044E414E494E4954595E
:10007000494E46CDCCCC3D0AD7233C17B7D1387773
:10008000CC2B329595E6241FB14F0A000020410089
:1000900000C84200401C4620BCBE4CCA1B0E5AAED3
:1000A000C59D7400407A10F35A00A0724E180900E2
:1000B00010A5D4E80000E87648170000E40B5402CD
:1000C0000000CA9A3B000000E1F505000080969808
:1000D00000000040420F000000A086010000001058
:1000E0002700000000E8030000000064000000009A
:1000F000000A00000000000100000000002C76D87B
:1001000088DC674F0823DFC1DFAE59E1B1B796E560
:10011000E3E453C63AE651997696E8E6C28426EBC4
:10012000898C9B62ED407C6FFCEFBC9C9F40F2BAD7
:10013000A56FA5F490055A2AF75C936B6CF9676D6F
:10014000C11BFCE0E40D47FEF520E6B500D0ED90C4
:100150002E0300943577050080841E080000204E91
:100160000A000000C80C333333330F986E1283112A
:1001700041EF8D2114893BE65516CFFEE6DB18D101
:10018000844B381BF77C1D901DA4BBE424203284D3
:10019000725E228100C9F124ECA1E53D27414200B5
:1001A000524D0022434845434B53554D223A005D82
:1001B0002C002C002C00223A5B0022445249564568
:1001C0005F425554544F4E5F004A4F595F43414C74
:1001D00049425F434F554E540052494748545F4D82
:1001E0004F544F525F50554C5345004C4546545F59
:1001F0004D4F544F525F50554C5345005350454559
:10020000445F4B4E4F425F464153545F56414C0052
:1002100053504545445F4B4E4F425F534C4F575FE1
:1002200056414C0052494748545F4D4F544F525F1E
:10023000464153540052494748545F4D4F544F5222
:100240005F534C4F570052494748545F4D4F544FEE
:10025000525F43454E544552004C4546545F4D4F06
:10026000544F525F46415354004C4546545F4D4FE6
:10027000544F525F534C4F57004C4546545F4D4FBF
:10028000544F525F43454E54455200595F444541D7
:10029000445A4F4E4500434F4E54524F4C5F444FCB
:1002A000574E00434F4E54524F4C5F43454E5445BA
:1002B000525F5900434F4E54524F4C5F55500058B7
:1002C0005F444541445A4F4E4500434F4E54524FB0
:1002D0004C5F4C45465400434F4E54524F4C5F4385
:1002E000454E5445525F5800434F4E54524F4C5F59
:1002F00052494748540063757272656E7420736585
:100300007474696E67732C2076657273696F6E3AC8
:10031000007B00000000006410B71DC8206E3BACDD
:1003200030D9269041DC76F4516B6B5861B24D3C6C
:100330007105502083B8ED44930FF0E8A3D6D68C16
:10034000B361CBB0C2649BD4D2D38678E20AA01C3E
:10035000F2BDBD2276616C7565223A2022002273BF
:10036000657474696E67223A2022007B227265737D
:10037000756C74223A20226368616E676522007B87
:1003800022726573756C74223A20226E6F20636846
:10039000616E6765227D007B22726573756C7422C5
:1003A0003A202273746F70706564227D007B227224
:1003B0006573756C74223A20226D6F76656D656E7B
:1003C0007420616C6C6F776564227D007B2272659E
:1003D00073756C74223A20227361766564227D0005
:1003E000424148004642004E4200554F42004E53A3
:1003F000550053504800535000555353004E52532C
:10040000005250500052435000525450005253502A
:10041000005552005354454552494E475F4F46469A
:100420005F5357495443485F50494E005354454524
:1004300052494E475F4F46465F5357495443480021
:100440002276616C7565223A5B002273657474696B
:100450006E67223A2022007B22726573756C7422CB
:100460003A20226368616E676522004E554D5F44F5
:10047000524956455F425554544F4E5300425341E2
:100480004800425554544F4E5F4D4F44455F5049CC
:100490004E00424D54005553455F425554544F4E03
:1004A0005F4D4F44455F50494E00454E41424C45DB
:1004B0005F425554544F4E5F4354524C0053544185
:1004C00052545F4D4F544F525F50554C53455F54FB
:1004D000494D4500454E41424C455F5354415254AD
:1004E00055505F50554C53450052494748545F4D55
:1004F0004F544F525F434F4E54524F4C4C45525FF6
:1005000050494E004C4546545F4D4F544F525F4347
:100510004F4E54524F4C4C45525F50494E004A4F3B
:10052000595F595F50494E004A4F595F585F5049D3
:100530004E0053504545445F4B4E4F425F50494E2D
:10054000005343414C455F414343454C5F57495439
:10055000485F5350454544005553455F535045450A
:10056000445F4B4E4F4200524556455253455F54EF
:1005700055524E5F494E5F524556455253450053C2
:1005800043414C455F5455524E494E475F5748458D
:100590004E5F4D4F56494E47005455524E5F535093
:1005A00045454400464153544553545F4241434BF3
:1005B0005741524400464153544553545F464F52AD
:1005C0005741524400444543454C45524154494FDC
:1005D0004E5F5455524E494E4700414343454C45AA
:1005E000524154494F4E5F5455524E494E47004474
:1005F0004543454C45524154494F4E5F4241434B60
:100600005741524400414343454C45524154494FA0
:100610004E5F4241434B5741524400444543454C91
:1006200045524154494F4E5F464F52574152440044
:10063000414343454C45524154494F4E5F464F520A
:100640005741524400E802D702CA02BF02B402A3D3
:100650000296028B0230061B060506EF05DA05C579
:1006600005B505A40599057F056705790269025955
:100670000246023502240258051002FC01410532EF
:100680000528051E050405E904D404EB01D901BDC4
:1006900004C901AA049604920482047D046B042C0C
:1006A000041404F903F603F203EE03EA03E703E498
:1006B00003E00311040D04090401040504FD03A073
:1006C000019D017B226572726F72223A202265655C
:1006D00070726F6D206661696C757265227D007B3A
:1006E000226572726F72223A2022656570726F6D98
:1006F000206661696C757265227D002C2243484535
:10070000434B53554D223A0022625F6D5F70223A8F
:1007100000627574746F6E73006A6F794F4B006D71
:100720006F76656D656E74416C6C6F776564007390
:10073000706565644B6E6F6256616C0072696768C4
:10074000744D6F746F72577269746556616C006C8A
:100750006566744D6F746F72577269746556616C1B
:10076000007370656564546F4472697665007475D2
:10077000726E546F4472697665007370656564507B
:10078000726F636573736564007475726E50726F17
:10079000636573736564007370656564496E707535
:1007A00074007475726E496E707574006A6F795951
:1007B00056616C006A6F795856616C00637572728D
:1007C000656E742076616C7565732C206D696C6C38
:1007D00069733A0000000000240027002A0000008E
:1007E0000000250028002B00000000002300260048
:1007F00029000404040404040404020202020202A4
:1008000003030303030301020408102040800102D4
:100810000408102001020408102000000008000253
:1008200001000003040700000000000000003A1F60
:1008300011241FBECFEFD8E0DEBFCDBF12E0A0E095
:10084000B1E0E8E4F5E702C005900D92A43BB107E2
:10085000D9F724E0A4EBB2E001C01D92A836B2079C
:10086000E1F714E0C8E1D4E004C02197FE010E9442
:10087000CE37C731D107C9F70E94B11F0C94A23AF5
:100880000C940000833081F028F4813099F082309C
:10089000A9F008958730A9F08830C9F08430B1F408
:1008A000809180008F7D03C0809180008F7780933E
:1008B0008000089584B58F7784BD089584B58F7DB9
:1008C000FBCF8091B0008F778093B0000895809126
:1008D000B0008F7DF9CFCF93DF93282F30E0F9015F
:1008E000E65EF74F8491F901EA5FF74FD491F90181
:1008F000EE50F84FC491CC23A1F081110E94420424
:10090000EC2FF0E0EE0FFF1FE851F84FA591B491E6
:10091000EC91ED2381E090E009F480E0DF91CF914C
:10092000089580E090E0FACF1F93CF93DF93282FB4
:1009300030E0F901E65EF74F8491F901EA5FF74F85
:10094000D491F901EE50F84FC491CC23A9F0162FA1
:1009500081110E944204EC2FF0E0EE0FFF1FE252E3
:10096000F84FA591B4918FB7F894EC91111108C08C
:10097000D095DE23DC938FBFDF91CF911F91089537
:10098000DE2BF8CFCF93DF9390E0FC01EA5FF74FC7
:1009900024918E50984FFC0184918823C9F090E0F7
:1009A000880F991FFC01EC52F84FA591B491FC01FE
:1009B000E252F84FC591D49161110DC09FB7F894E0
:1009C0008C91209582238C938881282328839FBF34
:1009D000DF91CF910895623051F49FB7F8943C9124
:1009E000822F809583238C93E8812E2BEFCF8FB7B6
:1009F000F894EC912E2B2C938FBFEACF8E3008F019
:100A00008E508770806480937C0080917A0080642F
:100A100080937A0080917A0086FDFCCF80917800E7
:100A20009091790008953FB7F89480919803909140
:100A30009903A0919A03B0919B0326B5A89B05C08A
:100A40002F3F19F00196A11DB11D3FBFBA2FA92F4D
:100A5000982F8827BC01CD01620F711D811D911D4A
:100A600042E0660F771F881F991F4A95D1F70895B6
:100A70008F929F92AF92BF92CF92DF92EF92FF92AE
:100A80006B017C010E9413054B015C01C114D10470
:100A9000E104F104B9F00E941305681979098A0983
:100AA0009B09683E73408105910580F321E0C21ADD
:100AB000D108E108F10888EE880E83E0981EA11C99
:100AC000B11CE4CFFF90EF90DF90CF90BF90AF903C
:100AD0009F908F9008952FB7F89460919403709130
:100AE000950380919603909197032FBF0895AF923D
:100AF000BF92CF92DF92EF92FF920F931F93CF930B
:100B0000DF936C017B018B01040F151FEB015E016C
:100B1000AE18BF08C017D10759F06991D601ED9101
:100B2000FC910190F081E02DC6010995892B79F7A0
:100B3000C501DF91CF911F910F91FF90EF90DF9052
:100B4000CF90BF90AF900895FC01538D448D252F19
:100B500030E0842F90E0821B930B541710F0CF9657
:100B6000089501970895FC01918D828D981761F089
:100B7000A28DAE0FBF2FB11D5D968C91928D9F5FA0
:100B80009F73928F90E008958FEF9FEF0895FC017F
:100B9000918D828D981731F0828DE80FF11D858D32
:100BA00090E008958FEF9FEF0895FC01918D228DC5
:100BB000892F90E0805C9F4F821B91098F7399274A
:100BC00008958CE993E00E94D50521E0892B09F472
:100BD00020E0822F089580E090E0892B29F00E9488
:100BE000E10581110C9400000895FC01A48DA80F6B
:100BF000B92FB11DA35ABF4F2C91848D90E001965F
:100C00008F739927848FA689B7892C93A089B1897E
:100C10008C91837080648C93938D848D981306C01F
:100C20000288F389E02D80818F7D80830895EF9283
:100C3000FF920F931F93CF93DF93EC0181E0888F96
:100C40009B8D8C8D98131AC0E889F989808185FF66
:100C500015C09FB7F894EE89FF896083E889F98908
:100C600080818370806480839FBF81E090E0DF910A
:100C7000CF911F910F91FF90EF900895F62E0B8D5D
:100C800010E00F5F1F4F0F731127E02E8C8D8E1118
:100C90000CC00FB607FCFACFE889F989808185FF7F
:100CA000F5CFCE010E94F505F1CFEB8DEC0FFD2FB6
:100CB000F11DE35AFF4FF0829FB7F8940B8FEA893A
:100CC000FB8980818062CFCF0F931F93CF93DF93F7
:100CD0008C01D0E0C0E0F801EC0FFD1F64916623A9
:100CE00041F08CE993E00E941706892B11F02196C0
:100CF000F2CFCE01DF91CF911F910F910895CF9345
:100D0000DF93EC01888D8823B9F0AA89BB89E88933
:100D1000F9898C9185FD03C0808186FD0DC00FB6D9
:100D200007FCF7CF8C9185FFF2CF808185FFEDCF57
:100D3000CE010E94F505E9CFDF91CF910895089586
:100D4000DC01EC91EC3090F511968C91119728E82C
:100D500030E0281B310987FD3395220F331F220F06
:100D6000331F6217730784F012968C9128E532E0E6
:100D7000281B310987FD3395220F331F220F331FA4
:100D8000621773070CF49B0122503109220F331FA5
:100D90004FB7F8948E2F90E0FC01EE0FFF1FE80F85
:100DA000F91FE75CFB4F328321834FBF08951F93E8
:100DB000CF93DF93EC01162F88818C3008F04EC062
:100DC00061E0812F0E94C2048881282F30E0F90160
:100DD000EE0FFF1FE20FF31FE75CFB4F1F736081F5
:100DE000607C612B608319821A822CE0622F0E9442
:100DF000C237829FB001112430E020E0AB01420FE6
:100E0000531FFA01EE0FFF1FE40FF51FE75CFB4FC6
:100E1000908196FD16C02F5F3F4F2C30310571F742
:100E200081110FC01092800082E0809381001092A7
:100E3000850010928400B19A80916F008260809347
:100E40006F00E8818E2F90E0FC01EE0FFF1FE80F8E
:100E5000F91FE75CFB4F8081806480838881DF918C
:100E6000CF911F9108950F931F93E42FE627EF7002
:100E700024E0E29FF0011124ED5EFC4F05911591F5
:100E80002591349154E096958795779567955A9575
:100E9000D1F76027712782279327E42FE295EF701F
:100EA000E627EF7024E0E29FF0011124ED5EFC4F95
:100EB0000591159125913491E4E096958795779564
:100EC0006795EA95D1F760277127822793271F91AD
:100ED0000F9108950E94640620914C0330914D03B8
:100EE000820F931F90934D0380934C0308952F928C
:100EF0003F924F925F926F927F928F929F92AF92AA
:100F0000BF92CF92DF92EF92FF920F931F93CF93F6
:100F1000DF93EC016A01790117FF02C010E000E0E5
:100F20006E157F050CF019C11601201A310AC21581
:100F3000D3050CF093C0621573050CF08FC0072E1B
:100F4000000C880B990B0E94FA344B015C01BE0126
:100F50000D2E000C880B990B0E94FA34A501940108
:100F60000E94A3362B013C01B101330C880B990B75
:100F70000E94FA34A50194010E94A3369B01AC01A2
:100F8000C301B2010E94103720E030E040E85FE387
:100F90000E94A3364B015C010C0D1D1D0C171D0793
:100FA0009CF50E151F0584F5B701FF0C880B990BF6
:100FB0000E94FA346B017C01BE01DD0F880B990B96
:100FC0000E94FA34A70196010E94A3364B015C01EE
:100FD000B7FAB094B7F8B094B801110F880B990B19
:100FE0000E94FA34A70196010E94A3369B01AC012E
:100FF000C501B4010E94103720E030E040E85FE313
:101000000E94A4364B015C0120E030E040E85FEB39
:10101000C501B4010E94F33487FD91C020E030E0A7
:1010200040E85FE3C501B4010E94B83718160CF41C
:101030008DC0C501B401DF91CF911F910F91FF9039
:10104000EF90DF90CF90BF90AF909F908F907F9068
:101050006F905F904F903F902F900895812C912C2E
:1010600054019ACF18012C0C3D1C2C163D060CF097
:1010700062C0261637060CF05EC0072E000C880BE7
:10108000990B0E94FA344B015C01BE010D2E000C3D
:10109000880B990B0E94FA34A50194010E94A33693
:1010A0002B013C01B101330C880B990B0E94FA34DF
:1010B000A50194010E94A3369B01AC01C301B201BA
:1010C0000E94103720E030E040E85FE30E94A33642
:1010D0004B015C01C01AD10ACC15DD050CF094CF90
:1010E000EC14FD040CF090CFB701FF0C880B990BAA
:1010F0000E94FA344B015C01BE01DD0F880B990B95
:101100000E94FA34A50194010E94A3362B013C01F0
:1011100077FA709477F87094B601DD0C880B990B10
:101120000E94FA34A50194010E94A3369B01AC01F0
:10113000C301B2015FCF812C912C5401CBCF812C04
:10114000912C90E8A92E9FEBB92E73CF812C912C76
:1011500080E8A82E8FE3B82E6CCFE616F7060CF4C5
:1011600081CF812C912C540164CFAF92BF92CF924A
:10117000DF92EF92FF920F931F93CF93DF9398E24A
:10118000A92E91E0B92E2CE2E22E21E0F22E85016B
:1011900062E0D8018D918D010E94C204E016F10633
:1011A000B9F7EDEBF1E085ECC82E81E0D82E41E0F7
:1011B00050E021913191E50189915E01863188F5F8
:1011C00090E1883050F091E08E3008F490E0990F73
:1011D000990F990F8E3018F58850890FA82FA69572
:1011E000A695A69509F081C081111DC0309301011B
:1011F000209300018A0101C0000F8A95EAF7202F91
:101200008091DB02802B8093DB028091D802802BBF
:101210008093D80283B18093DE0280E030C08E508C
:10122000DCCF8FEFDBCF813029F4309303012093A3
:101230000201E0CF823009F042C0309305012093D3
:10124000040187708A0101C0000F8A95EAF7202FF8
:101250008A2F90E0BC0165527D4FEB013881302B25
:101260003883BC0168527D4FEB013881302B3883C5
:10127000A13009F454C070F2A23009F493C0B0E078
:10128000A559BF4F9C91292B2C93909168009A01EE
:1012900001C0220F8A95EAF7892F822B809368007C
:1012A000CE16DF0609F085CFDF91CF911F910F9108
:1012B000FF90EF90DF90CF90BF90AF900895833074
:1012C00029F43093070120930601BBCF843029F421
:1012D0003093090120930801B4CF853009F08ACFFB
:1012E00030930B0120930A01ACCFA13009F040C02C
:1012F0008830D9F430930D0120930C0187708A0156
:1013000001C0000F8A95EAF7202F8091DC02802B24
:101310008093DC028091D902802B8093D90286B120
:101320008093DF0281E090E0AACF893029F43093E6
:101330000F0120930E01E2CF8A3029F4309311017E
:1013400020931001DBCF8B3029F4309313012093CD
:10135000120177CF8C3029F43093150120931401BA
:1013600070CF8D3059F6309317012093160169CF55
:10137000A23009F095CF8031D9F430932101209328
:10138000200187708A0101C0000F8A95EAF7202F9B
:101390008091DD02802B8093DD028091DA02802B28
:1013A0008093DA0289B18093E00282E090E067CF17
:1013B000813129F43093230120932201E2CF82313D
:1013C00029F43093250120932401DBCF833129F4C4
:1013D0003093270120932601D4CF843129F4309310
:1013E000190120931801CDCF853129F430931B01C9
:1013F00020931A0126CF863129F430931D012093C2
:101400001C011FCF873109F0BCCF30931F012093FF
:101410001E0117CFCF92DF92EF92FF920F931F938F
:10142000CF93DF93C82FD0E0FE01E85DFE4F8081AF
:101430000E946B048E01000F111F000F111F0197F6
:10144000E1F40E941305F801E95CFC4F60837183AD
:10145000828393830E946B056093470370934803D4
:101460008093490390934A03DF91CF911F910F918D
:10147000FF90EF90DF90CF9008950E941305095CD4
:101480001C4FF801C080D180E280F3806C197D0987
:101490008E099F09613771418140910528F70E94AB
:1014A0001305F8010081118122813381601B710BCA
:1014B000820B930B8B019C01055F114021093109BF
:1014C0000F3C17402105310578F6683E23E072078E
:1014D0007CF0613D47E0740714F060ED77E06C5DEF
:1014E0007540CC0FDD1FC15DDC4F79836883BCCFB5
:1014F0006CE07EEFF6CF83E00C940A0A82E00C9455
:101500000A0A81E00C940A0A80E00C940A0AFC01A1
:1015100001900020E9F73197AF01481B590BBC013E
:101520008CE993E00C9477058F929F92AF92BF92D3
:101530000F931F93CF93DF93CDB7DEB7A1970FB66D
:10154000F894DEBF0FBECDBF19A2423008F44AE0C6
:101550008E010F5D1F4F842E912CB12CA12CA50163
:1015600094010E947236E62FB901CA01EA30F4F400
:10157000E05DD801EE938D01232B242B252B79F7E9
:1015800090E080E0109719F0CD010E94870AA196A3
:101590000FB6F894DEBF0FBECDBFDF91CF911F9184
:1015A0000F91BF90AF909F908F900895E95CE1CF2D
:1015B000CF92DF92EF92FF92CF93DF936B017C018A
:1015C0006DE28CE993E00E941706EC01662777270D
:1015D000CB016C197D098E099F094AE00E94940A8B
:1015E0008C0F9D1FDF91CF91FF90EF90DF90CF90F8
:1015F0000895009711F00C94870A90E080E0089518
:10160000CF93DF930E94870AEC0184E292E00E946C
:10161000870A8C0F9D1FDF91CF910895CF93DF93A1
:101620000E946406EC0184E292E00E94870A8C0F1B
:101630009D1FDF91CF9108950F931F93CF938C013E
:10164000C62F80914C0390914D03039690934D03C8
:1016500080934C038DEA92E00E94F90AC8010E942F
:10166000640620914C0330914D03820F931F909399
:101670004D0380934C0387E292E00E94F90A8AE2CC
:1016800092E0C11102C081E392E00E94870A20919A
:101690004C0330914D03820F931F90934D03809321
:1016A0004C03CF911F910F9108950F931F93CF93E8
:1016B000DF938C01EB0180914C0390914D030596D3
:1016C00090934D0380934C038DEA92E00E94F90AB7
:1016D000C8010E94640620914C0330914D03820F93
:1016E000931F90934D0380934C0387E292E00E94F6
:1016F000F90ABE01DD0F880B990B97FF14C00E94F9
:10170000D80A20914C0330914D03820F931F909380
:101710004D0380934C0387E992E0DF91CF911F91B5
:101720000F910C94F90A4AE00E94940AEACFBC0196
:10173000990F880B990B97FD0C94D80A4AE00C94EA
:10174000940A4F925F926F927F928F929F92AF9284
:10175000BF92CF92DF92EF92FF920F931F93CF939E
:101760006B017C01742EAC019B010E94BD37882364
:1017700099F089E392E0CF911F910F91FF90EF9044
:10178000DF90CF90BF90AF909F908F907F906F90A1
:101790005F904F900C94870A46015701E894B7F880
:1017A0002FEF3FEF4FE75FE7C501B4010E94BD3760
:1017B00081110DC02FEF3FEF4FE75FE7C501B40187
:1017C0000E94F33418161CF48DE392E0D4CF2FEF6F
:1017D0003FEF4FE75FE4C701B6010E94B837181624
:1017E0001CF481E492E0C7CF2FEF3FEF4FE75FECAF
:1017F000C701B6010E94F33487FDF3CF20E030E04B
:10180000A901C701B6010E94F33410E000E087FF90
:101810000AC06DE28CE993E00E9417068C01F7FA8A
:10182000F094F7F8F094C0E060E070E080E09FE3AF
:101830007C1641F020E030E040E251E40E94103795
:10184000CF5FF6CFA70196010E94A4362B013C0181
:101850000E9489374B015C014AE00E94940A7C0196
:10186000E00EF11ECC23C1F1C501B4010E94F83491
:101870009B01AC01C301B2010E94A3364B015C0184
:101880006EE28CE993E00E941706E80EF91EC15043
:1018900018F120E030E040E251E4C501B4010E94BB
:1018A00059352B013C010E9489374B01B12CA12CE9
:1018B0004AE0C501B4010E94940AE80EF91EC50170
:1018C000B4010E94F8349B01AC01C301B2010E9433
:1018D000A3364B015C01DBCFC701CF911F910F9164
:1018E000FF90EF90DF90CF90BF90AF909F908F9040
:1018F0007F906F905F904F900895CF92DF92EF921C
:10190000FF92CF93DF93EC016A017B0180914C033E
:1019100090914D03059690934D0380934C038DEA6F
:1019200092E00E94F90ACE010E94640620914C03C5
:1019300030914D03820F931F90934D0380934C037E
:1019400087E292E00E94F90A44E0C701B6010E94D2
:10195000A10B20914C0330914D03820F931F909364
:101960004D0380934C0387E992E0DF91CF91FF9084
:10197000EF90DF90CF900C94F90A0F931F93CF93C1
:10198000DF9382E090E090934D0380934C0381E1DC
:1019900093E00E94640664E170E086EF92E00E94AA
:1019A000550B6091B7017091B80188EE92E00E94EA
:1019B000550B6091B5017091B60187ED92E00E94E0
:1019C000550B6091B3017091B4018AEC92E00E94D2
:1019D000550B6091B9017091BA018FEB92E00E94B2
:1019E000550B6091AF017091B00184EB92E00E94C1
:1019F000550B6091AD017091AE0183EA92E00E94B7
:101A0000550B6091AB017091AC0186E992E00E94A8
:101A1000550B6091B1017091B2018BE892E00E9488
:101A2000550B40914F0150915001609151017091BF
:101A3000520180E396E00E947D0C40915301509149
:101A4000540160915501709156018BE196E00E941E
:101A50007D0C40915701509158016091590170914E
:101A60005A0185E096E00E947D0C40915B01509107
:101A70005C0160915D0170915E018FEE95E00E94C6
:101A80007D0C409146015091470160914801709151
:101A900049018AED95E00E947D0C40914A015091E8
:101AA0004B0160914C0170914D0185EC95E00E94D5
:101AB0007D0C4091630150916401609165017091CA
:101AC000660185EB95E00E947D0C40916701509185
:101AD00068016091690170916A0184EA95E00E9451
:101AE0007D0C40916B0150916C0160916D01709182
:101AF0006E0189E995E00E947D0C40915F01509153
:101B0000600160916101709162018FE795E00E9430
:101B10007D0C6091690387E695E00E941C0B609143
:101B200037017091380189E792E00E94550B60916E
:101B3000390170913A0189E692E00E94550B60915B
:101B40003B0170913C0189E592E00E94550B609148
:101B50003D0170913E0186E492E00E94550B609138
:101B60003F017091400185E392E00E94550B609126
:101B700041017091420184E292E00E94550B609114
:101B8000720388E595E00E941C0B609170017091D2
:101B9000710180E192E00E94550B60917003709199
:101BA00071038CEF91E00E94550B60914E0181E42E
:101BB00095E00E941C0B60916F0170E082E395E05C
:101BC0000E94550B6091BC0170E088E295E00E9494
:101BD000550B6091BB0170E08EE195E00E94550BC2
:101BE00060912D0170E084E095E00E94550B6091BA
:101BF0002C0170E089EE94E00E94550B60912E015B
:101C000084ED94E00E941C0B6091330170913401CB
:101C10008BEE91E00E94550B609131017091320181
:101C200089ED91E00E94550B60912F017091300178
:101C30008DEB94E00E94550B609135017091360157
:101C400089EC91E00E94550B609182038AEA94E04E
:101C50000E941C0B60917D0386E994E00E941C0B9E
:101C60006091AA0170E082E894E00E94550B6091B7
:101C7000810382E994E00E941C0B609180038DE750
:101C800094E00E941C0B6091A90170E08BE694E047
:101C90000E94550BC3E7D1E001E010E08AEB91E030
:101CA0000E946A07C8010E94970B20914C03309153
:101CB0004D03820F931F90934D0380934C0386EB4B
:101CC00091E00E946A07688170E090E080E04AE05D
:101CD0000E94940A20914C0330914D03820F931F70
:101CE00090934D0380934C0384EB91E00E946A072C
:101CF00069817A818B819C8144E00E94A10B2091B3
:101D00004C0330914D03820F931F90934D038093AA
:101D10004C0382EB91E00E946A076D817E818F8186
:101D2000988544E00E94A10B20914C0330914D0313
:101D3000820F931F90934D0380934C038FEA91E0A1
:101D40000E946A070F5F1F4F29960730110509F09F
:101D5000A5CF609173038CE294E00E941C0B60910C
:101D6000720170E084E194E00E94550B60914B0396
:101D700081E194E00E941C0B6091280170E08DE0ED
:101D800094E00E94550B6091290170E089E094E095
:101D90000E94550B60912A0170E085E094E00E945A
:101DA000550B60912B0170E081E094E00E94550B8F
:101DB00060912E038DEF93E00E941C0B60915E03F7
:101DC00089EF93E00E941C0B6091430170E086EF65
:101DD00093E00E94550B60915D0382EF93E00E94B7
:101DE0001C0B60915C038EEE93E00E941C0B6091D3
:101DF00060038AEE93E00E941C0B6091450170E045
:101E000087EE93E00E94550B6091440170E084EEF0
:101E100093E00E94550B60915F0380EE93E00E9477
:101E20001C0B83EA91E00E946A0780914C03909119
:101E30004D0304960E94970B8BE992E0DF91CF91BE
:101E40001F910F910C94000B65E472E0811102C0A8
:101E50006AE472E088EC92E00C94FA370C94223633
:101E6000CF92DF92EF92FF920F931F93CF93DF9366
:101E7000EC018B01C090E102D090E202E090E3021D
:101E8000F090E402FB016081888199810E942E0F0D
:101E900088819981F801608188539F4F0E942E0F9D
:101EA00088819981F801608180579E4F0E942E0F92
:101EB000F8014081C701B6010E94330728813981AA
:101EC0002F5F3F4F398328836093E1027093E202D2
:101ED0008093E3029093E402DF91CF911F910F91E1
:101EE000FF90EF90DF90CF900895AF92BF92CF9286
:101EF000DF92EF92FF920F931F93CF93DF938C01AA
:101F0000EB01C090E102D090E202E090E302F09099
:101F1000E4025B0184E0A80EB11C6881F8018081B5
:101F200091810E942E0FF8018081918168818853F0
:101F30009F4F0E942E0FF801808191816881805708
:101F40009E4F0E942E0F4991C701B6010E94330790
:101F50006B017C01F80180819181019691838083DE
:101F6000AC16BD06D1F6C092E102D092E202E09238
:101F7000E302F092E402DF91CF911F910F91FF9065
:101F8000EF90DF90CF90BF90AF900895AF92BF9247
:101F9000CF92DF92EF92FF920F931F93CF93DF9335
:101FA0008C01EB01C090E102D090E202E090E302EC
:101FB000F090E4025B0182E0A80EB11C6881F80198
:101FC000808191810E942E0FF8018081918168812A
:101FD00088539F4F0E942E0FF80180819181688164
:101FE00080579E4F0E942E0F4991C701B6010E9453
:101FF00033076B017C01F801808191810196918307
:102000008083AC16BD06D1F6C092E102D092E20206
:10201000E092E302F092E402DF91CF911F910F91E1
:10202000FF90EF90DF90CF90BF90AF900895CF9248
:10203000DF92EF92FF920F931F93CF93DF93EC0108
:102040008B01C090E102D090E202E090E302F090B8
:10205000E402FB016081888199810E942E0F8881B2
:102060009981F801608188539F4F0E942E0F8881CB
:102070009981F801608180579E4F0E942E0FF801D0
:102080004081C701B6010E943307288139812F5F43
:102090003F4F398328836093E1027093E20280937B
:1020A000E3029093E402DF91CF911F910F91FF9093
:1020B000EF90DF90CF900895CF92DF92EF92FF9252
:1020C0000F931F93CF93DF9300D0CDB7DEB781E09E
:1020D00090E09A8389831092E1021092E2021092BA
:1020E000E3021092E40267EB71E0CE0101960E94D8
:1020F000C60F65EB71E0CE0101960E94C60F63EB3F
:1021000071E0CE0101960E94C60F69EB71E0CE012D
:1021100001960E94C60F6FEA71E0CE0101960E94FF
:10212000C60F6DEA71E0CE0101960E94C60F6BEA00
:1021300071E0CE0101960E94C60F61EB71E0CE0105
:1021400001960E94C60F6FE471E0CE0101960E94D5
:10215000750F63E571E0CE0101960E94750F67E58A
:1021600071E0CE0101960E94750F6BE571E0CE0122
:1021700001960E94750F66E471E0CE0101960E94FF
:10218000750F6AE471E0CE0101960E94750F63E657
:1021900071E0CE0101960E94750F67E671E0CE01F5
:1021A00001960E94750F6BE671E0CE0101960E94C8
:1021B000750F6FE571E0CE0101960E94750F69E61B
:1021C00073E0CE0101960E94300F67E371E0CE010B
:1021D00001960E94C60F69E371E0CE0101960E944C
:1021E000C60F6BE371E0CE0101960E94C60F6DE34E
:1021F00071E0CE0101960E94C60F6FE371E0CE013F
:1022000001960E94C60F61E471E0CE0101960E9422
:10221000C60F62E773E0CE0101960E94300F60E7BF
:1022200071E0CE0101960E94C60F60E773E0CE0117
:1022300001960E94C60F6EE471E0CE0101960E94E5
:10224000300F6FE671E0CE0101960E9417106CEB23
:1022500071E0CE0101960E9417106BEB71E0CE0188
:1022600001960E9417106DE271E0CE0101960E9466
:1022700017106CE271E0CE0101960E9417106EE219
:1022800071E0CE0101960E94300F63E371E0CE0150
:1022900001960E94C60F61E371E0CE0101960E9493
:1022A000C60F6FE271E0CE0101960E94C60F65E392
:1022B00071E0CE0101960E94C60F62E873E0CE0184
:1022C00001960E94300F6DE773E0CE0101960E94E7
:1022D000300F61E873E0CE0101960E94300F6AEA88
:1022E00071E0CE0101960E94171060E873E0CE0104
:1022F00001960E94300F69EA71E0CE0101960E94BA
:102300001710C090E102D090E202E090E302F0905A
:10231000E40203E711E0F801608189819A810E945B
:102320002E0F89819A81F801608188539F4F0E9406
:102330002E0F89819A81F801608180579E4F0E94FB
:102340002E0FF80141918F01C701B6010E9433079A
:102350006B017C0189819A8101969A838983F1E0DE
:10236000093A1F07C1F6C092E102D092E202E09260
:10237000E302F092E40263E773E0CE0101960E946B
:10238000300F62E771E0CE0101960E9417106EE5F2
:1023900073E0CE0101960E94300F63E471E0CE013C
:1023A00001960E9417106DE573E0CE0101960E9420
:1023B000300F6CE573E0CE0101960E94300F60E6AD
:1023C00073E0CE0101960E94300F65E471E0CE010A
:1023D00001960E94171064E471E0CE0101960E94FC
:1023E00017106FE573E0CE0101960E94300F6BE489
:1023F00073E0CE0101960E94300F68E271E0CE01D9
:1024000001960E94171069E271E0CE0101960E94C8
:1024100017106BE271E0CE0101960E9417106AE27C
:1024200071E0CE0101960E9417106EE273E0CE01BA
:1024300001960E94300FC090E102D090E202E0903D
:10244000E302F090E40201EE12E0F801608189817C
:102450009A810E942E0F89819A81F80160818853A8
:102460009F4F0E942E0F89819A81F80160818057C9
:102470009E4F0E942E0FF80141918F01C701B601B6
:102480000E9433076B017C0189819A8101969A83AE
:102490008983F2E0053E1F07C1F6C092E102D092A7
:1024A000E202E092E302F092E4020F900F90DF91DB
:1024B000CF911F910F91FF90EF90DF90CF900895F3
:1024C000AF92BF92CF92DF92EF92FF920F931F9342
:1024D000CF93DF9300D000D0CDB7DEB7E0912103DA
:1024E000F0E0EB51FD4F108260E572E085EE92E086
:1024F0000E9417317C0160E572E090E080E00E946C
:1025000017318C01E8ECF2E08FE0DF011D928A9533
:10251000E9F7EBEEAE2EE1E0BE2ED12CC12CD501B9
:10252000ED91FD915D01EE0FFF1FEB5BF94F6591A2
:10253000749184EB92E00E94103164EB72E0C70169
:102540000E94F137892B79F4C8010E94E930F60125
:10255000EE0FFF1FEB53FE4F0190F081E02D8083C3
:1025600091839F938EC2BFEFCB1ADB0AE3E1CE16B5
:10257000D104A9F660E376E0C7010E940731892BF8
:1025800009F03EC0C8010E94E53020E030E0A9011A
:102590000E94B83718167CF5C8010E94E530609398
:1025A0004F0170935001809351019093520108ECB8
:1025B00012E024E040E00E94C7308BE693E00E94E6
:1025C000640687E992E00E94F90A8EE593E00E9492
:1025D0006406C7010E94F90A86E992E00E94F90A9E
:1025E00083E593E00E94640688EC92E00E94F90A79
:1025F0008AE992E0C6C4C8010E94E5309058CFCF66
:102600006BE176E0C7010E940731892BD9F4C8013C
:102610000E94E53020E030E0A9010E94B83718168A
:1026200064F4C8010E94E530609353017093540133
:102630008093550190935601BACFC8010E94E530AE
:102640009058F2CF65E076E0C7010E940731892BF0
:10265000D9F4C8010E94E53020E030E0A9010E94D1
:10266000B837181664F4C8010E94E530609357012A
:10267000709358018093590190935A0198CFC801E3
:102680000E94E5309058F2CF6FEE75E0C7010E94CE
:102690000731892BD9F4C8010E94E53020E030E0F1
:1026A000A9010E94B837181664F4C8010E94E530E9
:1026B00060935B0170935C0180935D0190935E0178
:1026C00076CFC8010E94E5309058F2CF6AED75E0F0
:1026D000C7010E940731892BD9F4C8010E94E53057
:1026E00020E030E0A9010E94B837181664F4C80150
:1026F0000E94E53060934601709347018093480142
:102700009093490154CFC8010E94E5309058F2CF10
:1027100065EC75E0C7010E940731892BD9F4C80127
:102720000E94E53020E030E0A9010E94B837181679
:1027300064F4C8010E94E53060934A0170934B0134
:1027400080934C0190934D0132CFC8010E94E53037
:102750009058F2CF65EB75E0C7010E940731892BD5
:1027600009F062C0C8010E94E53020E030E0A90114
:102770000E94B837181674F4C8010E94E53020E0B2
:1027800030E0A9010E94F33487FF0EC060E070E0E2
:10279000CB012CC0C8010E94E53020E030E0A90147
:1027A0000E94B837181694F3C8010E94E53020E063
:1027B00030E0A9010E94B83718160CF5C8010E9434
:1027C000E53020E030E040E85FE30E94B8371816BB
:1027D0000CF1C8010E94E53020E030E0A9010E9420
:1027E000B8371816E4F4C8010E94E530609363011D
:1027F000709364018093650190936601D8CEC801FF
:102800000E94E53020E030E040E85FEB0E94F334C6
:1028100087FFDFCF60E070E080E89FE3E7CFC8018B
:102820000E94E5309058E2CF64EA75E0C7010E944B
:102830000731892B09F062C0C8010E94E53020E011
:1028400030E0A9010E94B837181674F4C8010E943C
:10285000E53020E030E0A9010E94F33487FF0EC08C
:1028600060E070E0CB012CC0C8010E94E53020E0A0
:1028700030E0A9010E94B837181694F3C8010E94ED
:10288000E53020E030E0A9010E94B83718160CF5B9
:10289000C8010E94E53020E030E040E85FE30E949C
:1028A000B83718160CF1C8010E94E53020E030E07E
:1028B000A9010E94B8371816E4F4C8010E94E53057
:1028C00060936701709368018093690190936A0136
:1028D0006ECEC8010E94E53020E030E040E85FEBBA
:1028E0000E94F33487FFDFCF60E070E080E89FE371
:1028F000E7CFC8010E94E5309058E2CF69E975E062
:10290000C7010E940731892B09F062C0C8010E94EB
:10291000E53020E030E0A9010E94B837181674F4C1
:10292000C8010E94E53020E030E0A9010E94F334A4
:1029300087FF0EC060E070E0CB012CC0C8010E9490
:10294000E53020E030E0A9010E94B837181694F372
:10295000C8010E94E53020E030E0A9010E94B837AC
:1029600018160CF5C8010E94E53020E030E040E880
:102970005FE30E94B83718160CF1C8010E94E530D9
:1029800020E030E0A9010E94B8371816E4F4C8012D
:102990000E94E53060936B0170936C0180936D0130
:1029A00090936E0104CEC8010E94E53020E030E033
:1029B00040E85FEB0E94F33487FFDFCF60E070E018
:1029C00080E89FE3E7CFC8010E94E5309058E2CF4E
:1029D0006FE775E0C7010E940731892B61F4C801D8
:1029E0000E94E53060935F01709360018093610104
:1029F00090936201DCCD67E675E0C7010E94073164
:102A0000892B59F4C8010E94E93021E0892B09F48F
:102A100020E020936903822F82C168E575E0C70139
:102A20000E940731892B51F4C8010E94E93021E04E
:102A3000892B09F420E020937203EDCF61E475E067
:102A4000C7010E940731892B51F4C8010E94E93067
:102A500021E0892B09F420E020934E01DCCF62E3D2
:102A600075E0C7010E940731892BE9F4C8010E9473
:102A7000E93080936F0160E00E94C20480916F0191
:102A80001F928F9383E592E09F938F9388EC92E05F
:102A90009F938F930E9401380F900F900F900F908B
:102AA0000F900F908ACD68E275E0C7010E94073150
:102AB000892B59F4C8010E94E9308093BC0160E081
:102AC0000E94C2048091BC01DBCF6EE175E0C701BA
:102AD0000E940731892B59F4C8010E94E930809384
:102AE000BB0160E00E94C2048091BB01C9CF64E0D9
:102AF00075E0C7010E940731892B09F058C0609129
:102B00003D0170913E018EE594E00E94A006E091A7
:102B10005E048E2F90E0FC01EE0FFF1FE80FF91FFF
:102B2000E75CFB4F80818F7B8083609137017091E0
:102B3000380181E694E00E94A006E09161048E2FA6
:102B400090E0FC01EE0FFF1FE80FF91FE75CFB4F61
:102B500080818F7B8083C8010E94E93080932D01A2
:102B60006AE070E080E090E00E94380560912D01FD
:102B700070E081E694E00E94D70660913701709181
:102B8000380181E694E00E94A00660912C0170E07B
:102B90008EE594E00E94D70660913D0170913E0160
:102BA0008EE594E00E94A00680912D0169CF69EE28
:102BB00074E0C7010E940731892B09F058C0609169
:102BC00037017091380181E694E00E94A006E091FF
:102BD00061048E2F90E0FC01EE0FFF1FE80FF91F3C
:102BE000E75CFB4F80818F7B808360913D0170911A
:102BF0003E018EE594E00E94A006E0915E048E2FD7
:102C000090E0FC01EE0FFF1FE80FF91FE75CFB4FA0
:102C100080818F7B8083C8010E94E93080932C01E2
:102C20006AE070E080E090E00E94380560912C013D
:102C300070E08EE594E00E94D70660913D017091AE
:102C40003E018EE594E00E94A00660912D0170E0A7
:102C500081E694E00E94D7066091370170913801B7
:102C600081E694E00E94A00680912C0109CF64EDDA
:102C700074E0C7010E940731892B51F4C8010E94FA
:102C8000E93021E0892B09F420E020932E01C3CE06
:102C90006DEB74E0C7010E940731892B91F4C801E4
:102CA0000E94E930893EF3E09F0714F088EE93E03C
:102CB00097FF02C090E080E09093300180932F0155
:102CC00050CC6AEA74E0C7010E940731892B51F5A4
:102CD000C8010E94E93021E0009709F420E0209328
:102CE0008203892BD1F080917D03882329F062E053
:102CF0008091AA010E94C20410E009E08091A9011C
:102D0000181758F4019FF0011124ED58FE4F62E0AE
:102D100080810E94C2041F5FF1CF809182030E94D4
:102D2000240F4BCC66E974E0C7010E940731892B60
:102D300041F5C8010E94E93021E0009709F420E044
:102D400020937D03209182032223C1F0892B29F057
:102D500062E08091AA010E94C20410E009E0809123
:102D6000A901181758F4019FF0011124ED58FE4FE6
:102D700062E080810E94C2041F5FF1CF80917D03D9
:102D8000CECF62E974E0C7010E940731892B51F46C
:102D9000C8010E94E93021E0892B09F420E020934A
:102DA000810339CE62E874E0C7010E940731892BA4
:102DB00059F4C8010E94E9308093AA0162E00E94A0
:102DC000C2048091AA015CCE6DE774E0C7010E9445
:102DD0000731892B51F4C8010E94E93021E0892B89
:102DE00009F420E02093800316CE6BE674E0C7015F
:102DF0000E940731892B79F5C8010E94E93097FDBF
:102E000023C08730910514F58093A9018091820336
:102E10008823F1F080917D03882329F062E080917E
:102E2000AA010E94C20410E009E08091A9011817CC
:102E300078F4019FF0011124ED58FE4F62E080818B
:102E40000E94C2041F5FF1CF80E0DECF86E0DCCFBE
:102E50008091A90115CE66E572E0C7010E94F137A5
:102E6000892B09F091C0C8010E94E9306C015C0116
:102E700021E0A21AB10846E0A416B10408F0F0C19E
:102E800060E772E0C8010E94173160E772E090E0ED
:102E900080E00E9417310E94E93099E09A9D9001EC
:102EA0009B9D300D1124D901AD58BE4F7D018C93EF
:102EB00060E772E090E080E00E9417310E94E53008
:102EC000F701618372838383948360E772E090E00B
:102ED00080E00E9417310E94E530D70115966D936E
:102EE0007D938D939C93189762E08C910E94C2040D
:102EF00087E594E00E94640683E792E00E94F90A65
:102F00008AE494E00E94640684E692E00E94F90A52
:102F1000C6010E94970B82E792E00E94F90A80E4C2
:102F200094E00E946406F701608170E090E080E028
:102F30004AE00E94940A83E792E00E94F90AD701CE
:102F400011966D917D918D919C91149708EC12E0F2
:102F500024E040E00E94C730C8010E94F90A83E7DC
:102F600092E00E94F90AF701658176818781908558
:102F700024E040E00E94C730C8010E94F90A85E7BA
:102F800092E00E94000B6CC16CE274E0C7010E94E9
:102F90000731892BB9F4C8010E94E93021E000977C
:102FA00009F420E020937303892BE9F162E080911A
:102FB00072010E94C20465E472E088EC92E00E9413
:102FC000FA37FBCA64E174E0C7010E940731892B1C
:102FD00059F4C8010E94E9308093720162E00E94B6
:102FE000C204809172014CCD61E174E0C7010E947E
:102FF0000731892BD9F4C8010E94E93021E00097FC
:1030000009F420E020934B03892B59F00E94431EC2
:1030100065E472E088EC92E00E94FA370E94B508FD
:10302000CCCA0E94431E6AE472E0C7CF6DE074E030
:10303000C7010E940731892B61F40E94431EC80119
:103040000E94E930809328010E94B50880912801F0
:1030500017CD69E074E0C7010E940731892B61F444
:103060000E94431EC8010E94E930809329010E94FA
:10307000B5088091290104CD65E074E0C7010E9484
:103080000731892B61F40E94431EC8010E94E93078
:1030900080932A010E94B50880912A01F1CC61E059
:1030A00074E0C7010E940731892B61F40E94431E1E
:1030B000C8010E94E93080932B010E94B5088091DD
:1030C0002B01DECC6DEF73E0C7010E940731892B25
:1030D00051F4C8010E94E93021E0892B09F420E075
:1030E00020932E0398CC69EF73E0C7010E9407314B
:1030F000892B99F4C8010E94E93021E0009709F476
:1031000020E020935E03892B29F062E08091430147
:103110000E94C20480915E0302CE66EF73E0C70195
:103120000E940731892B79F4C8010E94E93080930D
:10313000430190915E03992319F062E00E94C2045A
:10314000809143019DCC62EF73E0C7010E9407317B
:10315000892B51F4C8010E94E93021E0892B09F440
:1031600020E020935D0357CC6EEE73E0C7010E9410
:103170000731892B51F4C8010E94E93021E0892BE5
:1031800009F420E020935C0346CC6AEE73E0C701AB
:103190000E940731892BC1F4C8010E94E93021E067
:1031A000009709F420E020936003892B51F062E03E
:1031B000809145010E94C20462E0809144010E9416
:1031C000C20480916003ABCD67EE73E0C7010E943B
:1031D0000731892B59F4C8010E94E93080934501D9
:1031E00062E00E94C204809145014ACC64EE73E023
:1031F000C7010E940731892B59F4C8010E94E930A8
:103200008093440162E00E94C2048091440138CC62
:1032100060EE73E0C7010E940731892B51F4C801A9
:103220000E94E93021E0892B09F420E020935F031C
:10323000F2CB68E772E0C7010E94F137892B39F4BD
:103240000E945C108CEC93E00E940E0B09C06DE7AD
:1032500072E0C7010E94F137892B99F40E94BD0CDE
:10326000109221030F900F900F900F90DF91CF914C
:103270001F910F91FF90EF90DF90CF90BF90AF9094
:10328000089566E872E0C7010E94F137892BA1F426
:103290001C821B8285E190E09A838983BE016F5F67
:1032A0007F4FCE0103960E94C60F68E873E180E06D
:1032B00090E00E94380581C96DE872E0C7010E9464
:1032C000F137892B91F364E972E0C7010E94F1376D
:1032D000892B31F481E0809352038DEA93E0B4CFDF
:1032E00064E872E0C7010E94F137892BA9F41092BB
:1032F0005203609137017091380181E694E00E9499
:10330000A00660913D0170913E018EE594E00E941F
:10331000A00687E993E098CF8FE793E095CF0C94D0
:103320001A36CF92DF92EF92FF920F931F93CF93B3
:10333000DF938C017B01FC01C080D180C6010E941B
:103340008F19C82FC60188539F4F0E948F19D82FFD
:10335000C60180579E4F0E948F19CD1327C0C813F6
:1033600025C0F701C0836091E1027091E202809173
:10337000E3029091E402F70140810E9433076093D9
:10338000E1027093E2028093E3029093E402F80179
:1033900080819181019691838083DF91CF911F91EC
:1033A0000F91FF90EF90DF90CF9008956C2F682BD6
:1033B0006D23C8236C2BF7016083F8018081918114
:1033C0000E942E0FF80180819181F701608188535E
:1033D0009F4F0E942E0FF80180819181F70160813B
:1033E00080579E4F0E942E0F61E08DE00E94C20424
:1033F00060E08DE00E94940464E670E080E090E07C
:103400000E94380561E08DE00E94940462E370E060
:1034100080E090E00E943805A895A5CFAF92BF92BA
:10342000CF92DF92EF92FF920F931F93CF93DF9390
:103430007C01EB016B0184E0C80ED11CF701A08078
:10344000B180C5010E948F19182FC50188539F4F65
:103450000E948F19082FC50180579E4F0E948F1917
:1034600010132AC0181328C018836091E1027091CC
:10347000E2028091E3029091E40249910E943307B5
:103480006093E1027093E2028093E3029093E4027E
:10349000F70180819181019691838083CC15DD05B0
:1034A00069F6DF91CF911F910F91FF90EF90DF9020
:1034B000CF90BF90AF900895612F682B60231823A1
:1034C000612B6883F701808191810E942E0FF701A3
:1034D00080819181688188539F4F0E942E0FF70150
:1034E00080819181688180579E4F0E942E0F61E0FC
:1034F0008DE00E94C20460E08DE00E94940464E6C6
:1035000070E080E090E00E94380561E08DE00E946C
:10351000940462E370E080E090E00E943805A89592
:10352000A4CFAF92BF92CF92DF92EF92FF920F9310
:103530001F93CF93DF937C01EB016B0182E0C80EF8
:10354000D11CF701A080B180C5010E948F19182FEE
:10355000C50188539F4F0E948F19082FC5018057BE
:103560009E4F0E948F1910132AC0181328C0188369
:103570006091E1027091E2028091E3029091E40295
:1035800049910E9433076093E1027093E2028093B5
:10359000E3029093E402F701808191810196918387
:1035A0008083CC15DD0569F6DF91CF911F910F91D6
:1035B000FF90EF90DF90CF90BF90AF900895612F74
:1035C000682B60231823612B6883F7018081918128
:1035D0000E942E0FF70180819181688188539F4F4F
:1035E0000E942E0FF70180819181688180579E4F44
:1035F0000E942E0F61E08DE00E94C20460E08DE029
:103600000E94940464E670E080E090E00E94380537
:1036100061E08DE00E94940462E370E080E090E05D
:103620000E943805A895A4CFCF92DF92EF92FF9227
:103630000F931F93CF93DF938C017B01FC01C0801C
:10364000D180C6010E948F19C82FC60188539F4F91
:103650000E948F19D82FC60180579E4F0E948F1944
:10366000CD1327C0C81325C0F701C0836091E102C4
:103670007091E2028091E3029091E402F7014081AF
:103680000E9433076093E1027093E2028093E302A9
:103690009093E402F8018081918101969183808367
:1036A000DF91CF911F910F91FF90EF90DF90CF901E
:1036B00008956C2F682B6D23C8236C2BF701608352
:1036C000F801808191810E942E0FF8018081918103
:1036D000F701608188539F4F0E942E0FF80180816F
:1036E0009181F701608180579E4F0E942E0F61E00B
:1036F0008DE00E94C20460E08DE00E94940464E6C4
:1037000070E080E090E00E94380561E08DE00E946A
:10371000940462E370E080E090E00E943805A89590
:10372000A5CF1F920F920FB60F9211242F933F93A4
:103730008F939F93AF93BF93809194039091950340
:10374000A0919603B09197033091930323E0230F48
:103750002D3758F50196A11DB11D20939303809339
:10376000940390939503A0939603B093970380914D
:10377000980390919903A0919A03B0919B030196AD
:10378000A11DB11D8093980390939903A0939A0370
:10379000B0939B03BF91AF919F918F913F912F91D8
:1037A0000F900FBE0F901F90189526E8230F0296DA
:1037B000A11DB11DD2CF1F920F920FB60F921124EF
:1037C0002F933F934F935F936F937F938F939F9329
:1037D000AF93BF93EF93FF938CE993E00E94F505BD
:1037E000FF91EF91BF91AF919F918F917F916F91D9
:1037F0005F914F913F912F910F900FBE0F901F90AF
:1038000018951F920F920FB60F9211242F938F933A
:103810009F93EF93FF93E091AC03F091AD03808110
:10382000E091B203F091B30382FD1BC090818091BF
:10383000B5038F5F8F732091B603821741F0E0913B
:10384000B503F0E0E456FC4F958F8093B503FF91EC
:10385000EF919F918F912F910F900FBE0F901F901E
:1038600018958081F4CF1F920F920FB60F921124FA
:103870002F933F934F935F936F937F938F939F9378
:10388000AF93BF93CF93EF93FF9399B18091E002F1
:10389000C091DD02C923282F2095C2232091DA028E
:1038A0008223292F20958223C82B9093E002C4FF06
:1038B00005C0E0911801F09119010995C5FF05C0F7
:1038C000E0911A01F0911B010995C6FF05C0E09136
:1038D0001C01F0911D010995C7FF05C0E0911E0173
:1038E000F0911F010995C0FF05C0E0912001F09102
:1038F00021010995C1FF05C0E0912201F09123014A
:103900000995C2FF05C0E0912401F09125010995B8
:10391000C3FF05C0E0912601F09127010995FF91B1
:10392000EF91CF91BF91AF919F918F917F916F91C7
:103930005F914F913F912F910F900FBE0F901F906D
:1039400018951F920F920FB60F9211242F933F9349
:103950004F935F936F937F938F939F93AF93BF9397
:10396000CF93EF93FF9396B18091DF02C091DC0279
:10397000C923282F2095C2232091D9028223292FE1
:1039800020958223C82B9093DF02C0FF05C0E091F1
:103990000C01F0910D010995C1FF05C0E0910E01E8
:1039A000F0910F010995C2FF05C0E0911001F0915F
:1039B00011010995C3FF05C0E0911201F0911301B7
:1039C0000995C4FF05C0E0911401F0911501099516
:1039D000C5FF05C0E0911601F09117010995FF910F
:1039E000EF91CF91BF91AF919F918F917F916F9107
:1039F0005F914F913F912F910F900FBE0F901F90AD
:103A000018951F920F920FB60F9211242F933F9388
:103A10004F935F936F937F938F939F93AF93BF93D6
:103A2000CF93EF93FF9393B18091DE02C091DB02BD
:103A3000C923282F2095C2232091D8028223292F21
:103A400020958223C82B9093DE02C0FF05C0E09131
:103A50000001F09101010995C1FF05C0E09102014B
:103A6000F09103010995C2FF05C0E0910401F091B6
:103A700005010995C3FF05C0E0910601F09107011A
:103A80000995C4FF05C0E0910801F091090109956D
:103A9000C5FF05C0E0910A01F0910B010995FF9166
:103AA000EF91CF91BF91AF919F918F917F916F9146
:103AB0005F914F913F912F910F900FBE0F901F90EC
:103AC00018951F920F920FB60F9211242F933F93C8
:103AD0004F935F936F937F938F939F93AF93BF9316
:103AE000CF93DF93EF93FF938091D702C0915D0452
:103AF000D0E087FF24C0109285001092840080914E
:103B0000D7028F5F8093D7028091D702082E000CD6
:103B1000990B8C179D0724F48091D7028C30C4F147
:103B20008091840090918500049680349C4908F42B
:103B30007AC08091840090918500049676C080912F
:103B4000D702082E000C990B8C179D07C4F6E09144
:103B5000D7028E2FEE0F990BFC01EE0FFF1FE80F1F
:103B6000F91FE75CFB4F808186FFC9CFE091D70248
:103B70008E2FEE0F990BFC01EE0FFF1FE80FF91FC0
:103B8000E75CFB4F808160E08F730E949404B7CFA5
:103B90002091840030918500E091D7028E2FEE0FA6
:103BA000990BFC01EE0FFF1FE80FF91FE75CFB4FBD
:103BB00081819281820F931F909389008093880066
:103BC000E091D7028E2FEE0F990BFC01EE0FFF1F35
:103BD000E80FF91FE75CFB4F808186FF11C0E09181
:103BE000D7028E2FEE0F990BFC01EE0FFF1FE80F8F
:103BF000F91FE75CFB4F808161E08F730E949404A2
:103C0000FF91EF91DF91CF91BF91AF919F918F91F4
:103C10007F916F915F914F913F912F910F900FBEC8
:103C20000F901F90189580E49CE9909389008093F1
:103C300088008FEF8093D702E3CF1F920F920FB6C9
:103C40000F9211242F933F934F935F936F937F9322
:103C50008F939F93AF93BF93EF93FF93A895F0E05B
:103C6000E0E00995FF91EF91BF91AF919F918F9106
:103C70007F916F915F914F913F912F910F900FBE68
:103C80000F901F901895FF920F931F93CF93DF9380
:103C9000A8E2B1E06CE271E041E050E02FE936E0EB
:103CA0008D91863108F057C090E1883058F091E04E
:103CB0008E3008F490E0990F990F990F8E3008F02C
:103CC00048C08850890F982F969596959695C82F3D
:103CD000C770911166C0811140C0309301012093DB
:103CE0000001E92FF0E08A0102C0000F111FCA9500
:103CF000E2F7F02EF0948F0105521D4FE801888104
:103D00008F2188838F0108521D4FE80188818F2100
:103D10008883E559FF4F8081CF2DC823C0838081E0
:103D200081110DC0E09168008A0102C0000F111FCF
:103D30009A95E2F7C80180958E23809368006A17F0
:103D40007B0709F0ADCFDF91CF911F910F91FF90CD
:103D500008958E50B7CF8FEFB6CF813029F43093CE
:103D6000030120930201BDCF823029F43093050175
:103D700020930401B6CF833029F4309307012093B8
:103D80000601AFCF843029F4309309012093080154
:103D9000A8CF853009F0A5CF30930B0120930A01FD
:103DA000A0CF913059F5883029F430930D0120933C
:103DB0000C0197CF893029F430930F0120930E0125
:103DC00090CF8A3029F4309311012093100189CFCC
:103DD0008B3029F4309313012093120182CF8C3061
:103DE00029F430931501209314017BCF8D3009F015
:103DF00078CF309317012093160173CF923009F0DA
:103E00009ECF803129F4309321012093200169CF86
:103E1000813129F4309323012093220162CF823132
:103E200029F430932501209324015BCF833129F4B9
:103E3000309327012093260154CF843129F4309305
:103E40001901209318014DCF853129F430931B01BE
:103E500020931A0146CF863129F430931D01209317
:103E60001C013FCF873109F03CCF30931F012093D5
:103E70001E0137CF10929F0310929E0388EE93E0AD
:103E8000A0E0B0E08093A0039093A103A093A203CD
:103E9000B093A30386E192E090939D0380939C03EB
:103EA00085EC90E09093A9038093A80384EC90E0C4
:103EB0009093AB038093AA0380EC90E09093AD03C2
:103EC0008093AC0381EC90E09093AF038093AE03BA
:103ED00082EC90E09093B1038093B00386EC90E085
:103EE0009093B3038093B2031092B5031092B6037C
:103EF0001092B7031092B80380915D048C3048F59E
:103F000091E0980F90935D048093610490E0FC0130
:103F1000EE0FFF1FE80FF91FE75CFB4F88EB9BE0FC
:103F20009283818380915D048C30B8F491E0980F86
:103F300090935D0480935E0490E0FC01EE0FFF1F00
:103F4000E80FF91FE75CFB4F88EB9BE092838183CE
:103F500008958FEF80936104E5CF8FEF80935E0427
:103F60000895CF93DF93CDB7DEB7E6970FB6F894F9
:103F7000DEBF0FBECDBF789484B5826084BD84B5AA
:103F8000816084BD85B5826085BD85B5816085BD54
:103F900080916E00816080936E001092810080910C
:103FA0008100826080938100809181008160809394
:103FB0008100809180008160809380008091B100B9
:103FC00084608093B1008091B00081608093B000E4
:103FD00080917A00846080937A0080917A00826078
:103FE00080937A0080917A00816080937A0080913A
:103FF0007A00806880937A001092C10061E08DE0C1
:104000000E94C20461E08DE00E949404E091AC0340
:10401000F091AD0382E08083E091A803F091A903C1
:104020001082E091AA03F091AB0387E080831092A5
:10403000B403E091B003F091B10386E08083E09196
:10404000AE03F091AF03808180618083E091AE0385
:10405000F091AF03808188608083E091AE03F0919E
:10406000AF03808180688083E091AE03F091AF035D
:1040700080818F7D808384E292E00E94870A62E3E0
:1040800070E080E090E00E94380560E08DE00E94E2
:104090009404F894A89580916000886180936000F2
:1040A00087E480936000789480E092E090938E03A0
:1040B00080938D0390938C0380938B0310928303E2
:1040C0001092840310928503109286031092870346
:1040D000109288031092890310928A03109265034C
:1040E00010926603109267031092680310926103A6
:1040F000109262031092630310926403109274038F
:104100001092750310927603109277031092780341
:104110001092790310927A0310927B038FEF9FEF36
:1041200090936F0380936E0380E090E0A0E8BFE37C
:1041300080936A0390936B03A0936C03B0936D0319
:1041400010928F0310929003109291031092920399
:1041500010924E0310924F0310925003109251038D
:1041600081E08093520310927C03109254031092CA
:10417000550310925603109257031A8E198EBE01E2
:10418000655E7F4FCE0149960E94141B8B8D843152
:1041900061F01A8E198E61E172E0CE0149960E949B
:1041A00017100E945C101092520381E090E09A8BED
:1041B000898B1092E1021092E2021092E3021092B7
:1041C000E40267EB71E0CE0141960E94911A65EB23
:1041D00071E0CE0141960E94911A63EB71E0CE012D
:1041E00041960E94911A69EB71E0CE0141960E94BE
:1041F000911A6FEA71E0CE0141960E94911A6DEA20
:1042000071E0CE0141960E94911A6BEA71E0CE01F5
:1042100041960E94911A61EB71E0CE0141960E9495
:10422000911A6FE471E0CE0141960E940E1A63E587
:1042300071E0CE0141960E940E1A67E571E0CE0151
:1042400041960E940E1A6BE571E0CE0141960E94E4
:104250000E1A66E471E0CE0141960E940E1A6AE4DD
:1042600071E0CE0141960E940E1A63E671E0CE0124
:1042700041960E940E1A67E671E0CE0141960E94B7
:104280000E1A6BE671E0CE0141960E940E1A6FE5A0
:1042900071E0CE0141960E940E1A69E673E0CE01EC
:1042A00041960E94911967E371E0CE0141960E9408
:1042B000911A69E371E0CE0141960E94911A6BE375
:1042C00071E0CE0141960E94911A6DE371E0CE013A
:1042D00041960E94911A6FE371E0CE0141960E94CF
:1042E000911A61E471E0CE0141960E94911A62E751
:1042F00073E0CE0141960E94911960E771E0CE0112
:1043000041960E94911A60E773E0CE0141960E94A7
:10431000911A6EE471E0CE0141960E9491196FE608
:1043200071E0CE0141960E94141B6CEB71E0CE014E
:1043300041960E94141B6BEB71E0CE0141960E94E6
:10434000141B6DE271E0CE0141960E94141B6CE2D9
:1043500071E0CE0141960E94141B6EE271E0CE0125
:1043600041960E94911963E371E0CE0141960E944B
:10437000911A61E371E0CE0141960E94911A6FE2B9
:1043800071E0CE0141960E94911A65E371E0CE0181
:1043900041960E94911A62E873E0CE0141960E9414
:1043A00091196DE773E0CE0141960E94911961E881
:1043B00073E0CE0141960E9491196AEA71E0CE0144
:1043C00041960E94141B60E873E0CE0141960E9462
:1043D000911969EA71E0CE0141960E94141B03E72E
:1043E00011E0C988DA88C6010E948F19F82EC6012B
:1043F00088539F4F0E948F19E82EC60180579E4F09
:104400000E948F19FE102EC1F8122CC1D801FC9207
:104410006091E1027091E2028091E3029091E402E6
:10442000D8014D918D010E9433076093E102709392
:10443000E2028093E3029093E40289899A890196CB
:104440009A8B898BB1E0093A1B0759F663E773E051
:10445000CE0141960E94911962E771E0CE0141962A
:104460000E9417106EE573E0CE0141960E949119EB
:1044700063E471E0CE0141960E94141B6DE573E088
:10448000CE0141960E9491196CE573E0CE014196F0
:104490000E94911960E673E0CE0141960E94911945
:1044A00065E471E0CE0141960E94141B64E471E062
:1044B000CE0141960E94141B6FE573E0CE01419638
:1044C0000E9491196BE473E0CE0141960E9491190C
:1044D00068E271E0CE0141960E94141B69E271E02E
:1044E000CE0141960E94141B6BE271E0CE01419611
:1044F0000E94141B6AE271E0CE0141960E94141BD7
:104500006EE273E0CE0141960E9491194090E10263
:104510005090E2026090E3027090E40219821A82E5
:104520001B821C82FE0131967F015E01F5E0AF0E19
:10453000B11CC988DA88C6010E948F19082FC601EC
:1045400088539F4F0E948F19982EC60180579E4F07
:104550000E948F190911BAC00813B8C0D7010C9373
:104560006091E1027091E2028091E3029091E40295
:10457000D7014D917D010E9433076093E102709352
:10458000E2028093E3029093E40289899A8901967A
:104590009A8B898BEA14FB0461F689819A81AB813D
:1045A000BC81481659066A067B0609F4F0C062E32E
:1045B00070E080E090E00E9438058FED96E00E9468
:1045C0000E0B62E370E080E090E00E943805E0911D
:1045D00061048E2F90E0FC01EE0FFF1FE80FF91F22
:1045E000E75CFB4F808186FF02C08F7B8083E09178
:1045F0005E048E2F90E0FC01EE0FFF1FE80FF91F05
:10460000E75CFB4F808186FF02C08F7B808364E67E
:1046100070E080E090E00E94380512E060E0812FB9
:104620000E94C2041F5F1536C9F761E08DE00E9449
:10463000C20462E370E080E090E00E9438050FB6AB
:10464000F894A89580916000886180936000109232
:1046500060000FBE83EC96E00E940E0B10E088EC29
:1046600090E06CC06F2D682B6E21F8226F29F80145
:104670006083C6010E942E0F89899A89D8016C91A6
:1046800088539F4F0E942E0F89899A89F801608173
:1046900080579E4F0E942E0F61E08DE00E94C20461
:1046A00060E08DE00E94940464E670E080E090E0B9
:1046B0000E94380561E08DE00E94940462E370E09E
:1046C00080E090E00E943805A895A2CE102F182B0C
:1046D00019210823102BF7011083612FC6010E94B6
:1046E0002E0F89899A89612F88539F4F0E942E0F20
:1046F00089899A89612F80579E4F0E942E0F61E011
:104700008DE00E94C20460E08DE00E94940464E6A3
:1047100070E080E090E00E94380561E08DE00E944A
:10472000940462E370E080E090E00E943805A89570
:1047300017CF113009F093CF88E592E003E06C01C8
:10474000990FEE08FF0861E08DE00E949404C70114
:10475000B6010E94380560E08DE00E94940468EC88
:1047600070E080E090E00E943805015061F760E958
:1047700071E080E090E0123021F468E775E080E0BD
:1047800090E00E9438051F5F133099F663CF809147
:1047900037019091380190935B0380935A03809185
:1047A0003D0190913E01909359038093580380916D
:1047B0002E018093530368E770E080E090E00E9450
:1047C00038050E94BD0C6AEF70E080E090E00E9426
:1047D00038050E94BD0C60E08091BC010E94C204BB
:1047E00060E08091BB010E94C20460E080916F0193
:1047F0000E94C204809182038823D1F080917D03BE
:10480000882329F062E08091AA010E94C20410E08E
:1048100009E08091A901181758F4019FF0011124B3
:10482000ED58FE4F62E080810E94C2041F5FF1CF0D
:1048300080917303882329F062E0809172010E94C5
:10484000C20480914B0381110E94B50880915E03E0
:10485000882329F062E0809143010E94C204809184
:104860006003882351F062E0809145010E94C204F8
:1048700062E0809144010E94C20460912D0170E0C9
:1048800081E694E00E94D70660912C0170E08EE5ED
:1048900094E00E94D706609137017091380181E65B
:1048A00094E00E94A00660913D0170913E018EE56A
:1048B00094E00E94A00664E670E080E090E00E9430
:1048C0003805A8958CE993E00E94B305F82EBFEF58
:1048D0008B1729F0ECE28E1305C10E9460128091C3
:1048E000260381110DC00E9413056093220370936B
:1048F0002303809324039093250381E08093260370
:10490000C0902203D0902303E0902403F09025036D
:10491000C114D104E104F10409F409C10E94130592
:104920006C197D098E099F090E94F83420E034E259
:1049300044E759E40E9410376B017C010E94130583
:1049400060932203709323038093240390932503A1
:10495000C0928F03D0929003E0929103F092920361
:104960008091BC010E94FE046C0190938E038093A1
:104970008D038091BB010E94FE047C0190938C0307
:1049800080938B030091B9011091BA012091B70176
:104990003091B8014091B5015091B6016091B301D9
:1049A0007091B401C6010E947707609387037093EA
:1049B00088038093890390938A030091B101109139
:1049C000B2012091AF013091B0014091AD01509101
:1049D000AE016091AB017091AC01C7010E947707F5
:1049E000609383037093840380938503909386037D
:1049F00020918203222309F4BAC080918103882385
:104A000009F4A3C08091AA010E946B04AC0191E05B
:104A10004115510509F490E080918003981311C06D
:104A200020917F0327FB222720F931E0452B09F055
:104A300030E0231306C080917E03A1E08A27809393
:104A40007E0380917F0390FB87F980937F038091A1
:104A50007E03882309F48DC0E0908003C090A901F3
:104A600003E711E0D12CF12CCD1409F482C0F80138
:104A700080810E946B048E159F0581F5D8011196E7
:104A80002D913D914D915C911497609183037091AC
:104A9000840380918503909186030E94A4366093DD
:104AA0008303709384038093850390938603F801B6
:104AB00025813681478150856091870370918803F5
:104AC0008091890390918A030E94A43660938703A2
:104AD000709388038093890390938A03D394075F2C
:104AE0001F4FC2CF082F880F110BC8010E94D43767
:104AF000892B51F483ED8F0D823030F0FAE3FF16ED
:104B000019F02FE5F212EBCEC8010E94E93790911F
:104B10002103E92FF0E0EB51FD4F808382E0890F04
:104B20008C3308F0DCCE9F5F90932103D8CE0E9497
:104B300013056093220370932303809324039093BF
:104B40002503C12CD12C760103CF80917D038823CE
:104B500059F08091AA010E946B043091800321E0FA
:104B60003817190609F020E020937E0370CF1092C9
:104B70007E0380917C03882309F4A3C5D0904B0366
:104B800080917F038D7F877FDD2009F4B6C00E946E
:104B90006B05009147031091480320914903309120
:104BA0004A03601B710B820B930BCC24C3946734B4
:104BB00071058105910508F0C12CF8948E010F5FF5
:104BC0001F4FDE015196980190E080E0FC01EE0F4E
:104BD000FF1FEE0FFF1FE95CFC4F40815181628196
:104BE0007381F90141935193619371939F01FC018A
:104BF000EE0FFF1FE15DFC4F408151814D935D93AE
:104C000001968430910511F778947801F0E1EF0E68
:104C1000F11C0E941305D8018D909D90AD90BD9020
:104C20008D01681979098A099B09613771418140B1
:104C3000910508F0C12CE016F10659F7CC2009F4D3
:104C400032C580917F03816080937F032D893E89E7
:104C5000233331050CF419C5826080937F038F895B
:104C6000988D833391050CF416C580917F03846081
:104C700080937F0389899A89C1968336910510F4C0
:104C80001A8A198A8B899C89C1968336910510F4FA
:104C90001C8A1B8A10917F0311FF2CC069897A89B5
:104CA000072E000C880B990B0E94FA3420E030E0AC
:104CB0004AEF53E40E941037609383037093840398
:104CC00080938503909386036B897C89072E000C63
:104CD000880B990B0E94FA3420E030E04AEF53E44D
:104CE0000E94103760938703709388038093890331
:104CF00090938A03812F12FB83F980937F03809125
:104D0000870390918803A0918903B0918A038093CF
:104D1000780390937903A0937A03B0937B038091F7
:104D2000830390918403A0918503B09186038093BF
:104D3000740390937503A0937603B09377038091E7
:104D40007303882371F0809172010E946B04892B98
:104D500041F4109278031092790310927A03109222
:104D60007B0380917203882309F4B2C4E09070033E
:104D7000F0907103C0907001D090710180916F012B
:104D80000E94FE048C0190936F0380936E03B60122
:104D9000DD0C880B990B0E94FA344B015C01B801C1
:104DA000110F880B990B0E94FA34A50194010E94FF
:104DB000A3362B013C01B701FF0C880B990B0E9415
:104DC000FA34A50194010E94A3369B01AC01C301F2
:104DD000B2010E94103720E030E0A9010E94A43601
:104DE0006B017C0120E030E0A9010E94F33487FDD3
:104DF0006BC420E030E040E85FE3C701B6010E94E9
:104E0000B837181634F4C12CD12C30E8E32E3FE328
:104E1000F32EC0926A03D0926B03E0926C03F0927F
:104E20006D0380916B0190916C01A0916D01B09127
:104E30006E018C8F9D8FAE8FBF8F80906701909099
:104E40006801A0906901B0906A018091630190911E
:104E50006401A0916501B091660188A399A3AAA3FA
:104E6000BBA380916A0390916B03A0916C03B091F6
:104E70006D038CA39DA3AEA3BFA320E030E0A901E6
:104E8000C501B4010E94B83775016401181624F0F9
:104E9000F7FAF094F7F8F09420E030E0A90168A167
:104EA00079A18AA19BA10E94B83748A059A06AA005
:104EB0007BA0181624F077FA709477F8709420E0AD
:104EC00030E0A9016C8D7D8D8E8D9F8D0E94B8374D
:104ED00018164CF08C8D9D8DAE8DBF8DB0588C8F7B
:104EE0009D8FAE8FBF8FA30192016CA17DA18EA17A
:104EF0009FA10E945935562E472E382E292EC701C4
:104F0000B60190582CA13DA14EA15FA10E94593538
:104F10003B018C01C0907403D0907503E090760340
:104F2000F090770320E030E0A901C701B6010E94AC
:104F3000F334882309F4E5C320E030E0A901C70178
:104F4000B6010E94B837A701960118160CF0CDC320
:104F5000652D742D832D922D0E94593520E030E06F
:104F6000A9010E94A4366B017C01A7019601B3013F
:104F7000C8010E94B83718160CF4C7C3A7019601E0
:104F8000652D742D832D922D0E94F33487FF04C06C
:104F9000C52CD42CE32CF22CC0927403D092750350
:104FA000E0927603F09277032091780330917903B1
:104FB00040917A0350917B036C8D7D8D8E8D9F8DFA
:104FC0000E9459352CA13DA14EA15FA10E945935E7
:104FD0001B018C012CA13DA14EA15FA16C8D7D8D8B
:104FE0008E8D9F8D90580E9459352B013C019B015D
:104FF000AC01B101C8010E94F33487FD16C02C8DAD
:105000003D8D4E8D5F8D6CA17DA18EA19FA10E94D3
:1050100059352B013C019B01AC01B101C8010E9433
:10502000B837181614F02101380120E030E0A9014A
:10503000C701B6010E94B83787FD04C088A099A0B7
:10504000AAA0BBA020915F01309160014091610155
:105050005091620160E070E080E89FE30E94A33617
:105060006C8F7D8F8E8F9F8F20E030E0A901C7016C
:10507000B6010E94B837A701960118160CF05058D7
:105080006C8D7D8D8E8D9F8D0E9459356C8F7D8F9F
:105090008E8F9F8F20E030E0A901C501B4010E94EE
:1050A000B83718160CF034C327E137EB41ED58E35D
:1050B000C501B4010E94A4369B01AC016C8D7D8DAD
:1050C0008E8D9F8D0E9410379B01AC0160E070E0D7
:1050D00080E89FE30E94A3364B015C0120E030E0B2
:1050E000A9010E94B83718161CF0812C912C54018C
:1050F000A5019401B201C3010E9459354B015C0125
:1051000020E030E040E85FEB0E94F33487FD09C304
:1051100020E030E040E85FE3C501B4010E94B83709
:10512000181634F4812C912C20E8A22E2FE3B22EF5
:105130008092780390927903A0927A03B0927B03D5
:1051400020E030E0A901C701B6010E94F33487FFD7
:1051500010C080916903882361F0B7FAB094B7F862
:10516000B0948092780390927903A0927A03B092DF
:105170007B0380918F0390919003A0919103B09154
:1051800092038C8F9D8FAE8FBF8F80915B0190912A
:105190005C01A0915D01B0915E0188A799A7AAA7C3
:1051A000BBA78090570190905801A0905901B090F2
:1051B0005A018091530190915401A0915501B091F1
:1051C000560188AB99ABAAABBBAB40904F01509056
:1051D0005001609051017090520180914E018111F7
:1051E000A7C21CA61CAA90E89DABAFE3AEAB809112
:1051F000650390916603A0916703B091680388A34B
:1052000099A3AAA3BBA320E030E0A901C301B20186
:105210000E94B83718161CF0412C512C3201A30102
:1052200092016CA57CA98DA99EA90E9459352B01DC
:105230003C0120E030E0A90168A979A98AA99BA9CD
:105240000E94B837181624F018AA19AA1AAA1BAA7D
:1052500020E030E0A901C501B4010E94B83718165A
:105260001CF0812C912C5401A50194016CA57CA902
:105270008DA99EA90E9459354B015C0120E030E0C8
:10528000A90168A579A58AA59BA50E94B83718161B
:1052900024F018A619A61AA61BA628A139A14AA16E
:1052A0005BA1C701B6010E94A336D62EC72E382EA9
:1052B000292E20E030E0A90168A179A18AA19BA153
:1052C0000E94F33481113DC2C501B40190582C8D68
:1052D0003D8D4E8D5F8D0E9459357B018C019B0168
:1052E000AC016D2D7C2D832D922D0E94F33487FD12
:1052F00018C0A30192016C8D7D8D8E8D9F8D0E94B3
:1053000059357B018C019B01AC016D2D7C2D832DCA
:10531000922D0E94B837181624F0ED2CFC2C032D8A
:10532000122D9701A80168A179A18AA19BA10E94D1
:10533000A43668A378A71C0188A198A5D101809301
:10534000650390936603A0936703B093680380900E
:105350004A0190904B01A0904C01B0904D01C0903B
:105360004601D0904701E0904801F09049014090FB
:1053700078035090790360907A0370907B0380915A
:10538000610390916203A0916303B091640388ABC1
:1053900099ABAAABBBAB20E030E0A901C701B601D5
:1053A0000E94B83718161CF0C12CD12C7601A70129
:1053B00096016CA57CA98DA99EA90E9459356B0107
:1053C0007C0120E030E0A901C501B4010E94B8379A
:1053D00018161CF0812C912C540128A939A94AA92E
:1053E0005BA9C301B2010E94A336762E672E582E08
:1053F000492E20E030E0A90168A979A98AA99BA9D2
:105400000E94F33481113EC22C8D3D8D4E8D5F8DF7
:10541000C701B60190580E9459355B018C019B0170
:10542000AC01672D762D852D942D0E94F33487FDD8
:1054300018C0A70196016C8D7D8D8E8D9F8D0E9469
:1054400059355B018C019B01AC01672D762D852DB3
:10545000942D0E94B837181624F0A72CB62C052DD1
:10546000142D9501A80168A979A98AA99BA90E9470
:10547000A4365B018C01C501D80180936103909330
:105480006203A0936303B093640380917203882343
:1054900009F44EC0CCA0DDA0EEA0FFA0F7FAF09476
:1054A000F7F8F09428A138A5A101C701B6010E9420
:1054B000B83718160CF47FC228A138A5A1016CA139
:1054C0007DA18EA19FA10E94F33487FF06C09CA1FD
:1054D00098A3ADA1A8A72EA03FA088A198A5D1010F
:1054E0008093650390936603A0936703B09368036A
:1054F0009501A801C701B6010E94B837181684F0BB
:105500009501A8016CA17DA18EA19FA10E94F334F9
:105510006501780187FF04C0CCA0DDA0EEA0FFA04C
:10552000C0926103D0926203E0926303F09264033D
:1055300080916003882309F442C2809145010E9452
:105540006B0420915F032817190629F480917F03CB
:105550008F7E80937F03809144010E946B04209191
:105560005F032817190629F480917F0380618093D7
:105570007F0380915E03882311F1809143010E9493
:105580006B0420915D032817190609F01CC2809155
:105590005C03882321F080917F0385FF10C0109267
:1055A00065031092660310926703109268031092CD
:1055B000610310926203109263031092640380915E
:1055C0007F0383FF10C01092650310926603109250
:1055D00067031092680310926103109262031092A5
:1055E00063031092640384FF10C01092650310924D
:1055F0006603109267031092680310926103109281
:1056000062031092630310926403B0917C03B8A309
:105610008090610390906203A0906303B090640354
:10562000BB2309F4CDC220E030E0A901C501B401DB
:105630000E94B83718160CF0CCC12FE632E143E8CF
:105640005AE3C501B4010E94B83787FFCDC1C090AD
:105650006503D0906603E0906703F090680320E054
:1056600030E0A901C701B6010E94B83718160CF046
:105670009BC22FE632E143E85AE3C701B6010E941C
:10568000B83787FFB1C160E0B0C12E3C3F4F0CF08E
:10569000E6CA8D7FE2CA8E3C9F4F0CF0EBCA809128
:1056A0007F038B7FE5CA80912E03882321F08091B0
:1056B0007F038170D82E80917F03D0FA83F98D7F8C
:1056C0001CCB80917F03FBCFC12CD12C7601A1CBC9
:1056D00080E090E0A0E8BFE380936A0390936B03BF
:1056E000A0936C03B0936D039CCBB301C8010E94DF
:1056F00059359B01AC0160E070E0CB010E94A336FC
:1057000032CCC12CD12C760130CC6301780144CC51
:10571000A501940167E177EB81ED98E30E94A33640
:10572000CBCC812C912C90E8A92E9FEBB92E00CDEB
:10573000BCA1BCA7EDA1ECABFEA1FDAB2FA12EAB94
:1057400056CD20E030E0A90168A179A18AA19BA1F2
:105750000E94B83718160CF04CC028A939A94AA9DC
:105760005BA96CA57CA98DA99EA90E94593590586A
:105770002C8D3D8D4E8D5F8D0E9459357B018C01A6
:105780009B01AC016D2D7C2D832D922D0E94F33455
:1057900087FD18C0A30192016C8D7D8D8E8D9F8D2C
:1057A0000E9459357B018C019B01AC016D2D7C2D34
:1057B000832D922D0E94B837181624F0ED2CFC2C66
:1057C000032D122D9701A80168A179A18AA19BA19F
:1057D0000E94A43668A378A71C0120E030E0A9014C
:1057E0000E94F33487FFA8CD18A218A6212C312CD3
:1057F000A3CDC501B40190582C8D3D8D4E8D5F8D8C
:105800000E9459357B018C019B01AC016D2D7C2DD3
:10581000832D922D0E94F33487FD20C028A539A541
:105820004AA55BA56CA57CA98DA99EA90E945935A6
:105830002C8D3D8D4E8D5F8D0E9459357B018C01E5
:105840009B01AC016D2D7C2D832D922D0E94B837CC
:10585000181624F0ED2CFC2C032D122D9701A80115
:1058600068A179A18AA19BA10E94A43668A378A708
:105870001C0120E030E0A9010E94B83718160CF492
:10588000B3CF5ACDA50194016CA57CA98DA99EA981
:105890000E9459354B015C0120E030E0A90168A964
:1058A00079A98AA99BA90E94B83718160CF043C0A1
:1058B000C501B40190582C8D3D8D4E8D5F8D0E9499
:1058C00059355B018C019B01AC01672D762D852D2F
:1058D000942D0E94F33487FD18C0A70196016C8DAA
:1058E0007D8D8E8D9F8D0E9459355B018C019B01B2
:1058F000AC01672D762D852D942D0E94B837181692
:1059000024F0A72CB62C052D142D9501A80168A90B
:1059100079A98AA99BA90E94A4365B018C0120E089
:1059200030E0A9010E94F33487FFA5CDA12CB12C52
:1059300000E010E0A0CDC701B60190582C8D3D8D40
:105940004E8D5F8D0E9459357B018C019B01AC010E
:10595000672D762D852D942D0E94F33487FD18C078
:10596000A50194016C8D7D8D8E8D9F8D0E94593582
:105970007B018C019B01AC01672D762D852D942D2B
:105980000E94B837181624F0E72CF62C052D142D9C
:105990009701A80168A979A98AA99BA90E94A436A0
:1059A0005B018C0120E030E0A9010E94B837181695
:1059B0000CF4BCCF60CDC8A2D8A617018ECD8091C3
:1059C0007F038F7ED4CD80917F03806280937F039D
:1059D000F6CD2FE632E143E85AEBC501B4010E944F
:1059E000F33418160CF433CE61E08DE00E94940479
:1059F000E0914101F0914201FDA3ECA380913F01B0
:105A00009091400199A788A720903D0130903E01D8
:105A1000A0913B01B0913C01BD8FAC8FE09039016A
:105A2000F0903A010091370110913801809165039F
:105A300090916603A0916703B09168038CA79DA71E
:105A4000AEA7BFA7A5019401BC01CD010E94A43659
:105A50002B013C0120E030E0A9010E94F3348111C8
:105A6000BEC0B801012E000C880B990B0E94FA34BD
:105A70000E948237AB012C8D3D8D37FF03C03195DD
:105A800021953109F801E21BF30B4E175F073CF03B
:105A9000F801E20FF31F4E175F070CF4FB01F093C0
:105AA0005B03E0935A03A50194016CA57DA58EA527
:105AB0009FA50E94A3366B017C0120E030E0A90184
:105AC0000E94F3348111DBC0B101032C000C880B60
:105AD000990B0E94FA340E948237AB012CA13DA1A0
