:100000000C941C040C9444040C9444040C94181692
:100010000C94B8150C944A150C9434170C944404A1
:100020000C9444040C9444040C9444040C947816EA
:100030000C9444040C9444040C9444040C94440420
:100040000C94A8140C9444040C9418150C94F214F9
:100050000C9444040C9444040C9444040C94440400
:100060000C9444040C9444044E414E494E49545956
:10007000494E46CDCCCC3D0AD7233C17B7D1387773
:10008000CC2B329595E6241FB14F0A000020410089
:1000900000C84200401C4620BCBE4CCA1B0E5AAED3
:1000A000C59D7400407A10F35A00A0724E180900E2
:1000B00010A5D4E80000E87648170000E40B5402CD
:1000C0000000CA9A3B000000E1F505000080969808
:1000D00000000040420F000000A086010000001058
:1000E0002700000000E8030000000064000000009A
:1000F000000A00000000000100000000002C76D87B
:1001000088DC674F0823DFC1DFAE59E1B1B796E560
:10011000E3E453C63AE651997696E8E6C28426EBC4
:10012000898C9B62ED407C6FFCEFBC9C9F40F2BAD7
:10013000A56FA5F490055A2AF75C936B6CF9676D6F
:10014000C11BFCE0E40D47FEF520E6B500D0ED90C4
:100150002E0300943577050080841E080000204E91
:100160000A000000C80C333333330F986E1283112A
:1001700041EF8D2114893BE65516CFFEE6DB18D101
:10018000844B381BF77C1D901DA4BBE424203284D3
:10019000725E228100C9F124ECA1E53D272243488B
:1001A00045434B53554D223A005D2C002C002C004A
:1001B000223A5B002244524956455F425554544FFF
:1001C0004E5F004A4F595F43414C49425F434F5590
:1001D0004E540052494748545F4D4F544F525F5060
:1001E000554C5345004C4546545F4D4F544F525F5C
:1001F00050554C53450053504545445F4B4E4F427C
:100200005F464153545F56414C0053504545445F4F
:100210004B4E4F425F534C4F575F56414C00524933
:100220004748545F4D4F544F525F4641535400521C
:10023000494748545F4D4F544F525F534C4F5700FE
:1002400052494748545F4D4F544F525F43454E54B7
:100250004552004C4546545F4D4F544F525F464106
:100260005354004C4546545F4D4F544F525F534CCE
:100270004F57004C4546545F4D4F544F525F4345D6
:100280004E544552005354574D42005343414C4540
:100290005F5455524E494E475F5748454E5F4D4F4C
:1002A00056494E47005455524E5F53504545440001
:1002B000464153544553545F4241434B5741524486
:1002C00000464153544553545F464F5257415244A0
:1002D00000444543454C45524154494F4E5F5455A7
:1002E000524E494E4700414343454C4552415449C3
:1002F0004F4E5F5455524E494E4700444543454C7E
:1003000045524154494F4E5F4241434B574152443D
:1003100000414343454C45524154494F4E5F424191
:10032000434B5741524400444543454C4552415488
:10033000494F4E5F464F5257415244004143434557
:100340004C45524154494F4E5F464F5257415244DB
:1003500000595F444541445A4F4E4500434F4E5467
:10036000524F4C5F444F574E00434F4E54524F4CE8
:100370005F43454E5445525F5900434F4E54524FD0
:100380004C5F555000585F444541445A4F4E45001C
:10039000434F4E54524F4C5F4C45465400434F4ED2
:1003A00054524F4C5F43454E5445525F5800434FA3
:1003B0004E54524F4C5F5249474854006375727215
:1003C000656E742073657474696E67732C2076652E
:1003D0007273696F6E3A007B00000000006410B712
:1003E0001DC8206E3BAC30D9269041DC76F4516BB1
:1003F0006B5861B24D3C7105502083B8ED44930FAA
:10040000F0E8A3D6D68CB361CBB0C2649BD4D2D370
:100410008678E20AA01CF2BDBD7B226572726F7203
:10042000223A2022656570726F6D206661696C7575
:100430007265227D007B226572726F72223A2022E1
:10044000656570726F6D206661696C757265227D7D
:10045000002276616C7565223A2022002273657451
:1004600074696E67223A2022007B22726573756C74
:1004700074223A20226368616E676522007B2272D3
:100480006573756C74223A20226E6F206368616E0A
:100490006765227D007B22726573756C74223A2039
:1004A0002273746F70706564227D007B22726573A5
:1004B000756C74223A20226D6F76656D656E7420BE
:1004C000616C6C6F776564227D007B227265737549
:1004D0006C74223A20227361766564227D00424169
:1004E00048004642004E4200554F42004E535500D0
:1004F0005350480053500055535300414200524D51
:10050000004E52530052505000524350005254502B
:1005100000525350005552005354454552494E47DE
:100520005F4F46465F5357495443485F50494E001A
:100530005354454552494E475F4F46465F535749CE
:10054000544348002276616C7565223A5B00227341
:10055000657474696E67223A2022007B227265738B
:10056000756C74223A20226368616E676522004EC2
:10057000554D5F44524956455F425554544F4E5372
:10058000004253414800425554544F4E5F4D4F4432
:10059000455F50494E00424D54005553455F42550A
:1005A00054544F4E5F4D4F44455F50494E00454EA9
:1005B00041424C455F425554544F4E5F4354524C58
:1005C0000053544152545F4D4F544F525F50554C5D
:1005D00053455F54494D4500454E41424C455F539C
:1005E0005441525455505F50554C53450052494761
:1005F00048545F4D4F544F525F434F4E54524F4CEF
:100600004C45525F50494E004C4546545F4D4F5447
:100610004F525F434F4E54524F4C4C45525F5049DE
:100620004E004A4F595F595F50494E004A4F595F3B
:10063000585F50494E0053504545445F4B4E4F4222
:100640005F50494E005343414C455F414343454C45
:100650005F574954485F5350454544005553455FE3
:1006600053504545445F4B4E4F420052455645520C
:1006700053455F5455524E5F494E5F524556455261
:10068000534500AE039D03900385037A0369035C21
:100690000351033C0327031103FB02E602D102C10D
:1006A00002B002A5028B0285026B0673026302533D
:1006B0000240022F021E025C060A02F601450636BF
:1006C000062C0622060806ED05D805E501D301C172
:1006D00005C301AE059A059605860581056F0530AF
:1006E000051805F704F404F004EC04E804E504E25A
:1006F00004DE04150511050D05050509050105FEB6
:1007000004FB042C22434845434B53554D223A00E9
:1007100022625F6D5F70223A00627574746F6E734F
:10072000006A6F794F4B006D6F76656D656E744131
:100730006C6C6F7765640073706565644B6E6F6297
:1007400056616C0072696768744D6F746F7257728E
:1007500069746556616C006C6566744D6F746F7278
:10076000577269746556616C007370656564546F87
:100770004472697665007475726E546F447269765E
:100780006500737065656450726F6365737365644B
:10079000007475726E50726F636573736564007375
:1007A00070656564496E707574007475726E496E1B
:1007B000707574006A6F795956616C006A6F795868
:1007C00056616C0063757272656E742076616C752B
:1007D00065732C206D696C6C69733A000000000031
:1007E000240027002A0000000000250028002B001C
:1007F000000000002300260029000404040404046F
:1008000004040202020202020303030303030102BF
:10081000040810204080010204081020010204088E
:10082000102000000008000201000003040700007F
:10083000000000000000511811241FBECFEFD8E0C7
:10084000DEBFCDBF12E0A0E0B1E0ECE2F4E702C011
:1008500005900D92A43EB107D9F724E0A4EEB2E0D2
:1008600001C01D92A33AB207E1F714E0CCE1D4E055
:1008700004C02197FE010E944037CB31D107C9F750
:100880000E94C8180C94143A0C940000833081F034
:1008900028F4813099F08230A9F008958730A9F0CA
:1008A0008830C9F08430B1F4809180008F7D03C01E
:1008B000809180008F7780938000089584B58F7732
:1008C00084BD089584B58F7DFBCF8091B0008F7774
:1008D0008093B00008958091B0008F7DF9CFCF93C1
:1008E000DF93282F30E0F901EE5DF74F8491F90195
:1008F000E25FF74FD491F901E650F84FC491CC2351
:10090000A1F081110E944604EC2FF0E0EE0FFF1FD2
:10091000E051F84FA591B491EC91ED2381E090E086
:1009200009F480E0DF91CF91089580E090E0FACF64
:100930001F93CF93DF93282F30E0F901EE5DF74F3F
:100940008491F901E25FF74FD491F901E650F84F35
:10095000C491CC23A9F0162F81110E944604EC2FDC
:10096000F0E0EE0FFF1FEA51F84FA591B4918FB759
:10097000F894EC91111108C0D095DE23DC938FBF61
:10098000DF91CF911F910895DE2BF8CFCF93DF93A6
:1009900090E0FC01E25FF74F24918650984FFC01F4
:1009A00084918823C9F090E0880F991FFC01E452DC
:1009B000F84FA591B491FC01EA51F84FC591D4913B
:1009C00061110DC09FB7F8948C91209582238C9370
:1009D0008881282328839FBFDF91CF9108956230BB
:1009E00051F49FB7F8943C91822F809583238C9388
:1009F000E8812E2BEFCF8FB7F894EC912E2B2C9310
:100A00008FBFEACF8E3008F08E508770806480935D
:100A10007C0080917A00806480937A0080917A00D3
:100A200086FDFCCF809178009091790008953FB7C2
:100A3000F8948091D3039091D403A091D503B09101
:100A4000D60326B5A89B05C02F3F19F00196A11D1E
:100A5000B11D3FBFBA2FA92F982F8827BC01CD0108
:100A6000620F711D811D911D42E0660F771F881F67
:100A7000991F4A95D1F708958F929F92AF92BF9296
:100A8000CF92DF92EF92FF926B017C010E941705DB
:100A90004B015C01C114D104E104F104B9F00E94DE
:100AA0001705681979098A099B09683E7340810511
:100AB000910580F321E0C21AD108E108F10888EE1F
:100AC000880E83E0981EA11CB11CE4CFFF90EF902C
:100AD000DF90CF90BF90AF909F908F9008952FB7E9
:100AE000F8946091CF037091D0038091D1039091DD
:100AF000D2032FBF0895AF92BF92CF92DF92EF92B1
:100B0000FF920F931F93CF93DF936C017B018B01B7
:100B1000040F151FEB015E01AE18BF08C017D10707
:100B200059F06991D601ED91FC910190F081E02D91
:100B3000C6010995892B79F7C501DF91CF911F91E6
:100B40000F91FF90EF90DF90CF90BF90AF900895FE
:100B5000FC01538D448D252F30E0842F90E0821BC3
:100B6000930B541710F0CF96089501970895FC0148
:100B7000918D828D981761F0A28DAE0FBF2FB11DA0
:100B80005D968C91928D9F5F9F73928F90E00895F8
:100B90008FEF9FEF0895FC01918D828D981731F0B2
:100BA000828DE80FF11D858D90E008958FEF9FEF06
:100BB0000895FC01918D228D892F90E0805C9F4FDC
:100BC000821B91098F739927089587ED93E00E9406
:100BD000D90521E0892B09F420E0822F089580E0D7
:100BE00090E0892B29F00E94E50581110C9400000A
:100BF0000895FC01A48DA80FB92FB11DA35ABF4FB2
:100C00002C91848D90E001968F739927848FA6890B
:100C1000B7892C93A089B1898C91837080648C935F
:100C2000938D848D981306C00288F389E02D80810E
:100C30008F7D80830895EF92FF920F931F93CF9340
:100C4000DF93EC0181E0888F9B8D8C8D98131AC007
:100C5000E889F989808185FF15C09FB7F894EE89EE
:100C6000FF896083E889F98980818370806480834B
:100C70009FBF81E090E0DF91CF911F910F91FF9096
:100C8000EF900895F62E0B8D10E00F5F1F4F0F733E
:100C90001127E02E8C8D8E110CC00FB607FCFACFF9
:100CA000E889F989808185FFF5CFCE010E94F90599
:100CB000F1CFEB8DEC0FFD2FF11DE35AFF4FF082CA
:100CC0009FB7F8940B8FEA89FB8980818062CFCF30
:100CD0000F931F93CF93DF938C01D0E0C0E0F80116
:100CE000EC0FFD1F6491662341F087ED93E00E94B5
:100CF0001B06892B11F02196F2CFCE01DF91CF9107
:100D00001F910F910895CF93DF93EC01888D882375
:100D1000B9F0AA89BB89E889F9898C9185FD03C05E
:100D2000808186FD0DC00FB607FCF7CF8C9185FF43
:100D3000F2CF808185FFEDCFCE010E94F905E9CF8A
:100D4000DF91CF9108950895DC01EC91EC3090F59E
:100D500011968C91119728E830E0281B310987FD06
:100D60003395220F331F220F331F6217730784F04E
:100D700012968C9128E532E0281B310987FD3395C6
:100D8000220F331F220F331F621773070CF49B01CE
:100D900022503109220F331F4FB7F8948E2F90E065
:100DA000FC01EE0FFF1FE80FF91FEC58FB4F3283D9
:100DB00021834FBF08951F93CF93DF93EC01162F2C
:100DC00088818C3008F04EC061E0812F0E94C604FB
:100DD0008881282F30E0F901EE0FFF1FE20FF31F8B
:100DE000EC58FB4F1F736081607C612B608319821C
:100DF0001A822CE0622F0E943437829FB0011124A6
:100E000030E020E0AB01420F531FFA01EE0FFF1F4D
:100E1000E40FF51FEC58FB4F908196FD16C02F5F35
:100E20003F4F2C30310571F781110FC010928000B7
:100E300082E0809381001092850010928400B19A24
:100E400080916F00826080936F00E8818E2F90E028
:100E5000FC01EE0FFF1FE80FF91FEC58FB4F8081DC
:100E6000806480838881DF91CF911F9108950F93D3
:100E70001F93E42FE627EF7024E0E29FF001112496
:100E8000E752FC4F059115912591349154E09695C8
:100E90008795779567955A95D1F7602771278227AF
:100EA0009327E42FE295EF70E627EF7024E0E29FAE
:100EB000F0011124E752FC4F0591159125913491D1
:100EC000E4E09695879577956795EA95D1F7602741
:100ED0007127822793271F910F9108950E9468061A
:100EE0002091870330918803820F931F909388038A
:100EF0008093870308952F923F924F925F926F9253
:100F00007F928F929F92AF92BF92CF92DF92EF9299
:100F1000FF920F931F93CF93DF93EC016A01790146
:100F200017FF02C010E000E06E157F050CF019C13C
:100F30001601201A310AC215D3050CF093C06215B0
:100F400073050CF08FC0072E000C880B990B0E94C4
:100F50006C344B015C01BE010D2E000C880B990B0B
:100F60000E946C34A50194010E9415362B013C01AE
:100F7000B101330C880B990B0E946C34A5019401CC
:100F80000E9415369B01AC01C301B2010E9482365A
:100F900020E030E040E85FE30E9415364B015C0141
:100FA0000C0D1D1D0C171D079CF50E151F0584F556
:100FB000B701FF0C880B990B0E946C346B017C010C
:100FC000BE01DD0F880B990B0E946C34A7019601BE
:100FD0000E9415364B015C01B7FAB094B7F8B09493
:100FE000B801110F880B990B0E946C34A701960170
:100FF0000E9415369B01AC01C501B4010E948236E6
:1010000020E030E040E85FE30E9416364B015C01CF
:1010100020E030E040E85FEBC501B4010E94653498
:1010200087FD91C020E030E040E85FE3C501B401F6
:101030000E942A3718160CF48DC0C501B401DF9147
:10104000CF911F910F91FF90EF90DF90CF90BF90C5
:10105000AF909F908F907F906F905F904F903F9058
:101060002F900895812C912C54019ACF18012C0CAB
:101070003D1C2C163D060CF062C0261637060CF0FF
:101080005EC0072E000C880B990B0E946C344B013C
:101090005C01BE010D2E000C880B990B0E946C3474
:1010A000A50194010E9415362B013C01B101330CBE
:1010B000880B990B0E946C34A50194010E9415368F
:1010C0009B01AC01C301B2010E94823620E030E0F6
:1010D00040E85FE30E9415364B015C01C01AD10A5B
:1010E000CC15DD050CF094CFEC14FD040CF090CF82
:1010F000B701FF0C880B990B0E946C344B015C010B
:10110000BE01DD0F880B990B0E946C34A501940180
:101110000E9415362B013C0177FA709477F8709491
:10112000B601DD0C880B990B0E946C34A50194016B
:101130000E9415369B01AC01C301B2015FCF812C27
:10114000912C5401CBCF812C912C90E8A92E9FEBB0
:10115000B92E73CF812C912C80E8A82E8FE3B82E66
:101160006CCFE616F7060CF481CF812C912C54013C
:1011700064CFAF92BF92CF92DF92EF92FF920F9324
:101180001F93CF93DF9398E2A92E91E0B92E2CE222
:10119000E22E21E0F22E850162E0D8018D918D01D1
:1011A0000E94C604E016F106B9F7E2ECF1E08AEC21
:1011B000C82E81E0D82E41E050E021913191E50127
:1011C00089915E01863188F590E1883050F091E098
:1011D0008E3008F490E0990F990F990F8E3018F522
:1011E0008850890FA82FA695A695A69509F081C0CD
:1011F00081111DC030930101209300018A0101C0BB
:10120000000F8A95EAF7202F8091E802802B8093C7
:10121000E8028091E502802B8093E50283B1809300
:10122000EB0280E030C08E50DCCF8FEFDBCF81301F
:1012300029F43093030120930201E0CF823009F0BA
:1012400042C0309305012093040187708A0101C0D8
:10125000000F8A95EAF7202F8A2F90E0BC01685191
:101260007D4FEB013881302B3883BC016B517D4FB2
:10127000EB013881302B3883A13009F454C070F26F
:10128000A23009F493C0B0E0A559BF4F9C91292B1F
:101290002C93909168009A0101C0220F8A95EAF779
:1012A000892F822B80936800CE16DF0609F085CF48
:1012B000DF91CF911F910F91FF90EF90DF90CF9032
:1012C000BF90AF900895833029F4309307012093A5
:1012D0000601BBCF843029F4309309012093080123
:1012E000B4CF853009F08ACF30930B0120930A01E7
:1012F000ACCFA13009F040C08830D9F430930D0153
:1013000020930C0187708A0101C0000F8A95EAF7CB
:10131000202F8091E902802B8093E9028091E602E0
:10132000802B8093E60286B18093EC0281E090E00E
:10133000AACF893029F430930F0120930E01E2CF18
:101340008A3029F43093110120931001DBCF8B30C8
:1013500029F4309313012093120177CF8C3029F4B4
:10136000309315012093140170CF8D3059F63093CE
:1013700017012093160169CFA23009F095CF803173
:10138000D9F4309321012093200187708A0101C094
:10139000000F8A95EAF7202F8091EA02802B809334
:1013A000EA028091E702802B8093E70289B1809363
:1013B000ED0282E090E067CF813129F43093230180
:1013C00020932201E2CF823129F43093250120932A
:1013D0002401DBCF833129F43093270120932601A8
:1013E000D4CF843129F43093190120931801CDCF43
:1013F000853129F430931B0120931A0126CF8631C1
:1014000029F430931D0120931C011FCF873109F06F
:10141000BCCF30931F0120931E0117CFCF92DF92D4
:10142000EF92FF920F931F93CF93DF93C82FD0E0DB
:10143000FE01E85DFE4F80810E946F048E01000F67
:10144000111F000F111F0197E1F40E941705F80109
:10145000EE58FC4F60837183828393830E946F05F3
:101460006093820370938303809384039093850336
:10147000DF91CF911F910F91FF90EF90DF90CF9070
:1014800008950E9417050E581C4FF801C080D180A6
:10149000E280F3806C197D098E099F0961377141E3
:1014A0008140910528F70E941705F80100811181FC
:1014B00022813381601B710B820B930B8B019C018A
:1014C000055F1140210931090F3C17402105310505
:1014D00078F6683E23E072077CF0613D47E07407D0
:1014E00014F060ED77E06C5D7540CC0FDD1FC659E0
:1014F000DC4F79836883BCCF6CE07EEFF6CF83E06E
:101500000C940E0A82E00C940E0A81E00C940E0AF0
:1015100080E00C940E0AFC0101900020E9F731975D
:10152000AF01481B590BBC0187ED93E00C947B0580
:101530008F929F92AF92BF920F931F93CF93DF939F
:10154000CDB7DEB7A1970FB6F894DEBF0FBECDBF03
:1015500019A2423008F44AE08E010F5D1F4F842E1D
:10156000912CB12CA12CA50194010E94E435E62F09
:10157000B901CA01EA30F4F4E05DD801EE938D01BF
:10158000232B242B252B79F790E080E0109719F07E
:10159000CD010E948B0AA1960FB6F894DEBF0FBE54
:1015A000CDBFDF91CF911F910F91BF90AF909F90D2
:1015B0008F900895E95CE1CFCF92DF92EF92FF9296
:1015C000CF93DF936B017C016DE287ED93E00E9486
:1015D0001B06EC0166277727CB016C197D098E0964
:1015E0009F094AE00E94980A8C0F9D1FDF91CF91BE
:1015F000FF90EF90DF90CF900895009711F00C943A
:101600008B0A90E080E00895CF93DF930E946806F4
:10161000EC0185E592E00E948B0A8C0F9D1FDF9103
:10162000CF910895CF93DF930E948B0AEC0185E55B
:1016300092E00E948B0A8C0F9D1FDF91CF9108953D
:101640000F931F93CF938C01C62F809187039091A6
:101650008803039690938803809387038EED92E02E
:101660000E94FD0AC8010E946806209187033091FC
:101670008803820F931F909388038093870388E5E4
:1016800092E00E94FD0A8BE592E0C11102C082E661
:1016900092E00E948B0A2091870330918803820F89
:1016A000931F9093880380938703CF911F910F918D
:1016B00008950F931F93CF93DF938C01EB018091DB
:1016C00087039091880305969093880380938703FE
:1016D0008EED92E00E94FD0AC8010E9468062091EA
:1016E000870330918803820F931F90938803809320
:1016F000870388E592E00E94FD0ABE01DD0F880B9A
:10170000990B97FF14C00E94DC0A20918703309147
:101710008803820F931F909388038093870388EC3C
:1017200092E0DF91CF911F910F910C94FD0A4AE056
:101730000E94980AEACFBC01990F880B990B97FD7C
:101740000C94DC0A4AE00C94980A4F925F926F92D4
:101750007F928F929F92AF92BF92CF92DF92EF9241
:10176000FF920F931F93CF936B017C01742EAC01FA
:101770009B010E942F37882399F08AE692E0CF914F
:101780001F910F91FF90EF90DF90CF90BF90AF909F
:101790009F908F907F906F905F904F900C948B0AEA
:1017A00046015701E894B7F82FEF3FEF4FE75FE7A7
:1017B000C501B4010E942F3781110DC02FEF3FEFFB
:1017C0004FE75FE7C501B4010E94653418161CF4A9
:1017D0008EE692E0D4CF2FEF3FEF4FE75FE4C701F3
:1017E000B6010E942A3718161CF482E792E0C7CF90
:1017F0002FEF3FEF4FE75FECC701B6010E94653462
:1018000087FDF3CF20E030E0A901C701B6010E94B7
:10181000653410E000E087FF0AC06DE287ED93E0D9
:101820000E941B068C01F7FAF094F7F8F094C0E0E0
:1018300060E070E080E09FE37C1641F020E030E063
:1018400040E251E40E948236CF5FF6CFA7019601B5
:101850000E9416362B013C010E94FB364B015C01B5
:101860004AE00E94980A7C01E00EF11ECC23C1F1EF
:10187000C501B4010E946A349B01AC01C301B201ED
:101880000E9415364B015C016EE287ED93E00E94E9
:101890001B06E80EF91EC15018F120E030E040E2CE
:1018A00051E4C501B4010E94CB342B013C010E94DC
:1018B000FB364B01B12CA12C4AE0C501B4010E94BA
:1018C000980AE80EF91EC501B4010E946A349B0112
:1018D000AC01C301B2010E9415364B015C01DBCFA4
:1018E000C701CF911F910F91FF90EF90DF90CF90A4
:1018F000BF90AF909F908F907F906F905F904F9030
:101900000895CF92DF92EF92FF92CF93DF93EC0195
:101910006A017B01809187039091880305969093DB
:101920008803809387038EED92E00E94FD0ACE012A
:101930000E9468062091870330918803820F931FCD
:10194000909388038093870388E592E00E94FD0AC4
:1019500044E0C701B6010E94A50B20918703309196
:101960008803820F931F909388038093870388ECEA
:1019700092E00E94FD0A87ED93E0DF91CF91FF9006
:10198000EF90DF90CF900C9483060F931F93CF932B
:10199000DF9382E090E0909388038093870387ED44
:1019A00093E00E94680664E170E08CEB93E00E9493
:1019B000590B6091BC017091BD018EEA93E00E94C9
:1019C000590B6091BA017091BB018DE993E00E94BF
:1019D000590B6091B8017091B90180E993E00E94C0
:1019E000590B6091BE017091BF0185E893E00E94A0
:1019F000590B6091B4017091B5018AE793E00E94A0
:101A0000590B6091B2017091B30189E693E00E9495
:101A1000590B6091B0017091B1018CE593E00E9487
:101A2000590B6091B6017091B70181E593E00E9476
:101A3000590B40914F0150915001609151017091AB
:101A400052018CE393E00E94810C4091530150912C
:101A50005401609155017091560187E293E00E9414
:101A6000810C40915701509158016091590170913A
:101A70005A0181E193E00E94810C40915B015091F9
:101A80005C0160915D0170915E018BEF92E00E94BC
:101A9000810C40914601509147016091480170913D
:101AA000490186EE92E00E94810C40914A015091DA
:101AB0004B0160914C0170914D0181ED92E00E94CB
:101AC000810C4091670150916801609169017091AA
:101AD0006A0181EC92E00E94810C40916B0150916F
:101AE0006C0160916D0170916E0180EB92E00E943B
:101AF000810C40916F015091700160917101709162
:101B0000720185EA92E00E94810C40915F01509140
:101B1000600160916101709162018BE892E00E9426
:101B2000810C409163015091640160916501709155
:101B3000660185E892E00E94810C6091A4038BE627
:101B400096E00E94200B609137017091380183E785
:101B500092E00E94590B6091390170913A0183E63D
:101B600092E00E94590B60913B0170913C0183E52A
:101B700092E00E94590B60913D0170913E0180E41A
:101B800092E00E94590B60913F01709140018FE2F9
:101B900092E00E94590B60914101709142018EE1E7
:101BA00092E00E94590B6091AD038CE596E00E9493
:101BB000200B60917401709175018AE092E00E949F
:101BC000590B6091AB037091AC0386EF91E00E94DA
:101BD000590B60914E0185E496E00E94200B6091C4
:101BE000730170E086E396E00E94590B6091C10199
:101BF00070E08CE296E00E94590B6091C00170E0A9
:101C000082E296E00E94590B60912E0170E088E01C
:101C100096E00E94590B60912D0170E08DEE95E0E9
:101C20000E94590B60912C0188ED95E00E94200BD9
:101C3000609133017091340185EE91E00E94590B5F
:101C4000609131017091320183ED91E00E94590B56
:101C500060912F017091300181EC95E00E94590B49
:101C6000609135017091360183EC91E00E94590B2F
:101C70006091BD038EEA95E00E94200B6091B8034D
:101C80008AE995E00E94200B6091AF0170E086E840
:101C900095E00E94590B6091BC0386E995E00E9493
:101CA000200B6091BB0381E895E00E94200B6091BE
:101CB000AD018BEF94E00E94200B6091AE0170E0CB
:101CC0008FE695E00E94590BC7E7D1E001E010E0F4
:101CD00084EB91E00E946E07C8010E949B0B20914B
:101CE000870330918803820F931F9093880380931A
:101CF000870380EB91E00E946E07688170E090E0BE
:101D000080E04AE00E94980A20918703309188037E
:101D1000820F931F90938803809387038EEA91E04C
:101D20000E946E0769817A818B819C8144E00E94C8
:101D3000A50B2091870330918803820F931F909306
:101D40008803809387038CEA91E00E946E076D817F
:101D50007E818F81988544E00E94A50B20918703A6
:101D600030918803820F931F909388038093870399
:101D700089EA91E00E946E070F5F1F4F2996073096
:101D8000110509F0A5CF6091AE0380E395E00E94B4
:101D9000200B6091760170E088E195E00E94590B7C
:101DA0006091860385E195E00E94200B60912801F7
:101DB00070E081E195E00E94590B6091290170E08B
:101DC0008DE095E00E94590B60912A0170E089E056
:101DD00095E00E94590B60912B0170E085E095E041
:101DE0000E94590B6091680381E095E00E94200BEE
:101DF0006091690370E08EEF94E00E94590B60914E
:101E0000990387EF94E00E94200B6091430170E0FA
:101E100084EF94E00E94590B6091980380EF94E066
:101E20000E94200B609197038CEE94E00E94200B9F
:101E300060919B0388EE94E00E94200B6091450125
:101E400070E085EE94E00E94590B6091440170E0CF
:101E500082EE94E00E94590B60919A038EED94E01B
:101E60000E94200B8DE991E00E946E07809187030C
:101E70009091880304960E949B0B8CEC92E0DF917A
:101E8000CF911F910F910C94120B66E772E08111B4
:101E900002C06BE772E080E193E00C946C370C9425
:101EA0009435CF92DF92EF92FF920F931F93CF93CF
:101EB000DF93EC018B01C090EE02D090EF02E09036
:101EC000F002F090F102FB016081888199810E940B
:101ED0004F0F88819981F801608188539F4F0E943C
:101EE0004F0F88819981F801608180579E4F0E9431
:101EF0004F0FF8014081C701B6010E9437072881C2
:101F000039812F5F3F4F398328836093EE027093AE
:101F1000EF028093F0029093F102DF91CF911F9135
:101F20000F91FF90EF90DF90CF900895AF92BF9206
:101F3000CF92DF92EF92FF920F931F93CF93DF9395
:101F40008C01EB01C090EE02D090EF02E090F00225
:101F5000F090F1025B0184E0A80EB11C6881F801E9
:101F6000808191810E944F0FF80180819181688169
:101F700088539F4F0E944F0FF801808191816881A3
:101F800080579E4F0E944F0F4991C701B6010E9492
:101F900037076B017C01F801808191810196918363
:101FA0008083AC16BD06D1F6C092EE02D092EF024D
:101FB000E092F002F092F102DF91CF911F910F9128
:101FC000FF90EF90DF90CF90BF90AF900895AF92C9
:101FD000BF92CF92DF92EF92FF920F931F93CF9316
:101FE000DF938C01EB01C090EE02D090EF02E09005
:101FF000F002F090F1025B0182E0A80EB11C688152
:10200000F801808191810E944F0FF80180819181B8
:10201000688188539F4F0E944F0FF8018081918102
:10202000688180579E4F0E944F0F4991C701B601AA
:102030000E9437076B017C01F80180819181019634
:1020400091838083AC16BD06D1F6C092EE02D09289
:10205000EF02E092F002F092F102DF91CF911F9136
:102060000F91FF90EF90DF90CF90BF90AF900895C9
:10207000CF92DF92EF92FF920F931F93CF93DF9354
:10208000EC018B01C090EE02D090EF02E090F002E4
:10209000F090F102FB016081888199810E944F0FCD
:1020A00088819981F801608188539F4F0E944F0F6A
:1020B00088819981F801608180579E4F0E944F0F5F
:1020C000F8014081C701B6010E9437072881398194
:1020D0002F5F3F4F398328836093EE027093EF02A6
:1020E0008093F0029093F102DF91CF911F910F91B5
:1020F000FF90EF90DF90CF900895CF92DF92EF9214
:10210000FF920F931F93CF93DF9300D0CDB7DEB72D
:1021100081E090E09A8389831092EE021092EF02A0
:102120001092F0021092F1026CEB71E0CE01019678
:102130000E94E70F6AEB71E0CE0101960E94E70F63
:1021400068EB71E0CE0101960E94E70F6EEB71E043
:10215000CE0101960E94E70F64EB71E0CE0101967B
:102160000E94E70F62EB71E0CE0101960E94E70F3B
:1021700060EB71E0CE0101960E94E70F66EB71E023
:10218000CE0101960E94E70F6FE471E0CE01019647
:102190000E94960F63E571E0CE0101960E94960FB2
:1021A00067E571E0CE0101960E94960F6BE571E044
:1021B000CE0101960E94960F66E471E0CE01019671
:1021C0000E94960F6AE471E0CE0101960E94960F7C
:1021D00067E671E0CE0101960E94960F6BE671E012
:1021E000CE0101960E94960F6FE671E0CE01019636
:1021F0000E94960F6FE571E0CE0101960E94960F46
:1022000063E671E0CE0101960E94960F64EA73E0E6
:10221000CE0101960E94510F67E371E0CE01019655
:102220000E94E70F69E371E0CE0101960E94E70F7B
:102230006BE371E0CE0101960E94E70F6DE371E060
:10224000CE0101960E94E70F6FE371E0CE01019687
:102250000E94E70F61E471E0CE0101960E94E70F52
:102260006DEA73E0CE0101960E94510F64E771E0C0
:10227000CE0101960E94E70F6BEA73E0CE01019652
:102280000E94E70F6EE471E0CE0101960E94510FAB
:1022900063E771E0CE0101960E94381061EC71E0B5
:1022A000CE0101960E94381060EC71E0CE010196DB
:1022B0000E9438106EE271E0CE0101960E94381043
:1022C0006DE271E0CE0101960E9438106CE271E07F
:1022D000CE0101960E94510F63E371E0CE01019699
:1022E0000E94E70F61E371E0CE0101960E94E70FC3
:1022F0006FE271E0CE0101960E94E70F65E371E0A5
:10230000CE0101960E94E70F6DEB73E0CE010196BE
:102310000E94510F68EB73E0CE0101960E94510FAD
:102320006CEB73E0CE0101960E94510F6FEA71E0F1
:10233000CE0101960E9438106BEB73E0CE0101963E
:102340000E94510F6EEA71E0CE0101960E94381092
:10235000C090EE02D090EF02E090F002F090F10217
:1023600007E711E0F801608189819A810E944F0F8F
:1023700089819A81F801608188539F4F0E944F0F95
:1023800089819A81F801608180579E4F0E944F0F8A
:10239000F80141918F01C701B6010E9437076B0117
:1023A0007C0189819A8101969A838983F1E00D3AB3
:1023B0001F07C1F6C092EE02D092EF02E092F00247
:1023C000F092F1026EEA73E0CE0101960E94510F85
:1023D00066E771E0CE0101960E94381069E973E06A
:1023E000CE0101960E94510F63E471E0CE01019687
:1023F0000E94381068E973E0CE0101960E94510FE7
:1024000067E973E0CE0101960E94510F6BE973E01A
:10241000CE0101960E94510F65E471E0CE01019654
:102420000E94381064E471E0CE0101960E943810D9
:102430006AE973E0CE0101960E94510F66E873E0ED
:10244000CE0101960E94510F68E271E0CE01019623
:102450000E94381069E271E0CE0101960E943810A6
:102460006BE271E0CE0101960E9438106AE271E0E1
:10247000CE0101960E94381068E673E0CE01019605
:102480000E94510F69E673E0CE0101960E94381058
:102490006DEA71E0CE0101960E94510FC090EE02EC
:1024A000D090EF02E090F002F090F1020EEE12E018
:1024B000F801608189819A810E944F0F89819A81F8
:1024C000F801608188539F4F0E944F0F89819A8144
:1024D000F801608180579E4F0E944F0FF801419193
:1024E0008F01C701B6010E9437076B017C0189810A
:1024F0009A8101969A838983F2E0023F1F07C1F611
:10250000C092EE02D092EF02E092F002F092F1025D
:102510000F900F90DF91CF911F910F91FF90EF904F
:10252000DF90CF9008950C948C35CF92DF92EF928C
:10253000FF920F931F93CF93DF938C017B01FC01DC
:10254000C080D180C6010E949312C82FC601885353
:102550009F4F0E949312D82FC60180579E4F0E9412
:102560009312CD1327C0C81325C0F701C083609113
:10257000EE027091EF028091F0029091F102F7016A
:1025800040810E9437076093EE027093EF028093C0
:10259000F0029093F102F80180819181019691837C
:1025A0008083DF91CF911F910F91FF90EF90DF908B
:1025B000CF9008956C2F682B6D23C8236C2BF701E7
:1025C0006083F801808191810E944F0FF801808122
:1025D0009181F701608188539F4F0E944F0FF8014E
:1025E00080819181F701608180579E4F0E944F0F3B
:1025F00061E08DE00E94C60460E08DE00E949804D6
:1026000064E670E080E090E00E943C0561E08DE0CF
:102610000E94980462E370E080E090E00E943C0534
:10262000A895A5CFAF92BF92CF92DF92EF92FF9283
:102630000F931F93CF93DF937C01EB016B0184E039
:10264000C80ED11CF701A080B180C5010E94931271
:10265000182FC50188539F4F0E949312082FC50160
:1026600080579E4F0E94931210132AC0181328C03F
:1026700018836091EE027091EF028091F0029091C8
:10268000F10249910E9437076093EE027093EF02C6
:102690008093F0029093F102F7018081918101967D
:1026A00091838083CC15DD0569F6DF91CF911F9171
:1026B0000F91FF90EF90DF90CF90BF90AF90089573
:1026C000612F682B60231823612B6883F7018081B9
:1026D00091810E944F0FF701808191816881885319
:1026E0009F4F0E944F0FF701808191816881805731
:1026F0009E4F0E944F0F61E08DE00E94C60460E093
:102700008DE00E94980464E670E080E090E00E9412
:102710003C0561E08DE00E94980462E370E080E097
:1027200090E00E943C05A895A4CFAF92BF92CF92B3
:10273000DF92EF92FF920F931F93CF93DF937C0171
:10274000EB016B0182E0C80ED11CF701A080B180C3
:10275000C5010E949312182FC50188539F4F0E94F4
:102760009312082FC50180579E4F0E949312101399
:102770002AC0181328C018836091EE027091EF02EE
:102780008091F0029091F10249910E943707609385
:10279000EE027093EF028093F0029093F102F70142
:1027A00080819181019691838083CC15DD0569F646
:1027B000DF91CF911F910F91FF90EF90DF90CF901D
:1027C000BF90AF900895612F682B60231823612B71
:1027D0006883F701808191810E944F0FF70180810A
:1027E0009181688188539F4F0E944F0FF70180812C
:1027F0009181688180579E4F0E944F0F61E08DE06C
:102800000E94C60460E08DE00E94980464E670E0D7
:1028100080E090E00E943C0561E08DE00E94980419
:1028200062E370E080E090E00E943C05A895A4CFB0
:10283000CF92DF92EF92FF920F931F93CF93DF938C
:102840008C017B01FC01C080D180C6010E949312E3
:10285000C82FC60188539F4F0E949312D82FC601DC
:1028600080579E4F0E949312CD1327C0C81325C0D6
:10287000F701C0836091EE027091EF028091F00247
:102880009091F102F70140810E9437076093EE02B8
:102890007093EF028093F0029093F102F80180812F
:1028A0009181019691838083DF91CF911F910F9148
:1028B000FF90EF90DF90CF9008956C2F682B6D23E1
:1028C000C8236C2BF7016083F801808191810E94FD
:1028D0004F0FF80180819181F701608188539F4FEC
:1028E0000E944F0FF80180819181F701608180572C
:1028F0009E4F0E944F0F61E08DE00E94C60460E091
:102900008DE00E94980464E670E080E090E00E9410
:102910003C0561E08DE00E94980462E370E080E095
:1029200090E00E943C05A895A5CF9F938F9381E8E6
:1029300092E09F938F9380E193E09F938F930E9407
:1029400073370F900F900F900F900F900F90089586
:102950001F920F920FB60F9211242F933F938F93D4
:102960009F93AF93BF938091CF039091D003A09199
:10297000D103B091D2033091CE0323E0230F2D3742
:1029800058F50196A11DB11D2093CE038093CF036E
:102990009093D003A093D103B093D2038091D3033B
:1029A0009091D403A091D503B091D6030196A11DB7
:1029B000B11D8093D3039093D403A093D503B09318
:1029C000D603BF91AF919F918F913F912F910F901F
:1029D0000FBE0F901F90189526E8230F0296A11D99
:1029E000B11DD2CF1F920F920FB60F9211242F93C9
:1029F0003F934F935F936F937F938F939F93AF9387
:102A0000BF93EF93FF9387ED93E00E94F905FF9149
:102A1000EF91BF91AF919F918F917F916F915F9156
:102A20004F913F912F910F900FBE0F901F901895CF
:102A30001F920F920FB60F9211242F938F939F9393
:102A4000EF93FF93E091E703F091E8038081E09139
:102A5000ED03F091EE0382FD1BC090818091F003A5
:102A60008F5F8F732091F103821741F0E091F003A3
:102A7000F0E0E952FC4F958F8093F003FF91EF91C6
:102A80009F918F912F910F900FBE0F901F901895CF
:102A90008081F4CF1F920F920FB60F9211242F93C3
:102AA0003F934F935F936F937F938F939F93AF93D6
:102AB000BF93CF93EF93FF9399B18091ED02C091B3
:102AC000EA02C923282F2095C2232091E7028223FE
:102AD000292F20958223C82B9093ED02C4FF05C0B7
:102AE000E0911801F09119010995C5FF05C0E09129
:102AF0001A01F0911B010995C6FF05C0E0911C0168
:102B0000F0911D010995C7FF05C0E0911E01F091EC
:102B10001F010995C0FF05C0E0912001F09121013E
:102B20000995C1FF05C0E0912201F09123010995AB
:102B3000C2FF05C0E0912401F09125010995C3FF72
:102B400005C0E0912601F09127010995FF91EF91D1
:102B5000CF91BF91AF919F918F917F916F915F9135
:102B60004F913F912F910F900FBE0F901F9018958E
:102B70001F920F920FB60F9211242F933F934F93F2
:102B80005F936F937F938F939F93AF93BF93CF93F5
:102B9000EF93FF9396B18091EC02C091E902C923B3
:102BA000282F2095C2232091E6028223292F2095E9
:102BB0008223C82B9093EC02C0FF05C0E0910C016A
:102BC000F0910D010995C1FF05C0E0910E01F09152
:102BD0000F010995C2FF05C0E0911001F0911101AC
:102BE0000995C3FF05C0E0911201F0911301099509
:102BF000C4FF05C0E0911401F09115010995C5FFCE
:102C000005C0E0911601F09117010995FF91EF9130
:102C1000CF91BF91AF919F918F917F916F915F9174
:102C20004F913F912F910F900FBE0F901F901895CD
:102C30001F920F920FB60F9211242F933F934F9331
:102C40005F936F937F938F939F93AF93BF93CF9334
:102C5000EF93FF9393B18091EB02C091E802C923F7
:102C6000282F2095C2232091E5028223292F209529
:102C70008223C82B9093EB02C0FF05C0E0910001B6
:102C8000F09101010995C1FF05C0E0910201F091A9
:102C900003010995C2FF05C0E0910401F09105010F
:102CA0000995C3FF05C0E0910601F0910701099560
:102CB000C4FF05C0E0910801F09109010995C5FF25
:102CC00005C0E0910A01F0910B010995FF91EF9188
:102CD000CF91BF91AF919F918F917F916F915F91B4
:102CE0004F913F912F910F900FBE0F901F9018950D
:102CF0001F920F920FB60F9211242F933F934F9371
:102D00005F936F937F938F939F93AF93BF93CF9373
:102D1000DF93EF93FF938091E402C0919804D0E099
:102D200087FF24C010928500109284008091E402F5
:102D30008F5F8093E4028091E402082E000C990BCF
:102D40008C179D0724F48091E4028C30C4F18091AB
:102D5000840090918500049680349C4908F47AC0E0
:102D60008091840090918500049676C08091E40261
:102D7000082E000C990B8C179D07C4F6E091E40215
:102D80008E2FEE0F990BFC01EE0FFF1FE80FF91FBE
:102D9000EC58FB4F808186FFC9CFE091E4028E2F73
:102DA000EE0F990BFC01EE0FFF1FE80FF91FEC5817
:102DB000FB4F808160E08F730E949804B7CF209111
:102DC000840030918500E091E4028E2FEE0F990B84
:102DD000FC01EE0FFF1FE80FF91FEC58FB4F81813C
:102DE0009281820F931F9093890080938800E091D5
:102DF000E4028E2FEE0F990BFC01EE0FFF1FE80F80
:102E0000F91FEC58FB4F808186FF11C0E091E4026E
:102E10008E2FEE0F990BFC01EE0FFF1FE80FF91F2D
:102E2000EC58FB4F808161E08F730E949804FF9102
:102E3000EF91DF91CF91BF91AF919F918F917F9152
:102E40006F915F914F913F912F910F900FBE0F9017
:102E50001F90189580E49CE99093890080938800E6
:102E60008FEF8093E402E3CF1F920F920FB60F9281
:102E700011242F933F934F935F936F937F938F937F
:102E80009F93AF93BF93EF93FF93A895F0E0E0E09B
:102E90000995FF91EF91BF91AF919F918F917F9194
:102EA0006F915F914F913F912F910F900FBE0F90B7
:102EB0001F901895FF920F931F93CF93DF93A8E273
:102EC000B1E06CE271E041E050E023EA36E08D9140
:102ED000863108F057C090E1883058F091E08E308C
:102EE00008F490E0990F990F990F8E3008F048C0C0
:102EF0008850890F982F969596959695C82FC770EC
:102F0000911166C0811140C03093010120930001EE
:102F1000E92FF0E08A0102C0000F111FCA95E2F705
:102F2000F02EF0948F0108511D4FE80188818F2108
:102F300088838F010B511D4FE80188818F21888381
:102F4000E559FF4F8081CF2DC823C0838081811137
:102F50000DC0E09168008A0102C0000F111F9A9510
:102F6000E2F7C80180958E23809368006A177B077B
:102F700009F0ADCFDF91CF911F910F91FF90089590
:102F80008E50B7CF8FEFB6CF813029F43093030145
:102F900020930201BDCF823029F4309305012093A4
:102FA0000401B6CF833029F4309307012093060142
:102FB000AFCF843029F43093090120930801A8CFC2
:102FC000853009F0A5CF30930B0120930A01A0CFE3
:102FD000913059F5883029F430930D0120930C017C
:102FE00097CF893029F430930F0120930E0190CFB1
:102FF0008A3029F4309311012093100189CF8B304E
:1030000029F4309313012093120182CF8C3029F4DC
:1030100030931501209314017BCF8D3009F078CFC8
:10302000309317012093160173CF923009F09ECF91
:10303000803129F4309321012093200169CF81311F
:1030400029F4309323012093220162CF823129F4A5
:1030500030932501209324015BCF833129F43093F1
:1030600027012093260154CF843129F4309319018C
:10307000209318014DCF853129F430931B01209303
:103080001A0146CF863129F430931D0120931C018B
:103090003FCF873109F03CCF30931F0120931E01B1
:1030A00037CF1092DA031092D90388EE93E0A0E0B4
:1030B000B0E08093DB039093DC03A093DD03B09337
:1030C000DE0387E492E09093D8038093D70385ECE6
:1030D00090E09093E4038093E30384EC90E090937A
:1030E000E6038093E50380EC90E09093E8038093FF
:1030F000E70381EC90E09093EA038093E90382EC8C
:1031000090E09093EC038093EB0386EC90E0909337
:10311000EE038093ED031092F0031092F1031092EE
:10312000F2031092F303809198048C3048F591E0FB
:10313000980F9093980480939C0490E0FC01EE0F0C
:10314000FF1FE80FF91FEC58FB4F88EB9BE09283C1
:103150008183809198048C30B8F491E0980F90931B
:1031600098048093990490E0FC01EE0FFF1FE80F94
:10317000F91FEC58FB4F88EB9BE092838183089505
:103180008FEF80939C04E5CF8FEF8093990408958F
:10319000CF93DF93CDB7DEB7E6970FB6F894DEBFD7
:1031A0000FBECDBF789484B5826084BD84B5816044
:1031B00084BD85B5826085BD85B5816085BD809102
:1031C0006E00816080936E0010928100809181007A
:1031D0008260809381008091810081608093810072
:1031E000809180008160809380008091B100846034
:1031F0008093B1008091B00081608093B000809195
:103200007A00846080937A0080917A008260809353
:103210007A0080917A00816080937A0080917A00B0
:10322000806880937A001092C10061E08DE00E9476
:10323000C60461E08DE00E949804E091E703F091FC
:10324000E80382E08083E091E303F091E4031082DD
:10325000E091E503F091E60387E080831092EF03AD
:10326000E091EB03F091EC0386E08083E091E903C9
:10327000F091EA03808180618083E091E903F0911D
:10328000EA03808188608083E091E903F091EA039A
:10329000808180688083E091E903F091EA03808176
:1032A0008F7D808385E592E00E948B0A62E370E067
:1032B00080E090E00E943C0560E08DE00E94980470
:1032C000F894A8958091600088618093600087E4FD
:1032D00080936000789480E092E09093C90380939B
:1032E000C8039093C7038093C6031092BE03109245
:1032F000BF031092C0031092C1031092C203109238
:10330000C3031092C4031092C5031092A00310923D
:10331000A1031092A2031092A30310929C03109297
:103320009D0310929E0310929F031092AF03109280
:10333000B0031092B1031092B2031092B303109233
:10334000B4031092B5031092B6038FEF9FEF9093E2
:10335000AA038093A90380E090E0A0E8BFE38093F4
:10336000A5039093A603A093A703B093A80310927C
:10337000CA031092CB031092CC031092CD0310928B
:10338000890310928A0310928B0310928C0381E0C0
:1033900080938D031092B70310928F0310929003C5
:1033A00010929103109292031A8E198EBE01655EDF
:1033B0007F4FCE0149960E9418148B8D843161F0A5
:1033C0001A8E198E6AEC71E0CE0149960E9438106F
:1033D0000E947D1010928D0381E090E09A8B898B82
:1033E0001092EE021092EF021092F0021092F1028F
:1033F0006CEB71E0CE0141960E9495136AEB71E08F
:10340000CE0141960E94951368EB71E0CE01419682
:103410000E9495136EEB71E0CE0141960E949513C8
:1034200064EB71E0CE0141960E94951362EB71E06E
:10343000CE0141960E94951360EB71E0CE0141965A
:103440000E94951366EB71E0CE0141960E949513A0
:103450006FE471E0CE0141960E94121363E571E0C2
:10346000CE0141960E94121367E571E0CE014196AC
:103470000E9412136BE571E0CE0141960E94121377
:1034800066E471E0CE0141960E9412136AE471E095
:10349000CE0141960E94121367E671E0CE0141967B
:1034A0000E9412136BE671E0CE0141960E94121346
:1034B0006FE671E0CE0141960E9412136FE571E054
:1034C000CE0141960E94121363E671E0CE0141964F
:1034D0000E94121364EA73E0CE0141960E94951295
:1034E00067E371E0CE0141960E94951369E371E0B4
:1034F000CE0141960E9495136BE371E0CE01419697
:103500000E9495136DE371E0CE0141960E949513E0
:103510006FE371E0CE0141960E94951361E471E082
:10352000CE0141960E9495136DEA73E0CE0141965B
:103530000E94951264E771E0CE0141960E949513B6
:103540006BEA73E0CE0141960E9495136EE471E040
:10355000CE0141960E94951263E771E0CE0141963B
:103560000E94181461EC71E0CE0141960E9418147B
:1035700060EC71E0CE0141960E9418146EE271E099
:10358000CE0141960E9418146DE271E0CE01419681
:103590000E9418146CE271E0CE0141960E949512CF
:1035A00063E371E0CE0141960E94951361E371E0FF
:1035B000CE0141960E9495136FE271E0CE014196D3
:1035C0000E94951365E371E0CE0141960E94951328
:1035D0006DEB73E0CE0141960E94951268EB73E0AB
:1035E000CE0141960E9495126CEB73E0CE0141969C
:1035F0000E9495126FEA71E0CE0141960E94181464
:103600006BEB73E0CE0141960E9495126EEA71E079
:10361000CE0141960E94181407E711E0C988DA88A4
:10362000C6010E949312F82EC60188539F4F0E9434
:103630009312E82EC60180579E4F0E949312FE10EF
:103640003AC1F81238C1D801FC926091EE02709133
:10365000EF028091F0029091F102D8014D918D011D
:103660000E9437076093EE027093EF028093F0029E
:103670009093F10289899A8901969A8B898BB1E09E
:103680000D3A1B0759F66EEA73E0CE0141960E948F
:10369000951266E771E0CE0141960E94381069E903
:1036A00073E0CE0141960E94951263E471E0CE0171
:1036B00041960E94181468E973E0CE0141960E9479
:1036C000951267E973E0CE0141960E9495126BE96D
:1036D00073E0CE0141960E94951265E471E0CE013F
:1036E00041960E94181464E471E0CE0141960E9454
:1036F00018146AE973E0CE0141960E94951266E8BB
:1037000073E0CE0141960E94951268E271E0CE010D
:1037100041960E94181469E271E0CE0141960E9420
:1037200018146BE271E0CE0141960E9418146AE20F
:1037300071E0CE0141960E94181468E673E0CE0154
:1037400041960E94951269E673E0CE0141960E946F
:1037500018146DEA71E0CE0141960E9495124090D6
:10376000EE025090EF026090F0027090F102198228
:103770001A821B821C828E010F5F1F4F6E01E5E0D3
:10378000CE0ED11CA988BA88C5010E949312F82ECA
:10379000C50188539F4F0E949312E82EC5018057A0
:1037A0009E4F0E949312FE10BAC0F812B8C0D80102
:1037B000FC926091EE027091EF028091F002909184
:1037C000F102D8014D918D010E9437076093EE02FE
:1037D0007093EF028093F0029093F10289899A89A5
:1037E00001969A8B898B0C151D0561F689819A814A
:1037F000AB81BC81481659066A067B0609F4F2C003
:1038000062E370E080E090E00E943C0585E394E094
:103810000E94040B62E370E080E090E00E943C05AF
:10382000E0919C048E2F90E0FC01EE0FFF1FE80F4B
:10383000F91FEC58FB4F808186FF02C08F7B80838D
:10384000E09199048E2F90E0FC01EE0FFF1FE80F2E
:10385000F91FEC58FB4F808186FF02C08F7B80836D
:1038600064E670E080E090E00E943C0512E060E0D9
:10387000812F0E94C6041F5F1536C9F761E08DE0F5
:103880000E94C60462E370E080E090E00E943C0584
:103890000FB6F894A89580916000886180936000CD
:1038A000109260000FBE89E194E00E94040B10E0CA
:1038B00088EC90E06EC06F2D682B6E21F8226F2986
:1038C000F8016083C6010E944F0F89899A89D80147
:1038D0006C9188539F4F0E944F0F89899A89F801F4
:1038E000608180579E4F0E944F0F61E08DE00E94E3
:1038F000C60460E08DE00E94980464E670E080E019
:1039000090E00E943C0561E08DE00E94980462E333
:1039100070E080E090E00E943C05A89596CE6F2D67
:10392000682B6E21F8226F29F801608389899A89B2
:103930000E944F0F89899A89D8016C9188539F4FB3
:103940000E944F0F89899A89F801608180579E4FA4
:103950000E944F0F61E08DE00E94C60460E08DE0A0
:103960000E94980464E670E080E090E00E943C05CC
:1039700061E08DE00E94980462E370E080E090E0F6
:103980000E943C05A89515CF113009F091CF88E52C
:1039900092E003E06C01990FEE08FF0861E08DE012
:1039A0000E949804C701B6010E943C0560E08DE0CA
:1039B0000E94980468EC70E080E090E00E943C0572
:1039C000015061F760E971E080E090E0123021F48D
:1039D00068E775E080E090E00E943C051F5F1330CF
:1039E00099F661CF809137019091380190939603B9
:1039F0008093950380913D0190913E0190939403B3
:103A00008093930380912C0180938E0368E770E08C
:103A100080E090E00E943C050E94C50C6AEF70E0D7
:103A200080E090E00E943C050E94C50C60E080911F
:103A3000C1010E94C60460E08091C0010E94C604DA
:103A400060E0809173010E94C6048091BD038823C9
:103A5000D1F08091B803882329F062E08091AF0112
:103A60000E94C60410E009E08091AE01181758F4D6
:103A7000019FF0011124E958FE4F62E080810E940D
:103A8000C6041F5FF1CF8091AE03882329F062E066
:103A9000809176010E94C6048091860381110E9464
:103AA000B90880919903882329F062E0809143014D
:103AB0000E94C60480919B03882351F062E08091AC
:103AC00045010E94C60462E0809144010E94C60440
:103AD00060912E0170E08CE994E00E94DB06609119
:103AE0002D0170E089E994E00E94DB0660913701C6
:103AF000709138018CE994E00E94A40660913D0128
:103B000070913E0189E994E00E94A40664E670E0A9
:103B100080E090E00E943C05A89587ED93E00E942C
:103B2000B705F82EBFEF8B1709F43CC5ECE28E13F6
:103B30009EC6E0915B03F0E0E15EFC4F108264E81A
:103B400072E08FE193E00E9489307C0164E872E0CA
:103B500090E080E00E9489308C018FE0A0E1B3E02A
:103B60001D928A95E9F75DE1A52E52E0B52ED12C84
:103B7000C12CD501ED91FD915D01EE0FFF1FED57B9
:103B8000F94F6591749182EF92E00E94823062EF6A
:103B900072E0C7010E946337892B81F4C8010E943B
:103BA0005B30F601EE0FFF1FE950FE4F0190F081F0
:103BB000E02D918380830E9495146DC0BFEFCB1AD6
:103BC000DB0AE3E1CE16D104A1F621EEA22E21E01C
:103BD000B22ED12CC12C9C2CD501ED91FD915D0113
:103BE000EE0FFF1FED57F94F6591749182EF92E050
:103BF0000E94823062EF72E0C7010E946337892B16
:103C000009F07FC0F601EE0FFF1FE553FE4FC080A5
:103C1000D180C8010E9457302B013C0187EF890DEC
:103C2000823008F056C0F60140825182628273826F
:103C30008AEF890D833020F5F60180809180A28083
:103C4000B38020E030E0A901C501B4010E946534D1
:103C500087FD53C020E030E040E85FE3C501B401D8
:103C60000E942A37181634F4812C912C10E8A12ECA
:103C70001FE3B12ED6018D929D92AD92BC92139707
:103C8000F601608171818281938100E113E024E07B
:103C900040E00E94393089E694E00E94680688EC92
:103CA00092E00E94FD0A8CE594E00E946806C7013C
:103CB0000E94FD0A87EC92E00E94FD0A81E594E0F3
:103CC0000E94680680E193E00E94FD0A8BEC92E07E
:103CD000D6C220E030E0A901C301B2010E942A3718
:103CE000181624F077FA709477F87094D6014D92F4
:103CF0005D926D927C9213979BCF812C912C5401F5
:103D0000B9CFFFEFCF1ADF0A2BE0C216D10409F0BA
:103D100062CF6BE676E0C7010E947930892B59F4B7
:103D2000C8010E945B3021E0892B09F420E0209338
:103D3000A403822F71C16CE576E0C7010E9479303F
:103D4000892B51F4C8010E945B3021E0892B09F4D2
:103D500020E02093AD03EDCF65E476E0C7010E943B
:103D60007930892B51F4C8010E945B3021E0892B06
:103D700009F420E020934E01DCCF66E376E0C70132
:103D80000E947930892B61F4C8010E945B308093D6
:103D9000730160E00E94C6048091730190E00BCF34
:103DA0006CE276E0C7010E947930892B59F4C80192
:103DB0000E945B308093C10160E00E94C604809144
:103DC000C101ECCF62E276E0C7010E947930892B15
:103DD00059F4C8010E945B308093C00160E00E94EA
:103DE000C6048091C001DACF68E076E0C7010E9486
:103DF0007930892B09F058C060913D0170913E01E6
:103E000089E994E00E94A406E09199048E2F90E045
:103E1000FC01EE0FFF1FE80FF91FEC58FB4F8081EC
:103E20008F7B808360913701709138018CE994E039
:103E30000E94A406E0919C048E2F90E0FC01EE0FFE
:103E4000FF1FE80FF91FEC58FB4F80818F7B8083A9
:103E5000C8010E945B3080932E016AE070E080E030
:103E600090E00E943C0560912E0170E08CE994E0A6
:103E70000E94DB0660913701709138018CE994E073
:103E80000E94A40660912D0170E089E994E00E94EF
:103E9000DB0660913D0170913E0189E994E00E944A
:103EA000A40680912E017ACF6DEE75E0C7010E94C5
:103EB0007930892B09F058C0609137017091380131
:103EC0008CE994E00E94A406E0919C048E2F90E07F
:103ED000FC01EE0FFF1FE80FF91FEC58FB4F80812C
:103EE0008F7B808360913D0170913E0189E994E070
:103EF0000E94A406E09199048E2F90E0FC01EE0F41
:103F0000FF1FE80FF91FEC58FB4F80818F7B8083E8
:103F1000C8010E945B3080932D016AE070E080E070
:103F200090E00E943C0560912D0170E089E994E0E9
:103F30000E94DB0660913D0170913E0189E994E0A9
:103F40000E94A40660912E0170E08CE994E00E942A
:103F5000DB0660913701709138018CE994E00E9492
:103F6000A40680912D011ACF68ED75E0C7010E946B
:103F70007930892B51F4C8010E945B3021E0892BF4
:103F800009F420E020932C01D4CE61EC75E0C70148
:103F90000E947930892B91F4C8010E945B30893EE0
:103FA00043E0940714F088EE93E097FF02C090E09E
:103FB00080E09093300180932F01FDCD6EEA75E093
:103FC000C7010E947930892B51F5C8010E945B30EE
:103FD00021E0009709F420E02093BD03892BD1F064
:103FE0008091B803882329F062E08091AF010E949C
:103FF000C60410E08091AE01181760F459E0519F9B
:10400000F0011124E958FE4F62E080810E94C6044D
:104010001F5FF0CF8091BD030E94450F3CCE6AE93F
:1040200075E0C7010E947930892B41F5C8010E94D3
:104030005B3021E0009709F420E02093B803209141
:10404000BD032223C1F0892B29F062E08091AF01EA
:104050000E94C60410E08091AE01181760F489E058
:10406000819FF0011124E958FE4F62E080810E9497
:10407000C6041F5FF0CF8091B803CECF66E975E02C
:10408000C7010E947930892B51F4C8010E945B302E
:1040900021E0892B09F420E02093BC034ACE66E896
:1040A00075E0C7010E947930892B59F4C8010E943C
:1040B0005B308093AF0162E00E94C6048091AF0143
:1040C0006DCE61E875E0C7010E947930892B51F40B
:1040D000C8010E945B3021E0892B09F420E0209385
:1040E000BB0327CE6FE675E0C7010E947930892BAC
:1040F00079F5C8010E945B3097FD23C08730910598
:1041000014F58093AE018091BD038823F1F0809176
:10411000B803882329F062E08091AF010E94C604B1
:1041200010E08091AE01181780F499E0919FF001A2
:104130001124E958FE4F62E080810E94C6041F5F8F
:10414000F0CF80E0DECF86E0DCCF8091AE0126CEDE
:1041500067E872E0C7010E946337892B09F092C0BB
:10416000C8010E945B306C015C01A1E0AA1AB10891
:10417000B6E0AB16B10408F013C261EA72E0C80100
:104180000E94893061EA72E090E080E00E9489300C
:104190000E945B30E9E0EA9D9001EB9D300D112417
:1041A000A90149585E4F7A01DA018C9361EA72E005
:1041B00090E080E00E9489300E945730F7016183CF
:1041C00072838383948361EA72E090E080E00E94CE
:1041D00089300E945730D70115966D937D938D934A
:1041E0009C93189762E08C910E94C6048BE595E041
:1041F0000E94680684EA92E00E94FD0A8EE495E03F
:104200000E94680685E992E00E94FD0AC6010E94AC
:104210009B0B83EA92E00E94FD0A84E495E00E94F1
:104220006806F701608170E090E080E04AE00E945B
:10423000980A84EA92E00E94FD0AD70111966D91D6
:104240007D918D919C91149700E113E024E040E072
:104250000E943930C8010E94FD0A84EA92E00E945F
:10426000FD0AF701658176818781908524E040E031
:104270000E943930C8010E94FD0A86EA92E00E943D
:10428000120B8EC160E375E0C7010E947930892B63
:10429000B9F4C8010E945B3021E0009709F420E0E6
:1042A0002093AE03892BE9F162E0809176010E94B0
:1042B000C60466E772E080E193E00E946C37EBCCC5
:1042C00068E175E0C7010E947930892B59F4C80173
:1042D0000E945B308093760162E00E94C604809168
:1042E00076015CCD65E175E0C7010E947930892BCC
:1042F000D9F4C8010E945B3021E0009709F420E066
:1043000020938603892B59F00E945A1766E772E0C2
:1043100080E193E00E946C370E94B908BCCC0E94F7
:104320005A176BE772E0C7CF61E175E0C7010E94E1
:104330007930892B61F40E945A17C8010E945B30C2
:10434000809328010E94B9088091280127CD6DE053
:1043500075E0C7010E947930892B61F40E945A17D9
:10436000C8010E945B30809329010E94B9088091A6
:10437000290114CD69E075E0C7010E947930892BCD
:1043800061F40E945A17C8010E945B3080932A0191
:104390000E94B90880912A0101CD65E075E0C7014E
:1043A0000E947930892B61F40E945A17C8010E943B
:1043B0005B3080932B010E94B90880912B01EECCD9
:1043C00061E075E0C7010E947930892B51F4C80182
:1043D0000E945B3021E0892B09F420E020936803E0
:1043E000A8CC6EEF74E0C7010E947930892B49F4A4
:1043F000C8010E945B30833008F082E0809369033B
:10440000CDCC6BEF74E0C7010E947930892B51F459
:10441000C8010E945B3021E0892B09F420E0209341
:10442000AD0187CC67EF74E0C7010E947930892B1A
:1044300099F4C8010E945B3021E0009709F420E064
:1044400020939903892B29F062E0809143010E9417
:10445000C60480919903E0CD64EF74E0C7010E9427
:104460007930892B79F4C8010E945B308093430135
:1044700090919903992319F062E00E94C6048091FB
:1044800043018CCC60EF74E0C7010E947930892B26
:1044900051F4C8010E945B3021E0892B09F420E02F
:1044A0002093980346CC6CEE74E0C7010E947930EB
:1044B000892B51F4C8010E945B3021E0892B09F45B
:1044C00020E02093970335CC68EE74E0C7010E948A
:1044D0007930892BC1F4C8010E945B3021E000973C
:1044E00009F420E020939B03892B51F062E0809136
:1044F00045010E94C60462E0809144010E94C60406
:1045000080919B0389CD65EE74E0C7010E947930EC
:10451000892B59F4C8010E945B308093450162E009
:104520000E94C6048091450139CC62EE74E0C70157
:104530000E947930892B59F4C8010E945B30809326
:10454000440162E00E94C6048091440127CC6EEDD4
:1045500074E0C7010E947930892B51F4C8010E9490
:104560005B3021E0892B09F420E020939A03E1CB12
:1045700069EA72E0C7010E946337892B39F40E940F
:104580007D108AEC94E00E94040B0AC06EEA72E08F
:10459000C7010E946337892B09F01BC10E94C50C1B
:1045A00010925B038091600381110DC00E9417057A
:1045B00060935C0370935D0380935E0390935F034D
:1045C00081E080936003C0905C03D0905D03E09035
:1045D0005E03F0905F03C114D104E104F10409F417
:1045E0006BC10E9417056C197D098E099F090E94F5
:1045F0006A3420E034E244E759E40E9482366B01D9
:104600007C010E94170560935C0370935D038093A7
:104610005E0390935F03C092CA03D092CB03E092F3
:10462000CC03F092CD038091C1010E9402056C0180
:104630009093C9038093C8038091C0010E94020532
:104640007C019093C7038093C6030091BE01109133
:10465000BF012091BC013091BD014091BA01509140
:10466000BB016091B8017091B901C6010E947B073E
:104670006093C2037093C3038093C4039093C503F4
:104680000091B6011091B7012091B4013091B501AC
:104690004091B2015091B3016091B0017091B101AC
:1046A000C7010E947B076093BE037093BF03809392
:1046B000C0039093C1032091BD03222309F41CC1C0
:1046C0008091BC03882309F405C18091AF010E9449
:1046D0006F04AC0191E04115510509F490E080911F
:1046E000BB03981311C02091BA0327FB222720F99E
:1046F00031E0452B09F030E0231306C08091B90367
:1047000021E082278093B9038091BA0390FB87F957
:104710008093BA038091B903882309F4EFC0E09035
:10472000BB03C090AE018091AD01811110C0109209
:10473000BE031092BF031092C0031092C1031092E7
:10474000C2031092C3031092C4031092C50307E77B
:1047500011E0D12CF12CCD1409F4D0C0D8018C91EA
:104760000E946F048E159F0581F5F8012181328129
:10477000438154816091BE037091BF038091C00357
:104780009091C1030E9416366093BE037093BF03DD
:104790008093C0039093C103D80115962D913D914C
:1047A0004D915C9118976091C2037091C303809101
:1047B000C4039091C5030E9416366093C2037093A0
:1047C000C3038093C4039093C503D394075F1F4F23
:1047D000C2CF67EB72E0C7010E946337892BA1F457
:1047E0001A8A198A45E150E05A834983BE016F5FF6
:1047F0007F4FCE0141960E94E70F68E873E180E0A9
:1048000090E00E943C0547CA6EEB72E0C7010E942F
:104810006337892B91F365EC72E0C7010E9463371F
:10482000892B31F481E080938D038BEA94E0ABCE49
:1048300065EB72E0C7010E946337892BA9F41092DF
:104840008D0360913701709138018CE994E00E94EA
:10485000A40660913D0170913E0189E994E00E94B7
:10486000A40685E994E08FCE8DE794E08CCE082FE6
:10487000880F110BC8010E944637892B51F483ED34
:104880008F0D823030F05AE3F51619F08FE5F812EB
:1048900089CEC8010E945B3790915B03E92FF0E05D
:1048A000E15EFC4F808382E0890F8C3308F07ACE82
:1048B0009F5F90935B0376CE0E94170560935C0325
:1048C00070935D0380935E0390935F03C12CD12CA2
:1048D0007601A1CE8091B803882359F08091AF0171
:1048E0000E946F043091BB0321E03817190609F0CC
:1048F00020E02093B9030ECF1092B9038091B70343
:10490000882309F44BC6D09086038091BA038D7F2B
:10491000877FDD2009F406C10E946F0500918203A4
:10492000109183032091840330918503601B710BE8
:10493000820B930BCC24C3946734710581059105D8
:1049400008F0C12CF8948E010F5F1F4FDE015196C5
:10495000980190E080E0FC01EE0FFF1FEE0FFF1FBB
:10496000EE58FC4F4081518162817381F90141937E
:104970005193619371939F01FC01EE0FFF1FE65964
:10498000FC4F408151814D935D9301968430910598
:1049900011F778947801F0E1EF0EF11C0E941705F1
:1049A000D8018D909D90AD90BD908D0168197909C9
:1049B0008A099B09613771418140910508F0C12C3A
:1049C000E016F10659F7CC2009F4DAC58091BA0354
:1049D00081608093BA032D893E89233331050CF41D
:1049E00047C082608093BA038F89988D8333910585
:1049F0000CF444C08091BA0384608093BA0389891F
:104A00009A89C1968336910510F41A8A198A8B897E
:104A10009C89C1968336910510F41C8A1B8A1091DB
:104A2000BA0311FF33C069897A89072E000C880BFD
:104A3000990B0E946C3420E030E04AEF53E40E946E
:104A400082366093BE037093BF038093C00390933C
:104A5000C1036B897C89072E000C880B990B0E947F
:104A60006C3420E030E04AEF53E40E9482364FC0BD
:104A70002E3C3F4F0CF0B8CF8D7FB4CF8E3C9F4F74
:104A80000CF0BDCF8091BA038B7FB7CF80916903C3
:104A9000C090BE03D090BF03E090C003F090C1036C
:104AA000813009F013C569897A89072E000C880BBB
:104AB000990B0E946C3420E030E04AEF53E40E94EE
:104AC0008236A70196010E9416366093BE0370934A
:104AD000BF038093C0039093C1036B897C89072E29
:104AE000000C880B990B0E946C3420E030E04AEFF8
:104AF00053E40E9482369B01AC016091C203709125
:104B0000C3038091C4039091C5030E94163660933D
:104B1000C2037093C3038093C4039093C503812F92
:104B200012FB83F98093BA038091C2039091C3036F
:104B3000A091C403B091C5038093B3039093B403D1
:104B4000A093B503B093B6038091BE039091BF03C9
:104B5000A091C003B091C1038093AF039093B003C1
:104B6000A093B103B093B2038091AE03882371F098
:104B7000809176010E946F04892B41F41092B30357
:104B80001092B4031092B5031092B6038091AD0356
:104B9000882309F40AC5E090AB03F090AC03C09001
:104BA0007401D0907501809173010E9402058C01FF
:104BB0009093AA038093A903B601DD0C880B990B8F
:104BC0000E946C344B015C01B801110F880B990BEA
:104BD0000E946C34A50194010E9415362B013C0102
:104BE000B701FF0C880B990B0E946C34A50194014E
:104BF0000E9415369B01AC01C301B2010E948236AE
:104C000020E030E0A9010E9416366B017C0120E013
:104C100030E0A9010E94653487FDC3C420E030E084
:104C200040E85FE3C701B6010E942A37181634F442
:104C3000C12CD12C30E8E32E3FE3F32EC092A50324
:104C4000D092A603E092A703F092A80380916F018F
:104C500090917001A0917101B09172018C8F9D8F24
:104C6000AE8FBF8F80916B0190916C01A0916D010F
:104C7000B0916E0188A399A3AAA3BBA380906701FA
:104C800090906801A0906901B0906A018091A5039D
:104C90009091A603A091A703B091A8038CA39DA314
:104CA000AEA3BFA320E030E0A90168A179A18AA149
:104CB0009BA10E942A37C8A0D9A0EAA0FBA0181681
:104CC00024F0F7FAF094F7F8F09420E030E0A9012E
:104CD000C501B4010E942A3724013501181624F0B9
:104CE00077FA709477F8709420E030E0A9016C8D29
:104CF0007D8D8E8D9F8D0E942A3718164CF08C8DDD
:104D00009D8DAE8DBF8DB0588C8F9D8FAE8FBF8F18
:104D1000A30192016CA17DA18EA19FA10E94CB3421
:104D2000562E472E382E292EC701B60190582CA199
:104D30003DA14EA15FA10E94CB343B018C01C090EC
:104D4000AF03D090B003E090B103F090B20320E045
:104D500030E0A901C701B6010E946534882309F437
:104D60003DC420E030E0A901C701B6010E942A3706
:104D7000A701960118160CF025C4652D742D832DFE
:104D8000922D0E94CB3420E030E0A9010E9416361B
:104D90006B017C01A7019601B301C8010E942A376B
:104DA00018160CF41FC4A7019601652D742D832DD0
:104DB000922D0E94653487FF04C0C52CD42CE32CAF
:104DC000F22CC092AF03D092B003E092B103F09204
:104DD000B2032091B3033091B4034091B5035091D5
:104DE000B6036C8D7D8D8E8D9F8D0E94CB342CA152
:104DF0003DA14EA15FA10E94CB341B018C012CA1CF
:104E00003DA14EA15FA16C8D7D8D8E8D9F8D9058A3
:104E10000E94CB342B013C019B01AC01B101C801C4
:104E20000E94653487FD16C02C8D3D8D4E8D5F8DA3
:104E30006CA17DA18EA19FA10E94CB342B013C01CE
:104E40009B01AC01B101C8010E942A37181614F069
:104E50002101380120E030E0A901C701B6010E941C
:104E60002A3787FFC2C3609163017091640180910A
:104E700065019091660188A099A0AAA0BBA020918D
:104E80005F013091600140916101509162010E9487
:104E9000CB349B01AC0160E070E080E89FE30E94AE
:104EA00015366C8F7D8F8E8F9F8F20E030E0A901AB
:104EB000C701B6010E942A37A701960118160CF007
:104EC00050586C8D7D8D8E8D9F8D0E94CB346C8F54
:104ED0007D8F8E8F9F8F20E030E0A901C501B40146
:104EE0000E942A3718160CF085C327E137EB41EDF5
:104EF00058E3C501B4010E9416369B01AC016C8DCC
:104F00007D8D8E8D9F8D0E9482369B01AC0160E06D
:104F100070E080E89FE30E9415364B015C0120E0C1
:104F200030E0A9010E942A3718161CF0812C912C20
:104F30005401A5019401B201C3010E94CB344B017D
:104F40005C0120E030E040E85FEB0E94653487FDC3
:104F50005AC320E030E040E85FE3C501B4010E949D
:104F60002A37181634F4812C912C20E8A22E2FE336
:104F7000B22E8092B3039092B403A092B503B09284
:104F8000B60320E030E0A901C701B6010E946534F4
:104F900087FF10C08091A403882361F0B7FAB09412
:104FA000B7F8B0948092B3039092B403A092B50383
:104FB000B092B6038091CA039091CB03A091CC0329
:104FC000B091CD038C8F9D8FAE8FBF8F80915B0191
:104FD00090915C01A0915D01B0915E0188A799A7B5
:104FE000AAA7BBA78090570190905801A0905901A3
:104FF000B0905A018091530190915401A0915501B4
:10500000B091560188AB99ABAAABBBAB40904F01B6
:1050100050905001609051017090520180914E016A
:105020008111F8C21CA61CAA90E89DABAFE3AEAB01
:105030008091A0039091A103A091A203B091A3033A
:1050400088A399A3AAA3BBA320E030E0A901C301D0
:10505000B2010E942A3718161CF0412C512C320143
:10506000A30192016CA57CA98DA99EA90E94CB34B5
:105070002B013C0120E030E0A90168A979A98AA9A7
:105080009BA90E942A37181624F018AA19AA1AAA4E
:105090001BAA20E030E0A901C501B4010E942A3713
:1050A00018161CF0812C912C5401A50194016CA5BB
:1050B0007CA98DA99EA90E94CB344B015C0120E004
:1050C00030E0A90168A579A58AA59BA50E942A3789
:1050D000181624F018A619A61AA61BA628A139A1ED
:1050E0004AA15BA1C701B6010E941536D62EC72E74
:1050F000382E292E20E030E0A90168A179A18AA1EB
:105100009BA10E94653481118EC2C501B4019058E3
:105110002C8D3D8D4E8D5F8D0E94CB347B018C019B
:105120009B01AC016D2D7C2D832D922D0E94653449
:1051300087FD18C0A30192016C8D7D8D8E8D9F8D92
:105140000E94CB347B018C019B01AC016D2D7C2D29
:10515000832D922D0E942A37181624F0ED2CFC2C5A
:10516000032D122D9701A80168A179A18AA19BA105
:105170000E94163668A378A71C0188A198A5D101C2
:105180008093A0039093A103A093A203B093A303E1
:1051900080904A0190904B01A0904C01B0904D013D
:1051A000C0904601D0904701E0904801F09049013D
:1051B0004090B3035090B4036090B5037090B60371
:1051C00080919C0390919D03A0919E03B0919F03B9
:1051D00088AB99ABAAABBBAB20E030E0A901C7011B
:1051E000B6010E942A3718161CF0C12CD12C76016A
:1051F000A70196016CA57CA98DA99EA90E94CB341C
:105200006B017C0120E030E0A901C501B4010E94DE
:105210002A3718161CF0812C912C540128A939A981
:105220004AA95BA9C301B2010E941536762E672EEA
:10523000582E492E20E030E0A90168A979A98AA951
:105240009BA90E94653481118FC22C8D3D8D4E8D9E
:105250005F8DC701B60190580E94CB345B018C0171
:105260009B01AC01672D762D852D942D0E94653410
:1052700087FD18C0A70196016C8D7D8D8E8D9F8D49
:105280000E94CB345B018C019B01AC01672D762D14
:10529000852D942D0E942A37181624F0A72CB62CA1
:1052A000052D142D9501A80168A979A98AA99BA9A2
:1052B0000E9416365B018C01C501D80180939C03C6
:1052C00090939D03A0939E03B0939F038091AD03A1
:1052D000882309F44EC0CCA0DDA0EEA0FFA0F7FA11
:1052E000F094F7F8F09428A138A5A101C701B60100
:1052F0000E942A3718160CF4D0C228A138A5A101A3
:105300006CA17DA18EA19FA10E94653487FF06C07C
:105310009CA198A3ADA1A8A72EA03FA088A198A565
:10532000D1018093A0039093A103A093A203B09313
:10533000A3039501A801C701B6010E942A371816D8
:1053400084F09501A8016CA17DA18EA19FA10E946E
:1053500065346501780187FF04C0CCA0DDA0EEA014
:10536000FFA0C0929C03D0929D03E0929E03F09216
:105370009F0380919B03882309F493C28091450188
:105380000E946F0420919A032817190629F480912E
:10539000BA038F7E8093BA03809144010E946F0408
:1053A00020919A032817190629F48091BA03806185
:1053B0008093BA0380919903882311F1809143016E
:1053C0000E946F04209198032817190609F06DC2F6
:1053D00080919703882321F08091BA0385FF10C044
:1053E0001092A0031092A1031092A2031092A303A3
:1053F00010929C0310929D0310929E0310929F03A3
:105400008091BA0383FF10C01092A0031092A103F1
:105410001092A2031092A30310929C0310929D037A
:1054200010929E0310929F0384FF10C01092A0035D
:105430001092A1031092A2031092A30310929C0356
:1054400010929D0310929E0310929F03B091B70398
:10545000B8A380909C0390909D03A0909E03B09071
:105460009F03BB2309F41EC320E030E0A901C5015E
:10547000B4010E942A3718160CF01DC22FE632E143
:1054800043E85AE3C501B4010E942A3787FF1EC2D0
:10549000C090A003D090A103E090A203F090A303DA
:1054A00020E030E0A901C701B6010E942A37181692
:1054B0000CF0ECC22FE632E143E85AE3C701B60133
:1054C0000E942A3787FF02C260E001C2823009F0E1
:1054D00026CB20E030E0A901C701B6010E942A379F
:1054E0001816C4F52FE632E143E85AE3C701B601C6
:1054F0000E942A3718160CF496CAC090C203D090A6
:10550000C303E090C403F090C50320E030E0A9019C
:10551000C701B6010E942A3718163CF52FE632E182
:1055200043E85AE3C701B6010E942A3718160CF463
:105530007ACA1092BE031092BF031092C003109259
:10554000C1031092C2031092C3031092C4031092BD
:10555000C503E5CA2FE632E143E85AEBC701B601BD
:105560000E94653487FD5FCAC8CF2FE632E143E869
:105570005AEBC701B6010E94653487FFDACF53CAE0
:1055800080916803882321F08091BA038170D82E1E
:105590008091BA03D0FA83F98D7FC4CA8091BA038F
:1055A000FBCFC12CD12C760149CB80E090E0A0E864
:1055B000BFE38093A5039093A603A093A703B093A2
:1055C000A80344CBB301C8010E94CB349B01AC01BA
:1055D00060E070E0CB010E941536DACBC12CD12CF3
:1055E0007601D8CB63017801ECCB60E070E080E815
:1055F0009FE345CCA501940167E177EB81ED98E34A
:105600000E9415367ACC812C912C90E8A92E9FEB24
:10561000B92EAFCCBCA1BCA7EDA1ECABFEA1FDABFC
:105620002FA12EAB05CD20E030E0A90168A179A122
:105630008AA19BA10E942A3718160CF04CC028A9F9
:1056400039A94AA95BA96CA57CA98DA99EA90E942C
:10565000CB3490582C8D3D8D4E8D5F8D0E94CB3478
:105660007B018C019B01AC016D2D7C2D832D922D36
:105670000E94653487FD18C0A30192016C8D7D8D59
:105680008E8D9F8D0E94CB347B018C019B01AC01E0
:105690006D2D7C2D832D922D0E942A37181624F013
:1056A000ED2CFC2C032D122D9701A80168A179A1E6
:1056B0008AA19BA10E94163668A378A71C0120E04E
:1056C00030E0A9010E94653487FF57CD18A218A6C3
:1056D000212C312C52CDC501B40190582C8D3D8D1B
:1056E0004E8D5F8D0E94CB347B018C019B01AC0100
:1056F0006D2D7C2D832D922D0E94653487FD20C059
:1057000028A539A54AA55BA56CA57CA98DA99EA94C
:105710000E94CB342C8D3D8D4E8D5F8D0E94CB34FD
:105720007B018C019B01AC016D2D7C2D832D922D75
:105730000E942A37181624F0ED2CFC2C032D122D74
:105740009701A80168A179A18AA19BA10E941636A0
:1057500068A378A71C0120E030E0A9010E942A3745
:1057600018160CF4B3CF09CDA50194016CA57CA942
:105770008DA99EA90E94CB344B015C0120E030E052
:10578000A90168A979A98AA99BA90E942A37181694
:105790000CF043C0C501B40190582C8D3D8D4E8D49
:1057A0005F8D0E94CB345B018C019B01AC01672DA6
:1057B000762D852D942D0E94653487FD18C0A70194
:1057C00096016C8D7D8D8E8D9F8D0E94CB345B01FB
:1057D0008C019B01AC01672D762D852D942D0E94A7
:1057E0002A37181624F0A72CB62C052D142D950158
:1057F000A80168A979A98AA99BA90E9416365B010C
:105800008C0120E030E0A9010E94653487FF54CD6F
:10581000A12CB12C00E010E04FCDC701B60190588B
:105820002C8D3D8D4E8D5F8D0E94CB347B018C0184
:105830009B01AC01672D762D852D942D0E9465343A
:1058400087FD18C0A50194016C8D7D8D8E8D9F8D77
:105850000E94CB347B018C019B01AC01672D762D1E
:10586000852D942D0E942A37181624F0E72CF62C4B
:10587000052D142D9701A80168A979A98AA99BA9CA
:105880000E9416365B018C0120E030E0A9010E94E5
:105890002A3718160CF4BCCF0FCDC8A2D8A6170112
:1058A0003DCD8091BA038F7E83CD8091BA03806213
:1058B0008093BA03A5CD2FE632E143E85AEBC50148
:1058C000B4010E94653418160CF4E2CD61E08DE05D
:1058D0000E949804E0914101F0914201FDA3ECA3E4
:1058E00040913F015091400159A748A720903D01A8
:1058F00030903E0180913B0190913C019D8F8C8FB7
:10590000E0903901F0903A0100913701109138018F
:105910008091A0039091A103A091A203B091A30351
:105920008CA79DA7AEA7BFA79C01AD01C501B4017F
:105930000E9416362B013C0120E030E0A9010E94B4
:1059400065348111BEC0B801012E000C880B990B83
:105950000E946C340E94F436AB012C8D3D8D37FFD4
:1059600003C0319521953109F801E21BF30B4E1765
:105970005F073CF0F801E20FF31F4E175F070CF4CE
:10598000FB01F0939603E0939503A50194016CA5A8
:105990007DA58EA59FA50E9415366B017C0120E098
:1059A00030E0A9010E9465348111DBC0B101032CF4
:1059B000000C880B990B0E946C340E94F436AB01EA
:1059C0002CA13DA137FF03C0319521953109F1018B
:1059D000E21BF30B4E175F073CF0F101E20FF31FE0
:1059E0004E175F070CF4FB01F0939403E0939303CD
:1059F0000E946F056B017C0158A1552341F088EB93
:105A0000C8168BE0D806E104F10408F043C1809188
:105A1000370190913801909396038093950380917C
:105A20003D0190913E0190939403809393030091E4
:105A3000350110913601101611061CF081E080939B
:105A4000B7038090C2039090C303A090C403B090AA
:105A5000C50320E030E0A901C501B4010E942A3746
:105A600018160CF0D1C02FE632E143E85AE3C50125
:105A7000B4010E94653487FDD2C010928F0310924A
:105A80009003109291031092920304C12FE632E129
:105A900043E85AEBC701B6010E94653418160CF4AE
:105AA00013CD14CF0E946F0526E930E040E050E0AE
:105AB0000E94E4356B3471058105910508F406CF29
:105AC00003CD20E030E0A901C301B2010E942A37D2
:105AD000181614F5B701600F711F072E000C880B04
