:100000000C94B6030C94DE030C94DE030C94DE0314
:100010000C94DE030C94DE030C942D1A0C94DE0376
:100020000C94DE030C94DE030C94DE030C94711923
:100030000C94DE030C94DE030C94DE030C94DE03BC
:100040000C94CF180C94DE030C943F190C941919DE
:100050000C94DE030C94DE030C94DE030C94DE039C
:100060000C94DE030C94DE034E414E494E49545924
:10007000494E46CDCCCC3D0AD7233C17B7D1387773
:10008000CC2B329595E6241FB14F0A000020410089
:1000900000C84200401C4620BCBE4CCA1B0E5AAED3
:1000A000C59D7400407A10F35A00A0724E180900E2
:1000B00010A5D4E80000E87648170000E40B5402CD
:1000C0000000CA9A3B000000E1F505000080969808
:1000D00000000040420F000000A086010000001058
:1000E0002700000000E8030000000064000000009A
:1000F000000A00000000000100000000002C76D87B
:1001000088DC674F0823DFC1DFAE59E1B1B796E560
:10011000E3E453C63AE651997696E8E6C28426EBC4
:10012000898C9B62ED407C6FFCEFBC9C9F40F2BAD7
:10013000A56FA5F490055A2AF75C936B6CF9676D6F
:10014000C11BFCE0E40D47FEF520E6B500D0ED90C4
:100150002E0300943577050080841E080000204E91
:100160000A000000C80C333333330F986E1283112A
:1001700041EF8D2114893BE65516CFFEE6DB18D101
:10018000844B381BF77C1D901DA4BBE424203284D3
:10019000725E228100C9F124ECA1E53D272243488B
:1001A00045434B53554D223A005D2C002C002C004A
:1001B000223A5B002244524956455F425554544FFF
:1001C0004E5F0063757272656E7420736574746936
:1001D0006E67732C2076657273696F6E0000000085
:1001E000006410B71DC8206E3BAC30D9269041DCAE
:1001F00076F4516B6B5861B24D3C7105502083B859
:10020000ED44930FF0E8A3D6D68CB361CBB0C264B3
:100210009BD4D2D38678E20AA01CF2BDBD227661BF
:100220006C7565223A2022002273657474696E67CA
:10023000223A2022007B22726573756C74223A2068
:10024000226368616E676522007B22726573756C3C
:1002500074223A20226E6F206368616E6765227D8A
:10026000007B22726573756C74223A202273746F5E
:1002700070706564227D007B22726573756C7422D8
:100280003A20226D6F76656D656E7420616C6C6FBF
:10029000776564227D007B22726573756C74223AE7
:1002A00020227361766564227D005354454552498E
:1002B0004E475F4F46465F5357495443485F504946
:1002C0004E005354454552494E475F4F46465F5393
:1002D0005749544348002276616C7565223A5B00A9
:1002E0002273657474696E67223A2022007B227241
:1002F0006573756C74223A20226368616E676522AB
:10030000004E554D5F44524956455F425554544F37
:100310004E5300425554544F4E5F4D4F44455F502D
:10032000494E005553455F425554544F4E5F4D4F13
:1003300044455F50494E00454E41424C455F425551
:1003400054544F4E5F4354524C004A4F595F4341FF
:100350004C49425F434F554E540053544152545FF1
:100360004D4F544F525F50554C53455F54494D4586
:100370000052494748545F4D4F544F525F50554CBF
:100380005345004C4546545F4D4F544F525F5055B6
:100390004C534500454E41424C455F5354415254E5
:1003A00055505F50554C53450052494748545F4D96
:1003B0004F544F525F434F4E54524F4C4C45525F37
:1003C00050494E004C4546545F4D4F544F525F4389
:1003D0004F4E54524F4C4C45525F50494E004A4F7D
:1003E000595F595F50494E004A4F595F585F504915
:1003F0004E0053504545445F4B4E4F425F50494E6F
:10040000005343414C455F414343454C5F5749547A
:10041000485F53504545440053504545445F4B4E5B
:100420004F425F464153545F56414C00535045453F
:10043000445F4B4E4F425F534C4F575F56414C0009
:100440005553455F53504545445F4B4E4F42005214
:10045000494748545F4D4F544F525F4641535400F3
:1004600052494748545F4D4F544F525F534C4F577A
:100470000052494748545F4D4F544F525F43454ED9
:10048000544552004C4546545F4D4F544F525F46C1
:10049000415354004C4546545F4D4F544F525F53A7
:1004A0004C4F57004C4546545F4D4F544F525F439D
:1004B000454E54455200524556455253455F54559A
:1004C000524E5F494E5F5245564552534500534385
:1004D000414C455F5455524E494E475F5748454E33
:1004E0005F4D4F56494E47005455524E5F5350454D
:1004F000454400464153544553545F4241434B5792
:1005000041524400464153544553545F464F52575D
:1005100041524400444543454C45524154494F4E95
:100520005F5455524E494E4700414343454C455256
:100530004154494F4E5F5455524E494E4700444531
:1005400043454C45524154494F4E5F4241434B57FE
:1005500041524400414343454C45524154494F4E5A
:100560005F4241434B5741524400444543454C454B
:10057000524154494F4E5F464F52574152440041F9
:100580004343454C45524154494F4E5F464F5257A5
:1005900041524400595F444541445A4F4E4500433F
:1005A0004F4E54524F4C5F444F574E00434F4E54A2
:1005B000524F4C5F43454E5445525F5900434F4E96
:1005C00054524F4C5F555000585F444541445A4F78
:1005D0004E4500434F4E54524F4C5F4C45465400DD
:1005E000434F4E54524F4C5F43454E5445525F5813
:1005F00000434F4E54524F4C5F5249474854007B82
:10060000226572726F72223A2022656570726F6D78
:10061000206661696C757265227D007B226572724D
:100620006F72223A2022656570726F6D2066616973
:100630006C757265227D00222C434845434B53550F
:100640004D223A0022625F6D5F70223A006275743B
:10065000746F6E73006A6F794F4B006D6F76656DC6
:10066000656E74416C6C6F7765640073706565646A
:100670004B6E6F6256616C0072696768744D6F747F
:100680006F72577269746556616C006C6566744D63
:100690006F746F72577269746556616C0073706520
:1006A0006564546F4472697665007475726E546F38
:1006B000447269766500737065656450726F636536
:1006C00073736564007475726E50726F63657373D3
:1006D0006564007370656564496E70757400747547
:1006E000726E496E707574006A6F795956616C004C
:1006F0006A6F795856616C0063757272656E74200A
:1007000076616C7565732C206D696C6C6973000083
:10071000000000240027002A000000000025002817
:10072000002B000000000023002600290004040420
:10073000040404040402020202020203030303038A
:100740000301020408102040800102040810200167
:100750000204081020000000080002010000030449
:1007600007000000000000000000531A11241FBE03
:10077000CFEFD8E0DEBFCDBF12E0A0E0B1E0EAED00
:10078000F8E602C005900D92AE31B107D9F723E02B
:10079000AEE1B2E001C01D92AE38B207E1F713E05E
:1007A000C6EBD3E004C02197FE010E949731C53B00
:1007B000D107C9F70E94CA1A0C946B340C9400003C
:1007C000833081F028F4813099F08230A9F00895C7
:1007D0008730A9F08830C9F08430B1F4809180006E
:1007E0008F7D03C0809180008F7780938000089573
:1007F00084B58F7784BD089584B58F7DFBCF8091BC
:10080000B0008F778093B00008958091B0008F7D05
:10081000F9CFCF93DF93282F30E0F901EB5AF84F4F
:100820008491F901EF5BF84FD491F901E35DF84F42
:10083000C491CC23A1F081110E94E003EC2FF0E0E1
:10084000EE0FFF1FED5DF84FA591B491EC91ED23F4
:1008500081E090E009F480E0DF91CF91089580E09D
:1008600090E0FACF1F93CF93DF93282F30E0F90168
:10087000EB5AF84F8491F901EF5BF84FD491F901ED
:10088000E35DF84FC491CC23A9F0162F81110E948B
:10089000E003EC2FF0E0EE0FFF1FE75EF84FA591AD
:1008A000B4918FB7F894EC91111108C0D095DE2364
:1008B000DC938FBFDF91CF911F910895DE2BF8CF8E
:1008C000CF93DF9390E0FC01EF5BF84F2491835DC1
:1008D000984FFC0184918823C9F090E0880F991FFC
:1008E000FC01E15FF84FA591B491FC01E75EF84F80
:1008F000C591D49161110DC09FB7F8948C9120954A
:1009000082238C938881282328839FBFDF91CF91F6
:100910000895623051F49FB7F8943C91822F8095EE
:1009200083238C93E8812E2BEFCF8FB7F894EC9133
:100930002E2B2C938FBFEACF8E3008F08E5087700D
:10094000806480937C0080917A00806480937A0038
:1009500080917A0086FDFCCF80917800909179009B
:1009600008953FB7F8948091BE029091BF02A09184
:10097000C002B091C10226B5A89B05C02F3F19F057
:100980000196A11DB11D3FBFBA2FA92F982F88270F
:10099000BC01CD01620F711D811D911D42E0660FEA
:1009A000771F881F991F4A95D1F708958F929F92BC
:1009B000AF92BF92CF92DF92EF92FF926B017C01D8
:1009C0000E94B1044B015C01C114D104E104F104A3
:1009D000B9F00E94B104681979098A099B09683E37
:1009E00073408105910580F321E0C21AD108E10826
:1009F000F10888EE880E83E0981EA11CB11CE4CF9C
:100A0000FF90EF90DF90CF90BF90AF909F908F902E
:100A10000895AF92BF92CF92DF92EF92FF920F9321
:100A20001F93CF93DF936C017B018B01040F151F84
:100A3000EB015E01AE18BF08C017D10759F06991EC
:100A4000D601ED91FC910190F081E02DC601099550
:100A5000892B79F7C501DF91CF911F910F91FF90FD
:100A6000EF90DF90CF90BF90AF900895FC01538D31
:100A7000448D252F30E0842F90E0821B930B541778
:100A800010F0CF96089501970895FC01918D828D05
:100A9000981761F0A28DAE0FBF2FB11D5D968C919E
:100AA000928D9F5F9F73928F90E008958FEF9FEFDD
:100AB0000895FC01918D828D981731F0828DE80F99
:100AC000F11D858D90E008958FEF9FEF0895FC0153
:100AD000918D228D892F90E0805C9F4F821B910920
:100AE0008F739927089582EC92E00E94670521E0B8
:100AF000892B09F420E0822F089580E090E0892B73
:100B000029F00E94730581110C9400000895FC01E6
:100B1000A48DA80FB92FB11DA35ABF4F2C91848D5E
:100B200090E001968F739927848FA689B7892C93BB
:100B3000A089B1898C91837080648C93938D848D0E
:100B4000981306C00288F389E02D80818F7D808311
:100B50000895EF92FF920F931F93CF93DF93EC01D1
:100B600081E0888F9B8D8C8D98131AC0E889F98954
:100B7000808185FF15C09FB7F894EE89FF89608357
:100B8000E889F98980818370806480839FBF81E0D8
:100B900090E0DF91CF911F910F91FF90EF9008951A
:100BA000F62E0B8D10E00F5F1F4F0F731127E02EF5
:100BB0008C8D8E110CC00FB607FCFACFE889F9892D
:100BC000808185FFF5CFCE010E948705F1CFEB8DA7
:100BD000EC0FFD2FF11DE35AFF4FF0829FB7F89401
:100BE0000B8FEA89FB8980818062CFCF0F931F939F
:100BF000CF93DF938C01D0E0C0E0F801EC0FFD1F34
:100C00006491662341F082EC92E00E94A905892B51
:100C100011F02196F2CFCE01DF91CF911F910F916C
:100C20000895CF93DF93EC01888D8823B9F0AA89CA
:100C3000BB89E889F9898C9185FD03C0808186FD97
:100C40000DC00FB607FCF7CF8C9185FFF2CF8081E6
:100C500085FFEDCFCE010E948705E9CFDF91CF91CF
:100C60000895DC01EC91EC3090F511968C91119780
:100C700028E830E0281B310987FD3395220F331F08
:100C8000220F331F6217730784F012968C9128E5A8
:100C900032E0281B310987FD3395220F331F220FC5
:100CA000331F621773070CF49B0122503109220F86
:100CB000331F4FB7F8948E2F90E0FC01EE0FFF1F0B
:100CC000E80FF91FE15AFC4F328321834FBF08958B
:100CD0001F93CF93DF93EC01162F88818C3008F09F
:100CE0004EC061E0812F0E9460048881282F30E08F
:100CF000F901EE0FFF1FE20FF31FE15AFC4F1F73C4
:100D00006081607C612B608319821A822CE0622FE3
:100D10000E948B31829FB001112430E020E0AB01B2
:100D2000420F531FFA01EE0FFF1FE40FF51FE15AA8
:100D3000FC4F908196FD16C02F5F3F4F2C30310540
:100D400071F781110FC01092800082E080938100C2
:100D50001092850010928400B19A80916F00826099
:100D600080936F00E8818E2F90E0FC01EE0FFF1F53
:100D7000E80FF91FE15AFC4F8081806480838881ED
:100D8000DF91CF911F9108950F931F93E42FE627D2
:100D9000EF7024E0E29FF0011124E352FE4F059131
:100DA00015912591349154E096958795779567959F
:100DB0005A95D1F76027712782279327E42FE29570
:100DC000EF70E627EF7024E0E29FF0011124E35278
:100DD000FE4F0591159125913491E4E09695879504
:100DE00077956795EA95D1F7602771278227932732
:100DF0001F910F91089597FF03C0919581959109D7
:100E00008A3091056CF0843691056CF0883E23E0C1
:100E1000920764F08031974264F085E090E0089595
:100E200081E090E0089582E090E0089583E090E012
:100E3000089584E090E008950E94F60520917B02D9
:100E400030917C02820F931F90937C0280937B02EF
:100E500008952F923F924F925F926F927F928F925E
:100E60009F92AF92BF92CF92DF92EF92FF920F9339
:100E70001F93CF93DF93EC016A01790117FF02C042
:100E800010E000E06E157F050CF019C11601201A64
:100E9000310AC215D3050CF093C0621573050CF02E
:100EA0008FC0072E000C880B990B0E94C32E4B019C
:100EB0005C01BE010D2E000C880B990B0E94C32E05
:100EC000A50194010E946C302B013C01B101330C4F
:100ED000880B990B0E94C32EA50194010E946C30CF
:100EE0009B01AC01C301B2010E94D93020E030E087
:100EF00040E85FE30E946C304B015C010C0D1D1D4E
:100F00000C171D079CF50E151F0584F5B701FF0C86
:100F1000880B990B0E94C32E6B017C01BE01DD0F73
:100F2000880B990B0E94C32EA70196010E946C307A
:100F30004B015C01B7FAB094B7F8B094B801110F47
:100F4000880B990B0E94C32EA70196010E946C305A
:100F50009B01AC01C501B4010E94D93020E030E012
:100F600040E85FE30E946D304B015C0120E030E01F
:100F700040E85FEBC501B4010E94BC2E87FD91C023
:100F800020E030E040E85FE3C501B4010E94813118
:100F900018160CF48DC0C501B401DF91CF911F91DB
:100FA0000F91FF90EF90DF90CF90BF90AF909F9008
:100FB0008F907F906F905F904F903F902F9008950B
:100FC000812C912C54019ACF18012C0C3D1C2C160D
:100FD0003D060CF062C0261637060CF05EC0072EE8
:100FE000000C880B990B0E94C32E4B015C01BE01C3
:100FF0000D2E000C880B990B0E94C32EA5019401A5
:101000000E946C302B013C01B101330C880B990B11
:101010000E94C32EA50194010E946C309B01AC017B
:10102000C301B2010E94D93020E030E040E85FE324
:101030000E946C304B015C01C01AD10ACC15DD0551
:101040000CF094CFEC14FD040CF090CFB701FF0C22
:10105000880B990B0E94C32E4B015C01BE01DD0F72
:10106000880B990B0E94C32EA50194010E946C303D
:101070002B013C0177FA709477F87094B601DD0C7F
:10108000880B990B0E94C32EA50194010E946C301D
:101090009B01AC01C301B2015FCF812C912C5401A3
:1010A000CBCF812C912C90E8A92E9FEBB92E73CF3A
:1010B000812C912C80E8A82E8FE3B82E6CCFE616F9
:1010C000F7060CF481CF812C912C540164CFFC01E4
:1010D00001900020E9F73197AF01481B590BBC0183
:1010E00082EC92E00C940905009711F00C946708CB
:1010F00090E080E008950F931F93CF93DF938C01CE
:10110000EB0180917B0290917C02049690937C028B
:1011100080937B0287E192E00E947408C8010E94DC
:10112000F60520917B0230917C02820F931F9093F1
:101130007C0280937B0281EA91E00E94740890E037
:1011400080E0209719F0CE010E94670820917B0271
:1011500030917C02820F931F90937C0280937B02DC
:1011600081EE91E0DF91CF911F910F910C94740863
:101170008F929F92AF92BF920F931F93CF93DF9363
:10118000CDB7DEB7A1970FB6F894DEBF0FBECDBFC7
:1011900019A2423008F44AE08E010F5D1F4F842EE1
:1011A000912CB12CA12CA50194010E943B30E62F7B
:1011B000B901CA01EA30F4F4E05DD801EE938D0183
:1011C000232B242B252B79F790E080E0109719F042
:1011D000CD010E946708A1960FB6F894DEBF0FBE3E
:1011E000CDBFDF91CF911F910F91BF90AF909F9096
:1011F0008F900895E95CE1CFCF93DF930E94670859
:10120000EC0184EA91E00E9467088C0F9D1FDF913A
:10121000CF910895CF93DF930E94F605EC0184EA05
:1012200091E00E9467088C0F9D1FDF91CF91089578
:10123000CF92DF92EF92FF92CF93DF9397FF1BC085
:101240006B017C016DE282EC92E00E94A905EC0149
:1012500066277727CB016C197D098E099F094AE023
:101260000E94B8088C0F9D1FDF91CF91FF90EF90E7
:10127000DF90CF9008954AE0DF91CF91FF90EF90FB
:10128000DF90CF900C94B8080F931F93CF93DF9308
:101290008C01EB0180917B0290917C0204969093EB
:1012A0007C0280937B0287E192E00E947408C8016F
:1012B0000E94F60520917B0230917C02820F931FE1
:1012C00090937C0280937B0281EA91E00E947408F3
:1012D000BE01DD0F880B990B0E94180920917B023B
:1012E00030917C02820F931F90937C0280937B024B
:1012F00081EE91E0DF91CF911F910F910C947408D2
:101300004F925F926F927F928F929F92AF92BF9215
:10131000CF92DF92EF92FF920F931F93CF936B01C7
:101320007C01742EAC019B010E948631882399F0C8
:1013300087EA91E0CF911F910F91FF90EF90DF909E
:10134000CF90BF90AF909F908F907F906F905F9065
:101350004F900C94670846015701E894B7F82FEFB7
:101360003FEF4FE75FE7C501B4010E94863181116D
:101370000DC02FEF3FEF4FE75FE7C501B4010E94BB
:10138000BC2E18161CF48BEA91E0D4CF2FEF3FEF60
:101390004FE75FE4C701B6010E94813118161CF4C3
:1013A0008FEA91E0C7CF2FEF3FEF4FE75FECC70128
:1013B000B6010E94BC2E87FDF3CF20E030E0A901EA
:1013C000C701B6010E94BC2E10E000E087FF0AC0F2
:1013D0006DE282EC92E00E94A9058C01F7FAF0948C
:1013E000F7F8F094C0E060E070E080E09FE37C16E6
:1013F00041F020E030E040E251E40E94D930CF5F7C
:10140000F6CFA70196010E946D302B013C010E948E
:1014100052314B015C014AE00E94B8087C01E00EA9
:10142000F11ECC23C1F1C501B4010E94C12E9B0164
:10143000AC01C301B2010E946C304B015C016EE251
:1014400082EC92E00E94A905E80EF91EC15018F145
:1014500020E030E040E251E4C501B4010E94222FB7
:101460002B013C010E9452314B01B12CA12C4AE0CE
:10147000C501B4010E94B808E80EF91EC501B40107
:101480000E94C12E9B01AC01C301B2010E946C30CD
:101490004B015C01DBCFC701CF911F910F91FF90F2
:1014A000EF90DF90CF90BF90AF909F908F907F9004
:1014B0006F905F904F900895CF92DF92EF92FF92DE
:1014C000CF93DF93EC016A017B0180917B029091C5
:1014D0007C02049690937C0280937B0287E192E0E9
:1014E0000E947408CE010E94F60520917B02309183
:1014F0007C02820F931F90937C0280937B0281EA8F
:1015000091E00E94740842E0C701B6010E94800980
:1015100020917B0230917C02820F931F90937C027A
:1015200080937B0281EE91E0DF91CF91FF90EF906D
:10153000DF90CF900C9474080F931F93CF938C017E
:10154000C62F80917B0290917C02049690937C023E
:1015500080937B0287E192E00E947408C8010E9498
:10156000F60520917B0230917C02820F931F9093AD
:101570007C0280937B0281EA91E00E9474086C2FC8
:1015800070E090E080E04AE00E94B80820917B0281
:1015900030917C02820F931F90937C0280937B0298
:1015A00081EE91E0CF911F910F910C947408CF922E
:1015B000DF92EF92FF92CF93DF9310927C02109212
:1015C0007B026BE070E083EC91E00E944409609143
:1015D00088017091890181EF95E00E944409609132
:1015E00086017091870180EE95E00E944409609128
:1015F00084017091850183ED95E00E94440960911A
:101600008A0170918B0188EC95E00E9444096091F9
:101610008001709181018DEB95E00E9444096091F9
:101620007E0170917F018CEA95E00E9444096091EF
:101630007C0170917D018FE995E00E9444096091E1
:1016400082017091830184E995E00E9444094091F0
:1016500020015091210160912201709123018FE7B7
:1016600095E00E945C0A409124015091250160910F
:101670002601709127018AE695E00E945C0A40915C
:1016800028015091290160912A0170912B0184E574
:1016900095E00E945C0A40912C0150912D016091CF
:1016A0002E0170912F018EE395E00E945C0A40911B
:1016B0001701509118016091190170911A0189E286
:1016C00095E00E945C0A40911B0150911C016091C1
:1016D0001D0170911E0184E195E00E945C0A409119
:1016E000340150913501609136017091370184E0E9
:1016F00095E00E945C0A4091380150913901609157
:101700003A0170913B0183EF94E00E945C0A4091A2
:101710003C0150913D0160913E0170913F0188EE86
:1017200094E00E945C0A4091300150913101609137
:101730003201709133018EEC94E00E945C0A80913A
:10174000940268EB71E0882311F063EB71E086EBA3
:1017500094E00E947B0860910B0170910C0184EA77
:1017600094E00E94440960910D0170910E0184E99A
:1017700094E00E94440960910F017091100184E887
:1017800094E00E944409609111017091120181E777
:1017900094E00E944409609113017091140180E665
:1017A00094E00E94440960911501709116018FE444
:1017B00094E00E94440980919D0268EB71E08823C7
:1017C00011F063EB71E080E494E00E947B0860918B
:1017D0004101709142018CE294E00E9444096091C1
:1017E0009B0270919C0288E194E00E9444098091E0
:1017F0001F0168EB71E0882311F063EB71E081E079
:1018000094E00E947B086091400182EF93E00E9487
:101810009C0A60918D0188EE93E00E949C0A609181
:101820008C018EED93E00E949C0A6091010184EC92
:1018300093E00E949C0A6091000189EA93E00E9473
:101840009C0A8091020168EB71E0882311F063EB40
:1018500071E084E993E00E947B0860910701709138
:10186000080183E893E00E944409609105017091AA
:10187000060181E793E00E944409609103017091A1
:1018800004018AE593E00E94440960910901709186
:101890000A018AE493E00E9444098091A80268EB5F
:1018A00071E0882311F063EB71E087E393E00E941D
:1018B0007B088091A70268EB71E0882311F063EB4D
:1018C00071E083E293E00E947B0860917A0183E1FA
:1018D00093E00E949C0A60917B0181E093E00E946A
:1018E0009C0AC4E4D1E0C12CD12C7601C39484EBD2
:1018F00091E00E941C07C701B6010E9418092091BF
:101900007B0230917C02820F931F90937C02809324
:101910007B0280EB91E00E941C07688170E090E000
:1019200080E04AE00E94B80820917B0230917C025E
:10193000820F931F90937C0280937B028EEA91E04A
:101940000E941C0769817A818B819C8144E00E94FE
:10195000800920917B0230917C02820F931F90932B
:101960007C0280937B028CEA91E00E941C076D81CF
:101970007E818F81988544E00E94800920917B02BE
:1019800030917C02820F931F90937C0280937B02A4
:1019900089EA91E00E941C078FEFC81AD80AE80A6A
:1019A000F80A299687E0C816D104E104F10409F089
:1019B0009ECF80919E0268EB71E0882311F063EB6B
:1019C00071E082EC92E00E947B08609143018AEA18
:1019D00092E00E949C0A8DE991E00E94F605C09178
:1019E0007B02D0917C02C80FD91FD0937C02C09398
:1019F0007B02CE010E94FB062196C80FD91FBE01B3
:101A0000DD0F880B990B0E94180989E092E0DF91A5
:101A1000CF91FF90EF90DF90CF900C94FC080C9446
:101A2000EB2FCF92DF92EF92FF920F931F93CF9302
:101A3000DF93EC018B01C0902E02D0902F02E0903A
:101A40003002F0903102FB016081888199810E940F
:101A50000F0D88819981F801608188539F4F0E9402
:101A60000F0D88819981F801608180579E4F0E94F7
:101A70000F0DF8014081C701B6010E94C4062881FC
:101A800039812F5F3F4F3983288360932E027093F3
:101A90002F028093300290933102DF91CF911F91FA
:101AA0000F91FF90EF90DF90CF900895AF92BF928B
:101AB000CF92DF92EF92FF920F931F93CF93DF931A
:101AC0008C01EB01C0902E02D0902F02E0903002EA
:101AD000F09031025B0184E0A80EB11C6881F8012E
:101AE000808191810E940F0DF80180819181688130
:101AF00088539F4F0E940F0DF8018081918168816A
:101B000080579E4F0E940F0D4991C701B6010E9458
:101B1000C4066B017C01F80180819181019691835B
:101B20008083AC16BD06D1F6C0922E02D0922F0251
:101B3000E0923002F0923102DF91CF911F910F912C
:101B4000FF90EF90DF90CF90BF90AF900895AF924D
:101B5000BF92CF92DF92EF92FF920F931F93CF939A
:101B6000DF938C01EB01C0902E02D0902F02E09009
:101B70003002F09031025B0182E0A80EB11C688156
:101B8000F801808191810E940F0DF801808191817F
:101B9000688188539F4F0E940F0DF80180819181C9
:101BA000688180579E4F0E940F0D4991C701B60171
:101BB0000E94C4066B017C01F8018081918101962D
:101BC00091838083AC16BD06D1F6C0922E02D092CE
:101BD0002F02E0923002F0923102DF91CF911F91FB
:101BE0000F91FF90EF90DF90CF90BF90AF9008954E
:101BF000CF92DF92EF92FF920F931F93CF93DF93D9
:101C0000EC018B01C0902E02D0902F02E0903002A8
:101C1000F0903102FB016081888199810E940F0D53
:101C200088819981F801608188539F4F0E940F0D30
:101C300088819981F801608180579E4F0E940F0D25
:101C4000F8014081C701B6010E94C406288139818C
:101C50002F5F3F4F3983288360932E0270932F02AA
:101C60008093300290933102DF91CF911F910F91B9
:101C7000FF90EF90DF90CF900895CF92DF92EF9298
:101C8000FF920F931F93CF93DF9300D0CDB7DEB7B2
:101C900081E090E09A83898310922E0210922F02A5
:101CA000109230021092310268E871E0CE01019684
:101CB0000E94A70D66E871E0CE0101960E94A70D73
:101CC00064E871E0CE0101960E94A70D6AE871E018
:101CD000CE0101960E94A70D60E871E0CE01019649
:101CE0000E94A70D6EE771E0CE0101960E94A70D3C
:101CF0006CE771E0CE0101960E94A70D62E871E0E9
:101D0000CE0101960E94A70D60E271E0CE0101961E
:101D10000E94560D64E271E0CE0101960E94560DBC
:101D200068E271E0CE0101960E94560D6CE271E00E
:101D3000CE0101960E94560D67E171E0CE01019639
:101D40000E94560D6BE171E0CE0101960E94560D86
:101D500064E371E0CE0101960E94560D68E371E0E4
:101D6000CE0101960E94560D6CE371E0CE01019602
:101D70000E94560D60E371E0CE0101960E94560D5F
:101D80006FE171E0CE0101960E94110D64E972E0ED
:101D9000CE0101960E94110D6BE071E0CE0101961B
:101DA0000E94A70D6DE071E0CE0101960E94A70D83
:101DB0006FE071E0CE0101960E94A70D61E171E034
:101DC000CE0101960E94A70D63E171E0CE0101965C
:101DD0000E94A70D65E171E0CE0101960E94A70D5A
:101DE0006DE972E0CE0101960E94110D61E471E08F
:101DF000CE0101960E94A70D6BE972E0CE0101961B
:101E00000E94A70D6DE871E0CE0101960E94F80DC9
:101E10006CE871E0CE0101960E94F80D61E071E07E
:101E2000CE0101960E94F80D60E071E0CE010196AE
:101E30000E94F80D60E471E0CE0101960E94F80D59
:101E400067E071E0CE0101960E94A70D65E071E0A8
:101E5000CE0101960E94A70D63E071E0CE010196CC
:101E60000E94A70D62E071E0CE0101960E94110D63
:101E700069E071E0CE0101960E94A70D6AE771E06A
:101E8000CE0101960E94F80D68EA72E0CE0101963B
:101E90000E94110D67EA72E0CE0101960E94110DB9
:101EA0006BE771E0CE0101960E94F80DC0902E0202
:101EB000D0902F02E0903002F090310204E411E063
:101EC000F801608189819A810E940F0D89819A8130
:101ED000F801608188539F4F0E940F0D89819A817C
:101EE000F801608180579E4F0E940F0DF8014191CB
:101EF0008F01C701B6010E94C4066B017C01898174
:101F00009A8101969A838983F1E00A371F07C1F607
:101F1000C0922E02D0922F02E0923002F092310253
:101F20006EE972E0CE0101960E94110D63E471E04A
:101F3000CE0101960E94F80DC0902E02D0902F0283
:101F4000E0903002F09031020EE212E0F801608180
:101F500089819A810E940F0D89819A81F80160819F
:101F600088539F4F0E940F0D89819A81F8016081EB
:101F700080579E4F0E940F0DF80141918F01C701BC
:101F8000B6010E94C4066B017C0189819A81019689
:101F90009A838983F2E002331F07C1F6C0922E02B2
:101FA000D0922F02E0923002F09231020F900F9007
:101FB000DF91CF911F910F91FF90EF90DF90CF9025
:101FC0000895AF92BF92CF92DF92EF92FF920F935C
:101FD0001F93CF93DF9300D000D0CDB7DEB7E09151
:101FE0006E02F0E0EE5CFD4F10826EEB71E082E37A
:101FF00092E00E94E02A7C016EEB71E090E080E0CC
:102000000E94E02A8C016EE1C62E62E0D62E8FE09F
:10201000F60111928A95E9F761EF75E0C7010E9418
:10202000D72A892BA9F5C8010E94B92A8093880173
:10203000909389019F938F9381EC91E09F938F936D
:10204000DF92CF920E94CA310F900F900F900F90A5
:102050000F900F9085E392E00E94F60585E092E0F4
:102060000E94740888E292E00E94F605C7010E946F
:10207000740884E092E00E9474088DE192E00E946E
:10208000F6058EE192E00E94740888E092E0E1C5D6
:1020900060EE75E0C7010E94D72A892B41F4C80180
:1020A0000E94B92A8093860190938701C3CF63ED84
:1020B00075E0C7010E94D72A892B41F4C8010E940C
:1020C000B92A8093840190938501B4CF68EC75E0C0
:1020D000C7010E94D72A892BB9F4C8010E94B92AE6
:1020E00097FF03C091958195910980938A01909300
:1020F0008B019F938F9381EC91E09F938F938EE15F
:1021000092E09F938F939ECF6DEB75E0C7010E9485
:10211000D72A892B41F4C8010E94B92A80938001F3
:102120009093810187CF6CEA75E0C7010E94D72A9E
:10213000892B41F4C8010E94B92A80937E019093B3
:102140007F0178CF6FE975E0C7010E94D72A892BFC
:1021500041F4C8010E94B92A80937C0190937D01CB
:1021600069CF64E975E0C7010E94D72A892B69F419
:10217000C8010E94B92A97FF03C0919581959109E2
:102180008093820190938301B4CF6FE775E0C7011C
:102190000E94D72A892B09F5C8010E94B52A20E0A0
:1021A00030E0A9010E948131181694F4C8010E9400
:1021B000B52A6093200170932101809322019093AE
:1021C00023010EE112E024E040E00E94972A42CF72
:1021D000C8010E94B52A9058ECCF6AE675E0C701A5
:1021E0000E94D72A892BD9F4C8010E94B52A20E081
:1021F00030E0A9010E948131181664F4C8010E94E0
:10220000B52A609324017093250180932601909351
:102210002701D7CFC8010E94B52A9058F2CF64E5B4
:1022200075E0C7010E94D72A892BD9F4C8010E9402
:10223000B52A20E030E0A9010E948131181664F42B
:10224000C8010E94B52A60932801709329018093E8
:102250002A0190932B01B5CFC8010E94B52A90584E
:10226000F2CF6EE375E0C7010E94D72A892BD9F41B
:10227000C8010E94B52A20E030E0A9010E94813106
:10228000181664F4C8010E94B52A60932C0170935B
:102290002D0180932E0190932F0193CFC8010E94AE
:1022A000B52A9058F2CF69E275E0C7010E94D72A9B
:1022B000892BD9F4C8010E94B52A20E030E0A90199
:1022C0000E948131181664F4C8010E94B52A6093F7
:1022D0001701709318018093190190931A0171CF1F
:1022E000C8010E94B52A9058F2CF64E175E0C70199
:1022F0000E94D72A892BD9F4C8010E94B52A20E070
:1023000030E0A9010E948131181664F4C8010E94CE
:10231000B52A60931B0170931C0180931D0190935B
:102320001E014FCFC8010E94B52A9058F2CF64E039
:1023300075E0C7010E94D72A892B09F062C0C80145
:102340000E94B52A20E030E0A9010E9481311816D0
:1023500074F4C8010E94B52A20E030E0A9010E946F
:10236000BC2E87FF0EC060E070E0CB012CC0C8011E
:102370000E94B52A20E030E0A9010E9481311816A0
:1023800094F3C8010E94B52A20E030E0A9010E9420
:10239000813118160CF5C8010E94B52A20E030E002
:1023A00040E85FE30E94813118160CF1C8010E94D9
:1023B000B52A20E030E0A9010E9481311816E4F42A
:1023C000C8010E94B52A609334017093350180934F
:1023D000360190933701F5CEC8010E94B52A20E05E
:1023E00030E040E85FEB0E94BC2E87FFDFCF60E06B
:1023F00070E080E89FE3E7CFC8010E94B52A9058BB
:10240000E2CF63EF74E0C7010E94D72A892B09F05D
:1024100062C0C8010E94B52A20E030E0A9010E94F4
:102420008131181674F4C8010E94B52A20E030E00A
:10243000A9010E94BC2E87FF0EC060E070E0CB01B6
:102440002CC0C8010E94B52A20E030E0A9010E94FA
:102450008131181694F3C8010E94B52A20E030E0BB
:10246000A9010E94813118160CF5C8010E94B52AF5
:1024700020E030E040E85FE30E94813118160CF163
:10248000C8010E94B52A20E030E0A9010E948131F4
:102490001816E4F4C8010E94B52A609338017093BD
:1024A000390180933A0190933B018BCEC8010E9481
:1024B000B52A20E030E040E85FEB0E94BC2E87FFA9
:1024C000DFCF60E070E080E89FE3E7CFC8010E94C3
:1024D000B52A9058E2CF68EE74E0C7010E94D72A6F
:1024E000892B09F062C0C8010E94B52A20E030E0C3
:1024F000A9010E948131181674F4C8010E94B52AFE
:1025000020E030E0A9010E94BC2E87FF0EC060E0F1
:1025100070E0CB012CC0C8010E94B52A20E030E059
:10252000A9010E948131181694F3C8010E94B52AAE
:1025300020E030E0A9010E94813118160CF5C80195
:102540000E94B52A20E030E040E85FE30E9481313C
:1025500018160CF1C8010E94B52A20E030E0A9014C
:102560000E9481311816E4F4C8010E94B52A6093D4
:102570003C0170933D0180933E0190933F0121CE39
:10258000C8010E94B52A20E030E040E85FEB0E94DD
:10259000BC2E87FFDFCF60E070E080E89FE3E7CFED
:1025A000C8010E94B52A9058E2CF6EEC74E0C701D2
:1025B0000E94D72A892B61F4C8010E94B52A609332
:1025C0003001709331018093320190933301F9CD42
:1025D00066EB74E0C7010E94D72A892B79F4C80101
:1025E0000E94B92A21E0009709F420E02093940288
:1025F000892B09F41BC263EB71E01AC264EA74E030
:10260000C7010E94D72A892B41F4C8010E94B92A28
:1026100080930B0190930C016CCD64E974E0C701C9
:102620000E94D72A892B41F4C8010E94B92A8093BD
:102630000D0190930E015DCD64E874E0C7010E9426
:10264000D72A892B41F4C8010E94B92A80930F012F
:10265000909310014ECD61E774E0C7010E94D72A24
:10266000892B41F4C8010E94B92A809311019093EB
:1026700012013FCD60E674E0C7010E94D72A892B82
:1026800041F4C8010E94B92A809313019093140168
:1026900030CD6FE474E0C7010E94D72A892B41F442
:1026A000C8010E94B92A809315019093160121CD8B
:1026B00060E474E0C7010E94D72A892B51F4C80155
:1026C0000E94B92A21E0009709F420E020939D029E
:1026D0008FCF6CE274E0C7010E94D72A892B41F4A6
:1026E000C8010E94B92A809341019093420101CD13
:1026F00068E174E0C7010E94D72A892B41F4C80120
:102700000E94B92A80939B0290939C02F2CC61E0D4
:1027100074E0C7010E94D72A892B51F4C8010E9496
:10272000B92A21E0009709F420E020931F0160CF2F
:1027300062EF73E0C7010E94D72A892B61F4C801B8
:102740000E94B92A8093400160E00E946004809159
:1027500040011F92CFCC68EE73E0C7010E94D72AD8
:10276000892B59F4C8010E94B92A80938D0160E039
:102770000E94600480918D01ECCF6EED73E0C70183
:102780000E94D72A892B59F4C8010E94B92A809344
:102790008C0160E00E94600480918C01DACF64ECCF
:1027A00073E0C7010E94D72A892B09F058C06091B5
:1027B00011017091120184E893E00E943106E091CA
:1027C00084038E2F90E0FC01EE0FFF1FE80FF91F2E
:1027D000E15AFC4F80818F7B808360910B01709167
:1027E0000C0187E893E00E943106E09187038E2F69
:1027F00090E0FC01EE0FFF1FE80FF91FE15AFC4FBC
:1028000080818F7B8083C8010E94B92A8093010157
:102810006AE070E080E090E00E94D60460910101DF
:1028200070E087E893E00E94680660910B01709168
:102830000C0187E893E00E9431066091000170E08E
:1028400084E893E00E946806609111017091120182
:1028500084E893E00E943106809101017ACF69EA11
:1028600073E0C7010E94D72A892B09F058C06091F4
:102870000B0170910C0187E893E00E943106E09112
:1028800087038E2F90E0FC01EE0FFF1FE80FF91F6A
:10289000E15AFC4F80818F7B8083609111017091A0
:1028A000120184E893E00E943106E09184038E2FA8
:1028B00090E0FC01EE0FFF1FE80FF91FE15AFC4FFB
:1028C00080818F7B8083C8010E94B92A8093000198
:1028D0006AE070E080E090E00E94D6046091000120
:1028E00070E084E893E00E946806609111017091A5
:1028F000120184E893E00E9431066091010170E0CA
:1029000087E893E00E94680660910B0170910C01CA
:1029100087E893E00E943106809100011ACF64E9B4
:1029200073E0C7010E94D72A892B51F4C8010E9485
:10293000B92A21E0009709F420E02093020158CE43
:1029400063E873E0C7010E94D72A892B41F4C801CC
:102950000E94B92A8093070190930801CACB61E7CE
:1029600073E0C7010E94D72A892B41F4C8010E9455
:10297000B92A8093050190930601BBCB6AE573E009
:10298000C7010E94D72A892B91F4C8010E94B92A55
:10299000893EF3E09F0714F088EE93E097FF02C0B2
:1029A00090E080E09093040180930301A2CB6AE45D
:1029B00073E0C7010E94D72A892B41F4C8010E9405
:1029C000B92A8093090190930A0193CB67E373E0DE
:1029D000C7010E94D72A892B81F5C8010E94B92A14
:1029E00021E0009709F420E02093A802892BD1F080
:1029F0008091A702882329F062E080917A010E94E9
:102A0000600410E009E080917B01181758F4019FE1
:102A1000F0011124EC5BFE4F62E080810E946004B3
:102A20001F5FF1CF8091A8028111E5CD68EB71E0C5
:102A30008EE192E00E94C3310DCB63E273E0C701E7
:102A40000E94D72A892B41F5C8010E94B92A21E0AA
:102A5000009709F420E02093A7022091A8022223E6
:102A6000C1F0892B29F062E080917A010E94600414
:102A700010E009E080917B01181758F4019FF001E4
:102A80001124EC5BFE4F62E080810E9460041F5FB6
:102A9000F1CF8091A702C8CF63E173E0C7010E9424
:102AA000D72A892B59F4C8010E94B92A80937A0148
:102AB00062E00E94600480917A014BCE61E073E095
:102AC000C7010E94D72A892B79F5C8010E94B92A2B
:102AD00097FD23C08730910514F580937B01809189
:102AE000A8028823F1F08091A702882329F062E0F0
:102AF00080917A010E94600410E009E080917B01DE
:102B0000181778F4019FF0011124EC5BFE4F62E08E
:102B100080810E9460041F5FF1CF80E0DECF86E0FD
:102B2000DCCF80917B0115CE64EC71E0C7010E947F
:102B3000BA31892B09F090C0C8010E94B92A6C01F2
:102B40005C0121E0A21AB10846E0A416B10408F025
:102B5000C5C06EED71E0C8010E94E02A6EED71E023
:102B600090E080E00E94E02A0E94B92A99E09A9DB4
:102B700090019B9D300D1124F901EC5BFE4F7F010C
:102B800080836EED71E090E080E00E94E02A0E9478
:102B9000B52AF70161837283838394836EED71E0BC
:102BA00090E080E00E94E02A0E94B52AF701658348
:102BB00076838783908762E080810E9460048DEE37
:102BC00092E00E94F60581EE91E00E94740880EE8A
:102BD00092E00E94F60582ED91E00E947408B60131
:102BE000DD0C880B990B0E94180980EE91E00E9481
:102BF000740886ED92E00E94F605F701608170E0AE
:102C000090E080E04AE00E94B80881EE91E00E94E6
:102C10007408F70161817281838194810EE112E071
:102C200024E040E00E94972AC8010E94740881EEC7
:102C300091E00E947408F701658176818781908513
:102C400024E040E00E94972AC8010E94740883EEA5
:102C500091E00E94FC0842C062EC72E0C7010E9451
:102C6000D72A892B91F4C8010E94B92A21E0009744
:102C700009F420E020939E02892B09F4D7CE62E06C
:102C8000809143010E946004B6CC6AEA72E0C701F9
:102C90000E94D72A892B59F4C8010E94B92A80932F
:102CA000430162E00E9460048091430152CD66EED0
:102CB00071E0C7010E94BA31892B39F40E943D0EA0
:102CC00086E992E00E940A0909C06BEE71E0C70133
:102CD0000E94BA31892B99F40E94D70A10926E0291
:102CE0000F900F900F900F90DF91CF911F910F9148
:102CF000FF90EF90DF90CF90BF90AF90089564EF7A
:102D000071E0C7010E94BA31892BA1F41C821B8299
:102D10008CE090E09A838983BE016F5F7F4FCE0184
:102D200003960E94A70D68E873E180E090E00E949E
:102D3000D60490C96BEF71E0C7010E94BA31892BAC
:102D400091F362E072E0C7010E94BA31892B31F43D
:102D500081E08093810287E792E0B4CF62EF71E077
:102D6000C7010E94BA31892BA9F4109281026091A7
:102D70000B0170910C0187E893E00E94310660918D
:102D800011017091120184E893E00E94310681E6FE
:102D900092E098CF89E492E095CF0C94E32FCF9204
:102DA000DF92EF92FF920F931F93CF93DF938C01EB
:102DB0007B01FC01C080D180C6010E94CD16C82FC6
:102DC000C60188539F4F0E94CD16D82FC601805749
:102DD0009E4F0E94CD16CD1327C0C81325C0F70102
:102DE000C08360912E0270912F02809130029091E9
:102DF0003102F70140810E94C40660932E02709355
:102E00002F028093300290933102F80180819181EA
:102E1000019691838083DF91CF911F910F91FF9055
:102E2000EF90DF90CF9008956C2F682B6D23C8230F
:102E30006C2BF7016083F801808191810E940F0D56
:102E4000F80180819181F701608188539F4F0E9432
:102E50000F0DF80180819181F701608180579E4FAD
:102E60000E940F0D61E08DE00E94600460E08DE043
:102E70000E94320464E670E080E090E00E94D60494
:102E800061E08DE00E94320462E370E080E090E057
:102E90000E94D604A895A5CFAF92BF92CF92DF92A1
:102EA000EF92FF920F931F93CF93DF937C01EB017F
:102EB0006B0184E0C80ED11CF701A080B180C50170
:102EC0000E94CD16182FC50188539F4F0E94CD1622
:102ED000082FC50180579E4F0E94CD1610132AC09F
:102EE000181328C0188360912E0270912F028091D0
:102EF00030029091310249910E94C40660932E02E3
:102F000070932F028093300290933102F7018081F9
:102F10009181019691838083CC15DD0569F6DF915F
:102F2000CF911F910F91FF90EF90DF90CF90BF90C6
:102F3000AF900895612F682B60231823612B68835D
:102F4000F701808191810E940F0DF70180819181AD
:102F5000688188539F4F0E940F0DF70180819181F6
:102F6000688180579E4F0E940F0D61E08DE00E94A6
:102F7000600460E08DE00E94320464E670E080E06E
:102F800090E00E94D60461E08DE00E94320462E38A
:102F900070E080E090E00E94D604A895A4CFAF92A4
:102FA000BF92CF92DF92EF92FF920F931F93CF9336
:102FB000DF937C01EB016B0182E0C80ED11CF701AD
:102FC000A080B180C5010E94CD16182FC50188537D
:102FD0009F4F0E94CD16082FC50180579E4F0E941B
:102FE000CD1610132AC0181328C0188360912E0222
:102FF00070912F02809130029091310249910E948C
:10300000C40660932E0270932F0280933002909337
:103010003102F70180819181019691838083CC15E3
:10302000DD0569F6DF91CF911F910F91FF90EF9031
:10303000DF90CF90BF90AF900895612F682B6023F1
:103040001823612B6883F701808191810E940F0D05
:10305000F70180819181688188539F4F0E940F0DF5
:10306000F70180819181688180579E4F0E940F0DEA
:1030700061E08DE00E94600460E08DE00E94320417
:1030800064E670E080E090E00E94D60461E08DE0AC
:103090000E94320462E370E080E090E00E94D60477
:1030A000A895A4CFCF92DF92EF92FF920F931F9338
:1030B000CF93DF938C017B01FC01C080D180C601DE
:1030C0000E94CD16C82FC60188539F4F0E94CD166F
:1030D000D82FC60180579E4F0E94CD16CD1327C012
:1030E000C81325C0F701C08360912E0270912F0292
:1030F0008091300290913102F70140810E94C40614
:1031000060932E0270932F028093300290933102CD
:10311000F80180819181019691838083DF91CF9125
:103120001F910F91FF90EF90DF90CF9008956C2F3B
:10313000682B6D23C8236C2BF7016083F801808115
:1031400091810E940F0DF80180819181F7016081CA
:1031500088539F4F0E940F0DF80180819181F701E4
:10316000608180579E4F0E940F0D61E08DE00E94AC
:10317000600460E08DE00E94320464E670E080E06C
:1031800090E00E94D60461E08DE00E94320462E388
:1031900070E080E090E00E94D604A895A5CF1F9231
:1031A0000F920FB60F9211242F933F938F939F93FB
:1031B000AF93BF938091BA029091BB02A091BC02E1
:1031C000B091BD023091B90223E0230F2D3758F59D
:1031D0000196A11DB11D2093B9028093BA0290936C
:1031E000BB02A093BC02B093BD028091BE0290913D
:1031F000BF02A091C002B091C1020196A11DB11DF4
:103200008093BE029093BF02A093C002B093C1020C
:10321000BF91AF919F918F913F912F910F900FBED2
:103220000F901F90189526E8230F0296A11DB11D3F
:10323000D2CF1F920F920FB60F9211242F933F936C
:103240004F935F936F937F938F939F93AF93BF93AE
:10325000EF93FF9382EC92E00E948705FF91EF913C
:10326000BF91AF919F918F917F916F915F914F919E
:103270003F912F910F900FBE0F901F9018951F92A6
:103280000F920FB60F9211242F938F939F93EF936A
:10329000FF93E091D202F091D3028081E091D802B5
:1032A000F091D90282FD1BC090818091DB028F5F7B
:1032B0008F732091DC02821741F0E091DB02F0E095
:1032C000EE53FD4F958F8093DB02FF91EF919F911D
:1032D0008F912F910F900FBE0F901F9018958081A6
:1032E000F4CF1F920F920FB60F9211242F933F939A
:1032F0004F935F936F937F938F939F93AF93BF93FE
:10330000CF93DF93EF93FF9380912D02C0918303BE
:10331000D0E087FF24C01092850010928400809135
:103320002D028F5F80932D0280912D02082E000CBC
:10333000990B8C179D0724F480912D028C30C4F1D9
:103340008091840090918500049680349C4908F413
:103350007AC08091840090918500049676C0809117
:103360002D02082E000C990B8C179D07C4F6E091D6
:103370002D028E2FEE0F990BFC01EE0FFF1FE80FB1
:10338000F91FE15AFC4F808186FFC9CFE0912D02E1
:103390008E2FEE0F990BFC01EE0FFF1FE80FF91FA8
:1033A000E15AFC4F808160E08F730E943204B7CFF6
:1033B0002091840030918500E0912D028E2FEE0F38
:1033C000990BFC01EE0FFF1FE80FF91FE15AFC4FAC
:1033D00081819281820F931F90938900809388004E
:1033E000E0912D028E2FEE0F990BFC01EE0FFF1FC7
:1033F000E80FF91FE15AFC4F808186FF11C0E09170
:103400002D028E2FEE0F990BFC01EE0FFF1FE80F20
:10341000F91FE15AFC4F808161E08F730E943204F2
:10342000FF91EF91DF91CF91BF91AF919F918F91DC
:103430007F916F915F914F913F912F910F900FBEB0
:103440000F901F90189580E49CE9909389008093D9
:1034500088008FEF80932D02E3CF1F920F920FB65B
:103460000F9211242F933F934F935F936F937F930A
:103470008F939F93AF93BF93EF93FF93A895F0E043
:10348000E0E00995FF91EF91BF91AF919F918F91EE
:103490007F916F915F914F913F912F910F900FBE50
:1034A0000F901F9018951092C5021092C40288EEDA
:1034B00093E0A0E0B0E08093C6029093C702A0938F
:1034C000C802B093C90283E991E09093C30280934C
:1034D000C20285EC90E09093CF028093CE0284EC00
:1034E00090E09093D1028093D00280EC90E0909392
:1034F000D3028093D20281EC90E09093D502809326
:10350000D40282EC90E09093D7028093D60286ECAE
:1035100090E09093D9028093D8021092DB0210922F
:10352000DC021092DD021092DE02809183038C3067
:1035300048F591E0980F909383038093870390E080
:10354000FC01EE0FFF1FE80FF91FE15AFC4F88EB5B
:103550009BE092838183809183038C30B8F491E067
:10356000980F909383038093840390E0FC01EE0F07
:10357000FF1FE80FF91FE15AFC4F88EB9BE0928395
:10358000818308958FEF80938703E5CF8FEF80933A
:1035900084030895CF93DF93CDB7DEB7A1970FB61D
:1035A000F894DEBF0FBECDBF789484B5826084BD31
:1035B00084B5816084BD85B5826085BD85B5816037
:1035C00085BD80916E00816080936E0010928100B5
:1035D0008091810082608093810080918100816070
:1035E0008093810080918000816080938000809131
:1035F000B10084608093B1008091B00081608093BD
:10360000B00080917A00846080937A0080917A0083
:10361000826080937A0080917A00816080937A0042
:1036200080917A00806880937A001092C10061E0F6
:103630008DE00E94600461E08DE00E943204E09120
:10364000D202F091D30282E08083E091CE02F09129
:10365000CF021082E091D002F091D10287E0808306
:103660001092DA02E091D602F091D70286E08083D0
:10367000E091D402F091D502808180618083E09155
:10368000D402F091D502808188608083E091D402D9
:10369000F091D502808180688083E091D402F0911E
:1036A000D50280818F7D808384EA91E00E94670843
:1036B00062E370E080E090E00E94D60460E08DE07C
:1036C0000E943204F894A8958091600088618093EC
:1036D000600087E480936000789480E092E09093AB
:1036E000B4028093B3029093B2028093B10210921D
:1036F000A9021092AA021092AB021092AC02109290
:10370000AD021092AE021092AF021092B00210926F
:1037100090021092910210929202109293021092D3
:103720008C0210928D0210928E0210928F021092D3
:103730009F021092A0021092A1021092A202109277
:10374000A3021092A4021092A5021092A6028FEF7B
:103750009FEF90939A028093990280E090E0A0E816
:10376000BFE38093950290939602A0939702B09343
:1037700098021092B5021092B6021092B7021092FF
:10378000B80210927D0210927E0210927F02109277
:10379000800281E08093810210928702109283025E
:1037A00010928402109285021092860218861F825F
:1037B000BE01675F7F4FCE0107960E945218898530
:1037C0008B3061F018861F826EE871E0CE0107969B
:1037D0000E94F80D0E943D0E1092810281E090E05F
:1037E0009E838D8310922E0210922F02109230022F
:1037F000109231028E010B5F1F4F68E871E0C80123
:103800000E94CF1766E871E0C8010E94CF1764E8F4
:1038100071E0C8010E94CF176AE871E0C8010E94F8
:10382000CF1760E871E0C8010E94CF176EE771E022
:10383000C8010E94CF176CE771E0C8010E94CF1742
:1038400062E871E0C8010E94CF1760E271E0C80130
:103850000E944C1764E271E0C8010E944C1768E2B4
:1038600071E0C8010E944C176CE271E0C8010E942F
:103870004C1767E171E0C8010E944C176BE171E0E1
:10388000C8010E944C1764E371E0C8010E944C1704
:1038900068E371E0C8010E944C176CE371E0C80155
:1038A0000E944C1760E371E0C8010E944C176FE161
:1038B00071E0C8010E94CF1664E972E0C8010E945D
:1038C000CF166BE071E0C8010E94CF176DE071E088
:1038D000C8010E94CF176FE071E0C8010E94CF17A6
:1038E00061E171E0C8010E94CF1763E171E0C80196
:1038F0000E94CF1765E171E0C8010E94CF176DE902
:1039000072E0C8010E94CF1661E471E0C8010E9414
:10391000CF176BE972E0C8010E94CF176DE871E024
:10392000C8010E9452186CE871E0C8010E94521848
:1039300061E071E0C8010E94521860E071E0C801C6
:103940000E94521860E471E0C8010E94521867E0BA
:1039500071E0C8010E94CF1765E071E0C8010E94C4
:10396000CF1763E071E0C8010E94CF1762E071E0F9
:10397000C8010E94CF1669E071E0C8010E94CF170C
:103980006AE771E0C8010E94521868EA72E0C80153
:103990000E94CF1667EA72E0C8010E94CF166BE75B
:1039A00071E0C8010E94521864E4E62E61E0F62E30
:1039B000AD80BE80C5010E94CD16D82EC5018853AA
:1039C0009F4F0E94CD16C82EC50180579E4F0E9462
:1039D000CD16DC1098C1D81296C1D701DC92609147
:1039E0002E0270912F028091300290913102D70106
:1039F0004D917D010E94C40660932E0270932F02A8
:103A000080933002909331028D819E8101969E8336
:103A10008D83BAE7EB16B1E0FB0651F66EE972E072
:103A2000C8010E94CF1663E471E0C8010E945218D9
:103A300040902E0250902F02609030027090310220
:103A400019821A821B821C82FE0131966F01AD80A1
:103A5000BE80C5010E94CD16E82EC50188539F4F38
:103A60000E94CD16982EC50180579E4F0E94CD16FC
:103A7000E9107DC1E8127BC1D601EC9260912E0263
:103A800070912F028091300290913102D6014D91B8
:103A90006D010E94C40660932E0270932F028093E2
:103AA0003002909331028D819E8101969E838D8399
:103AB000C016D10661F689819A81AB81BC81481616
:103AC00059066A067B0609F485C162E370E080E06E
:103AD00090E00E94D6048BE196E00E940A0962E31E
:103AE00070E080E090E00E94D604E09187038E2F82
:103AF00090E0FC01EE0FFF1FE80FF91FE15AFC4FA9
:103B0000808186FF02C08F7B8083E09184038E2FAB
:103B100090E0FC01EE0FFF1FE80FF91FE15AFC4F88
:103B2000808186FF02C08F7B808364E670E080E046
:103B300090E00E94D60412E060E0812F0E946004B1
:103B40001F5F1536C9F761E08DE00E94600462E3F3
:103B500070E080E090E00E94D6040FB6F894A8953B
:103B600080916000886180936000109260000FBEB9
:103B70008FEF95E00E940A0961E08DE00E94320417
:103B800068EC70E080E090E00E94D60460E08DE098
:103B90000E94320468EC70E080E090E00E94D6045D
:103BA00061E08DE00E94320468EC70E080E090E01B
:103BB0000E94D60460E08DE00E94320468EC70E060
:103BC00080E090E00E94D60461E08DE00E94320423
:103BD00068EC70E080E090E00E94D60460E08DE048
:103BE0000E94320468EC70E080E090E00E94D6040D
:103BF00060E971E080E090E00E94D60461E08DE031
:103C00000E94320464EF71E080E090E00E94D604EC
:103C100060E08DE00E94320460E971E080E090E0B5
:103C20000E94D60461E08DE00E94320464EF71E0EE
:103C300080E090E00E94D60460E08DE00E943204B3
:103C400060E971E080E090E00E94D60461E08DE0E0
:103C50000E94320464EF71E080E090E00E94D6049C
:103C600060E08DE00E94320460E971E080E090E065
:103C70000E94D60460E971E080E090E00E94D604E2
:103C800061E08DE00E94320468EC70E080E090E03A
:103C90000E94D60460E08DE00E94320468EC70E07F
:103CA00080E090E00E94D60461E08DE00E94320442
:103CB00068EC70E080E090E00E94D60460E08DE067
:103CC0000E94320468EC70E080E090E00E94D6042C
:103CD00061E08DE00E94320468EC70E080E090E0EA
:103CE0000E94D60460E08DE00E94320468EC70E02F
:103CF00080E090E00E94D60468EE73E080E090E0FF
:103D00000E94D60435CF6D2D682B6C21D8226D29E9
:103D1000F7016083C5010E940F0D8D819E81D7013F
:103D20006C9188539F4F0E940F0D8D819E81F701EA
:103D3000608180579E4F0E940F0D61E08DE00E94D0
:103D4000600460E08DE00E94320464E670E080E090
:103D500090E00E94D60461E08DE00E94320462E3AC
:103D600070E080E090E00E94D604A89538CEFE2C4A
:103D7000F82AF920E822FE28F601F0826F2DC5010D
:103D80000E940F0D8D819E816F2D88539F4F0E9441
:103D90000F0D8D819E816F2D80579E4F0E940F0DBC
:103DA00061E08DE00E94600460E08DE00E943204DA
:103DB00064E670E080E090E00E94D60461E08DE06F
:103DC0000E94320462E370E080E090E00E94D6043A
:103DD000A89554CE80910B0190910C0190938B0289
:103DE00080938A028091110190911201909389022F
:103DF00080938802809102018093820264E670E0E1
:103E000080E090E00E94D6040E94D70A64E670E049
:103E100080E090E00E94D6040E94D70A60E0809182
:103E20008D010E94600460E080918C010E9460041A
:103E300060E0809140010E9460048091A802882384
:103E4000D1F08091A702882329F062E080917A0165
:103E50000E94600410E009E080917B01181758F47B
:103E6000019FF0011124EC5BFE4F62E080810E9413
:103E700060041F5FF1CF80919E02882329F062E0E9
:103E8000809143010E9460046091010170E087E825
:103E900093E00E9468066091000170E084E893E07E
:103EA0000E94680660910B0170910C0187E893E015
:103EB0000E943106609111017091120184E893E033
:103EC0000E94310664E670E080E090E00E94D60433
:103ED000A89582EC92E00E944505F82EBFEF8B1763
:103EE00029F0ECE28E13ECC00E94E10F8091730286
:103EF00081110DC00E94B10460936F027093700233
:103F0000809371029093720291E090937302C0903B
:103F10006F02D0907002E0907102F0907202C114B2
:103F2000D104E104F10409F4F0C00E94B1046C1959
:103F30007D098E099F090E94C12E20E034E244E7EA
:103F400059E40E94D9306E8B7F8B888F998F0E94A5
:103F5000B10460936F02709370028093710290932A
:103F600072028E899F89A88DB98D8093B502909336
:103F7000B602A093B702B093B80280918D010E945F
:103F80009C046C019093B4028093B30280918C01E5
:103F90000E949C047C019093B2028093B102009134
:103FA0008A0110918B012091880130918901409103
:103FB0008601509187016091840170918501C6014D
:103FC0000E9429076093AD027093AE028093AF0206
:103FD0009093B002009182011091830120918001A1
:103FE0003091810140917E0150917F0160917C016F
:103FF00070917D01C7010E9429076093A902709307
:10400000AA028093AB029093AC028091A80288230D
:1040100009F491C0E0907B018091A702811184C0D6
:104020001092A9021092AA021092AB021092AC0256
:104030001092AD021092AE021092AF021092B00236
:1040400004E411E0F12CEF1409F475C0D8018C914F
:104050000E940904892B81F5F80121813281438175
:1040600054816091A9027091AA028091AB02909153
:10407000AC020E946D306093A9027093AA028093F3
:10408000AB029093AC02D80115962D913D914D91C4
:104090005C9118976091AD027091AE028091AF0271
:1040A0009091B0020E946D306093AD027093AE02A9
:1040B0008093AF029093B002F394075F1F4FC3CF7A
:1040C000082F880F110BC8010E949D31892B51F4D4
:1040D00083ED8F0D823030F0FAE3FF1619F08FE593
:1040E000F81204CFC8010E94B23190916E02E92FFC
:1040F000F0E0EE5CFD4F808382E0890F8C3308F0A6
:10410000F5CE9F5F90936E02F1CE0E94B104609352
:104110006F027093700280937102909372021E8AF4
:104120001F8A188E198E1DCF80917A010E94090472
:10413000892B09F475CF8091AD029091AE02A091C8
:10414000AF02B091B0028093A3029093A402A09317
:10415000A502B093A6028091A9029091AA02A09113
:10416000AB02B091AC0280939F029093A002A09307
:10417000A102B093A20280919E02882371F08091E7
:1041800043010E940904892B41F41092A30210926A
:10419000A4021092A5021092A60280919D0288238B
:1041A00009F415C4C0909B02D0909C02E09041019C
:1041B000F0904201809140010E949C048C019093F8
:1041C0009A0280939902B701FF0C880B990B0E9409
:1041D000C32E4B015C01B801110F880B990B0E9493
:1041E000C32EA50194010E946C302B013C01B60145
:1041F000DD0C880B990B0E94C32EA50194010E942F
:104200006C309B01AC01C301B2010E94D93020E0A7
:1042100030E0A9010E946D306B017C0120E030E0AC
:10422000A9010E94BC2E87FDCEC320E030E040E80B
:104230005FE3C701B6010E948131181634F4C12C26
:10424000D12C30E8E32E3FE3F32EC0929502D092BA
:104250009602E0929702F092980280913C01909130
:104260003D01A0913E01B0913F018A879B87AC87B9
:10427000BD878090380190903901A0903A01B090AC
:104280003B018091340190913501A0913601B091AC
:1042900037018E879F87A88BB98B8091950290916B
:1042A0009602A0919702B09198028A8B9B8BAC8B5F
:1042B000BD8B20E030E0A901C501B4010E9481312D
:1042C00075016401181624F0F7FAF094F7F8F094E9
:1042D00020E030E0A9016E857F85888999890E9458
:1042E00081314E845F8468887988181624F077FAC3
:1042F000709477F8709420E030E0A9016A857B859E
:104300008C859D850E94813118164CF08A859B858D
:10431000AC85BD85B0588A879B87AC87BD87A301D4
:1043200092016A897B898C899D890E94222F562E51
:10433000472E382E292EC701B60190582A893B896D
:104340004C895D890E94222F3B018C01C0909F0205
:10435000D090A002E090A102F090A20220E030E014
:10436000A901C701B6010E94BC2E882309F448C3E5
:1043700020E030E0A901C701B6010E948131A70108
:10438000960118160CF030C3652D742D832D922DD7
:104390000E94222F20E030E0A9010E946D306B01C5
:1043A0007C01A7019601B301C8010E948131181652
:1043B0000CF42AC3A7019601652D742D832D922D2F
:1043C0000E94BC2E87FF04C0C52CD42CE32CF22CF9
:1043D000C0929F02D092A002E092A102F092A202AB
:1043E0002091A3023091A4024091A5025091A6020F
:1043F0006A857B858C859D850E94222F2A893B8931
:104400004C895D890E94222F1B018C012A893B89DE
:104410004C895D896A857B858C859D8590580E9435
:10442000222F2B013C019B01AC01B101C8010E946C
:10443000BC2E87FD16C02A853B854C855D856A8923
:104440007B898C899D890E94222F2B013C019B0135
:10445000AC01B101C8010E948131181614F021018C
:10446000380120E030E0A901C701B6010E94813186
:1044700087FD04C08E849F84A888B988209130016C
:1044800030913101409132015091330160E070E090
:1044900080E89FE30E946C306A877B878C879D87CA
:1044A00020E030E0A901C701B6010E948131A701D7
:1044B000960118160CF050586A857B858C859D8571
:1044C0000E94222F6A877B878C879D8720E030E0BF
:1044D000A901C501B4010E94813118160CF097C2E0
:1044E00027E137EB41ED58E3C501B4010E946D307F
:1044F0009B01AC016A857B858C859D850E94D930A6
:104500009B01AC0160E070E080E89FE30E946C30AA
:104510004B015C0120E030E0A9010E9481311816B6
:104520001CF0812C912C5401A5019401B201C3010E
:104530000E94222F4B015C0120E030E040E85FEB5D
:104540000E94BC2E87FD6CC220E030E040E85FE3B3
:10455000C501B4010E948131181634F4812C912CCC
:1045600020E8A22E2FE3B22E8092A3029092A40202
:10457000A092A502B092A60220E030E0A901C701F6
:10458000B6010E94BC2E87FF10C080919402882340
:1045900061F0B7FAB094B7F8B0948092A302909209
:1045A000A402A092A502B092A60280912C01909143
:1045B0002D01A0912E01B0912F018E879F87A88B8E
:1045C000B98B8090280190902901A0902A01B09089
:1045D0002B018091240190912501A0912601B09199
:1045E00027018B8F9C8FAD8FBE8F40902001509004
:1045F0002101609022017090230180911F0181119F
:1046000016C21A8E1F8E90E898A3AFE3A9A38091DB
:10461000900290919102A0919202B09193028A87A8
:104620009B87AC87BD8720E030E0A901C301B201C0
:104630000E94813118161CF0412C512C3201A3012B
:1046400092016A8D7F8D88A199A10E94222F2B0152
:104650003C0120E030E0A9016B8D7C8D8D8D9E8D1D
:104660000E948131181624F01B8E1C8E1D8E1E8E0A
:1046700020E030E0A901C501B4010E948131181683
:104680001CF0812C912C5401A50194016A8D7F8D21
:1046900088A199A10E94222F4B015C0120E030E00B
:1046A000A9016E857F85888999890E9481311816B4
:1046B00024F01E861F86188A198A2A853B854C8518
:1046C0005D85C701B6010E946C30D62EC72E382EEC
:1046D000292E20E030E0A9016A857B858C859D85A7
:1046E0000E94BC2E8111ACC1C501B40190582E8925
:1046F0003F89488D598D0E94222F7B018C019B019F
:10470000AC016D2D7C2D832D922D0E94BC2E87FD3A
:1047100018C0A30192016E897F89888D998D0E94AE
:10472000222F7B018C019B01AC016D2D7C2D832DF3
:10473000922D0E948131181624F0ED2CFC2C032DB3
:10474000122D9701A8016A857B858C859D850E9425
:104750006D30362E272E8A879E87832D922DAA852F
:10476000BE858093900290939102A0939202B093A1
:10477000930280901B0190901C01A0901D01B090AD
:104780001E01C0901701D0901801E0901901F0901F
:104790001A014090A3025090A4026090A50270906C
:1047A000A60280918C0290918D02A0918E02B09110
:1047B0008F028B8F9C8FAD8FBE8F20E030E0A901E0
:1047C000C701B6010E94813118161CF0C12CD12CF2
:1047D0007601A70196016A8D7F8D88A199A10E941B
:1047E000222F6B017C0120E030E0A901C501B4015A
:1047F0000E94813118161CF0812C912C54012B8DB4
:104800003C8D4D8D5E8DC301B2010E946C30462EF1
:10481000672E582E792E20E030E0A9016B8D7C8D1B
:104820008D8D9E8D0E94BC2E8111ADC12E893F8938
:10483000488D598DC701B60190580E94222F5B0107
:104840008C01242D362D452D572D0E9481311816AF
:10485000B4F0A70196016E897F89888D998D0E9499
:10486000222F5B018C01242D362D452D572D0E94C2
:10487000BC2E87FD04C0A42CB62C052D172D950148
:10488000A8016B8D7C8D8D8D9E8D0E946D305B019E
:104890008C01C501D80180938C0290938D02A09366
:1048A0008E02B0938F0280919D02882309F451C03B
:1048B000CA88DB88EC88FD88F7FAF094F7F8F09462
:1048C000232D322D4A855E85C701B6010E948131B4
:1048D00018160CF4E9C1232D322D4A855E856A89AC
:1048E0007B898C899D890E94BC2E87FF06C03A88EF
:1048F0002B889C899A87AD89AE87832D922DAA85B6
:10490000BE858093900290939102A0939202B093FF
:1049100093029501A801C701B6010E9481311816C2
:1049200084F09501A8016A897B898C899D890E9400
:10493000BC2E6501780187FF04C0CA88DB88EC883B
:10494000FD88C0928C02D0928D02E0928E02F0928D
:104950008F0280908C0290908D02A0908E02B09079
:104960008F0220E030E0A901C501B4010E9481312D
:1049700018160CF09EC12FE632E143E85AE3C50158
:10498000B4010E94813187FF9FC1C0909002D090F6
:104990009102E0909202F090930220E030E0A901B1
:1049A000C701B6010E94813118160CF075C22FE6BE
:1049B00032E143E85AE3C701B6010E94813187FF23
:1049C00083C160E082C1C12CD12C76013ECC80E055
:1049D00090E0A0E8BFE38093950290939602A093A5
:1049E0009702B093980239CCB301C8010E94222FDC
:1049F0009B01AC0160E070E0CB010E946C30CFCC39
:104A0000C12CD12C7601CDCC63017801E1CCA5017C
:104A1000940167E177EB81ED98E30E946C3068CDFB
:104A2000812C912C90E8A92E9FEBB92E9DCDBA89AF
:104A3000BA8FEB89EF8FFC89F8A38D8989A3E7CD25
:104A400020E030E0A9016A857B858C859D850E94E8
:104A5000813118160CF04DC02B8D3C8D4D8D5E8D27
:104A60006A8D7F8D88A199A10E94222F90582E894E
:104A70003F89488D598D0E94222F7B018C019B011B
:104A8000AC016D2D7C2D832D922D0E94BC2E87FDB7
:104A900018C0A30192016E897F89888D998D0E942B
:104AA000222F7B018C019B01AC016D2D7C2D832D70
:104AB000922D0E948131181624F0ED2CFC2C032D30
:104AC000122D9701A8016A857B858C859D850E94A2
:104AD0006D30362E272E8A879E8720E030E0A90190
:104AE0000E94BC2E87FF39CE312C212C1A861E86BF
:104AF00034CEC501B40190582E893F89488D598D17
:104B00000E94222F7B018C019B01AC016D2D7C2D1D
:104B1000832D922D0E94BC2E87FD20C02E853F85BF
:104B2000488959896A8D7F8D88A199A10E94222F79
:104B30002E893F89488D598D0E94222F7B018C013F
:104B40009B01AC016D2D7C2D832D922D0E94813116
:104B5000181624F0ED2CFC2C032D122D9701A80122
:104B60006A857B858C859D850E946D30362E272E2B
:104B70008A879E8720E030E0A9010E9481311816C3
:104B80000CF4B2CFEACDA50194016A8D7F8D88A186
:104B900099A10E94222F4B015C0120E030E0A90185
:104BA0006B8D7C8D8D8D9E8D0E94813118160CF041
:104BB0003FC0C501B40190582E893F89488D598D59
:104BC0000E94222F5B018C01242D362D452D572D5F
:104BD0000E9481311816B4F0A70196016E897F8971
:104BE000888D998D0E94222F5B018C01242D362DFA
:104BF000452D572D0E94BC2E87FD04C0A42CB62C39
:104C0000052D172D9501A8016B8D7C8D8D8D9E8DA9
:104C10000E946D305B018C0120E030E0A9010E9410
:104C2000BC2E87FF36CEA12CB12C00E010E031CE97
:104C3000C701B60190582E893F89488D598D0E9431
:104C4000222F7B018C01242D362D452D572D0E94BE
:104C500081311816B4F0A50194016E897F89888D81
:104C6000998D0E94222F7B018C01242D362D452DFC
:104C7000572D0E94BC2E87FD04C0E42CF62C052D78
:104C8000172D9701A8016B8D7C8D8D8D9E8D0E94B7
:104C90006D305B018C0120E030E0A9010E94813180
:104CA00018160CF4C0CFF5CD3C2C2D2CEA86FE86D0
:104CB00024CE2FE632E143E85AEBC501B4010E944D
:104CC000BC2E18160CF461CE61E08DE00E94320417
:104CD000E0911501F0911601FB8BEA8B8091130195
:104CE000909114019B878A872090110130901201C6
:104CF000A0910F01B0911001BF8BAE8BE0900D0120
:104D0000F0900E0100910B0110910C018091900226
:104D100090919102A0919202B09193028E879F8709
:104D2000A88BB98B9C01AD01C501B4010E946D3007
:104D30002B013C0120E030E0A9010E94BC2E811132
:104D4000B7C0B801012E000C880B990B0E94C32E2E
:104D50000E944B31AB012E893F8937FF03C031954B
:104D600021953109F801E21BF30B4E175F073CF068
:104D7000F801E20FF31F4E175F070CF4FB01F093ED
:104D80008B02E0938A02A50194016E857F85888954
:104D900099890E946C306B017C0120E030E0A90110
:104DA0000E94BC2E8111D4C0B101032C000C880BD1
:104DB000990B0E94C32E0E944B31AB012A893B897B
:104DC00037FF03C0319521953109F101E21BF30B47
:104DD0004E175F073CF0F101E20FF31F4E175F071C
:104DE0000CF4FB01F0938902E09388028FB7F894EA
:104DF0008090BA029090BB02A090BC02B090BD021D
:104E00008FBF80918702882341F098EB89169BE041
:104E10009906A104B10408F034C180910B0190916E
:104E20000C0190938B0280938A02809111019091E2
:104E300012019093890280938802009109011091D8
:104E40000A01101611061CF0A1E0A0938702C09081
:104E5000AD02D090AE02E090AF02F090B00220E040
:104E600030E0A901C701B6010E94813118160CF08B
:104E7000C2C02FE632E143E85AE3C701B6010E94FF
:104E8000BC2E87FDC3C01092830210928402109240
:104E9000850210928602F5C02FE632E143E85AEB14
:104EA000C701B6010E94BC2E18160CF48ACD0CCF97
:104EB00020E030E0A901C301B2010E94813118163F
:104EC00014F5B701600F711F072E000C880B990BAA
:104ED0000E94C32E6B017C016E897F89600F711F58
:104EE000072E000C880B990B0E94C32EA701960178
:104EF0000E946C30A30192010E94222FA70196010B
:104F00000E946D3025CFB8016E197F09072E000C65
:104F1000880B990B0E94C32E6B017C01B801AE89EE
:104F2000BF896A1B7B0B072E000C880B990B0E9414
:104F3000C32EA70196010E946C30A30192010E942A
:104F4000222F9B01AC01C701B6010E946C3000CF3B
:104F500020E030E0A901C701B6010E948131181696
:104F60001CF56A857B85620D731D072E000C880B6E
:104F7000990B0E94C32E4B015C016A897B89620DEB
:104F8000731D072E000C880B990B0E94C32EA501E0
:104F900094010E946C30A70196010E94222FA50166
:104FA00094010E946D3007CFB101EA85FB856E1B2D
:104FB0007F0B072E000C880B990B0E94C32E4B0110
:104FC0005C01B1018A899B89681B790B072E000C53
:104FD000880B990B0E94C32EA50194010E946C308E
:104FE000A70196010E94222F9B01AC01C501B401CB
:104FF0000E946C30E0CE2FE632E143E85AEBC70165
:10500000B6010E94813118160CF03DCFC090A90264
:10501000D090AA02E090AB02F090AC0220E030E029
:10502000A901C701B6010E94813118160CF09FC07A
:105030002FE632E143E85AE3C701B6010E94BC2ED5
:1050400087FF21CF8091830290918402A0918502F5
:10505000B09186020196A11DB11D809383029093A9
:105060008402A0938502B0938602012E000C220BCD
:10507000330B081719072A073B071CF4B1E0B0935C
:1050800087021091810280918202882309F481C0F5
:1050900080918702882309F47CC0E8EB8E16EBE050
:1050A0009E06A104B10408F474C010928202112378
:1050B00009F444C06AE070E080E090E00E94D60409
:1050C00080910D0190910E01181619060CF05BC02D
:1050D00081E090E02091070130910801829FB001AA
:1050E000839F700D929F700D112480910B01909100
:1050F0000C01680F791F87E893E00E9431068091C8
:10510000130190911401181619060CF03FC081E0AC
:1051100090E02091050130910601829FB001839FAC
:10512000700D929F700D11248091110190911201C8
:10513000680F791F84E893E00E94310660910301B3
:1051400070910401072E000C880B990B0E94D60465
:10515000112389F160910B0170910C0187E893E0B4
:105160000E943106609111017091120120C02FE65A
:1051700032E143E85AEBC701B6010E9481311816AB
:105180000CF081CE5FCF8FEF9FEFA4CF8FEF9FEF1B
:10519000C0CF1123F9F260918A0270918B0287E8E7
:1051A00093E00E943106609188027091890284E840
:1051B00093E00E9431062FB7F8948091BA02909143
:1051C000BB02A091BC02B091BD022FBF40917D02F5
:1051D00050917E0260917F0270918002841B950B3A
:1051E000A60BB70B84369105A105B10508F478C16B
:1051F0002FB7F8948091BA029091BB02A091BC02A3
:10520000B091BD022FBF80937D0290937E02A09348
:105210007F02B093800281E090E090937C028093C3
:105220007B028BE092E00E9474088FB7F894C090E4
:10523000BA02D090BB02E090BC02F090BD028FBFDA
:1052400080917B0290917C02049690937C028093E3
:105250007B0287E192E00E94740888EF96E00E944A
:10526000F60520917B0230917C02820F931F909370
:105270007C0280937B0281EA91E00E9474084AE0FC
:10528000C701B6010E94B80820917B0230917C02D0
:10529000820F931F90937C0280937B0281EE91E0BA
:1052A0000E9474086091B3027091B40280EF96E09E
:1052B0000E9444096091B1027091B20288EE96E0BA
:1052C0000E9444094091AD025091AE026091AF023C
:1052D0007091B0028EED96E00E945C0A4091A902A6
:1052E0005091AA026091AB027091AC0283ED96E0FE
:1052F0000E945C0A4091A3025091A4026091A50211
:105300007091A60285EC96E00E945C0A40919F0293
:105310005091A0026091A1027091A20286EB96E0EA
:105320000E945C0A40918C0250918D0260918E0225
:1053300070918F028AEA96E00E945C0A4091900286
:105340005091910260919202709193028DE996E0E2
:105350000E945C0A60918A0270918B028BE896E051
:105360000E944409609188027091890288E796E062
:105370000E9444096091990270919A028BE696E02E
:105380000E9444098091810263EB71E0811102C0A7
:1053900068EB71E08BE596E00E947B0880918702C4
:1053A00063EB71E0811102C068EB71E085E596E086
:1053B0000E947B088091A80210E000E0882309F495
:1053C0003EC084E4C82E81E0D82E10E000E0F12C2D
:1053D000E12CD6018C910E940904892B71F481E0A3
:1053E00090E0A0E0B0E00E2C04C0880F991FAA1F27
:1053F000BB1F0A94D2F7082B192BBFEFEB1AFB0A3D
:10540000E9E0CE0ED11CF6E0EF16F10411F7809121
:10541000A802882359F08091A702882331F0809157
:105420007A010E940904892B09F400648091A80282
:10543000882329F08091A702811168C00064B80117
:105440008DE496E00E94440984E496E00E94F6050B
:1054500020917B0230917C02820F931F90937C02FB
:1054600080937B028091A802882309F45DC080911B
:10547000A702882309F455C080917A010E9409048B
:10548000892B09F04BC08DE092E00E9467082091C3
:105490007B0230917C02820F931F90937C02809359
:1054A0007B0287E396E00E94F60500917B02109153
:1054B0007C02080F191F10937C0200937B02C80125
:1054C0000E94FB060F5F1F4F080F191FB801110F35
:1054D000880B990B0E94180989E092E00E94FC0851
:1054E00061E070E080E090E00E94D60480E090E00F
:1054F000892B11F40C94681F0E947305882311F402
:105500000C94681F0E9400000C94681F80917A011F
:105510000E940904019709F091CF91CF81E192E0B7
:10552000B4CF85E192E0B1CF89E192E0AECFEF92C6
:105530000F931F93CF93DF93E80134E047FD34E1ED
:10554000042E000C550B57FF03C05195419551098E
:10555000E32E022F242FAE010E94142BCE01DF91E7
:10556000CF911F910F91EF900895662777270C94A4
:10557000732CFC0188279927E89421912032E9F3C4
:10558000293010F02E30C8F32B3241F02D3239F48F
:10559000689404C00E940C2B820F911D219120530E
:1055A0002A30C0F31EF4909581959F4F0895FB011A
:1055B000DC018D91059080190110D9F3990B0895A4
:1055C0004AE853E00E94E52A0895FA01A191B081CA
:1055D000009719F41097E1F0CD01DC01CD010D9099
:1055E000002011F4C00113C0FB012191222319F006
:1055F0002015D9F7F3CFFB012191201519F41E9244
:10560000119606C02223C1F70D900020A1F7D0010A
:10561000FA01A193B08308957AE0979F902D879F18
:10562000802D910D11240895A9E0B0E0EAE1FBE29C
:105630000C940A306A01F22EB02E102FFBE3AF2E2D
:10564000A01608F41BE31F5F012F27E0AE014F5F98
:105650005F4F0E94C32DBC018981982F99709130B2
:1056600009F43FC09BE2E1FC04C09E2D9170E0FC78
:105670003AC05E2D5071E82FE87083FF46C084E089
:10568000911101C083E0EF2DE81B8F1508F0E0E0D9
:10569000D6018E2F20E2552351F1992329F0D6010E
:1056A0009C93C60101966C0196012D5F3F4FE2FE6F
:1056B00024C08EE4D6018C9391E411969C931197AB
:1056C00012968C93D9018E2F90E281111BC0E20FAC
:1056D000F32FF11D10828EEF9FEF2996ECE00C94D2
:1056E00026309DE2C6CF90E2C4CF2D938150811128
:1056F000FCCFCE0ED11CE0E0D0CF8EE6D6018C934D
:1057000091E6DBCF9D938150E0CF482F447082FF1C
:105710003DC084E0911101C083E08F1510F4EF2D9E
:10572000E81BD6018E2F20E2552309F1992329F099
:10573000D6019C93C60101966C0196012D5F3F4FE7
:10574000E2FE1BC089E4D6018C938EE411968C9303
:10575000119786E412968C93D9018E2F90E28823BC
:1057600009F4B5CF9D938150FACF2D9381508111CB
:10577000FCCFCE0ED11CE0E0D9CF89E6D6018C93C8
:105780008EE611968C93119786E6E4CF9B0177FF06
:1057900002C030E020E0A1E0B0E0911102C0B0E032
:1057A000A0E0F9013196AE0FBF1F8B2C912CBB20CE
:1057B00009F461C05401EFEFAE1ABE0AAA0DBB1D79
:1057C000FA161B0619F014F04F2D4A1B511188C010
:1057D000E3FC59C07601A42FB0E2A1114FC0C40E62
:1057E000D11C992309F45BC040E0D6011196F60163
:1057F00090836D01552309F448C0012F060F9A814B
:10580000582F507184FF03C0913309F401501016D2
:105810000CF047C0093008F008E0EEE2FE2E5B0114
:10582000A01AB10885019194819491082F3F320705
:1058300029F4D601FC92F60131966F0162177307C5
:1058400094F1021713077CF5DB01A21BB30BAA240A
:10585000A394B12CAC0EBD1EAA0DBB1D11968C914C
:1058600021503109D601119628153905F4F0F601B9
:1058700080836D01DBCFB12CA12CA0CFF701B193B8
:105880007F01A150AACF9111B0CFD601942F50E340
:1058900002C05D9391509111FCCFC40ED11C40E029
:1058A000ACCF01E0BACF80E3DBCF6217730731F4EE
:1058B000963388F4953311F4552369F0F60180830B
:1058C000FD01842F90E2811108C0A40FB11D1C922C
:1058D00090E080E002CF81E3F1CF91938150F3CF4C
:1058E000911183CF8ACFB0E0A0E0E9E7FCE20C940D
:1058F0000A305C017B016115710519F0DB018D93A4
:105900009C9385010F5F1F4FF501D0818D2F90E093
:105910000E949B2E6C01892BB9F5DD32B9F50F5F22
:105920001F4FD5011196DC91C1E05801F1E0AF1A8B
:10593000B10843E050E060E770E0C5010E94A42E8A
:10594000892B69F5680182E0C80ED11C45E050E062
:105950006BE670E0C6010E94A42E892B21F4680139
:1059600097E0C90ED11CE114F10419F0D701CD92D2
:10597000DC9260E070E080E89FEFC111FFC060E062
:1059800070E080E89FE7FAC05801BBCFDB3229F412
:1059900085010E5F1F4FF501D181C0E0C6CF43E006
:1059A00050E068E670E0C5010E94A42E892BE9F062
:1059B000F80110E000E020E030E0A9015F01B0ED67
:1059C0008B2E8D0E89E08815C8F19C2E689491F875
:1059D0008C2F8870C2FF16C0811102C00F5F1F4F4D
:1059E0003196D501DC91C92DE9CFE114F10429F0FC
:1059F0000E5F1F4FF7011183008360E070E080ECC1
:105A00009FE7BCC0882311F001501109A5E0B0E068
:105A10000E94F92F9B01AC01220F331F441F551F19
:105A2000280D311D411D511D283999E939074907B4
:105A300099E15907A8F2C6609C2ED2CFAEEF8A1228
:105A400006C0C3FD3CC09C2E689493F8C9CFDF7D8F
:105A5000D534A9F580818D3239F4C061DF01129609
:105A6000818162E070E006C0DF018B32C1F31196E4
:105A700061E070E080535D01A61AB70A8A30F8F43D
:105A8000E0E8CE16ECE0DE065CF4B601660F771FA8
:105A9000660F771FC60ED71ECC0CDD1CC80ED11C9E
:105AA0005D01FFEFAF1ABF0A8C9180538A30A8F1D5
:105AB000C4FF03C0D194C194D1080C0D1D1DC1FFBA
:105AC00009C0E114F10431F081E0A81AB108D7014E
:105AD000AD92BC92CA01B9010E94C12EC370C330FD
