:100000000C9429040C9451040C9451040C9431194F
:100010000C94D1180C9463180C944D1A0C94510440
:100020000C9451040C9451040C9451040C949119A7
:100030000C9451040C9451040C9451040C945104EC
:100040000C94C1170C9451040C9431180C940B1897
:100050000C9451040C9451040C9451040C945104CC
:100060000C9451040C9451044E414E494E4954593C
:10007000494E46CDCCCC3D0AD7233C17B7D1387773
:10008000CC2B329595E6241FB14F0A000020410089
:1000900000C84200401C4620BCBE4CCA1B0E5AAED3
:1000A000C59D7400407A10F35A00A0724E180900E2
:1000B00010A5D4E80000E87648170000E40B5402CD
:1000C0000000CA9A3B000000E1F505000080969808
:1000D00000000040420F000000A086010000001058
:1000E0002700000000E8030000000064000000009A
:1000F000000A00000000000100000000002C76D87B
:1001000088DC674F0823DFC1DFAE59E1B1B796E560
:10011000E3E453C63AE651997696E8E6C28426EBC4
:10012000898C9B62ED407C6FFCEFBC9C9F40F2BAD7
:10013000A56FA5F490055A2AF75C936B6CF9676D6F
:10014000C11BFCE0E40D47FEF520E6B500D0ED90C4
:100150002E0300943577050080841E080000204E91
:100160000A000000C80C333333330F986E1283112A
:1001700041EF8D2114893BE65516CFFEE6DB18D101
:10018000844B381BF77C1D901DA4BBE424203284D3
:10019000725E228100C9F124ECA1E53D272243488B
:1001A00045434B53554D223A005D2C002C002C004A
:1001B000223A5B002244524956455F425554544FFF
:1001C0004E5F004A4F595F43414C49425F434F5590
:1001D0004E540052494748545F4D4F544F525F5060
:1001E000554C5345004C4546545F4D4F544F525F5C
:1001F00050554C5345004A4F595F595F50494E0086
:100200004A4F595F585F50494E0053504545445F2F
:100210004B4E4F425F50494E0053504545445F4B53
:100220004E4F425F464153545F56414C0053504538
:1002300045445F4B4E4F425F534C4F575F56414CC6
:100240000052494748545F4D4F544F525F46415307
:10025000540052494748545F4D4F544F525F534CDE
:100260004F570052494748545F4D4F544F525F43D8
:10027000454E544552004C4546545F4D4F544F52E5
:100280005F46415354004C4546545F4D4F544F52C6
:100290005F534C4F57004C4546545F4D4F544F529F
:1002A0005F43454E544552005354574D420053430B
:1002B000414C455F5455524E494E475F5748454E55
:1002C0005F4D4F56494E47005455524E5F5350456F
:1002D000454400464153544553545F4241434B57B4
:1002E00041524400464153544553545F464F525780
:1002F00041524400444543454C45524154494F4EB8
:100300005F5455524E494E4700414343454C455278
:100310004154494F4E5F5455524E494E4700444553
:1003200043454C45524154494F4E5F4241434B5720
:1003300041524400414343454C45524154494F4E7C
:100340005F4241434B5741524400444543454C456D
:10035000524154494F4E5F464F525741524400411B
:100360004343454C45524154494F4E5F464F5257C7
:1003700041524400595F444541445A4F4E45004361
:100380004F4E54524F4C5F444F574E00434F4E54C4
:10039000524F4C5F43454E5445525F5900434F4EB8
:1003A00054524F4C5F555000585F444541445A4F9A
:1003B0004E4500434F4E54524F4C5F4C45465400FF
:1003C000434F4E54524F4C5F43454E5445525F5835
:1003D00000434F4E54524F4C5F52494748540063BC
:1003E000757272656E742073657474696E67732CB0
:1003F0002076657273696F6E3A007B007B226572AE
:10040000726F72223A2022656570726F6D2066618C
:10041000696C757265227D007B226572726F722233
:100420003A2022656570726F6D206661696C757225
:1004300065227D00000000006410B71DC8206E3BDF
:10044000AC30D9269041DC76F4516B6B5861B24DDB
:100450003C7105502083B8ED44930FF0E8A3D6D645
:100460008CB361CBB0C2649BD4D2D38678E20AA0AD
:100470001CF2BDBD2276616C7565223A20220022F5
:1004800073657474696E67223A2022007B2272655C
:1004900073756C74223A20226368616E676522006E
:1004A0007B22726573756C74223A20226E6F206312
:1004B00068616E6765227D00424148004642004EF9
:1004C0004200554F42004E53550053504800535080
:1004D00000555353004142004653005546530052C5
:1004E0004D004E525300525050005243500052544F
:1004F0005000525350005552005354454552494EF6
:10050000475F4F46465F5357495443485F50494EF3
:10051000005354454552494E475F4F46465F535737
:1005200049544348002276616C7565223A5B00228B
:1005300073657474696E67223A2022007B227265AB
:1005400073756C74223A20226368616E67652200BD
:100550004E554D5F44524956455F425554544F4E97
:1005600053004253414800425554544F4E5F4D4F43
:1005700044455F50494E00424D54005553455F423B
:100580005554544F4E5F4D4F44455F50494E0045C2
:100590004E41424C455F425554544F4E5F43545276
:1005A0004C004941540053544152545F4D4F544FF5
:1005B000525F50554C53455F54494D4500454E419F
:1005C000424C455F535441525455505F50554C5323
:1005D000450052494748545F4D4F544F525F434F77
:1005E0004E54524F4C4C45525F50494E004C45467C
:1005F000545F4D4F544F525F434F4E54524F4C4CEB
:1006000045525F50494E005343414C455F4143437F
:10061000454C5F574954485F535045454400555336
:10062000455F53504545445F4B4E4F42005245563F
:10063000455253455F5455524E5F494E5F524556A1
:100640004552534500D103C003B303A8039D038C57
:10065000037F0374035F034A0334031E030903F497
:1006600002E402D302C802AE02A8022D0696028658
:100670000276026302520241021E062D021902078F
:10068000060A020002F601ED05D205BD05E501D31B
:1006900001A605A205C3018F057B057705670562E5
:1006A0000550051105F904D104CE04CA04C604C2DC
:1006B00004BF04BC04B804F604F204EE04E604EA41
:1006C00004E204DF04DB04D804D5047B22726573E2
:1006D000756C74223A202273746F70706564227D89
:1006E000007B22726573756C74223A20226D6F76DE
:1006F000656D656E7420616C6C6F776564227D003A
:100700007B22726573756C74223A20227361766560
:1007100064227D002C22434845434B53554D223AD9
:100720000022625F6D5F70223A0073746F704269DD
:10073000747300627574746F6E73006A6F794F4BD7
:10074000006D6F76656D656E74416C6C6F77656476
:100750000073706565644B6E6F6256616C00726900
:100760006768744D6F746F72577269746556616C07
:10077000006C6566744D6F746F725772697465565C
:10078000616C007370656564546F447269766500CE
:100790007475726E546F4472697665007370656526
:1007A0006450726F636573736564007475726E5024
:1007B000726F636573736564007370656564496E19
:1007C000707574007475726E496E707574006A6F1E
:1007D000795956616C006A6F795856616C0063757F
:1007E0007272656E742076616C7565732C206D690C
:1007F0006C6C69733A0000000000240027002A0096
:1008000000000000250028002B000000000023004D
:100810002600290004040404040404040202020261
:1008200002020303030303030102040810204080B3
:100830000102040810200102040810200000000832
:100840000002010000030407000000000000000097
:100850006A1B11241FBECFEFD8E0DEBFCDBF12E070
:10086000A0E0B1E0E2E0F6E702C005900D92A43FFF
:10087000B107D9F724E0A4EFB2E001C01D92AE3B6E
:10088000B207E1F714E0C9E2D4E004C02197FE0109
:100890000E942B38C832D107C9F70E94E11B0C9483
:1008A000FF3A0C940000833081F028F4813099F0F5
:1008B0008230A9F008958730A9F08830C9F08430DB
:1008C000B1F4809180008F7D03C0809180008F778C
:1008D00080938000089584B58F7784BD089584B592
:1008E0008F7DFBCF8091B0008F778093B00008950B
:1008F0008091B0008F7DF9CFCF93DF93282F30E028
:10090000F901E45CF74F8491F901E85DF74FD49168
:10091000F901EC5EF74FC491CC23A1F081110E9444
:100920005304EC2FF0E0EE0FFF1FE65FF74FA591A9
:10093000B491EC91ED2381E090E009F480E0DF9147
:10094000CF91089580E090E0FACF1F93CF93DF938B
:10095000282F30E0F901E45CF74F8491F901E85D5C
:10096000F74FD491F901EC5EF74FC491CC23A9F075
:10097000162F81110E945304EC2FF0E0EE0FFF1FA1
:10098000E050F84FA591B4918FB7F894EC91111104
:1009900008C0D095DE23DC938FBFDF91CF911F91EC
:1009A0000895DE2BF8CFCF93DF9390E0FC01E85D54
:1009B000F74F24918C5E974FFC0184918823C9F0F6
:1009C00090E0880F991FFC01EA50F84FA591B4916F
:1009D000FC01E050F84FC591D49161110DC09FB753
:1009E000F8948C91209582238C93888128232883E6
:1009F0009FBFDF91CF910895623051F49FB7F89473
:100A00003C91822F809583238C93E8812E2BEFCF0E
:100A10008FB7F894EC912E2B2C938FBFEACF8E30AA
:100A200008F08E508770806480937C0080917A00FB
:100A3000806480937A0080917A0086FDFCCF80915B
:100A400078009091790008953FB7F8948091EE0373
:100A50009091EF03A091F003B091F10326B5A89B0C
:100A600005C02F3F19F00196A11DB11D3FBFBA2F40
:100A7000A92F982F8827BC01CD01620F711D811D00
:100A8000911D42E0660F771F881F991F4A95D1F785
:100A900008958F929F92AF92BF92CF92DF92EF9282
:100AA000FF926B017C010E9424054B015C01C11483
:100AB000D104E104F104B9F00E9424056819790910
:100AC0008A099B09683E73408105910580F321E006
:100AD000C21AD108E108F10888EE880E83E0981E5A
:100AE000A11CB11CE4CFFF90EF90DF90CF90BF909E
:100AF000AF909F908F9008952FB7F8946091EA037C
:100B00007091EB038091EC039091ED032FBF08955A
:100B1000AF92BF92CF92DF92EF92FF920F931F930B
:100B2000CF93DF936C017B018B01040F151FEB0149
:100B30005E01AE18BF08C017D10759F06991D60100
:100B4000ED91FC910190F081E02DC6010995892B72
:100B500079F7C501DF91CF911F910F91FF90EF9031
:100B6000DF90CF90BF90AF900895FC01538D448DDE
:100B7000252F30E0842F90E0821B930B541710F048
:100B8000CF96089501970895FC01918D828D981755
:100B900061F0A28DAE0FBF2FB11D5D968C91928D2D
:100BA0009F5F9F73928F90E008958FEF9FEF08955E
:100BB000FC01918D828D981731F0828DE80FF11D27
:100BC000858D90E008958FEF9FEF0895FC01918D42
:100BD000228D892F90E0805C9F4F821B91098F733B
:100BE0009927089582EF93E00E94E60521E0892B82
:100BF00009F420E0822F089580E090E0892B29F00D
:100C00000E94F20581110C9400000895FC01A48D4E
:100C1000A80FB92FB11DA35ABF4F2C91848D90E01E
:100C200001968F739927848FA689B7892C93A08901
:100C3000B1898C91837080648C93938D848D98138B
:100C400006C00288F389E02D80818F7D808308951E
:100C5000EF92FF920F931F93CF93DF93EC0181E00C
:100C6000888F9B8D8C8D98131AC0E889F9898081B3
:100C700085FF15C09FB7F894EE89FF896083E889E6
:100C8000F98980818370806480839FBF81E090E0D8
:100C9000DF91CF911F910F91FF90EF900895F62E65
:100CA0000B8D10E00F5F1F4F0F731127E02E8C8DFF
:100CB0008E110CC00FB607FCFACFE889F989808144
:100CC00085FFF5CFCE010E940606F1CFEB8DEC0F2C
:100CD000FD2FF11DE35AFF4FF0829FB7F8940B8F61
:100CE000EA89FB8980818062CFCF0F931F93CF93D6
:100CF000DF938C01D0E0C0E0F801EC0FFD1F6491A0
:100D0000662341F082EF93E00E942806892B11F0C0
:100D10002196F2CFCE01DF91CF911F910F910895CF
:100D2000CF93DF93EC01888D8823B9F0AA89BB8922
:100D3000E889F9898C9185FD03C0808186FD0DC00D
:100D40000FB607FCF7CF8C9185FFF2CF808185FF2E
:100D5000EDCFCE010E940606E9CFDF91CF91089535
:100D60000895DC01EC91EC3090F511968C9111977F
:100D700028E830E0281B310987FD3395220F331F07
:100D8000220F331F6217730784F012968C9128E5A7
:100D900032E0281B310987FD3395220F331F220FC4
:100DA000331F621773070CF49B0122503109220F85
:100DB000331F4FB7F8948E2F90E0FC01EE0FFF1F0A
:100DC000E80FF91FE157FB4F328321834FBF08958E
:100DD0001F93CF93DF93EC01162F88818C3008F09E
:100DE0004EC061E0812F0E94D3048881282F30E01B
:100DF000F901EE0FFF1FE20FF31FE157FB4F1F73C7
:100E00006081607C612B608319821A822CE0622FE2
:100E10000E941F38829FB001112430E020E0AB0116
:100E2000420F531FFA01EE0FFF1FE40FF51FE157AA
:100E3000FB4F908196FD16C02F5F3F4F2C30310540
:100E400071F781110FC01092800082E080938100C1
:100E50001092850010928400B19A80916F00826098
:100E600080936F00E8818E2F90E0FC01EE0FFF1F52
:100E7000E80FF91FE157FB4F8081806480838881F0
:100E8000DF91CF911F9108950F931F93E42FE627D1
:100E9000EF7024E0E29FF0011124EC5CFB4F059120
:100EA00015912591349154E096958795779567959E
:100EB0005A95D1F76027712782279327E42FE2956F
:100EC000EF70E627EF7024E0E29FF0011124EC5C64
:100ED000FB4F0591159125913491E4E09695879506
:100EE00077956795EA95D1F7602771278227932731
:100EF0001F910F9108950E947506209198033091DB
:100F00009903820F931F90939903809398030895F8
:100F10002F923F924F925F926F927F928F929F9209
:100F2000AF92BF92CF92DF92EF92FF920F931F93F7
:100F3000CF93DF93EC016A01790117FF02C010E043
:100F400000E06E157F050CF019C11601201A310A58
:100F5000C215D3050CF093C0621573050CF08FC059
:100F6000072E000C880B990B0E9457354B015C0132
:100F7000BE010D2E000C880B990B0E945735A50160
:100F800094010E9400372B013C01B101330C880B06
:100F9000990B0E945735A50194010E9400379B01CF
:100FA000AC01C301B2010E946D3720E030E040E89F
:100FB0005FE30E9400374B015C010C0D1D1D0C17F7
:100FC0001D079CF50E151F0584F5B701FF0C880B56
:100FD000990B0E9457356B017C01BE01DD0F880B18
:100FE000990B0E945735A70196010E9400374B01CB
:100FF0005C01B7FAB094B7F8B094B801110F880B40
:10100000990B0E945735A70196010E9400379B015A
:10101000AC01C501B4010E946D3720E030E040E82A
:101020005FE30E9401374B015C0120E030E040E8C3
:101030005FEBC501B4010E94503587FD91C020E0EF
:1010400030E040E85FE3C501B4010E94153818168E
:101050000CF48DC0C501B401DF91CF911F910F91A8
:10106000FF90EF90DF90CF90BF90AF909F908F90C8
:101070007F906F905F904F903F902F900895812CBC
:10108000912C54019ACF18012C0C3D1C2C163D06B6
:101090000CF062C0261637060CF05EC0072E000C5E
:1010A000880B990B0E9457354B015C01BE010D2E38
:1010B000000C880B990B0E945735A50194010E94E2
:1010C00000372B013C01B101330C880B990B0E94B6
:1010D0005735A50194010E9400379B01AC01C30163
:1010E000B2010E946D3720E030E040E85FE30E94EB
:1010F00000374B015C01C01AD10ACC15DD050CF09C
:1011000094CFEC14FD040CF090CFB701FF0C880BCA
:10111000990B0E9457354B015C01BE01DD0F880B16
:10112000990B0E945735A50194010E9400372B01AD
:101130003C0177FA709477F87094B601DD0C880B57
:10114000990B0E945735A50194010E9400379B011D
:10115000AC01C301B2015FCF812C912C5401CBCFE4
:10116000812C912C90E8A92E9FEBB92E73CF812C66
:10117000912C80E8A82E8FE3B82E6CCFE616F706E8
:101180000CF481CF812C912C540164CFAF92BF928B
:10119000CF92DF92EF92FF920F931F93CF93DF9343
:1011A00080919603882309F49AC08091D5038460C6
:1011B0008093D50398E2A92E91E0B92E2CE2E22E7D
:1011C00021E0F22E850162E0D8018D918D010E940F
:1011D000D304E016F106B9F7E5ECF1E08DECC82E8A
:1011E00081E0D82E41E050E021913191E5018991D3
:1011F0005E01863188F590E1883050F091E08E30C4
:1012000008F490E0990F990F990F8E3018F58850D7
:10121000890FA82FA695A695A69509F081C08111E2
:101220001DC030930101209300018A0101C0000F0D
:101230008A95EAF7202F8091FC02802B8093FC0294
:101240008091F902802B8093F90283B18093FF0291
:1012500080E030C08E50DCCF8FEFDBCF813029F4BF
:101260003093030120930201E0CF823009F042C0A5
:10127000309305012093040187708A0101C0000F9B
:101280008A95EAF7202F8A2F90E0BC0164507D4FA9
:10129000EB013881302B3883BC0167507D4FEB0167
:1012A0003881302B3883A13009F454C070F2A23059
:1012B00009F493C0B0E0A559BF4F9C91292B2C9302
:1012C000909168009A0101C0220F8A95EAF7892F50
:1012D000822B80936800CE16DF0609F085CFDF9160
:1012E000CF911F910F91FF90EF90DF90CF90BF9023
:1012F000AF900895833029F43093070120930601BD
:10130000BBCF843029F43093090120930801B4CF76
:10131000853009F08ACF30930B0120930A01ACCFBE
:10132000A13009F040C08830D9F430930D012093EA
:101330000C0187708A0101C0000F8A95EAF7202FFF
:101340008091FD02802B8093FD028091FA02802B18
:101350008093FA0286B18093000381E090E0AACFE7
:10136000893029F430930F0120930E01E2CF8A30A7
:1013700029F43093110120931001DBCF8B3029F435
:10138000309313012093120177CF8C3029F43093DE
:1013900015012093140170CF8D3059F63093170149
:1013A0002093160169CFA23009F095CF8031D9F48E
:1013B000309321012093200187708A0101C0000F22
:1013C0008A95EAF7202F8091FE02802B8093FE02FF
:1013D0008091FB02802B8093FB0289B180930103F3
:1013E00082E090E067CF813129F43093230120938C
:1013F0002201E2CF823129F4309325012093240188
:10140000DBCF833129F43093270120932601D4CFF9
:10141000843129F43093190120931801CDCF8531FF
:1014200029F430931B0120931A0126CF863129F429
:1014300030931D0120931C011FCF873109F0BCCFD1
:1014400030931F0120931E0117CFCF92DF92EF92AE
:10145000FF920F931F93CF93DF93C82FD0E0FE012D
:10146000E85DFE4F80810E947C048E01000F111FF9
:10147000000F111F0197E1F40E942405F801EE57B7
:10148000FC4F60837183828393830E947C05609309
:101490009203709393038093940390939503DF9149
:1014A000CF911F910F91FF90EF90DF90CF90089513
:1014B0000E9424050E571C4FF801C080D180E280A5
:1014C000F3806C197D098E099F0961377141814054
:1014D000910528F70E942405F801008111812281DD
:1014E0003381601B710B820B930B8B019C01055F99
:1014F0001140210931090F3C17402105310578F6CB
:10150000683E23E072077CF0613D47E0740714F009
:1015100060ED77E06C5D7540CC0FDD1FC658DC4F89
:1015200079836883BCCF6CE07EEFF6CF83E00C94C8
:10153000250A82E00C94250A80E00C94250A81E0BB
:101540000C94250AFC0101900020E9F73197AF01C6
:10155000481B590BBC0182EF93E00C9488058F92D5
:101560009F92AF92BF920F931F93CF93DF93CDB70C
:10157000DEB7A1970FB6F894DEBF0FBECDBF19A29C
:10158000423008F44AE08E010F5D1F4F842E912CEB
:10159000B12CA12CA50194010E94CF36E62FB901F0
:1015A000CA01EA30F4F4E05DD801EE938D01232BFB
:1015B000242B252B79F790E080E0109719F0CD01CE
:1015C0000E94A20AA1960FB6F894DEBF0FBECDBF4F
:1015D000DF91CF911F910F91BF90AF909F908F900F
:1015E0000895E95CE1CFCF92DF92EF92FF92CF9323
:1015F000DF936B017C016DE282EF93E00E9428068D
:10160000EC0166277727CB016C197D098E099F09AC
:101610004AE00E94AF0A8C0F9D1FDF91CF91FF908F
:10162000EF90DF90CF900895009711F00C94A20AEC
:1016300090E080E00895CF93DF930E947506EC015F
:1016400084E692E00E94A20A8C0F9D1FDF91CF9149
:101650000895CF93DF930E94A20AEC0184E692E002
:101660000E94A20A8C0F9D1FDF91CF9108950F93C6
:101670001F93CF938C01C62F80919803909199036B
:10168000039690939903809398038DEE92E00E94C5
:10169000140BC8010E94750620919803309199039C
:1016A000820F931F909399038093980387E692E0AB
:1016B0000E94140B8AE692E0C11102C081E792E019
:1016C0000E94A20A2091980330919903820F931FE0
:1016D0009093990380939803CF911F910F91089550
:1016E0000F931F93CF93DF938C01EB0180919803AD
:1016F00090919903059690939903809398038DEEAA
:1017000092E00E94140BC8010E9475062091980374
:1017100030919903820F931F9093990380939803BC
:1017200087E692E00E94140BBE01DD0F880B990B37
:1017300097FF14C00E94F30A2091980330919903F7
:10174000820F931F909399038093980387ED92E003
:10175000DF91CF911F910F910C94140B4AE00E94DE
:10176000AF0AEACFBC01990F880B990B97FD0C9437
:10177000F30A4AE00C94AF0A4F925F926F927F9205
:101780008F929F92AF92BF92CF92DF92EF92FF9291
:101790000F931F93CF936B017C01742EAC019B01BF
:1017A0000E941A38882399F089E792E0CF911F911F
:1017B0000F91FF90EF90DF90CF90BF90AF909F90F0
:1017C0008F907F906F905F904F900C94A20A46018B
:1017D0005701E894B7F82FEF3FEF4FE75FE7C501F8
:1017E000B4010E941A3881110DC02FEF3FEF4FE76F
:1017F0005FE7C501B4010E94503518161CF48DE74F
:1018000092E0D4CF2FEF3FEF4FE75FE4C701B6017F
:101810000E94153818161CF481E892E0C7CF2FEF0C
:101820003FEF4FE75FECC701B6010E94503587FDDF
:10183000F3CF20E030E0A901C701B6010E94503586
:1018400010E000E087FF0AC06DE282EF93E00E94A3
:1018500028068C01F7FAF094F7F8F094C0E060E005
:1018600070E080E09FE37C1641F020E030E040E251
:1018700051E40E946D37CF5FF6CFA70196010E9419
:1018800001372B013C010E94E6374B015C014AE025
:101890000E94AF0A7C01E00EF11ECC23C1F1C5010C
:1018A000B4010E9455359B01AC01C301B2010E94F5
:1018B00000374B015C016EE282EF93E00E94280644
:1018C000E80EF91EC15018F120E030E040E251E48A
:1018D000C501B4010E94B6352B013C010E94E637D8
:1018E0004B01B12CA12C4AE0C501B4010E94AF0A02
:1018F000E80EF91EC501B4010E9455359B01AC01EB
:10190000C301B2010E9400374B015C01DBCFC7016C
:10191000CF911F910F91FF90EF90DF90CF90BF90EC
:10192000AF909F908F907F906F905F904F900895B1
:10193000CF92DF92EF92FF92CF93DF93EC016A0197
:101940007B01809198039091990305969093990358
:10195000809398038DEE92E00E94140BCE010E94BA
:1019600075062091980330919903820F931F9093ED
:1019700099038093980387E692E00E94140B44E059
:10198000C701B6010E94BC0B2091980330919903C6
:10199000820F931F909399038093980387ED92E0B1
:1019A0000E94140B82EF93E0DF91CF91FF90EF90B4
:1019B000DF90CF900C9490060F931F93CF93DF93FB
:1019C00082E090E090939903809398038AEF93E0EC
:1019D0000E94750666E170E08FED93E00E94700B47
:1019E0006091BD017091BE0181ED93E00E94700B8A
:1019F0006091BB017091BC0180EC93E00E94700B80
:101A00006091B9017091BA0183EB93E00E94700B71
:101A10006091BF017091C00188EA93E00E94700B51
:101A20006091B5017091B6018DE993E00E94700B51
:101A30006091B3017091B4018CE893E00E94700B47
:101A40006091B1017091B2018FE793E00E94700B39
:101A50006091B7017091B80184E793E00E94700B28
:101A60004091500150915101609152017091530188
:101A70008FE593E00E94980C4091540150915501DC
:101A800060915601709157018AE493E00E94980C8E
:101A9000409158015091590160915A0170915B0138
:101AA00084E393E00E94980C40915C0150915D01A9
:101AB00060915E0170915F018EE193E00E94980C4D
:101AC00040914701509148016091490170914A014C
:101AD00089E093E00E94980C40914B0150914C0199
:101AE00060914D0170914E0184EF92E00E94980C3C
:101AF000409168015091690160916A0170916B0198
:101B000084EE92E00E94980C40916C0150916D011E
:101B100060916E0170916F0183ED92E00E94980CCC
:101B20004091700150917101609172017091730147
:101B300088EC92E00E94980C409160015091610104
:101B400060916201709163018EEA92E00E94980CAC
:101B50004091640150916501609166017091670147
:101B600088EA92E00E94980C6091BE038DE296E0B4
:101B70000E94370B609138017091390186E992E03B
:101B80000E94700B60913A0170913B0186E892E0EF
:101B90000E94700B60913C0170913D0186E792E0DC
:101BA0000E94700B60913E0170913F0183E692E0CC
:101BB0000E94700B609140017091410182E592E0BA
:101BC0000E94700B609142017091430181E492E0A8
:101BD0000E94700B6091C7038EE196E00E94370B64
:101BE00060917601709177018DE292E00E94700B16
:101BF0006091C5037091C60389E192E00E94700B69
:101C000060914F0187E096E00E94370B609174016C
:101C1000709175018AE092E00E94700B6091C3019F
:101C20007091C40180E092E00E94700B6091C1014C
:101C30007091C20186EF91E00E94700B60912E01BD
:101C400070E08DEE95E00E94700B60912D0170E0C8
:101C500082ED95E00E94700B60912C018DEB95E078
:101C60000E94370B609134017091350185EE91E04F
:101C70000E94700B609132017091330183ED91E00D
:101C80000E94700B609130017091310186EA95E0FD
:101C90000E94700B6091A40370E082EA95E00E94BC
:101CA000700B609136017091370183EC91E00E94D6
:101CB000700B6091D8038FE895E00E94370B60911C
:101CC000D3038BE795E00E94370B6091B00170E081
:101CD00087E695E00E94700B6091D70387E795E057
:101CE0000E94370B6091D60382E695E00E94370B85
:101CF0006091D20385ED94E00E94370B6091AF01B3
:101D000070E080E595E00E94700BC9E7D1E001E04A
:101D100010E084EB91E00E947B07C8010E94B20BA7
:101D20002091980330919903820F931F9093990308
:101D30008093980380EB91E00E947B07688170E0BC
:101D400090E080E04AE00E94AF0A20919803309131
:101D50009903820F931F90939903809398038EEABF
:101D600091E00E947B0769817A818B819C8144E0AC
:101D70000E94BC0B2091980330919903820F931F0E
:101D800090939903809398038CEA91E00E947B07DB
:101D90006D817E818F81988544E00E94BC0B2091EB
:101DA000980330919903820F931F90939903809326
:101DB000980389EA91E00E947B070F5F1F4F2996E5
:101DC0000730110509F0A5CF6091C80381E195E0C6
:101DD0000E94370B6091780170E089EF94E00E94D7
:101DE000700B6091960386EF94E00E94370B609130
:101DF000280170E08EEE94E00E94700B6091290142
:101E000070E082EF94E00E94700B60912A0170E014
:101E10008AEE94E00E94700B60912B0170E086EED8
:101E200094E00E94700B6091780382EE94E00E942F
:101E3000370B6091790370E08FED94E00E94700B96
:101E4000609197038BED94E00E94370B60912F0116
:101E500070E088ED94E00E94700B6091B30381ED17
:101E600094E00E94370B6091440170E08EEC94E0A6
:101E70000E94700B6091B2038AEC94E00E94370BD1
:101E80006091B10386EC94E00E94370B6091B5033A
:101E900082EC94E00E94370B6091460170E08FEB7A
:101EA00094E00E94700B6091450170E08CEB94E02F
:101EB0000E94700B6091B40388EB94E00E94370B92
:101EC0008DE991E00E947B0780919803909199039E
:101ED00004960E94B20B8BED92E0DF91CF911F919F
:101EE0000F910C94290B0C947F36CF92DF92EF92D6
:101EF000FF920F931F93CF93DF93EC018B01C09060
:101F0000F402D090F502E090F602F090F702FB01A7
:101F10006081888199810E94730F88819981F8017D
:101F2000608193950E94730F88819981F801608187
:101F30009E5F0E94730FF8014081C701B6010E94A5
:101F40004407288139812F5F3F4F3983288360936D
:101F5000F4027093F5028093F6029093F702DF91FA
:101F6000CF911F910F91FF90EF90DF90CF90089548
:101F7000AF92BF92CF92DF92EF92FF920F931F9397
:101F8000CF93DF938C01EB01C090F402D090F50267
:101F9000E090F602F090F7025B0184E0A80EB11C1D
:101FA0006881F801808191810E94730FF80180811E
:101FB0009181688193950E94730FF80180819181CE
:101FC00068819E5F0E94730F4991C701B6010E940C
:101FD00044076B017C01F801808191810196918316
:101FE0008083AC16BD06E1F6C092F402D092F502F1
:101FF000E092F602F092F702DF91CF911F910F91DC
:10200000FF90EF90DF90CF90BF90AF900895AF9288
:10201000BF92CF92DF92EF92FF920F931F93CF93D5
:10202000DF938C01EB01C090F402D090F502E090B8
:10203000F602F090F7025B0182E0A80EB11C688105
:10204000F801808191810E94730FF8018081918154
:10205000688193950E94730FF80180819181688156
:102060009E5F0E94730F4991C701B6010E94440709
:102070006B017C01F80180819181019691838083BD
:10208000AC16BD06E1F6C092F402D092F502E092E1
:10209000F602F092F702DF91CF911F910F91FF901E
:1020A000EF90DF90CF90BF90AF900895CF92DF92E6
:1020B000EF92FF920F931F93CF93DF93EC018B016D
:1020C000C090F402D090F502E090F602F090F70292
:1020D000FB016081888199810E94730F88819981B9
:1020E000F801608193950E94730F88819981F801AE
:1020F00060819E5F0E94730FF8014081C701B601A5
:102100000E944407288139812F5F3F4F39832883FC
:102110006093F4027093F5028093F6029093F702B5
:10212000DF91CF911F910F91FF90EF90DF90CF90B3
:102130000895CF92DF92EF92FF920F931F93CF9368
:10214000DF9300D0CDB7DEB781E090E09A8389833A
:102150001092F4021092F5021092F6021092F70219
:102160006DEB71E0CE0101960E9407106BEB71E000
:10217000CE0101960E94071069EB71E0CE01019635
:102180000E9407106FEB71E0CE0101960E940710CC
:1021900065EB71E0CE0101960E94071063EB71E0E0
:1021A000CE0101960E94071061EB71E0CE0101960D
:1021B0000E94071067EB71E0CE0101960E940710A4
:1021C00060E571E0CE0101960E94B80F64E571E010
:1021D000CE0101960E94B80F68E571E0CE0101962C
:1021E0000E94B80F6CE571E0CE0101960E94B80F15
:1021F00067E471E0CE0101960E94B80F6BE471E0D4
:10220000CE0101960E94B80F68E671E0CE010196FA
:102210000E94B80F6CE671E0CE0101960E94B80FE3
:1022200060E771E0CE0101960E94B80F60E671E0B0
:10223000CE0101960E94B80F64E671E0CE010196CE
:102240000E94B80F6EEB73E0CE0101960E94750FED
:1022500068E371E0CE0101960E9407106AE371E025
:10226000CE0101960E9407106CE371E0CE01019649
:102270000E9407106EE371E0CE0101960E940710E4
:1022800060E471E0CE0101960E94071062E471E003
:10229000CE0101960E94071067EC73E0CE01019613
:1022A0000E94750F66E771E0CE0101960E9407104B
:1022B00065EC73E0CE0101960E9407106FE471E0B7
:1022C000CE0101960E94750F64E771E0CE01019680
:1022D0000E94071063EC71E0CE0101960E94071086
:1022E00061EC71E0CE0101960E9407106EE271E090
:1022F000CE0101960E9456106DE271E0CE0101966A
:102300000E9456106CE271E0CE0101960E94750F9A
:1023100064E371E0CE0101960E94071062E371E070
:10232000CE0101960E94071060E371E0CE01019694
:102330000E94071064EA73E0CE0101960E945610D5
:1023400066E371E0CE0101960E94071068ED73E02C
:10235000CE0101960E94750F63ED73E0CE010196E8
:102360000E94750F67ED73E0CE0101960E94750F14
:1023700060EB71E0CE0101960E94561066ED73E0AD
:10238000CE0101960E94750F6FEA71E0CE010196B1
:102390000E945610C090F402D090F502E090F60230
:1023A000F090F70209E711E0F801608189819A81D4
:1023B0000E94730F89819A81F801608193950E9430
:1023C000730F89819A81F80160819E5F0E94730F6B
:1023D000F80141918F01C701B6010E9444076B01CA
:1023E0007C0189819A8101969A838983F1E00F3A71
:1023F0001F07D1F6C092F402D092F502E092F602E5
:10240000F092F70268EC73E0CE0101960E94750F1E
:1024100068E771E0CE0101960E94561063EB73E00D
:10242000CE0101960E94750F64E471E0CE01019621
:102430000E94561062EB73E0CE0101960E94750F68
:1024400061EB73E0CE0101960E94750F65EB73E0BE
:10245000CE0101960E94750F66E471E0CE010196EF
:102460000E94561065E471E0CE0101960E9456105C
:1024700064EB73E0CE0101960E94750F66E973E08C
:10248000CE0101960E94750F69E271E0CE010196BE
:102490000E94561068E271E0CE0101960E9456102B
:1024A0006BE271E0CE0101960E9456106AE271E083
:1024B000CE0101960E94561068E773E0CE010196A6
:1024C0000E94750F69E773E0CE0101960E945610D5
:1024D00067E973E0CE0101960E94750F6FE271E02B
:1024E000CE0101960E94561062ED73E0CE01019676
:1024F0000E94750FC090F402D090F502E090F602B1
:10250000F090F70204EF12E0F801608189819A816E
:102510000E94730F89819A81F801608193950E94CE
:10252000730F89819A81F80160819E5F0E94730F09
:10253000F80141918F01C701B6010E9444076B0168
:102540007C0189819A8101969A838983F2E0083F10
:102550001F07D1F6C092F402D092F502E092F60283
:10256000F092F7020F900F90DF91CF911F910F9192
:10257000FF90EF90DF90CF9008950C947736CF9234
:10258000DF92EF92FF920F931F93CF93DF938C0113
:102590007B01FC01C080D180C6010E94BD12C82F02
:1025A000C60193950E94BD12D82FC6019E5F0E945E
:1025B000BD12CD1327C0C81325C0F701C083609199
:1025C000F4027091F5028091F6029091F702F70102
:1025D00040810E9444076093F4027093F502809357
:1025E000F6029093F702F801808191810196918320
:1025F0008083DF91CF911F910F91FF90EF90DF903B
:10260000CF9008956C2F682B6D23C8236C2BF70196
:102610006083F801808191810E94730FF8018081AD
:102620009181F701608193950E94730FF801808179
:102630009181F70160819E5F0E94730F61E08DE0E0
:102640000E94D30460E08DE00E94A50464E670E07F
:1026500080E090E00E94490561E08DE00E94A504C1
:1026600062E370E080E090E00E944905A895A7CF62
:10267000AF92BF92CF92DF92EF92FF920F931F9390
:10268000CF93DF937C01EB016B0184E0C80ED11C7A
:10269000F701A080B180C5010E94BD12182FC501AD
:1026A00093950E94BD12082FC5019E5F0E94BD1226
:1026B00010132AC0181328C018836091F402709177
:1026C000F5028091F6029091F70249910E94440729
:1026D0006093F4027093F5028093F6029093F702F0
:1026E000F70180819181019691838083CC15DD056E
:1026F00079F6DF91CF911F910F91FF90EF90DF90CE
:10270000CF90BF90AF900895612F682B602318235E
:10271000612B6883F701808191810E94730FF7011B
:1027200080819181688193950E94730FF701808168
:10273000918168819E5F0E94730F61E08DE00E942D
:10274000D30460E08DE00E94A50464E670E080E0C0
:1027500090E00E94490561E08DE00E94A50462E3DB
:1027600070E080E090E00E944905A895A6CFAF9266
:10277000BF92CF92DF92EF92FF920F931F93CF936E
:10278000DF937C01EB016B0182E0C80ED11CF701E5
:10279000A080B180C5010E94BD12182FC50193957C
:1027A0000E94BD12082FC5019E5F0E94BD1210132A
:1027B0002AC0181328C018836091F4027091F502A2
:1027C0008091F6029091F70249910E94440760932C
:1027D000F4027093F5028093F6029093F702F701EA
:1027E00080819181019691838083CC15DD0579F6F6
:1027F000DF91CF911F910F91FF90EF90DF90CF90DD
:10280000BF90AF900895612F682B60231823612B30
:102810006883F701808191810E94730FF7018081A5
:102820009181688193950E94730FF7018081918156
:1028300068819E5F0E94730F61E08DE00E94D30467
:1028400060E08DE00E94A50464E670E080E090E026
:102850000E94490561E08DE00E94A50462E370E0FA
:1028600080E090E00E944905A895A6CFCF92DF9224
:10287000EF92FF920F931F93CF93DF938C017B0115
:10288000FC01C080D180C6010E94BD12C82FC601C4
:1028900093950E94BD12D82FC6019E5F0E94BD1263
:1028A000CD1327C0C81325C0F701C0836091F4027F
:1028B0007091F5028091F6029091F702F701408144
:1028C0000E9444076093F4027093F5028093F6022D
:1028D0009093F702F8018081918101969183808322
:1028E000DF91CF911F910F91FF90EF90DF90CF90EC
:1028F00008956C2F682B6D23C8236C2BF701608320
:10290000F801808191810E94730FF801808191818B
:10291000F701608193950E94730FF8018081918186
:10292000F70160819E5F0E94730F61E08DE00E945D
:10293000D30460E08DE00E94A50464E670E080E0CE
:1029400090E00E94490561E08DE00E94A50462E3E9
:1029500070E080E090E00E944905A895A7CF4F92D3
:102960005F926F927F929F92AF92BF92CF92DF92CF
:10297000EF92FF920F931F93CF93DF9300D000D07D
:1029800000D0CDB7DEB781E090E09E838D831092BA
:10299000F4021092F5021092F6021092F7028E01E4
:1029A0000B5F1F4F6DEB71E0C8010E94B7136BEB1B
:1029B00071E0C8010E94B71369EB71E0C8010E9481
:1029C000B7136FEB71E0C8010E94B71365EB71E0BC
:1029D000C8010E94B71363EB71E0C8010E94B713EE
:1029E00061EB71E0C8010E94B71367EB71E0C801A9
:1029F0000E94B71360E571E0C8010E94381364E5D6
:102A000071E0C8010E94381368E571E0C8010E94B6
:102A100038136CE571E0C8010E94381367E471E077
:102A2000C8010E9438136BE471E0C8010E9438139A
:102A300068E671E0C8010E9438136CE671E0C801D5
:102A40000E94381360E771E0C8010E94381360E605
:102A500071E0C8010E94381364E671E0C8010E9469
:102A600038136EEB73E0C8010E94BF1268E371E097
:102A7000C8010E94B7136AE371E0C8010E94B7134E
:102A80006CE371E0C8010E94B7136EE371E0C80106
:102A90000E94B71360E471E0C8010E94B71362E4BA
:102AA00071E0C8010E94B71367EC73E0C8010E948F
:102AB000BF1266E771E0C8010E94B71365EC73E0CE
:102AC000C8010E94B7136FE471E0C8010E94BF12F1
:102AD00064E771E0C8010E94B71363EC71E0C801BC
:102AE0000E94B71361EC71E0C8010E94B7136EE257
:102AF00071E0C8010E9436146DE271E0C8010E94C5
:102B000036146CE271E0C8010E94BF1264E371E008
:102B1000C8010E94B71362E371E0C8010E94B713B5
:102B200060E371E0C8010E94B71364EA73E0C80172
:102B30000E94361466E371E0C8010E94B71368ED85
:102B400073E0C8010E94BF1263ED73E0C8010E94E8
:102B5000BF1267ED73E0C8010E94BF1260EB71E025
:102B6000C8010E94361466ED73E0C8010E94BF12CE
:102B70006FEA71E0C8010E94361449E7E42E41E093
:102B8000F42EAD80BE80C5010E94BD12D82EC501B5
:102B900093950E94BD12C82EC5019E5F0E94BD1272
:102BA000DC1059C1D81257C1F701D0826091F402EC
:102BB0007091F5028091F6029091F702F701419130
:102BC0007F010E9444076093F4027093F5028093A2
:102BD000F6029093F7028D819E8101969E838D83EC
:102BE000FFEAEF16F1E0FF0661F668EC73E0C8015A
:102BF0000E94BF1268E771E0C8010E94361463EBBF
:102C000073E0C8010E94BF1264E471E0C8010E9431
:102C1000361462EB73E0C8010E94BF1261EB73E0EF
:102C2000C8010E94BF1265EB73E0C8010E94BF1289
:102C300066E471E0C8010E94361465E471E0C801E1
:102C40000E94361464EB73E0C8010E94BF1266E96B
:102C500073E0C8010E94BF1269E271E0C8010E94DE
:102C6000361468E271E0C8010E9436146BE271E02C
:102C7000C8010E9436146AE271E0C8010E9436144D
:102C800068E773E0C8010E94BF1269E773E0C801FA
:102C90000E94361467E973E0C8010E94BF126FE218
:102CA00071E0C8010E94361462ED73E0C8010E9411
:102CB000BF124090F4025090F5026090F6027090BE
:102CC000F70219821A821B821C82CE0101966C01C6
:102CD000AD80BE80C5010E94BD12E82EC50193954E
:102CE0000E94BD12982EC5019E5F0E94BD12E91080
:102CF000E4C0E812E2C0F601E0826091F402709153
:102D0000F5028091F6029091F702F60141916F0170
:102D10000E9444076093F4027093F5028093F602D8
:102D20009093F7028D819E8101969E838D83C016BC
:102D3000D10671F689819A81AB81BC818415950594
:102D4000A605B70509F4EAC062E370E080E090E010
:102D50000E94490588E194E00E941B0B62E370E049
:102D600080E090E00E944905E091B7048E2F90E04A
:102D7000FC01EE0FFF1FE80FF91FE157FB4F8081A9
:102D800086FF02C08F7B8083E091B4048E2F90E099
:102D9000FC01EE0FFF1FE80FF91FE157FB4F808189
:102DA00086FF02C08F7B808364E670E080E090E065
:102DB0000E94490512E060E0812F0E94D3041F5F4A
:102DC0001536C9F761E08DE00E94D30462E370E03C
:102DD00080E090E00E9449050FB6F894A895809194
:102DE0006000886180936000109260000FBE8CEFDD
:102DF00093E00E941B0B10E088EC90E003E06C0174
:102E0000990FEE08FF0861E08DE00E94A504C7015C
:102E1000B6010E94490560E08DE00E94A50468ECBF
:102E200070E080E090E00E944905015061F768E79A
:102E300075E080E090E0123021F060E971E080E020
:102E400090E00E9449051F5F133089F21130A1F60E
:102E500088E592E0D3CF6D2D682B6C21D8226D29A7
:102E6000F7016083C5010E94730F8D819E81F70178
:102E7000608193950E94730F8D819E81F70160811F
:102E80009E5F0E94730F61E08DE00E94D30460E0BA
:102E90008DE00E94A50464E670E080E090E00E946E
:102EA000490561E08DE00E94A50462E370E080E0E6
:102EB00090E00E944905A89579CEFE2CF82AF920C9
:102EC000E822FE28F601F0826F2DC5010E94730FE3
:102ED0008D819E816F2D93950E94730F8D819E81B0
:102EE0006F2D9E5F0E94730F61E08DE00E94D304FE
:102EF00060E08DE00E94A50464E670E080E090E070
:102F00000E94490561E08DE00E94A50462E370E043
:102F100080E090E00E944905A895EFCE26960FB676
:102F2000F894DEBF0FBECDBFDF91CF911F910F91FF
:102F3000FF90EF90DF90CF90BF90AF909F907F90E9
:102F40006F905F904F9008959F938F9385E892E0E4
:102F50009F938F9380E293E09F938F930E945E38BC
:102F60000F900F900F900F900F900F90089568E8BA
:102F700072E0811102C06DE872E080E293E00C948F
:102F800057381F920F920FB60F9211242F933F9331
:102F90008F939F93AF93BF938091EA039091EB033C
:102FA000A091EC03B091ED033091E90323E0230FEE
:102FB0002D3758F50196A11DB11D2093E90380938B
:102FC000EA039093EB03A093EC03B093ED0380919D
:102FD000EE039091EF03A091F003B091F1030196FD
:102FE000A11DB11D8093EE039093EF03A093F00316
:102FF000B093F103BF91AF919F918F913F912F912A
:103000000F900FBE0F901F90189526E8230F029681
:10301000A11DB11DD2CF1F920F920FB60F92112496
:103020002F933F934F935F936F937F938F939F93D0
:10303000AF93BF93EF93FF9382EF93E00E94060656
:10304000FF91EF91BF91AF919F918F917F916F9180
:103050005F914F913F912F910F900FBE0F901F9056
:1030600018951F920F920FB60F9211242F938F93E2
:103070009F93EF93FF93E0910204F091030480810A
:10308000E0910804F091090482FD1BC090818091B9
:103090000B048F5F8F7320910C04821741F0E09135
:1030A0000B04F0E0EE50FC4F958F80930B04FF91E2
:1030B000EF919F918F912F910F900FBE0F901F90C6
:1030C00018958081F4CF1F920F920FB60F921124A2
:1030D0002F933F934F935F936F937F938F939F9320
:1030E000AF93BF93CF93EF93FF9399B18091010377
:1030F000C091FE02C923282F2095C2232091FB02F4
:103100008223292F20958223C82B90930103C4FF8B
:1031100005C0E0911801F09119010995C5FF05C09E
:10312000E0911A01F0911B010995C6FF05C0E091DD
:103130001C01F0911D010995C7FF05C0E0911E011A
:10314000F0911F010995C0FF05C0E0912001F091A9
:1031500021010995C1FF05C0E0912201F0912301F1
:103160000995C2FF05C0E0912401F0912501099560
:10317000C3FF05C0E0912601F09127010995FF9159
:10318000EF91CF91BF91AF919F918F917F916F916F
:103190005F914F913F912F910F900FBE0F901F9015
:1031A00018951F920F920FB60F9211242F933F93F1
:1031B0004F935F936F937F938F939F93AF93BF933F
:1031C000CF93EF93FF9396B180910003C091FD02DE
:1031D000C923282F2095C2232091FA028223292F68
:1031E00020958223C82B90930003C0FF05C0E09177
:1031F0000C01F0910D010995C1FF05C0E0910E0190
:10320000F0910F010995C2FF05C0E0911001F09106
:1032100011010995C3FF05C0E0911201F09113015E
:103220000995C4FF05C0E0911401F09115010995BD
:10323000C5FF05C0E0911601F09117010995FF91B6
:10324000EF91CF91BF91AF919F918F917F916F91AE
:103250005F914F913F912F910F900FBE0F901F9054
:1032600018951F920F920FB60F9211242F933F9330
:103270004F935F936F937F938F939F93AF93BF937E
:10328000CF93EF93FF9393B18091FF02C091FC0223
:10329000C923282F2095C2232091F9028223292FA8
:1032A00020958223C82B9093FF02C0FF05C0E091B8
:1032B0000001F09101010995C1FF05C0E0910201F3
:1032C000F09103010995C2FF05C0E0910401F0915E
:1032D00005010995C3FF05C0E0910601F0910701C2
:1032E0000995C4FF05C0E0910801F0910901099515
:1032F000C5FF05C0E0910A01F0910B010995FF910E
:10330000EF91CF91BF91AF919F918F917F916F91ED
:103310005F914F913F912F910F900FBE0F901F9093
:1033200018951F920F920FB60F9211242F933F936F
:103330004F935F936F937F938F939F93AF93BF93BD
:10334000CF93DF93EF93FF938091F802C091B30482
:10335000D0E087FF24C010928500109284008091F5
:10336000F8028F5F8093F8028091F802082E000C1B
:10337000990B8C179D0724F48091F8028C30C4F1CE
:103380008091840090918500049680349C4908F4D3
:103390007AC08091840090918500049676C08091D7
:1033A000F802082E000C990B8C179D07C4F6E091CB
:1033B000F8028E2FEE0F990BFC01EE0FFF1FE80FA6
:1033C000F91FE157FB4F808186FFC9CFE091F802DA
:1033D0008E2FEE0F990BFC01EE0FFF1FE80FF91F68
:1033E000E157FB4F808160E08F730E94A504B7CF47
:1033F0002091840030918500E091F8028E2FEE0F2D
:10340000990BFC01EE0FFF1FE80FF91FE157FB4F6F
:1034100081819281820F931F90938900809388000D
:10342000E091F8028E2FEE0F990BFC01EE0FFF1FBB
:10343000E80FF91FE157FB4F808186FF11C0E09133
:10344000F8028E2FEE0F990BFC01EE0FFF1FE80F15
:10345000F91FE157FB4F808161E08F730E94A50443
:10346000FF91EF91DF91CF91BF91AF919F918F919C
:103470007F916F915F914F913F912F910F900FBE70
:103480000F901F90189580E49CE990938900809399
:1034900088008FEF8093F802E3CF1F920F920FB650
:1034A0000F9211242F933F934F935F936F937F93CA
:1034B0008F939F93AF93BF93EF93FF93A895F0E003
:1034C000E0E00995FF91EF91BF91AF919F918F91AE
:1034D0007F916F915F914F913F912F910F900FBE10
:1034E0000F901F901895FF920F931F93CF93DF9328
:1034F000A8E2B1E06CE271E041E050E020EB36E0A0
:103500008D91863108F057C090E1883058F091E0F5
:103510008E3008F490E0990F990F990F8E3008F0D3
:1035200048C08850890F982F969596959695C82FE4
:10353000C770911166C0811140C030930101209382
:103540000001E92FF0E08A0102C0000F111FCA95A7
:10355000E2F7F02EF0948F0104501D4FE8018881AE
:103560008F2188838F0107501D4FE80188818F21AB
:103570008883E559FF4F8081CF2DC823C083808188
:1035800081110DC0E09168008A0102C0000F111F77
:103590009A95E2F7C80180958E23809368006A1798
:1035A0007B0709F0ADCFDF91CF911F910F91FF9075
:1035B00008958E50B7CF8FEFB6CF813029F4309376
:1035C000030120930201BDCF823029F4309305011D
:1035D00020930401B6CF833029F430930701209360
:1035E0000601AFCF843029F43093090120930801FC
:1035F000A8CF853009F0A5CF30930B0120930A01A5
:10360000A0CF913059F5883029F430930D012093E3
:103610000C0197CF893029F430930F0120930E01CC
:1036200090CF8A3029F4309311012093100189CF73
:103630008B3029F4309313012093120182CF8C3008
:1036400029F430931501209314017BCF8D3009F0BC
:1036500078CF309317012093160173CF923009F081
:103660009ECF803129F4309321012093200169CF2E
:10367000813129F4309323012093220162CF8231DA
:1036800029F430932501209324015BCF833129F461
:10369000309327012093260154CF843129F43093AD
:1036A0001901209318014DCF853129F430931B0166
:1036B00020931A0146CF863129F430931D012093BF
:1036C0001C013FCF873109F03CCF30931F0120937D
:1036D0001E0137CF1092F5031092F40388EE93E0A9
:1036E000A0E0B0E08093F6039093F703A093F80373
:1036F000B093F90386E592E09093F3038093F2038D
:1037000085EC90E09093FF038093FE0384EC90E0BF
:10371000909301048093000480EC90E09093030464
:103720008093020481EC90E090930504809304045C
:1037300082EC90E0909307048093060486EC90E07E
:10374000909309048093080410920B0410920C04C7
:1037500010920D0410920E048091B3048C3048F541
:1037600091E0980F9093B3048093B70490E0FC012C
:10377000EE0FFF1FE80FF91FE157FB4F88EB9BE0AF
:10378000928381838091B3048C30B8F491E0980FD8
:103790009093B3048093B40490E0FC01EE0FFF1FFC
:1037A000E80FF91FE157FB4F88EB9BE09283818381
:1037B00008958FEF8093B704E5CF8FEF8093B40423
:1037C0000895CF93DF93CDB7DEB7E3970FB6F894A4
:1037D000DEBF0FBECDBF789484B5826084BD84B552
:1037E000816084BD85B5826085BD85B5816085BDFC
:1037F00080916E00816080936E00109281008091B4
:10380000810082608093810080918100816080933B
:103810008100809180008160809380008091B10060
:1038200084608093B1008091B00081608093B0008B
:1038300080917A00846080937A0080917A0082601F
:1038400080937A0080917A00816080937A008091E1
:103850007A00806880937A001092C10061E08DE068
:103860000E94D30461E08DE00E94A504E09102046F
:10387000F091030482E08083E091FE03F091FF0366
:103880001082E0910004F091010487E0808310929F
:103890000A04E0910604F091070486E08083E09139
:1038A0000404F0910504808180618083E091040428
:1038B000F0910504808188608083E0910404F09198
:1038C0000504808180688083E0910404F091050400
:1038D00080818F7D808384E692E00E94A20A62E369
:1038E00070E080E090E00E94490560E08DE00E9479
:1038F000A504F894A8958091600088618093600089
:1039000087E480936000789480E092E09093E403F1
:103910008093E3039093E2038093E1031092D90331
:103920001092DA031092DB031092DC031092DD0395
:103930001092DE031092DF031092E0031092BA039C
:103940001092BB031092BC031092BD031092B603F9
:103950001092B7031092B8031092B9031092C903E2
:103960001092CA031092CB031092CC031092CD0395
:103970001092CE031092CF031092D0038FEF9FEFDF
:103980009093C4038093C30380E090E0A0E8BFE37A
:103990008093BF039093C003A093C103B093C2036D
:1039A0001092E5031092E6031092E7031092E803E9
:1039B00010929A0310929B0310929C0310929D0305
:1039C00081E080939E031092D1031092A90310927C
:1039D000AA031092AB031092AC031A821982BE01A3
:1039E0006F5E7F4FCE0101960E9436148989863121
:1039F00061F01A8219826DEC71E0CE0101960E948D
:103A000056100E94991010929E030E94AF1480914C
:103A10003801909139019093B0038093AF03809166
:103A20003E0190913F019093AE038093AD0380914E
:103A30002C0180939F0368E770E080E090E00E9493
:103A400049050E94DC0C6AEF70E080E090E00E9483
:103A500049050E94DC0C60E08091C3010E94D30400
:103A600060E08091C1010E94D30460E08091740104
:103A70000E94D3048091D8038823D1F08091D3038E
:103A8000882329F062E08091B0010E94D30410E005
:103A900009E08091AF01181758F4019FF00111243B
:103AA000E758FE4F62E080810E94D3041F5FF1CF90
:103AB0008091C803882329F062E0809178010E94F8
:103AC000D3040E94C60880919703882329F062E0FE
:103AD00080912F010E94D3048091B303882329F0A1
:103AE00062E0809144010E94D3048091B503882351
:103AF00051F062E0809146010E94D30462E080911F
:103B000045010E94D30460912E0170E087EB94E0A0
:103B10000E94E80660912D0170E084EB94E00E9421
:103B2000E806609138017091390187EB94E00E94BA
:103B3000B10660913E0170913F0184EB94E00E94D8
:103B4000B10664E670E080E090E00E944905A89527
:103B500082EF93E00E94C405F82E2FEF821759F1EF
:103B60003CE28313B5C6E0916B03F0E0E15DFC4FEE
:103B7000108210926B0363E972E08FE293E00E947F
:103B800074317C010097B9F066E972E00E944E380A
:103B9000892B39F40E94991080E097E00E941B0B5A
:103BA0000AC06BE972E0C7010E944E38892B09F008
:103BB00019C10E94DC0C8091700381110DC00E941C
:103BC000240560936C0370936D0380936E03909350
:103BD0006F0381E080937003C0906C03D0906D03FD
:103BE000E0906E03F0906F03C114D104E104F1047E
:103BF00009F493C60E9424056C197D098E099F095A
:103C00000E94553520E034E244E759E40E946D37C4
:103C10006B017C010E94240560936C0370936D031B
:103C200080936E0390936F03C092E503D092E603F6
:103C3000E092E703F092E8038091C3010E940F0530
:103C40006C019093E4038093E3038091C1010E948F
:103C50000F057C019093E2038093E1030091BF0183
:103C60001091C0012091BD013091BE014091BB0176
:103C70005091BC016091B9017091BA01C6010E94D6
:103C800088076093DD037093DE038093DF039093D6
:103C9000E0030091B7011091B8012091B501309176
:103CA000B6014091B3015091B4016091B10170919E
:103CB000B201C7010E9488076093D9037093DA03A9
:103CC0008093DB039093DC032091D803222309F433
:103CD00044C68091D703882309F42DC68091B00192
:103CE0000E947C04AC0191E04115510509F490E07B
:103CF0008091D603981311C02091D50327FB22276A
:103D000020F931E0452B09F030E0231306C0809103
:103D1000D40321E082278093D4038091D50390FBC4
:103D200087F98093D5038091D403882309F417C6BB
:103D3000E090D603C090AF018091D203811110C0F2
:103D40001092D9031092DA031092DB031092DC0375
:103D50001092DD031092DE031092DF031092E00355
:103D600009E711E0D12CF12CCD1409F4F8C5D801E4
:103D70008C910E947C048E159F0581F5F8012181AC
:103D80003281438154816091D9037091DA0380912B
:103D9000DB039091DC030E9401376093D903709399
:103DA000DA038093DB039093DC03D80115962D9101
:103DB0003D914D915C9118976091DD037091DE0308
:103DC0008091DF039091E0030E9401376093DD034F
:103DD0007093DE038093DF039093E003D394075F37
:103DE0001F4FC2CF64EA72E0C7010E944E38892B90
:103DF000A1F41A8A198A87E190E09A838983BE0127
:103E00006F5F7F4FCE0141960E94071068E873E113
:103E100080E090E00E944905CECE6BEA72E0C701D7
:103E20000E944E38892B91F362EB72E0C7010E9429
:103E30004E38892B31F481E080939E0381EE96E029
:103E4000ADCE62EA72E0C7010E944E38892BA9F418
:103E500010929E03609138017091390187EB94E0D4
:103E60000E94B10660913E0170913F0184EB94E0A5
:103E70000E94B1068BEC96E091CE63E972E090E08F
:103E800080E00E9474318C01892B09F494CE8FE07C
:103E9000A0E2B3E01D928A95E9F756E2A52E52E022
:103EA000B52ED12CC12C9C2CD501ED91FD915D013D
:103EB000EE0FFF1FEB5BF94F6591749182E093E089
:103EC0000E946D3162E073E0C7010E944E38892B79
:103ED000F9F4F601EE0FFF1FE650FE4FC080D180CF
:103EE000C8010E944631B2E1B91548F0F60191834C
:103EF0008083F601808191810E94A41777C09C0184
:103F00003327D6012D933C9360E00E94D304F1CF78
:103F1000FFEFCF1ADF0A26E1C216D10409F0C3CFA2
:103F200024EEA22E21E0B22ED12CC12C9C2CD50146
:103F3000ED91FD915D01EE0FFF1FEB5BF94F659178
:103F4000749182E093E00E946D3162E073E0C701FA
:103F50000E944E38892B09F07FC0F601EE0FFF1F3B
:103F6000E253FE4FC080D180C8010E9442312B0134
:103F70003C0187EF890D823008F056C0F60140827F
:103F80005182628273828AEF890D833020F5F601B7
:103F900080809180A280B38020E030E0A901C5013B
:103FA000B4010E94503587FD53C020E030E040E866
:103FB0005FE3C501B4010E941538181634F4812C52
:103FC000912C10E8A12E1FE3B12ED6018D929D9267
:103FD000AD92BC921397F6016081718182819381C9
:103FE00000E213E024E040E00E9424318CE894E0F9
:103FF0000E94750687ED92E00E94140B8FE794E013
:104000000E947506C7010E94140B86ED92E00E9483
:10401000140B84E794E00E94750680E293E00E940E
:10402000140B8AED92E0BCC220E030E0A901C3018C
:10403000B2010E941538181624F077FA709477F8B8
:104040007094D6014D925D926D927C9213979BCFA6
:10405000812C912C5401B9CFFFEFCF1ADF0A2BE04E
:10406000C216D10409F062CF6DE276E0C7010E946A
:104070006431892B59F4C8010E94463121E0892B13
:1040800009F420E02093BE03822F52C16EE176E056
:10409000C7010E946431892B51F4C8010E94463146
:1040A00021E0892B09F420E02093C703EDCF67E0DE
:1040B00076E0C7010E946431892B51F4C8010E9447
:1040C000463121E0892B09F420E020934F01DCCF19
:1040D0006DEE75E0C7010E946431892B09F059C06B
:1040E00060913E0170913F0184EB94E00E94B10623
:1040F000E091B4048E2F90E0FC01EE0FFF1FE80F5B
:10410000F91FE157FB4F80818F7B808360913801DD
:104110007091390187EB94E00E94B106E091B704F9
:104120008E2F90E0FC01EE0FFF1FE80FF91FE15703
:10413000FB4F80818F7B8083C8010E944631809332
:104140002E016AE070E080E090E00E9449056091F5
:104150002E0170E087EB94E00E94E8066091380140
:104160007091390187EB94E00E94B10660912D01B6
:1041700070E084EB94E00E94E80660913E0170914B
:104180003F0184EB94E00E94B10680912E0190E003
:10419000B3CE62ED75E0C7010E946431892B09F04E
:1041A00058C0609138017091390187EB94E00E940A
:1041B000B106E091B7048E2F90E0FC01EE0FFF1FD7
:1041C000E80FF91FE157FB4F80818F7B808360915F
:1041D0003E0170913F0184EB94E00E94B106E091B2
:1041E000B4048E2F90E0FC01EE0FFF1FE80FF91FC3
:1041F000E157FB4F80818F7B8083C8010E9446314D
:1042000080932D016AE070E080E090E00E94490513
:1042100060912D0170E084EB94E00E94E8066091CB
:104220003E0170913F0184EB94E00E94B1066091E1
:104230002E0170E087EB94E00E94E806609138015F
:104240007091390187EB94E00E94B10680912D01B5
:104250009ECF6DEB75E0C7010E946431892B51F44C
:10426000C8010E94463121E0892B09F420E0209307
:104270002C010ACF66EA75E0C7010E946431892BE0
:1042800091F4C8010E944631893E33E0930714F04F
:1042900088EE93E097FF02C090E080E090933101B8
:1042A0008093300129CE62EA75E0C7010E94643133
:1042B000892B81F4C8010E94463197FD07C08F3FCA
:1042C000910509F02CF48093A40361CF80E0FBCF2B
:1042D0008FEFF9CF6FE875E0C7010E946431892B39
:1042E00051F5C8010E94463121E0009709F420E011
:1042F0002093D803892BD1F08091D303882329F010
:1043000062E08091B0010E94D30410E08091AF017F
:10431000181760F489E0819FF0011124E758FE4FDF
:1043200062E080810E94D3041F5FF0CF8091D803A8
:104330000E94B7175BCE6BE775E0C7010E9464313E
:10434000892BB9F4C8010E94463121E0009709F495
:1043500020E02093D3032091D803222339F0892B26
:1043600029F062E08091B0010E94D3048091D303D0
:10437000DFCF67E775E0C7010E946431892B51F4F4
:10438000C8010E94463121E0892B09F420E02093E6
:10439000D7037ACE67E675E0C7010E946431892BA6
:1043A00059F4C8010E9446318093B00162E00E9436
:1043B000D3048091B001EBCE62E675E0C7010E94A4
:1043C0006431892B51F4C8010E94463121E0892BC8
:1043D00009F420E02093D60357CE60E575E0C701CD
:1043E0000E946431892B79F5C8010E94463197FDFE
:1043F00023C08730910514F58093AF018091D803D5
:104400008823F1F08091D303882329F062E0809122
:10441000B0010E94D30410E08091AF01181780F41E
:1044200099E0919FF0011124E758FE4F62E08081EE
:104430000E94D3041F5FF0CF80E0DECF86E0DCCFA8
:104440008091AF01A4CE64EB72E0C7010E944E38A8
:10445000892B09F0A8C0C8010E9446315C016C019B
:10446000A1E0CA1AD108B6E0CB16D10408F0A3CB5C
:104470006EEC72E0C8010E9474316EEC72E090E064
:1044800080E00E947431009799F10E94463129E042
:104490002C9DF0012D9DF00D1124E758FE4F8083D7
:1044A0006EEC72E090E080E00E947431009701F1C0
:1044B0000E94423139E03C9D80013D9D100D112448
:1044C00007581E4FD80111966D937D938D939C9341
:1044D00014976EEC72E090E080E00E9474310097D7
:1044E00039F00E944231F801658376838783908793
:1044F000F9E0FC9DC001FD9D900D11249C01275801
:104500003E4F790162E0D9018C910E94D3048CE383
:1045100095E00E94750681ED92E00E94140B8FE2F7
:1045200095E00E94750682EC92E00E94140BC50192
:104530000E94B20B80ED92E00E94140B85E295E0A0
:104540000E947506F701608170E090E080E04AE02B
:104550000E94AF0A81ED92E00E94140BD7011196E0
:104560006D917D918D919C91149700E213E024E070
:1045700040E00E942431C8010E94140B81ED92E0BA
:104580000E94140BF701658176818781908524E074
:1045900040E00E942431C8010E94140B83ED92E098
:1045A0000E94290B08CB61E175E0C7010E946431CC
:1045B000892B99F4C8010E94463121E0009709F443
:1045C00020E02093C803892B29F062E080917801D4
:1045D0000E94D3048091C803ABCE69EF74E0C70199
:1045E0000E946431892B59F4C8010E94463180939E
:1045F000780162E00E94D30480917801C8CD66EF13
:1046000074E0C7010E946431892B99F4C8010E94AB
:10461000463121E0892B09F420E0209396030E9483
:10462000731A8091960381110E94C60880919603A7
:104630007FCE62EF74E0C7010E946431892B61F480
:104640000E94731AC8010E944631809329010E947A
:10465000C608809129019BCD6EEE74E0C7010E94CF
:104660006431892B61F40E94731AC8010E9446319B
:10467000809328010E94C6088091280188CD6AEEA7
:1046800074E0C7010E946431892B61F40E94731A9F
:10469000C8010E94463180932A010E94C608809179
:1046A0002A0175CD66EE74E0C7010E946431892B42
:1046B00061F40E94731AC8010E94463180932B0155
:1046C0000E94C60880912B0162CD62EE74E0C701A2
:1046D0000E946431892B51F4C8010E94463121E0C7
:1046E000892B09F420E020937803CECC6FED74E0A1
:1046F000C7010E946431892B49F4C8010E944631E8
:10470000833008F082E08093790341CD6BED74E053
:10471000C7010E946431892B99F4C8010E94463177
:1047200021E0009709F420E020939703892B29F0DA
:1047300062E080912F010E94D30480919703F8CD0D
:1047400068ED74E0C7010E946431892B59F4C801F7
:104750000E94463180932F0162E00E94D304809131
:104760002F0115CD65ED74E0C7010E946431892BDE
:1047700051F4C8010E94463121E0892B09F420E060
:104780002093D20381CC61ED74E0C7010E946431B3
:10479000892B99F4C8010E94463121E0009709F461
:1047A00020E02093B303892B29F062E0809144013B
:1047B0000E94D3048091B303BBCD6EEC74E0C701BB
:1047C0000E946431892B59F4C8010E9446318093BC
:1047D000440162E00E94D30480914401D8CC6AEC89
:1047E00074E0C7010E946431892B51F4C8010E9412
:1047F000463121E0892B09F420E02093B20344CC18
:1048000066EC74E0C7010E946431892B51F4C80141
:104810000E94463121E0892B09F420E02093B10366
:1048200033CC62EC74E0C7010E946431892BC1F47F
:10483000C8010E94463121E0009709F420E020934E
:10484000B503892B51F062E0809146010E94D304A8
:1048500062E0809145010E94D3048091B50368CD48
:104860006FEB74E0C7010E946431892B59F4C801D1
:104870000E9446318093460162E00E94D3048091F9
:10488000460185CC6CEB74E0C7010E946431892B32
:1048900059F4C8010E9446318093450162E00E94AC
:1048A000D3048091450173CC68EB74E0C7010E948A
:1048B0006431892B51F4C8010E94463121E0892BD3
:1048C00009F420E02093B403DFCB80EA94E066C9CA
:1048D000082F880F110BC8010E943138892B51F421
:1048E00083ED8F0D823030F0FAE3FF1619F02FE5DB
:1048F000F21261C9C8010E94463890916B03E92FFA
:10490000F0E0E15DFC4F808382E0890F8C3308F09A
:1049100052C99F5F90936B034EC90E942405609318
:104920006C0370936D0380936E0390936F03C12C9F
:10493000D12C760179C98091D303882359F08091D5
:10494000B0010E947C043091D60321E0381719068B
:1049500009F020E02093D403E6C91092D40380919B
:10496000D103882309F451C6D09096038091D503D2
:104970008D7F877FDD2009F414C10E947C050091A2
:104980009203109193032091940330919503601B3F
:10499000710B820B930BCC24C39467347105810592
:1049A000910508F0C12CF8948E010F5F1F4FDE01B6
:1049B0005196980190E080E0FC01EE0FFF1FEE0F92
:1049C000FF1FEE57FC4F4081518162817381F901D5
:1049D00041935193619371939F01FC01EE0FFF1F6F
:1049E000E658FC4F408151814D935D930196843090
:1049F000910511F778947801F0E1EF0EF11C0E9417
:104A00002405D8018D909D90AD90BD908D016819C1
:104A100079098A099B09613771418140910508F044
:104A2000C12CE016F10659F7CC2009F4E0C58091BD
:104A3000D50381608093D5032D893E8925363105C4
:104A40000CF447C082608093D5038F89988D85369A
:104A500091050CF444C08091D50384608093D50304
:104A60008B899C89C1968336910510F41C8A1B8A18
:104A700089899A89C1968336910510F41A8A198A10
:104A80008091D50381FF33C06B897C89072E000C90
:104A9000880B990B0E94573520E030E04AEF53E431
:104AA0000E946D376093D9037093DA038093DB0320
:104AB0009093DC0369897A89072E000C880B990B87
:104AC0000E94573520E030E04AEF53E40E946D37F2
:104AD00053C02C393F4F0CF0B8CF8D7FB4CF8C39F9
:104AE0009F4F0CF0BDCF8091D5038B7FB7CF8091C6
:104AF000970381114AC080917903C090D903D09067
:104B0000DA03E090DB03F090DC03813009F015C597
:104B10006B897C89072E000C880B990B0E945735F6
:104B200020E030E04AEF53E40E946D37A701960180
:104B30000E9401376093D9037093DA038093DB03FB
:104B40009093DC0369897A89072E000C880B990BF6
:104B50000E94573520E030E04AEF53E40E946D3761
:104B60009B01AC016091DD037091DE038091DF0356
:104B70009091E0030E9401376093DD037093DE03A0
:104B80008093DF039093E00307C080912F010E9480
:104B90007C04892B09F0AFCF9091D503892F92FB2C
:104BA00083F98093D5038091DD039091DE03A0917A
:104BB000DF03B091E0038093CD039093CE03A093E5
:104BC000CF03B093D0038091D9039091DA03A091E1
:104BD000DB03B091DC038093C9039093CA03A093D5
:104BE000CB03B093CC038091C803882371F08091EC
:104BF00078010E947C04892B41F41092CD0310921D
:104C0000CE031092CF031092D0038091C703882364
:104C100009F402C5E090C503F090C603C090760188
:104C2000D0907701809174010E940F058C019093C0
:104C3000C4038093C303B601DD0C880B990B0E945B
:104C400057354B015C01B801110F880B990B0E947D
:104C50005735A50194010E9400372B013C01B70193
:104C6000FF0C880B990B0E945735A50194010E94F7
:104C700000379B01AC01C301B2010E946D3720E0F7
:104C800030E0A9010E9401376B017C0120E030E097
:104C9000A9010E94503587FDBBC420E030E040E808
:104CA0005FE3C701B6010E941538181634F4C12C11
:104CB000D12C30E8E32E3FE3F32EC092BF03D09215
:104CC000C003E092C103F092C20380917001909101
:104CD0007101A0917201B0917301898F9A8FAB8F8E
:104CE000BC8F80916C0190916D01A0916E01B0918B
:104CF0006F018D8F9E8FAF8FB8A3809068019090C9
:104D00006901A0906A01B0906B018091BF039091FE
:104D1000C003A091C103B091C20389A39AA3ABA31E
:104D2000BCA320E030E0A9016D8D7E8D8F8D98A110
:104D30000E941538CD8CDE8CEF8CF8A0181624F06C
:104D4000F7FAF094F7F8F09420E030E0A901C501FB
:104D5000B4010E94153824013501181624F077FAA1
:104D6000709477F8709420E030E0A901698D7A8D15
:104D70008B8D9C8D0E94153818164CF0898D9A8D5C
:104D8000AB8DBC8DB058898F9A8FAB8FBC8FA30130
:104D9000920169A17AA18BA19CA10E94B635562EE1
:104DA000472E382E292EC701B601905829A13AA1C5
:104DB0004BA15CA10E94B6353B018C01C090C90398
:104DC000D090CA03E090CB03F090CC0320E030E019
:104DD000A901C701B6010E945035882309F435C4E2
:104DE00020E030E0A901C701B6010E941538A701F3
:104DF000960118160CF01DC4652D742D832D922D6F
:104E00000E94B63520E030E0A9010E9401376B0115
:104E10007C01A7019601B301C8010E94153818163C
:104E20000CF417C4A7019601652D742D832D922DC6
:104E30000E94503587FF04C0C52CD42CE32CF22CE3
:104E4000C092C903D092CA03E092CB03F092CC0384
:104E50002091CD033091CE034091CF035091D003E8
:104E6000698D7A8D8B8D9C8D0E94B63529A13AA1D2
:104E70004BA15CA10E94B6351B018C0129A13AA16E
:104E80004BA15CA1698D7A8D8B8D9C8D90580E9471
:104E9000B6352B013C019B01AC01B101C8010E9458
:104EA000503587FD16C0298D3A8D4B8D5C8D69A1DB
:104EB0007AA18BA19CA10E94B6352B013C019B01DC
:104EC000AC01B101C8010E941538181614F0210177
:104ED000380120E030E0A901C701B6010E94153871
:104EE00087FFBAC36091640170916501809166018A
:104EF000909167018D8C9E8CAF8CB8A02091600141
:104F00003091610140916201509163010E94B63578
:104F10009B01AC0160E070E080E89FE30E940037F5
:104F2000698F7A8F8B8F9C8F20E030E0A901C701B9
:104F3000B6010E941538A701960118160CF05058BA
:104F4000698D7A8D8B8D9C8D0E94B635698F7A8F95
:104F50008B8F9C8F20E030E0A901C501B4010E9435
:104F6000153818160CF07DC327E137EB41ED58E3F7
:104F7000C501B4010E9401379B01AC01698D7A8D96
:104F80008B8D9C8D0E946D379B01AC0160E070E0C1
:104F900080E89FE30E9400374B015C0120E030E095
:104FA000A9010E94153818161CF0812C912C54016F
:104FB000A5019401B201C3010E94B6354B015C0109
:104FC00020E030E040E85FEB0E94503587FD52C39F
:104FD00020E030E040E85FE3C501B4010E941538ED
:104FE000181634F4812C912C20E8A22E2FE3B22E37
:104FF0008092CD039092CE03A092CF03B092D003C3
:1050000020E030E0A901C701B6010E94503587FFBA
:1050100010C08091BE03882361F0B7FAB094B7F84E
:10502000B0948092CD039092CE03A092CF03B09221
:10503000D0038091E5039091E603A091E703B0913E
:10504000E803898F9A8FAB8FBC8F80915C01909120
:105050005D01A0915E01B0915F018DA39EA3AFA3FE
:10506000B8A78090580190905901A0905A01B09033
:105070005B018091540190915501A0915601B0912E
:1050800057018DA79EA7AFA7B8AB40905001509095
:105090005101609052017090530180914F01811134
:1050A000F0C219A619AA90E89AABAFE3ABAB809116
:1050B000BA039091BB03A091BC03B091BD038D8F47
:1050C0009E8FAF8FB8A320E030E0A901C301B201E9
:1050D0000E94153818161CF0412C512C3201A301E6
:1050E000920169A579A98AA99BA90E94B6352B01CD
:1050F0003C0120E030E0A9016DA57EA58FA598A90F
:105100000E941538181624F01DA61EA61FA618AA60
:1051100020E030E0A901C501B4010E94153818163D
:105120001CF0812C912C5401A501940169A579A949
:105130008AA99BA90E94B6354B015C0120E030E0B2
:10514000A9016DA17EA18FA198A50E9415381816FE
:1051500024F01DA21EA21FA218A62D8D3E8D4F8DDC
:1051600058A1C701B6010E940037D62EC72E382E8F
:10517000292E20E030E0A9016D8D7E8D8F8D98A1C4
:105180000E945035811186C2C501B4019058298D05
:105190003A8D4B8D5C8D0E94B6357B018C012D2D97
:1051A0003C2D432D522D0E9415381816B4F0A30142
:1051B0009201698D7A8D8B8D9C8D0E94B6357B0115
:1051C0008C012D2D3C2D432D522D0E94503587FDF5
:1051D00004C0ED2CFC2C032D122D9701A8016D8D20
:1051E0007E8D8F8D98A10E9401376D8F7DA31C014C
:1051F0008D8D9DA1D1018093BA039093BB03A093A1
:10520000BC03B093BD0380904B0190904C01A090E3
:105210004D01B0904E01C0904701D0904801E09000
:105220004901F0904A014090CD035090CE03609028
:10523000CF037090D0038091B6039091B703A091F3
:10524000B803B091B9038DA79EA7AFA7B8AB20E074
:1052500030E0A901C701B6010E94153818161CF0EC
:10526000C12CD12C7601A701960169A579A98AA93B
:105270009BA90E94B6356B017C0120E030E0A901BA
:10528000C501B4010E94153818161CF0812C912C10
:1052900054012DA53EA54FA558A9C301B2010E94F6
:1052A0000037762E672E582E492E20E030E0A901D7
:1052B0006DA57EA58FA598A90E945035811183C246
:1052C000298D3A8D4B8D5C8DC701B60190580E9497
:1052D000B6355B018C01272D362D452D542D0E94AE
:1052E00015381816B4F0A7019601698D7A8D8B8D4B
:1052F0009C8D0E94B6355B018C01272D362D452DE6
:10530000542D0E94503587FD04C0A72CB62C052DC6
:10531000142D9501A8016DA57EA58FA598A90E94C1
:1053200001375B018C01C501D8018093B6039093CE
:10533000B703A093B803B093B9038091C703882340
:1053400009F44EC0C9A0DAA0EBA0FCA0F7FAF094D3
:10535000F7F8F0942D8D3DA1A101C701B6010E947F
:10536000153818160CF4C0C22D8D3DA1A10169A1FC
:105370007AA18BA19CA10E94503587FF06C099A1FC
:105380009D8FAAA1ADA32BA03CA08D8D9DA1D10185
:105390008093BA039093BB03A093BC03B093BD0367
:1053A0009501A801C701B6010E941538181684F0AE
:1053B0009501A80169A17AA18BA19CA10E945035F9
:1053C0006501780187FF04C0C9A0DAA0EBA0FCA0AA
:1053D000C092B603D092B703E092B803F092B9033B
:1053E0008091B503882309F483C2809146010E940D
:1053F0007C042091B4032817190629F48091D50361
:105400008F7E8093D503809145010E947C0420917A
:10541000B4032817190629F48091D503806180937D
:10542000D5038091B303882311F1809144010E9438
:105430007C042091B2032817190609F05DC28091FF
:10544000B103882321F08091D50385FF10C010920D
:10545000BA031092BB031092BC031092BD031092CA
:10546000B6031092B7031092B8031092B90380915B
:10547000D50383FF10C01092BA031092BB031092A1
:10548000BC031092BD031092B6031092B7031092A2
:10549000B8031092B90384FF10C01092BA0310929F
:1054A000BB031092BC031092BD031092B60310927E
:1054B000B7031092B8031092B903B091D103BD8F16
:1054C0008090B6039090B703A090B803B090B90352
:1054D000BB2309F40EC320E030E0A901C501B401EB
:1054E0000E94153818160CF00DC22FE632E143E881
:1054F0005AE3C501B4010E94153887FF0EC2C0905F
:10550000BA03D090BB03E090BC03F090BD0320E051
:1055100030E0A901C701B6010E94153818160CF039
:10552000DCC22FE632E143E85AE3C701B6010E942C
:10553000153887FFF2C160E0F1C1823009F02CCB51
:1055400020E030E0A901C701B6010E941538181605
:10555000C4F52FE632E143E85AE3C701B6010E94E1
:10556000153818160CF490CAC090DD03D090DE03F5
:10557000E090DF03F090E00320E030E0A901C701F4
:10558000B6010E94153818163CF52FE632E143E8C3
:105590005AE3C701B6010E94153818160CF474CAF4
:1055A0001092D9031092DA031092DB031092DC03FD
:1055B0001092DD031092DE031092DF031092E003DD
:1055C000EBCA2FE632E143E85AEBC701B6010E946D
:1055D000503587FD59CAC8CF2FE632E143E85AEB70
:1055E000C701B6010E94503587FFDACF4DCA8091BE
:1055F0007803882321F08091D5038170D82E809183
:10560000D503D0FA83F98D7FCCCA8091D503FBCF27
:10561000C12CD12C760151CB80E090E0A0E8BFE313
:105620008093BF039093C003A093C103B093C203C0
:105630004CCBB301C8010E94B6359B01AC0160E0C0
:1056400070E0CB010E940037E2CBC12CD12C760157
:10565000E0CB63017801F4CB60E070E080E89FE389
:105660004DCCA501940167E177EB81ED98E30E94B1
:10567000003782CC812C912C90E8A92E9FEBB92E7B
:10568000B7CCB9A1B9A7EAA1E9ABFBA1FAAB2CA1B0
:105690002BAB0DCD20E030E0A9016D8D7E8D8F8D7F
:1056A00098A10E94153818160CF048C02DA53EA5EB
:1056B0004FA558A969A579A98AA99BA90E94B635C1
:1056C0009058298D3A8D4B8D5C8D0E94B6357B01AB
:1056D0008C012D2D3C2D432D522D0E94153818166E
:1056E000B4F0A3019201698D7A8D8B8D9C8D0E94FF
:1056F000B6357B018C012D2D3C2D432D522D0E9462
:10570000503587FD04C0ED2CFC2C032D122D970184
:10571000A8016D8D7E8D8F8D98A10E9401376D8FB0
:105720007DA31C0120E030E0A9010E94503587FFD5
:105730005FCD1D8E1DA2212C312C5ACDC501B40187
:105740009058298D3A8D4B8D5C8D0E94B6357B012A
:105750008C012D2D3C2D432D522D0E9415381816ED
:10576000F4F02DA13EA14FA158A569A579A98AA958
:105770009BA90E94B635298D3A8D4B8D5C8D0E9478
:10578000B6357B018C012D2D3C2D432D522D0E94D1
:10579000503587FD04C0ED2CFC2C032D122D9701F4
:1057A000A8016D8D7E8D8F8D98A10E9401376D8F20
:1057B0007DA31C0120E030E0A9010E9415381816D5
:1057C0000CF4B7CF15CDA501940169A579A98AA9D3
:1057D0009BA90E94B6354B015C0120E030E0A90195
:1057E0006DA57EA58FA598A90E94153818160CF0F6
:1057F0003FC0C501B4019058298D3A8D4B8D5C8D09
:105800000E94B6355B018C01272D362D452D542D78
:105810000E9415381816B4F0A7019601698D7A8D8B
:105820008B8D9C8D0E94B6355B018C01272D362D0A
:10583000452D542D0E94503587FD04C0A72CB62C51
:10584000052D142D9501A8016DA57EA58FA598A9FC
:105850000E9401375B018C0120E030E0A9010E9429
:10586000503587FF60CDA12CB12C00E010E05BCD5E
:10587000C701B6019058298D3A8D4B8D5C8D0E94E1
:10588000B6357B018C01272D362D452D542D0E94D8
:1058900015381816B4F0A5019401698D7A8D8B8D99
:1058A0009C8D0E94B6357B018C01272D362D452D10
:1058B000542D0E94503587FD04C0E72CF62C052D91
:1058C000142D9701A8016DA57EA58FA598A90E940A
:1058D00001375B018C0120E030E0A9010E941538FE
:1058E00018160CF4C0CF1FCDCD8EDDA217014DCD03
:1058F0008091D5038F7E93CD8091D5038062809374
:10590000D503B5CD2FE632E143E85AEBC501B4012A
:105910000E94503518160CF4F2CD61E08DE00E9423
:10592000A504E0914201F0914301FAA3E9A320917B
:105930004001309141013EA32DA320903E013090C3
:105940003F0180913C0190913D019A8F898FE090B9
:105950003A01F0903B01009138011091390180919A
:10596000BA039091BB03A091BC03B091BD0389A77A
:105970009AA7ABA7BCA7A5019401BC01CD010E94C9
:1059800001372B013C0120E030E0A9010E94503595
:105990008111BEC0B801012E000C880B990B0E942A
:1059A00057350E94DF37AB01298D3A8D37FF03C091
:1059B000319521953109F801E21BF30B4E175F0772
:1059C0003CF0F801E20FF31F4E175F070CF4FB01E8
:1059D000F093B003E093AF03A501940169A57AA504
:1059E0008BA59CA50E9400376B017C0120E030E074
:1059F000A9010E9450358111DBC0B101032C000CBC
:105A0000880B990B0E9457350E94DF37AB0129A103
:105A10003AA137FF03C0319521953109F101E21B0D
:105A2000F30B4E175F073CF0F101E20FF31F4E1727
:105A30005F070CF4FB01F093AE03E093AD030E940B
:105A40007C054B015C01C090DD03D090DE03E0904B
:105A5000DF03F090E0033D8D332341F088EB88169F
:105A60008BE09806A104B10408F03BC18091380195
:105A7000909139019093B0038093AF0380913E01E0
:105A800090913F019093AE038093AD030091360156
:105A900010913701101611061CF081E08093D1039C
:105AA00020E030E0A901C701B6010E9415381816A0
:105AB0000CF0D1C02FE632E143E85AE3C701B6014A
:105AC0000E94503587FDD2C01092A9031092AA03FC
:105AD0001092AB031092AC0304C12FE632E143E80D
