:100000000C94FB030C9423040C9423040C942304FD
:100010000C9423040C9423040C9423040C942304C4
:100020000C9423040C9423040C9423040C94E716DE
:100030000C9423040C9423040C9423040C942304A4
:100040000C9445160C9423040C94B5160C948F163E
:100050000C9423040C9423040C9423040C94230484
:100060000C9423040C9423044E414E494E49545998
:10007000494E46CDCCCC3D0AD7233C17B7D1387773
:10008000CC2B329595E6241FB14F0A000020410089
:1000900000C84200401C4620BCBE4CCA1B0E5AAED3
:1000A000C59D7400407A10F35A00A0724E180900E2
:1000B00010A5D4E80000E87648170000E40B5402CD
:1000C0000000CA9A3B000000E1F505000080969808
:1000D00000000040420F000000A086010000001058
:1000E0002700000000E8030000000064000000009A
:1000F000000A00000000000100000000002C76D87B
:1001000088DC674F0823DFC1DFAE59E1B1B796E560
:10011000E3E453C63AE651997696E8E6C28426EBC4
:10012000898C9B62ED407C6FFCEFBC9C9F40F2BAD7
:10013000A56FA5F490055A2AF75C936B6CF9676D6F
:10014000C11BFCE0E40D47FEF520E6B500D0ED90C4
:100150002E0300943577050080841E080000204E91
:100160000A000000C80C333333330F986E1283112A
:1001700041EF8D2114893BE65516CFFEE6DB18D101
:10018000844B381BF77C1D901DA4BBE424203284D3
:10019000725E228100C9F124ECA1E53D272243488B
:1001A00045434B53554D223A20002244524956456F
:1001B0005F425554544F4E5F00224E554D5F44529E
:1001C0004956455F425554544F4E53223A2000221F
:1001D0005553455F425554544F4E5F4D4F44455F14
:1001E00050494E223A200022454E41424C455F4242
:1001F0005554544F4E5F4354524C223A20002242F1
:100200005554544F4E5F4D4F44455F50494E223A2E
:100210002000224A4F595F43414C49425F434F55AA
:100220004E54223A200022454E41424C455F5354E1
:1002300041525455505F50554C5345223A200022AC
:1002400053544152545F4D4F544F525F50554C538D
:10025000455F54494D45223A2000225249474854AF
:100260005F4D4F544F525F50554C5345223A20003A
:10027000224C4546545F4D4F544F525F50554C539E
:1002800045223A20002252494748545F4D4F544F6F
:10029000525F434F4E54524F4C4C45525F50494E63
:1002A000223A2000224C4546545F4D4F544F525F36
:1002B000434F4E54524F4C4C45525F50494E223A98
:1002C0002000224A4F595F595F50494E223A200080
:1002D000224A4F595F585F50494E223A200022531C
:1002E000504545445F4B4E4F425F50494E223A20A5
:1002F00000225343414C455F414343454C5F5749BE
:1003000054485F5350454544223A200022535045FB
:1003100045445F4B4E4F425F464153545F56414CFC
:10032000223A20002253504545445F4B4E4F425FD6
:10033000534C4F575F56414C223A200022555345AB
:100340005F53504545445F4B4E4F42223A200022B6
:1003500052494748545F4D4F544F525F46415354A2
:10036000223A20002252494748545F4D4F544F5281
:100370005F534C4F57223A20002252494748545F5E
:100380004D4F544F525F43454E544552223A200040
:10039000224C4546545F4D4F544F525F4641535493
:1003A000223A2000224C4546545F4D4F544F525F35
:1003B000534C4F57223A2000224C4546545F4D4F34
:1003C000544F525F43454E544552223A2000225228
:1003D0004556455253455F5455524E5F494E5F5204
:1003E000455645525345223A2000225343414C453D
:1003F0005F5455524E494E475F5748454E5F4D4FEB
:1004000056494E47223A2000225455524E5F5350CF
:10041000454544223A200022464153544553545FF7
:100420004241434B57415244223A20002246415315
:10043000544553545F464F5257415244223A20008C
:1004400022444543454C45524154494F4E5F545513
:10045000524E494E47223A200022414343454C45E3
:10046000524154494F4E5F5455524E494E47223ADD
:10047000200022444543454C45524154494F4E5F6C
:100480004241434B57415244223A200022414343C8
:10049000454C45524154494F4E5F4241434B5741B1
:1004A0005244223A200022444543454C455241548F
:1004B000494F4E5F464F5257415244223A20002244
:1004C000414343454C45524154494F4E5F464F527C
:1004D00057415244223A200022595F444541445A30
:1004E0004F4E45223A200022434F4E54524F4C5F0C
:1004F000444F574E223A200022434F4E54524F4C05
:100500005F43454E5445525F59223A200022434FE3
:100510004E54524F4C5F5550223A200022585F44AF
:100520004541445A4F4E45223A200022434F4E54F3
:10053000524F4C5F4C454654223A200022434F4EC6
:1005400054524F4C5F43454E5445525F58223A2017
:100550000022434F4E54524F4C5F52494748542259
:100560003A20007B2263757272656E742073657425
:1005700074696E67732C2076657273696F6E3A22A8
:100580003A2000000000006410B71DC8206E3BAC8C
:1005900030D9269041DC76F4516B6B5861B24D3CFA
:1005A0007105502083B8ED44930FF0E8A3D6D68CA4
:1005B000B361CBB0C2649BD4D2D38678E20AA01CCC
:1005C000F2BDBD7B226572726F72223A2022656590
:1005D00070726F6D206661696C757265227D002294
:1005E00076616C7565223A20220022736574746905
:1005F0006E67223A2022007B22726573756C74222A
:100600003A20226368616E676522007B22726573FF
:10061000756C74223A20226E6F206368616E676584
:10062000227D007B22726573756C74223A202273DE
:10063000746F70706564227D007B22726573756CC7
:1006400074223A20226D6F76656D656E7420616C40
:100650006C6F776564227D007B22726573756C74A4
:10066000223A20227361766564227D002276616CD5
:100670007565223A205B002273657474696E672287
:100680003A2022007B22726573756C74223A202214
:100690006368616E6765220022434845434B5355AA
:1006A0004D223A2000226A6F794F4B223A200022D5
:1006B0006D6F76656D656E74416C6C6F77656422E5
:1006C0003A20002273706565644B6E6F6256616CF0
:1006D000223A20002272696768744D6F746F7257F6
:1006E0007269746556616C223A2000226C656674EA
:1006F0004D6F746F72577269746556616C223A203F
:1007000000227370656564546F4472697665223A9D
:100710002000227475726E546F4472697665223AB5
:10072000200022737065656450726F636573736532
:1007300064223A2000227475726E50726F63657382
:10074000736564223A2000227370656564496E7097
:100750007574223A2000227475726E496E70757439
:10076000223A2000226A6F795956616C223A2000A1
:10077000226A6F795856616C223A20007B22637599
:100780007272656E742076616C7565732C206D696C
:100790006C6C69733A223A200000000000240027A4
:1007A000002A0000000000250028002B00000000A7
:1007B00000230026002900040404040404040402A5
:1007C00002020202020303030303030102040810EE
:1007D00020408001020408102001020408102000BB
:1007E00000000800020100000304070000000000F0
:1007F00000000000A31711241FBECFEFD8E0DEBF1A
:10080000CDBF14E0A0E0B1E0E0E9FEE602C0059053
:100810000D92AA3EB107D9F726E0AAEEB4E001C0D6
:100820001D92AA35B207E1F713E0CBEFD3E004C085
:100830002197FE010E947234CA3FD107C9F70E9476
:100840001A180C9446370C940000833081F028F479
:10085000813099F08230A9F008958730A9F088306E
:10086000C9F08430B1F4809180008F7D03C0809105
:1008700080008F7780938000089584B58F7784BD42
:10088000089584B58F7DFBCF8091B0008F778093E2
:10089000B00008958091B0008F7DF9CFCF93DF93A2
:1008A000282F30E0F901E152F84F8491F901E55326
:1008B000F84FD491F901E954F84FC491CC23A1F039
:1008C00081110E942504EC2FF0E0EE0FFF1FE3558D
:1008D000F84FA591B491EC91ED2381E090E009F4FB
:1008E00080E0DF91CF91089580E090E0FACF1F93F0
:1008F000CF93DF93282F30E0F901E152F84F849134
:10090000F901E553F84FD491F901E954F84FC49136
:10091000CC23A9F0162F81110E942504EC2FF0E0C2
:10092000EE0FFF1FED55F84FA591B4918FB7F894D6
:10093000EC91111108C0D095DE23DC938FBFDF91BD
:10094000CF911F910895DE2BF8CFCF93DF9390E0E6
:10095000FC01E553F84F24918954984FFC01849190
:100960008823C9F090E0880F991FFC01E756F84FE3
:10097000A591B491FC01ED55F84FC591D491611149
:100980000DC09FB7F8948C91209582238C93888119
:10099000282328839FBFDF91CF910895623051F4BF
:1009A0009FB7F8943C91822F809583238C93E881A4
:1009B0002E2BEFCF8FB7F894EC912E2B2C938FBF6B
:1009C000EACF8E3008F08E508770806480937C0070
:1009D00080917A00806480937A0080917A0086FD0D
:1009E000FCCF809178009091790008953FB7F894FA
:1009F00080918A0590918B05A0918C05B0918D0511
:100A000026B5A89B05C02F3F19F00196A11DB11D69
:100A10003FBFBA2FA92F982F8827BC01CD01620FA5
:100A2000711D811D911D42E0660F771F881F991F60
:100A30004A95D1F708958F929F92AF92BF92CF922D
:100A4000DF92EF92FF926B017C010E94F6044B0152
:100A50005C01C114D104E104F104B9F00E94F60470
:100A6000681979098A099B09683E734081059105D7
:100A700080F321E0C21AD108E108F10888EE880E5F
:100A800083E0981EA11CB11CE4CFFF90EF90DF9093
:100A9000CF90BF90AF909F908F900895AF92BF92EC
:100AA000CF92DF92EF92FF920F931F93CF93DF933A
:100AB0006C017B018B01040F151FEB015E01AE1869
:100AC000BF08C017D10759F06991D601ED91FC918B
:100AD0000190F081E02DC6010995892B79F7C501B8
:100AE000DF91CF911F910F91FF90EF90DF90CF900A
:100AF000BF90AF900895FC01538D448D252F30E0B9
:100B0000842F90E0821B930B541710F0CF9608951A
:100B100001970895FC01918D828D981761F0A28D47
:100B2000AE0FBF2FB11D5D968C91928D9F5F9F730D
:100B3000928F90E008958FEF9FEF0895FC01918DC3
:100B4000828D981731F0828DE80FF11D858D90E030
:100B500008958FEF9FEF0895FC01918D228D892FCD
:100B600090E0805C9F4F821B91098F7399270895B5
:100B70008EE895E00E94AC0521E0892B09F420E085
:100B8000822F089580E090E0892B29F00E94B8051B
:100B900081110C9400000895FC01A48DA80FB92FB9
:100BA000B11DA35ABF4F2C91848D90E001968F7395
:100BB0009927848FA689B7892C93A089B1898C91B4
:100BC000837080648C93938D848D981306C0028803
:100BD000F389E02D80818F7D80830895EF92FF92CD
:100BE0000F931F93CF93DF93EC0181E0888F9B8D50
:100BF0008C8D98131AC0E889F989808185FF15C00A
:100C00009FB7F894EE89FF896083E889F98980812C
:100C10008370806480839FBF81E090E0DF91CF91FB
:100C20001F910F91FF90EF900895F62E0B8D10E01D
:100C30000F5F1F4F0F731127E02E8C8D8E110CC08C
:100C40000FB607FCFACFE889F989808185FFF5CFD7
:100C5000CE010E94CC05F1CFEB8DEC0FFD2FF11DE5
:100C6000E35AFF4FF0829FB7F8940B8FEA89FB8914
:100C700080818062CFCF0F931F93CF93DF938C013E
:100C8000D0E0C0E0F801EC0FFD1F6491662341F055
:100C90008EE895E00E94EE05892B11F02196F2CFA7
:100CA000CE01DF91CF911F910F910895CF93DF93E4
:100CB000EC01888D8823B9F0AA89BB89E889F98974
:100CC0008C9185FD03C0808186FD0DC00FB607FCA9
:100CD000F7CF8C9185FFF2CF808185FFEDCFCE01DC
:100CE0000E94CC05E9CFDF91CF910895DC01EC9112
:100CF000EC3090F511968C91119728E830E0281B84
:100D0000310987FD3395220F331F220F331F6217DE
:100D1000730784F012968C9128E532E0281B310984
:100D200087FD3395220F331F220F331F621773077E
:100D30000CF49B0122503109220F331F4FB7F89456
:100D40008E2F90E0FC01EE0FFF1FE80FF91FE55D0D
:100D5000F94F328321834FBF08951F93CF93DF93C1
:100D6000EC01162F88818C3008F04EC061E0812F95
:100D70000E94A5048881282F30E0F901EE0FFF1FA3
:100D8000E20FF31FE55DF94F1F736081607C612BFB
:100D9000608319821A822CE0622F0E946634829F3F
:100DA000B001112430E020E0AB01420F531FFA01E3
:100DB000EE0FFF1FE40FF51FE55DF94F908196FDE3
:100DC00016C02F5F3F4F2C30310571F781110FC0D6
:100DD0001092800082E08093810010928500109232
:100DE0008400B19A80916F00826080936F00E881E7
:100DF0008E2F90E0FC01EE0FFF1FE80FF91FE55D5D
:100E0000F94F8081806480838881DF91CF911F9129
:100E100008950F931F93E42FE627EF7024E0E29FDD
:100E2000F0011124ED57FA4F059115912591349158
:100E300054E096958795779567955A95D1F76027F1
:100E4000712782279327E42FE295EF70E627EF7052
:100E500024E0E29FF0011124ED57FA4F059115911E
:100E600025913491E4E09695879577956795EA9575
:100E7000D1F760277127822793271F910F9108953B
:100E800097FF03C09195819591098A3091056CF087
:100E9000843691056CF0883E23E0920764F080313F
:100EA000974264F085E090E0089581E090E0089535
:100EB00082E090E0089583E090E0089584E090E07F
:100EC00008952F923F924F925F926F927F928F92EE
:100ED0009F92AF92BF92CF92DF92EF92FF920F93C9
:100EE0001F93CF93DF93EC016A01790117FF02C0D2
:100EF00010E000E06E157F050CF019C11601201AF4
:100F0000310AC215D3050CF093C0621573050CF0BD
:100F10008FC0072E000C880B990B0E949E314B014D
:100F20005C01BE010D2E000C880B990B0E949E31B6
:100F3000A50194010E9447332B013C01B101330C00
:100F4000880B990B0E949E31A50194010E944733A2
:100F50009B01AC01C301B2010E94B43320E030E038
:100F600040E85FE30E9447334B015C010C0D1D1DFF
:100F70000C171D079CF50E151F0584F5B701FF0C16
:100F8000880B990B0E949E316B017C01BE01DD0F25
:100F9000880B990B0E949E31A70196010E9447334E
:100FA0004B015C01B7FAB094B7F8B094B801110FD7
:100FB000880B990B0E949E31A70196010E9447332E
:100FC0009B01AC01C501B4010E94B43320E030E0C4
:100FD00040E85FE30E9448334B015C0120E030E0D1
:100FE00040E85FEBC501B4010E94973187FD91C0D5
:100FF00020E030E040E85FE3C501B4010E945C34CA
:1010000018160CF48DC0C501B401DF91CF911F916A
:101010000F91FF90EF90DF90CF90BF90AF909F9097
:101020008F907F906F905F904F903F902F9008959A
:10103000812C912C54019ACF18012C0C3D1C2C169C
:101040003D060CF062C0261637060CF05EC0072E77
:10105000000C880B990B0E949E314B015C01BE0174
:101060000D2E000C880B990B0E949E31A501940156
:101070000E9447332B013C01B101330C880B990BC3
:101080000E949E31A50194010E9447339B01AC014F
:10109000C301B2010E94B43320E030E040E85FE3D6
:1010A0000E9447334B015C01C01AD10ACC15DD0503
:1010B0000CF094CFEC14FD040CF090CFB701FF0CB2
:1010C000880B990B0E949E314B015C01BE01DD0F24
:1010D000880B990B0E949E31A50194010E94473311
:1010E0002B013C0177FA709477F87094B601DD0C0F
:1010F000880B990B0E949E31A50194010E944733F1
:101100009B01AC01C301B2015FCF812C912C540132
:10111000CBCF812C912C90E8A92E9FEBB92E73CFC9
:10112000812C912C80E8A82E8FE3B82E6CCFE61688
:10113000F7060CF481CF812C912C540164CFFC0173
:1011400001900020E9F73197AF01481B590BBC0112
:101150008EE895E00C944E05009711F00C949F08D2
:1011600090E080E008958F929F92AF92BF920F938C
:101170001F93CF93DF93CDB7DEB7A1970FB6F89447
:10118000DEBF0FBECDBF19A2423008F44AE08E0187
:101190000F5D1F4F842E912CB12CA12CA501940121
:1011A0000E941633E62FB901CA01EA30D4F4E05D9B
:1011B000D801EE938D01232B242B252B79F7CD011C
:1011C0000E94AC08A1960FB6F894DEBF0FBECDBF4B
:1011D000DF91CF911F910F91BF90AF909F908F9013
:1011E0000895E95CE5CF0C94AC08CF93DF930E949F
:1011F0003B06EC018FE991E00E949F088C0F9D1F38
:10120000DF91CF910895CF93DF930E94AC08EC015A
:101210008FE991E00E949F088C0F9D1FDF91CF9175
:101220000895CF92DF92EF92FF92CF93DF936C01FC
:10123000990FEE08FF08F7FE19C06DE28EE895E001
:101240000E94EE05EC0166277727CB016C197D091A
:101250008E099F094AE00E94B3088C0F9D1FDF9101
:10126000CF91FF90EF90DF90CF9008954AE0C701B3
:10127000B601DF91CF91FF90EF90DF90CF900C946B
:10128000B3084F925F926F927F928F929F92AF922C
:10129000BF92CF92DF92EF92FF920F931F93CF9363
:1012A0006B017C01742EAC019B010E946134882388
:1012B00099F082EA91E0CF911F910F91FF90EF900A
:1012C000DF90CF90BF90AF909F908F907F906F9066
:1012D0005F904F900C949F0846015701E894B7F82F
:1012E0002FEF3FEF4FE75FE7C501B4010E94613484
:1012F00081110DC02FEF3FEF4FE75FE7C501B4014C
:101300000E94973118161CF486EA91E0D4CF2FEF93
:101310003FEF4FE75FE4C701B6010E945C34181647
:101320001CF48AEA91E0C7CF2FEF3FEF4FE75FEC65
:10133000C701B6010E94973187FDF3CF20E030E06E
:10134000A901C701B6010E94973110E000E087FFB4
:101350000AC06DE28EE895E00E94EE058C01F7FA76
:10136000F094F7F8F094C0E060E070E080E09FE374
:101370007C1641F020E030E040E251E40E94B433BA
:10138000CF5FF6CFA70196010E9448332B013C01A5
:101390000E942D344B015C014AE00E94B3087C019D
:1013A000E00EF11ECC23C1F1C501B4010E949C31B5
:1013B0009B01AC01C301B2010E9447334B015C01A8
:1013C0006EE28EE895E00E94EE05E80EF91EC1502F
:1013D00018F120E030E040E251E4C501B4010E9480
:1013E000FD312B013C010E942D344B01B12CA12C6D
:1013F0004AE0C501B4010E94B308E80EF91EC50118
:10140000B4010E949C319B01AC01C301B2010E9456
:1014100047334B015C01DBCFC701CF911F910F9187
:10142000FF90EF90DF90CF90BF90AF909F908F9004
:101430007F906F905F904F900895682F70E090E0DC
:1014400080E04AE00C94B308EF92FF920F931F9351
:10145000CF93DF9383E695E00E943B069093480587
:101460008093470583E090E00E9411092091470591
:1014700030914805820F931F90934805809347054C
:1014800085EC94E00E949F08EC01009147051091C3
:10149000480581E595E00E943B068C0F9D1F800F5B
:1014A000911F909348058093470580918601909104
:1014B00087010E9411092091470530914805820F4C
:1014C000931F909348058093470585EC94E00E9414
:1014D0009F08EC0100914705109148058CE395E0C9
:1014E0000E943B068C0F9D1F800F911F9093480513
:1014F0008093470580918401909185010E94110994
:101500002091470530914805820F931F909348051D
:101510008093470585EC94E00E949F08EC010091C0
:101520004705109148058BE295E00E943B068C0F21
:101530009D1F800F911F90934805809347058091D0
:101540008201909183010E941109209147053091F9
:101550004805820F931F909348058093470585ECBB
:1015600094E00E949F08EC01009147051091480506
:101570008CE195E00E943B068C0F9D1F800F911F10
:101580009093480580934705809188019091890147
:101590000E9411092091470530914805820F931F41
:1015A000909348058093470585EC94E00E949F083E
:1015B000EC0100914705109148058DE095E00E94EF
:1015C0003B068C0F9D1F800F911F909348058093C1
:1015D000470580917E0190917F010E941109209121
:1015E000470530914805820F931F909348058093DB
:1015F000470585EC94E00E949F08EC0100914705A7
:101600001091480588EF94E00E943B068C0F9D1FC7
:10161000800F911F909348058093470580917C012E
:1016200090917D010E941109209147053091480554
:10163000820F931F909348058093470585EC94E0B3
:101640000E949F08EC01009147051091480587EE24
:1016500094E00E943B068C0F9D1F800F911F90937A
:1016600048058093470580917A0190917B010E9403
:1016700011092091470530914805820F931F9093DF
:1016800048058093470585EC94E00E949F08EC0193
:10169000009147051091480588ED94E00E943B06B3
:1016A0008C0F9D1F800F911F9093480580934705D5
:1016B00080918001909181010E941109209147053C
:1016C00030914805820F931F9093480580934705FA
:1016D00085EC94E00E949F08EC0100914705109171
:1016E00048058FEB94E00E943B068C0F9D1F800FF6
:1016F000911F909348058093470560912001709158
:101700002101809122019091230144E00E9441092E
:101710002091470530914805820F931F909348050B
:101720008093470585EC94E00E949F08EC010091AE
:1017300047051091480586EA94E00E943B068C0F0D
:101740009D1F800F911F90934805809347056091DE
:10175000240170912501809126019091270144E098
:101760000E9441092091470530914805820F931F3F
:10177000909348058093470585EC94E00E949F086C
:10178000EC0100914705109148058CE894E00E9417
:101790003B068C0F9D1F800F911F909348058093EF
:1017A0004705609128017091290180912A0190914B
:1017B0002B0144E00E9441092091470530914805E2
:1017C000820F931F909348058093470585EC94E022
:1017D0000E949F08EC01009147051091480582E79F
:1017E00094E00E943B068C0F9D1F800F911F9093E9
:1017F00048058093470560912C0170912D018091DF
:101800002E0190912F0144E00E944109209147054B
:1018100030914805820F931F9093480580934705A8
:1018200085EC94E00E949F08EC010091470510911F
:10183000480589E594E00E943B068C0F9D1F800FB0
:10184000911F90934805809347056091170170910F
:1018500018018091190190911A0144E00E944109F8
:101860002091470530914805820F931F90934805BA
:101870008093470585EC94E00E949F08EC0100915D
:1018800047051091480580E494E00E943B068C0FC8
:101890009D1F800F911F909348058093470560918D
:1018A0001B0170911C0180911D0190911E0144E06B
:1018B0000E9441092091470530914805820F931FEE
:1018C000909348058093470585EC94E00E949F081B
:1018D000EC0100914705109148058CE294E00E94CC
:1018E0003B068C0F9D1F800F911F9093480580939E
:1018F00047056091300170913101809132019091E2
:10190000330144E00E944109209147053091480588
:10191000820F931F909348058093470585EC94E0D0
:101920000E949F08EC01009147051091480587E14E
:1019300094E00E943B068C0F9D1F800F911F909397
:10194000480580934705609134017091350180917D
:1019500036019091370144E00E94410920914705EA
:1019600030914805820F931F909348058093470557
:1019700085EC94E00E949F08EC01009147051091CE
:10198000480588E094E00E943B068C0F9D1F800F65
:10199000911F90934805809347056091380170919D
:1019A000390180913A0190913B0144E00E94410944
:1019B0002091470530914805820F931F9093480569
:1019C0008093470585EC94E00E949F08EC0100910C
:1019D0004705109148058AEE93E00E943B068C0F64
:1019E0009D1F800F911F909348058093470560913C
:1019F0003F0170914001809141019091420144E08A
:101A00000E9441092091470530914805820F931F9C
:101A1000909348058093470585EC94E00E949F08C9
:101A2000EC0100914705109148058EEC93E00E946F
:101A30003B068C0F9D1F800F911F9093480580934C
:101A4000470580916005811140C483EB91E00E94BD
:101A5000AC082091470530914805820F931F909361
:101A600048058093470585EC94E00E949F08EC01AF
:101A7000009147051091480588EB93E00E943B06D2
:101A80008C0F9D1F800F911F9093480580934705F1
:101A900080910B0190910C010E9411092091470542
:101AA00030914805820F931F909348058093470516
:101AB00085EC94E00E949F08EC010091470510918D
:101AC000480584EA93E00E943B068C0F9D1F800F1F
:101AD000911F909348058093470580910D01909147
:101AE0000E010E9411092091470530914805820F8F
:101AF000931F909348058093470585EC94E00E94DE
:101B00009F08EC01009147051091480580E993E09A
:101B10000E943B068C0F9D1F800F911F90934805DC
:101B20008093470580910F01909110010E94110947
:101B30002091470530914805820F931F90934805E7
:101B40008093470585EC94E00E949F08EC0100918A
:101B500047051091480589E793E00E943B068C0FEA
:101B60009D1F800F911F909348058093470580919A
:101B70001101909112010E941109209147053091A5
:101B80004805820F931F909348058093470585EC85
:101B900094E00E949F08EC010091470510914805D0
:101BA00084E693E00E943B068C0F9D1F800F911FDF
:101BB00090934805809347058091130190911401FB
:101BC0000E9411092091470530914805820F931F0B
:101BD000909348058093470585EC94E00E949F0808
:101BE000EC0100914705109148058FE493E00E94B5
:101BF0003B068C0F9D1F800F911F9093480580938B
:101C0000470580911501909116010E9411092091BC
:101C1000470530914805820F931F909348058093A4
:101C2000470585EC94E00E949F08EC010091470570
:101C3000109148058CE393E00E943B068C0F9D1F9A
:101C4000800F911F90934805809347058091690507
:101C500081113EC383EB91E00E94AC0820914705BF
:101C600030914805820F931F909348058093470554
:101C700085EC94E00E949F08EC01009147051091CB
:101C8000480584E293E00E943B068C0F9D1F800F65
:101C9000911F909348058093470580913D01909155
:101CA0003E010E9411092091470530914805820F9D
:101CB000931F909348058093470585EC94E00E941C
:101CC0009F08EC0100914705109148058CE093E0D6
:101CD0000E943B068C0F9D1F800F911F909348051B
:101CE0008093470580916705909168050E941109CE
:101CF0002091470530914805820F931F9093480526
:101D00008093470585EC94E00E949F08EC010091C8
:101D100047051091480581EF92E00E943B068C0F29
:101D20009D1F800F911F90934805809347058091D8
:101D30001F018111D0C283EB91E00E94AC08209179
:101D4000470530914805820F931F90934805809373
:101D5000470585EC94E00E949F08EC01009147053F
:101D6000109148058EED92E00E943B068C0F9D1F5E
:101D7000800F911F909348058093470580913C0107
:101D80000E941D0A2091470530914805820F931F3C
:101D9000909348058093470585EC94E00E949F0846
:101DA000EC01009147051091480580ED92E00E94FA
:101DB0003B068C0F9D1F800F911F909348058093C9
:101DC000470580918B010E941D0A209147053091A3
:101DD0004805820F931F909348058093470585EC33
:101DE00094E00E949F08EC0100914705109148057E
:101DF00082EC92E00E943B068C0F9D1F800F911F8A
:101E0000909348058093470580918A010E941D0A9E
:101E10002091470530914805820F931F9093480504
:101E20008093470585EC94E00E949F08EC010091A7
:101E300047051091480584EA92E00E943B068C0F0A
:101E40009D1F800F911F90934805809347058091B7
:101E500002010E941D0A2091470530914805820F1A
:101E6000931F909348058093470585EC94E00E946A
:101E70009F08EC01009147051091480585E892E024
:101E80000E943B068C0F9D1F800F911F9093480569
:101E900080934705809101010E941D0A209147050A
:101EA00030914805820F931F909348058093470512
:101EB00085EC94E00E949F08EC0100914705109189
:101EC000480580E792E00E943B068C0F9D1F800F23
:101ED000911F909348058093470580910701909149
:101EE00008010E9411092091470530914805820F91
:101EF000931F909348058093470585EC94E00E94DA
:101F00009F08EC0100914705109148058AE592E091
:101F10000E943B068C0F9D1F800F911F90934805D8
:101F20008093470580910501909106010E94110957
:101F30002091470530914805820F931F90934805E3
:101F40008093470585EC94E00E949F08EC01009186
:101F50004705109148058FE392E00E943B068C0FE5
:101F60009D1F800F911F9093480580934705809196
:101F70000301909104010E941109209147053091BD
:101F80004805820F931F909348058093470585EC81
:101F900094E00E949F08EC010091470510914805CC
:101FA00086E292E00E943B068C0F9D1F800F911FDE
:101FB00090934805809347058091000181118EC15F
:101FC00083EB91E00E94AC082091470530914805D1
:101FD000820F931F909348058093470585EC94E00A
:101FE0000E949F08EC01009147051091480582E18D
:101FF00092E00E943B068C0F9D1F800F911F9093D3
:102000004805809347058091090190910A010E943B
:1020100011092091470530914805820F931F909335
:1020200048058093470585EC94E00E949F08EC01E9
:1020300000914705109148058EEF91E00E943B0604
:102040008C0F9D1F800F911F90934805809347052B
:10205000809179010E941D0A209147053091480521
:10206000820F931F909348058093470585EC94E079
:102070000E949F08EC01009147051091480587EEEA
:1020800091E00E943B068C0F9D1F800F911F909343
:1020900048058093470580917405811122C183EB27
:1020A00091E00E94AC082091470530914805820FCD
:1020B000931F909348058093470585EC94E00E9418
:1020C0009F08EC0100914705109148058FEC91E0C5
:1020D0000E943B068C0F9D1F800F911F9093480517
:1020E00080934705809172058111FEC083EB91E0DA
:1020F0000E94AC082091470530914805820F931F3C
:10210000909348058093470585EC94E00E949F08D2
:10211000EC01009147051091480589EB91E00E9480
:102120003B068C0F9D1F800F911F90934805809355
:102130004705809173050E941D0A20914705309143
:102140004805820F931F909348058093470585ECBF
:1021500094E00E949F082091470530914805820F26
:10216000931F909348058093470503E411E0EE2404
:10217000E394F12C8AEA91E00E943B062091470506
:1021800030914805820F931F90934805809347052F
:10219000C7010E9411092091470530914805820F1F
:1021A000931F909348058093470589EB91E00E9427
:1021B0009F082091470530914805820F931F909307
:1021C000480580934705F80180810E941D0A2091EF
:1021D000470530914805820F931F909348058093DF
:1021E000470583EC91E00E949F08209147053091BC
:1021F0004805820F931F9093480580934705F80187
:10220000618172818381948144E00E94410920911F
:10221000470530914805820F931F9093480580939E
:10222000470583EC91E00E949F082091470530917B
:102230004805820F931F9093480580934705F80146
:10224000658176818781908544E00E9441092091D3
:10225000470530914805820F931F9093480580935E
:1022600047058EEB91E00E949F08C0914705D091F1
:102270004805C80FD91FD0934805C0934705FFEF05
:10228000EF1AFF0A075F1F4F87E0E816F10409F015
:1022900071CF8DE991E00E943B06C80FD91FD09302
:1022A0004805C0934705CE010E94400721968C0F38
:1022B0009D1F0E94110988EE94E0DF91CF911F913C
:1022C0000F91FF90EF900C9403098EEA91E0BFCB41
:1022D0008EEA91E0C1CC8EEA91E02FCD8EEA91E0BA
:1022E00071CE8EEA91E0DDCE8EEA91E001CF1F93B0
:1022F000CF93DF93EC01162F0E94BE32181739F0EE
:10230000612FCE01DF91CF911F910C94C632DF91E6
:10231000CF911F910895CF92DF92EF92FF920F938A
:102320001F93CF93DF93EC018B01C090EB04D0900F
:10233000EC04E090ED04F090EE04FB0160818881F4
:1023400099810E94771188819981F8016081885371
:102350009F4F0E94771188819981F8016081805791
:102360009E4F0E947711F8014081C701B6010E947B
:102370000907288139812F5F3F4F39832883609374
:10238000EB047093EC048093ED049093EE04DF91E2
:10239000CF911F910F91FF90EF90DF90CF90089514
:1023A000AF92BF92CF92DF92EF92FF920F931F9363
:1023B000CF93DF938C01EB01C090EB04D090EC0441
:1023C000E090ED04F090EE045B0184E0A80EB11CF7
:1023D0006881F801808191810E947711F8018081E4
:1023E0009181688188539F4F0E947711F801808105
:1023F0009181688180579E4F0E9477114991C70152
:10240000B6010E9409076B017C01F801808191816E
:10241000019691838083AC16BD06D1F6C092EB0481
:10242000D092EC04E092ED04F092EE04DF91CF91B3
:102430001F910F91FF90EF90DF90CF90BF90AF90E2
:102440000895AF92BF92CF92DF92EF92FF920F93D7
:102450001F93CF93DF938C01EB01C090EB04D090DE
:10246000EC04E090ED04F090EE045B0182E0A80E35
:10247000B11C6881F801808191810E947711F80177
:1024800080819181688188539F4F0E947711F80164
:1024900080819181688180579E4F0E947711499178
:1024A000C701B6010E9409076B017C01F801808118
:1024B0009181019691838083AC16BD06D1F6C092BE
:1024C000EB04D092EC04E092ED04F092EE04DF9184
:1024D000CF911F910F91FF90EF90DF90CF90BF9021
:1024E000AF900895CF92DF92EF92FF920F931F93D8
:1024F000CF93DF93EC018B01C090EB04D090EC0400
:10250000E090ED04F090EE04FB01608188819981F8
:102510000E94771188819981F801608188539F4FCB
:102520000E94771188819981F801608180579E4FC0
:102530000E947711F8014081C701B6010E94090786
:10254000288139812F5F3F4F398328836093EB04C3
:102550007093EC048093ED049093EE04DF91CF919F
:102560001F910F91FF90EF90DF90CF900895CF9241
:10257000DF92EF92FF920F931F93CF93DF9300D0E0
:10258000CDB7DEB781E090E09A8389831092EB04A7
:102590001092EC041092ED041092EE0466E871E0E3
:1025A000CE0101960E94211264E871E0CE010196ED
:1025B0000E94211262E871E0CE0101960E94211270
:1025C00068E871E0CE0101960E9421126EE771E089
:1025D000CE0101960E9421126CE771E0CE010196B6
:1025E0000E9421126AE771E0CE0101960E94211239
:1025F00060E871E0CE0101960E94211260E271E074
:10260000CE0101960E94D01164E271E0CE010196E4
:102610000E94D01168E271E0CE0101960E94D011B3
:102620006CE271E0CE0101960E94D01167E171E089
:10263000CE0101960E94D0116BE171E0CE010196AE
:102640000E94D01160E371E0CE0101960E94D0118A
:1026500064E371E0CE0101960E94D01168E371E05D
:10266000CE0101960E94D0116FE371E0CE01019678
:102670000E94D0116FE171E0CE0101960E948B1192
:1026800060E675E0CE0101960E948B116BE071E06F
:10269000CE0101960E9421126DE071E0CE010196FB
:1026A0000E9421126FE071E0CE0101960E9421127A
:1026B00061E171E0CE0101960E94211263E171E0B7
:1026C000CE0101960E94211265E171E0CE010196D2
:1026D0000E94211269E675E0CE0101960E948B11DD
:1026E0006DE371E0CE0101960E94211267E675E06C
:1026F000CE0101960E9421126BE871E0CE01019695
:102700000E9472126AE871E0CE0101960E94721274
:1027100062E071E0CE0101960E94721261E071E008
:10272000CE0101960E9472126CE371E0CE01019617
:102730000E94721267E071E0CE0101960E942112A0
:1027400065E071E0CE0101960E94211263E071E024
:10275000CE0101960E94211260E071E0CE01019647
:102760000E948B1169E071E0CE0101960E94211256
:1027700069E771E0CE0101960E94721264E775E08C
:10278000CE0101960E948B1162E775E0CE010196A1
:102790000E948B1163E775E0CE0101960E947212D0
:1027A000C090EB04D090EC04E090ED04F090EE04C7
:1027B00003E411E0F801608189819A810E94771118
:1027C00089819A81F801608188539F4F0E94771117
:1027D00089819A81F801608180579E4F0E9477110C
:1027E000F80141918F01C701B6010E9409076B01F1
:1027F0007C0189819A8101969A838983F1E0093766
:102800001F07C1F6C092EB04D092EC04E092ED04F5
:10281000F092EE040BEE14E0F801608189819A8158
:102820000E94771189819A81F801608188539F4FB6
:102830000E94771189819A81F801608180579E4FAB
:102840000E947711F80141918F01C701B6010E94E2
:1028500009076B017C0189819A8101969A8389839A
:10286000F4E00F3E1F07C1F6C092EB04D092EC04D7
:10287000E092ED04F092EE040F900F90DF91CF9173
:102880001F910F91FF90EF90DF90CF9008950C94DF
:10289000BE32CF92DF92EF92FF920F931F93CF93AE
:1028A000DF938C017B01FC01C080D180C6010E94B6
:1028B0004714C82FC60188539F4F0E944714D82F32
:1028C000C60180579E4F0E944714CD1327C0C813DE
:1028D00025C0F701C0836091EB047091EC048091F6
:1028E000ED049091EE04F70140810E940907609386
:1028F000EB047093EC048093ED049093EE04F801E4
:1029000080819181019691838083DF91CF911F9186
:102910000F91FF90EF90DF90CF9008956C2F682B70
:102920006D23C8236C2BF7016083F80180819181AE
:102930000E947711F80180819181F70160818853AD
:102940009F4F0E947711F80180819181F70160818A
:1029500080579E4F0E94771161E08DE00E94A50490
:1029600060E08DE00E94770464E670E080E090E033
:102970000E941B0561E08DE00E94770464E670E030
:1029800080E090E00E941B05A6CFAF92BF92CF924D
:10299000DF92EF92FF920F931F93CF93DF937C010F
:1029A000EB016B0184E0C80ED11CF701A080B1805F
:1029B000C5010E944714182FC50188539F4F0E94DC
:1029C0004714082FC50180579E4F0E9447141013CB
:1029D0002AC0181328C018836091EB047091EC048E
:1029E0008091ED049091EE0449910E940907609353
:1029F000EB047093EC048093ED049093EE04F701E4
:102A000080819181019691838083CC15DD0569F6E3
:102A1000DF91CF911F910F91FF90EF90DF90CF90BA
:102A2000BF90AF900895612F682B60231823612B0E
:102A30006883F701808191810E947711F70180817D
:102A40009181688188539F4F0E947711F70180819F
:102A50009181688180579E4F0E94771161E08DE0DF
:102A60000E94A50460E08DE00E94770464E670E0B7
:102A700080E090E00E941B0561E08DE00E947704F9
:102A800064E670E080E090E00E941B05A5CFAF9265
:102A9000BF92CF92DF92EF92FF920F931F93CF934B
:102AA000DF937C01EB016B0182E0C80ED11CF701C2
:102AB000A080B180C5010E944714182FC50188531A
:102AC0009F4F0E944714082FC50180579E4F0E94B8
:102AD000471410132AC0181328C018836091EB0400
:102AE0007091EC048091ED049091EE0449910E9464
:102AF00009076093EB047093EC048093ED049093CA
:102B0000EE04F70180819181019691838083CC1539
:102B1000DD0569F6DF91CF911F910F91FF90EF9046
:102B2000DF90CF90BF90AF900895612F682B602306
:102B30001823612B6883F701808191810E947711AE
:102B4000F70180819181688188539F4F0E9477119E
:102B5000F70180819181688180579E4F0E94771193
:102B600061E08DE00E94A50460E08DE00E947704A2
:102B700064E670E080E090E00E941B0561E08DE07B
:102B80000E94770464E670E080E090E00E941B05FC
:102B9000A5CFCF92DF92EF92FF920F931F93CF9327
:102BA000DF938C017B01FC01C080D180C6010E94B3
:102BB0004714C82FC60188539F4F0E944714D82F2F
:102BC000C60180579E4F0E944714CD1327C0C813DB
:102BD00025C0F701C0836091EB047091EC048091F3
:102BE000ED049091EE04F70140810E940907609383
:102BF000EB047093EC048093ED049093EE04F801E1
:102C000080819181019691838083DF91CF911F9183
:102C10000F91FF90EF90DF90CF9008956C2F682B6D
:102C20006D23C8236C2BF7016083F80180819181AB
:102C30000E947711F80180819181F70160818853AA
:102C40009F4F0E947711F80180819181F701608187
:102C500080579E4F0E94771161E08DE00E94A5048D
:102C600060E08DE00E94770464E670E080E090E030
:102C70000E941B0561E08DE00E94770464E670E02D
:102C800080E090E00E941B05A6CF1F920F920FB626
:102C90000F9211242F933F938F939F93AF93BF93E2
:102CA0008091860590918705A0918805B09189054E
:102CB0003091850523E0230F2D3758F50196A11D8E
:102CC000B11D209385058093860590938705A09379
:102CD0008805B093890580918A0590918B05A09114
:102CE0008C05B0918D050196A11DB11D80938A05BB
:102CF00090938B05A0938C05B0938D05BF91AF91F8
:102D00009F918F913F912F910F900FBE0F901F9029
:102D1000189526E8230F0296A11DB11DD2CF1F9250
:102D20000F920FB60F9211242F933F934F935F93FF
:102D30006F937F938F939F93AF93BF93EF93FF9383
:102D40008EE895E00E94CC05FF91EF91BF91AF9185
:102D50009F918F917F916F915F914F913F912F91B3
:102D60000F900FBE0F901F9018951F920F920FB6E5
:102D70000F9211242F938F939F93EF93FF93E091E2
:102D80009E05F0919F058081E091A405F091A50535
:102D900082FD1BC090818091A7058F5F8F7320916A
:102DA000A805821741F0E091A705F0E0E257FA4F3D
:102DB000958F8093A705FF91EF919F918F912F9110
:102DC0000F900FBE0F901F9018958081F4CF1F9227
:102DD0000F920FB60F9211242F933F934F935F934F
:102DE0006F937F938F939F93AF93BF93CF93DF9313
:102DF000EF93FF938091EA04C0914F06D0E087FFE4
:102E000024C010928500109284008091EA048F5FA4
:102E10008093EA048091EA04082E000C990B8C1729
:102E20009D0724F48091EA048C30C4F180918400E1
:102E300090918500049680349C4908F47AC0809172
:102E4000840090918500049676C08091EA04082E53
:102E5000000C990B8C179D07C4F6E091EA048E2FA5
:102E6000EE0F990BFC01EE0FFF1FE80FF91FE55D58
:102E7000F94F808186FFC9CFE091EA048E2FEE0FD3
:102E8000990BFC01EE0FFF1FE80FF91FE55DF94FED
:102E9000808160E08F730E947704B7CF2091840017
:102EA00030918500E091EA048E2FEE0F990BFC0122
:102EB000EE0FFF1FE80FF91FE55DF94F8181928149
:102EC000820F931F9093890080938800E091EA0419
:102ED0008E2FEE0F990BFC01EE0FFF1FE80FF91F6D
:102EE000E55DF94F808186FF11C0E091EA048E2FE5
:102EF000EE0F990BFC01EE0FFF1FE80FF91FE55DC8
:102F0000F94F808161E08F730E947704FF91EF9108
:102F1000DF91CF91BF91AF919F918F917F916F91F1
:102F20005F914F913F912F910F900FBE0F901F9087
:102F3000189580E49CE990938900809388008FEF36
:102F40008093EA04E3CF109291051092900588EEE9
:102F500093E0A0E0B0E08093920590939305A09356
:102F60009405B093950581E991E090938F05809346
:102F70008E0585EC90E090939B0580939A0584ECF8
:102F800090E090939D0580939C0580EC90E0909359
:102F90009F0580939E0581EC90E09093A10580931E
:102FA000A00582EC90E09093A3058093A20586ECA7
:102FB00090E09093A5058093A4051092A705109228
:102FC000A8051092A9051092AA0580914F068C3091
:102FD00048F591E0980F90934F068093530690E048
:102FE000FC01EE0FFF1FE80FF91FE55DF94F88EBBD
:102FF0009BE09283818380914F068C30B8F491E0FE
:10300000980F90934F068093500690E0FC01EE0FCE
:10301000FF1FE80FF91FE55DF94F88EB9BE09283F6
:10302000818308958FEF80935306E5CF8FEF8093D0
:1030300050060895CF93DF93CDB7DEB7A3970FB6B1
:10304000F894DEBF0FBECDBF789484B5826084BD96
:1030500084B5816084BD85B5826085BD85B581609C
:1030600085BD80916E00816080936E00109281001A
:1030700080918100826080938100809181008160D5
:103080008093810080918000816080938000809196
:10309000B10084608093B1008091B0008160809322
:1030A000B00080917A00846080937A0080917A00E9
:1030B000826080937A0080917A00816080937A00A8
:1030C00080917A00806880937A001092C10080E03D
:1030D00092E09093800580937F0590937E05809386
:1030E0007D05109275051092760510927705109265
:1030F00078051092790510927A0510927B0510924E
:103100007C0510925C0510925D0510925E05109290
:103110005F05109258051092590510925A051092A9
:103120005B0510926E0510926F051092700510925B
:10313000710510926A0510926B0510926C05109241
:103140006D058FEF9FEF909366058093650580E096
:1031500090E0A0E8BFE38093610590936205A0939F
:103160006305B093640580910B0190910C019093DD
:10317000570580935605809111019091120190930B
:103180005505809354051092810510928205109286
:103190008305109284051092490510924A051092F9
:1031A0004B0510924C0581E080934D05109253051C
:1031B00010924F0510925005109251051092520531
:1031C0008091000180934E05E0919E05F0919F054E
:1031D00082E08083E0919A05F0919B051082E09156
:1031E0009C05F0919D0587E080831092A605E091F3
:1031F000A205F091A30586E08083E091A005F091FF
:10320000A105808180618083E091A005F091A105F6
:10321000808188608083E091A005F091A105808184
:1032200080688083E091A005F091A10580818F7D69
:10323000808360E08DE00E94770418861F82BE01C3
:10324000675F7F4FCE0107960E94C91589858A3135
:1032500061F018861F826CE871E0CE0107960E942B
:1032600072120E94B71210924D0581E090E09E8389
:103270008D831092EB041092EC041092ED041092E6
:10328000EE048E010B5F1F4F66E871E0C8010E94DB
:10329000471564E871E0C8010E94471562E871E0D3
:1032A000C8010E94471568E871E0C8010E944715EF
:1032B0006EE771E0C8010E9447156CE771E0C80134
:1032C0000E9447156AE771E0C8010E94471560E84F
:1032D00071E0C8010E94471560E271E0C8010E94D8
:1032E000C51464E271E0C8010E94C51468E271E08F
:1032F000C8010E94C5146CE271E0C8010E94C514A7
:1033000067E171E0C8010E94C5146BE171E0C8017A
:103310000E94C51460E371E0C8010E94C51464E313
:1033200071E0C8010E94C51468E371E0C8010E9401
:10333000C5146FE371E0C8010E94C5146FE171E02C
:10334000C8010E94491460E675E0C8010E94491452
:103350006BE071E0C8010E9447156DE071E0C801A3
:103360000E9447156FE071E0C8010E94471561E1B6
:1033700071E0C8010E94471563E171E0C8010E9435
:10338000471565E171E0C8010E94471569E675E0DF
:10339000C8010E9449146DE371E0C8010E944715FD
:1033A00067E675E0C8010E9447156BE871E0C80147
:1033B0000E94C9156AE871E0C8010E94C91562E05F
:1033C00071E0C8010E94C91561E071E0C8010E9466
:1033D000C9156CE371E0C8010E94C91567E071E08E
:1033E000C8010E94471565E071E0C8010E944715B9
:1033F00063E071E0C8010E94471560E071E0C80118
:103400000E94491469E071E0C8010E94471569E70C
:1034100071E0C8010E94C91564E775E0C8010E9407
:10342000491462E775E0C8010E94491463E775E03A
:10343000C8010E94C91563E4E62E61E0F62EAD8056
:10344000BE80C5010E944714D82EC50188539F4FE6
:103450000E944714C82EC50180579E4F0E944714F2
:10346000DC107BC1D81279C1D701DC926091EB04EA
:103470007091EC048091ED049091EE04D7014D9190
:103480007D010E9409072B013C014092EB04509200
:10349000EC046092ED047092EE048D819E810196A1
:1034A0009E838D83B9E7EB16B1E0FB0641F61982E6
:1034B0001A821B821C82FE0131967F01AD80BE8084
:1034C000C5010E944714D82EC50188539F4F0E9402
:1034D0004714C82EC50180579E4F0E944714DC1028
:1034E0006FC1D8126DC1D701DC926091EB0470916D
:1034F000EC048091ED049091EE04D7014D917D0193
:103500000E9409076093EB047093EC048093ED0430
:103510009093EE048D819E8101969E838D83E016AB
:10352000F10661F689819A81AB81BC81841595058C
:10353000A605B70509F478C162E370E080E090E089
:103540000E941B0583EC95E00E94F50862E370E0A1
:1035500080E090E00E941B05E09153068E2F90E0E2
:10356000FC01EE0FFF1FE80FF91FE55DF94F8081A9
:1035700086FF02C08F7B8083E09150068E2F90E003
:10358000FC01EE0FFF1FE80FF91FE55DF94F808189
:1035900086FF02C08F7B808364E670E080E090E06D
:1035A0000E941B0512E060E0812F0E94A50460E0EC
:1035B000812F0E9477041F5F1536A9F761E08DE027
:1035C0000E94A50462E370E080E090E00E941B0589
:1035D00061E08DE00E94770468EC70E080E090E0AC
:1035E0000E941B0560E08DE00E94770468EC70E0AB
:1035F00080E090E00E941B0561E08DE00E9477046E
:1036000068EC70E080E090E00E941B0560E08DE0D7
:103610000E94770468EC70E080E090E00E941B0557
:1036200061E08DE00E94770468EC70E080E090E05B
:103630000E941B0560E08DE00E94770468EC70E05A
:1036400080E090E00E941B0560E971E080E090E07E
:103650000E941B0561E08DE00E94770464EF71E039
:1036600080E090E00E941B0560E08DE00E947704FE
:1036700060E971E080E090E00E941B0561E08DE070
:103680000E94770464EF71E080E090E00E941B05E7
:1036900060E08DE00E94770460E971E080E090E0F6
:1036A0000E941B0561E08DE00E94770464EF71E0E9
:1036B00080E090E00E941B0560E08DE00E947704AE
:1036C00060E971E080E090E00E941B0560E971E034
:1036D00080E090E00E941B0561E08DE00E9477048D
:1036E00068EC70E080E090E00E941B0560E08DE0F7
:1036F0000E94770468EC70E080E090E00E941B0577
:1037000061E08DE00E94770468EC70E080E090E07A
:103710000E941B0560E08DE00E94770468EC70E079
:1037200080E090E00E941B0561E08DE00E9477043C
:1037300068EC70E080E090E00E941B0560E08DE0A6
:103740000E94770468EC70E080E090E00E941B0526
:1037500068EE73E080E090E039CF6D2D682B6C212E
:10376000D8226D29F7016083C5010E9477118D81F0
:103770009E81D7016C9188539F4F0E9477118D8154
:103780009E81F701608180579E4F0E94771161E012
:103790008DE00E94A50460E08DE00E94770464E65D
:1037A00070E080E090E00E941B0561E08DE00E94E7
:1037B000770464E670E080E090E00E941B0556CE3E
:1037C0006D2D682B6C21D8226D29F70160838D81C6
:1037D0009E810E9477118D819E81D7016C918853C3
:1037E0009F4F0E9477118D819E81F70160818057E4
:1037F0009E4F0E94771161E08DE00E94A50460E079
:103800008DE00E94770464E670E080E090E00E9422
:103810001B0561E08DE00E94770464E670E080E0C3
:1038200090E00E941B0561CE64E670E080E090E0CD
:103830000E941B050E94240A64E670E080E090E08C
:103840000E941B050E94240A64E670E080E090E07C
:103850000E941B050E94240A60E080918B010E9457
:10386000A50460E080918A010E94A50460E0809137
:103870003C010E94A50462E0809179010E94A504A8
:1038800010E009E080917305181758F4019FF001CA
:103890001124ED5BFE4F62E080810E94A5041F5F52
:1038A000F1CF6091020170E083E596E00E94AD06E1
:1038B0006091010170E080E596E00E94AD066091A4
:1038C0000B0170910C0183E596E00E9476066091F1
:1038D00011017091120180E596E00E94760664E67F
:1038E00070E080E090E00E941B058EE895E00E9469
:1038F0008A05F82EBFEF8B1709F48DC5ECE28E1305
:10390000C2C6E0913A05F0E0E250FB4F108262EC53
:1039100071E08EEF94E00E94BB2D7C0162EC71E0BF
:1039200090E080E00E94BB2D8C01AFEEB4E0EFE0B0
:103930001D92EA95E9F765EC71E0C7010E949534A4
:10394000892BB9F5C8010E949D2D80938601909323
:1039500087019F938F9343ED51E05F934F93AFEEB9
:10396000B4E0BF93AF930E94A5340F900F900F90D7
:103970000F900F900F9087EF95E00E943B0685EC2B
:1039800094E00E94F3088AEE95E00E943B06C7018E
:103990000E94F30884EC94E00E94F3088FED95E018
:1039A0000E943B068FEE94E00E94F30887EE94E0BD
:1039B00015C566ED71E0C7010E949534892B41F46D
:1039C000C8010E949D2D8093840190938501C1CFF1
:1039D00067EE71E0C7010E949534892B41F4C8015C
:1039E0000E949D2D8093820190938301B2CF64EF5A
:1039F00071E0C7010E949534892B69F4C8010E94C7
:103A00009D2D97FF03C09195819591098093880121
:103A1000909389019ECF6FEF71E0C7010E949534AA
:103A2000892B41F4C8010E949D2D80937E019093C3
:103A30007F018FCF6AE072E0C7010E949534892B25
:103A400041F4C8010E949D2D80937C0190937D01DB
:103A500080CF6BE172E0C7010E949534892B41F45D
:103A6000C8010E949D2D80937A0190937B0171CFB4
:103A700068E272E0C7010E949534892B69F4C8019D
:103A80000E949D2D97FF03C0919581959109809388
:103A90008001909381015DCF63E372E0C7010E94D2
:103AA0009534892B09F5C8010E94992D20E030E05A
:103AB000A9010E945C34181694F4C8010E94992D43
:103AC0006093200170932101809322019093230140
:103AD0000FEE14E024E040E00E947B2D4CCFC801A3
:103AE0000E94992D9058ECCF68E472E0C7010E94C3
:103AF0009534892BD9F4C8010E94992D20E030E03B
:103B0000A9010E945C34181664F4C8010E94992D22
:103B100060932401709325018093260190932701DF
:103B2000D7CFC8010E94992D9058F2CF6DE572E071
:103B3000C7010E949534892BD9F4C8010E94992DA0
:103B400020E030E0A9010E945C34181664F4C8013A
:103B50000E94992D609328017093290180932A0176
:103B600090932B01B5CFC8010E94992D9058F2CFA8
:103B700063E772E0C7010E949534892BD9F4C8012C
:103B80000E94992D20E030E0A9010E945C341816B3
:103B900064F4C8010E94992D60932C0170932D014B
:103BA00080932E0190932F0193CFC8010E94992DED
:103BB0009058F2CF69E872E0C7010E949534892BD2
:103BC000D9F4C8010E94992D20E030E0A9010E949B
:103BD0005C34181664F4C8010E94992D6093170193
:103BE000709318018093190190931A0171CFC80145
:103BF0000E94992D9058F2CF6EE972E0C7010E94A1
:103C00009534892BD9F4C8010E94992D20E030E029
:103C1000A9010E945C34181664F4C8010E94992D11
:103C200060931B0170931C0180931D0190931E01F2
:103C30004FCFC8010E94992D9058F2CF63EB72E0EC
:103C4000C7010E949534892B09F062C0C8010E9407
:103C5000992D20E030E0A9010E945C34181674F41C
:103C6000C8010E94992D20E030E0A9010E949731FF
:103C700087FF0EC060E070E0CB012CC0C8010E943D
:103C8000992D20E030E0A9010E945C34181694F3CD
:103C9000C8010E94992D20E030E0A9010E945C3407
:103CA00018160CF5C8010E94992D20E030E040E87C
:103CB0005FE30E945C3418160CF1C8010E94992D34
:103CC00020E030E0A9010E945C341816E4F4C80139
:103CD0000E94992D609330017093310180933201DD
:103CE00090933301F5CEC8010E94992D20E030E079
:103CF00040E85FEB0E94973187FFDFCF60E070E024
:103D000080E89FE3E7CFC8010E94992D9058E2CF49
:103D100063EC72E0C7010E949534892B09F062C000
:103D2000C8010E94992D20E030E0A9010E945C3476
:103D3000181674F4C8010E94992D20E030E0A90102
:103D40000E94973187FF0EC060E070E0CB012CC06D
:103D5000C8010E94992D20E030E0A9010E945C3446
:103D6000181694F3C8010E94992D20E030E0A901B3
:103D70000E945C3418160CF5C8010E94992D20E0B1
:103D800030E040E85FE30E945C3418160CF1C80193
:103D90000E94992D20E030E0A9010E945C341816A1
:103DA000E4F4C8010E94992D6093340170933501A9
:103DB00080933601909337018BCEC8010E94992DD4
:103DC00020E030E040E85FEB0E94973187FFDFCFD3
:103DD00060E070E080E89FE3E7CFC8010E94992D82
:103DE0009058E2CF64ED72E0C7010E949534892BB0
:103DF00009F062C0C8010E94992D20E030E0A901BD
:103E00000E945C34181674F4C8010E94992D20E0B9
:103E100030E0A9010E94973187FF0EC060E070E09A
:103E2000CB012CC0C8010E94992D20E030E0A901EF
:103E30000E945C34181694F3C8010E94992D20E06A
:103E400030E0A9010E945C3418160CF5C8010E94EC
:103E5000992D20E030E040E85FE30E945C341816C2
:103E60000CF1C8010E94992D20E030E0A9010E94C8
:103E70005C341816E4F4C8010E94992D609338014F
:103E80007093390180933A0190933B0121CEC80190
:103E90000E94992D20E030E040E85FEB0E949731CE
:103EA00087FFDFCF60E070E080E89FE3E7CFC801E5
:103EB0000E94992D9058E2CF6FED72E0C7010E94E9
:103EC0009534892B61F4C8010E94992D60933F01BC
:103ED000709340018093410190934201F9CD69EFC5
:103EE00072E0C7010E949534892BA1F4C8010E9499
:103EF0009D2D21E0009709F420E020931F016EEA38
:103F000071E0892B11F463EB71E08FEE94E00E9475
:103F10009E3431CD60E173E0C7010E949534892B56
:103F200051F4C8010E949D2D21E0009709F420E082
:103F300020936005E4CF68E273E0C7010E949534E6
:103F4000892B41F4C8010E949D2D80930B01909311
:103F50000C01FFCC6AE373E0C7010E949534892B02
:103F600041F4C8010E949D2D80930D0190930E0194
:103F7000F0CC6AE473E0C7010E949534892B41F4C8
:103F8000C8010E949D2D80930F0190931001E1CCF8
:103F90006AE573E0C7010E949534892B41F4C8019A
:103FA0000E949D2D8093110190931201D2CC6DE659
:103FB00073E0C7010E949534892B41F4C8010E9427
:103FC0009D2D8093130190931401C3CC6EE773E091
:103FD000C7010E949534892B41F4C8010E949D2D90
:103FE0008093150190931601B4CC6FE873E0C7017C
:103FF0000E949534892B51F4C8010E949D2D21E027
:10400000009709F420E02093690579CF6EE973E009
:10401000C7010E949534892B41F4C8010E949D2D4F
:1040200080933D0190933E0194CC62EB73E0C70115
:104030000E949534892B41F4C8010E949D2D8093E4
:1040400067059093680585CC66EC73E0C7010E9414
:104050009534892B61F4C8010E949D2D80938B01BA
:1040600060E00E94A50480918B011F9273CC60EDEB
:1040700073E0C7010E949534892B59F4C8010E944E
:104080009D2D80938A0160E00E94A50480918A01A1
:10409000ECCF6AED73E0C7010E949534892B61F57E
:1040A00060910B0170910C0183E596E00E94760609
:1040B000E09153068E2F90E0FC01EE0FFF1FE80FFA
:1040C000F91FE55DF94F80818F7B8083C8010E94D5
:1040D0009D2D80930201BC01772783E596E00E9425
:1040E000AD0660910B0170910C0183E596E00E9492
:1040F000760680910201B9CF64EF73E0C7010E9498
:104100009534892B61F5609111017091120180E560
:1041100096E00E947606E09150068E2F90E0FC011A
:10412000EE0FFF1FE80FF91FE55DF94F80818F7BD0
:104130008083C8010E949D2D80930101BC017727D7
:1041400080E596E00E94AD06609111017091120128
:1041500080E596E00E9476068091010186CF6FE0AF
:1041600074E0C7010E949534892B59F4C8010E945C
:104170009D2D80933C0160E00E94A50480913C014C
:1041800074CF6EE174E0C7010E949534892B41F42D
:10419000C8010E949D2D8093070190930801D9CBFF
:1041A0006FE274E0C7010E949534892B41F4C80185
:1041B0000E949D2D8093050190930601CACB61E476
:1041C00074E0C7010E949534892B61F4C8010E94F4
:1041D0009D2D97FF02C090E080E0909304018093B2
:1041E0000301B7CB68E574E0C7010E949534892BC1
:1041F00051F4C8010E949D2D21E0009709F420E0B0
:10420000209300017CCE6DE674E0C7010E949534D6
:10421000892B41F4C8010E949D2D80930901909340
:104220000A0197CB64E974E0C7010E949534892B99
:1042300059F4C8010E949D2D8093790162E00E948B
:10424000A5048091790111CF6DE774E0C7010E9448
:104250009534892B51F4C8010E949D2D21E00097CF
:1042600009F420E0209374054ACE60E974E0C701A8
:104270000E949534892B51F4C8010E949D2D21E0A4
:10428000009709F420E02093720539CE64EA74E0C7
:10429000C7010E949534892B79F4C8010E949D2D95
:1042A00097FD06C0873091052CF480937305DDCE11
:1042B00080E0FBCF86E0F9CF68EA74E0C7010E9496
:1042C0009534892B09F08DC0C8010E949D2D6C0189
:1042D0005C01F1E0AF1AB10826E0A216B10408F0C3
:1042E00098C062EC74E0C8010E94BB2D62EC74E0DF
:1042F00090E080E00E94BB2D0E949D2D49E04A9DE8
:1043000090014B9D300D1124D901AD5BBE4F7D0155
:104310008C9362EC74E090E080E00E94BB2D0E94E0
:10432000992DF701618372838383948362EC74E037
:1043300090E080E00E94BB2D0E94992DD701159638
:104340006D937D938D939C93189762E08C910E945E
:10435000A50484E896E00E943B0685EC94E00E9468
:10436000F30887E796E00E943B0686EB94E00E9404
:10437000F308C6010E94110984EC94E00E94F3083E
:104380008CE696E00E943B06F70180810E941D0AA0
:1043900083EC91E00E94F308D70111966D917D9115
:1043A0008D919C9114970FEE14E024E040E00E9460
:1043B0007B2DC8010E94F30883EC91E00E94F30872
:1043C000F701658176818781908524E040E00E9435
:1043D0007B2DC8010E94F30888EC94E00E94030939
:1043E00018C06BEC74E0C7010E949534892B39F436
:1043F0000E94B71288E596E00E94F5080AC060EDB9
:1044000074E0C7010E949534892B09F0EEC00E9428
:10441000240A10923A0580913F0581110DC00E9437
:10442000F60460933B0570933C0580933D059093A3
:104430003E0551E050933F05C0903B05D0903C05B0
:10444000E0903D05F0903E05C114D104E104F10473
:1044500009F43EC10E94F6046C197D098E099F097A
:104460000E949C3120E034E244E759E40E94B433D6
:104470006C8B7D8B8E8B9F8B0E94F60460933B052B
:1044800070933C0580933D0590933E058C899D89F2
:10449000AE89BF898093810590938205A09383059F
:1044A000B093840580918B010E94E1046C0190938C
:1044B000800580937F0580918A010E94E1047C0140
:1044C00090937E0580937D0500918801109189016C
:1044D000209186013091870140918401509185019E
:1044E0006091820170918301C6010E94610760930F
:1044F000790570937A0580937B0590937C050091F4
:1045000080011091810120917E0130917F014091C5
:104510007C0150917D0160917A0170917B01C7010E
:104520000E94610760937505709376058093770507
:104530009093780580917405882309F4DFC0E0909A
:104540007305809172058111D2C010927505109289
:1045500076051092770510927805109279051092E1
:104560007A0510927B0510927C0503E411E0F12C92
:10457000EF1409F4C3C0D8018C910E944E04892B1A
:1045800081F5F80121813281438154816091750563
:104590007091760580917705909178050E94483357
:1045A00060937505709376058093770590937805F1
:1045B000D80115962D913D914D915C911897609180
:1045C000790570917A0580917B0590917C050E9418
:1045D00048336093790570937A0580937B059093B7
:1045E0007C05F394075F1F4FC3CF69ED74E0C701EB
:1045F0000E9495348C01892B81F41E821D824BE12F
:1046000050E05A834983BE016F5F7F4FCE0105960C
:104610000E942112F8010995AEC960EE74E0C7014D
:104620000E949534892B19F4F0E0E0E0F4CF6CE9B6
:1046300072E0C7010E949534892B31F4F1E0F093C8
:104640004D0589E396E0D8CE67ED74E0C7010E947E
:104650009534892BA9F410924D0560910B0170914E
:104660000C0183E596E00E9476066091110170913D
:10467000120180E596E00E94760683E296E0BCCEC9
:104680008BE096E0B9CE082F880F110BC8010E946D
:104690007834892B51F483ED8F0D823030F02AE38A
:1046A000F21619F04FE5F412B6CEC8010E948D340F
:1046B00090913A05E92FF0E0E250FB4F808382E0D1
:1046C000890F8C3308F0A7CE9F5F90933A05A3CE55
:1046D0000E94F60460933B0570933C0580933D0572
:1046E00090933E051C8A1D8A1E8A1F8ACFCE809118
:1046F00079010E944E04892B09F427CF8090790517
:1047000090907A05A0907B05B0907C05C0907505CF
:10471000D0907605E0907705F0907805C0926E0510
:10472000D0926F05E0927005F092710520913F01E3
:1047300030914001409141015091420160E070E0B0
:1047400080E89FE30E9447332B013C0120E030E0EA
:10475000A901C701B6010E945C34181624F0F7FACB
:10476000F094F7F8F094A7019601C301B2010E94FA
:10477000FD319B01AC0160E070E080E89FE30E94A6
:1047800047336B017C0120E030E0A9010E945C34DA
:1047900018161CF0C12CD12C7601A7019601C50179
:1047A000B4010E94FD3160936A0570936B0580939C
:1047B0006C0590936D0580916905882309F423C4E5
:1047C000C0906705D0906805E0903D01F0903E01F3
:1047D00080913C010E94E1048C01909366058093D6
:1047E0006505B701FF0C880B990B0E949E314B01A8
:1047F0005C01B801110F880B990B0E949E31A50135
:1048000094010E9447332B013C01B601DD0C880B5B
:10481000990B0E949E31A50194010E9447339B0190
:10482000AC01C301B2010E94B43320E030E0A90121
:104830000E9448336B017C0120E030E0A9010E9416
:10484000973187FDDCC320E030E040E85FE3C7013B
:10485000B6010E945C34181634F4C12CD12C80E8C7
:10486000E82E8FE3F82EC0926105D0926205E092A7
:104870006305F09264058090380190903901A09012
:104880003A01B0903B01C0903401D0903501E090E6
:104890003601F09037014090300150903101609026
:1048A0003201709033018091610590916205A09171
:1048B0006305B0916405888B998BAA8BBB8B20E034
:1048C00030E0A901C701B6010E945C34181624F03B
:1048D000F7FAF094F7F8F09420E030E0A901C30172
:1048E000B2010E945C34181624F077FA709477F8BD
:1048F000709420E030E0A901C501B4010E945C344D
:10490000181624F0B7FAB094B7F8B094A301920146
:10491000688979898A899B890E94FD316A877C87A9
:10492000888F998FC701B6019058288939894A899B
:104930005B890E94FD312B013C01C0906E05D09037
:104940006F05E0907005F090710520E030E0A9015E
:10495000C701B6010E949731882309F46DC320E096
:1049600030E0A901C701B6010E945C34A70196019D
:1049700018160CF055C36A857C85888D998D0E9428
:10498000FD3120E030E0A9010E9448331B018C0179
:104990009101A801B201C3010E945C3418160CF405
:1049A00050C39101A8016A857C85888D998D0E94EC
:1049B000973187FF04C02A843C84088D198DC1017A
:1049C000D80180936E0590936F05A0937005B09306
:1049D000710520916A0530916B0540916C055091ED
:1049E0006D05C501B4010E94FD31288939894A89C4
:1049F0005B890E94FD312B013C01288939894A8954
:104A00005B89C501B40190580E94FD316B017C01A6
:104A1000AC019B01B201C3010E94973187FD14C014
:104A2000A5019401688979898A899B890E94FD3151
:104A30006B017C01AC019B01B201C3010E945C349B
:104A4000181614F062017301C0926A05D0926B05CA
:104A5000E0926C05F0926D0520E030E0A901B10113
:104A6000C8010E94973187FF10C08091600588239C
:104A700061F0F7FAF094F7F8F094C0926A05D092DA
:104A80006B05E0926C05F0926D0580912C01909180
:104A90002D01A0912E01B0912F018A8F9B8FAC8F99
:104AA000BD8F8090280190902901A0902A01B0909C
:104AB0002B018091240190912501A0912601B091B4
:104AC000270188A399A3AAA3BBA3409020015090DB
:104AD0002101609022017090230180911F018111BA
:104AE000B3C2188E198E90E89E8FAFE3AF8FC0903F
:104AF0005C05D0905D05E0905E05F0905F0520E0DC
:104B000030E0A901C301B2010E945C3418161CF008
:104B1000412C512C3201A3019201688D798D8E8D2B
:104B20009F8D0E94FD312B013C0120E030E0A90166
:104B300068A179A18AA19BA10E945C34181624F077
:104B400018A219A21AA21BA220E030E0A901C501F7
:104B5000B4010E945C3418161CF0812C912C540175
:104B6000A5019401688D798D8E8D9F8D0E94FD31F8
:104B70004B015C0120E030E0A9016A8D7B8D8C8DBA
:104B80009D8D0E945C34181624F01A8E1B8E1C8E8C
:104B90001D8EA7019601B101C8010E944733362E30
:104BA000272E8A879C8720E030E0A901C701B60143
:104BB0000E949731811151C2C501B40190582C89CE
:104BC0003D894E895F890E94FD315B018C019B010B
:104BD000AC01632D722D8A859C850E94973187FDDB
:104BE00018C0A30192016C897D898E899F890E94DA
:104BF000FD315B018C019B01AC01632D722D8A8517
:104C00009C850E945C34181624F0A32CB22C0A85D3
:104C10001C859501A801C701B6010E944833262EC4
:104C20007A878C87392E822D9A85AC85B32D809317
:104C30005C0590935D05A0935E05B0935F05809041
:104C40001B0190901C01A0901D01B0901E01C0900E
:104C50001701D0901801E0901901F0901A014090CE
:104C60006A0550906B0560906C0570906D058091A1
:104C7000580590915905A0915A05B0915B058A8F0E
:104C80009B8FAC8FBD8F20E030E0A901C701B6013A
:104C90000E945C3418161CF0C12CD12C7601A7019F
:104CA0009601688D798D8E8D9F8D0E94FD316B01EF
:104CB0007C0120E030E0A901C501B4010E945C3410
:104CC00018161CF0812C912C54012A8D3B8D4C8D93
:104CD0005D8DC301B2010E944733762E672E582E98
:104CE000492E20E030E0A9016A8D7B8D8C8D9D8D51
:104CF0000E94973181114EC22C893D894E895F896E
:104D0000C701B60190580E94FD315B018C019B01E7
:104D1000AC01672D762D852D942D0E94973187FD4E
:104D200018C0A70196016C897D898E899F890E9490
:104D3000FD315B018C019B01AC01672D762D852D2A
:104D4000942D0E945C34181624F0A72CB62C052D47
:104D5000142D9501A8016A8D7B8D8C8D9D8D0E94EF
:104D600048335B018C01C501D801809358059093AD
:104D70005905A0935A05B0935B0580916905882376
:104D800009F451C0C888D988EA88FB88F7FAF094FA
:104D9000F7F8F094222D3A854C85532DC701B601C2
:104DA0000E945C3418160CF48EC2222D3A854C8574
:104DB000532D688979898A899B890E94973187FF59
:104DC00006C0288899899A87AA89AC873B88822D52
:104DD0009A85AC85B32D80935C0590935D05A09377
:104DE0005E05B0935F059501A801C701B6010E9459
:104DF0005C34181684F09501A801688979898A893C
:104E00009B890E9497316501780187FF04C0C8889B
:104E1000D988EA88FB88C0925805D0925905E0925B
:104E20005A05F0925B05E0911501F0911601F98B9E
:104E3000E88B40911301509114015B874A872090C1
:104E400011013090120180910F01909110019D8B02
:104E50008C8BE0900D01F0900E0100910B011091F0
:104E60000C0180915C0590915D05A0915E05B0916B
:104E70005F058C879D87AE87BF874090580550900F
:104E8000590560905A0570905B05A3019201BC0121
:104E9000CD010E9448334B015C0120E030E0A901C4
:104EA0000E949731811114C2B801012E000C880BA9
:104EB000990B0E949E310E942634AB012C893D89BA
:104EC00037FF03C0319521953109F801E21BF30B3F
:104ED0004E175F073CF0F801E20FF31F4E175F0714
:104EE0000CF4FB01F0935705E0935605A3019201E2
:104EF0006C857D858E859F850E9447336B017C0183
:104F000020E030E0A9010E949731811131C2B10146
:104F1000032C000C880B990B0E949E310E942634B2
:104F2000AB012889398937FF03C0319521953109B3
:104F3000F101E21BF30B4E175F073CF0F101E20FAA
:104F4000F31F4E175F070CF4FB01F0935505E09338
:104F500054058FB7F8948090860590908705A090AF
:104F60008805B09089058FBF80915305882341F053
:104F700058EB85165BE09506A104B10408F091C2D8
:104F800080910B0190910C019093570580935605E9
:104F900080911101909112019093550580935405D1
:104FA0000091090110910A01101611061CF081E010
:104FB00080935305C0907905D0907A05E0907B05E9
:104FC000F0907C0520E030E0A901C701B6010E9405
:104FD0005C3418160CF01FC22FE632E143E85AE3A6
:104FE000C701B6010E94973187FD20C210924F057C
:104FF00010925005109251051092520552C2C12CC8
:10500000D12C760130CC80E090E0A0E8BFE3809323
:10501000610590936205A0936305B09364052BCC62
:10502000B201C3010E94FD319B01AC0160E070E060
:10503000CB010E944733AACC212C312C00E010E098
:10504000A7CC12018301BBCCB889B88FE989E98F5D
:10505000FA89FE8F2B892F8F4ACD20E030E0A901FD
:10506000C701B6010E945C3418160CF04BC028A191
:1050700039A14AA15BA1688D798D8E8D9F8D0E948B
:10508000FD3190582C893D894E895F890E94FD3100
:105090005B018C019B01AC01632D722D8A859C857F
:1050A0000E94973187FD18C0A30192016C897D8908
:1050B0008E899F890E94FD315B018C019B01AC01AF
:1050C000632D722D8A859C850E945C34181624F00D
:1050D000A32CB22C0A851C859501A801C701B60135
:1050E0000E944833262E7A878C87392E20E030E0C4
:1050F000A9010E94973187FF96CD212C1A861C8624
:10510000312C91CDC501B40190582C893D894E892F
:105110005F890E94FD315B018C019B01AC01632D15
:10512000722D8A859C850E94973187FD20C02A8D2B
:105130003B8D4C8D5D8D688D798D8E8D9F8D0E9400
:10514000FD312C893D894E895F890E94FD315B01CB
:105150008C019B01AC01632D722D8A859C850E9478
:105160005C34181624F0A32CB22C0A851C859501FA
:10517000A801C701B6010E944833262E7A878C8782
:10518000392E20E030E0A9010E945C3418160CF49E
:10519000B4CF49CDA5019401688D798D8E8D9F8DF9
:1051A0000E94FD314B015C0120E030E0A9016A8DD5
:1051B0007B8D8C8D9D8D0E945C3418160CF043C045
:1051C000C501B40190582C893D894E895F890E94A0
:1051D000FD315B018C019B01AC01672D762D852D86
:1051E000942D0E94973187FD18C0A70196016C8904
:1051F0007D898E899F890E94FD315B018C019B0115
:10520000AC01672D762D852D942D0E945C341816E7
:1052100024F0A72CB62C052D142D9501A8016A8D1C
:105220007B8D8C8D9D8D0E9448335B018C0120E02D
:1052300030E0A9010E94973187FF95CDA12CB12CB8
:1052400000E010E090CDC701B60190582C893D894F
:105250004E895F890E94FD317B018C019B01AC016D
:10526000672D762D852D942D0E94973187FD18C0CE
:10527000A50194016C897D898E899F890E94FD31E9
:105280007B018C019B01AC01672D762D852D942D22
:105290000E945C34181624F0E72CF62C052D142DF2
:1052A0009701A8016A8D7B8D8C8D9D8D0E9448335E
:1052B0005B018C0120E030E0A9010E945C341816EB
:1052C0000CF4BCCF50CD2C2CDA86EC863F2C7FCD55
:1052D00020E030E0A901C501B4010E945C34181639
:1052E00014F5B701600F711F072E000C880B990B86
:1052F0000E949E316B017C016C897D89600F711F5A
:10530000072E000C880B990B0E949E31A701960175
:105310000E944733A50194010E94FD31A701960127
:105320000E944833C8CDB8016E197F09072E000CC2
:10533000880B990B0E949E316B017C01B801AC89EE
:10534000BD896A1B7B0B072E000C880B990B0E94F2
:105350009E31A70196010E944733A50194010E9446
:10536000FD319B01AC01C701B6010E944733A3CDBB
:1053700020E030E0A901C701B6010E945C34181694
:105380001CF56A857B85620D731D072E000C880B4A
:10539000990B0E949E314B015C0168897989620DED
:1053A000731D072E000C880B990B0E949E31A501DE
:1053B00094010E944733A70196010E94FD31A50187
:1053C00094010E944833AACDB101EA85FB856E1B8A
:1053D0007F0B072E000C880B990B0E949E314B010E
:1053E0005C01B10148895989641B750B072E000CBB
:1053F000880B990B0E949E31A50194010E944733AE
:10540000A70196010E94FD319B01AC01C501B401C9
:105410000E94473383CD2FE632E143E85AEBC701C0
:10542000B6010E945C3418160CF0E0CDC0907505F2
:10543000D0907605E0907705F090780520E030E098
:10544000A901C701B6010E945C3418160CF0CFC246
:105450002FE632E143E85AE3C701B6010E949731D3
:1054600087FFC4CD80914F0590915005A0915105C3
:10547000B09152050196A11DB11D80934F059093E7
:105480005005A0935105B0935205012E000C220B3C
:10549000330B081719072A073B071CF491E0909378
:1054A000530510914D0580914E058111ACC2112319
:1054B00081F0609156057091570583E596E00E9452
:1054C0007606609154057091550580E596E00E943E
:1054D00076062FB7F8948091860590918705A09164
:1054E0008805B09189052FBF4091490550914A0523
:1054F00060914B0570914C05841B950BA60BB70B67
:1055000084369105A105B10508F45BC22FB7F89464
:105510008091860590918705A0918805B0918905B5
:105520002FBF8093490590934A05A0934B05B093F4
:105530004C058CE797E00E943B06909348058093CA
:1055400047052FB7F8946091860570918705809183
:105550008805909189052FBF4AE00E94B3082091E9
:10556000470530914805820F931F9093480580931B
:10557000470585EC94E00E949F088C01E090470568
:10558000F090480580E797E00E943B06800F911F4E
:10559000E80EF91EF0924805E092470580917F05DC
:1055A000909180050E94110920914705309148058E
:1055B000820F931F909348058093470585EC94E0F4
:1055C0000E949F088C01E0904705F090480584E612
:1055D00097E00E943B06800F911FE80EF91EF092A3
:1055E0004805E092470580917D0590917E050E94D7
:1055F00011092091470530914805820F931F909320
:1056000048058093470585EC94E00E949F088C0133
:10561000E0904705F090480586E597E00E943B063C
:10562000800F911FE80EF91EF0924805E0924705A1
:105630006091790570917A0580917B0590917C0548
:1056400044E00E9441092091470530914805820FAE
:10565000931F909348058093470585EC94E00E9442
:105660009F088C01E0904705F090480587E497E09B
:105670000E943B06800F911FE80EF91EF09248052C
:10568000E0924705609175057091760580917705E8
:105690009091780544E00E9441092091470530919E
:1056A0004805820F931F909348058093470585EC2A
:1056B00094E00E949F088C01E0904705F090480517
:1056C00085E397E00E943B06800F911FE80EF91ECC
:1056D000F0924805E092470560916A0570916B056C
:1056E00080916C0590916D0544E00E9441092091E4
:1056F000470530914805820F931F9093480580938A
:10570000470585EC94E00E949F088C01E0904705D6
:10571000F090480582E297E00E943B06800F911FBF
:10572000E80EF91EF0924805E092470560916E057B
:1057300070916F05809170059091710544E00E9411
:1057400041092091470530914805820F931F90939E
:1057500048058093470585EC94E00E949F088C01E2
:10576000E0904705F090480582E197E00E943B06F3
:10577000800F911FE80EF91EF0924805E092470550
:10578000609158057091590580915A0590915B057B
:1057900044E00E9441092091470530914805820F5D
:1057A000931F909348058093470585EC94E00E94F1
:1057B0009F088C01E0904705F090480581E097E054
:1057C0000E943B06800F911FE80EF91EF0924805DB
:1057D000E092470560915C0570915D0580915E05E2
:1057E00090915F0544E00E94410920914705309166
:1057F0004805820F931F909348058093470585ECD9
:1058000094E00E949F088C01E0904705F0904805C5
:105810008BEE96E00E943B06800F911FE80EF91E6A
:10582000F0924805E0924705809156059091570502
:105830000E9411092091470530914805820F931F5E
:10584000909348058093470585EC94E00E949F085B
:105850008C01E0904705F090480584ED96E00E94A9
:105860003B06800F911FE80EF91EF0924805E0926A
:10587000470580915405909155050E94110920918A
:10588000470530914805820F931F909348058093F8
:10589000470585EC94E00E949F088C01E090470545
:1058A000F090480583EC96E00E943B06800F911F24
:1058B000E80EF91EF0924805E092470580916505D3
:1058C000909166050E941109209147053091480585
:1058D000820F931F909348058093470585EC94E0D1
:1058E0000E949F088C01E0904705F09048058FEAE0
:1058F00096E00E943B06800F911FE80EF91EF09281
:105900004805E092470580914D05882309F4EDC0D4
:105910008EEA91E00E94AC0820914705309148053D
:10592000820F931F909348058093470585EC94E080
:105930000E949F088C01E0904705F090480585EA99
:1059400096E00E943B06800F911FE80EF91EF09230
:105950004805E092470580915305882309F4C8C0A3
:105960008EEA91E00E94AC082091470530914805ED
:10597000820F931F909348058093470585EC94E030
:105980000E949F088C01E0904705F090480588E947
:1059900096E00E943B06800F911FE80EF91EF092E0
:1059A0004805E0924705C7010E944007BFEFEB1A88
:1059B000FB0A8E0D9F1D0E94110988EE94E00E9443
:1059C000030961E070E080E090E00E941B05E0E0E8
:1059D000F0E0EF2B11F40C94751C0E94B80588239D
:1059E00011F40C94751C0E9400000C94751C2FE699
:1059F00032E143E85AEBC701B6010E945C34181645
:105A00000CF0F4CA2FCD80915305882309F44FCDB3
:105A1000A8EB8A16ABE09A06A104B10408F447CDBE
:105A200010924E051123E9F180910D0190910E0124
:105A3000181619060CF053C081E090E02091070180
:105A400030910801829FB001839F700D929F700D6D
:105A5000112480910B0190910C01680F791F83E54F
:105A600096E00E9476068091130190911401181619
:105A70001906C4F581E090E02091050130910601FE
:105A8000829FB001839F700D929F700D11248091B1
:105A9000110190911201680F791F80E596E00E9434
:105AA00076066091030170910401072E000C880BAB
:105AB000990B0E941B05112309F40BCD60910B017A
:105AC00070910C0183E596E00E94760660911101C9
:105AD0007091120180E596E00E947606EACC8FEF85
