:100000000C9422040C944A040C944A040C94311E5F
:100010000C94D11D0C94631D0C944D1F0C944A0438
:100020000C944A040C944A040C944A040C94911EB7
:100030000C944A040C944A040C944A040C944A0408
:100040000C94C11C0C944A040C94311D0C940B1D8F
:100050000C944A040C944A040C944A040C944A04E8
:100060000C944A040C944A044E414E494E4954594A
:10007000494E46CDCCCC3D0AD7233C17B7D1387773
:10008000CC2B329595E6241FB14F0A000020410089
:1000900000C84200401C4620BCBE4CCA1B0E5AAED3
:1000A000C59D7400407A10F35A00A0724E180900E2
:1000B00010A5D4E80000E87648170000E40B5402CD
:1000C0000000CA9A3B000000E1F505000080969808
:1000D00000000040420F000000A086010000001058
:1000E0002700000000E8030000000064000000009A
:1000F000000A00000000000100000000002C76D87B
:1001000088DC674F0823DFC1DFAE59E1B1B796E560
:10011000E3E453C63AE651997696E8E6C28426EBC4
:10012000898C9B62ED407C6FFCEFBC9C9F40F2BAD7
:10013000A56FA5F490055A2AF75C936B6CF9676D6F
:10014000C11BFCE0E40D47FEF520E6B500D0ED90C4
:100150002E0300943577050080841E080000204E91
:100160000A000000C80C333333330F986E1283112A
:1001700041EF8D2114893BE65516CFFEE6DB18D101
:10018000844B381BF77C1D901DA4BBE424203284D3
:10019000725E228100C9F124ECA1E53D272243488B
:1001A00045434B53554D223A005D2C002C002C004A
:1001B000223A5B002244524956455F425554544FFF
:1001C0004E5F0052494748545F4D4F544F525F466F
:1001D0004153540052494748545F4D4F544F525F6A
:1001E000534C4F570052494748545F4D4F544F525C
:1001F0005F43454E544552004C4546545F4D4F5465
:100200004F525F46415354004C4546545F4D4F5446
:100210004F525F534C4F57004C4546545F4D4F541F
:100220004F525F43454E54455200595F4445414447
:100230005A4F4E4500434F4E54524F4C5F444F5718
:100240004E00434F4E54524F4C5F43454E5445521F
:100250005F5900434F4E54524F4C5F555000585F0A
:10026000444541445A4F4E4500434F4E54524F4C23
:100270005F4C45465400434F4E54524F4C5F4345EC
:100280004E5445525F5800434F4E54524F4C5F52AC
:10029000494748540063757272656E7420736574C3
:1002A00074696E67732C2076657273696F6E3A009D
:1002B0007B00000000006410B71DC8206E3BAC300E
:1002C000D9269041DC76F4516B6B5861B24D3C718C
:1002D00005502083B8ED44930FF0E8A3D6D68CB335
:1002E00061CBB0C2649BD4D2D38678E20AA01CF260
:1002F000BDBD2276616C7565223A202200227365AD
:100300007474696E67223A2022007B2272657375CD
:100310006C74223A20226368616E676522007B223A
:10032000726573756C74223A20226E6F2063686167
:100330006E6765227D007B22726573756C74223A4C
:10034000202273746F70706564227D007B22726559
:1003500073756C74223A20226D6F76656D656E74CC
:1003600020616C6C6F776564227D007B22726573FF
:10037000756C74223A20227361766564227D004F89
:100380004F424148004F46465F42004F4E5F420099
:10039000554F4F42004E535553005350480053544D
:1003A0004F505F50494E00555353004E52535553D2
:1003B000005250500052435000525350005254507B
:1003C000005553455F5243005354454552494E47EB
:1003D0005F4F46465F5357495443485F50494E006C
:1003E0005354454552494E475F4F46465F53574920
:1003F000544348002276616C7565223A5B00227393
:10040000657474696E67223A2022007B22726573DC
:10041000756C74223A20226368616E676522004E13
:10042000554D5F44524956455F425554544F4E53C3
:1004300000425554544F4E5F4D4F44455F50494E16
:1004400000425554544F4E5F4D4F44455F544F4703
:10045000474C45005553455F425554544F4E5F4DF0
:100460004F44455F50494E00454E41424C455F4226
:100470005554544F4E5F4354524C004A4F595F43BA
:10048000414C49425F434F554E54005354415254DE
:100490005F4D4F544F525F50554C53455F54494D3B
:1004A000450052494748545F4D4F544F525F505595
:1004B0004C5345004C4546545F4D4F544F525F508E
:1004C000554C534500454E41424C455F53544152B3
:1004D0005455505F50554C53450052494748545F5E
:1004E0004D4F544F525F434F4E54524F4C4C455218
:1004F0005F50494E004C4546545F4D4F544F525F3C
:10050000434F4E54524F4C4C45525F50494E004A57
:100510004F595F595F50494E004A4F595F585F50DD
:10052000494E0053504545445F4B4E4F425F504942
:100530004E005343414C455F414343454C5F57494F
:1005400054485F53504545440053504545445F4B24
:100550004E4F425F464153545F56414C0053504505
:1005600045445F4B4E4F425F534C4F575F56414C93
:10057000005553455F53504545445F4B4E4F420035
:10058000524556455253455F5455524E5F494E5F52
:1005900052455645525345005343414C455F5455CF
:1005A000524E494E475F5748454E5F4D4F56494E54
:1005B00047005455524E5F53504545440046415301
:1005C000544553545F4241434B57415244004641C6
:1005D00053544553545F464F52574152440044458B
:1005E00043454C45524154494F4E5F5455524E4934
:1005F0004E4700414343454C45524154494F4E5F9D
:100600005455524E494E4700444543454C4552418E
:1006100054494F4E5F4241434B574152440041437E
:1006200043454C45524154494F4E5F4241434B571D
:1006300041524400444543454C45524154494F4E74
:100640005F464F525741524400414343454C455247
:100650004154494F4E5F464F525741524400870222
:10066000760269025E025302420235022A024906FC
:1006700034061E060806F305DE05CE05BD05B205E7
:100680009805800518020802F801E501D401C301AC
:1006900071055D0549053205230519050F05F504AA
:1006A000DA04C504B404A2048B047B046804540473
:1006B000410431041F04E003C803A7039E039A0307
:1006C000950390038B0385037F03C103B903BD0327
:1006D000B103B503AB037B226572726F72223A20BD
:1006E00022656570726F6D206661696C7572652236
:1006F0007D007B226572726F72223A2022656570DE
:10070000726F6D206661696C757265227D002C22A6
:10071000434845434B53554D223A0022625F6D5F7B
:1007200070223A00627574746F6E73006A6F794F4D
:100730004B006D6F76656D656E74416C6C6F77659F
:10074000640073706565644B6E6F6256616C007215
:10075000696768744D6F746F72577269746556611A
:100760006C006C6566744D6F746F72577269746556
:1007700056616C007370656564546F447269766588
:10078000007475726E546F4472697665007370659B
:10079000656450726F636573736564007475726E1F
:1007A00050726F6365737365640073706565644947
:1007B0006E707574007475726E496E707574006A2F
:1007C0006F795956616C006A6F795856616C006395
:1007D000757272656E742076616C7565732C206D10
:1007E000696C6C69733A0000000000240027002A3D
:1007F0000000000000250028002B0000000000235E
:100800000026002900040404040404040402020273
:100810000202020303030303030102040810204041
:1008200080010204081020010204081020000000CA
:10083000080002010000030407000000000000009F
:1008400000006A2011241FBECFEFD8E0DEBFCDBF6D
:1008500012E0A0E0B1E0E0E6F6E702C005900D92FC
:10086000AC39B107D9F724E0ACE9B2E001C01D9280
:10087000AA33B207E1F714E0C2E2D4E004C0219742
:10088000FE010E945A38C132D107C9F70E94E12007
:100890000C942E3B0C940000833081F028F48130BE
:1008A00099F08230A9F008958730A9F08830C9F016
:1008B0008430B1F4809180008F7D03C080918000EE
:1008C0008F7780938000089584B58F7784BD0895D5
:1008D00084B58F7DFBCF8091B0008F778093B0007F
:1008E00008958091B0008F7DF9CFCF93DF93282FAB
:1008F00030E0F901E35DF74F8491F901E75EF74FCE
:10090000D491F901EB5FF74FC491CC23A1F0811191
:100910000E944C04EC2FF0E0EE0FFF1FE550F84F63
:10092000A591B491EC91ED2381E090E009F480E091
:10093000DF91CF91089580E090E0FACF1F93CF939D
:10094000DF93282F30E0F901E35DF74F8491F9013F
:10095000E75EF74FD491F901EB5FF74FC491CC23D9
:10096000A9F0162F81110E944C04EC2FF0E0EE0F3D
:10097000FF1FEF50F84FA591B4918FB7F894EC9109
:10098000111108C0D095DE23DC938FBFDF91CF918A
:100990001F910895DE2BF8CFCF93DF9390E0FC01F9
:1009A000E75EF74F24918B5F974FFC01849188237A
:1009B000C9F090E0880F991FFC01E951F84FA5910B
:1009C000B491FC01EF50F84FC591D49161110DC065
:1009D0009FB7F8948C91209582238C93888128234B
:1009E00028839FBFDF91CF910895623051F49FB764
:1009F000F8943C91822F809583238C93E8812E2B51
:100A0000EFCF8FB7F894EC912E2B2C938FBFEACFBA
:100A10008E3008F08E508770806480937C008091C7
:100A20007A00806480937A0080917A0086FDFCCF02
:100A3000809178009091790008953FB7F894809163
:100A40006A0390916B03A0916C03B0916D0326B57E
:100A5000A89B05C02F3F19F00196A11DB11D3FBFF6
:100A6000BA2FA92F982F8827BC01CD01620F711DC5
:100A7000811D911D42E0660F771F881F991F4A95BF
:100A8000D1F708958F929F92AF92BF92CF92DF924B
:100A9000EF92FF926B017C010E941D054B015C01EE
:100AA000C114D104E104F104B9F00E941D056819D4
:100AB00079098A099B09683E73408105910580F395
:100AC00021E0C21AD108E108F10888EE880E83E01F
:100AD000981EA11CB11CE4CFFF90EF90DF90CF9047
:100AE000BF90AF909F908F9008952FB7F89460912A
:100AF00066037091670380916803909169032FBF2B
:100B00000895AF92BF92CF92DF92EF92FF920F9330
:100B10001F93CF93DF936C017B018B01040F151F93
:100B2000EB015E01AE18BF08C017D10759F06991FB
:100B3000D601ED91FC910190F081E02DC60109955F
:100B4000892B79F7C501DF91CF911F910F91FF900C
:100B5000EF90DF90CF90BF90AF900895FC01538D40
:100B6000448D252F30E0842F90E0821B930B541787
:100B700010F0CF96089501970895FC01918D828D14
:100B8000981761F0A28DAE0FBF2FB11D5D968C91AD
:100B9000928D9F5F9F73928F90E008958FEF9FEFEC
:100BA0000895FC01918D828D981731F0828DE80FA8
:100BB000F11D858D90E008958FEF9FEF0895FC0162
:100BC000918D228D892F90E0805C9F4F821B91092F
:100BD0008F73992708958EE693E00E94DF0521E048
:100BE000892B09F420E0822F089580E090E0892B82
:100BF00029F00E94EB0581110C9400000895FC017E
:100C0000A48DA80FB92FB11DA35ABF4F2C91848D6D
:100C100090E001968F739927848FA689B7892C93CA
:100C2000A089B1898C91837080648C93938D848D1D
:100C3000981306C00288F389E02D80818F7D808320
:100C40000895EF92FF920F931F93CF93DF93EC01E0
:100C500081E0888F9B8D8C8D98131AC0E889F98963
:100C6000808185FF15C09FB7F894EE89FF89608366
:100C7000E889F98980818370806480839FBF81E0E7
:100C800090E0DF91CF911F910F91FF90EF90089529
:100C9000F62E0B8D10E00F5F1F4F0F731127E02E04
:100CA0008C8D8E110CC00FB607FCFACFE889F9893C
:100CB000808185FFF5CFCE010E94FF05F1CFEB8D3E
:100CC000EC0FFD2FF11DE35AFF4FF0829FB7F89410
:100CD0000B8FEA89FB8980818062CFCF0F931F93AE
:100CE000CF93DF938C01D0E0C0E0F801EC0FFD1F43
:100CF0006491662341F08EE693E00E942106892BE1
:100D000011F02196F2CFCE01DF91CF911F910F917B
:100D10000895CF93DF93EC01888D8823B9F0AA89D9
:100D2000BB89E889F9898C9185FD03C0808186FDA6
:100D30000DC00FB607FCF7CF8C9185FFF2CF8081F5
:100D400085FFEDCFCE010E94FF05E9CFDF91CF9166
:100D500008950895DC01EC91EC3090F511968C919A
:100D6000119728E830E0281B310987FD3395220FC1
:100D7000331F220F331F6217730784F012968C9172
:100D800028E532E0281B310987FD3395220F331FF8
:100D9000220F331F621773070CF49B012250310995
:100DA000220F331F4FB7F8948E2F90E0FC01EE0F07
:100DB000FF1FE80FF91FE55FFB4F328321834FBF11
:100DC00008951F93CF93DF93EC01162F88818C3009
:100DD00008F04EC061E0812F0E94CC048881282F4A
:100DE00030E0F901EE0FFF1FE20FF31FE55FFB4F4D
:100DF0001F736081607C612B608319821A822CE0F2
:100E0000622F0E944E38829FB001112430E020E012
:100E1000AB01420F531FFA01EE0FFF1FE40FF51F46
:100E2000E55FFB4F908196FD16C02F5F3F4F2C3042
:100E3000310571F781110FC01092800082E080931C
:100E400081001092850010928400B19A80916F0009
:100E5000826080936F00E8818E2F90E0FC01EE0F9E
:100E6000FF1FE80FF91FE55FFB4F808180648083DF
:100E70008881DF91CF911F9108950F931F93E42FE5
:100E8000E627EF7024E0E29FF0011124EE54FD4FBD
:100E9000059115912591349154E096958795779514
:100EA00067955A95D1F76027712782279327E42FFA
:100EB000E295EF70E627EF7024E0E29FF001112445
:100EC000EE54FD4F0591159125913491E4E09695EE
:100ED000879577956795EA95D1F7602771278227DF
:100EE00093271F910F9108950E946E062091200371
:100EF00030912103820F931F90932103809320034D
:100F000008952F923F924F925F926F927F928F92AD
:100F10009F92AF92BF92CF92DF92EF92FF920F9388
:100F20001F93CF93DF93EC016A01790117FF02C091
:100F300010E000E06E157F050CF019C11601201AB3
:100F4000310AC215D3050CF093C0621573050CF07D
:100F50008FC0072E000C880B990B0E9486354B0121
:100F60005C01BE010D2E000C880B990B0E9486358A
:100F7000A50194010E942F372B013C01B101330CD4
:100F8000880B990B0E948635A50194010E942F378A
:100F90009B01AC01C301B2010E949C3720E030E00C
:100FA00040E85FE30E942F374B015C010C0D1D1DD3
:100FB0000C171D079CF50E151F0584F5B701FF0CD6
:100FC000880B990B0E9486356B017C01BE01DD0FF9
:100FD000880B990B0E948635A70196010E942F3736
:100FE0004B015C01B7FAB094B7F8B094B801110F97
:100FF000880B990B0E948635A70196010E942F3716
:101000009B01AC01C501B4010E949C3720E030E097
:1010100040E85FE30E9430374B015C0120E030E0A4
:1010200040E85FEBC501B4010E947F3587FD91C0A8
:1010300020E030E040E85FE3C501B4010E9444389D
:1010400018160CF48DC0C501B401DF91CF911F912A
:101050000F91FF90EF90DF90CF90BF90AF909F9057
:101060008F907F906F905F904F903F902F9008955A
:10107000812C912C54019ACF18012C0C3D1C2C165C
:101080003D060CF062C0261637060CF05EC0072E37
:10109000000C880B990B0E9486354B015C01BE0148
:1010A0000D2E000C880B990B0E948635A50194012A
:1010B0000E942F372B013C01B101330C880B990B97
:1010C0000E948635A50194010E942F379B01AC0137
:1010D000C301B2010E949C3720E030E040E85FE3AA
:1010E0000E942F374B015C01C01AD10ACC15DD05D7
:1010F0000CF094CFEC14FD040CF090CFB701FF0C72
:10110000880B990B0E9486354B015C01BE01DD0FF7
:10111000880B990B0E948635A50194010E942F37F8
:101120002B013C0177FA709477F87094B601DD0CCE
:10113000880B990B0E948635A50194010E942F37D8
:101140009B01AC01C301B2015FCF812C912C5401F2
:10115000CBCF812C912C90E8A92E9FEBB92E73CF89
:10116000812C912C80E8A82E8FE3B82E6CCFE61648
:10117000F7060CF481CF812C912C540164CFAF92EF
:10118000BF92CF92DF92EF92FF920F931F93CF9374
:10119000DF9398E2A92E91E0B92E2CE2E22E21E015
:1011A000F22E850162E0D8018D918D010E94CC0460
:1011B000E016F106B9F7EDEBF1E085ECC82E81E021
:1011C000D82E41E050E021913191E50189915E01F5
:1011D000863188F590E1883050F091E08E3008F447
:1011E00090E0990F990F990F8E3018F58850890F5C
:1011F000A82FA695A695A69509F081C081111DC0BE
:1012000030930101209300018A0101C0000F8A95EB
:10121000EAF7202F8091BF02802B8093BF0280913C
:10122000BC02802B8093BC0283B18093C20280E019
:1012300030C08E50DCCF8FEFDBCF813029F430937C
:10124000030120930201E0CF823009F042C03093C5
:1012500005012093040187708A0101C0000F8A955F
:10126000EAF7202F8A2F90E0BC0161547D4FEB01FB
:101270003881302B3883BC0164547D4FEB013881B9
:10128000302B3883A13009F454C070F2A23009F435
:1012900093C0B0E0A559BF4F9C91292B2C939091FE
:1012A00068009A0101C0220F8A95EAF7892F822BE4
:1012B00080936800CE16DF0609F085CFDF91CF91CD
:1012C0001F910F91FF90EF90DF90CF90BF90AF9064
:1012D0000895833029F43093070120930601BBCF92
:1012E000843029F43093090120930801B4CF85306C
:1012F00009F08ACF30930B0120930A01ACCFA130C3
:1013000009F040C08830D9F430930D0120930C01CE
:1013100087708A0101C0000F8A95EAF7202F80911B
:10132000C002802B8093C0028091BD02802B8093ED
:10133000BD0286B18093C30281E090E0AACF8930DC
:1013400029F430930F0120930E01E2CF8A3029F463
:101350003093110120931001DBCF8B3029F43093AF
:1013600013012093120177CF8C3029F430931501AB
:101370002093140170CF8D3059F6309317012093CC
:10138000160169CFA23009F095CF8031D9F430939E
:1013900021012093200187708A0101C0000F8A95E6
:1013A000EAF7202F8091C102802B8093C1028091A7
:1013B000BE02802B8093BE0289B18093C40282E07A
:1013C00090E067CF813129F43093230120932201EB
:1013D000E2CF823129F43093250120932401DBCF21
:1013E000833129F43093270120932601D4CF84310F
:1013F00029F43093190120931801CDCF853129F4B8
:1014000030931B0120931A0126CF863129F43093A3
:101410001D0120931C011FCF873109F0BCCF3093F1
:101420001F0120931E0117CFCF92DF92EF92FF9200
:101430000F931F93CF93DF93C82FD0E0FE01E85D99
:10144000FE4F80810E9475048E01000F111F000F56
:10145000111F0197E1F40E941D05F801E456FD4FAC
:1014600060837183828393830E94750560931B035D
:1014700070931C0380931D0390931E03DF91CF9103
:101480001F910F91FF90EF90DF90CF9008950E94F1
:101490001D05F801E456FD4FC080D180E280F38045
:1014A0006C197D098E099F09CC0FDD1F61347C49C1
:1014B00081059105C8F40E941D05CE5EDC4F24E233
:1014C0003AEF2C193D09620F731F653F81E07807E1
:1014D00014F064EF71E06C302EEF720714F46CE0DE
:1014E0007EEF79836883CACFCE5EDC4F1982188283
:1014F000C5CF83E00C94140A82E00C94140A81E0B6
:101500000C94140A80E00C94140AFC010190002051
:10151000E9F73197AF01481B590BBC018EE693E008
:101520000C9481058F929F92AF92BF920F931F935D
:10153000CF93DF93CDB7DEB7A1970FB6F894DEBF98
:101540000FBECDBF19A2423008F44AE08E010F5DF4
:101550001F4F842E912CB12CA12CA50194010E9427
:10156000FE36E62FB901CA01EA30F4F4E05DD80195
:10157000EE938D01232B242B252B79F790E080E02F
:10158000109719F0CD010E94850AA1960FB6F89424
:10159000DEBF0FBECDBFDF91CF911F910F91BF90E6
:1015A000AF909F908F900895E95CE1CFCF92DF924A
:1015B000EF92FF92CF93DF936B017C016DE28EE699
:1015C00093E00E942106EC0166277727CB016C1976
:1015D0007D098E099F094AE00E94920A8C0F9D1F87
:1015E000DF91CF91FF90EF90DF90CF90089500971B
:1015F00011F00C94850A90E080E00895CF93DF937A
:101600000E94850AEC0180E192E00E94850A8C0F1D
:101610009D1FDF91CF910895CF93DF930E946E06B7
:10162000EC0180E192E00E94850A8C0F9D1FDF9102
:10163000CF9108950F931F93CF938C01C62F809164
:10164000200390912103039690932103809320031C
:1016500085E992E00E94F70AC8010E946E06209177
:10166000200330912103820F931F909321038093D5
:10167000200383E192E00E94F70A86E192E0C11123
:1016800002C08DE192E00E94850A209120033091F2
:101690002103820F931F9093210380932003CF9106
:1016A0001F910F9108954F925F926F927F928F9248
:1016B0009F92AF92BF92CF92DF92EF92FF920F93E1
:1016C0001F93CF936B017C01742EAC019B010E9490
:1016D0004938882399F085E292E0CF911F910F91CC
:1016E000FF90EF90DF90CF90BF90AF909F908F9042
:1016F0007F906F905F904F900C94850A4601570140
:10170000E894B7F82FEF3FEF4FE75FE7C501B4016B
:101710000E94493881110DC02FEF3FEF4FE75FE77F
:10172000C501B4010E947F3518161CF489E292E0CD
:10173000D4CF2FEF3FEF4FE75FE4C701B6010E9420
:10174000443818161CF48DE292E0C7CF2FEF3FEF1C
:101750004FE75FECC701B6010E947F3587FDF3CFED
:1017600020E030E0A901C701B6010E947F3510E0FA
:1017700000E087FF0AC06DE28EE693E00E9421063A
:101780008C01F7FAF094F7F8F094C0E060E070E0B4
:1017900080E09FE37C1641F020E030E040E251E43D
:1017A0000E949C37CF5FF6CFA70196010E94303789
:1017B0002B013C010E9415384B015C014AE00E945C
:1017C000920A7C01E00EF11ECC23C1F1C501B401E7
:1017D0000E9484359B01AC01C301B2010E942F37E6
:1017E0004B015C016EE28EE693E00E942106E80E5A
:1017F000F91EC15018F120E030E040E251E4C5018B
:10180000B4010E94E5352B013C010E9415384B01C3
:10181000B12CA12C4AE0C501B4010E94920AE80E45
:10182000F91EC501B4010E9484359B01AC01C301BE
:10183000B2010E942F374B015C01DBCFC701CF9172
:101840001F910F91FF90EF90DF90CF90BF90AF90DE
:101850009F908F907F906F905F904F900895CF9260
:10186000DF92EF92FF92CF93DF93EC016A017B014D
:1018700080912003909121030596909321038093FA
:10188000200385E992E00E94F70ACE010E946E06CD
:101890002091200330912103820F931F9093210305
:1018A0008093200383E192E00E94F70A44E0C7019D
:1018B000B6010E94530B2091200330912103820F27
:1018C000931F909321038093200383E892E0DF919C
:1018D000CF91FF90EF90DF90CF900C94F70A0F9389
:1018E0001F93CF93DF938C01EB01809120039091A4
:1018F00021030596909321038093200385E992E0CC
:101900000E94F70AC8010E946E06209120033091C0
:101910002103820F931F909321038093200383E17F
:1019200092E00E94F70ABE01DD0F880B990B97FF2A
:1019300014C00E94D60A2091200330912103820F07
:10194000931F909321038093200383E892E0DF911B
:10195000CF911F910F910C94F70A4AE00E94920ACE
:10196000EACFBC01990F880B990B97FD0C94D60A0E
:101970004AE00C94920A0F931F93CF93DF9382E077
:1019800090E0909321038093200380EB92E00E94EB
:101990006E0640E050E060E971E485E992E00E9463
:1019A0002F0C6091B7017091B801072E000C880BC5
:1019B000990B0E948635AB01BC0187E892E00E943A
:1019C0002F0C6091B5017091B601072E000C880BA9
:1019D000990B0E948635AB01BC0186E792E00E941C
:1019E0002F0C6091B3017091B401072E000C880B8D
:1019F000990B0E948635AB01BC0189E692E00E94FA
:101A00002F0C6091B9017091BA01072E000C880B60
:101A1000990B0E948635AB01BC018EE592E00E94D5
:101A20002F0C6091AF017091B001072E000C880B54
:101A3000990B0E948635AB01BC0183E592E00E94C0
:101A40002F0C6091AD017091AE01072E000C880B38
:101A5000990B0E948635AB01BC0182E492E00E94A2
:101A60002F0C6091AB017091AC01072E000C880B1C
:101A7000990B0E948635AB01BC0185E392E00E9480
:101A80002F0C6091B1017091B201072E000C880BF0
:101A9000990B0E948635AB01BC018AE292E00E945C
:101AA0002F0C60914F0170915001809151019091E4
:101AB00052010E940E3889E496E00E946F0C6091FA
:101AC00053017091540180915501909156010E94EB
:101AD0000E3884E396E00E946F0C6091570170917C
:101AE00058018091590190915A010E940E388EE15F
:101AF00096E00E946F0C60915B0170915C01809197
:101B00005D0190915E010E940E3888E096E00E948F
:101B10006F0C60914601709147018091480190914E
:101B200049010E940E3883EF95E00E946F0C60918E
:101B30004A0170914B0180914C0190914D010E949E
:101B40000E388EED95E00E946F0C609163017091EC
:101B5000640180916501909166010E940E388EECBF
:101B600095E00E946F0C609167017091680180910F
:101B7000690190916A010E940E388DEB95E00E94F8
:101B80006F0C60916B0170916C0180916D0190916F
:101B90006E010E940E3882EB95E00E946F0C6091FE
:101BA0005F017091600180916101909162010E94DA
:101BB0000E3888E995E00E946F0C60913D0380E843
:101BC00095E00E941A0B6091370170913801072E41
:101BD000000C880B990B0E948635AB01BC0188E193
:101BE00092E00E942F0C6091390170913A01072E0A
:101BF000000C880B990B0E948635AB01BC0188E074
:101C000092E00E942F0C60913B0170913C01072EE5
:101C1000000C880B990B0E948635AB01BC0188EF44
:101C200091E00E942F0C60913D0170913E01072EC2
:101C3000000C880B990B0E948635AB01BC0185EE28
:101C400091E00E942F0C60913F0170914001072E9E
:101C5000000C880B990B0E948635AB01BC0184ED0A
:101C600091E00E942F0C6091410170914201072E7A
:101C7000000C880B990B0E948635AB01BC0183ECEC
:101C800091E00E942F0C6091460381E795E00E944D
:101C90001A0B6091700170917101072E000C880B76
:101CA000990B0E948635AB01BC018DE595E00E9441
:101CB0002F0C6091440370914503072E000C880B94
:101CC000990B0E948635AB01BC0189E495E00E9426
:101CD0002F0C60914E0182E395E00E941A0B6091F7
:101CE0006F0170E090E080E00E948435AB01BC01A0
:101CF00083E295E00E942F0C6091BC0170E090E0BF
:101D000080E00E948435AB01BC0189E195E00E942E
:101D10002F0C6091BB0170E090E080E00E94843560
:101D2000AB01BC018FE095E00E942F0C60912D016A
:101D300070E090E080E00E948435AB01BC0185EF4B
:101D400094E00E942F0C60912C0170E090E080E004
:101D50000E948435AB01BC018AED94E00E942F0CF7
:101D600060912E0185EC94E00E941A0B6091330182
:101D700070913401072E000C880B990B0E94863558
:101D8000AB01BC0184EB94E00E942F0C6091310107
:101D900070913201072E000C880B990B0E9486353A
:101DA000AB01BC0182EA94E00E942F0C60912F01EC
:101DB00070913001072E000C880B990B0E9486351C
:101DC000AB01BC018BE894E00E942F0C60913501BF
:101DD00070913601072E000C880B990B0E948635F6
:101DE000AB01BC018BE794E00E942F0C609154037F
:101DF00088E694E00E941A0B6091510384E594E018
:101E00000E941A0B6091AA0170E090E080E00E94AD
:101E10008435AB01BC0181E394E00E942F0C6091FA
:101E2000530381E494E00E941A0B6091A90170E0D1
:101E300090E080E00E948435AB01BC018FE194E02A
:101E40000E942F0CC3E7D1E001E010E084EB91E0A9
:101E50000E947407C8010E94B10C209120033091A8
:101E60002103820F931F909321038093200380EB23
:101E700091E00E947407688170E090E080E04AE0A1
:101E80000E94920A2091200330912103820F931F18
:101E900090932103809320038EEA91E00E947407BF
:101EA00069817A818B819C8144E00E94530B20914F
:101EB000200330912103820F931F9093210380937D
:101EC00020038CEA91E00E9474076D817E818F81EE
:101ED000988544E00E94530B209120033091210308
:101EE000820F931F909321038093200389EA91E04E
:101EF0000E9474070F5F1F4F29960730110509F0E4
:101F0000A5CF6091470380EE93E00E941A0B609189
:101F1000720170E090E080E00E948435AB01BC016A
:101F200088EC93E00E942F0C60911F0381EC93E0FA
:101F30000E941A0B6091280170E090E080E00E94FE
:101F40008435AB01BC0189EB93E00E942F0C6091BA
:101F5000290170E090E080E00E948435AB01BC0173
:101F60008DEB93E00E942F0C60912A0170E090E0CD
:101F700080E00E948435AB01BC0185EB93E00E94B8
:101F80002F0C60912B0170E090E080E00E9484357E
:101F9000AB01BC0181EB93E00E942F0C60911A030E
:101FA0008BEA93E00E941A0B6091320387EA93E078
:101FB0000E941A0B6091430170E090E080E00E9463
:101FC0008435AB01BC018EE993E00E942F0C609137
:101FD00031038AE993E00E941A0B6091300385E98E
:101FE00093E00E941A0B6091340380E993E00E9411
:101FF0001A0B6091450170E090E080E00E9484350A
:10200000AB01BC018BE893E00E942F0C609144016E
:1020100070E090E080E00E948435AB01BC0185E86F
:1020200093E00E942F0C609133038FE793E00E94AE
:102030001A0B8DE991E00E94740780912003909122
:10204000210304960E94B10C87E892E0DF91CF91C2
:102050001F910F910C94FE0A61E372E0811102C09E
:1020600066E372E08CEA92E00C9486380C94AE360B
:10207000CF92DF92EF92FF920F931F93CF93DF9354
:10208000EC018B01C090C502D090C602E090C7025F
:10209000F090C802FB016081888199810E9436100E
:1020A00088819981F801608188539F4F0E94361082
:1020B00088819981F801608180579E4F0E94361077
:1020C000F8014081C701B6010E943D07288139818E
:1020D0002F5F3F4F398328836093C5027093C602F8
:1020E0008093C7029093C802DF91CF911F910F9107
:1020F000FF90EF90DF90CF900895AF92BF92CF9274
:10210000DF92EF92FF920F931F93CF93DF938C0197
:10211000EB01C090C502D090C602E090C702F090DB
:10212000C8025B0184E0A80EB11C6881F8018081BF
:1021300091810E943610F8018081918168818853D5
:102140009F4F0E943610F8018081918168818057ED
:102150009E4F0E9436104991C701B6010E943D076B
:102160006B017C01F80180819181019691838083CC
:10217000AC16BD06D1F6C092C502D092C602E0925E
:10218000C702F092C802DF91CF911F910F91FF908B
:10219000EF90DF90CF90BF90AF900895AF92BF9235
:1021A000CF92DF92EF92FF920F931F93CF93DF9323
:1021B0008C01EB01C090C502D090C602E090C7022E
:1021C000F090C8025B0182E0A80EB11C6881F801A2
:1021D000808191810E943610F8018081918168810F
:1021E00088539F4F0E943610F80180819181688149
:1021F00080579E4F0E9436104991C701B6010E9438
:102200003D076B017C01F8018081918101969183EA
:102210008083AC16BD06D1F6C092C502D092C6022C
:10222000E092C702F092C802DF91CF911F910F9107
:10223000FF90EF90DF90CF90BF90AF900895CF9236
:10224000DF92EF92FF920F931F93CF93DF93EC01F6
:102250008B01C090C502D090C602E090C702F090FA
:10226000C802FB016081888199810E9436108881B3
:102270009981F801608188539F4F0E9436108881B0
:102280009981F801608180579E4F0E943610F801B5
:102290004081C701B6010E943D07288139812F5F27
:1022A0003F4F398328836093C5027093C6028093A1
:1022B000C7029093C802DF91CF911F910F91FF90B9
:1022C000EF90DF90CF900895CF92DF92EF92FF9240
:1022D0000F931F93CF93DF9300D0CDB7DEB781E08C
:1022E00090E09A8389831092C5021092C6021092E0
:1022F000C7021092C80267EB71E0CE0101960E94FE
:10230000CE1065EB71E0CE0101960E94CE1063EB1A
:1023100071E0CE0101960E94CE1069EB71E0CE0112
:1023200001960E94CE106FEA71E0CE0101960E94E4
:10233000CE106DEA71E0CE0101960E94CE106BEADC
:1023400071E0CE0101960E94CE1061EB71E0CE01EA
:1023500001960E94CE106FE471E0CE0101960E94BA
:102360007D1063E571E0CE0101960E947D1067E566
:1023700071E0CE0101960E947D106BE571E0CE0107
:1023800001960E947D1066E471E0CE0101960E94E4
:102390007D106AE471E0CE0101960E947D1063E633
:1023A00071E0CE0101960E947D1067E671E0CE01DA
:1023B00001960E947D106BE671E0CE0101960E94AD
:1023C0007D106FE571E0CE0101960E947D106EE4F4
:1023D00071E0CE0101960E9438106DE373E0CE01EA
:1023E00001960E94381067E371E0CE0101960E94C9
:1023F000CE1069E371E0CE0101960E94CE106BE32E
:1024000071E0CE0101960E94CE106DE371E0CE0125
:1024100001960E94CE106FE371E0CE0101960E94FA
:10242000CE1061E471E0CE0101960E94CE1066E408
:1024300073E0CE0101960E94381060E771E0CE0192
:1024400001960E94CE1064E473E0CE0101960E94D2
:10245000CE106CEB71E0CE0101960E941F116BEB68
:1024600071E0CE0101960E941F116DE271E0CE0174
:1024700001960E941F116CE271E0CE0101960E944C
:102480001F116FE671E0CE0101960E941F1163E3F8
:1024900071E0CE0101960E94CE1061E371E0CE01A1
:1024A00001960E94CE106FE271E0CE0101960E946B
:1024B000CE106EE271E0CE0101960E94381065E305
:1024C00071E0CE0101960E94CE106AEA71E0CE0161
:1024D00001960E941F1164E573E0CE0101960E94EF
:1024E000381061E573E0CE0101960E94381069EA68
:1024F00071E0CE0101960E941F11C090C502D090DC
:10250000C602E090C702F090C80203E711E0F801AC
:10251000608189819A810E94361089819A81F801AF
:10252000608188539F4F0E94361089819A81F801FB
:10253000608180579E4F0E943610F80141918F01B3
:10254000C701B6010E943D076B017C0189819A8118
:1025500001969A838983F1E0093A1F07C1F6C09278
:10256000C502D092C602E092C702F092C80267E4A8
:1025700073E0CE0101960E94381062E771E0CE014F
:1025800001960E941F116FE173E0CE0101960E9437
:10259000381068E271E0CE0101960E941F1169E2D5
:1025A00071E0CE0101960E941F116AE271E0CE0136
:1025B00001960E941F116BE271E0CE0101960E940C
:1025C0001F116AE173E0CE0101960E94381062E3A8
:1025D00073E0CE0101960E94381063E471E0CE01F1
:1025E00001960E941F1161E373E0CE0101960E94E3
:1025F000381060E373E0CE0101960E94381064E366
:1026000073E0CE0101960E94381065E471E0CE01BE
:1026100001960E941F1164E471E0CE0101960E94B0
:102620001F1163E373E0CE0101960E943810C09041
:10263000C502D090C602E090C702F090C80205EC37
:1026400012E0F801608189819A810E9436108981A7
:102650009A81F801608188539F4F0E9436108981CA
:102660009A81F801608180579E4F0E943610F801D0
:1026700041918F01C701B6010E943D076B017C01AA
:1026800089819A8101969A838983F2E0093C1F0728
:10269000C1F6C092C502D092C602E092C702F09283
:1026A000C8020F900F90DF91CF911F910F91FF9073
:1026B000EF90DF90CF900895AF92BF92CF92DF92CC
:1026C000EF92FF920F931F93CF93DF9300D000D030
:1026D000CDB7DEB7E0910503F0E0E753FD4F108280
:1026E0006CE372E089EC92E00E94A3317C016CE320
:1026F00072E090E080E00E94A3318C01ECEAF2E00D
:102700008FE0DF011D928A95E9F7E1EEAE2EE1E060
:10271000BE2ED12CC12CD501ED91FD915D01EE0FA6
:10272000FF1FE25AF94F60817181C7010E949A31FF
:10273000892B01F5C8010E947C31F601EE0FFF1FC5
:10274000EB53FE4F0190F081E02D808391839F93A6
:102750008F938FE392E09F938F938CEA92E09F9305
:102760008F930E948D380F900F900F900F900F90C5
:102770000F902AC0BFEFCB1ADB0AEEE0CE16D104D1
:1027800051F669E476E0C7010E949A31892B09F07D
:102790003EC0C8010E94783120E030E0A9010E94CB
:1027A000443818167CF5C8010E94783160934F01B7
:1027B0007093500180935101909352010CEA12E002
:1027C00024E040E00E945A318AE093E00E946E06C5
:1027D00083E892E00E94F70A8DEF92E00E946E0675
:1027E000C7010E94F70A82E892E00E94F70A82EF8E
:1027F00092E00E946E068CEA92E00E94F70A86E858
:1028000092E0EFC4C8010E9478319058CFCF64E3C2
:1028100076E0C7010E949A31892BD9F4C8010E9441
:10282000783120E030E0A9010E944438181664F4A1
:10283000C8010E94783160935301709354018093D2
:10284000550190935601BACFC8010E947831905833
:10285000F2CF6EE176E0C7010E949A31892BD9F45C
:10286000C8010E94783120E030E0A9010E9444387C
:10287000181664F4C8010E94783160935701709370
:1028800058018093590190935A0198CFC8010E9432
:1028900078319058F2CF68E076E0C7010E949A3113
:1028A000892BD9F4C8010E94783120E030E0A901D9
:1028B0000E944438181664F4C8010E94783160936D
:1028C0005B0170935C0180935D0190935E0176CF14
:1028D000C8010E9478319058F2CF63EF75E0C701CC
:1028E0000E949A31892BD9F4C8010E94783120E0E6
:1028F00030E0A9010E944438181664F4C8010E940F
:10290000783160934601709347018093480190931A
:10291000490154CFC8010E9478319058F2CF6EED32
:1029200075E0C7010E949A31892BD9F4C8010E9431
:10293000783120E030E0A9010E944438181664F490
:10294000C8010E94783160934A0170934B018093D3
:102950004C0190934D0132CFC8010E9478319058BC
:10296000F2CF6EEC75E0C7010E949A31892B09F015
:1029700062C0C8010E94783120E030E0A9010E94C5
:102980004438181674F4C8010E94783120E030E011
:10299000A9010E947F3587FF0EC060E070E0CB0187
:1029A0002CC0C8010E94783120E030E0A9010E94CB
:1029B0004438181694F3C8010E94783120E030E0C2
:1029C000A9010E94443818160CF5C8010E947831FC
:1029D00020E030E040E85FE30E94443818160CF134
:1029E000C8010E94783120E030E0A9010E944438FB
:1029F0001816E4F4C8010E94783160936301709363
:102A000064018093650190936601D8CEC8010E944D
:102A1000783120E030E040E85FEB0E947F3587FFAF
:102A2000DFCF60E070E080E89FE3E7CFC8010E945D
:102A300078319058E2CF6DEB75E0C7010E949A3172
:102A4000892B09F062C0C8010E94783120E030E093
:102A5000A9010E944438181674F4C8010E94783104
:102A600020E030E0A9010E947F3587FF0EC060E0C2
:102A700070E0CB012CC0C8010E94783120E030E02A
:102A8000A9010E944438181694F3C8010E947831B5
:102A900020E030E0A9010E94443818160CF5C80166
:102AA0000E94783120E030E040E85FE30E94443843
:102AB00018160CF1C8010E94783120E030E0A9011D
:102AC0000E9444381816E4F4C8010E9478316093DB
:102AD0006701709368018093690190936A016ECEDB
:102AE000C8010E94783120E030E040E85FEB0E94AE
:102AF0007F3587FFDFCF60E070E080E89FE3E7CFBE
:102B0000C8010E9478319058E2CF62EB75E0C701AE
:102B10000E949A31892B09F062C0C8010E94783165
:102B200020E030E0A9010E944438181674F4C8016E
:102B30000E94783120E030E0A9010E947F3587FFB4
:102B40000EC060E070E0CB012CC0C8010E9478315B
:102B500020E030E0A9010E944438181694F3C8011F
:102B60000E94783120E030E0A9010E944438181614
:102B70000CF5C8010E94783120E030E040E85FE3C6
:102B80000E94443818160CF1C8010E94783120E0E8
:102B900030E0A9010E9444381816E4F4C8010E94EC
:102BA000783160936B0170936C0180936D01909309
:102BB0006E0104CEC8010E94783120E030E040E888
:102BC0005FEB0E947F3587FFDFCF60E070E080E839
:102BD0009FE3E7CFC8010E9478319058E2CF68E9BF
:102BE00075E0C7010E949A31892B61F4C8010E94E7
:102BF000783160935F0170936001809361019093DD
:102C00006201DCCD60E875E0C7010E949A31892B32
:102C100059F4C8010E947C3121E0892B09F420E09D
:102C200020933D03822FBCC161E775E0C7010E947C
:102C30009A31892B51F4C8010E947C3121E0892B03
:102C400009F420E020934603EDCF6DE575E0C70160
:102C50000E949A31892B41F4C8010E947C318093F3
:102C600070019093710173CD69E475E0C7010E9412
:102C70009A31892B41F4C8010E947C31809344032E
:102C80009093450364CD62E375E0C7010E949A31D9
:102C9000892B51F4C8010E947C3121E0892B09F471
:102CA00020E020934E01BECF63E275E0C7010E9491
:102CB0009A31892B61F4C8010E947C3180936F01A5
:102CC00060E00E94CC0480916F011F9241CD69E1C8
:102CD00075E0C7010E949A31892B59F4C8010E94FE
:102CE0007C318093BC0160E00E94CC048091BC01E7
:102CF000ECCF6FE075E0C7010E949A31892B59F43F
:102D0000C8010E947C318093BB0160E00E94CC042A
:102D10008091BB01DACF65EF74E0C7010E949A3160
:102D2000892B09F058C060913D0170913E0180E30C
:102D300094E00E94AA06E09130048E2F90E0FC01FE
:102D4000EE0FFF1FE80FF91FE55FFB4F80818F7BC0
:102D50008083609137017091380183E394E00E9491
:102D6000AA06E09133048E2F90E0FC01EE0FFF1FC6
:102D7000E80FF91FE55FFB4F80818F7B8083C801DF
:102D80000E947C3180932D016AE070E080E090E049
:102D90000E94420560912D0170E083E394E00E945F
:102DA000E106609137017091380183E394E00E945D
:102DB000AA0660912C0170E080E394E00E94E10695
:102DC00060913D0170913E0180E394E00E94AA066B
:102DD00080912D017ACF6AED74E0C7010E949A318B
:102DE000892B09F058C0609137017091380183E355
:102DF00094E00E94AA06E09133048E2F90E0FC013B
:102E0000EE0FFF1FE80FF91FE55FFB4F80818F7BFF
:102E1000808360913D0170913E0180E394E00E94C7
:102E2000AA06E09130048E2F90E0FC01EE0FFF1F08
:102E3000E80FF91FE55FFB4F80818F7B8083C8011E
:102E40000E947C3180932C016AE070E080E090E089
:102E50000E94420560912C0170E080E394E00E94A2
:102E6000E10660913D0170913E0180E394E00E9493
:102E7000AA0660912D0170E083E394E00E94E106D0
:102E8000609137017091380183E394E00E94AA06B3
:102E900080912C011ACF65EC74E0C7010E949A3131
:102EA000892B51F4C8010E947C3121E0892B09F45F
:102EB00020E020932E01B6CE64EB74E0C7010E949F
:102EC0009A31892B41F4C8010E947C3180933301EF
:102ED000909334013CCC62EA74E0C7010E949A31BD
:102EE000892B41F4C8010E947C3180933101909379
:102EF00032012DCC6BE874E0C7010E949A31892B16
:102F000091F4C8010E947C31893EF3E09F0714F0E0
:102F100088EE93E097FF02C090E080E0909330014C
:102F200080932F0114CC6BE774E0C7010E949A31A3
:102F3000892B41F4C8010E947C3180933501909324
:102F4000360105CC68E674E0C7010E949A31892BEE
:102F500051F5C8010E947C3121E0009709F420E07E
:102F600020935403892BD1F080915103882329F0B9
:102F700062E08091AA010E94CC0410E009E08091F7
:102F8000A901181758F4019FF0011124ED58FE4FC4
:102F900062E080810E94CC041F5FF1CF80915403D6
:102FA0000E942C1011CC64E574E0C7010E949A3194
:102FB000892B41F5C8010E947C3121E0009709F47A
:102FC00020E020935103209154032223C1F0892B48
:102FD00029F062E08091AA010E94CC0410E009E08F
:102FE0008091A901181758F4019FF0011124ED58A0
:102FF000FE4F62E080810E94CC041F5FF1CF809180
:103000005103CECF61E474E0C7010E949A31892B4D
:1030100051F4C8010E947C3121E0892B09F420E0A1
:1030200020935303FFCD61E374E0C7010E949A31FE
:10303000892B59F4C8010E947C318093AA0162E077
:103040000E94CC048091AA0140CE6FE174E0C701D8
:103050000E949A31892B79F5C8010E947C3197FD35
:1030600023C08730910514F58093A9018091540302
:103070008823F1F080915103882329F062E0809148
:10308000AA010E94CC0410E009E08091A901181760
:1030900078F4019FF0011124ED58FE4F62E0808129
:1030A0000E94CC041F5FF1CF80E0DECF86E0DCCF52
:1030B0008091A9010ACE62E472E0C7010E947D38C6
:1030C000892B09F091C0C8010E947C316C015C0120
:1030D00021E0A21AB10846E0A416B10408F0F0C13C
:1030E0006CE572E0C8010E94A3316CE572E090E0EB
:1030F00080E00E94A3310E947C3199E09A9D90016A
:103100009B9D300D1124D901AD58BE4F7D018C938C
:103110006CE572E090E080E00E94A3310E9478317B
:10312000F70161837283838394836CE572E090E09E
:1031300080E00E94A3310E947831D70115966D93EB
:103140007D938D939C93189762E08C910E94CC04A0
:103150008BE094E00E946E068FE592E00E94F70AF1
:103160008EEF93E00E946E0680E592E00E94F70ADF
:10317000C6010E94B10C8EE592E00E94F70A84EF2E
:1031800093E00E946E06F701608170E090E080E0BD
:103190004AE00E94920A8FE592E00E94F70AD70166
:1031A00011966D917D918D919C9114970CEA12E08E
:1031B00024E040E00E945A31C8010E94F70A8FE5DE
:1031C00092E00E94F70AF7016581768187819085F8
:1031D00024E040E00E945A31C8010E94F70A81E6CB
:1031E00092E00E94FE0A6CC160EE73E0C7010E948B
:1031F0009A31892BB9F4C8010E947C3121E00097F3
:1032000009F420E020934703892BE9F162E08091E3
:1032100072010E94CC0461E372E08CEA92E00E94A9
:103220008638D2CA68EC73E0C7010E949A31892BB4
:1032300059F4C8010E947C318093720162E00E94BF
:10324000CC048091720141CD61EC73E0C7010E9412
:103250009A31892BD9F4C8010E947C3121E0009772
:1032600009F420E020931F03892B59F00E94731F5B
:1032700061E372E08CEA92E00E9486380E94BF0807
:10328000A3CA0E94731F66E372E0C7CF6DEB73E0C1
:10329000C7010E949A31892B61F40E94731FC801F3
:1032A0000E947C31809328010E94BF0880912801F0
:1032B0000CCD69EB73E0C7010E949A31892B61F450
:1032C0000E94731FC8010E947C31809329010E94D3
:1032D000BF0880912901F9CC65EB73E0C7010E941A
:1032E0009A31892B61F40E94731FC8010E947C31BE
:1032F00080932A010E94BF0880912A01E6CC61EBED
:1033000073E0C7010E949A31892B61F40E94731FF8
:10331000C8010E947C3180932B010E94BF088091DC
:103320002B01D3CC6BEA73E0C7010E949A31892B41
:1033300051F4C8010E947C3121E0892B09F420E07E
:1033400020931A036FCC67EA73E0C7010E949A3199
:10335000892B99F4C8010E947C3121E0009709F47F
:1033600020E020933203892B29F062E08091430111
:103370000E94CC048091320313CE6EE973E0C70142
:103380000E949A31892B79F4C8010E947C31809384
:10339000430190913203992319F062E00E94CC041A
:1033A0008091430192CC6AE973E0C7010E949A318F
:1033B000892B51F4C8010E947C3121E0892B09F44A
:1033C00020E0209331032ECC65E973E0C7010E9411
:1033D0009A31892B51F4C8010E947C3121E0892B5C
:1033E00009F420E0209330031DCC60E973E0C701AD
:1033F0000E949A31892BC1F4C8010E947C3121E0DE
:10340000009709F420E020933403892B51F062E007
:10341000809145010E94CC0462E0809144010E94A9
:10342000CC0480913403BCCD6BE873E0C7010E94EB
:103430009A31892B59F4C8010E947C31809345014F
:1034400062E00E94CC04809145013FCC65E873E0C6
:10345000C7010E949A31892B59F4C8010E947C311E
:103460008093440162E00E94CC04809144012DCC01
:103470006FE773E0C7010E949A31892B51F4C801AC
:103480000E947C3121E0892B09F420E02093330352
:10349000C9CB64E672E0C7010E947D38892B39F4FC
:1034A0000E9464118BE693E00E940C0B09C069E650
:1034B00072E0C7010E947D38892B99F40E94BB0CF1
:1034C000109205030F900F900F900F90DF91CF9106
:1034D0001F910F91FF90EF90DF90CF90BF90AF9032
:1034E000089562E772E0C7010E947D38892BA1F43C
:1034F0001C821B8283E190E09A838983BE016F5F07
:103500007F4FCE0103960E94CE1068E873E180E001
:1035100090E00E94420558C969E772E0C7010E9425
:103520007D38892B91F360E872E0C7010E947D38F5
:10353000892B31F481E0809326038CE493E0B4CFAF
:1035400060E772E0C7010E947D38892BA9F41092D0
:103550002603609137017091380183E394E00E9463
:10356000AA0660913D0170913E0180E394E00E94C3
:10357000AA0686E393E098CF8EE193E095CF0C9472
:10358000A636CF92DF92EF92FF920F931F93CF93C5
:10359000DF938C017B01FC01C080D180C6010E94B9
:1035A000BF1AC82FC60188539F4F0E94BF1AD82F39
:1035B000C60180579E4F0E94BF1ACD1327C0C81363
:1035C00025C0F701C0836091C5027091C602809149
:1035D000C7029091C802F70140810E943D076093A5
:1035E000C5027093C6028093C7029093C802F80187
:1035F00080819181019691838083DF91CF911F918A
:103600000F91FF90EF90DF90CF9008956C2F682B73
:103610006D23C8236C2BF7016083F80180819181B1
:103620000E943610F80180819181F70160818853F2
:103630009F4F0E943610F80180819181F7016081CF
:1036400080579E4F0E94361061E08DE00E94CC04AE
:1036500060E08DE00E949E0464E670E080E090E00F
:103660000E94420561E08DE00E949E0462E370E0EA
:1036700080E090E00E944205A895A5CFAF92BF924E
:10368000CF92DF92EF92FF920F931F93CF93DF932E
:103690007C01EB016B0184E0C80ED11CF701A08016
:1036A000B180C5010E94BF1A182FC50188539F4FD2
:1036B0000E94BF1A082FC50180579E4F0E94BF1A53
:1036C00010132AC0181328C018836091C502709186
:1036D000C6028091C7029091C80249910E943D079D
:1036E0006093C5027093C6028093C7029093C8028C
:1036F000F70180819181019691838083CC15DD054E
:1037000069F6DF91CF911F910F91FF90EF90DF90BD
:10371000CF90BF90AF900895612F682B602318233E
:10372000612B6883F701808191810E943610F70137
:1037300080819181688188539F4F0E943610F701E4
:1037400080819181688180579E4F0E94361061E090
:103750008DE00E94CC0460E08DE00E949E0464E64F
:1037600070E080E090E00E94420561E08DE00E9400
:103770009E0462E370E080E090E00E944205A8951C
:10378000A4CFAF92BF92CF92DF92EF92FF920F93AE
:103790001F93CF93DF937C01EB016B0182E0C80E96
:1037A000D11CF701A080B180C5010E94BF1A182F5B
:1037B000C50188539F4F0E94BF1A082FC50180572B
:1037C0009E4F0E94BF1A10132AC0181328C01883D6
:1037D0006091C5027091C6028091C7029091C802A3
:1037E00049910E943D076093C5027093C602809381
:1037F000C7029093C802F70180819181019691835D
:103800008083CC15DD0569F6DF91CF911F910F9173
:10381000FF90EF90DF90CF90BF90AF900895612F11
:10382000682B60231823612B6883F70180819181C5
:103830000E943610F70180819181688188539F4FE3
:103840000E943610F70180819181688180579E4FD8
:103850000E94361061E08DE00E94CC0460E08DE0B3
:103860000E949E0464E670E080E090E00E944205C1
:1038700061E08DE00E949E0462E370E080E090E0F1
:103880000E944205A895A4CFCF92DF92EF92FF92BB
:103890000F931F93CF93DF938C017B01FC01C080BA
:1038A000D180C6010E94BF1AC82FC60188539F4FFE
:1038B0000E94BF1AD82FC60180579E4F0E94BF1A80
:1038C000CD1327C0C81325C0F701C0836091C5027E
:1038D0007091C6028091C7029091C802F7014081A1
:1038E0000E943D076093C5027093C6028093C70291
:1038F0009093C802F8018081918101969183808321
:10390000DF91CF911F910F91FF90EF90DF90CF90BB
:1039100008956C2F682B6D23C8236C2BF7016083EF
:10392000F801808191810E943610F8018081918197
:10393000F701608188539F4F0E943610F801808103
:103940009181F701608180579E4F0E94361061E09F
:103950008DE00E94CC0460E08DE00E949E0464E64D
:1039600070E080E090E00E94420561E08DE00E94FE
:103970009E0462E370E080E090E00E944205A8951A
:10398000A5CF1F920F920FB60F9211242F933F9342
:103990008F939F93AF93BF9380916603909167033A
:1039A000A0916803B09169033091650323E0230F70
:1039B0002D3758F50196A11DB11D20936503809305
:1039C000660390936703A0936803B09369038091A3
:1039D0006A0390916B03A0916C03B0916D03019603
:1039E000A11DB11D80936A0390936B03A0936C0398
:1039F000B0936D03BF91AF919F918F913F912F91A4
:103A00000F900FBE0F901F90189526E8230F029677
:103A1000A11DB11DD2CF1F920F920FB60F9211248C
:103A20002F933F934F935F936F937F938F939F93C6
:103A3000AF93BF93EF93FF938EE693E00E94FF0551
:103A4000FF91EF91BF91AF919F918F917F916F9176
:103A50005F914F913F912F910F900FBE0F901F904C
:103A600018951F920F920FB60F9211242F938F93D8
:103A70009F93EF93FF93E0917E03F0917F0380810A
:103A8000E0918403F091850382FD1BC090818091B9
:103A900087038F5F8F7320918803821741F0E09135
:103AA0008703F0E0E259FC4F958F80938703FF91E5
:103AB000EF919F918F912F910F900FBE0F901F90BC
:103AC00018958081F4CF1F920F920FB60F92112498
:103AD0002F933F934F935F936F937F938F939F9316
:103AE000AF93BF93CF93EF93FF9399B18091C402AB
:103AF000C091C102C923282F2095C2232091BE0264
:103B00008223292F20958223C82B9093C402C4FFBF
:103B100005C0E0911801F09119010995C5FF05C094
:103B2000E0911A01F0911B010995C6FF05C0E091D3
:103B30001C01F0911D010995C7FF05C0E0911E0110
:103B4000F0911F010995C0FF05C0E0912001F0919F
:103B500021010995C1FF05C0E0912201F0912301E7
:103B60000995C2FF05C0E0912401F0912501099556
:103B7000C3FF05C0E0912601F09127010995FF914F
:103B8000EF91CF91BF91AF919F918F917F916F9165
:103B90005F914F913F912F910F900FBE0F901F900B
:103BA00018951F920F920FB60F9211242F933F93E7
:103BB0004F935F936F937F938F939F93AF93BF9335
:103BC000CF93EF93FF9396B18091C302C091C0024F
:103BD000C923282F2095C2232091BD028223292F9B
:103BE00020958223C82B9093C302C0FF05C0E091AB
:103BF0000C01F0910D010995C1FF05C0E0910E0186
:103C0000F0910F010995C2FF05C0E0911001F091FC
:103C100011010995C3FF05C0E0911201F091130154
:103C20000995C4FF05C0E0911401F09115010995B3
:103C3000C5FF05C0E0911601F09117010995FF91AC
:103C4000EF91CF91BF91AF919F918F917F916F91A4
:103C50005F914F913F912F910F900FBE0F901F904A
:103C600018951F920F920FB60F9211242F933F9326
:103C70004F935F936F937F938F939F93AF93BF9374
:103C8000CF93EF93FF9393B18091C202C091BF0293
:103C9000C923282F2095C2232091BC028223292FDB
:103CA00020958223C82B9093C202C0FF05C0E091EB
:103CB0000001F09101010995C1FF05C0E0910201E9
:103CC000F09103010995C2FF05C0E0910401F09154
:103CD00005010995C3FF05C0E0910601F0910701B8
:103CE0000995C4FF05C0E0910801F091090109950B
:103CF000C5FF05C0E0910A01F0910B010995FF9104
:103D0000EF91CF91BF91AF919F918F917F916F91E3
:103D10005F914F913F912F910F900FBE0F901F9089
:103D200018951F920F920FB60F9211242F933F9365
:103D30004F935F936F937F938F939F93AF93BF93B3
:103D4000CF93DF93EF93FF938091BB02C0912F0439
:103D5000D0E087FF24C010928500109284008091EB
:103D6000BB028F5F8093BB028091BB02082E000CC8
:103D7000990B8C179D0724F48091BB028C30C4F101
:103D80008091840090918500049680349C4908F4C9
:103D90007AC08091840090918500049676C08091CD
:103DA000BB02082E000C990B8C179D07C4F6E091FE
:103DB000BB028E2FEE0F990BFC01EE0FFF1FE80FD9
:103DC000F91FE55FFB4F808186FFC9CFE091BB0201
:103DD0008E2FEE0F990BFC01EE0FFF1FE80FF91F5E
:103DE000E55FFB4F808160E08F730E949E04B7CF38
:103DF0002091840030918500E091BB028E2FEE0F60
:103E0000990BFC01EE0FFF1FE80FF91FE55FFB4F59
:103E100081819281820F931F909389008093880003
:103E2000E091BB028E2FEE0F990BFC01EE0FFF1FEE
:103E3000E80FF91FE55FFB4F808186FF11C0E0911D
:103E4000BB028E2FEE0F990BFC01EE0FFF1FE80F48
:103E5000F91FE55FFB4F808161E08F730E949E0434
:103E6000FF91EF91DF91CF91BF91AF919F918F9192
:103E70007F916F915F914F913F912F910F900FBE66
:103E80000F901F90189580E49CE99093890080938F
:103E900088008FEF8093BB02E3CF1F920F920FB683
:103EA0000F9211242F933F934F935F936F937F93C0
:103EB0008F939F93AF93BF93EF93FF93A895F0E0F9
:103EC000E0E00995FF91EF91BF91AF919F918F91A4
:103ED0007F916F915F914F913F912F910F900FBE06
:103EE0000F901F901895FF920F931F93CF93DF931E
:103EF000A8E2B1E06CE271E041E050E029EA36E08E
:103F00008D91863108F057C090E1883058F091E0EB
:103F10008E3008F490E0990F990F990F8E3008F0C9
:103F200048C08850890F982F969596959695C82FDA
:103F3000C770911166C0811140C030930101209378
:103F40000001E92FF0E08A0102C0000F111FCA959D
:103F5000E2F7F02EF0948F0101541D4FE8018881A3
:103F60008F2188838F0104541D4FE80188818F21A0
:103F70008883E559FF4F8081CF2DC823C08380817E
:103F800081110DC0E09168008A0102C0000F111F6D
:103F90009A95E2F7C80180958E23809368006A178E
:103FA0007B0709F0ADCFDF91CF911F910F91FF906B
:103FB00008958E50B7CF8FEFB6CF813029F430936C
:103FC000030120930201BDCF823029F43093050113
:103FD00020930401B6CF833029F430930701209356
:103FE0000601AFCF843029F43093090120930801F2
:103FF000A8CF853009F0A5CF30930B0120930A019B
:10400000A0CF913059F5883029F430930D012093D9
:104010000C0197CF893029F430930F0120930E01C2
:1040200090CF8A3029F4309311012093100189CF69
:104030008B3029F4309313012093120182CF8C30FE
:1040400029F430931501209314017BCF8D3009F0B2
:1040500078CF309317012093160173CF923009F077
:104060009ECF803129F4309321012093200169CF24
:10407000813129F4309323012093220162CF8231D0
:1040800029F430932501209324015BCF833129F457
:10409000309327012093260154CF843129F43093A3
:1040A0001901209318014DCF853129F430931B015C
:1040B00020931A0146CF863129F430931D012093B5
:1040C0001C013FCF873109F03CCF30931F01209373
:1040D0001E0137CF109271031092700388EE93E0A7
:1040E000A0E0B0E08093720390937303A0937403F5
:1040F000B093750382E092E090936F0380936E0318
:1041000085EC90E090937B0380937A0384EC90E0BD
:1041100090937D0380937C0380EC90E090937F03E9
:1041200080937E0381EC90E09093810380938003E1
:1041300082EC90E0909383038093820386EC90E07E
:1041400090938503809384031092870310928803D1
:104150001092890310928A0380912F048C3048F5C5
:1041600091E0980F90932F048093330490E0FC012A
:10417000EE0FFF1FE80FF91FE55FFB4F88EB9BE099
:104180009283818380912F048C30B8F491E0980F52
:1041900090932F048093300490E0FC01EE0FFF1FFA
:1041A000E80FF91FE55FFB4F88EB9BE0928381836B
:1041B00008958FEF80933304E5CF8FEF8093300421
:1041C0000895CF93DF93CDB7DEB7A8970FB6F894D5
:1041D000DEBF0FBECDBF789484B5826084BD84B548
:1041E000816084BD85B5826085BD85B5816085BDF2
:1041F00080916E00816080936E00109281008091AA
:104200008100826080938100809181008160809331
:104210008100809180008160809380008091B10056
:1042200084608093B1008091B00081608093B00081
:1042300080917A00846080937A0080917A00826015
:1042400080937A0080917A00816080937A008091D7
:104250007A00806880937A001092C10061E08DE05E
:104260000E94CC0461E08DE00E949E04E0917E03F8
:10427000F0917F0382E08083E0917A03F0917B03E9
:104280001082E0917C03F0917D0387E0808310929F
:104290008603E0918203F091830386E08083E091BE
:1042A0008003F0918103808180618083E0918003AD
:1042B000F0918103808188608083E0918003F09198
:1042C0008103808180688083E0918003F091810385
:1042D00080818F7D808380E192E00E94850A62E385
:1042E00070E080E090E00E94420560E08DE00E9476
:1042F0009E04F894A8958091600088618093600086
:1043000087E480936000789480E092E0909360036B
:1043100080935F0390935E0380935D031092550337
:10432000109256031092570310925803109259039B
:1043300010925A0310925B0310925C03109239039F
:1043400010923A0310923B0310923C0310923503F3
:1043500010923603109237031092380310924803DC
:104360001092490310924A0310924B0310924C038F
:1043700010924D0310924E0310924F038FEF9FEF58
:10438000909343038093420380E090E0A0E8BFE372
:1043900080933E0390933F03A0934003B093410367
:1043A00010926103109262031092630310926403EF
:1043B00010922203109223031092240310922503DB
:1043C00081E08093260310925003109228031092EC
:1043D000290310922A0310922B0318861F82BE0114
:1043E000675F7F4FCE0107960E94441C898582310A
:1043F00061F018861F826DEF71E0CE0107960E9472
:104400001F110E9464111092260381E090E09E83A8
:104410008D831092C5021092C6021092C7021092AC
:10442000C8028E010B5F1F4F67EB71E0C8010E944D
:10443000C11B65EB71E0C8010E94C11B63EB71E019
:10444000C8010E94C11B69EB71E0C8010E94C11B39
:104450006FEA71E0C8010E94C11B6DEA71E0C801FA
:104460000E94C11B6BEA71E0C8010E94C11B61EB95
:1044700071E0C8010E94C11B6FE471E0C8010E9495
:104480003E1B63E571E0C8010E943E1B67E571E0D9
:10449000C8010E943E1B6BE571E0C8010E943E1BF3
:1044A00066E471E0C8010E943E1B6AE471E0C80145
:1044B0000E943E1B63E671E0C8010E943E1B67E656
:1044C00071E0C8010E943E1B6BE671E0C8010E94CA
:1044D0003E1B6FE571E0C8010E943E1B6EE471E077
:1044E000C8010E94C11A6DE373E0C8010E94C11A9D
:1044F00067E371E0C8010E94C11B69E371E0C80174
:104500000E94C11B6BE371E0C8010E94C11B6DE3F7
:1045100071E0C8010E94C11B6FE371E0C8010E94F5
:10452000C11B61E471E0C8010E94C11B66E473E035
:10453000C8010E94C11A60E771E0C8010E94C11B56
:1045400064E473E0C8010E94C11B6CEB71E0C80118
:104550000E94441C6BEB71E0C8010E94441C6DE298
:1045600071E0C8010E94441C6CE271E0C8010E9425
:10457000441C6FE671E0C8010E94441C63E371E0D3
:10458000C8010E94C11B61E371E0C8010E94C11B08
:104590006FE271E0C8010E94C11B6EE271E0C801C8
:1045A0000E94C11A65E371E0C8010E94C11B6AEA5A
:1045B00071E0C8010E94441C64E573E0C8010E94D8
:1045C000C11A61E573E0C8010E94C11A69EA71E08D
:1045D000C8010E94441C63E7E62E61E0F62EAD8020
:1045E000BE80C5010E94BF1AD82EC50188539F4FB7
:1045F0000E94BF1AC82EC50180579E4F0E94BF1A45
:10460000DC101BC1D81219C1D701DC926091C50220
:104610007091C6028091C7029091C802D7014D9156
:104620007D010E943D076093C5027093C60280938E
:10463000C7029093C8028D819E8101969E838D83CF
:10464000B9EAEB16B1E0FB0651F667E473E0C80186
:104650000E94C11A62E771E0C8010E94441C6FE128
:1046600073E0C8010E94C11A68E271E0C8010E94AB
:10467000441C69E271E0C8010E94441C6AE271E0D6
:10468000C8010E94441C6BE271E0C8010E94441CF6
:104690006AE173E0C8010E94C11A62E373E0C801D5
:1046A0000E94C11A63E471E0C8010E94441C61E3E6
:1046B00073E0C8010E94C11A60E373E0C8010E9460
:1046C000C11A64E373E0C8010E94C11A65E471E095
:1046D000C8010E94441C64E471E0C8010E94441CAB
:1046E00063E373E0C8010E94C11A4090C502509074
:1046F000C6026090C7027090C80219821A821B829B
:104700001C82FE0131966F01AD80BE80C5010E9402
:10471000BF1AE82EC50188539F4F0E94BF1A982EDA
:10472000C50180579E4F0E94BF1AE910BAC0E81217
:10473000B8C0D601EC926091C5027091C60280911A
:10474000C7029091C802D6014D916D010E943D07AC
:104750006093C5027093C6028093C7029093C8020B
:104760008D819E8101969E838D83C016D10661F650
:1047700089819A81AB81BC81481659066A067B06FD
:1047800009F4F0C062E370E080E090E00E9442052E
:1047900082EF96E00E940C0B62E370E080E090E014
:1047A0000E944205E09133048E2F90E0FC01EE0F51
:1047B000FF1FE80FF91FE55FFB4F808186FF02C0F6
:1047C0008F7B8083E09130048E2F90E0FC01EE0F10
:1047D000FF1FE80FF91FE55FFB4F808186FF02C0D6
:1047E0008F7B808364E670E080E090E00E94420569
:1047F00012E060E0812F0E94CC041F5F1536C9F7DC
:1048000061E08DE00E94CC0462E370E080E090E023
:104810000E9442050FB6F894A895809160008861C7
:1048200080936000109260000FBE86ED96E00E94BB
:104830000C0B10E088EC90E06CC06D2D682B6C21A7
:10484000D8226D29F7016083C5010E9436108D8141
:104850009E81D7016C9188539F4F0E9436108D81A5
:104860009E81F701608180579E4F0E94361061E063
:104870008DE00E94CC0460E08DE00E949E0464E61E
:1048800070E080E090E00E94420561E08DE00E94CF
:104890009E0462E370E080E090E00E944205A895EB
:1048A000B5CEFE2CF82AF920E822FE28F601F08287
:1048B0006F2DC5010E9436108D819E816F2D88530A
:1048C0009F4F0E9436108D819E816F2D80579E4F85
:1048D0000E94361061E08DE00E94CC0460E08DE023
:1048E0000E949E0464E670E080E090E00E94420531
:1048F00061E08DE00E949E0462E370E080E090E061
:104900000E944205A89517CF113009F093CF88E592
:1049100092E003E06C01990FEE08FF0861E08DE082
:104920000E949E04C701B6010E94420560E08DE02E
:104930000E949E0468EC70E080E090E00E944205D6
:10494000015061F760E971E080E090E0123021F4FD
:1049500068E775E080E090E00E9442051F5F133039
:1049600099F663CF809137019091380190932F038E
:1049700080932E0380913D0190913E0190932D03F1
:1049800080932C0380912E018093270368E770E0C9
:1049900080E090E00E9442050E94BB0C68E770E056
:1049A00080E090E00E9442050E94BB0C60E0809194
:1049B000BC010E94CC0460E08091BB010E94CC0449
:1049C00060E080916F010E94CC04809154038823A1
:1049D000D1F080915103882329F062E08091AA01EF
:1049E0000E94CC0410E009E08091A901181758F446
:1049F000019FF0011124ED58FE4F62E080810E947A
:104A0000CC041F5FF1CF80914703882329F062E037
:104A1000809172010E94CC0460912D0170E083E3CB
:104A200094E00E94E10660912C0170E080E394E044
:104A30000E94E106609137017091380183E394E0B0
:104A40000E94AA0660913D0170913E0180E394E0CE
:104A50000E94AA0664E670E080E090E00E944205B1
:104A60000E94BF08A8958EE693E00E94BD05F82E2F
:104A7000BFEF8B1729F0ECE28E130DC10E945C137F
:104A800080910A0381110DC00E941D0560930603E9
:104A900070930703809308039093090331E03093E8
:104AA0000A03C0900603D0900703E0900803F0903B
:104AB0000903C114D104E104F10409F411C10E94F5
:104AC0001D056C197D098E099F090E94843520E01F
:104AD00034E244E759E40E949C376A8B7B8B8C8BD1
:104AE0009D8B0E941D0560930603709307038093BE
:104AF0000803909309038A899B89AC89BD898093B7
:104B0000610390936203A0936303B0936403809165
:104B1000BC010E9408056C019093600380935F03C1
:104B20008091BB010E9408057C0190935E038093F5
:104B30005D030091B9011091BA012091B701309144
:104B4000B8014091B5015091B6016091B3017091E7
:104B5000B401C6010E9481076093590370935A0300
:104B600080935B0390935C030091B1011091B201BB
:104B70002091AF013091B0014091AD015091AE0153
:104B80006091AB017091AC01C7010E9481076093F5
:104B90005503709356038093570390935803809165
:104BA0005403882309F4B7C080915303882309F480
:104BB000A6C08091AA010E94750421E0009709F423
:104BC00020E0892B69F48091520387FF09C086FB9E
:104BD000992790F9A1E09A2790FB86F980935203D8
:104BE00080915203982F20FB97F99093520386FFF0
:104BF00092C0E090A90110925503109256031092B2
:104C00005703109258031092590310925A031092AE
:104C10005B0310925C0303E711E0F12CEF1409F43D
:104C20007AC0F80180810E947504892B81F5D80132
:104C300011962D913D914D915C9114976091550382
:104C40007091560380915703909158030E9430371A
:104C500060935503709356038093570390935803C2
:104C6000F801258136814781508560915903709103
:104C70005A0380915B0390915C030E9430376093EC
:104C8000590370935A0380935B0390935C03F394EE
:104C9000075F1F4FC3CF082F880F110BC8010E9459
:104CA0006038892B51F483ED8F0D823030F0FAE3B8
:104CB000FF1619F02FE5F212E3CEC8010E947538F5
:104CC00090910503E92FF0E0E753FD4F808382E0E8
:104CD000890F8C3308F0D4CE9F5F90930503D0CE1C
:104CE0000E941D05609306037093070380930803D9
:104CF000909309031A8A1B8A1C8A1D8AFCCE809114
:104D00005103882309F475CF8091AA010E9475048C
:104D1000892B09F46ECFF0915003FCA3FF2309F413
:104D200076C010911F03112309F471C0F12E04E025
:104D30000E94750580901B0390901C03A0901D039A
:104D4000B0901E03681979098A099B0969327105B7
:104D50008105910508F0F12C015051F7FF2009F46D
:104D60000EC58091520381608093520320911603F7
:104D700030911703233331050CF4F3C48260809320
:104D800052038091180390911903833391050CF419
:104D9000EEC48091520384608093520310915203B9
:104DA00011FF30C06091140370911503072E000CA1
:104DB000880B990B0E94863520E030E04AEF53E4DF
:104DC0000E949C376093550370935603809357035A
:104DD000909358036091120370911303072E000CF7
:104DE000880B990B0E94863520E030E04AEF53E4AF
:104DF0000E949C376093590370935A0380935B031E
:104E000090935C03812F12FB83F98093520380916E
:104E1000590390915A03A0915B03B0915C03809376
:104E20004C0390934D03A0934E03B0934F03809196
:104E3000550390915603A0915703B0915803809366
:104E4000480390934903A0934A03B0934B03809186
:104E50004703882371F0809172010E947504892BA9
:104E600041F410924C0310924D0310924E03109295
:104E70004F0380914603882309F491C4C0904403F2
:104E8000D0904503E0907001F090710180916F0126
:104E90000E9408058C019093430380934203B7015D
:104EA000FF0C880B990B0E9486354B015C01B80101
:104EB000110F880B990B0E948635A50194010E9461
:104EC0002F372B013C01B601DD0C880B990B0E949A
:104ED0008635A50194010E942F379B01AC01C301C7
:104EE000B2010E949C3720E030E0A9010E943037D7
:104EF0006B017C0120E030E0A9010E947F3587FD35
:104F00004AC420E030E040E85FE3C701B6010E94F8
:104F10004438181634F4C12CD12C30E8E32E3FE38A
:104F2000F32EC0923E03D0923F03E0924003F092F2
:104F3000410380916B0190916C01A0916D01B09142
:104F40006E018A879B87AC87BD87809067019090B0
:104F50006801A0906901B0906A018091630190910D
:104F60006401A0916501B09166018E8B9F8BA88F23
:104F7000B98F80913E0390913F03A0914003B0917F
:104F800041038E879F87A88BB98B20E030E0A90171
:104F9000C501B4010E94443875016401181624F05B
:104FA000F7FAF094F7F8F09420E030E0A9016E8968
:104FB0007F89888D998D0E9444384E885F88688CDF
:104FC000798C181624F077FA709477F8709420E0B2
:104FD00030E0A9016A857B858C859D850E944438D7
:104FE00018164CF08A859B85AC85BD85B0588A879C
:104FF0009B87AC87BD87A30192016E857F858889D9
:1050000099890E94E535562E472E382E292EC70144
:10501000B60190582E853F85488959890E94E5350B
:105020003B018C01C0904803D0904903E0904A03B3
:10503000F0904B0320E030E0A901C701B6010E94C7
:105040007F35882309F4C4C320E030E0A901C701FB
:10505000B6010E944438A701960118160CF0ACC3A3
:10506000652D742D832D922D0E94E53520E030E0D2
:10507000A9010E9430376B017C01A7019601B301A1
:10508000C8010E94443818160CF4A6C3A701960163
:10509000652D742D832D922D0E947F3587FF04C0CE
:1050A000C52CD42CE32CF22CC0924803D092490397
:1050B000E0924A03F0924B0320914C0330914D0350
:1050C00040914E0350914F036A857B858C859D8569
:1050D0000E94E5352E853F85488959890E94E5352E
:1050E0001B018C012E853F85488959896A857B85FE
:1050F0008C859D8590580E94E5352B013C019B01D4
:10510000AC01B101C8010E947F3587FD16C02A8518
:105110003B854C855D856E857F85888999890E9450
:10512000E5352B013C019B01AC01B101C8010E9496
:105130004438181614F02101380120E030E0A901AC
:10514000C701B6010E94443887FD04C08E889F883D
:10515000A88CB98C20915F01309160014091610170
:105160005091620160E070E080E89FE30E942F3779
:105170006A877B878C879D8720E030E0A901C70183
:10518000B6010E944438A701960118160CF0505839
:105190006A857B858C859D850E94E5356A877B873E
:1051A0008C879D8720E030E0A901C501B4010E94F1
:1051B000443818160CF013C327E137EB41ED58E3E0
:1051C000C501B4010E9430379B01AC016A857B8523
:1051D0008C859D850E949C379B01AC0160E070E04E
:1051E00080E89FE30E942F374B015C0120E030E014
:1051F000A9010E94443818161CF0812C912C5401EE
:10520000A5019401B201C3010E94E5354B015C0187
:1052100020E030E040E85FEB0E947F3587FDE8C288
:1052200020E030E040E85FE3C501B4010E9444386B
:10523000181634F4812C912C20E8A22E2FE3B22EE4
:1052400080924C0390924D03A0924E03B0924F0374
:1052500020E030E0A901C701B6010E947F3587FF39
:1052600010C080913D03882361F0B7FAB094B7F87D
:10527000B09480924C0390924D03A0924E03B09252
:105280004F0380915B0190915C01A0915D01B09111
:105290005E0188A399A3AAA3BBA380905701909015
:1052A0005801A0905901B0905A01809153019091FA
:1052B0005401A0915501B09156018DA39EA3AFA3B7
:1052C000B8A740904F0150905001609051017090EC
:1052D000520180914E01811192C21A861E8A90E875
:1052E0009E8FAFE3AF8F8091390390913A03A091E5
:1052F0003B03B0913C038A8F9B8FAC8FBD8F20E026
:1053000030E0A901C301B2010E94443818161CF014
:10531000412C512C3201A30192016A857E898E8D28
:105320009F8D0E94E5352B013C0120E030E0A90172
:105330006DA17EA18FA198A50E944438181624F073
:105340001DA21EA21FA218A620E030E0A901C501DF
:10535000B4010E94443818161CF0812C912C540181
:10536000A50194016A857E898E8D9F8D0E94E53509
:105370004B015C0120E030E0A90168A179A18AA17C
:105380009BA10E944438181624F018A219A21AA250
:105390001BA22A8D3B8D4C8D5D8DC701B6010E94ED
:1053A0002F37D62EC72E382E292E20E030E0A90127
:1053B0006A8D7B8D8C8D9D8D0E947F35811128C2D9
:1053C000C501B40190582A893B894C895D890E94A6
:1053D000E5357B018C012D2D3C2D432D522D0E9456
:1053E00044381816B4F0A30192016A897B898C892C
:1053F0009D890E94E5357B018C012D2D3C2D432D8F
:10540000522D0E947F3587FD04C0ED2CFC2C032D0E
:10541000122D9701A8016A8D7B8D8C8D9D8D0E9428
:1054200030372B011C01C201D101809339039093C5
:105430003A03A0933B03B0933C0380904A019090C1
:105440004B01A0904C01B0904D01C0904601D0900E
:105450004701E0904801F090490180914C03909100
:105460004D03A0914E03B0914F0388A399A3AAA323
:10547000BBA38091350390913603A0913703B0917F
:1054800038038A8F9B8FAC8FBD8F20E030E0A9015D
:10549000C701B6010E94443818161CF0C12CD12C4B
:1054A0007601A70196016A857E898E8D9F8D0E9467
:1054B000E5356B017C0120E030E0A901C501B401B4
:1054C0000E94443818161CF0812C912C54012A8D0E
:1054D0003B8D4C8D5D8D68A179A18AA19BA10E9415
:1054E0002F37762E072F182F692E20E030E0A901E4
:1054F0006A8D7B8D8C8D9D8D0E947F3581111FC2A1
:105500002A893B894C895D89C701B60190580E9460
:10551000E5354B015C01272D302F412F562D0E9480
:1055200044381816B4F0A70196016A897B898C89E2
:105530009D890E94E5354B015C01272D302F412FBD
:10554000562D0E947F3587FD04C0872C902EA12EFA
:10555000B62C9401A5016A8D7B8D8C8D9D8D0E944A
:1055600030375B018C01C501D801809335039093DE
:105570003603A0933703B093380380914603882302
:1055800009F449C0CE84DF84E888F988F7FAF094FA
:10559000F7F8F0949201A101C701B6010E944438C6
:1055A00018160CF45DC29201A1016E857F85888971
:1055B00099890E947F3587FF04C04E845F842888C4
:1055C0003988C201D1018093390390933A03A093A3
:1055D0003B03B0933C039501A801C701B6010E94AB
:1055E0004438181684F09501A8016E857F85888956
:1055F00099890E947F356501780187FF04C0CE84B8
:10560000DF84E888F988C0923503D0923603E092AF
:105610003703F0923803809134038823E1F08091BE
:1056200045010E947504209133032817190629F4B7
:10563000809152038F7E80935203809144010E9497
:105640007504209133032817190629F48091520319
:1056500080618093520380913203882311F18091FD
:1056600043010E947504209131032817190609F09F
:10567000FAC180913003882321F08091520385FF85
:1056800010C01092390310923A0310923B0310920B
:105690003C03109235031092360310923703109298
:1056A00038038091520383FF10C010923903109287
:1056B0003A0310923B0310923C0310923503109270
:1056C0003603109237031092380384FF10C01092F3
:1056D000390310923A0310923B0310923C0310924C
:1056E00035031092360310923703109238038090DE
:1056F000350390903603A0903703B090380320E034
:1057000030E0A901C501B4010E94443818160CF01C
:10571000B0C12FE632E143E85AE3C501B4010E946B
:10572000443887FFB1C1C0903903D0903A03E0906C
:105730003B03F0903C0320E030E0A901C701B60133
:105740000E94443818160CF083C22FE632E143E879
:105750005AE3C701B6010E94443887FF95C160E053
:1057600098C12E3C3F4F0CF00CCB8D7F08CB8E3C6C
:105770009F4F0CF013CB809152038B7F0DCB809108
:105780001A03882319F0109152031170809152036B
:1057900010FB83F93ACBC12CD12C7601C2CB80E02F
:1057A00090E0A0E8BFE380933E0390933F03A09373
:1057B0004003B0934103BDCBB301C8010E94E5355E
:1057C0009B01AC0160E070E0CB010E942F3753CC0D
:1057D000C12CD12C760151CC6301780165CCA50197
:1057E000940167E177EB81ED98E30E942F37ECCCD1
:1057F000812C912C90E8A92E9FEBB92E21CDBE854E
:10580000BA87EF85EE8BF889FE8F29892F8F6BCDB4
:1058100020E030E0A9016A8D7B8D8C8D9D8D0E94EA
:10582000443818160CF047C02DA13EA14FA158A531
:105830006A857E898E8D9F8D0E94E53590582A89D4
:105840003B894C895D890E94E5357B018C012D2DBA
:105850003C2D432D522D0E9444381816B4F0A3015C
:1058600092016A897B898C899D890E94E5357B013B
:105870008C012D2D3C2D432D522D0E947F3587FD0F
:1058800004C0ED2CFC2C032D122D9701A8016A8D6C
:105890007B8D8C8D9D8D0E9430372B011C0120E06B
:1058A00030E0A9010E947F3587FFBDCD412C512CEE
:1058B000212C312CB8CDC501B40190582A893B89DF
:1058C0004C895D890E94E5357B018C012D2D3C2D95
:1058D000432D522D0E9444381816F4F028A139A106
:1058E0004AA15BA16A857E898E8D9F8D0E94E535D8
:1058F0002A893B894C895D890E94E5357B018C01B1
:105900002D2D3C2D432D522D0E947F3587FD04C047
:10591000ED2CFC2C032D122D9701A8016A8D7B8D97
:105920008C8D9D8D0E9430372B011C0120E030E0D2
:10593000A9010E94443818160CF4B8CF74CDA50103
:1059400094016A857E898E8D9F8D0E94E5354B017D
:105950005C0120E030E0A9016A8D7B8D8C8D9D8DEE
:105960000E94443818160CF03FC0C501B40190588D
:105970002A893B894C895D890E94E5354B015C0190
:10598000272D302F412F562D0E9444381816B4F081
:10599000A70196016A897B898C899D890E94E535DA
:1059A0004B015C01272D302F412F562D0E947F3552
:1059B00087FD04C0872C902EA12EB62C9401A50142
:1059C0006A8D7B8D8C8D9D8D0E9430375B018C01A3
:1059D00020E030E0A9010E947F3587FFC4CDA12CD3
:1059E000B12C00E010E0BFCDC701B60190582A8964
:1059F0003B894C895D890E94E5356B017C01272D2F
:105A0000302F412F562D0E9444381816B4F0A501AE
:105A100094016A897B898C899D890E94E5356B0197
:105A20007C01272D302F412F562D0E947F3587FD79
:105A300004C0C72CD02EE12EF62C9601A7016A8D4A
:105A40007B8D8C8D9D8D0E9430375B018C0120E019
:105A500030E0A9010E94443818160CF4C0CF83CD61
:105A600026011701AECD80915203806280935203CC
:105A700018CE2FE632E143E85AEBC501B4010E948B
:105A80007F3518160CF44FCE9CA1992309F4ECC075
:105A900061E08DE00E949E04A0914101B09142011D
:105AA000BF87AE87E0913F01F0914001FB87EA8715
:105AB00020903D0130903E0120913B0130913C010E
:105AC0003B8B2A8BE0903901F0903A01009137012D
:105AD000109138018091390390913A03A0913B03D2
