:100000000C9477030C949F030C949F030C949F0310
:100010000C949F030C949F030C949F030C949F03D8
:100020000C949F030C949F030C949F030C94481012
:100030000C949F030C949F030C949F030C949F03B8
:100040000C94A60F0C949F030C9416100C94F00FB4
:100050000C949F030C949F030C949F030C949F0398
:100060000C949F030C949F034E414E494E495459A2
:10007000494E46CDCCCC3D0AD7233C17B7D1387773
:10008000CC2B329595E6241FB14F0A000020410089
:1000900000C84200401C4620BCBE4CCA1B0E5AAED3
:1000A000C59D7400407A10F35A00A0724E180900E2
:1000B00010A5D4E80000E87648170000E40B5402CD
:1000C0000000CA9A3B000000E1F505000080969808
:1000D00000000040420F000000A086010000001058
:1000E0002700000000E8030000000064000000009A
:1000F000000A00000000000100000000002C76D87B
:1001000088DC674F0823DFC1DFAE59E1B1B796E560
:10011000E3E453C63AE651997696E8E6C28426EBC4
:10012000898C9B62ED407C6FFCEFBC9C9F40F2BAD7
:10013000A56FA5F490055A2AF75C936B6CF9676D6F
:10014000C11BFCE0E40D47FEF520E6B500D0ED90C4
:100150002E0300943577050080841E080000204E91
:100160000A000000C80C333333330F986E1283112A
:1001700041EF8D2114893BE65516CFFEE6DB18D101
:10018000844B381BF77C1D901DA4BBE424203284D3
:10019000725E228100C9F124ECA1E53D272252497B
:1001A0004748545F4D4F544F525F434F4E54524F48
:1001B0004C4C45525F50494E223A2000224C454655
:1001C000545F4D4F544F525F434F4E54524F4C4C1F
:1001D00045525F50494E223A2000224A4F595F59FA
:1001E0005F50494E223A2000224A4F595F585F50D3
:1001F000494E223A2000225052494E545F564152F5
:100200004941424C45535F494E54455256414C5F1B
:100210004D494C4C4953223A200022535045454405
:100220005F4B4E4F425F50494E223A2000225343CB
:10023000414C455F414343454C5F574954485F53E8
:1002400050454544223A20002253504545445F4BD7
:100250004E4F425F464153545F56414C223A200074
:100260002253504545445F4B4E4F425F534C4F57CE
:100270005F56414C223A2000225553455F5350456A
:1002800045445F4B4E4F42223A2000225249474894
:10029000545F4D4F544F525F46415354223A200011
:1002A0002252494748545F4D4F544F525F534C4F71
:1002B00057223A20002252494748545F4D4F544F2D
:1002C000525F43454E544552223A2000224C454647
:1002D000545F4D4F544F525F46415354223A2000D1
:1002E000224C4546545F4D4F544F525F534C4F572D
:1002F000223A2000224C4546545F4D4F544F525FE6
:1003000043454E544552223A20002252455645520A
:1003100053455F5455524E5F494E5F5245564552C4
:100320005345223A2000225343414C455F545552D5
:100330004E494E475F5748454E5F4D4F56494E47D1
:10034000223A2000225455524E5F535045454422D4
:100350003A200022464153544553545F4241434B97
:1003600057415244223A20002246415354455354A7
:100370005F464F5257415244223A2000224445439F
:10038000454C45524154494F4E5F5455524E494E8B
:1003900047223A200022414343454C4552415449AB
:1003A0004F4E5F5455524E494E47223A2000224448
:1003B0004543454C45524154494F4E5F4241434BA2
:1003C00057415244223A200022414343454C455272
:1003D0004154494F4E5F4241434B57415244223AA8
:1003E000200022444543454C45524154494F4E5FFD
:1003F000464F5257415244223A200022414343453E
:100400004C45524154494F4E5F464F52574152441A
:10041000223A200022595F444541445A4F4E45221A
:100420003A200022434F4E54524F4C5F444F574E98
:10043000223A200022434F4E54524F4C5F43454EC8
:100440005445525F59223A200022434F4E54524F96
:100450004C5F5550223A200022585F444541445A8F
:100460004F4E45223A200022434F4E54524F4C5F8C
:100470004C454654223A200022434F4E54524F4C92
:100480005F43454E5445525F58223A200022434F65
:100490004E54524F4C5F5249474854223A20007BF9
:1004A0002263757272656E742073657474696E6709
:1004B000732C2076657273696F6E3A223A200000C1
:1004C0000000006410B71DC8206E3BAC30D92690E8
:1004D00041DC76F4516B6B5861B24D3C7105502094
:1004E00083B8ED44930FF0E8A3D6D68CB361CBB0BC
:1004F000C2649BD4D2D38678E20AA01CF2BDBD7B35
:10050000226572726F72223A2022656570726F6D79
:10051000206661696C757265227D002276616C755A
:1005200065223A2022002273657474696E67223A4C
:100530002022007B22726573756C74223A2022633C
:1005400068616E676522007B22726573756C742228
:100550003A20226E6F206368616E6765227D007BA2
:1005600022726573756C74223A202273746F7070F6
:100570006564227D007B22726573756C74223A205B
:10058000226D6F76656D656E7420616C6C6F77653A
:1005900064227D007B22726573756C74223A20227E
:1005A0007361766564227D00226A6F794F4B223A2F
:1005B0002000226D6F76656D656E74416C6C6F778F
:1005C0006564223A20002273706565644B6E6F6229
:1005D00056616C223A20002272696768744D6F740C
:1005E0006F72577269746556616C223A2000226CF2
:1005F0006566744D6F746F72577269746556616C7D
:10060000223A2000227370656564546F44726976E3
:1006100065223A2000227475726E546F44726976B6
:1006200065223A200022737065656450726F6365BD
:1006300073736564223A2000227475726E50726F73
:10064000636573736564223A200022737065656484
:10065000496E707574223A2000227475726E496E6C
:10066000707574223A2000226A6F795956616C22A3
:100670003A2000226A6F795856616C223A20007B3A
:100680002263757272656E742076616C7565732C69
:10069000206D696C6C69733A223A200000000000FA
:1006A000240027002A0000000000250028002B005D
:1006B0000404040404040404020202020202030308
:1006C0000303030301020408102040800102040810
:1006D00010200102040810200000000800020100A0
:1006E00000030407000000000000000004111124B2
:1006F0001FBECFEFD8E0DEBFCDBF14E0A0E0B1E079
:10070000EAE3F8E502C005900D92A232B107D9F7ED
:1007100025E0A2E2B4E001C01D92A337B207E1F7E1
:1007200013E0C7E7D3E004C02197FE010E944729E8
:10073000C637D107C9F70E948B110C941B2C0C945F
:10074000000090E0FC01E852F94F2491FC01EC53C9
:10075000F94F3491FC01E055F94FE491EE23C9F0D3
:10076000222339F0233001F1A8F4213019F122308D
:1007700029F1F0E0EE0FFF1FEA55F94FA591B49172
:100780008FB7F894EC91611126C030953E233C93CD
:100790008FBF08952730A9F02830C9F0243049F7D9
:1007A000809180008F7D03C0809180008F7780933F
:1007B0008000DFCF84B58F7784BDDBCF84B58F7D9C
:1007C000FBCF8091B0008F778093B000D2CF809123
:1007D000B0008F7DF9CF3E2BDACFCF93DF9390E03F
:1007E000FC01EC53F94F24918055994FFC01849101
:1007F0008823D1F090E0880F991FFC01E456F94F4F
:10080000A591B491FC01EA55F94FC591D4916111BC
:100810000EC09FB7F8948C91E22FE0958E238C93B5
:100820002881E223E8839FBFDF91CF9108958FB79E
:10083000F894EC91E22BEC938FBFF6CF8E3008F05A
:100840008E508770806480937C0080917A008064F1
:1008500080937A0080917A0086FDFCCF80917800A9
:100860009091790008953FB7F89480919F049091FA
:10087000A004A091A104B091A20426B5A89B05C034
:100880002F3F19F00196A11DB11D3FBFBA2FA92F0F
:10089000982F8827BC01CD01620F711D811D911D0C
:1008A00042E0660F771F881F991F4A95D1F7089578
:1008B0008F929F92AF92BF92CF92DF92EF92FF9270
:1008C0004B015C010E9433046B017C010E943304E4
:1008D0006C197D098E099F09683E73408105910559
:1008E000A8F321E0821A9108A108B10888EEC80E89
:1008F00083E0D81EE11CF11C81149104A104B10411
:1009000029F7FF90EF90DF90CF90BF90AF909F902E
:100910008F9008952FB7F89460919B0470919C0478
:1009200080919D0490919E042FBF0895AF92BF9235
:10093000CF92DF92EF92FF920F931F93CF93DF93AB
:100940006C017B018B01040F151FEB015E01AE18DA
:10095000BF08C017D10759F06991D601ED91FC91FC
:100960000190F081E02DC6010995892B79F7C50129
:10097000DF91CF911F910F91FF90EF90DF90CF907B
:10098000BF90AF900895FC01538D448D252F30E02A
:10099000842F90E0821B930B541710F0CF9608958C
:1009A00001970895FC01918D828D981761F0A28DB9
:1009B000AE0FBF2FB11D5D968C91928D9F5F9F737F
:1009C000928F90E008958FEF9FEF0895FC01918D35
:1009D000828D981731F0828DE80FF11D858D90E0A2
:1009E00008958FEF9FEF0895FC01918D228D892F3F
:1009F00090E0805C9F4F821B91098F739927089527
:100A000083EA94E00E94F40421E0892B09F420E0B9
:100A1000822F089580E090E0892B29F00E94000544
:100A200081110C9400000895FC01A48DA80FB92F2A
:100A3000B11DA35ABF4F2C91848D90E001968F7306
:100A40009927848FA689B7892C93A089B1898C9125
:100A5000837080648C93938D848D981306C0028874
:100A6000F389E02D80818F7D80830895EF92FF923E
:100A70000F931F93CF93DF93EC0181E0888F9B8DC1
:100A80008C8D98131AC0E889F989808185FF15C07B
:100A90009FB7F894EE89FF896083E889F98980819E
:100AA0008370806480839FBF81E090E0DF91CF916D
:100AB0001F910F91FF90EF900895F62E0B8D10E08F
:100AC0000F5F1F4F0F731127E02E8C8D8E110CC0FE
:100AD0000FB607FCFACFE889F989808185FFF5CF49
:100AE000CE010E941405F1CFEB8DEC0FFD2FF11D0F
:100AF000E35AFF4FF0829FB7F8940B8FEA89FB8986
:100B000080818062CFCF0F931F93CF93DF938C01AF
:100B1000D0E0C0E0F801EC0FFD1F6491662341F0C6
:100B200083EA94E00E943605892B11F02196F2CFDA
:100B3000CE01DF91CF911F910F910895CF93DF9355
:100B4000EC01888D8823B9F0AA89BB89E889F989E5
:100B50008C9185FD03C0808186FD0DC00FB607FC1A
:100B6000F7CF8C9185FFF2CF808185FFEDCFCE014D
:100B70000E941405E9CFDF91CF910895DC01EC913B
:100B8000EC3090F511968C91119728E830E0281BF5
:100B9000310987FD3395220F331F220F331F621750
:100BA000730784F012968C9128E532E0281B3109F6
:100BB00087FD3395220F331F220F331F62177307F0
:100BC0000CF49B0122503109220F331F4FB7F894C8
:100BD0008E2F90E0FC01EE0FFF1FE80FF91FE05C85
:100BE000FA4F328321834FBF08951F93CF93DF9332
:100BF000EC01162F88818C3008F04EC061E0812F07
:100C00000E94ED038881282F30E0F901EE0FFF1FCD
:100C1000E20FF31FE05CFA4F1F736081607C612B71
:100C2000608319821A822CE0622F0E943B29829FE6
:100C3000B001112430E020E0AB01420F531FFA0154
:100C4000EE0FFF1FE40FF51FE05CFA4F908196FD59
:100C500016C02F5F3F4F2C30310571F781110FC047
:100C60001092800082E080938100109285001092A3
:100C70008400B19A80916F00826080936F00E88158
:100C80008E2F90E0FC01EE0FFF1FE80FF91FE05CD4
:100C9000FA4F8081806480838881DF91CF911F919A
:100CA00008950F931F93E42FE627EF7024E0E29F4F
:100CB000F0011124E154FB4F0591159125913491D8
:100CC00054E096958795779567955A95D1F7602763
:100CD000712782279327E42FE295EF70E627EF70C4
:100CE00024E0E29FF0011124E154FB4F059115919E
:100CF00025913491E4E09695879577956795EA95E7
:100D0000D1F760277127822793271F910F910895AC
:100D10002F923F924F925F926F927F928F929F920B
:100D2000AF92BF92CF92DF92EF92FF920F931F93F9
:100D3000CF93DF93EC017A01690117FF02C010E045
:100D400000E06C157D050CF006C11701201A310A70
:100D5000812C912C5401C215D3056CF5072E000C83
:100D6000880B990B0E9473264B015C01BE010D2E6E
:100D7000000C880B990B0E947326A50194010E9418
:100D80001C282B013C01B101330C880B990B0E94EC
:100D90007326A50194010E941C289B01AC01C3018C
:100DA000B2010E94892820E030E040E85FE30E9421
:100DB0001C284B015C010E0D1F1D0C171D0784F52F
:100DC000B601DD0C880B990B0E9473266B017C0128
:100DD000BE01DD0F880B990B0E947326A7019601B7
:100DE0000E941C284B015C01B7FAB094B7F8B0948C
:100DF000B801110F880B990B0E947326A701960169
:100E00000E941C289B01AC01C501B4010E948928E5
:100E100020E030E040E85FE30E941D284B015C01C8
:100E200020E030E040E85FEBC501B4010E946C2691
:100E300087FD83C020E030E040E85FE3C501B401F6
:100E40000E94312918160CF47FC0C501B401DF914E
:100E5000CF911F910F91FF90EF90DF90CF90BF90B7
:100E6000AF909F908F907F906F905F904F903F904A
:100E70002F90089518012E0C3F1C812C912C5401A9
:100E80002C163D066CF5072E000C880B990B0E9462
:100E900073264B015C01BE010D2E000C880B990BD3
:100EA0000E947326A50194010E941C282B013C017D
:100EB000B101330C880B990B0E947326A501940194
:100EC0000E941C289B01AC01C301B2010E94892829
:100ED00020E030E040E85FE30E941C284B015C0109
:100EE000E01AF10ACE15DF050CF09ACFB601DD0C41
:100EF000880B990B0E9473264B015C01BE01DD0F2C
:100F0000880B990B0E947326A50194010E941C284E
:100F10002B013C0177FA709477F87094B701FF0CBD
:100F2000880B990B0E947326A50194010E941C282E
:100F30009B01AC01C301B20169CF812C912C90E8D7
:100F4000A92E9FEBB92E81CF812C912C80E8A82E61
:100F50008FE3B82E7ACFC616D7060CF48BCF812C30
:100F6000912C540172CFFC0101900020E9F73197D8
:100F7000AF01481B590BBC0183EA94E00C94960422
:100F80008F929F92AF92BF920F931F93CF93DF9355
:100F9000CDB7DEB7A1970FB6F894DEBF0FBECDBFB9
:100FA00019A2423008F44AE08E010F5D1F4F842ED3
:100FB000912CB12CA12CA50194010E94EB27E62FC6
:100FC000B901CA01EA30F4F4E05DD801EE938D0175
:100FD000232B242B252B79F790E080E0109719F034
:100FE000CD010E94B307A1960FB6F894DEBF0FBEE5
:100FF000CDBFDF91CF911F910F91BF90AF909F9088
:101000008F900895E95CE1CF009711F00C94B3073D
:1010100090E080E00895CF93DF930E94B307EC0146
:1010200089E691E00E94B3078C0F9D1FDF91CF915D
:101030000895CF93DF930E948305EC0189E691E048
:101040000E94B3078C0F9D1FDF91CF910895CF921F
:10105000DF92EF92FF92CF93DF936C01990FEE082E
:10106000FF08F7FE19C06DE283EA94E00E9436059E
:10107000EC0166277727CB016C197D098E099F0942
:101080004AE00E94C0078C0F9D1FDF91CF91FF9017
:10109000EF90DF90CF9008954AE0C701B601DF914D
:1010A000CF91FF90EF90DF90CF900C94C0074F92BC
:1010B0005F926F927F928F929F92AF92BF92CF92E8
:1010C000DF92EF92FF92CF936B017C01AC019B0109
:1010D0000E943629882389F08CE691E0CF91FF9019
:1010E000EF90DF90CF90BF90AF909F908F907F90C8
:1010F0006F905F904F900C94B30746015701E894AE
:10110000B7F82FEF3FEF4FE75FE7C501B4010E944B
:10111000362981110DC02FEF3FEF4FE75FE7C50183
:10112000B4010E946C2618161CF480E791E0D6CF1B
:101130002FEF3FEF4FE75FE4C701B6010E9431296F
:1011400018161CF484E791E0C9CF2FEF3FEF4FE76B
:101150005FECC701B6010E946C2687FDF3CF20E04B
:1011600030E0A901C701B6010E946C26B12CA12C68
:1011700087FF0AC06DE283EA94E00E9436055C01B5
:10118000F7FAF094F7F8F09426E137EB41E558E3ED
:10119000C701B6010E941D282B013C010E940229B3
:1011A0006B017C010E9471269B01AC01C301B2015D
:1011B0000E941C282B013C014AE0C701B6010E9495
:1011C000C0077C01EA0CFB1C6EE283EA94E00E94FB
:1011D0003605E80EF91EC5E0C15019F120E030E0F7
:1011E00040E251E4C301B2010E94D2262B013C012E
:1011F0000E9402294B01B12CA12C4AE0C501B40187
:101200000E94C007E80EF91EC501B4010E947126B4
:101210009B01AC01C301B2010E941C282B013C01BF
:10122000DBCFC701CF91FF90EF90DF90CF90BF90C1
:10123000AF909F908F907F906F905F904F900895A8
:10124000682F70E090E080E04AE00C94C0078FE9DE
:1012500094E00E94830581E090E00E9427088CE1E1
:1012600094E00E9404088DE894E00E948305809138
:101270004C0190914D010E9427088CE194E00E945E
:10128000040888E794E00E94830580914A019091C8
:101290004B010E9427088CE194E00E94040887E635
:1012A00094E00E94830580914801909149010E9439
:1012B00027088CE194E00E94040888E594E00E94ED
:1012C000830580914E0190914F010E9427088CE187
:1012D00094E00E94040889E494E00E9483058091D0
:1012E0004401909145010E9427088CE194E00E94FE
:1012F000040884E394E00E94830580914201909168
:1013000043010E9427088CE194E00E94040883E2D4
:1013100094E00E94830580914001909141010E94D8
:1013200027088CE194E00E94040884E194E00E9484
:10133000830580914601909147010E9427088CE126
:1013400094E00E9404088BEF93E00E948305609173
:101350001701709118018091190190911A010E9452
:1013600057088CE194E00E94040882EE93E00E940A
:10137000830560911B0170911C0180911D0190916A
:101380001E010E9457088CE194E00E94040888EC3A
:1013900093E00E94830560911F017091200180916C
:1013A0002101909122010E9457088CE194E00E9453
:1013B00004088EEA93E00E948305609123017091F6
:1013C000240180912501909126010E9457088CE10B
:1013D00094E00E94040885E993E00E9483056091EF
:1013E0000E0170910F0180911001909111010E94E6
:1013F00057088CE194E00E9404088CE793E00E9477
:1014000083056091120170911301809114019091F4
:1014100015010E9457088CE194E00E94040888E6B8
:1014200093E00E94830560912701709128018091CB
:10143000290190912A010E9457088CE194E00E94B2
:10144000040883E593E00E94830560912B0170916D
:101450002C0180912D0190912E010E9457088CE162
:1014600094E00E94040884E493E00E948305609164
:101470002F017091300180913101909132010E94D1
:1014800057088CE194E00E94040886E293E00E94F1
:10149000830560913C0170913D0180913E019091E6
:1014A0003F010E9457088CE194E00E9404088AE002
:1014B00093E00E94830580917E048111E2C08DE754
:1014C00091E00E9404088CE194E00E94040884EFFB
:1014D00092E00E94830580915401909155010E94F1
:1014E00027088CE194E00E94040880EE92E00E94BC
:1014F000830580910601909107010E9427088CE1E5
:1015000094E00E9404088CEC92E00E948305809194
:101510000801909109010E9427088CE194E00E9443
:10152000040885EB92E00E9483058091520190911E
:1015300053010E9427088CE194E00E94040880EA8D
:1015400092E00E94830580910A0190910B010E9414
:1015500027088CE194E00E9404088BE892E00E9446
:10156000830580910C0190910D010E9427088CE168
:1015700094E00E94040888E792E00E94830580912D
:101580008104811181C08DE791E00E9404088CE103
:1015900094E00E94040880E692E00E948305809116
:1015A0003A0190913B010E9427088CE194E00E944F
:1015B000040888E492E00E94830580917F04909162
:1015C00080040E9427088CE194E00E9404088DE2C8
:1015D00092E00E94830580911601811158C08DE729
:1015E00091E00E9404088CE194E00E9404088AE1E2
:1015F00092E00E948305809139010E9420098CE1CC
:1016000094E00E94040886EF91E00E948305809197
:101610000201909103010E9427088CE194E00E944E
:10162000040888EE91E00E948305809151010E9498
:1016300020098CE194E00E9404088AED91E00E9468
:101640008305809150010E9420098CE194E00E9462
:1016500004088CEB91E00E948305809101010E94B7
:1016600020098CE194E00E9404088DE991E00E9439
:101670008305809100010E94200980E294E00C948F
:101680000B0888E791E01DCF88E791E07ECF88E7DF
:1016900091E0A7CF1F93CF93DF93EC01162F0E9409
:1016A0009327181739F0612FCE01DF91CF911F9149
:1016B0000C949B27DF91CF911F910895CF92DF92D9
:1016C000EF92FF920F931F93CF93DF93EC018B0167
:1016D000C0902304D0902404E0902504F0902604C8
:1016E000FB016081888199810E944A0B88819981E0
:1016F000F80160818A569F4F0E944A0B8881998128
:10170000F8016081845D9E4F0E944A0BF801408180
:10171000C701B6010E945106288139812F5F3F4FD2
:1017200039832883609323047093240480932504D1
:1017300090932604DF91CF911F910F91FF90EF902E
:10174000DF90CF900895AF92BF92CF92DF92EF9249
:10175000FF920F931F93CF93DF938C01EB01C09007
:101760002304D0902404E0902504F09026045B012B
:1017700084E0A80EB11C6881F801808191810E94EB
:101780004A0BF8018081918168818A569F4F0E949F
:101790004A0BF801808191816881845D9E4F0E948F
:1017A0004A0B4991C701B6010E9451066B017C01A9
:1017B000F80180819181019691838083AC16BD06EA
:1017C000D1F6C0922304D0922404E0922504F09232
:1017D0002604DF91CF911F910F91FF90EF90DF9042
:1017E000CF90BF90AF900895AF92BF92CF92DF920B
:1017F000EF92FF920F931F93CF93DF938C01EB0136
:10180000C0902304D0902404E0902504F090260496
:101810005B0182E0A80EB11C6881F8018081918192
:101820000E944A0BF8018081918168818A569F4FFE
:101830000E944A0BF801808191816881845D9E4FEE
:101840000E944A0B4991C701B6010E9451066B01E3
:101850007C01F80180819181019691838083AC168F
:10186000BD06D1F6C0922304D0922404E092250450
:10187000F0922604DF91CF911F910F91FF90EF908E
:10188000DF90CF90BF90AF900895CF92DF92EF920C
:10189000FF920F931F93CF93DF93EC018B01C090C6
:1018A0002304D0902404E0902504F0902604FB014A
:1018B0006081888199810E944A0B88819981F80111
:1018C00060818A569F4F0E944A0B88819981F80156
:1018D0006081845D9E4F0E944A0BF8014081C701E0
:1018E000B6010E945106288139812F5F3F4F39830D
:1018F0002883609323047093240480932504909399
:101900002604DF91CF911F910F91FF90EF90DF9010
:10191000CF900895CF92DF92EF92FF920F931F9393
:10192000CF93DF9300D0CDB7DEB781E090E09A830C
:10193000898310922304109224041092250410929B
:1019400026046CE471E0CE0101960E94F40B6AE477
:1019500071E0CE0101960E94F40B68E471E0CE01C3
:1019600001960E94F40B6EE471E0CE0101960E9494
:10197000F40B64E471E0CE0101960E94F40B62E482
:1019800071E0CE0101960E94F40B60E471E0CE019B
:1019900001960E94F40B66E471E0CE0101960E946C
:1019A000F40B67E171E0CE0101960E94A30B6BE19D
:1019B00071E0CE0101960E94A30B6FE171E0CE01B0
:1019C00001960E94A30B63E271E0CE0101960E9492
:1019D000A30B6EE071E0CE0101960E94A30B62E1C1
:1019E00071E0CE0101960E94A30B67E271E0CE0187
:1019F00001960E94A30B6BE271E0CE0101960E945A
:101A0000A30B6FE271E0CE0101960E94A30B6CE381
:101A100071E0CE0101960E94A30B66E171E0CE0158
:101A200001960E945E0B6EE774E0CE0101960E9463
:101A30005E0B64E571E0CE0101960E94F40B66E056
:101A400071E0CE0101960E94F40B68E071E0CE01D6
:101A500001960E94F40B62E571E0CE0101960E94AE
:101A6000F40B6AE071E0CE0101960E94F40B6CE089
:101A700071E0CE0101960E94F40B61E874E0CE01A2
:101A800001960E945E0B6AE371E0CE0101960E940E
:101A9000F40B6FE774E0CE0101960E94F40B62E054
:101AA00071E0CE0101960E94F40B61E571E0CE0178
:101AB00001960E94450C60E571E0CE0101960E94FE
:101AC000450C61E071E0CE0101960E94450C60E09A
:101AD00071E0CE0101960E94450C69E371E0CE01F0
:101AE00001960E94450CC0902304D0902404E090FD
:101AF0002504F090260403E214E0F8016081898156
:101B00009A810E944A0B89819A81F80160818A56E4
:101B10009F4F0E944A0B89819A81F8016081845D00
:101B20009E4F0E944A0BF80141918F01C701B601F7
:101B30000E9451066B017C0189819A8101969A83EA
:101B40008983F4E007321F07C1F6C0922304D092C4
:101B50002404E0922504F09226040F900F90DF9168
:101B6000CF911F910F91FF90EF90DF90CF9008954C
:101B70000C949327CF92DF92EF92FF920F931F93D3
:101B8000CF93DF938C017B01FC01C080D180C60123
:101B90000E94B80DC82FC6018A569F4F0E94B80DEB
:101BA000D82FC601845D9E4F0E94B80DCD1327C06B
:101BB000C81325C0F701C0836091230470912404E9
:101BC0008091250490912604F70140810E945106DE
:101BD0006093230470932404809325049093260437
:101BE000F80180819181019691838083DF91CF916B
:101BF0001F910F91FF90EF90DF90CF9008956C2F81
:101C0000682B6D23C8236C2BF7016083F80180815A
:101C100091810E944A0BF80180819181F7016081D6
:101C20008A569F4F0E944A0BF80180819181F701EB
:101C30006081845D9E4F0E944A0B60E08DE00E94AF
:101C4000A10364E670E080E090E00E94580461E047
:101C50008DE00E94A10364E670E080E090E00E94C5
:101C60005804AACFAF92BF92CF92DF92EF92FF9229
:101C70000F931F93CF93DF937C01EB016B0184E003
:101C8000C80ED11CF701A080B180C5010E94B80D1B
:101C9000182FC5018A569F4F0E94B80D082FC50105
:101CA000845D9E4F0E94B80D10132AC0181328C0DF
:101CB00018836091230470912404809125049091ED
:101CC000260449910E9451066093230470932404D2
:101CD0008093250490932604F701808191810196D9
:101CE00091838083CC15DD0569F6DF91CF911F913B
:101CF0000F91FF90EF90DF90CF90BF90AF9008953D
:101D0000612F682B60231823612B6883F701808182
:101D100091810E944A0BF7018081918168818A56E6
:101D20009F4F0E944A0BF701808191816881845DF9
:101D30009E4F0E944A0B60E08DE00E94A10364E682
:101D400070E080E090E00E94580461E08DE00E9425
:101D5000A10364E670E080E090E00E945804A9CFFF
:101D6000AF92BF92CF92DF92EF92FF920F931F93A9
:101D7000CF93DF937C01EB016B0182E0C80ED11C95
:101D8000F701A080B180C5010E94B80D182FC501D0
:101D90008A569F4F0E94B80D082FC501845D9E4F43
:101DA0000E94B80D10132AC0181328C01883609120
:101DB0002304709124048091250490912604499174
:101DC0000E94510660932304709324048093250499
:101DD00090932604F70180819181019691838083FD
:101DE000CC15DD0569F6DF91CF911F910F91FF9022
:101DF000EF90DF90CF90BF90AF900895612F682B48
:101E000060231823612B6883F701808191810E94F0
:101E10004A0BF7018081918168818A569F4F0E9409
:101E20004A0BF701808191816881845D9E4F0E94F9
:101E30004A0B60E08DE00E94A10364E670E080E060
:101E400090E00E94580461E08DE00E94A10364E6E6
:101E500070E080E090E00E945804A9CFCF92DF921A
:101E6000EF92FF920F931F93CF93DF938C017B012F
:101E7000FC01C080D180C6010E94B80DC82FC601E8
:101E80008A569F4F0E94B80DD82FC601845D9E4F81
:101E90000E94B80DCD1327C0C81325C0F701C08319
:101EA000609123047091240480912504909126046C
:101EB000F70140810E94510660932304709324042B
:101EC0008093250490932604F801808191810196E6
:101ED00091838083DF91CF911F910F91FF90EF90BD
:101EE000DF90CF9008956C2F682B6D23C8236C2B47
:101EF000F7016083F801808191810E944A0BF8010B
:101F000080819181F70160818A569F4F0E944A0B20
:101F1000F80180819181F7016081845D9E4F0E946C
:101F20004A0B60E08DE00E94A10364E670E080E06F
:101F300090E00E94580461E08DE00E94A10364E6F5
:101F400070E080E090E00E945804AACF1F920F92A8
:101F50000FB60F9211242F933F938F939F93AF93BC
:101F6000BF9380919B0490919C04A0919D04B0919B
:101F70009E0430919A0423E0230F2D3758F50196E3
:101F8000A11DB11D20939A0480939B0490939C04FF
:101F9000A0939D04B0939E0480919F049091A0040F
:101FA000A091A104B091A2040196A11DB11D80933E
:101FB0009F049093A004A093A104B093A204BF91A6
:101FC000AF919F918F913F912F910F900FBE0F90E6
:101FD0001F90189526E8230F0296A11DB11DD2CFA0
:101FE0001F920F920FB60F9211242F933F934F938E
:101FF0005F936F937F938F939F93AF93BF93EF9371
:10200000FF9383EA94E00E941405FF91EF91BF9142
:10201000AF919F918F917F916F915F914F913F9180
:102020002F910F900FBE0F901F9018951F920F9237
:102030000FB60F9211242F938F939F93EF93FF93DB
:10204000E091B304F091B4048081E091B904F0917F
:10205000BA0482FD1BC090818091BC048F5F8F7396
:102060002091BD04821741F0E091BC04F0E0ED55F1
:10207000FB4F958F8093BC04FF91EF919F918F91BF
:102080002F910F900FBE0F901F9018958081F4CF65
:102090001F920F920FB60F9211242F933F934F93DD
:1020A0005F936F937F938F939F93AF93BF93CF93E0
:1020B000DF93EF93FF9380912204C0916405D0E0F9
:1020C00087FF24C010928500109284008091220422
:1020D0008F5F8093220480912204082E000C990BBC
:1020E0008C179D0724F4809122048C30C4F18091D8
:1020F000840090918500049680349C4908F47AC04D
:102100008091840090918500049676C0809122048D
:10211000082E000C990B8C179D07C4F6E091220441
:102120008E2FEE0F990BFC01EE0FFF1FE80FF91F2A
:10213000E05CFA4F808186FFC9CFE09122048E2FA8
:10214000EE0F990BFC01EE0FFF1FE80FF91FE05C8B
:10215000FA4F808160E08F730E94A103B7CF209176
:10216000840030918500E09122048E2FEE0F990BB0
:10217000FC01EE0FFF1FE80FF91FE05CFA4F8181B1
:102180009281820F931F9093890080938800E09141
:1021900022048E2FEE0F990BFC01EE0FFF1FE80FAC
:1021A000F91FE05CFA4F808186FF11C0E0912204A4
:1021B0008E2FEE0F990BFC01EE0FFF1FE80FF91F9A
:1021C000E05CFA4F808161E08F730E94A103FF9170
:1021D000EF91DF91CF91BF91AF919F918F917F91BF
:1021E0006F915F914F913F912F910F900FBE0F9084
:1021F0001F90189580E49CE9909389008093880053
:102200008FEF80932204E3CF1092A6041092A504CE
:1022100088EE93E0A0E0B0E08093A7049093A80438
:10222000A093A904B093AA048BE591E09093A40431
:102230008093A30485EC90E09093B0048093AF0466
:1022400084EC90E09093B2048093B10480EC90E031
:102250009093B4048093B30481EC90E09093B6041F
:102260008093B50482EC90E09093B8048093B70417
:1022700086EC90E09093BA048093B9041092BC0469
:102280001092BD041092BE041092BF0480915401BC
:102290009091550190936E0580936D058091520148
:1022A0009091530190936C0580936B058091640528
:1022B0008C3048F591E0980F909364058093680501
:1022C00090E0FC01EE0FFF1FE80FF91FE05CFA4FF2
:1022D00088EB9BE092838183809164058C30B8F415
:1022E00091E0980F909364058093650590E0FC0160
:1022F000EE0FFF1FE80FF91FE05CFA4F88EB9BE041
:102300009283818308958FEF80936805E5CF8FEFE7
:10231000809365050895CF93DF93CDB7DEB7A3977C
:102320000FB6F894DEBF0FBECDBF789484B582603F
:1023300084BD84B5816084BD85B5826085BD85B569
:10234000816085BD80916E00816080936E001092E7
:102350008100809181008260809381008091810062
:1023600081608093810080918000816080938000F3
:102370008091B10084608093B1008091B000816051
:102380008093B00080917A00846080937A0080917D
:102390007A00826080937A0080917A0081608093D5
:1023A0007A0080917A00806880937A001092C10050
:1023B000E091B304F091B40482E08083E091AF0433
:1023C000F091B0041082E091B104F091B20480E188
:1023D00080831092BB04E091B704F091B80486E0CA
:1023E0008083E091B504F091B604808180618083A0
:1023F000E091B504F091B604808188608083E0911B
:10240000B504F091B604808180688083E091B504C2
:10241000F091B60480818F7D808360E08DE00E9422
:10242000A10318861F82BE01675F7F4FCE0107960A
:102430000E942E0F8985853051F018861F8266E52F
:1024400071E0CE0107960E94450C0E948A0C81E043
:1024500090E09E838D8310922304109224041092A6
:102460002504109226048E010B5F1F4F6CE471E06F
:10247000C8010E94B00E6AE471E0C8010E94B00E6B
:1024800068E471E0C8010E94B00E6EE471E0C8011A
:102490000E94B00E64E471E0C8010E94B00E62E4D4
:1024A00071E0C8010E94B00E60E471E0C8010E94B2
:1024B000B00E66E471E0C8010E94B00E67E171E001
:1024C000C8010E94320E6BE171E0C8010E94320E19
:1024D0006FE171E0C8010E94320E63E271E0C80151
:1024E0000E94320E6EE071E0C8010E94320E62E17D
:1024F00071E0C8010E94320E67E271E0C8010E94DB
:10250000320E6BE271E0C8010E94320E6FE271E0A0
:10251000C8010E94320E6CE371E0C8010E94320EC5
:1025200066E171E0C8010E94BA0D6EE774E0C8016F
:102530000E94BA0D64E571E0C8010E94B00E66E029
:1025400071E0C8010E94B00E68E071E0C8010E940D
:10255000B00E62E571E0C8010E94B00E6AE071E061
:10256000C8010E94B00E6CE071E0C8010E94B00E7C
:1025700061E874E0C8010E94BA0D6AE371E0C80125
:102580000E94B00E6FE774E0C8010E94B00E62E0D6
:1025900071E0C8010E94B00E61E571E0C8010E94BF
:1025A0002E0F60E571E0C8010E942E0F61E071E01E
:1025B000C8010E942E0F60E071E0C8010E942E0F3A
:1025C00069E371E0C8010E942E0F409023045090EF
:1025D0002404609025047090260419821A821B82BC
:1025E0001C82CE0101967C01AD80BE80C5010E9497
:1025F000B80DD82EC5018A569F4F0E94B80DC82E1F
:10260000C501845D9E4F0E94B80DDC103CC1D812FC
:102610003AC1D701DC926091230470912404809127
:10262000250490912604D7014D917D010E94510609
:1026300060932304709324048093250490932604CC
:102640008D819E8101969E838D83E016F10661F651
:1026500089819A81AB81BC81481659066A067B063E
:1026600009F441C162E370E080E090E00E94580408
:102670008FEF94E00E94190862E370E080E090E040
:102680000E945804E09168058E2F90E0FC01EE0F47
:10269000FF1FE80FF91FE05CFA4F808186FF02C040
:1026A0008F7B8083E09165058E2F90E0FC01EE0F1B
:1026B000FF1FE80FF91FE05CFA4F808186FF02C020
:1026C0008F7B808364E670E080E090E00E94580495
:1026D00012E060E0812F0E94ED0360E0812F0E94F4
:1026E000A1031F5F1536A9F761E08DE00E94ED039D
:1026F00062E370E080E090E00E94580461E08DE0C9
:102700000E94A10368EC70E080E090E00E94580411
:1027100060E08DE00E94A10368EC70E080E090E052
:102720000E94580461E08DE00E94A10368EC70E013
:1027300080E090E00E94580460E08DE00E94A103D8
:1027400068EC70E080E090E00E94580461E08DE069
:102750000E94A10368EC70E080E090E00E945804C1
:1027600060E08DE00E94A10368EC70E080E090E002
:102770000E94580460E971E080E090E00E945804F3
:1027800061E08DE00E94A10364EF71E080E090E0E1
:102790000E94580460E08DE00E94A10360E971E0AE
:1027A00080E090E00E94580461E08DE00E94A10367
:1027B00064EF71E080E090E00E94580460E08DE0FA
:1027C0000E94A10360E971E080E090E00E9458045B
:1027D00061E08DE00E94A10364EF71E080E090E091
:1027E0000E94580460E08DE00E94A10360E971E05E
:1027F00080E090E00E94580460E971E080E090E0A1
:102800000E94580461E08DE00E94A10368EC70E032
:1028100080E090E00E94580460E08DE00E94A103F7
:1028200068EC70E080E090E00E94580461E08DE088
:102830000E94A10368EC70E080E090E00E945804E0
:1028400060E08DE00E94A10368EC70E080E090E021
:102850000E94580461E08DE00E94A10368EC70E0E2
:1028600080E090E00E94580460E08DE00E94A103A7
:1028700068EC70E080E090E00E94580468EE73E03D
:1028800080E090E039CF6D2D682B6C21D8226D2926
:10289000F70160838D819E810E944A0B8D819E810C
:1028A000D7016C918A569F4F0E944A0B8D819E8161
:1028B000F7016081845D9E4F0E944A0B60E08DE0CD
:1028C0000E94A10364E670E080E090E00E9458045A
:1028D00061E08DE00E94A10364E670E080E090E09A
:1028E0000E94580498CE0E94270960E0809151010F
:1028F0000E94ED0360E0809150010E94ED0360E0D2
:10290000809139010E94ED036091010170E088E639
:1029100095E00E94F5056091000170E085E695E084
:102920000E94F505609154017091550188E695E08B
:102930000E94BE05609152017091530185E695E0B9
:102940000E94BE0564E670E080E090E00E945804BA
:1029500083EA94E00E94D204F82EBFEF8B1709F4AB
:102960006FC4ECE28E130C947B1EE0916804F0E0DF
:10297000EA5CFB4F108263E871E086E394E00E941A
:1029800090227C0163E871E090E080E00E94902258
:102990008C01A7E2B4E0EFE01D92EA95E9F766E862
:1029A00071E0C7010E946A29892BC9F5C8010E94FC
:1029B000722280934C0190934D019F938F9384E9F1
:1029C00091E09F938F93E7E2F4E0FF93EF930E94EF
:1029D0007A290F900F900F900F900F900F9083E334
:1029E00095E00E9483058CE194E00E94040886E251
:1029F00095E00E948305C7010E9404088BE194E0E2
:102A00000E9404088BE195E00E94830587E294E030
:102A10000E9404088FE194E00E940B080FC467E94C
:102A200071E0C7010E946A29892B41F4C8010E9404
:102A3000722280934A0190934B01BFCF68EA71E004
:102A4000C7010E946A29892B41F4C8010E947222A1
:102A50008093480190934901B0CF65EB71E0C701C5
:102A60000E946A29892B69F4C8010E94722297FF8B
:102A700003C091958195910980934E0190934F01E8
:102A80009CCF60EC71E0C7010E946A29892B41F458
:102A9000C8010E94722280934401909345018DCF1A
:102AA0006BEC71E0C7010E946A29892B41F4C801CF
:102AB0000E94722280934201909343017ECF6CED7D
:102AC00071E0C7010E946A29892B41F4C8010E9464
:102AD000722280934001909341016FCF69EE71E0C3
:102AE000C7010E946A29892B69F4C8010E947222D9
:102AF00097FF03C09195819591098093460190932A
:102B000047015BCF64EF71E0C7010E946A29892BFE
:102B100009F5C8010E946E2220E030E0A9010E9460
:102B20003129181694F4C8010E946E22609317018F
:102B3000709318018093190190931A0107E214E031
:102B400024E040E00E9450224ACFC8010E946E2239
:102B50009058ECCF69E072E0C7010E946A29892B86
:102B6000D9F4C8010E946E2220E030E0A9010E9441
:102B70003129181664F4C8010E946E2260931B016B
:102B800070931C0180931D0190931E01D7CFC80143
:102B90000E946E229058F2CF6EE172E0C7010E944F
:102BA0006A29892BD9F4C8010E946E2220E030E006
:102BB000A9010E943129181664F4C8010E946E22EE
:102BC00060931F0170932001809321019093220153
:102BD000B5CFC8010E946E229058F2CF64E372E034
:102BE000C7010E946A29892BD9F4C8010E946E226C
:102BF00020E030E0A9010E943129181664F4C801D0
:102C00000E946E226093230170932401809325011A
:102C10009093260193CFC8010E946E229058F2CF64
:102C20006AE472E0C7010E946A29892BD9F4C801BD
:102C30000E946E2220E030E0A9010E94312918167E
:102C400064F4C8010E946E2260930E0170930F011C
:102C5000809310019093110171CFC8010E946E22E0
:102C60009058F2CF6FE572E0C7010E946A29892B64
:102C7000D9F4C8010E946E2220E030E0A9010E9430
:102C80003129181664F4C8010E946E226093120163
:102C90007093130180931401909315014FCFC801D5
:102CA0000E946E229058F2CF64E772E0C7010E9442
:102CB0006A29892B09F062C0C8010E946E2220E0B7
:102CC00030E0A9010E943129181674F4C8010E944D
:102CD0006E2220E030E0A9010E946C2687FF0EC022
:102CE00060E070E0CB012CC0C8010E946E2220E0A1
:102CF00030E0A9010E943129181694F3C8010E94FE
:102D00006E2220E030E0A9010E94312918160CF54E
:102D1000C8010E946E2220E030E040E85FE30E949C
:102D2000312918160CF1C8010E946E2220E030E013
:102D3000A9010E9431291816E4F4C8010E946E22EC
:102D400060932701709328018093290190932A01B1
:102D5000F5CEC8010E946E2220E030E040E85FEB33
:102D60000E946C2687FFDFCF60E070E080E89FE381
:102D7000E7CFC8010E946E229058E2CF64E872E06B
:102D8000C7010E946A29892B09F062C0C8010E940C
:102D90006E2220E030E0A9010E943129181674F457
:102DA000C8010E946E2220E030E0A9010E946C263A
:102DB00087FF0EC060E070E0CB012CC0C8010E940C
:102DC0006E2220E030E0A9010E943129181694F308
:102DD000C8010E946E2220E030E0A9010E94312942
:102DE00018160CF5C8010E946E2220E030E040E881
:102DF0005FE30E94312918160CF1C8010E946E226F
:102E000020E030E0A9010E9431291816E4F4C8013D
:102E10000E946E2260932B0170932C0180932D01F0
:102E200090932E018BCEC8010E946E2220E030E0EC
:102E300040E85FEB0E946C2687FFDFCF60E070E028
:102E400080E89FE3E7CFC8010E946E229058E2CF4E
:102E500065E972E0C7010E946A29892B09F062C006
:102E6000C8010E946E2220E030E0A9010E943129B1
:102E7000181674F4C8010E946E2220E030E0A90107
:102E80000E946C2687FF0EC060E070E0CB012CC072
:102E9000C8010E946E2220E030E0A9010E94312981
:102EA000181694F3C8010E946E2220E030E0A901B8
:102EB0000E94312918160CF5C8010E946E2220E0EC
:102EC00030E040E85FE30E94312918160CF1C80198
:102ED0000E946E2220E030E0A9010E9431291816DC
:102EE000E4F4C8010E946E2260932F0170933001B8
:102EF000809331019093320121CEC8010E946E224D
:102F000020E030E040E85FEB0E946C2687FFDFCFD7
:102F100060E070E080E89FE3E7CFC8010E946E2286
:102F20009058E2CF60EA72E0C7010E946A29892BBB
:102F300061F4C8010E946E2260933C0170933D01D0
:102F400080933E0190933F01F9CD6AEB72E0C70197
:102F50000E946A29892BA1F4C8010E94722221E0F3
:102F6000009709F420E02093160168E771E0892BAF
:102F700011F46DE771E087E294E00E9473292FCD90
:102F800061ED72E0C7010E946A29892B51F4C801E2
:102F90000E94722221E0009709F420E020937E0431
:102FA000E4CF69EE72E0C7010E946A29892B41F4DF
:102FB000C8010E9472228093540190935501FDCC68
:102FC0006BEF72E0C7010E946A29892B41F4C801A6
:102FD0000E9472228093060190930701EECC6BE071
:102FE00073E0C7010E946A29892B41F4C8010E943D
:102FF00072228093080190930901DFCC6BE173E0AA
:10300000C7010E946A29892B41F4C8010E947222DB
:103010008093520190935301D0CC6EE273E0C701CC
:103020000E946A29892B41F4C8010E947222809370
:103030000A0190930B01C1CC6FE373E0C7010E94BA
:103040006A29892B41F4C8010E94722280930C01E5
:1030500090930D01B2CC60E573E0C7010E946A292C
:10306000892B51F4C8010E94722221E0009709F4D3
:1030700020E02093810479CF6FE573E0C7010E94BF
:103080006A29892B41F4C8010E94722280933A0177
:1030900090933B0192CC63E773E0C7010E946A29D9
:1030A000892B41F4C8010E94722280937F0490937F
:1030B000800483CC67E873E0C7010E946A29892BEA
:1030C00041F4C8010E94722280930201909303018F
:1030D00074CC67EA73E0C7010E946A29892B61F406
:1030E000C8010E9472228093510160E00E94ED03AA
:1030F000809151011F9262CC61EB73E0C7010E9485
:103100006A29892B59F4C8010E94722280935001C8
:1031100060E00E94ED0380915001ECCF6BEB73E017
:10312000C7010E946A29892B61F560915401709151
:10313000550188E695E00E94BE05E09168058E2F56
:1031400090E0FC01EE0FFF1FE80FF91FE05CFA4F63
:1031500080818F7B8083C8010E947222809301014D
:10316000BC01772788E695E00E94F505609154013F
:103170007091550188E695E00E94BE05809101019D
:10318000B9CF65ED73E0C7010E946A29892B61F50B
:10319000609152017091530185E695E00E94BE0551
:1031A000E09165058E2F90E0FC01EE0FFF1FE80F08
:1031B000F91FE05CFA4F80818F7B8083C8010E94F9
:1031C000722280930001BC01772785E695E00E947A
:1031D000F505609152017091530185E695E00E94DA
:1031E000BE058091000186CF60EF73E0C7010E94A9
:1031F0006A29892B59F4C8010E94722280933901EF
:1032000060E00E94ED038091390174CF6FEF73E0AD
:10321000C7010E946A29892B39F40E948A0C84E92B
:1032200095E00E9419080AC064E074E0C7010E949A
:103230006A29892B09F011C50E9427091092680498
:10324000C0906904D0906A04E0906B04F0906C0424
:10325000C114D104E104F10409F472C50E943304DD
:103260006C197D098E099F090E94712620E034E2C5
:1032700044E759E40E9489286C8B7D8B8E8B9F8B51
:103280000E9433046093690470936A0480936B0412
:1032900090936C048C899D89AE89BF898093960434
:1032A00090939704A0939804B0939904809151014E
:1032B0000E941E046C019093950480939404809165
:1032C00050010E941E047C01909393048093920409
:1032D00000914E0110914F0120914C0130914D0110
:1032E00040914A0150914B01609148017091490110
:1032F000C6010E9488064B015C0180928E04909268
:103300008F04A0929004B092910400914601109114
:103310004701209144013091450140914201509173
:1033200043016091400170914101C7010E948806EC
:103330006B017C01C0928A04D0928B04E0928C04D1
:10334000F0928D04C0928604D0928704E0928804A3
:10335000F092890420913C0130913D0140913E0161
:1033600050913F0160E070E080E89FE30E941C28DC
:103370002B013C0120E030E0A901C701B6010E9409
:103380003129181624F0F7FAF094F7F8F094A70111
:103390009601C301B2010E94D2269B01AC0160E0FC
:1033A00070E080E89FE30E941C286B017C0120E014
:1033B00030E0A9010E94312918161CF0C12CD12C33
:1033C0007601A7019601C501B4010E94D22660933F
:1033D0008204709383048093840490938504809185
:1033E0008104882309F4BFC4C0907F04D090800476
:1033F000E0903A01F0903B01809139010E941E0457
:103400008C019093380180933701B701FF0C880B32
:10341000990B0E9473264B015C01B801110F880BB8
:10342000990B0E947326A50194010E941C282B0170
:103430003C01B601DD0C880B990B0E947326A50197
:1034400094010E941C289B01AC01C301B2010E949F
:10345000892820E030E0A9010E941D286B017C0131
:1034600020E030E0A9010E946C2687FD78C420E0AE
:1034700030E040E85FE3C701B6010E943129181629
:1034800034F4C12CD12C80E8E82E8FE3F82EC092C2
:103490003301D0923401E0923501F09236018090F0
:1034A0002F0190903001A0903101B0903201C09076
:1034B0002B01D0902C01E0902D01F0902E01409036
:1034C0002701509028016090290170902A01809175
:1034D000330190913401A0913501B0913601888B70
:1034E000998BAA8BBB8B20E030E0A901C701B60104
:1034F0000E943129181624F0F7FAF094F7F8F094A6
:1035000020E030E0A901C301B2010E943129181660
:1035100024F077FA709477F8709420E030E0A901F5
:10352000C501B4010E943129181624F0B7FAB094ED
:10353000B7F8B094A3019201688979898A899B8937
:103540000E94D2266A877C87888F998FC701B6012F
:103550009058288939894A895B890E94D2266B0153
:103560007C0140908604509087046090880470909D
:10357000890420E030E0A901C301B2010E946C2659
:10358000882309F409C420E030E0A901C301B20195
:103590000E943129A301920118160CF0F1C36A852B
:1035A0007C85888D998D0E94D22620E030E0A9018B
:1035B0000E941D281B018C019101A801B601C701C1
:1035C0000E94312918160CF4ECC39101A8016A85F8
:1035D0007C85888D998D0E946C2687FF04C02A8483
:1035E0003C84088D198DC101D80180938604909385
:1035F0008704A0938804B0938904209182043091B9
:1036000083044091840450918504C501B4010E9453
:10361000D226288939894A895B890E94D2262B01C2
:103620003C01288939894A895B89C501B4019058D0
:103630000E94D2266B017C01AC019B01B201C30147
:103640000E946C2687FD14C0A501940168897989C0
:103650008A899B890E94D2266B017C01AC019B0167
:10366000B201C3010E943129181614F062017301DE
:10367000C0928204D0928304E0928404F092850484
:1036800020E030E0A901B101C8010E946C2687FF4B
:1036900010C080917E04882361F0F7FAF094F7F867
:1036A000F094C0928204D0928304E0928404F09259
:1036B00085048091230190912401A0912501B0916E
:1036C00026018A8F9B8FAC8FBD8F80901F019090B9
:1036D0002001A0902101B090220180911B019091C6
:1036E0001C01A0911D01B0911E0188A399A3AAA35A
:1036F000BBA3409017015090180160901901709081
:103700001A018091160181114FC3188E198E90E80D
:103710009E8FAFE3AF8FC0907A04D0907B04E0908F
:103720007C04F0907D0420E030E0A901C301B201E7
:103730000E94312918161CF0412C512C3201A30192
:103740009201688D798D8E8D9F8D0E94D2262B01DE
:103750003C0120E030E0A90168A179A18AA19BA1E8
:103760000E943129181624F018A219A21AA21BA22D
:1037700020E030E0A901C501B4010E9431291816EA
:103780001CF0812C912C5401A5019401688D798D38
:103790008E8D9F8D0E94D2264B015C0120E030E08F
:1037A000A9016A8D7B8D8C8D9D8D0E943129181603
:1037B00024F01A8E1B8E1C8E1D8EA7019601B1015E
:1037C000C8010E941C28362E272E8A879C8720E05D
:1037D00030E0A901C701B6010E946C268111EDC23B
:1037E000C501B40190582C893D894E895F890E949A
:1037F000D2265B018C019B01AC01632D722D8A8561
:103800009C850E946C2687FD18C0A30192016C89DB
:103810007D898E899F890E94D2265B018C019B0144
:10382000AC01632D722D8A859C850E943129181662
:1038300024F0A32CB22C0A851C859501A801C70190
:10384000B6010E941D28362E272E8A879C87832D3D
:10385000922DAA85BC8580937A0490937B04A093D3
:103860007C04B0937D048090120190901301A0908D
:103870001401B0901501C0900E01D0900F01E0909E
:103880001001F090110140908204509083046090E8
:103890008404709085048091760490917704A091BF
:1038A0007804B09179048A8F9B8FAC8FBD8F20E014
:1038B00030E0A901C701B6010E94312918161CF099
:1038C000C12CD12C7601A7019601688D798D8E8D42
:1038D0009F8D0E94D2266B017C0120E030E0A9017F
:1038E000C501B4010E94312918161CF0812C912CBD
:1038F00054012A8D3B8D4C8D5D8DC301B2010E9418
:103900001C28462E672E582E792E20E030E0A90183
:103910006A8D7B8D8C8D9D8D0E946C268111EAC2F3
:103920002C893D894E895F89C701B60190580E9454
:10393000D2265B018C019B01AC01642D762D852D77
:10394000972D0E946C2687FD18C0A70196016C89EF
:103950007D898E899F890E94D2265B018C019B0103
:10396000AC01642D762D852D972D0E9431291816D6
:1039700024F0A42CB62C052D172D9501A8016A8DD5
:103980007B8D8C8D9D8D0E941D285B018C01C50156
:10399000D8018093760490937704A0937804B09331
:1039A000790480918104882309F451C0C888D9889A
:1039B000EA88FB88F7FAF094F7F8F094232D322D7B
:1039C0004A855C85C701B6010E94312918160CF49E
:1039D0002AC3232D322D4A855C85688979898A8995
:1039E0009B890E946C2687FF06C0388829889A899F
:1039F0009A87AB89AC87832D922DAA85BC8580934D
:103A00007A0490937B04A0937C04B0937D04950189
:103A1000A801C701B6010E943129181684F095014A
:103A2000A801688979898A899B890E946C26650129
:103A3000780187FF04C0C888D988EA88FB88C092CB
:103A40007604D0927704E0927804F0927904E091C1
:103A50000C01F0910D01F98BE88B80910A01909196
:103A60000B019B878A872090520130905301A091CF
:103A70000801B0910901BD8BAC8BE0900601F0907C
:103A80000701009154011091550180917A049091A1
:103A90007B04A0917C04B0917D048C879D87AE87C8
:103AA000BF874090760450907704609078047090BF
:103AB0007904A3019201BC01CD010E941D284B0194
:103AC0005C0120E030E0A9010E946C268111B0C2A7
:103AD000B801012E000C880B990B0E9473260E94DE
:103AE000FB28AB012C893D8937FF03C03195219517
:103AF0003109F801E21BF30B4E175F073CF0F801A8
:103B0000E20FF31F4E175F070CF4FB01F0936E05F5
:103B1000E0936D05A30192016C857D858E859F855F
:103B20000E941C286B017C0120E030E0A9010E946A
:103B30006C268111CDC2B101032C000C880B990BAE
:103B40000E9473260E94FB28AB012889398937FF20
:103B500003C0319521953109F101E21BF30B4E179A
:103B60005F073CF0F101E20FF31F4E175F070CF403
:103B7000FB01F0936C05E0936B0580917504811156
:103B8000FAC2809154019091550190936E058093F3
:103B90006D05809152019091530190936C05809333
:103BA0006B0561E070E080E090E00E945804C090F6
:103BB0008E04D0908F04E0909004F090910420E067
:103BC00030E0A901C701B6010E94312918160CF492
:103BD00043C42FE632E143E85AEBC701B6010E9425
:103BE000312918160CF042C4C0908A04D0908B047E
:103BF000E0908C04F0908D0420E030E0A901C70132
:103C0000B6010E94312918160CF039C42FE632E1B2
:103C100043E85AE3C701B6010E946C2687FF26C419
:103C20008091710490917204A0917304B091740416
:103C30000196A11DB11D8093710490937204A0930D
:103C40007304B093740481329340A105B1050CF460
:103C50009AC2F1E0F093750496C26DE074E0C7017A
:103C60000E946A29892B91F41E821D8286E090E0D1
:103C70009A838983BE016F5F7F4FCE0105960E94B4
:103C8000F40BF0E0E0E009950C94EF1464E174E0CB
:103C9000C7010E946A29009711F4FC01F4CF6DE579
:103CA00072E0C7010E946A29892B31F4F1E0F09398
:103CB000040185E795E0B5CA6BE074E0C7010E9496
:103CC0006A29892BA9F41092040160915401709122
:103CD000550188E695E00E94BE0560915201709101
:103CE000530185E695E00E94BE058FE595E099CAEF
:103CF00087E495E096CA082F880F110BC8010E942F
:103D00004D29892B51F483ED8F0D823030F02AE359
:103D1000F21619F08FE5F81293CAC8010E946229C1
:103D200090916804E92FF0E0EA5CFB4F808382E029
:103D3000890F823308F084CA9F5F9093680480CA19
:103D40000E9433046093690470936A0480936B0447
:103D500090936C041C8A1D8A1E8A1F8A9BCAC12CE0
:103D6000D12C760194CB80E090E0A0E8BFE3809373
:103D7000330190933401A0933501B09336018FCB7A
:103D8000B601C7010E94D2269B01AC0160E070E041
:103D9000CB010E941C280ECC212C312C00E010E01D
:103DA0000BCC160187011FCCB889B88FE989E98F40
:103DB000FA89FE8F2B892F8FAECC20E030E0A9014D
:103DC000C701B6010E94312918160CF04BC028A17A
:103DD00039A14AA15BA1688D798D8E8D9F8D0E943E
:103DE000D22690582C893D894E895F890E94D2261F
:103DF0005B018C019B01AC01632D722D8A859C8532
:103E00000E946C2687FD18C0A30192016C897D89F0
:103E10008E899F890E94D2265B018C019B01AC0197
:103E2000632D722D8A859C850E943129181624F0F5
:103E3000A32CB22C0A851C859501A801C701B601E7
:103E40000E941D28362E272E8A879C8720E030E08E
:103E5000A9010E946C2687FFFACC312C212C1A86EE
:103E60001C86F5CCC501B40190582C893D894E893A
:103E70005F890E94D2265B018C019B01AC01632DFE
:103E8000722D8A859C850E946C2687FD20C02A8D14
:103E90003B8D4C8D5D8D688D798D8E8D9F8D0E94B3
:103EA000D2262C893D894E895F890E94D2265B01EA
:103EB0008C019B01AC01632D722D8A859C850E942B
:103EC0003129181624F0A32CB22C0A851C859501E3
:103ED000A801C701B6010E941D28362E272E8A8709
:103EE0009C8720E030E0A9010E94312918160CF4CB
:103EF000B4CFADCCA5019401688D798D8E8D9F8D49
:103F00000E94D2264B015C0120E030E0A9016A8DBD
:103F10007B8D8C8D9D8D0E94312918160CF043C02D
:103F2000C501B40190582C893D894E895F890E9452
:103F3000D2265B018C019B01AC01642D762D852D71
:103F4000972D0E946C2687FD18C0A70196016C89E9
:103F50007D898E899F890E94D2265B018C019B01FD
:103F6000AC01642D762D852D972D0E9431291816D0
:103F700024F0A42CB62C052D172D9501A8016A8DCF
:103F80007B8D8C8D9D8D0E941D285B018C0120E016
:103F900030E0A9010E946C2687FFF9CCA12CB12C3E
:103FA00000E010E0F4CCC701B60190582C893D899F
:103FB0004E895F890E94D2267B018C019B01AC0156
:103FC000642D762D852D972D0E946C2687FD18C0B7
:103FD000A50194016C897D898E899F890E94D226D2
:103FE0007B018C019B01AC01642D762D852D972DD5
:103FF0000E943129181624F0E42CF62C052D172DDB
:104000009701A8016A8D7B8D8C8D9D8D0E941D2846
:104010005B018C0120E030E0A9010E9431291816D3
:104020000CF4BCCFB4CC3C2C2D2CEA86FC86E3CC23
:1040300020E030E0A901C501B4010E943129181621
:1040400014F5B701600F711F072E000C880B990B38
:104050000E9473266B017C016C897D89600F711F42
:10406000072E000C880B990B0E947326A70196015E
:104070000E941C28A50194010E94D226A701960146
:104080000E941D282CCDB8016E197F09072E000C47
:10409000880B990B0E9473266B017C01B801AC89D7
:1040A000BD896A1B7B0B072E000C880B990B0E94A5
:1040B0007326A70196010E941C28A50194010E9465
:1040C000D2269B01AC01C701B6010E941C2807CD76
:1040D00020E030E0A901C701B6010E94312918167D
:1040E0001CF56A857B85620D731D072E000C880BFD
:1040F000990B0E9473264B015C0168897989620DD6
:10410000731D072E000C880B990B0E947326A501C6
:1041100094010E941C28A70196010E94D226A501A5
:1041200094010E941D280ECDB101EA85FB856E1B0E
:104130007F0B072E000C880B990B0E9473264B01F6
:104140005C01B10188899989681B790B072E000CE5
:10415000880B990B0E947326A50194010E941C28CC
:10416000A70196010E94D2269B01AC01C501B401B2
:104170000E941C28E7CC0E948A04683B7B40810592
:10418000910508F4FECC809105018823B9F1809156
:104190007504882399F10E948A04683B7B4081055D
:1041A000910560F1109205016091540170915501E3
:1041B000665A7F4F88E695E00E94BE0560915201E5
:1041C00070915301665A7F4F85E695E00E94BE05C7
:1041D00066E970E080E090E00E945804609154012C
:1041E0007091550188E695E00E94BE0560915201EC
:1041F0007091530185E695E00E94BE05809104010F
:10420000882381F060916D0570916E0588E695E0D8
:104210000E94BE0560916B0570916C0585E695E086
:104220000E94BE05009102011091030117FD04C117
:104230000E948A04C0906D04D0906E04E0906F04D8
:10424000F0907004AB01BC014C195D096E097F0947
:10425000012E000C220B330B401751076207730726
:1042600008F4EAC00E948A0460936D0470936E049F
:1042700080936F04909370048FE796E00E9483050B
:104280000E948A044AE00E94C0078CE194E00E94E8
:10429000040883E796E00E9483058091940490913E
:1042A00095040E9427088CE194E00E94040887E6A8
:1042B00096E00E94830580919204909193040E945D
:1042C00027088CE194E00E94040889E596E00E94AA
:1042D000830560918E0470918F0480919004909179
:1042E00091040E9457088CE194E00E9404088AE43B
:1042F00096E00E94830560918A0470918B048091FE
:104300008C0490918D040E9457088CE194E00E94E7
:10431000040888E396E00E9483056091820470910E
:10432000830480918404909185040E9457088CE155
:1043300094E00E94040885E296E00E948305609163
:1043400086047091870480918804909189040E946A
:1043500057088CE194E00E94040885E196E00E94F1
:104360008305609176047091770480917804909130
:1043700079040E9457088CE194E00E94040884E0CC
:1043800096E00E94830560917A0470917B0480918D
:104390007C0490917D040E9457088CE194E00E9477
:1043A00004088EEE95E00E94830580916D05909142
:1043B0006E050E9427088CE194E00E94040887EDB6
:1043C00095E00E94830580916B0590916C050E9499
:1043D00027088CE194E00E94040886EC95E00E9496
:1043E000830580913701909138010E9427088CE164
:1043F00094E00E94040882EB95E00E94830580917E
:104400000401882309F446C088E791E00E9404086B
:104410008CE194E00E94040888EA95E00E948305FC
:10442000809175048823C9F188E791E00E9404080F
:1044300080E294E00E940B0880E090E0892B11F468
:104440000C94A8140E940005882311F40C94A8145D
:104450000E9400000C94A8142FE632E143E85AE3CE
:10446000C701B6010E946C2687FDBECB1092710475
:1044700010927204109273041092740484CE2FE68A
:1044800032E143E85AEBC701B6010E943129181600
:104490006CF7C6CB8DE791E0B9CF8DE791E0C6CF41
:1044A000EF920F931F93CF93DF93E80134E047FD22
:1044B00034E1042E000C550B57FF03C05195419574
:1044C0005109E32E022F242FAE010E94C422CE01F7
:1044D000DF91CF911F910F91EF9008956627772775
:1044E0000C942324FC0188279927E89421912032F9
:1044F000E9F3293010F02E30C8F32B3241F02D3281
:1045000039F4689404C00E94BC22820F911D21914D
:1045100020532A30C0F31EF4909581959F4F089543
:104520004FE655E00E9495220895FA01A191B081CD
:10453000009719F41097E1F0CD01DC01CD010D9049
:10454000002011F4C00113C0FB012191222319F0B6
:104550002015D9F7F3CFFB012191201519F41E92F4
:10456000119606C02223C1F70D900020A1F7D001BB
:10457000FA01A193B08308957AE0979F902D879FC9
:10458000802D910D11240895A9E0B0E0EAECF2E24B
:104590000C94BA276A01F22EB02E102FFBE3AF2E37
:1045A000A01608F41BE31F5F012F27E0AE014F5F49
:1045B0005F4F0E947325BC018981982F99709130BB
:1045C00009F43FC09BE2E1FC04C09E2D9170E0FC29
:1045D0003AC05E2D5071E82FE87083FF46C084E03A
:1045E000911101C083E0EF2DE81B8F1508F0E0E08A
:1045F000D6018E2F20E2552351F1992329F0D601BF
:104600009C93C60101966C0196012D5F3F4FE2FE1F
:1046100024C08EE4D6018C9391E411969C9311975B
:1046200012968C93D9018E2F90E281111BC0E20F5C
:10463000F32FF11D10828EEF9FEF2996ECE00C9482
:10464000D6279DE2C6CF90E2C4CF2D938150811131
:10465000FCCFCE0ED11CE0E0D0CF8EE6D6018C93FD
:1046600091E6DBCF9D938150E0CF482F447082FFCD
:104670003DC084E0911101C083E08F1510F4EF2D4F
:10468000E81BD6018E2F20E2552309F1992329F04A
:10469000D6019C93C60101966C0196012D5F3F4F98
:1046A000E2FE1BC089E4D6018C938EE411968C93B4
:1046B000119786E412968C93D9018E2F90E288236D
:1046C00009F4B5CF9D938150FACF2D93815081117C
:1046D000FCCFCE0ED11CE0E0D9CF89E6D6018C9379
:1046E0008EE611968C93119786E6E4CF9B0177FFB7
:1046F00002C030E020E0A1E0B0E0911102C0B0E0E3
:10470000A0E0F9013196AE0FBF1F8B2C912CBB207E
:1047100009F461C05401EFEFAE1ABE0AAA0DBB1D29
:10472000FA161B0619F014F04F2D4A1B511188C0C0
:10473000E3FC59C07601A42FB0E2A1114FC0C40E12
:10474000D11C992309F45BC040E0D6011196F60113
:1047500090836D01552309F448C0012F060F9A81FB
:10476000582F507184FF03C0913309F40150101683
:104770000CF047C0093008F008E0EEE2FE2E5B01C5
:10478000A01AB10885019194819491082F3F3207B6
:1047900029F4D601FC92F60131966F016217730776
:1047A00094F1021713077CF5DB01A21BB30BAA24BB
:1047B000A394B12CAC0EBD1EAA0DBB1D11968C91FD
:1047C00021503109D601119628153905F4F0F6016A
:1047D00080836D01DBCFB12CA12CA0CFF701B19369
:1047E0007F01A150AACF9111B0CFD601942F50E3F1
:1047F00002C05D9391509111FCCFC40ED11C40E0DA
:10480000ACCF01E0BACF80E3DBCF6217730731F49E
:10481000963388F4953311F4552369F0F6018083BB
:10482000FD01842F90E2811108C0A40FB11D1C92DC
:1048300090E080E002CF81E3F1CF91938150F3CFFC
:10484000911183CF8ACFB0E0A0E0E9E2F4E20C94CA
:10485000BA275C017B016115710519F0DB018D93AD
:104860009C9385010F5F1F4FF501D0818D2F90E044
:104870000E944B266C01892BB9F5DD32B9F50F5F2B
:104880001F4FD5011196DC91C1E05801F1E0AF1A3C
:10489000B10843E050E060E770E0C5010E94542693
:1048A000892B69F5680182E0C80ED11C45E050E013
:1048B0006BE670E0C6010E945426892B21F4680142
:1048C00097E0C90ED11CE114F10419F0D701CD9283
:1048D000DC9260E070E080E89FEFC111FFC060E013
:1048E00070E080E89FE7FAC05801BBCFDB3229F4C3
:1048F00085010E5F1F4FF501D181C0E0C6CF43E0B7
:1049000050E068E670E0C5010E945426892BE9F06A
:10491000F80110E000E020E030E0A9015F01B0ED17
:104920008B2E8D0E89E08815C8F19C2E689491F825
:104930008C2F8870C2FF16C0811102C00F5F1F4FFD
:104940003196D501DC91C92DE9CFE114F10429F0AC
:104950000E5F1F4FF7011183008360E070E080EC71
:104960009FE7BCC0882311F001501109A5E0B0E019
:104970000E94A9279B01AC01220F331F441F551F22
:10498000280D311D411D511D283999E93907490765
:1049900099E15907A8F2C6609C2ED2CFAEEF8A12D9
:1049A00006C0C3FD3CC09C2E689493F8C9CFDF7D40
:1049B000D534A9F580818D3239F4C061DF011296BA
:1049C000818162E070E006C0DF018B32C1F3119695
:1049D00061E070E080535D01A61AB70A8A30F8F4EE
:1049E000E0E8CE16ECE0DE065CF4B601660F771F59
:1049F000660F771FC60ED71ECC0CDD1CC80ED11C4F
:104A00005D01FFEFAF1ABF0A8C9180538A30A8F185
:104A1000C4FF03C0D194C194D1080C0D1D1DC1FF6A
:104A200009C0E114F10431F081E0A81AB108D701FE
:104A3000AD92BC92CA01B9010E947126C370C33005
:104A400009F490584B015C0120E030E0A9010E947C
:104A50006C26882309F440C0CFE9D0E017FF05C0D9
:104A6000119501951109C7E8D0E06E01B8E1CB1AA4
:104A7000D10880E2E82EF12C0FC0D501B1CFFE01A4
:104A800025913591459154910E191F09C501B40125
:104A90000E94D2264B015C01D501C4010E151F05F1
:104AA00074F72497F594E794CC16DD06A9F78A2FBE
:104AB000880F8B2F881F8F3F49F020E030E0A9013D
:104AC000C501B4010E946C26811106C082E290E00B
:104AD0009093720580937105C501B401CDB7DEB71F
:104AE000ECE00C94D627283008F027E03327DA01D1
:104AF000990F311D87FD916000966105710539F4AC
:104B000032602E5F3D9330E32A95E1F708959F3F91
:104B100030F080387105610509F03C5F3C5F3D93E2
:104B2000913008F08068911DDF93CF931F930F930E
:104B3000FF92EF92192F987F9695E92F969596956B
:104B4000E90FFF27E350FF4F99273327EE24FF2477
:104B5000A701E70105900894079428F4360FE71E93
:104B6000F81E491F511D660F771F881F991F069455
:104B7000A1F70590079428F4E70EF81E491F561F69
:104B8000C11D770F881F991F661F0694A1F7059016
:104B9000079428F4F80E491F561FC71FD11D880F10
:104BA000991F661F771F0694A1F70590079420F4BC
:104BB000490F561FC71FD81F990F661F771F881FE1
:104BC0000694A9F784911095177041F0D695C79572
:104BD00057954795F794E7941A95C1F7E3EAF0E003
:104BE00068941590159135916591959105907FE2A6
:104BF0007395E118F10A430B560BC90BD009C0F7A6
:104C0000E10CF11E431F561FC91FD01D7EF47033E7
:104C100011F48A95E6CFE894015030F0080F0AF4B9
:104C20000027021708F4202F2395022F7A3328F04B
:104C300079E37D932A95E9F710C07D932A9589F64B
:104C4000069497956795379517951794E118F10A8B
:104C5000430B560BC90BD00998F023957E917395A1
:104C60007A3308F070E37C932013B8F77E9170617B
:104C70007D9330F0839571E37D9370E32A95E1F79E
:104C80001124EF90FF900F911F91CF91DF91992701
:104C900087FD9095089591110C943F27803219F06B
:104CA00089508550C8F70895FB01DC014150504000
:104CB00088F08D9181341CF08B350CF4805E659109
:104CC00061341CF06B350CF4605E861B611171F36E
:104CD000990B0895881BFCCF0E94AE2608F481E052
:104CE0000895E89409C097FB3EF4909580957095DF
:104CF00061957F4F8F4F9F4F9923A9F0F92F96E928
:104D0000BB279395F695879577956795B795F1119C
:104D1000F8CFFAF4BB0F11F460FF1BC06F5F7F4F39
:104D20008F4F9F4F16C0882311F096E911C077234B
:104D300021F09EE8872F762F05C0662371F096E854
:104D4000862F70E060E02AF09A95660F771F881F23
:104D5000DAF7880F9695879597F90895990F0008C7
:104D6000550FAA0BE0E8FEEF16161706E807F9073D
:104D7000C0F012161306E407F50798F0621B730BD8
:104D8000840B950B39F40A2661F0232B242B252B59
:104D900021F408950A2609F4A140A6958FEF811DFC
:104DA000811D08950E94E5260C9459270E944B27E7
:104DB00038F00E94522720F0952311F00C944227DE
:104DC0000C94482711240C948D270E946A2770F3B5
:104DD000959FC1F3950F50E0551F629FF001729FA0
:104DE000BB27F00DB11D639FAA27F00DB11DAA1FAF
:104DF000649F6627B00DA11D661F829F2227B00DFC
:104E0000A11D621F739FB00DA11D621F839FA00D86
:104E1000611D221F749F3327A00D611D231F849FD6
:104E2000600D211D822F762F6A2F11249F5750402D
:104E30009AF0F1F088234AF0EE0FFF1FBB1F661FA8
:104E4000771F881F91505040A9F79E3F510580F071
:104E50000C9442270C948D275F3FE4F3983ED4F3E3
:104E6000869577956795B795F795E7959F5FC1F715
:104E7000FE2B880F911D9695879597F90895992790
:104E80008827089597F99F6780E870E060E00895AB
:104E90009FEF80EC089500240A9416161706180652
:104EA0000906089500240A9412161306140605062E
:104EB0000895092E0394000C11F4882352F0BB0FBF
:104EC00040F4BF2B11F460FF04C06F5F7F4F8F4F22
:104ED0009F4F089557FD9058440F551F59F05F3F5D
:104EE00071F04795880F97FB991F61F09F3F79F00C
:104EF00087950895121613061406551FF2CF46958E
:104F0000F1DF08C0161617061806991FF1CF86950F
:104F10007105610508940895E894BB2766277727F3
:104F2000CB0197F90895F999FECF92BD81BDF89A0A
:104F3000992780B50895262FF999FECF1FBA92BD03
:104F400081BD20BD0FB6F894FA9AF99A0FBE01966A
:104F500008950E940D28A59F900DB49F900DA49FC9
:104F6000800D911D112408952F923F924F925F92D0
:104F70006F927F928F929F92AF92BF92CF92DF9269
:104F8000EF92FF920F931F93CF93DF93CDB7DEB7CE
:104F9000CA1BDB0B0FB6F894DEBF0FBECDBF099462
:104FA0002A88398848885F846E847D848C849B84B9
:104FB000AA84B984C884DF80EE80FD800C811B81C7
:104FC000AA81B981CE0FD11D0FB6F894DEBF0FBEF6
:104FD000CDBFED010895A1E21A2EAA1BBB1BFD0156
:104FE0000DC0AA1FBB1FEE1FFF1FA217B307E407C8
:104FF000F50720F0A21BB30BE40BF50B661F771F20
:10500000881F991F1A9469F76095709580959095FF
:105010009B01AC01BD01CF010895A29FB001B39FD8
:10502000C001A39F700D811D1124911DB29F700DB1
:10503000811D1124911D08955058BB27AA270E9455
:1050400034280C9459270E944B2738F00E9452278D
:1050500020F039F49F3F19F426F40C9448270EF4FD
:10506000E095E7FB0C944227E92F0E946A2758F34A
:10507000BA17620773078407950720F079F4A6F53D
:105080000C948C270EF4E0950B2EBA2FA02D0B015B
:10509000B90190010C01CA01A0011124FF27591B7D
:1050A00099F0593F50F4503E68F11A16F040A22F83
:1050B000232F342F4427585FF3CF469537952795F4
:1050C000A795F0405395C9F77EF41F16BA0B620BF3
:1050D000730B840BBAF09150A1F0FF0FBB1F661F3A
:1050E000771F881FC2F70EC0BA0F621F731F841F7D
:1050F00048F4879577956795B795F7959E3F08F0A3
:10510000B0CF9395880F08F09927EE0F9795879564
:1051100008950E949D280C9459270E94522758F008
:105120000E944B2740F029F45F3F29F00C9442275E
:1051300051110C948D270C9448270E946A2768F31C
:105140009923B1F3552391F3951B550BBB27AA2740
:1051500062177307840738F09F5F5F4F220F331F7A
:10516000441FAA1FA9F335D00E2E3AF0E0E832D042
:1051700091505040E695001CCAF72BD0FE2F29D045
:10518000660F771F881FBB1F261737074807AB0717
:10519000B0E809F0BB0B802DBF01FF2793585F4F8C
:1051A0003AF09E3F510578F00C9442270C948D27DD
:1051B0005F3FE4F3983ED4F3869577956795B7956E
:1051C000F7959F5FC9F7880F911D9695879597F979
:1051D0000895E1E0660F771F881FBB1F62177307F2
:1051E0008407BA0720F0621B730B840BBA0BEE1F07
:1051F00088F7E09508950E9402296894B1110C94F3
:105200008D2708950E94722788F09F5798F0B92F34
:105210009927B751B0F0E1F0660F771F881F991FEB
:105220001AF0BA95C9F714C0B13091F00E948C27DA
:10523000B1E008950C948C27672F782F8827B85FEA
:1052400039F0B93FCCF3869577956795B395D9F743
:105250003EF490958095709561957F4F8F4F9F4F4D
:1052600008950E94AE2608F48FEF08950E94AE269E
:10527000880B990B0895991B79E004C0991F961724
:1052800008F0961B881F7A95C9F780950895EE0F50
:10529000FF1F0590F491E02D099491110C943F2784
:1052A00080538A5018F0865C0C945A29089585FD25
:1052B0000C943F27806291110C943F2781568A51AC
:1052C000D8F708959111089581568A5108F48052B3
:1052D00085580895FB01DC018D9101908019011022
:1052E000D9F3990B0895FB01DC0101900D92002088
:1052F000E1F70895AEE0B0E0E0E8F9E20C94C227EF
:105300000D891E8986E08C831A8309838FEF9FE7BE
:105310009E838D83AE01475E5F4F6F89788DCE018E
:1053200001960E949D292F813885020F131FF801D5
:1053300010822E96E4E00C94DE27ABE0B0E0E3EAC6
:10534000F9E20C94B4277C013B018A01FC0117822D
:105350001682838181FFC8C1CE0101965C01F701ED
:105360009381F30193FD859193FF81913F01882300
:1053700009F453C1853239F493FD859193FF8191EE
:105380003F01853229F4B70190E00E948D2BE7CFD1
:10539000912C212C312CFFE1F31538F08B3211F1D7
:1053A00090F4803209F1833229F137FC3CC020EDC2
:1053B000280F2A3050F536FE20C08AE0989E200D36
:1053C0001124922E06C08D3291F0803371F76894CB
:1053D00030F8F30193FD859193FF81913F01811195
:1053E000DACF21C0689431F8689432F8F2CF68942B
:1053F00033F8EFCF689434F8ECCFEAE02E9E200D1E
:105400001124222E689435F8E4CF8E3229F436FC2C
:1054100004C1689436F8DDCF8C3619F4689437F8F7
:10542000D8CF8836B1F2982F9F7D95549330E0F015
:105430008336A1F18337C1F1833509F063C02801B8
:10544000F2E04F0E511CF801C080D180692D70E050
:1054500036FC02C06FEF7FEFC6010E94772B4C0134
:10546000689437F882010AC00C5F1F4FFFE3F9838D
:1054700088248394912C6501E89437F833FE2DC07D
:10548000522C8114910471F5552009F468CFB701AD
:1054900080E290E00E948D2B5A94F6CFF801808133
:1054A00089830E5F1F4FE4CF2801F2E04F0E511C9D
:1054B000F801C080D180692D70E036FC02C06FEF2A
:1054C0007FEFC6010E94822B4C018201D5CFB7012C
:1054D00080E290E00E948D2B2A942814190409F090
:1054E000B0F7CECFF60137FC859137FE81916F0181
:1054F000B70190E00E948D2B51105A94F1E08F1A61
:105500009108BFCF843619F0893609F077C0F801C9
:1055100037FE6BC060817181828193810C5F1F4F68
:10552000F32DFF763F2E97FF09C0909580957095DB
:1055300061957F4F8F4F9F4F689437F82AE030E096
:10554000A5010E94BD2BC82ECA188C2C432C36FEF8
:105550000CC0E89440F8C91440F434FE05C032FC95
:1055600003C0F32DFE7E4F2E892C44FE95C0FE0114
:10557000EC0DF11D8081803309F087C0242D297E38
:10558000422E842D8870582E43FC95C040FE8FC05B
:105590009C2C821418F42C0C922C981844FE91C068
:1055A000B70180E390E00E948D2B42FE09C088E79E
:1055B00090E041FE02C088E590E0B7010E948D2B8B
:1055C000C91408F48AC0CA94D12C9FEFC91AD90A09
:1055D000CA0CDB1CF60182916F01B70190E00E94BA
:1055E0008D2BAC14BD04B1F74FCF60817181072EB4
:1055F000000C880B990B0E5F1F4F92CFD32CE894B1
:10560000D4F82AE030E0853739F1232D297FD22ED6
:105610008F3601F148F48835A9F0F701868197812A
:105620002B96E2E10C94D027803749F08837A9F710
:10563000D4FE02C06894D2F820E130E00DC0689436
:10564000D4F8F6CF34FE03C0822F8660D82E20E136
:1056500032E002C028E030E0F801D7FE0FC06081E0
:105660007181828193810C5F1F4FA5010E94BD2B28
:10567000C82ECA183D2CE89437F867CF6081718135
:1056800090E080E00E5F1F4FF0CF42FC02C0839499
:1056900078CF8394839475CF842D867809F471CF65
:1056A000F6CFB70180E290E00E948D2B83948214A4
:1056B000C0F3512C73CF522C5818821408F46ECFBB
:1056C000F8CF842D867809F47BCF8BE241FE80E20F
:1056D00047FC8DE2B70190E071CFB70180E390E025
:1056E0000E948D2B9A946CCF8FEF9FEF99CFFC0186
:1056F0000590615070400110D8F7809590958E0FFD
:105700009F1F0895FC016150704001900110D8F76F
:10571000809590958E0F9F1F08950F931F93CF93A1
:10572000DF93182F092FEB018B8181FD09C01FEF3B
:105730000FEF812F902FDF91CF911F910F9108953F
:1057400082FF14C02E813F818C819D8128173907EB
:105750003CF4E881F981CF01019699838883108315
:105760008E819F8101969F838E83E3CFE885F985A3
:10577000812F0995892BA1F3DACFFA01AA272830C6
:1057800051F1203181F1E8946F936E7F6E5F7F4F0E
:105790008F4F9F4FAF4FB1E03ED0B4E03CD0670F8A
:1057A000781F891F9A1FA11D680F791F8A1F911DDD
:1057B000A11D6A0F711D811D911DA11D20D009F42D
:1057C00068943F912AE0269F11243019305D31936F
:1057D000DEF6CF010895462F4770405D4193B3E058
:1057E0000FD0C9F7F6CF462F4F70405D4A3318F0FF
:1057F000495D31FD4052419302D0A9F7EACFB4E0B0
:10580000A6959795879577956795BA95C9F7009767
:105810006105710508959B01AC010A2E0694579508
:10582000479537952795BA95C9F7620F731F841F5F
:0A583000951FA01D0895F894FFCF06
:10583A000503640001011900F4011900F4010000D4
:10584A00803F0000004001000000400000C03F000F
:10585A0000003F000020403333333F9A99193F003C
:10586A0000003F0000803FFFFF1224040000003FB9
:10587A007C01FF017E0219008101FD0178021900F5
:10588A000E10DC05DC05050000000036059604C391
:10589A00049E05F404D204E6040D0A006E616E004B
:1058AA00696E66006F766600747275650066616C73
:1058BA007365003A2C00434F4E54524F4C5F524985
:1058CA0047485400256400434F4E54524F4C5F439F
:1058DA00454E5445525F5800434F4E54524F4C5F09
:1058EA004C45465400585F444541445A4F4E450082
:1058FA00434F4E54524F4C5F555000434F4E5452F3
:10590A004F4C5F43454E5445525F5900434F4E54E6
:10591A00524F4C5F444F574E00595F444541445AD9
:10592A004F4E4500414343454C45524154494F4E21
:10593A005F464F525741524400444543454C4552F5
:10594A004154494F4E5F464F5257415244004143DA
:10595A0043454C45524154494F4E5F4241434B5790
:10596A0041524400444543454C45524154494F4EE7
:10597A005F4241434B5741524400414343454C45E2
:10598A00524154494F4E5F5455524E494E47004476
:10599A004543454C45524154494F4E5F5455524E2A
:1059AA00494E4700464153544553545F464F525758
:1059BA0041524400464153544553545F4241434B7C
:1059CA0057415244005455524E5F53504545440086
:1059DA005343414C455F5455524E494E475F5748D1
:1059EA00454E5F4D4F56494E47005343414C455F24
:1059FA00414343454C5F574954485F5350454544DA
:105A0A0000524556455253455F5455524E5F494ED2
:105A1A005F52455645525345004C4546545F4D4FDB
:105A2A00544F525F43454E544552004C4546545FCD
:105A3A004D4F544F525F534C4F57004C4546545F9D
:105A4A004D4F544F525F46415354005249474854B0
:105A5A005F4D4F544F525F43454E54455200524991
:105A6A004748545F4D4F544F525F534C4F57005263
:105A7A00494748545F4D4F544F525F464153540073
:105A8A005553455F53504545445F4B4E4F42005373
:105A9A00504545445F4B4E4F425F534C4F575F56FC
:105AAA00414C0053504545445F4B4E4F425F46417F
:105ABA0053545F56414C005052494E545F5641521E
:105ACA004941424C45535F494E54455256414C5FF9
