:100000000C9472030C949A030C949A030C949A0324
:100010000C949A030C949A030C949A030C949A03EC
:100020000C949A030C949A030C949A030C94371032
:100030000C949A030C949A030C949A030C949A03CC
:100040000C94950F0C949A030C9405100C94DF0FEC
:100050000C949A030C949A030C949A030C949A03AC
:100060000C949A030C949A034E414E494E495459AC
:10007000494E46CDCCCC3D0AD7233C17B7D1387773
:10008000CC2B329595E6241FB14F0A000020410089
:1000900000C84200401C4620BCBE4CCA1B0E5AAED3
:1000A000C59D7400407A10F35A00A0724E180900E2
:1000B00010A5D4E80000E87648170000E40B5402CD
:1000C0000000CA9A3B000000E1F505000080969808
:1000D00000000040420F000000A086010000001058
:1000E0002700000000E8030000000064000000009A
:1000F000000A00000000000100000000002C76D87B
:1001000088DC674F0823DFC1DFAE59E1B1B796E560
:10011000E3E453C63AE651997696E8E6C28426EBC4
:10012000898C9B62ED407C6FFCEFBC9C9F40F2BAD7
:10013000A56FA5F490055A2AF75C936B6CF9676D6F
:10014000C11BFCE0E40D47FEF520E6B500D0ED90C4
:100150002E0300943577050080841E080000204E91
:100160000A000000C80C333333330F986E1283112A
:1001700041EF8D2114893BE65516CFFEE6DB18D101
:10018000844B381BF77C1D901DA4BBE424203284D3
:10019000725E228100C9F124ECA1E53D272252497B
:1001A0004748545F4D4F544F525F434F4E54524F48
:1001B0004C4C45525F50494E223A2000224C454655
:1001C000545F4D4F544F525F434F4E54524F4C4C1F
:1001D00045525F50494E223A2000224A4F595F59FA
:1001E0005F50494E223A2000224A4F595F585F50D3
:1001F000494E223A2000225052494E545F564152F5
:100200004941424C45535F494E54455256414C5F1B
:100210004D494C4C4953223A200022535045454405
:100220005F4B4E4F425F50494E223A2000225343CB
:10023000414C455F414343454C5F574954485F53E8
:1002400050454544223A20002253504545445F4BD7
:100250004E4F425F464153545F56414C223A200074
:100260002253504545445F4B4E4F425F534C4F57CE
:100270005F56414C223A2000225553455F5350456A
:1002800045445F4B4E4F42223A2000225249474894
:10029000545F4D4F544F525F46415354223A200011
:1002A0002252494748545F4D4F544F525F534C4F71
:1002B00057223A20002252494748545F4D4F544F2D
:1002C000525F43454E544552223A2000224C454647
:1002D000545F4D4F544F525F46415354223A2000D1
:1002E000224C4546545F4D4F544F525F534C4F572D
:1002F000223A2000224C4546545F4D4F544F525FE6
:1003000043454E544552223A20002252455645520A
:1003100053455F5455524E5F494E5F5245564552C4
:100320005345223A2000225343414C455F545552D5
:100330004E494E475F5748454E5F4D4F56494E47D1
:10034000223A2000225455524E5F535045454422D4
:100350003A200022464153544553545F4241434B97
:1003600057415244223A20002246415354455354A7
:100370005F464F5257415244223A2000224445439F
:10038000454C45524154494F4E5F5455524E494E8B
:1003900047223A200022414343454C4552415449AB
:1003A0004F4E5F5455524E494E47223A2000224448
:1003B0004543454C45524154494F4E5F4241434BA2
:1003C00057415244223A200022414343454C455272
:1003D0004154494F4E5F4241434B57415244223AA8
:1003E000200022444543454C45524154494F4E5FFD
:1003F000464F5257415244223A200022414343453E
:100400004C45524154494F4E5F464F52574152441A
:10041000223A200022595F444541445A4F4E45221A
:100420003A200022434F4E54524F4C5F444F574E98
:10043000223A200022434F4E54524F4C5F43454EC8
:100440005445525F59223A200022434F4E54524F96
:100450004C5F5550223A200022585F444541445A8F
:100460004F4E45223A200022434F4E54524F4C5F8C
:100470004C454654223A200022434F4E54524F4C92
:100480005F43454E5445525F58223A200022434F65
:100490004E54524F4C5F5249474854223A20007BF9
:1004A0002263757272656E742073657474696E6709
:1004B000732C2076657273696F6E3A223A200000C1
:1004C0000000006410B71DC8206E3BAC30D92690E8
:1004D00041DC76F4516B6B5861B24D3C7105502094
:1004E00083B8ED44930FF0E8A3D6D68CB361CBB0BC
:1004F000C2649BD4D2D38678E20AA01CF2BDBD7B35
:10050000226572726F72223A2022656570726F6D79
:10051000206661696C757265227D002276616C755A
:1005200065223A2022002273657474696E67223A4C
:100530002022007B22726573756C74223A2022633C
:1005400068616E676522007B22726573756C742228
:100550003A20226E6F206368616E6765227D007BA2
:1005600022726573756C74223A202273746F7070F6
:100570006564227D007B22726573756C74223A205B
:10058000226D6F76656D656E7420616C6C6F77653A
:1005900064227D007B22726573756C74223A20227E
:1005A0007361766564227D00226D6F76656D656E80
:1005B00074416C6C6F776564223A20002273706519
:1005C00065644B6E6F6256616C223A20002272693C
:1005D0006768744D6F746F72577269746556616C99
:1005E000223A2000226C6566744D6F746F725772E8
:1005F00069746556616C223A2000227370656564E7
:10060000546F4472697665223A2000227475726EC6
:10061000546F4472697665223A20002273706565D2
:100620006450726F636573736564223A20002274AC
:1006300075726E50726F636573736564223A200041
:10064000227370656564496E707574223A200022C9
:100650007475726E496E707574223A2000226A6F4A
:10066000795956616C223A2000226A6F7958566196
:100670006C223A20007B2263757272656E7420765C
:10068000616C7565732C206D696C6C69733A223AE4
:10069000200000000000240027002A0000000000C5
:1006A000250028002B0004040404040404040202AE
:1006B00002020202030303030303010204081020E1
:1006C00040800102040810200102040810200000EC
:1006D0000008000201000003040700000000000001
:1006E0000000F31011241FBECFEFD8E0DEBFCDBF56
:1006F00014E0A0E0B1E0EAE6F8E502C005900D9252
:10070000AC32B107D9F725E0ACE2B4E001C01D92EC
:10071000A837B207E1F713E0C2E7D3E004C021979E
:10072000FE010E945F29C137D107C9F70E947A11E3
:100730000C94332C0C94000090E0FC01E253F94F30
:100740002491FC01E654F94F3491FC01EA55F94F2C
:10075000E491EE23C9F0222339F0233001F1A8F40B
:10076000213019F1223029F1F0E0EE0FFF1FE4569D
:10077000F94FA591B4918FB7F894EC91611126C00F
:1007800030953E233C938FBF08952730A9F0283041
:10079000C9F0243049F7809180008F7D03C080919B
:1007A00080008F7780938000DFCF84B58F7784BD02
:1007B000DBCF84B58F7DFBCF8091B0008F778093A6
:1007C000B000D2CF8091B0008F7DF9CF3E2BDACF31
:1007D000CF93DF9390E0FC01E654F94F24918A55C2
:1007E000994FFC0184918823D1F090E0880F991FE4
:1007F000FC01EE56F94FA591B491FC01E456F94F76
:10080000C591D49161110EC09FB7F8948C91E22FDD
:10081000E0958E238C932881E223E8839FBFDF91AC
:10082000CF9108958FB7F894EC91E22BEC938FBFA2
:10083000F6CF8E3008F08E508770806480937C00F5
:1008400080917A00806480937A0080917A0086FD9E
:10085000FCCF809178009091790008953FB7F8948B
:100860008091A4049091A504A091A604B091A7043E
:1008700026B5A89B05C02F3F19F00196A11DB11DFB
:100880003FBFBA2FA92F982F8827BC01CD01620F37
:10089000711D811D911D42E0660F771F881F991FF2
:1008A0004A95D1F708958F929F92AF92BF92CF92BF
:1008B000DF92EF92FF924B015C010E942E046B01CC
:1008C0007C010E942E046C197D098E099F09683EE7
:1008D000734081059105A8F321E0821A9108A108CF
:1008E000B10888EEC80E83E0D81EE11CF11C81140B
:1008F0009104A104B10429F7FF90EF90DF90CF900D
:10090000BF90AF909F908F900895AF92BF92CF927B
:10091000DF92EF92FF920F931F93CF93DF936C01BF
:100920007B018B01040F151FEB015E01AE18BF08A0
:10093000C017D10759F06991D601ED91FC91019052
:10094000F081E02DC6010995892B79F7C501DF916A
:10095000CF911F910F91FF90EF90DF90CF90BF90BC
:10096000AF900895FC01538D448D252F30E0842FE6
:1009700090E0821B930B541710F0CF9608950197C7
:100980000895FC01918D828D981761F0A28DAE0FB4
:10099000BF2FB11D5D968C91928D9F5F9F73928F3B
:1009A00090E008958FEF9FEF0895FC01918D828D67
:1009B000981731F0828DE80FF11D858D90E0089534
:1009C0008FEF9FEF0895FC01918D228D892F90E08C
:1009D000805C9F4F821B91098F739927089588EA45
:1009E00094E00E94E30421E0892B09F420E0822FA7
:1009F000089580E090E0892B29F00E94EF04811196
:100A00000C9400000895FC01A48DA80FB92FB11D0E
:100A1000A35ABF4F2C91848D90E001968F73992734
:100A2000848FA689B7892C93A089B1898C91837012
:100A300080648C93938D848D981306C00288F3890B
:100A4000E02D80818F7D80830895EF92FF920F9338
:100A50001F93CF93DF93EC0181E0888F9B8D8C8D6A
:100A600098131AC0E889F989808185FF15C09FB75E
:100A7000F894EE89FF896083E889F9898081837021
:100A8000806480839FBF81E090E0DF91CF911F91D0
:100A90000F91FF90EF900895F62E0B8D10E00F5FF1
:100AA0001F4F0F731127E02E8C8D8E110CC00FB6C7
:100AB00007FCFACFE889F989808185FFF5CFCE015F
:100AC0000E940305F1CFEB8DEC0FFD2FF11DE35AD2
:100AD000FF4FF0829FB7F8940B8FEA89FB898081E2
:100AE0008062CFCF0F931F93CF93DF938C01D0E021
:100AF000C0E0F801EC0FFD1F6491662341F088EA25
:100B000094E00E942505892B11F02196F2CFCE01A9
:100B1000DF91CF911F910F910895CF93DF93EC0157
:100B2000888D8823B9F0AA89BB89E889F9898C91D5
:100B300085FD03C0808186FD0DC00FB607FCF7CF91
:100B40008C9185FFF2CF808185FFEDCFCE010E9491
:100B50000305E9CFDF91CF910895DC01EC91EC30F2
:100B600090F511968C91119728E830E0281B3109F7
:100B700087FD3395220F331F220F331F6217730730
:100B800084F012968C9128E532E0281B310987FD0C
:100B90003395220F331F220F331F621773070CF494
:100BA0009B0122503109220F331F4FB7F8948E2F2B
:100BB00090E0FC01EE0FFF1FE80FF91FEB5BFA4F0F
:100BC000328321834FBF08951F93CF93DF93EC01AE
:100BD000162F88818C3008F04EC061E0812F0E9472
:100BE000E8038881282F30E0F901EE0FFF1FE20FA4
:100BF000F31FEB5BFA4F1F736081607C612B608396
:100C000019821A822CE0622F0E945329829FB00120
:100C1000112430E020E0AB01420F531FFA01EE0F28
:100C2000FF1FE40FF51FEB5BFA4F908196FD16C096
:100C30002F5F3F4F2C30310571F781110FC010929B
:100C4000800082E0809381001092850010928400E1
:100C5000B19A80916F00826080936F00E8818E2F3F
:100C600090E0FC01EE0FFF1FE80FF91FEB5BFA4F5E
:100C70008081806480838881DF91CF911F91089566
:100C80000F931F93E42FE627EF7024E0E29FF0011B
:100C90001124E154FB4F059115912591349154E0B5
:100CA00096958795779567955A95D1F7602771271F
:100CB00082279327E42FE295EF70E627EF7024E078
:100CC000E29FF0011124E154FB4F0591159125910C
:100CD0003491E4E09695879577956795EA95D1F7F5
:100CE00060277127822793271F910F9108952F92D4
:100CF0003F924F925F926F927F928F929F92AF92AC
:100D0000BF92CF92DF92EF92FF920F931F93CF93F8
:100D1000DF93EC017A01690117FF02C010E000E0E7
:100D20006C157D050CF006C11701201A310A812CC3
:100D3000912C5401C215D3056CF5072E000C880BBD
:100D4000990B0E9464264B015C01BE010D2E000C24
:100D5000880B990B0E946426A50194010E943428F7
:100D60002B013C01B101330C880B990B0E946426C6
:100D7000A50194010E9434289B01AC01C301B2017A
:100D80000E94A12820E030E040E85FE30E94342880
:100D90004B015C010E0D1F1D0C171D0784F5B601DC
:100DA000DD0C880B990B0E9464266B017C01BE014F
:100DB000DD0F880B990B0E946426A70196010E9403
:100DC00034284B015C01B7FAB094B7F8B094B8017D
:100DD000110F880B990B0E946426A70196010E94AF
:100DE00034289B01AC01C501B4010E94A12820E078
:100DF00030E040E85FE30E9435284B015C0120E0D1
:100E000030E040E85FEBC501B4010E945D2687FD3C
:100E100083C020E030E040E85FE3C501B4010E94F8
:100E2000492918160CF47FC0C501B401DF91CF9198
:100E30001F910F91FF90EF90DF90CF90BF90AF90F8
:100E40009F908F907F906F905F904F903F902F90EA
:100E5000089518012E0C3F1C812C912C54012C1646
:100E60003D066CF5072E000C880B990B0E9464263A
:100E70004B015C01BE010D2E000C880B990B0E94EA
:100E80006426A50194010E9434282B013C01B10184
:100E9000330C880B990B0E946426A50194010E94D3
:100EA00034289B01AC01C301B2010E94A12820E0BB
:100EB00030E040E85FE30E9434284B015C01E01A17
:100EC000F10ACE15DF050CF09ACFB601DD0C880BC8
:100ED000990B0E9464264B015C01BE01DD0F880B5B
:100EE000990B0E946426A50194010E9434282B01CD
:100EF0003C0177FA709477F87094B701FF0C880B77
:100F0000990B0E946426A50194010E9434289B013C
:100F1000AC01C301B20169CF812C912C90E8A92EBC
:100F20009FEBB92E81CF812C912C80E8A82E8FE3E6
:100F3000B82E7ACFC616D7060CF48BCF812C912C05
:100F4000540172CFFC0101900020E9F73197AF0105
:100F5000481B590BBC0188EA94E00C9485048F92DD
:100F60009F92AF92BF920F931F93CF93DF93CDB712
:100F7000DEB7A1970FB6F894DEBF0FBECDBF19A2A2
:100F8000423008F44AE08E010F5D1F4F842E912CF1
:100F9000B12CA12CA50194010E940328E62FB901D0
:100FA000CA01EA30F4F4E05DD801EE938D01232B01
:100FB000242B252B79F790E080E0109719F0CD01D4
:100FC0000E94A207A1960FB6F894DEBF0FBECDBF58
:100FD000DF91CF911F910F91BF90AF909F908F9015
:100FE0000895E95CE1CF009711F00C94A20790E01E
:100FF00080E00895CF93DF930E94A207EC018CE676
:1010000091E00E94A2078C0F9D1FDF91CF91089560
:10101000CF93DF930E947205EC018CE691E00E9471
:10102000A2078C0F9D1FDF91CF910895CF92DF9281
:10103000EF92FF92CF93DF936C01990FEE08FF08B8
:10104000F7FE19C06DE288EA94E00E942505EC01E4
:1010500066277727CB016C197D098E099F094AE025
:101060000E94AF078C0F9D1FDF91CF91FF90EF90F3
:10107000DF90CF9008954AE0C701B601DF91CF918C
:10108000FF90EF90DF90CF900C94AF074F925F925C
:101090006F927F928F929F92AF92BF92CF92DF9288
:1010A000EF92FF92CF936B017C01AC019B010E94F8
:1010B0004E29882389F08FE691E0CF91FF90EF9041
:1010C000DF90CF90BF90AF909F908F907F906F9068
:1010D0005F904F900C94A20746015701E894B7F82F
:1010E0002FEF3FEF4FE75FE7C501B4010E944E29A4
:1010F00081110DC02FEF3FEF4FE75FE7C501B4014E
:101100000E945D2618161CF483E791E0D6CF2FEFDE
:101110003FEF4FE75FE4C701B6010E944929181667
:101120001CF487E791E0C9CF2FEF3FEF4FE75FEC6B
:10113000C701B6010E945D2687FDF3CF20E030E0B5
:10114000A901C701B6010E945D26B12CA12C87FF21
:101150000AC06DE288EA94E00E9425055C01F7FA76
:10116000F094F7F8F09426E137EB41E558E3C70136
:10117000B6010E9435282B013C010E941A296B01FF
:101180007C010E9462269B01AC01C301B2010E9456
:1011900034282B013C014AE0C701B6010E94AF0789
:1011A0007C01EA0CFB1C6EE288EA94E00E942505B3
:1011B000E80EF91EC5E0C15019F120E030E040E230
:1011C00051E4C301B2010E94C3262B013C010E94DD
:1011D0001A294B01B12CA12C4AE0C501B4010E948F
:1011E000AF07E80EF91EC501B4010E9462269B01FB
:1011F000AC01C301B2010E9434282B013C01DBCFBA
:10120000C701CF91FF90EF90DF90CF90BF90AF904C
:101210009F908F907F906F905F904F900895682F70
:1012200070E090E080E04AE00C94AF078FE994E032
:101230000E94720581E090E00E94160885E294E029
:101240000E94F3078DE894E00E94720580914B01A3
:1012500090914C010E94160885E294E00E94F307E9
:1012600088E794E00E9472058091490190914A01BB
:101270000E94160885E294E00E94F30787E694E056
:101280000E94720580914701909148010E941608C2
:1012900085E294E00E94F30788E594E00E947205DD
:1012A00080914D0190914E010E94160885E294E0D4
:1012B0000E94F30789E494E00E9472058091430143
:1012C000909144010E94160885E294E00E94F30781
:1012D00084E394E00E947205809141019091420163
:1012E0000E94160885E294E00E94F30783E294E0EE
:1012F0000E94720580913F01909140010E94160862
:1013000085E294E00E94F30784E194E00E94720574
:1013100080914501909146010E94160885E294E073
:101320000E94F3078BEF93E00E9472056091160113
:101330007091170180911801909119010E9446083F
:1013400085E294E00E94F30782EE93E00E9472052A
:1013500060911A0170911B0180911C0190911D01F7
:101360000E94460885E294E00E94F30788EC93E02F
:101370000E94720560911E0170911F0180912001F1
:10138000909121010E94460885E294E00E94F307B3
:101390008EEA93E00E947205609122017091230110
:1013A00080912401909125010E94460885E294E0F5
:1013B0000E94F30785E993E00E94720560910D0198
:1013C00070910E0180910F01909110010E944608CA
:1013D00085E294E00E94F3078CE793E00E94720597
:1013E000609111017091120180911301909114018B
:1013F0000E94460885E294E00E94F30788E693E0A5
:101400000E94720560912601709127018091280148
:10141000909129010E94460885E294E00E94F3071A
:1014200083E593E00E94720560912A0170912B017F
:1014300080912C0190912D010E94460885E294E054
:101440000E94F30784E493E00E94720560912E01EC
:1014500070912F0180913001909131010E944608D6
:1014600085E294E00E94F30786E293E00E94720511
:1014700060913B0170913C0180913D0190913E0152
:101480000E94460885E294E00E94F3078AE093E018
:101490000E947205809183048111E2C080E891E08E
:1014A0000E94F30785E294E00E94F30784EF92E044
:1014B0000E94720580915301909154010E94160878
:1014C00085E294E00E94F30780EE92E00E947205AC
:1014D00080910501909106010E94160885E294E032
:1014E0000E94F3078CEC92E00E9472058091070144
:1014F000909108010E94160885E294E00E94F3078B
:1015000085EB92E00E947205809151019091520109
:101510000E94160885E294E00E94F30780EA92E0B8
:101520000E9472058091090190910A010E9416089B
:1015300085E294E00E94F3078BE892E00E94720536
:1015400080910B0190910C010E94160885E294E0B5
:101550000E94F30788E792E00E947205809186045A
:10156000811181C080E891E00E94F30785E294E058
:101570000E94F30780E692E00E9472058091390193
:1015800090913A010E94160885E294E00E94F307C8
:1015900088E492E00E947205809184049091850411
:1015A0000E94160885E294E00E94F3078DE292E023
:1015B0000E94720580911501811158C080E891E068
:1015C0000E94F30785E294E00E94F3078AE192E02B
:1015D0000E947205809138010E940F0985E294E013
:1015E0000E94F30786EF91E00E947205809102014C
:1015F000909103010E94160885E294E00E94F3078F
:1016000088EE91E00E947205809150010E940F09BE
:1016100085E294E00E94F3078AED91E00E94720552
:1016200080914F010E940F0985E294E00E94F30728
:101630008CEB91E00E947205809101010E940F09DC
:1016400085E294E00E94F3078DE991E00E94720523
:10165000809100010E940F0989E294E00C94FA073E
:101660008BE791E01DCF8BE791E07ECF8BE791E098
:10167000A7CF1F93CF93DF93EC01162F0E948427EF
:10168000181739F0612FCE01DF91CF911F910C9483
:101690008C27DF91CF911F910895CF92DF92EF9227
:1016A000FF920F931F93CF93DF93EC018B01C090B8
:1016B0002D04D0902E04E0902F04F0903004FB0114
:1016C0006081888199810E94390B88819981F80114
:1016D00060818A569F4F0E94390B88819981F80159
:1016E0006081845D9E4F0E94390BF8014081C701E3
:1016F000B6010E944006288139812F5F3F4F398310
:10170000288360932D0470932E0480932F0490936C
:101710003004DF91CF911F910F91FF90EF90DF90F8
:10172000CF900895AF92BF92CF92DF92EF92FF9247
:101730000F931F93CF93DF938C01EB01C0902D0487
:10174000D0902E04E0902F04F09030045B0184E0F0
:10175000A80EB11C6881F801808191810E94390B2B
:10176000F8018081918168818A569F4F0E94390BD0
:10177000F801808191816881845D9E4F0E94390BC0
:101780004991C701B6010E9440066B017C01F80136
:1017900080819181019691838083AC16BD06D1F63C
:1017A000C0922D04D0922E04E0922F04F0923004C7
:1017B000DF91CF911F910F91FF90EF90DF90CF902D
:1017C000BF90AF900895AF92BF92CF92DF92EF9209
:1017D000FF920F931F93CF93DF938C01EB01C09087
:1017E0002D04D0902E04E0902F04F09030045B0183
:1017F00082E0A80EB11C6881F801808191810E946D
:10180000390BF8018081918168818A569F4F0E942F
:10181000390BF801808191816881845D9E4F0E941F
:10182000390B4991C701B6010E9440066B017C014A
:10183000F80180819181019691838083AC16BD0669
:10184000D1F6C0922D04D0922E04E0922F04F09293
:101850003004DF91CF911F910F91FF90EF90DF90B7
:10186000CF90BF90AF900895CF92DF92EF92FF920A
:101870000F931F93CF93DF93EC018B01C0902D0446
:10188000D0902E04E0902F04F0903004FB01608192
:10189000888199810E94390B88819981F801608142
:1018A0008A569F4F0E94390B88819981F801608187
:1018B000845D9E4F0E94390BF8014081C701B6013B
:1018C0000E944006288139812F5F3F4F398328834A
:1018D00060932D0470932E0480932F049093300412
:1018E000DF91CF911F910F91FF90EF90DF90CF90FC
:1018F0000895CF92DF92EF92FF920F931F93CF93B1
:10190000DF9300D0CDB7DEB781E090E09A83898382
:1019100010922D0410922E0410922F041092300475
:101920006BE471E0CE0101960E94E30B69E471E083
:10193000CE0101960E94E30B67E471E0CE010196AF
:101940000E94E30B6DE471E0CE0101960E94E30B6F
:1019500063E471E0CE0101960E94E30B61E471E063
:10196000CE0101960E94E30B6FE371E0CE01019678
:101970000E94E30B65E471E0CE0101960E94E30B47
:1019800066E171E0CE0101960E94920B6AE171E07E
:10199000CE0101960E94920B6EE171E0CE0101969C
:1019A0000E94920B62E271E0CE0101960E94920BBE
:1019B0006DE071E0CE0101960E94920B61E171E051
:1019C000CE0101960E94920B66E271E0CE01019673
:1019D0000E94920B6AE271E0CE0101960E94920B86
:1019E0006EE271E0CE0101960E94920B6BE371E012
:1019F000CE0101960E94920B65E171E0CE01019645
:101A00000E944D0B63E874E0CE0101960E944D0BDD
:101A100063E571E0CE0101960E94E30B65E071E0A1
:101A2000CE0101960E94E30B67E071E0CE010196C2
:101A30000E94E30B61E571E0CE0101960E94E30B89
:101A400069E071E0CE0101960E94E30B6BE071E06A
:101A5000CE0101960E94E30B66E874E0CE01019688
:101A60000E944D0B69E371E0CE0101960E94E30BE9
:101A700064E874E0CE0101960E94E30B62E071E03D
:101A8000CE0101960E94E30B60E571E0CE01019664
:101A90000E94340C6FE471E0CE0101960E94340C78
:101AA00061E071E0CE0101960E94340C60E071E0CB
:101AB000CE0101960E94340C68E371E0CE010196DC
:101AC0000E94340CC0902D04D0902E04E0902F047E
:101AD000F09030040DE214E0F801608189819A8170
:101AE0000E94390B89819A81F80160818A569F4F43
:101AF0000E94390B89819A81F8016081845D9E4F33
:101B00000E94390BF80141918F01C701B6010E9473
:101B100040066B017C0189819A8101969A838983B1
:101B2000F4E001331F07C1F6C0922D04D0922E04B9
:101B3000E0922F04F09230040F900F90DF91CF913C
:101B40001F910F91FF90EF90DF90CF9008950C942C
:101B50008427CF92DF92EF92FF920F931F93CF9340
:101B6000DF938C017B01FC01C080D180C6010E9403
:101B7000A70DC82FC6018A569F4F0E94A70DD82FC8
:101B8000C601845D9E4F0E94A70DCD1327C0C813C8
:101B900025C0F701C08360912D0470912E048091BF
:101BA0002F0490913004F70140810E944006609319
:101BB0002D0470932E0480932F0490933004F80129
:101BC00080819181019691838083DF91CF911F91D4
:101BD0000F91FF90EF90DF90CF9008956C2F682BBE
:101BE0006D23C8236C2BF7016083F80180819181FC
:101BF0000E94390BF80180819181F70160818A563A
:101C00009F4F0E94390BF80180819181F70160811B
:101C1000845D9E4F0E94390B60E08DE00E949C0322
:101C200064E670E080E090E00E94530461E08DE0A3
:101C30000E949C0364E670E080E090E00E94530400
:101C4000AACFAF92BF92CF92DF92EF92FF920F9303
:101C50001F93CF93DF937C01EB016B0184E0C80EEF
:101C6000D11CF701A080B180C5010E94A70D182FDB
:101C7000C5018A569F4F0E94A70D082FC501845D9C
:101C80009E4F0E94A70D10132AC0181328C0188356
:101C900060912D0470912E0480912F049091300456
:101CA00049910E94400660932D0470932E04809306
:101CB0002F0490933004F7018081918101969183E4
:101CC0008083CC15DD0569F6DF91CF911F910F91CF
:101CD000FF90EF90DF90CF90BF90AF900895612F6D
:101CE000682B60231823612B6883F7018081918121
:101CF0000E94390BF7018081918168818A569F4F3C
:101D00000E94390BF701808191816881845D9E4F2B
:101D10000E94390B60E08DE00E949C0364E670E055
:101D200080E090E00E94530461E08DE00E949C03FB
:101D300064E670E080E090E00E945304A9CFAF9287
:101D4000BF92CF92DF92EF92FF920F931F93CF93A8
:101D5000DF937C01EB016B0182E0C80ED11CF7011F
:101D6000A080B180C5010E94A70D182FC5018A5619
:101D70009F4F0E94A70D082FC501845D9E4F0E94B2
:101D8000A70D10132AC0181328C0188360912D04C2
:101D900070912E0480912F049091300449910E94FB
:101DA000400660932D0470932E0480932F0490932B
:101DB0003004F70180819181019691838083CC1555
:101DC000DD0569F6DF91CF911F910F91FF90EF90A4
:101DD000DF90CF90BF90AF900895612F682B602364
:101DE0001823612B6883F701808191810E94390B50
:101DF000F7018081918168818A569F4F0E94390B3B
:101E0000F701808191816881845D9E4F0E94390B2A
:101E100060E08DE00E949C0364E670E080E090E06A
:101E20000E94530461E08DE00E949C0364E670E030
:101E300080E090E00E945304A9CFCF92DF92EF920E
:101E4000FF920F931F93CF93DF938C017B01FC01D3
:101E5000C080D180C6010E94A70DC82FC6018A5636
:101E60009F4F0E94A70DD82FC601845D9E4F0E94F0
:101E7000A70DCD1327C0C81325C0F701C0836091FB
:101E80002D0470912E0480912F0490913004F7015D
:101E900040810E94400660932D0470932E0480932D
:101EA0002F0490933004F8018081918101969183F1
:101EB0008083DF91CF911F910F91FF90EF90DF9082
:101EC000CF9008956C2F682B6D23C8236C2BF701DE
:101ED0006083F801808191810E94390BF801808133
:101EE0009181F70160818A569F4F0E94390BF8015A
:101EF00080819181F7016081845D9E4F0E94390B42
:101F000060E08DE00E949C0364E670E080E090E079
:101F10000E94530461E08DE00E949C0364E670E03F
:101F200080E090E00E945304AACF1F920F920FB658
:101F30000F9211242F933F938F939F93AF93BF934F
:101F40008091A0049091A104A091A204B091A30457
:101F500030919F0423E0230F2D3758F50196A11DE2
:101F6000B11D20939F048093A0049093A104A0939B
:101F7000A204B093A3048091A4049091A504A0911D
:101F8000A604B091A7040196A11DB11D8093A404DD
:101F90009093A504A093A604B093A704BF91AF911A
:101FA0009F918F913F912F910F900FBE0F901F9097
:101FB000189526E8230F0296A11DB11DD2CF1F92BE
:101FC0000F920FB60F9211242F933F934F935F936D
:101FD0006F937F938F939F93AF93BF93EF93FF93F1
:101FE00088EA94E00E940305FF91EF91BF91AF91C1
:101FF0009F918F917F916F915F914F913F912F9121
:102000000F900FBE0F901F9018951F920F920FB652
:102010000F9211242F938F939F93EF93FF93E0914F
:10202000B804F091B9048081E091BE04F091BF043E
:1020300082FD1BC090818091C1048F5F8F732091BE
:10204000C204821741F0E091C104F0E0E855FB4F73
:10205000958F8093C104FF91EF919F918F912F9164
:102060000F900FBE0F901F9018958081F4CF1F9294
:102070000F920FB60F9211242F933F934F935F93BC
:102080006F937F938F939F93AF93BF93CF93DF9380
:10209000EF93FF9380912C04C0916905D0E087FFF6
:1020A00024C0109285001092840080912C048F5FD0
:1020B00080932C0480912C04082E000C990B8C1713
:1020C0009D0724F480912C048C30C4F1809184000D
:1020D00090918500049680349C4908F47AC08091E0
:1020E000840090918500049676C080912C04082E7F
:1020F000000C990B8C179D07C4F6E0912C048E2FD1
:10210000EE0F990BFC01EE0FFF1FE80FF91FEB5BC1
:10211000FA4F808186FFC9CFE0912C048E2FEE0FFD
:10212000990BFC01EE0FFF1FE80FF91FEB5BFA4F55
:10213000808160E08F730E949C03B7CF2091840060
:1021400030918500E0912C048E2FEE0F990BFC014D
:10215000EE0FFF1FE80FF91FEB5BFA4F81819281B1
:10216000820F931F9093890080938800E0912C0444
:102170008E2FEE0F990BFC01EE0FFF1FE80FF91FDA
:10218000EB5BFA4F808186FF11C0E0912C048E2F0B
:10219000EE0F990BFC01EE0FFF1FE80FF91FEB5B31
:1021A000FA4F808161E08F730E949C03FF91EF9151
:1021B000DF91CF91BF91AF919F918F917F916F915F
:1021C0005F914F913F912F910F900FBE0F901F90F5
:1021D000189580E49CE990938900809388008FEFA4
:1021E00080932C04E3CF1092AB041092AA0488EEE3
:1021F00093E0A0E0B0E08093AC049093AD04A09392
:10220000AE04B093AF048EE591E09093A90480935F
:10221000A80485EC90E09093B5048093B40484EC1A
:1022200090E09093B7048093B60480EC90E0909394
:10223000B9048093B80481EC90E09093BB04809340
:10224000BA0482EC90E09093BD048093BC0486ECC9
:1022500090E09093BF048093BE041092C10410924A
:10226000C2041092C3041092C4048091530190914F
:102270005401909373058093720580915101909160
:1022800052019093710580937005809169058C309F
:1022900048F591E0980F9093690580936D0590E063
:1022A000FC01EE0FFF1FE80FF91FEB5BFA4F88EB05
:1022B0009BE092838183809169058C30B8F491E032
:1022C000980F9093690580936A0590E0FC01EE0FEA
:1022D000FF1FE80FF91FEB5BFA4F88EB9BE092833F
:1022E000818308958FEF80936D05E5CF8FEF809305
:1022F0006A050895CF93DF93CDB7DEB7A1970FB6E8
:10230000F894DEBF0FBECDBF789484B5826084BDE3
:1023100084B5816084BD85B5826085BD85B58160E9
:1023200085BD80916E00816080936E001092810067
:102330008091810082608093810080918100816022
:1023400080938100809180008160809380008091E3
:10235000B10084608093B1008091B000816080936F
:10236000B00080917A00846080937A0080917A0036
:10237000826080937A0080917A00816080937A00F5
:1023800080917A00806880937A001092C100E09179
:10239000B804F091B90482E08083E091B404F09134
:1023A000B5041082E091B604F091B70480E1808317
:1023B0001092C004E091BC04F091BD0486E08083DB
:1023C000E091BA04F091BB04808180618083E09148
:1023D000BA04F091BB04808188608083E091BA04E4
:1023E000F091BB04808180688083E091BA04F09111
:1023F000BB0480818F7D808360E08DE00E949C0320
:1024000018861F82BE01675F7F4FCE0107960E942C
:102410001D0F8985853051F018861F8269E571E0AE
:10242000CE0107960E94340C0E94790C81E090E066
:102430009E838D8310922D0410922E0410922F04EF
:10244000109230048E010B5F1F4F6BE471E0C801E6
:102450000E949F0E69E471E0C8010E949F0E67E42C
:1024600071E0C8010E949F0E6DE471E0C8010E94F6
:102470009F0E63E471E0C8010E949F0E61E471E069
:10248000C8010E949F0E6FE371E0C8010E949F0E79
:1024900065E471E0C8010E949F0E66E171E0C80129
:1024A0000E94210E6AE171E0C8010E94210E6EE1D6
:1024B00071E0C8010E94210E62E271E0C8010E9431
:1024C000210E6DE071E0C8010E94210E61E171E012
:1024D000C8010E94210E66E271E0C8010E94210E2F
:1024E0006AE271E0C8010E94210E6EE271E0C8014B
:1024F0000E94210E6BE371E0C8010E94210E65E18C
:1025000071E0C8010E94A90D63E874E0C8010E944F
:10251000A90D63E571E0C8010E949F0E65E071E0BE
:10252000C8010E949F0E67E071E0C8010E949F0EE3
:1025300061E571E0C8010E949F0E69E071E0C80189
:102540000E949F0E6BE071E0C8010E949F0E66E83A
:1025500074E0C8010E94A90D69E371E0C8010E94FE
:102560009F0E64E874E0C8010E949F0E62E071E073
:10257000C8010E949F0E60E571E0C8010E941D0F16
:102580006FE471E0C8010E941D0F61E071E0C801B5
:102590000E941D0F60E071E0C8010E941D0F68E3FA
:1025A00071E0C8010E941D0F40902D0450902E0430
:1025B00060902F047090300419821A821B821C8252
:1025C0009E012F5F3F4F7901AD80BE80C5010E9403
:1025D000A70DD82EC5018A569F4F0E94A70DC82E61
:1025E000C501845D9E4F0E94A70DDC103CC1D8122E
:1025F0003AC1D701DC9260912D0470912E04809134
:102600002F0490913004D7014D917D010E94400626
:1026100060932D0470932E0480932F0490933004C4
:102620008D819E8101969E838D83E016F10661F671
:1026300089819A81AB81BC81481659066A067B065E
:1026400009F441C162E370E080E090E00E9453042D
:102650008FEF94E00E94080862E370E080E090E071
:102660000E945304E0916D058E2F90E0FC01EE0F67
:10267000FF1FE80FF91FEB5BFA4F808186FF02C056
:102680008F7B8083E0916A058E2F90E0FC01EE0F36
:10269000FF1FE80FF91FEB5BFA4F808186FF02C036
:1026A0008F7B808364E670E080E090E00E945304BA
:1026B00012E060E0812F0E94E80360E0812F0E9419
:1026C0009C031F5F1536A9F761E08DE00E94E803C7
:1026D00062E370E080E090E00E94530461E08DE0EE
:1026E0000E949C0368EC70E080E090E00E9453043C
:1026F00060E08DE00E949C0368EC70E080E090E078
:102700000E94530461E08DE00E949C0368EC70E03D
:1027100080E090E00E94530460E08DE00E949C0302
:1027200068EC70E080E090E00E94530461E08DE08E
:102730000E949C0368EC70E080E090E00E945304EB
:1027400060E08DE00E949C0368EC70E080E090E027
:102750000E94530460E971E080E090E00E9453041D
:1027600061E08DE00E949C0364EF71E080E090E006
:102770000E94530460E08DE00E949C0360E971E0D8
:1027800080E090E00E94530461E08DE00E949C0391
:1027900064EF71E080E090E00E94530460E08DE01F
:1027A0000E949C0360E971E080E090E00E94530485
:1027B00061E08DE00E949C0364EF71E080E090E0B6
:1027C0000E94530460E08DE00E949C0360E971E088
:1027D00080E090E00E94530460E971E080E090E0C6
:1027E0000E94530461E08DE00E949C0368EC70E05D
:1027F00080E090E00E94530460E08DE00E949C0322
:1028000068EC70E080E090E00E94530461E08DE0AD
:102810000E949C0368EC70E080E090E00E9453040A
:1028200060E08DE00E949C0368EC70E080E090E046
:102830000E94530461E08DE00E949C0368EC70E00C
:1028400080E090E00E94530460E08DE00E949C03D1
:1028500068EC70E080E090E00E94530468EE73E062
:1028600080E090E039CF6D2D682B6C21D8226D2946
:10287000F70160838D819E810E94390B8D819E813D
:10288000D7016C918A569F4F0E94390B8D819E8192
:10289000F7016081845D9E4F0E94390B60E08DE0FE
:1028A0000E949C0364E670E080E090E00E94530484
:1028B00061E08DE00E949C0364E670E080E090E0BF
:1028C0000E94530498CE0E94160960E08091500146
:1028D0000E94E80360E080914F010E94E80360E0FD
:1028E000809138010E94E8036091010170E08DE65B
:1028F00095E00E94E4056091000170E08AE695E0B1
:102900000E94E40560915301709154018DE695E0B9
:102910000E94AD0560915101709152018AE695E0E7
:102920000E94AD0569ED79E080E090E00E945304DB
:1029300088EA94E00E94C104F82EBFEF8B1709F4D7
:102940006FC4ECE28E130C94651FE0917204F0E00A
:10295000E05CFB4F108266E871E080E494E00E9446
:1029600081227C0166E871E090E080E00E94812293
:102970008C01A1E3B4E0EFE01D92EA95E9F769E884
:1029800071E0C7010E948229892BC9F5C8010E9404
:10299000632280934B0190934C019F938F9327E97F
:1029A00031E03F932F93A1E3B4E0BF93AF930E9434
:1029B00092290F900F900F900F900F900F9083E33C
:1029C00095E00E94720585E294E00E94F30786E29A
:1029D00095E00E947205C7010E94F30784E294E02B
:1029E0000E94F3078BE195E00E94720581E394E079
:1029F0000E94F30788E294E00E94FA070FC46AE994
:102A000071E0C7010E948229892B41F4C8010E940C
:102A100063228093490190934A01BFCF6BEA71E032
:102A2000C7010E948229892B41F4C8010E946322B8
:102A30008093470190934801B0CF68EB71E0C701E4
:102A40000E948229892B69F4C8010E94632297FFA2
:102A500003C091958195910980934D0190934E010A
:102A60009CCF63EC71E0C7010E948229892B41F45D
:102A7000C8010E94632280934301909344018DCF4B
:102A80006EEC71E0C7010E948229892B41F4C801D4
:102A90000E94632280934101909342017ECF6FEDAB
:102AA00071E0C7010E948229892B41F4C8010E946C
:102AB000632280933F01909340016FCF6CEE71E0F1
:102AC000C7010E948229892B69F4C8010E946322F0
:102AD00097FF03C09195819591098093450190934B
:102AE00046015BCF67EF71E0C7010E948229892B05
:102AF00009F5C8010E945F2220E030E0A9010E9490
:102B00004929181694F4C8010E945F2260931601A7
:102B100070931701809318019093190101E314E059
:102B200024E040E00E949D214ACFC8010E945F221C
:102B30009058ECCF6CE072E0C7010E948229892B8B
:102B4000D9F4C8010E945F2220E030E0A9010E9470
:102B50004929181664F4C8010E945F2260931A0183
:102B600070931B0180931C0190931D01D7CFC80166
:102B70000E945F229058F2CF61E272E0C7010E948A
:102B80008229892BD9F4C8010E945F2220E030E01D
:102B9000A9010E944929181664F4C8010E945F2205
:102BA00060931E0170931F01809320019093210177
:102BB000B5CFC8010E945F229058F2CF67E372E060
:102BC000C7010E948229892BD9F4C8010E945F2283
:102BD00020E030E0A9010E944929181664F4C801D8
:102BE0000E945F226093220170932301809324014D
:102BF0009093250193CFC8010E945F229058F2CF95
:102C00006DE472E0C7010E948229892BD9F4C801C2
:102C10000E945F2220E030E0A9010E944929181695
:102C200064F4C8010E945F2260930D0170930E014D
:102C300080930F019093100171CFC8010E945F2211
:102C40009058F2CF62E672E0C7010E948229892B78
:102C5000D9F4C8010E945F2220E030E0A9010E945F
:102C60004929181664F4C8010E945F22609311017B
:102C70007093120180931301909314014FCFC801F8
:102C80000E945F229058F2CF67E772E0C7010E946E
:102C90008229892B09F062C0C8010E945F2220E0CE
:102CA00030E0A9010E944929181674F4C8010E9455
:102CB0005F2220E030E0A9010E945D2687FF0EC060
:102CC00060E070E0CB012CC0C8010E945F2220E0D0
:102CD00030E0A9010E944929181694F3C8010E9406
:102CE0005F2220E030E0A9010E94492918160CF566
:102CF000C8010E945F2220E030E040E85FE30E94CC
:102D0000492918160CF1C8010E945F2220E030E02A
:102D1000A9010E9449291816E4F4C8010E945F2203
:102D200060932601709327018093280190932901D5
:102D3000F5CEC8010E945F2220E030E040E85FEB62
:102D40000E945D2687FFDFCF60E070E080E89FE3B0
:102D5000E7CFC8010E945F229058E2CF67E872E097
:102D6000C7010E948229892B09F062C0C8010E9414
:102D70005F2220E030E0A9010E944929181674F46E
:102D8000C8010E945F2220E030E0A9010E945D2678
:102D900087FF0EC060E070E0CB012CC0C8010E942C
:102DA0005F2220E030E0A9010E944929181694F31F
:102DB000C8010E945F2220E030E0A9010E94492959
:102DC00018160CF5C8010E945F2220E030E040E8B0
:102DD0005FE30E94492918160CF1C8010E945F2286
:102DE00020E030E0A9010E9449291816E4F4C80146
:102DF0000E945F2260932A0170932B0180932C0123
:102E000090932D018BCEC8010E945F2220E030E01C
:102E100040E85FEB0E945D2687FFDFCF60E070E057
:102E200080E89FE3E7CFC8010E945F229058E2CF7D
:102E300068E972E0C7010E948229892B09F062C00B
:102E4000C8010E945F2220E030E0A9010E944929C8
:102E5000181674F4C8010E945F2220E030E0A90136
:102E60000E945D2687FF0EC060E070E0CB012CC0A1
:102E7000C8010E945F2220E030E0A9010E94492998
:102E8000181694F3C8010E945F2220E030E0A901E7
:102E90000E94492918160CF5C8010E945F2220E003
:102EA00030E040E85FE30E94492918160CF1C801A0
:102EB0000E945F2220E030E0A9010E9449291816F3
:102EC000E4F4C8010E945F2260932E0170932F01E9
:102ED000809330019093310121CEC8010E945F227E
:102EE00020E030E040E85FEB0E945D2687FFDFCF07
:102EF00060E070E080E89FE3E7CFC8010E945F22B6
:102F00009058E2CF63EA72E0C7010E948229892BC0
:102F100061F4C8010E945F2260933B0170933C0101
:102F200080933D0190933E01F9CD6DEB72E0C701B6
:102F30000E948229892BA1F4C8010E94632221E00A
:102F4000009709F420E0209315016BE771E0892BCD
:102F500011F460E871E081E394E00E948B292FCDA9
:102F600064ED72E0C7010E948229892B51F4C801E7
:102F70000E94632221E0009709F420E0209383045B
:102F8000E4CF6CEE72E0C7010E948229892B41F4E4
:102F9000C8010E9463228093530190935401FDCC99
:102FA0006EEF72E0C7010E948229892B41F4C801AB
:102FB0000E9463228093050190930601EECC6EE09F
:102FC00073E0C7010E948229892B41F4C8010E9445
:102FD00063228093070190930801DFCC6EE173E0D8
:102FE000C7010E948229892B41F4C8010E946322F3
:102FF0008093510190935201D0CC61E373E0C701FB
:103000000E948229892B41F4C8010E946322809387
:10301000090190930A01C1CC62E473E0C7010E94E8
:103020008229892B41F4C8010E94632280930B01FD
:1030300090930C01B2CC63E573E0C7010E94822932
:10304000892B51F4C8010E94632221E0009709F402
:1030500020E02093860479CF62E673E0C7010E94E6
:103060008229892B41F4C8010E946322809339018F
:1030700090933A0192CC66E773E0C7010E948229DF
:10308000892B41F4C8010E946322809384049093A9
:10309000850483CC6AE873E0C7010E948229892BEA
:1030A00041F4C8010E9463228093020190930301BE
:1030B00074CC6AEA73E0C7010E948229892B61F40B
:1030C000C8010E9463228093500160E00E94E803DF
:1030D000809150011F9262CC64EB73E0C7010E94A3
:1030E0008229892B59F4C8010E94632280934F01E1
:1030F00060E00E94E80380914F01ECCF6EEB73E03B
:10310000C7010E948229892B61F56091530170915A
:1031100054018DE695E00E94AD05E0916D058E2F7E
:1031200090E0FC01EE0FFF1FE80FF91FEB5BFA4F79
:1031300080818F7B8083C8010E946322809301017C
:10314000BC0177278DE695E00E94E405609153016C
:10315000709154018DE695E00E94AD0580910101CA
:10316000B9CF68ED73E0C7010E948229892B61F510
:1031700060915101709152018AE695E00E94AD057F
:10318000E0916A058E2F90E0FC01EE0FFF1FE80F23
:10319000F91FEB5BFA4F80818F7B8083C8010E940F
:1031A000632280930001BC0177278AE695E00E94A4
:1031B000E40560915101709152018AE695E00E9408
:1031C000AD058091000186CF63EF73E0C7010E94D7
:1031D0008229892B59F4C8010E9463228093380107
:1031E00060E00E94E8038091380174CF62E074E0EF
:1031F000C7010E948229892B39F40E94790C84E945
:1032000095E00E9408080AC067E074E0C7010E94C8
:103210008229892B09F0CCC50E94160910927204EC
:10322000C0907304D0907404E0907504F09076041C
:10323000C114D104E104F10409F46CC60E942E0407
:103240006C197D098E099F090E94622620E034E2F4
:1032500044E759E40E94A1286E877F87888B998B69
:103260000E942E0460937304709374048093750419
:10327000909376048E859F85A889B98980939B0455
:1032800090939C04A0939D04B0939E048091500160
:103290000E9419046C0190939A0480939904809180
:1032A0004F010E9419047C01909398048093970425
:1032B00000914D0110914E0120914B0130914C0134
:1032C0004091490150914A01609147017091480134
:1032D000C6010E9477064B015C0180929304909294
:1032E0009404A0929504B092960400914501109127
:1032F0004601209143013091440140914101509198
:10330000420160913F0170914001C7010E94770620
:103310006B017C01C0928F04D0929004E0929104E2
:10332000F0929204C0928B04D0928C04E0928D04AF
:10333000F0928E0420913B0130913C0140913D017F
:1033400050913E0160E070E080E89FE30E943428E5
:103350002B013C0120E030E0A901C701B6010E9429
:103360004929181624F0F7FAF094F7F8F094A70119
:103370009601C301B2010E94C3269B01AC0160E02B
:1033800070E080E89FE30E9434286B017C0120E01C
:1033900030E0A9010E94492918161CF0C12CD12C3B
:1033A0007601A7019601C501B4010E94C32660936E
:1033B0008704709388048093890490938A04809191
:1033C0008604882309F4B9C5C0908404D09085048C
:1033D000E0903901F0903A01809138010E9419047F
:1033E0008C019093370180933601B701FF0C880B55
:1033F000990B0E9464264B015C01B801110F880BE8
:10340000990B0E946426A50194010E9434282B0187
:103410003C01B601DD0C880B990B0E946426A501C6
:1034200094010E9434289B01AC01C301B2010E94A7
:10343000A12820E030E0A9010E9435286B017C0121
:1034400020E030E0A9010E945D2687FD72C520E0E2
:1034500030E040E85FE3C701B6010E944929181631
:1034600034F4C12CD12C80E8E82E8FE3F82EC092E2
:103470003201D0923301E0923401F0923501809014
:103480002E0190902F01A0903001B0903101C0909A
:103490002A01D0902B01E0902C01F0902D0140905A
:1034A0002601509027016090280170902901809199
:1034B000320190913301A0913401B09135018A8796
:1034C0009B87AC87BD8720E030E0A901C701B6012A
:1034D0000E944929181624F0F7FAF094F7F8F094AE
:1034E00020E030E0A901C301B2010E944929181669
:1034F00024F077FA709477F8709420E030E0A90116
:10350000C501B4010E944929181624F0B7FAB094F5
:10351000B7F8B094A30192016A857B858C859D855F
:103520000E94C3266A8B7C8B888F998FC701B60156
:1035300090582A853B854C855D850E94C3262B01CA
:103540003C01C0908B04D0908C04E0908D04F090EE
:103550008E0420E030E0A901C701B6010E945D267B
:10356000882309F403C520E030E0A901C701B601B2
:103570000E944929A701960118160CF0EBC46A892C
:103580007C89888D998D0E94C32620E030E0A901B6
:103590000E9435281B018C019101A801B201C301D1
:1035A0000E94492918160CF4E6C49101A8016A8901
:1035B0007C89888D998D0E945D2687FF04C02A88AA
:1035C0003C88088D198DC101D80180938B0490939C
:1035D0008C04A0938D04B0938E04209187043091C5
:1035E00088044091890450918A04C501B4010E9465
:1035F000C3262A853B854C855D850E94C3262B0109
:103600003C012A853B854C855D85C501B4019058F8
:103610000E94C3266B017C01AC019B01B201C30176
:103620000E945D2687FD14C0A50194016A857B85F3
:103630008C859D850E94C3266B017C01AC019B019A
:10364000B201C3010E944929181614F062017301E6
:10365000C0928704D0928804E0928904F0928A0490
:1036600020E030E0A901B101C8010E945D2687FF7A
:1036700010C080918304882361F0F7FAF094F7F882
:10368000F094C0928704D0928804E0928904F0926A
:103690008A048091220190912301A0912401B0918C
:1036A00025018A8F9B8FAC8FBD8F80901E019090DB
:1036B0001F01A0902001B090210180911A019091EA
:1036C0001B01A0911C01B0911D018E8F9F8FA8A39B
:1036D000B9A34090160150901701609018017090A6
:1036E000190180911501811149C41A8A1C8A90E838
:1036F000988FAFE3A98FC0907F04D0908004E090B2
:103700008104F090820420E030E0A901C301B201FD
:103710000E94492918161CF0412C512C3201A3019A
:1037200092016A897C89888D998D0E94C3262B011C
:103730003C0120E030E0A9016E8D7F8D88A199A128
:103740000E944929181624F01E8E1F8E18A219A255
:1037500020E030E0A901C501B4010E9449291816F2
:103760001CF0812C912C5401A50194016A897C895B
:10377000888D998D0E94C3264B015C0120E030E0CA
:10378000A9016A8D7B8D8C8D9D8D0E94492918160B
:1037900024F01A8E1B8E1C8E1D8EA7019601B1017E
:1037A000C8010E943428162F072F382E292E20E01A
:1037B00030E0A901C701B6010E945D268111E7C36F
:1037C000C501B40190582E853F85488959890E94CA
:1037D000C3264B015C019B01AC01612F702F832D2F
:1037E000922D0E945D2687FD18C0A30192016E856F
:1037F0007F85888999890E94C3264B015C019B01C2
:10380000AC01612F702F832D922D0E94492918162B
:1038100024F0812E902EA32CB22C9401A501C70177
:10382000B6010E9435282B011C01C201D1018093F1
:103830007F0490938004A0938104B09382048090CD
:10384000110190901201A0901301B0901401C0904A
:103850000D01D0900E01E0900F01F09010018091C9
:10386000870490918804A0918904B0918A048E8F76
:103870009F8FA8A3B9A380917B0490917C04A09111
:103880007D04B0917E048A8F9B8FAC8FBD8F20E02A
:1038900030E0A901C701B6010E94492918161CF0A1
:1038A000C12CD12C7601A70196016A897C89888D6B
:1038B000998D0E94C3266B017C0120E030E0A901B4
:1038C000C501B4010E94492918161CF0812C912CC5
:1038D00054012A8D3B8D4C8D5D8D6E8D7F8D88A121
:1038E00099A10E943428762E072F182F692E20E0E8
:1038F00030E0A9016A8D7B8D8C8D9D8D0E945D26A7
:103900008111DEC32E853F8548895989C701B601DB
:1039100090580E94C3264B015C01272D302F412F68
:10392000562D0E9449291816B4F0A70196016E85FC
:103930007F85888999890E94C3264B015C01272DC8
:10394000302F412F562D0E945D2687FD04C0872C05
:10395000902EA12EB62C9401A5016A8D7B8D8C8DA5
:103960009D8D0E9435285B018C01C501D801809393
:103970007B0490937C04A0937D04B0937E0480919B
:103980008604882309F449C0CA84DB84EC84FD845E
:10399000F7FAF094F7F8F0949201A101C701B6018B
:1039A0000E94492918160CF41CC49201A1016A85D1
:1039B0007B858C859D850E945D2687FF04C04A8497
:1039C0005B842C843D84C201D10180937F04909359
:1039D0008004A0938104B09382049501A801C701DB
:1039E000B6010E944929181684F09501A8016A853C
:1039F0007B858C859D850E945D266501780187FF0A
:103A000004C0CA84DB84EC84FD84C0927B04D09221
:103A10007C04E0927D04F0927E04A0910B01B091B1
:103A20000C01BF87AE87E0910901F0910A01FB8B81
:103A3000EA8B20915101309152013B872A872090D7
:103A4000070130900801E0900501F0900601009117
:103A500053011091540180917F0490918004A091B2
:103A60008104B09182048C8B9D8BAE8BBF8B409078
:103A70007B0450907C0460907D0470907E04A301D0
:103A80009201BC01CD010E9435284B015C0120E070
:103A900030E0A9010E945D268111A6C3B801012E64
:103AA000000C880B990B0E9464260E9413299B012D
:103AB00037FE03C03194219431087801E218F308ED
:103AC0002E153F053CF07801E20CF31C2E153F0546
:103AD0000CF47B01F0927305E0927205A301920150
:103AE0006C897D898E899F890E9434284B015C01F5
:103AF00020E030E0A9010E945D268111C2C3AA85A1
:103B0000BB85BD01BB0F880B990B0E9464260E94E8
:103B10001329AB012E853F8537FF03C031952195D1
:103B20003109EA85FB85E21BF30B4E175F0744F072
:103B3000EA85FB85E20FF31F4E175F070CF4FB01CC
:103B4000F0937105E093700580910401882369F07A
:103B5000B7018DE695E00E94AD056091700570910A
:103B600071058AE695E00E94AD0580910201909171
:103B7000030197FD0DC12FB7F8944091A004509117
:103B8000A1046091A2047091A3042FBF0091770457
:103B9000109178042091790430917A04401B510BE4
:103BA000620B730B092E000CAA0BBB0B48175907AD
:103BB0006A077B0708F4ECC02FB7F8948091A00443
:103BC0009091A104A091A204B091A3042FBF80936F
:103BD000770490937804A0937904B0937A0485E7EE
:103BE00096E00E9472052FB7F8946091A00470913E
:103BF000A1048091A2049091A3042FBF4AE00E94E7
:103C0000AF0785E294E00E94F30789E696E00E9400
:103C100072058091990490919A040E94160885E299
:103C200094E00E94F3078DE596E00E947205809172
:103C30009704909198040E94160885E294E00E94EF
:103C4000F3078FE496E00E947205609193047091EF
:103C5000940480919504909196040E94460885E210
:103C600094E00E94F30780E496E00E947205609160
:103C70008F047091900480919104909192040E941D
:103C8000460885E294E00E94F3078EE296E00E94E7
:103C900072056091870470918804809189049091E5
:103CA0008A040E94460885E294E00E94F3078BE1B3
:103CB00096E00E94720560918B0470918C04809153
:103CC0008D0490918E040E94460885E294E00E9443
:103CD000F3078BE096E00E94720560917B0470917F
:103CE0007C0480917D0490917E040E94460885E2C8
:103CF00094E00E94F3078AEF95E00E9472056091BC
:103D00007F047091800480918104909182040E94CC
:103D1000460885E294E00E94F30784EE95E00E9455
:103D2000720580917205909173050E94160885E2D4
:103D300094E00E94F3078DEC95E00E94720580915B
:103D40007005909171050E94160885E294E00E942A
:103D5000F3078CEB95E00E947205809136019091FB
:103D600037010E94160885E294E00E94F30788EA72
:103D700095E00E94720580910401882309F4DAC25B
:103D80008BE791E00E94F30789E294E00E94FA0732
:103D9000E0E0F0E0EF2B11F40C9498140E94EF0493
:103DA000882311F40C9498140E9400000C94981429
:103DB00060E174E0C7010E948229892B91F41E8280
:103DC0001D8226E030E03A832983BE016F5F7F4F7A
:103DD000CE0105960E94E30BF0E0E0E009950C941B
:103DE000DF1467E174E0C7010E948229009711F493
:103DF000FC01F4CF60E672E0C7010E948229892BA2
:103E000031F4F1E0F093040185E795E0FAC96EE042
:103E100074E0C7010E948229892BA9F41092040141
:103E200060915301709154018DE695E00E94AD05BB
:103E300060915101709152018AE695E00E94AD05B2
:103E40008FE595E0DEC96EE174E0C7010E9482292A
:103E5000892BF1F40E9407226B017C010E9407224A
:103E60004B015C01C701B60120E031E040E050E0C9
:103E70000E949A27162FC501B4012CEC31E040E0D6
:103E800050E00E949A27CB01612F0E948C27C6C95F
:103E900061E274E0C7010E948229892B99F40E9493
:103EA000072226E930E040E050E00E949A27062FE2
:103EB00010E068E3C8010E948C2768E3C8018A56B5
:103EC0009F4FE3CF87E495E09CC9082F880F110B23
:103ED000C8010E946529892B51F483ED8F0D823032
:103EE00030F02AE3F21619F03FE5F31299C9C80140
:103EF0000E947A2990917204292F30E0F901E05C48
:103F0000FB4F8083203331050CF08AC99F5F90936B
:103F1000720486C90E942E04609373047093740423
:103F200080937504909376041E861F86188A198ADA
:103F3000A1C9C12CD12C76019ACA80E090E0A0E8FA
:103F4000BFE38093320190933301A0933401B09387
:103F5000350195CAB201C3010E94C3269B01AC0181
:103F600060E070E0CB010E94342814CB212C312C6E
:103F700000E010E011CB1201830125CBBA85BA8B8A
:103F8000EB85EC8BFC85F88F2D85298FB4CB20E059
:103F900030E0A901C701B6010E94492918160CF0AA
:103FA00049C02E8D3F8D48A159A16A897C89888D91
:103FB000998D0E94C32690582E853F85488959893E
:103FC0000E94C3264B015C019B01AC01612F702F45
:103FD000832D922D0E945D2687FD18C0A3019201BA
:103FE0006E857F85888999890E94C3264B015C0173
:103FF0009B01AC01612F702F832D922D0E944929C6
:10400000181624F0812E902EA32CB22C9401A50119
:10401000C701B6010E9435282B011C0120E030E0C9
:10402000A9010E945D2687FF00CC412C512C212C38
:10403000312CFBCBC501B40190582E853F854889B2
:1040400059890E94C3264B015C019B01AC01612F81
:10405000702F832D922D0E945D2687FD20C02A8D12
:104060003B8D4C8D5D8D6A897C89888D998D0E94F0
:10407000C3262E853F85488959890E94C3264B0156
:104080005C019B01AC01612F702F832D922D0E944A
:104090004929181624F0812E902EA32CB22C9401BD
:1040A000A501C701B6010E9435282B011C0120E0A3
:1040B00030E0A9010E94492918160CF4B6CFB5CBFF
:1040C000A50194016A897C89888D998D0E94C326F7
:1040D0004B015C0120E030E0A9016A8D7B8D8C8D65
:1040E0009D8D0E94492918160CF03FC0C501B401EE
:1040F00090582E853F85488959890E94C3264B01D7
:104100005C01272D302F412F562D0E94492918166A
:10411000B4F0A70196016E857F85888999890E94F0
:10412000C3264B015C01272D302F412F562D0E94B5
:104130005D2687FD04C0872C902EA12EB62C9401FD
:10414000A5016A8D7B8D8C8D9D8D0E9435285B012C
:104150008C0120E030E0A9010E945D2687FF05CC9C
:10416000A12CB12C00E010E000CCC701B6019058A2
:104170002E853F85488959890E94C3266B017C01A1
:10418000272D302F412F562D0E9449291816B4F0A3
:10419000A50194016E857F85888999890E94C3262F
:1041A0006B017C01272D302F412F562D0E945D265B
:1041B00087FD04C0C72CD02EE12EF62C9601A70156
:1041C0006A8D7B8D8C8D9D8D0E9435285B018C01C5
:1041D00020E030E0A9010E94492918160CF4C0CF54
:1041E000C4CB26011701EFCB20E030E0A901C501C7
:1041F000B4010E94492918160CF5B701600F711F10
:10420000072E000C880B990B0E9464266B017C0121
:10421000B101600F711F072E000C880B990B0E94D3
:104220006426A70196010E943428A50194010E94EA
:10423000C326A70196010E94352837CCB8016E1914
:104240007F09072E000C880B990B0E9464266B01D6
:104250007C01B80162197309072E000C880B990BB9
:104260000E946426A70196010E943428A5019401AA
:104270000E94C3269B01AC01C701B6010E943428ED
:1042800014CC20E030E0A901C501B4010E94492905
:1042900018163CF56A897B89EA85FB856E0F7F1FBE
:1042A000072E000C880B990B0E9464262B013C0101
:1042B0006E857F852A853B85620F731F072E000C54
:1042C000880B990B0E946426A30192010E94342856
:1042D000A50194010E94C326A30192010E943528E2
:1042E00016CC6A857B858A899B89681B790B072E8A
:1042F000000C880B990B0E9464262B013C016A85F7
:104300007B85AE85BF856A1B7B0B072E000C880B57
:10431000990B0E946426A30192010E943428A501F2
:1043200094010E94C3269B01AC01C301B2010E940B
:104330003428EDCB80E891E025CDEF920F931F93C9
:10434000CF93DF93E80134E047FD34E1042E000C05
:10435000550B57FF03C0519541955109E32E022F8C
:10436000242FAE010E94B522CE01DF91CF911F9183
:104370000F91EF9008958F929F92AF92BF92CF923C
:10438000DF92EF92FF92CF93DF93EC016881798106
:104390008A819B81611571058105910521F464E293
:1043A00079ED8BE597E02DE133EF41E050E00E949D
:1043B0009A2749015A019B01AC01A7EAB1E40E9486
:1043C000B9276B017C01ACEEB4EFA50194010E940A
:1043D000C727C60ED71EE81EF91EF7FE06C081E0ED
:1043E000C81AD108E10880E8F80AC882D982EA82AE
:1043F000FB82C701B6019F77DF91CF91FF90EF90CD
:10440000DF90CF90BF90AF909F908F9008958F9244
:104410009F92AF92BF92CF92DF92EF92FF92609104
:104420005501709156018091570190915801611585
:1044300071058105910521F464E279ED8BE597E042
:104440002DE133EF41E050E00E949A2749015A01E3
:104450009B01AC01A7EAB1E40E94B9276B017C0182
:10446000ACEEB4EFA50194010E94C727C60ED71E7B
:10447000E81EF91EF7FE06C081E0C81AD108E1085F
:1044800080E8F80AC0925501D0925601E092570197
:10449000F0925801C701B6019F77FF90EF90DF902F
:1044A000CF90BF90AF909F908F90089560935501EB
:1044B0007093560180935701909358010895662791
:1044C00077270C941424FC0188279927E8942191DC
:1044D0002032E9F3293010F02E30C8F32B3241F0AE
:1044E0002D3239F4689404C00E94AD22820F911DD0
:1044F000219120532A30C0F31EF4909581959F4F4F
:10450000089544E755E00E9486220895FA01A1919A
:10451000B081009719F41097E1F0CD01DC01CD01D5
:104520000D90002011F4C00113C0FB012191222342
:1045300019F02015D9F7F3CFFB012191201519F4BB
:104540001E92119606C02223C1F70D900020A1F7FC
:10455000D001FA01A193B08308957AE0979F902D3E
:10456000879F802D910D11240895A9E0B0E0EBEB19
:10457000F2E20C94D2276A01F22EB02E102FFBE348
:10458000AF2EA01608F41BE31F5F012F27E0AE013A
:104590004F5F5F4F0E946425BC018981982F9970FD
:1045A000913009F43FC09BE2E1FC04C09E2D917064
:1045B000E0FC3AC05E2D5071E82FE87083FF46C0E2
:1045C00084E0911101C083E0EF2DE81B8F1508F006
:1045D000E0E0D6018E2F20E2552351F1992329F0F6
:1045E000D6019C93C60101966C0196012D5F3F4F49
:1045F000E2FE24C08EE4D6018C9391E411969C9344
:10460000119712968C93D9018E2F90E281111BC0C5
:10461000E20FF32FF11D10828EEF9FEF2996ECE051
:104620000C94EE279DE2C6CF90E2C4CF2D9381502B
:104630008111FCCFCE0ED11CE0E0D0CF8EE6D601AA
:104640008C9391E6DBCF9D938150E0CF482F44704F
:1046500082FF3DC084E0911101C083E08F1510F40A
:10466000EF2DE81BD6018E2F20E2552309F1992367
:1046700029F0D6019C93C60101966C0196012D5F2D
:104680003F4FE2FE1BC089E4D6018C938EE4119665
:104690008C93119786E412968C93D9018E2F90E219
:1046A000882309F4B5CF9D938150FACF2D93815083
:1046B0008111FCCFCE0ED11CE0E0D9CF89E6D60126
:1046C0008C938EE611968C93119786E6E4CF9B012E
:1046D00077FF02C030E020E0A1E0B0E0911102C01D
:1046E000B0E0A0E0F9013196AE0FBF1F8B2C912CEA
:1046F000BB2009F461C05401EFEFAE1ABE0AAA0D47
:10470000BB1DFA161B0619F014F04F2D4A1B511150
:1047100088C0E3FC59C07601A42FB0E2A1114FC0BC
:10472000C40ED11C992309F45BC040E0D601119658
:10473000F60190836D01552309F448C0012F060F3F
:104740009A81582F507184FF03C0913309F40150AE
:1047500010160CF047C0093008F008E0EEE2FE2E1B
:104760005B01A01AB10885019194819491082F3FB3
:10477000320729F4D601FC92F60131966F016217D7
:10478000730794F1021713077CF5DB01A21BB30B2F
:10479000AA24A394B12CAC0EBD1EAA0DBB1D11966C
:1047A0008C9121503109D601119628153905F4F064
:1047B000F60180836D01DBCFB12CA12CA0CFF701D6
:1047C000B1937F01A150AACF9111B0CFD601942F00
:1047D00050E302C05D9391509111FCCFC40ED11CE7
:1047E00040E0ACCF01E0BACF80E3DBCF62177307C4
:1047F00031F4963388F4953311F4552369F0F601BA
:104800008083FD01842F90E2811108C0A40FB11DA7
:104810001C9290E080E002CF81E3F1CF9193815030
:10482000F3CF911183CF8ACFB0E0A0E0EAE1F4E2C8
:104830000C94D2275C017B016115710519F0DB0135
:104840008D939C9385010F5F1F4FF501D0818D2FB4
:1048500090E00E943C266C01892BB9F5DD32B9F558
:104860000F5F1F4FD5011196DC91C1E05801F1E0B7
:10487000AF1AB10843E050E060E770E0C5010E9464
:104880004526892B69F5680182E0C80ED11C45E0F8
:1048900050E06BE670E0C6010E944526892B21F4AA
:1048A000680197E0C90ED11CE114F10419F0D70199
:1048B000CD92DC9260E070E080E89FEFC111FFC014
:1048C00060E070E080E89FE7FAC05801BBCFDB32C0
:1048D00029F485010E5F1F4FF501D181C0E0C6CFDD
:1048E00043E050E068E670E0C5010E944526892B50
:1048F000E9F0F80110E000E020E030E0A9015F01FC
:10490000B0ED8B2E8D0E89E08815C8F19C2E689431
:1049100091F88C2F8870C2FF16C0811102C00F5F02
:104920001F4F3196D501DC91C92DE9CFE114F10477
:1049300029F00E5F1F4FF7011183008360E070E0E4
:1049400080EC9FE7BCC0882311F001501109A5E05D
:10495000B0E00E94B9279B01AC01220F331F441F16
:10496000551F280D311D411D511D283999E9390761
:10497000490799E15907A8F2C6609C2ED2CFAEEF45
:104980008A1206C0C3FD3CC09C2E689493F8C9CF20
:10499000DF7DD534A9F580818D3239F4C061DF0126
:1049A0001296818162E070E006C0DF018B32C1F3B4
:1049B000119661E070E080535D01A61AB70A8A3053
:1049C000F8F4E0E8CE16ECE0DE065CF4B601660F23
:1049D000771F660F771FC60ED71ECC0CDD1CC80EC6
:1049E000D11C5D01FFEFAF1ABF0A8C9180538A3052
:1049F000A8F1C4FF03C0D194C194D1080C0D1D1DB2
:104A0000C1FF09C0E114F10431F081E0A81AB10836
:104A1000D701AD92BC92CA01B9010E946226C3704F
:104A2000C33009F490584B015C0120E030E0A9014B
:104A30000E945D26882309F440C0CFE9D0E017FF2B
:104A400005C0119501951109C7E8D0E06E01B8E1E4
:104A5000CB1AD10880E2E82EF12C0FC0D501B1CFDE
:104A6000FE0125913591459154910E191F09C501FB
:104A7000B4010E94C3264B015C01D501C4010E158F
:104A80001F0574F72497F594E794CC16DD06A9F773
:104A90008A2F880F8B2F881F8F3F49F020E030E04E
:104AA000A901C501B4010E945D26811106C082E200
:104AB00090E09093770580937605C501B401CDB75A
:104AC000DEB7ECE00C94EE27283008F027E033271F
:104AD000DA01990F311D87FD91600096610571051E
:104AE00039F432602E5F3D9330E32A95E1F7089563
:104AF0009F3F30F080387105610509F03C5F3C5FF5
:104B00003D93913008F08068911DDF93CF931F9300
:104B10000F93FF92EF92192F987F9695E92F969514
:104B20009695E90FFF27E350FF4F99273327EE248F
:104B3000FF24A701E70105900894079428F4360F95
:104B4000E71EF81E491F511D660F771F881F991F0A
:104B50000694A1F70590079428F4E70EF81E491F64
:104B6000561FC11D770F881F991F661F0694A1F756
:104B70000590079428F4F80E491F561FC71FD11D32
:104B8000880F991F661F771F0694A1F70590079459
:104B900020F4490F561FC71FD81F990F661F771F94
:104BA000881F0694A9F784911095177041F0D69547
:104BB000C79557954795F794E7941A95C1F7E3EA97
:104BC000F0E0689415901591359165919591059057
:104BD0007FE27395E118F10A430B560BC90BD0091C
:104BE000C0F7E10CF11E431F561FC91FD01D7EF4F4
:104BF000703311F48A95E6CFE894015030F0080F35
:104C00000AF40027021708F4202F2395022F7A3385
:104C100028F079E37D932A95E9F710C07D932A95D2
:104C200089F6069497956795379517951794E11827
:104C3000F10A430B560BC90BD00998F023957E91CE
:104C400073957A3308F070E37C932013B8F77E9164
:104C500070617D9330F0839571E37D9370E32A95C5
:104C6000E1F71124EF90FF900F911F91CF91DF9109
:104C7000992787FD9095089591110C9430278032E3
:104C800019F089508550C8F70895FB01DC014150A7
:104C9000504088F08D9181341CF08B350CF4805E8F
:104CA000659161341CF06B350CF4605E861B6111FC
:104CB00071F3990B0895881BFCCF0E949F2608F47E
:104CC00081E00895E89409C097FB3EF490958095A3
:104CD000709561957F4F8F4F9F4F9923A9F0F92FC2
:104CE00096E9BB279395F695879577956795B79540
:104CF000F111F8CFFAF4BB0F11F460FF1BC06F5F26
:104D00007F4F8F4F9F4F16C0882311F096E911C037
:104D1000772321F09EE8872F762F05C0662371F058
:104D200096E8862F70E060E02AF09A95660F771F6C
:104D3000881FDAF7880F9695879597F90895990F48
:104D40000008550FAA0BE0E8FEEF16161706E80755
:104D5000F907C0F012161306E407F50798F0621B76
:104D6000730B840B950B39F40A2661F0232B242B4B
:104D7000252B21F408950A2609F4A140A6958FEF6A
:104D8000811D811D08950E94D6260C944A270E94F9
:104D90003C2738F00E94432720F0952311F00C9413
:104DA00033270C94392711240C947E270E945B270B
:104DB00070F3959FC1F3950F50E0551F629FF0016E
:104DC000729FBB27F00DB11D639FAA27F00DB11D87
:104DD000AA1F649F6627B00DA11D661F829F222710
:104DE000B00DA11D621F739FB00DA11D621F839F97
:104DF000A00D611D221F749F3327A00D611D231F6D
:104E0000849F600D211D822F762F6A2F11249F57BA
:104E100050409AF0F1F088234AF0EE0FFF1FBB1FBD
:104E2000661F771F881F91505040A9F79E3F51057C
:104E300080F00C9433270C947E275F3FE4F3983E78
:104E4000D4F3869577956795B795F795E7959F5F26
:104E5000C1F7FE2B880F911D9695879597F90895B8
:104E600099278827089597F99F6780E870E060E0A8
:104E700008959FEF80EC089500240A9416161706F3
:104E800018060906089500240A941216130614063B
:104E900005060895092E0394000C11F4882352F09E
:104EA000BB0F40F4BF2B11F460FF04C06F5F7F4F56
:104EB0008F4F9F4F089557FD9058440F551F59F03D
:104EC0005F3F71F04795880F97FB991F61F09F3FF7
:104ED00079F087950895121613061406551FF2CF20
:104EE0004695F1DF08C0161617061806991FF1CF70
:104EF00086957105610508940895E894BB27662797
:104F00007727CB0197F90895F999FECF92BD81BD1E
:104F1000F89A992780B50895262FF999FECF1FBAE0
:104F200092BD81BD20BD0FB6F894FA9AF99A0FBED2
:104F300001960895052E97FB1EF400940E94B12758
:104F400057FD07D00E94032807FC03D04EF40C94B1
:104F5000B12750954095309521953F4F4F4F5F4F6A
:104F6000089590958095709561957F4F8F4F9F4FD5
:104F700008950E942528A59F900DB49F900DA49F91
:104F8000800D911D11240895B7FF0C94B9270E943C
:104F9000B927821B930B08952F923F924F925F92F5
:104FA0006F927F928F929F92AF92BF92CF92DF9239
:104FB000EF92FF920F931F93CF93DF93CDB7DEB79E
:104FC000CA1BDB0B0FB6F894DEBF0FBECDBF099432
:104FD0002A88398848885F846E847D848C849B8489
:104FE000AA84B984C884DF80EE80FD800C811B8197
:104FF000AA81B981CE0FD11D0FB6F894DEBF0FBEC6
:10500000CDBFED010895A1E21A2EAA1BBB1BFD0125
:105010000DC0AA1FBB1FEE1FFF1FA217B307E40797
:10502000F50720F0A21BB30BE40BF50B661F771FEF
:10503000881F991F1A9469F76095709580959095CF
:105040009B01AC01BD01CF010895A29FB001B39FA8
:10505000C001A39F700D811D1124911DB29F700D81
:10506000811D1124911D08955058BB27AA270E9425
:105070004C280C944A270E943C2738F00E94432772
:1050800020F039F49F3F19F426F40C9439270EF4DC
:10509000E095E7FB0C943327E92F0E945B2758F338
:1050A000BA17620773078407950720F079F4A6F50D
:1050B0000C947D270EF4E0950B2EBA2FA02D0B013A
:1050C000B90190010C01CA01A0011124FF27591B4D
:1050D00099F0593F50F4503E68F11A16F040A22F53
:1050E000232F342F4427585FF3CF469537952795C4
:1050F000A795F0405395C9F77EF41F16BA0B620BC3
:10510000730B840BBAF09150A1F0FF0FBB1F661F09
:10511000771F881FC2F70EC0BA0F621F731F841F4C
:1051200048F4879577956795B795F7959E3F08F072
:10513000B0CF9395880F08F09927EE0F9795879534
:1051400008950E94B5280C944A270E94432758F0DE
:105150000E943C2740F029F45F3F29F00C9433274C
:1051600051110C947E270C9439270E945B2768F319
:105170009923B1F3552391F3951B550BBB27AA2710
:1051800062177307840738F09F5F5F4F220F331F4A
:10519000441FAA1FA9F335D00E2E3AF0E0E832D012
:1051A00091505040E695001CCAF72BD0FE2F29D015
:1051B000660F771F881FBB1F261737074807AB07E7
:1051C000B0E809F0BB0B802DBF01FF2793585F4F5C
:1051D0003AF09E3F510578F00C9433270C947E27CB
:1051E0005F3FE4F3983ED4F3869577956795B7953E
:1051F000F7959F5FC9F7880F911D9695879597F949
:105200000895E1E0660F771F881FBB1F62177307C1
:105210008407BA0720F0621B730B840BBA0BEE1FD6
:1052200088F7E09508950E941A296894B1110C94AA
:105230007E2708950E94632788F09F5798F0B92F22
:105240009927B751B0F0E1F0660F771F881F991FBB
:105250001AF0BA95C9F714C0B13091F00E947D27B9
:10526000B1E008950C947D27672F782F8827B85FC9
:1052700039F0B93FCCF3869577956795B395D9F713
:105280003EF490958095709561957F4F8F4F9F4F1D
:1052900008950E949F2608F48FEF08950E949F268C
:1052A000880B990B0895991B79E004C0991F9617F4
:1052B00008F0961B881F7A95C9F780950895EE0F20
:1052C000FF1F0590F491E02D099491110C94302763
:1052D00080538A5018F0865C0C947229089585FDDD
:1052E0000C943027806291110C94302781568A519A
:1052F000D8F708959111089581568A5108F4805283
:1053000085580895FB01DC018D91019080190110F1
:10531000D9F3990B0895FB01DC0101900D92002057
:10532000E1F70895AEE0B0E0E8E9F9E20C94DA279D
:105330000D891E8986E08C831A8309838FEF9FE78E
:105340009E838D83AE01475E5F4F6F89788DCE015E
:1053500001960E94B5292F813885020F131FF8018D
:1053600010822E96E4E00C94F627ABE0B0E0EBEB75
:10537000F9E20C94CC277C013B018A01FC011782E5
:105380001682838181FFC8C1CE0101965C01F701BD
:105390009381F30193FD859193FF81913F018823D0
:1053A00009F453C1853239F493FD859193FF8191BE
:1053B0003F01853229F4B70190E00E94A52BE7CF89
:1053C000912C212C312CFFE1F31538F08B3211F1A7
:1053D00090F4803209F1833229F137FC3CC020ED92
:1053E000280F2A3050F536FE20C08AE0989E200D06
:1053F0001124922E06C08D3291F0803371F768949B
:1054000030F8F30193FD859193FF81913F01811164
:10541000DACF21C0689431F8689432F8F2CF6894FA
:1054200033F8EFCF689434F8ECCFEAE02E9E200DED
:105430001124222E689435F8E4CF8E3229F436FCFC
:1054400004C1689436F8DDCF8C3619F4689437F8C7
:10545000D8CF8836B1F2982F9F7D95549330E0F0E5
:105460008336A1F18337C1F1833509F063C0280188
:10547000F2E04F0E511CF801C080D180692D70E020
:1054800036FC02C06FEF7FEFC6010E948F2B4C01EC
:10549000689437F882010AC00C5F1F4FFFE3F9835D
:1054A00088248394912C6501E89437F833FE2DC04D
:1054B000522C8114910471F5552009F468CFB7017D
:1054C00080E290E00E94A52B5A94F6CFF8018081EB
:1054D00089830E5F1F4FE4CF2801F2E04F0E511C6D
:1054E000F801C080D180692D70E036FC02C06FEFFA
:1054F0007FEFC6010E949A2B4C018201D5CFB701E4
:1055000080E290E00E94A52B2A942814190409F047
:10551000B0F7CECFF60137FC859137FE81916F0150
:10552000B70190E00E94A52B51105A94F1E08F1A18
:105530009108BFCF843619F0893609F077C0F80199
:1055400037FE6BC060817181828193810C5F1F4F38
:10555000F32DFF763F2E97FF09C0909580957095AB
:1055600061957F4F8F4F9F4F689437F82AE030E066
:10557000A5010E94D52BC82ECA188C2C432C36FEB0
:105580000CC0E89440F8C91440F434FE05C032FC65
:1055900003C0F32DFE7E4F2E892C44FE95C0FE01E4
:1055A000EC0DF11D8081803309F087C0242D297E08
:1055B000422E842D8870582E43FC95C040FE8FC02B
:1055C0009C2C821418F42C0C922C981844FE91C038
:1055D000B70180E390E00E94A52B42FE09C088E756
:1055E00090E041FE02C088E590E0B7010E94A52B43
:1055F000C91408F48AC0CA94D12C9FEFC91AD90AD9
:10560000CA0CDB1CF60182916F01B70190E00E9489
:10561000A52BAC14BD04B1F74FCF60817181072E6B
:10562000000C880B990B0E5F1F4F92CFD32CE89480
:10563000D4F82AE030E0853739F1232D297FD22EA6
:105640008F3601F148F48835A9F0F70186819781FA
:105650002B96E2E10C94E827803749F08837A9F7C8
:10566000D4FE02C06894D2F820E130E00DC0689406
:10567000D4F8F6CF34FE03C0822F8660D82E20E106
:1056800032E002C028E030E0F801D7FE0FC06081B0
:105690007181828193810C5F1F4FA5010E94D52BE0
:1056A000C82ECA183D2CE89437F867CF6081718105
:1056B00090E080E00E5F1F4FF0CF42FC02C0839469
:1056C00078CF8394839475CF842D867809F471CF35
:1056D000F6CFB70180E290E00E94A52B839482145C
:1056E000C0F3512C73CF522C5818821408F46ECF8B
:1056F000F8CF842D867809F47BCF8BE241FE80E2DF
:1057000047FC8DE2B70190E071CFB70180E390E0F4
:105710000E94A52B9A946CCF8FEF9FEF99CFFC013D
:105720000590615070400110D8F7809590958E0FCC
:105730009F1F0895FC016150704001900110D8F73F
:10574000809590958E0F9F1F08950F931F93CF9371
:10575000DF93182F092FEB018B8181FD09C01FEF0B
:105760000FEF812F902FDF91CF911F910F9108950F
:1057700082FF14C02E813F818C819D8128173907BB
:105780003CF4E881F981CF010196998388831083E5
:105790008E819F8101969F838E83E3CFE885F98573
:1057A000812F0995892BA1F3DACFFA01AA27283096
:1057B00051F1203181F1E8946F936E7F6E5F7F4FDE
:1057C0008F4F9F4FAF4FB1E03ED0B4E03CD0670F5A
:1057D000781F891F9A1FA11D680F791F8A1F911DAD
:1057E000A11D6A0F711D811D911DA11D20D009F4FD
:1057F00068943F912AE0269F11243019305D31933F
:10580000DEF6CF010895462F4770405D4193B3E027
:105810000FD0C9F7F6CF462F4F70405D4A3318F0CE
:10582000495D31FD4052419302D0A9F7EACFB4E07F
:10583000A6959795879577956795BA95C9F7009737
:105840006105710508959B01AC010A2E06945795D8
:10585000479537952795BA95C9F7620F731F841F2F
:0A586000951FA01D0895F894FFCFD6
:10586A0005036400011900F4011900F40100008025
:10587A003F0000004001000000400000C03F00005F
:10588A00003F000020403333333F9A99193F00000C
:10589A00003F0000803FFFFF1224040000003F7C0D
:1058AA0001FF017E020A008101FD0178020A000E51
:1058BA0010DC05DC050100000005000000002505DC
:1058CA008504B2048D05E304C104D5040D0A006EF3
:1058DA00616E00696E66006F7666007472756500A7
:1058EA0066616C7365003A2C00434F4E54524F4C1C
:1058FA005F524947485400256400434F4E54524F63
:10590A004C5F43454E5445525F5800434F4E5452E4
:10591A004F4C5F4C45465400585F444541445A4FEA
:10592A004E4500434F4E54524F4C5F555000434F23
:10593A004E54524F4C5F43454E5445525F590043B3
:10594A004F4E54524F4C5F444F574E00595F444597
:10595A0041445A4F4E4500414343454C45524154F8
:10596A00494F4E5F464F52574152440044454345C2
:10597A004C45524154494F4E5F464F52574152444B
:10598A0000414343454C45524154494F4E5F4241C1
:10599A00434B5741524400444543454C45524154B8
:1059AA00494F4E5F4241434B5741524400414343A2
:1059BA00454C45524154494F4E5F5455524E494EFB
:1059CA004700444543454C45524154494F4E5F5464
:1059DA0055524E494E4700464153544553545F462B
:1059EA004F525741524400464153544553545F4223
:1059FA0041434B57415244005455524E5F53504510
:105A0A004544005343414C455F5455524E494E4715
:105A1A005F5748454E5F4D4F56494E4700534341E5
:105A2A004C455F414343454C5F574954485F535087
:105A3A0045454400524556455253455F5455524ECA
:105A4A005F494E5F52455645525345004C454654B0
:105A5A005F4D4F544F525F43454E544552004C459B
:105A6A0046545F4D4F544F525F534C4F57004C456D
:105A7A0046545F4D4F544F525F464153540052496A
:105A8A004748545F4D4F544F525F43454E54455219
:105A9A000052494748545F4D4F544F525F534C4F41
:105AAA00570052494748545F4D4F544F525F464141
:105ABA005354005553455F53504545445F4B4E4F31
:105ACA00420053504545445F4B4E4F425F534C4F43
