:100000000C9413040C943B040C943B040C94FE1CC1
:100010000C949E1C0C94301C0C941A1E0C943B04E3
:100020000C943B040C943B040C943B040C945E1D18
:100030000C943B040C943B040C943B040C943B0444
:100040000C948E1B0C943B040C94FE1B0C94D81B3C
:100050000C943B040C943B040C943B040C943B0424
:100060000C943B040C943B044E414E494E49545968
:10007000494E46CDCCCC3D0AD7233C17B7D1387773
:10008000CC2B329595E6241FB14F0A000020410089
:1000900000C84200401C4620BCBE4CCA1B0E5AAED3
:1000A000C59D7400407A10F35A00A0724E180900E2
:1000B00010A5D4E80000E87648170000E40B5402CD
:1000C0000000CA9A3B000000E1F505000080969808
:1000D00000000040420F000000A086010000001058
:1000E0002700000000E8030000000064000000009A
:1000F000000A00000000000100000000002C76D87B
:1001000088DC674F0823DFC1DFAE59E1B1B796E560
:10011000E3E453C63AE651997696E8E6C28426EBC4
:10012000898C9B62ED407C6FFCEFBC9C9F40F2BAD7
:10013000A56FA5F490055A2AF75C936B6CF9676D6F
:10014000C11BFCE0E40D47FEF520E6B500D0ED90C4
:100150002E0300943577050080841E080000204E91
:100160000A000000C80C333333330F986E1283112A
:1001700041EF8D2114893BE65516CFFEE6DB18D101
:10018000844B381BF77C1D901DA4BBE424203284D3
:10019000725E228100C9F124ECA1E53D272243488B
:1001A00045434B53554D223A005D2C002C002C004A
:1001B000223A5B002244524956455F425554544FFF
:1001C0004E5F004A4F595F43414C49425F434F5590
:1001D0004E540052494748545F4D4F544F525F5060
:1001E000554C5345004C4546545F4D4F544F525F5C
:1001F00050554C53450053504545445F4B4E4F427C
:100200005F464153545F56414C0053504545445F4F
:100210004B4E4F425F534C4F575F56414C00524933
:100220004748545F4D4F544F525F4641535400521C
:10023000494748545F4D4F544F525F534C4F5700FE
:1002400052494748545F4D4F544F525F43454E54B7
:100250004552004C4546545F4D4F544F525F464106
:100260005354004C4546545F4D4F544F525F534CCE
:100270004F57004C4546545F4D4F544F525F4345D6
:100280004E54455200595F444541445A4F4E450033
:10029000434F4E54524F4C5F444F574E00434F4EC6
:1002A00054524F4C5F43454E5445525F5900434FA3
:1002B0004E54524F4C5F555000585F444541445A8C
:1002C0004F4E4500434F4E54524F4C5F4C454654A1
:1002D00000434F4E54524F4C5F43454E5445525F7E
:1002E0005800434F4E54524F4C5F524947485400B8
:1002F00063757272656E742073657474696E67736A
:100300002C2076657273696F6E3A007B00000000E6
:10031000006410B71DC8206E3BAC30D9269041DC7C
:1003200076F4516B6B5861B24D3C7105502083B827
:10033000ED44930FF0E8A3D6D68CB361CBB0C26482
:100340009BD4D2D38678E20AA01CF2BDBD2276618E
:100350006C7565223A2022002273657474696E6799
:10036000223A2022007B22726573756C74223A2037
:10037000226368616E676522007B22726573756C0B
:1003800074223A20226E6F206368616E6765227D59
:10039000007B22726573756C74223A202273746F2D
:1003A00070706564227D007B22726573756C7422A7
:1003B0003A20226D6F76656D656E7420616C6C6F8E
:1003C000776564227D007B22726573756C74223AB6
:1003D00020227361766564227D00424148004642D6
:1003E000004E4200554F42004E53550053504800B6
:1003F000535000555353004E525300525050005228
:100400004350005253500052545000555200535420
:10041000454552494E475F4F46465F5357495443FF
:10042000485F50494E005354454552494E475F4F2F
:1004300046465F535749544348002276616C7565C0
:10044000223A5B002273657474696E67223A202237
:10045000007B22726573756C74223A202263686196
:100460006E676522004E554D5F44524956455F42C6
:100470005554544F4E530042534148004255545432
:100480004F4E5F4D4F44455F50494E00424D540022
:100490005553455F425554544F4E5F4D4F44455F51
:1004A00050494E00454E41424C455F425554544FD1
:1004B0004E5F4354524C0053544152545F4D4F547D
:1004C0004F525F50554C53455F54494D4500454E82
:1004D00041424C455F535441525455505F50554C26
:1004E00053450052494748545F4D4F544F525F4364
:1004F0004F4E54524F4C4C45525F50494E004C4564
:1005000046545F4D4F544F525F434F4E54524F4CE1
:100510004C45525F50494E004A4F595F595F504910
:100520004E004A4F595F585F50494E005350454561
:10053000445F4B4E4F425F50494E005343414C4540
:100540005F414343454C5F574954485F53504545CD
:1005500044005553455F53504545445F4B4E4F4211
:1005600000524556455253455F5455524E5F494ED1
:100570005F52455645525345005343414C455F54E5
:1005800055524E494E475F5748454E5F4D4F56496D
:100590004E47005455524E5F535045454400464126
:1005A00053544553545F4241434B574152440046D4
:1005B0004153544553545F464F52574152440044AF
:1005C0004543454C45524154494F4E5F5455524E58
:1005D000494E4700414343454C45524154494F4ED3
:1005E0005F5455524E494E4700444543454C455291
:1005F0004154494F4E5F4241434B574152440041A1
:100600004343454C45524154494F4E5F4241434B51
:100610005741524400444543454C45524154494F8B
:100620004E5F464F525741524400414343454C456B
:10063000524154494F4E5F464F525741524400E297
:1006400002D102C402B902AE029D02900285022AC2
:10065000061506FF05E905D405BF05AF059E059300
:10066000057905610573026302530240022F021EE1
:100670000252050A02F6013B052C0522051805FE6B
:1006800004E304CE04E501D301B704C301A404903C
:10069000048C047C047704650426040E04F303F040
:1006A00003EC03E803E403E103DE03DA030B0403D2
:1006B000040704FB03FF03F7037B226572726F726A
:1006C000223A2022656570726F6D206661696C75D3
:1006D0007265227D007B226572726F72223A20223F
:1006E000656570726F6D206661696C757265227DDB
:1006F000002C22434845434B53554D223A00226279
:100700005F6D5F70223A00627574746F6E73006A79
:100710006F794F4B006D6F76656D656E74416C6CD3
:100720006F7765640073706565644B6E6F625661C8
:100730006C0072696768744D6F746F725772697478
:100740006556616C006C6566744D6F746F7257729C
:1007500069746556616C007370656564546F4472AA
:10076000697665007475726E546F447269766500BF
:10077000737065656450726F63657373656400744C
:1007800075726E50726F6365737365640073706524
:100790006564496E707574007475726E496E70751B
:1007A00074006A6F795956616C006A6F79585661A6
:1007B0006C0063757272656E742076616C7565731A
:1007C0002C206D696C6C69733A00000000002400F5
:1007D00027002A0000000000250028002B00000050
:1007E0000000230026002900040404040404040477
:1007F00002020202020203030303030301020408CC
:10080000102040800102040810200102040810207A
:1008100000000008000201000003040700000000BF
:1008200000000000371F11241FBECFEFD8E0DEBF4D
:10083000CDBF12E0A0E0B1E0E6E1F4E702C0059030
:100840000D92A43BB107D9F724E0A4EBB2E001C0BC
:100850001D92A836B207E1F714E0C3E1D4E004C06A
:100860002197FE010E943537C231D107C9F70E9496
:10087000AE1F0C94093A0C940000833081F028F4E8
:10088000813099F08230A9F008958730A9F088303E
:10089000C9F08430B1F4809180008F7D03C08091D5
:1008A00080008F7780938000089584B58F7784BD12
:1008B000089584B58F7DFBCF8091B0008F778093B2
:1008C000B00008958091B0008F7DF9CFCF93DF9372
:1008D000282F30E0F901E05FF74F8491F901E450EF
:1008E000F84FD491F901E851F84FC491CC23A1F00D
:1008F00081110E943D04EC2FF0E0EE0FFF1FE25249
:10090000F84FA591B491EC91ED2381E090E009F4CA
:1009100080E0DF91CF91089580E090E0FACF1F93BF
:10092000CF93DF93282F30E0F901E05FF74F8491F8
:10093000F901E450F84FD491F901E851F84FC4910E
:10094000CC23A9F0162F81110E943D04EC2FF0E07A
:10095000EE0FFF1FEC52F84FA591B4918FB7F894AA
:10096000EC91111108C0D095DE23DC938FBFDF918D
:10097000CF911F910895DE2BF8CFCF93DF9390E0B6
:10098000FC01E450F84F24918851984FFC01849168
:100990008823C9F090E0880F991FFC01E653F84FB7
:1009A000A591B491FC01EC52F84FC591D49161111D
:1009B0000DC09FB7F8948C91209582238C938881E9
:1009C000282328839FBFDF91CF910895623051F48F
:1009D0009FB7F8943C91822F809583238C93E88174
:1009E0002E2BEFCF8FB7F894EC912E2B2C938FBF3B
:1009F000EACF8E3008F08E508770806480937C0040
:100A000080917A00806480937A0080917A0086FDDC
:100A1000FCCF809178009091790008953FB7F894C9
:100A20008091980390919903A0919A03B0919B03B0
:100A300026B5A89B05C02F3F19F00196A11DB11D39
:100A40003FBFBA2FA92F982F8827BC01CD01620F75
:100A5000711D811D911D42E0660F771F881F991F30
:100A60004A95D1F708958F929F92AF92BF92CF92FD
:100A7000DF92EF92FF926B017C010E940E054B0109
:100A80005C01C114D104E104F104B9F00E940E0527
:100A9000681979098A099B09683E734081059105A7
:100AA00080F321E0C21AD108E108F10888EE880E2F
:100AB00083E0981EA11CB11CE4CFFF90EF90DF9063
:100AC000CF90BF90AF909F908F9008952FB7F894DC
:100AD0006091940370919503809196039091970390
:100AE0002FBF0895AF92BF92CF92DF92EF92FF9205
:100AF0000F931F93CF93DF936C017B018B01040F46
:100B0000151FEB015E01AE18BF08C017D10759F0E1
:100B10006991D601ED91FC910190F081E02DC60123
:100B20000995892B79F7C501DF91CF911F910F911D
:100B3000FF90EF90DF90CF90BF90AF900895FC01B1
:100B4000538D448D252F30E0842F90E0821B930B32
:100B5000541710F0CF96089501970895FC01918DD8
:100B6000828D981761F0A28DAE0FBF2FB11D5D96DB
:100B70008C91928D9F5F9F73928F90E008958FEF7D
:100B80009FEF0895FC01918D828D981731F0828D31
:100B9000E80FF11D858D90E008958FEF9FEF089588
:100BA000FC01918D228D892F90E0805C9F4F821BEC
:100BB00091098F73992708958CE993E00E94D005DD
:100BC00021E0892B09F420E0822F089580E090E055
:100BD000892B29F00E94DC0581110C9400000895F6
:100BE000FC01A48DA80FB92FB11DA35ABF4F2C91A2
:100BF000848D90E001968F739927848FA689B78999
:100C00002C93A089B1898C91837080648C93938D8F
:100C1000848D981306C00288F389E02D80818F7D32
:100C200080830895EF92FF920F931F93CF93DF93EA
:100C3000EC0181E0888F9B8D8C8D98131AC0E88918
:100C4000F989808185FF15C09FB7F894EE89FF89E7
:100C50006083E889F98980818370806480839FBF85
:100C600081E090E0DF91CF911F910F91FF90EF9085
:100C70000895F62E0B8D10E00F5F1F4F0F73112795
:100C8000E02E8C8D8E110CC00FB607FCFACFE889D0
:100C9000F989808185FFF5CFCE010E94F005F1CF63
:100CA000EB8DEC0FFD2FF11DE35AFF4FF0829FB744
:100CB000F8940B8FEA89FB8980818062CFCF0F93F4
:100CC0001F93CF93DF938C01D0E0C0E0F801EC0FCD
:100CD000FD1F6491662341F08CE993E00E941206A7
:100CE000892B11F02196F2CFCE01DF91CF911F9188
:100CF0000F910895CF93DF93EC01888D8823B9F08D
:100D0000AA89BB89E889F9898C9185FD03C0808116
:100D100086FD0DC00FB607FCF7CF8C9185FFF2CF93
:100D2000808185FFEDCFCE010E94F005E9CFDF91F4
:100D3000CF9108950895DC01EC91EC3090F5119677
:100D40008C91119728E830E0281B310987FD3395F5
:100D5000220F331F220F331F6217730784F012967E
:100D60008C9128E532E0281B310987FD3395220F4D
:100D7000331F220F331F621773070CF49B0122509D
:100D80003109220F331F4FB7F8948E2F90E0FC01EA
:100D9000EE0FFF1FE80FF91FE75CFB4F3283218343
:100DA0004FBF08951F93CF93DF93EC01162F8881D7
:100DB0008C3008F04EC061E0812F0E94BD04888114
:100DC000282F30E0F901EE0FFF1FE20FF31FE75C61
:100DD000FB4F1F736081607C612B608319821A82D4
:100DE0002CE0622F0E942937829FB001112430E04D
:100DF00020E0AB01420F531FFA01EE0FFF1FE40F7B
:100E0000F51FE75CFB4F908196FD16C02F5F3F4FAB
:100E10002C30310571F781110FC01092800082E0F3
:100E2000809381001092850010928400B19A809185
:100E30006F00826080936F00E8818E2F90E0FC014C
:100E4000EE0FFF1FE80FF91FE75CFB4F8081806406
:100E500080838881DF91CF911F9108950F931F9315
:100E6000E42FE627EF7024E0E29FF0011124E35F16
:100E7000FC4F059115912591349154E096958795F5
:100E8000779567955A95D1F7602771278227932721
:100E9000E42FE295EF70E627EF7024E0E29FF00187
:100EA0001124E35FFC4F0591159125913491E4E005
:100EB0009695879577956795EA95D1F7602771277D
:100EC000822793271F910F9108950E945F0620911A
:100ED0004C0330914D03820F931F90934D038093E9
:100EE0004C0308952F923F924F925F926F927F92A0
:100EF0008F929F92AF92BF92CF92DF92EF92FF922A
:100F00000F931F93CF93DF93EC016A01790117FFD1
:100F100002C010E000E06E157F050CF019C116014B
:100F2000201A310AC215D3050CF093C0621573055F
:100F30000CF08FC0072E000C880B990B0E946134B7
:100F40004B015C01BE010D2E000C880B990B0E9419
:100F50006134A50194010E940A362B013C01B101C4
:100F6000330C880B990B0E946134A50194010E94F7
:100F70000A369B01AC01C301B2010E94773620E022
:100F800030E040E85FE30E940A364B015C010C0D43
:100F90001D1D0C171D079CF50E151F0584F5B701C7
:100FA000FF0C880B990B0E9461346B017C01BE0120
:100FB000DD0F880B990B0E946134A70196010E94F6
:100FC0000A364B015C01B7FAB094B7F8B094B80197
:100FD000110F880B990B0E946134A70196010E94A2
:100FE0000A369B01AC01C501B4010E94773620E0AE
:100FF00030E040E85FE30E940B364B015C0120E0EB
:1010000030E040E85FEBC501B4010E945A3487FD2F
:1010100091C020E030E040E85FE3C501B4010E94E8
:101020001F3718160CF48DC0C501B401DF91CF91A4
:101030001F910F91FF90EF90DF90CF90BF90AF90F6
:101040009F908F907F906F905F904F903F902F90E8
:101050000895812C912C54019ACF18012C0C3D1C21
:101060002C163D060CF062C0261637060CF05EC04A
:10107000072E000C880B990B0E9461344B015C0118
:10108000BE010D2E000C880B990B0E946134A50146
:1010900094010E940A362B013C01B101330C880BEC
:1010A000990B0E946134A50194010E940A369B01AC
:1010B000AC01C301B2010E94773620E030E040E885
:1010C0005FE30E940A364B015C01C01AD10ACC15BD
:1010D000DD050CF094CFEC14FD040CF090CFB701BB
:1010E000FF0C880B990B0E9461344B015C01BE011F
:1010F000DD0F880B990B0E946134A50194010E94B9
:101100000A362B013C0177FA709477F87094B60197
:10111000DD0C880B990B0E946134A50194010E949B
:101120000A369B01AC01C301B2015FCF812C912C27
:101130005401CBCF812C912C90E8A92E9FEBB92E96
:1011400073CF812C912C80E8A82E8FE3B82E6CCF22
:10115000E616F7060CF481CF812C912C540164CF54
:10116000AF92BF92CF92DF92EF92FF920F931F93B5
:10117000CF93DF9398E2A92E91E0B92E2CE2E22ED4
:1011800021E0F22E850162E0D8018D918D010E944F
:10119000BD04E016F106B9F7EDEBF1E085ECC82EE1
:1011A00081E0D82E41E050E021913191E501899113
:1011B0005E01863188F590E1883050F091E08E3004
:1011C00008F490E0990F990F990F8E3018F5885018
:1011D000890FA82FA695A695A69509F081C0811123
:1011E0001DC030930101209300018A0101C0000F4E
:1011F0008A95EAF7202F8091EB02802B8093EB02F7
:101200008091E802802B8093E80283B18093EE0204
:1012100080E030C08E50DCCF8FEFDBCF813029F4FF
:101220003093030120930201E0CF823009F042C0E5
:10123000309305012093040187708A0101C0000FDB
:101240008A95EAF7202F8A2F90E0BC0165517D4FE7
:10125000EB013881302B3883BC0168517D4FEB01A5
:101260003881302B3883A13009F454C070F2A23099
:1012700009F493C0B0E0A559BF4F9C91292B2C9342
:10128000909168009A0101C0220F8A95EAF7892F90
:10129000822B80936800CE16DF0609F085CFDF91A0
:1012A000CF911F910F91FF90EF90DF90CF90BF9063
:1012B000AF900895833029F43093070120930601FD
:1012C000BBCF843029F43093090120930801B4CFB7
:1012D000853009F08ACF30930B0120930A01ACCFFF
:1012E000A13009F040C08830D9F430930D0120932B
:1012F0000C0187708A0101C0000F8A95EAF7202F40
:101300008091EC02802B8093EC028091E902802B8B
:101310008093E90286B18093EF0281E090E0AACF4A
:10132000893029F430930F0120930E01E2CF8A30E7
:1013300029F43093110120931001DBCF8B3029F475
:10134000309313012093120177CF8C3029F430931E
:1013500015012093140170CF8D3059F63093170189
:101360002093160169CFA23009F095CF8031D9F4CE
:10137000309321012093200187708A0101C0000F62
:101380008A95EAF7202F8091ED02802B8093ED0261
:101390008091EA02802B8093EA0289B18093F00267
:1013A00082E090E067CF813129F4309323012093CC
:1013B0002201E2CF823129F43093250120932401C8
:1013C000DBCF833129F43093270120932601D4CF3A
:1013D000843129F43093190120931801CDCF853140
:1013E00029F430931B0120931A0126CF863129F46A
:1013F00030931D0120931C011FCF873109F0BCCF12
:1014000030931F0120931E0117CFCF92DF92EF92EE
:10141000FF920F931F93CF93DF93C82FD0E0FE016D
:10142000E85DFE4F80810E9466048E01000F111F4F
:10143000000F111F0197E1F40E940E05F801EC5412
:10144000FD4F60837183828393830E94660560935E
:101450004703709348038093490390934A03DF91B5
:10146000CF911F910F91FF90EF90DF90CF90089553
:101470000E940E05F801EC54FD4FC080D180E2803F
:10148000F3806C197D098E099F09693C7F4A8105AB
:10149000910538F50E940E056C197D098E099F098A
:1014A0008B019C01055F1140210931090F3C174058
:1014B00021053105A0F6683E23E072077CF0613D0E
:1014C00047E0740714F060ED77E06C5D7540CC0F79
:1014D000DD1FC25CDC4F79836883C1CF6CE07EEF97
:1014E000F6CFCC0FDD1FC25CDC4F19821882B7CF5C
:1014F00083E00C94050A82E00C94050A81E00C94C8
:10150000050A80E00C94050AFC0101900020E9F72F
:101510003197AF01481B590BBC018CE993E00C9447
:1015200072058F929F92AF92BF920F931F93CF93AA
:10153000DF93CDB7DEB7A1970FB6F894DEBF0FBE2D
:10154000CDBF19A2423008F44AE08E010F5D1F4F53
:10155000842E912CB12CA12CA50194010E94D93587
:10156000E62FB901CA01EA30F4F4E05DD801EE9348
:101570008D01232B242B252B79F790E080E0109709
:1015800019F0CD010E94840AA1960FB6F894DEBF2F
:101590000FBECDBFDF91CF911F910F91BF90AF9044
:1015A0009F908F900895E95CE1CFCF92DF92EF9208
:1015B000FF92CF93DF936B017C016DE28CE993E0A6
:1015C0000E941206EC0166277727CB016C197D0972
:1015D0008E099F094AE00E94910A8C0F9D1FDF919E
:1015E000CF91FF90EF90DF90CF900895009711F08A
:1015F0000C94840A90E080E00895CF93DF930E94DA
:10160000840AEC0184E292E00E94840A8C0F9D1F00
:10161000DF91CF910895CF93DF930E945F06EC0195
:1016200084E292E00E94840A8C0F9D1FDF91CF918B
:1016300008950F931F93CF938C01C62F80914C0375
:1016400090914D03039690934D0380934C038DEA44
:1016500092E00E94F60AC8010E945F0620914C03A6
:1016600030914D03820F931F90934D0380934C0351
:1016700087E292E00E94F60A8AE292E0C11102C07B
:1016800081E392E00E94840A20914C0330914D0343
:10169000820F931F90934D0380934C03CF911F9122
:1016A0000F9108950F931F93CF93DF938C01EB015C
:1016B00080914C0390914D03059690934D03809338
:1016C0004C038DEA92E00E94F60AC8010E945F0670
:1016D00020914C0330914D03820F931F90934D0343
:1016E00080934C0387E292E00E94F60ABE01DD0F70
:1016F000880B990B97FF14C00E94D50A20914C03C8
:1017000030914D03820F931F90934D0380934C03B0
:1017100087E992E0DF91CF911F910F910C94F60A27
:101720004AE00E94910AEACFBC01990F880B990BFD
:1017300097FD0C94D50A4AE00C94910A4F925F925F
:101740006F927F928F929F92AF92BF92CF92DF92D1
:10175000EF92FF920F931F93CF936B017C01742E36
:10176000AC019B010E942437882399F089E392E021
:10177000CF911F910F91FF90EF90DF90CF90BF908E
:10178000AF909F908F907F906F905F904F900C9450
:10179000840A46015701E894B7F82FEF3FEF4FE76F
:1017A0005FE7C501B4010E94243781110DC02FEFFE
:1017B0003FEF4FE75FE7C501B4010E945A341816A6
:1017C0001CF48DE392E0D4CF2FEF3FEF4FE75FE4BF
:1017D000C701B6010E941F3718161CF481E492E07D
:1017E000C7CF2FEF3FEF4FE75FECC701B6010E9475
:1017F0005A3487FDF3CF20E030E0A901C701B601DC
:101800000E945A3410E000E087FF0AC06DE28CE9C4
:1018100093E00E9412068C01F7FAF094F7F8F09426
:10182000C0E060E070E080E09FE37C1641F020E0E3
:1018300030E040E251E40E947736CF5FF6CFA70157
:1018400096010E940B362B013C010E94F0364B01A1
:101850005C014AE00E94910A7C01E00EF11ECC235B
:10186000C1F1C501B4010E945F349B01AC01C30109
:10187000B2010E940A364B015C016EE28CE993E0F2
:101880000E941206E80EF91EC15018F120E030E067
:1018900040E251E4C501B4010E94C0342B013C0177
:1018A0000E94F0364B01B12CA12C4AE0C501B401D5
:1018B0000E94910AE80EF91EC501B4010E945F342E
:1018C0009B01AC01C301B2010E940A364B015C01CD
:1018D000DBCFC701CF911F910F91FF90EF90DF9069
:1018E000CF90BF90AF909F908F907F906F905F90C0
:1018F0004F900895CF92DF92EF92FF92CF93DF93B4
:10190000EC016A017B0180914C0390914D03059697
:1019100090934D0380934C038DEA92E00E94F60A67
:10192000CE010E945F0620914C0330914D03820F3F
:10193000931F90934D0380934C0387E292E00E94A3
:10194000F60A44E0C701B6010E949E0B20914C03A9
:1019500030914D03820F931F90934D0380934C035E
:1019600087E992E0DF91CF91FF90EF90DF90CF90E9
:101970000C94F60A0F931F93CF93DF9382E090E0CD
:1019800090934D0380934C038BE093E00E945F069D
:1019900062E170E080EF92E00E94520B6091B7012B
:1019A0007091B80182EE92E00E94520B6091B501F5
:1019B0007091B60181ED92E00E94520B6091B301EB
:1019C0007091B40184EC92E00E94520B6091B901D5
:1019D0007091BA0189EB92E00E94520B6091AF01C5
:1019E0007091B0018EEA92E00E94520B6091AD01BD
:1019F0007091AE018DE992E00E94520B6091AB01B3
:101A00007091AC0180E992E00E94520B6091B101AB
:101A10007091B20185E892E00E94520B40914F0113
:101A20005091500160915101709152018AE296E00B
:101A30000E947A0C409153015091540160915501DC
:101A40007091560185E196E00E947A0C4091570111
:101A5000509158016091590170915A018FEF95E0B2
:101A60000E947A0C40915B0150915C0160915D0194
:101A700070915E0189EE95E00E947A0C40914601DA
:101A800050914701609148017091490184ED95E0C2
:101A90000E947A0C40914A0150914B0160914C0197
:101AA00070914D018FEB95E00E947A0C409163019B
:101AB0005091640160916501709166018FEA95E033
:101AC0000E947A0C40916701509168016091690110
:101AD00070916A018EE995E00E947A0C40916B0149
:101AE00050916C0160916D0170916E0183E995E0F8
:101AF0000E947A0C40915F015091600160916101F8
:101B00007091620189E795E00E947A0C6091690307
:101B100081E695E00E94190B6091370170913801C0
:101B200083E792E00E94520B6091390170913A0173
:101B300083E692E00E94520B60913B0170913C0160
:101B400083E592E00E94520B60913D0170913E014D
:101B500080E492E00E94520B60913F01709140013D
:101B60008FE292E00E94520B60914101709142011C
:101B70008EE192E00E94520B6091720382E595E043
:101B80000E94190B60917001709171018AE092E0DE
:101B90000E94520B609170037091710386EF91E087
:101BA0000E94520B60914E018BE395E00E94190B4D
:101BB00060916F0170E08CE295E00E94520B6091A1
:101BC000BC0170E082E295E00E94520B6091BB0183
:101BD00070E088E195E00E94520B60912D0170E069
:101BE0008EEF94E00E94520B60912C0170E083EE26
:101BF00094E00E94520B60912E018EEC94E00E94C2
:101C0000190B609133017091340185EE91E00E94CF
:101C1000520B609131017091320183ED91E00E948D
:101C2000520B60912F017091300187EB94E00E947C
:101C3000520B609135017091360183EC91E00E9466
:101C4000520B6091820384EA94E00E94190B609128
:101C50007D0380E994E00E94190B6091AA0170E075
:101C60008CE794E00E94520B609181038CE894E031
:101C70000E94190B6091800387E794E00E94190B82
:101C80006091A90170E085E694E00E94520BC3E7E1
:101C9000D1E001E010E084EB91E00E946507C8010B
:101CA0000E94940B20914C0330914D03820F931F9F
:101CB00090934D0380934C0380EB91E00E94650765
:101CC000688170E090E080E04AE00E94910A2091F3
:101CD0004C0330914D03820F931F90934D038093DB
:101CE0004C038EEA91E00E94650769817A818B81BD
:101CF0009C8144E00E949E0B20914C0330914D0347
:101D0000820F931F90934D0380934C038CEA91E0D4
:101D10000E9465076D817E818F81988544E00E94D5
:101D20009E0B20914C0330914D03820F931F909393
:101D30004D0380934C0389EA91E00E9465070F5F91
:101D40001F4F29960730110509F0A5CF6091730345
:101D500086E294E00E94190B6091720170E08EE0BF
:101D600094E00E94520B60914B038BE094E00E9440
:101D7000190B6091290170E083E094E00E94520BFE
:101D80006091280170E087E094E00E94520B60911E
:101D90002A0170E08FEF93E00E94520B60912B01BB
:101DA00070E08BEF93E00E94520B6091460387EF47
:101DB00093E00E94190B60915E0383EF93E00E9411
:101DC000190B6091430170E080EF93E00E94520B89
:101DD00060915D038CEE93E00E94190B60915C03AF
:101DE00088EE93E00E94190B6091600384EE93E00B
:101DF0000E94190B6091450170E081EE93E00E9412
:101E0000520B6091440170E08EED93E00E94520B02
:101E100060915F038AED93E00E94190B8DE991E0D8
:101E20000E94650780914C0390914D0304960E9497
:101E3000940B8BE992E0DF91CF911F910F910C945D
:101E4000FD0A65E472E0811102C06AE472E088ED87
:101E500092E00C9461370C948935CF92DF92EF9227
:101E6000FF920F931F93CF93DF93EC018B01C090F0
:101E7000F102D090F202E090F302F090F402FB0144
:101E80006081888199810E942B0F88819981F80156
:101E9000608188539F4F0E942B0F88819981F801A0
:101EA000608180579E4F0E942B0FF8014081C7012F
:101EB000B6010E942E07288139812F5F3F4F398359
:101EC00028836093F1027093F2028093F30290935F
:101ED000F402DF91CF911F910F91FF90EF90DF906F
:101EE000CF900895AF92BF92CF92DF92EF92FF9280
:101EF0000F931F93CF93DF938C01EB01C090F102FE
:101F0000D090F202E090F302F090F4025B0184E0E2
:101F1000A80EB11C6881F801808191810E942B0F6D
:101F2000F80180819181688188539F4F0E942B0F17
:101F3000F80180819181688180579E4F0E942B0F0C
:101F40004991C701B6010E942E076B017C01F8017F
:101F500080819181019691838083AC16BD06D1F674
:101F6000C092F102D092F202E092F302F092F402F7
:101F7000DF91CF911F910F91FF90EF90DF90CF9065
:101F8000BF90AF900895AF92BF92CF92DF92EF9241
:101F9000FF920F931F93CF93DF938C01EB01C090BF
:101FA000F102D090F202E090F302F090F4025B01B3
:101FB00082E0A80EB11C6881F801808191810E94A5
:101FC0002B0FF80180819181688188539F4F0E9477
:101FD0002B0FF80180819181688180579E4F0E946C
:101FE0002B0F4991C701B6010E942E076B017C019E
:101FF000F80180819181019691838083AC16BD06A2
:10200000D1F6C092F102D092F202E092F302F09285
:10201000F402DF91CF911F910F91FF90EF90DF902D
:10202000CF90BF90AF900895CF92DF92EF92FF9242
:102030000F931F93CF93DF93EC018B01C090F102BC
:10204000D090F202E090F302F090F402FB01608184
:10205000888199810E942B0F88819981F801608184
:1020600088539F4F0E942B0F88819981F8016081CE
:1020700080579E4F0E942B0FF8014081C701B60187
:102080000E942E07288139812F5F3F4F3983288393
:102090006093F1027093F2028093F3029093F40242
:1020A000DF91CF911F910F91FF90EF90DF90CF9034
:1020B0000895CF92DF92EF92FF920F931F93CF93E9
:1020C000DF9300D0CDB7DEB781E090E09A838983BB
:1020D0001092F1021092F2021092F3021092F402A6
:1020E00067EB71E0CE0101960E94C30F65EB71E0D2
:1020F000CE0101960E94C30F63EB71E0CE01019601
:102100000E94C30F69EB71E0CE0101960E94C30FDC
:102110006FEA71E0CE0101960E94C30F6DEA71E093
:10212000CE0101960E94C30F6BEA71E0CE010196C9
:102130000E94C30F61EB71E0CE0101960E94C30FB4
:102140006FE471E0CE0101960E94720F63E571E0C9
:10215000CE0101960E94720F67E571E0CE010196F3
:102160000E94720F6BE571E0CE0101960E94720F22
:1021700066E471E0CE0101960E94720F6AE471E09C
:10218000CE0101960E94720F63E671E0CE010196C6
:102190000E94720F67E671E0CE0101960E94720FF5
:1021A0006BE671E0CE0101960E94720F6FE571E05F
:1021B000CE0101960E94720F69E673E0CE0101968E
:1021C0000E942D0F67E371E0CE0101960E94C30FBC
:1021D00069E371E0CE0101960E94C30F6BE371E0E9
:1021E000CE0101960E94C30F6DE371E0CE0101960E
:1021F0000E94C30F6FE371E0CE0101960E94C30FEE
:1022000061E471E0CE0101960E94C30F62E773E0C2
:10221000CE0101960E942D0F60E771E0CE0101967C
:102220000E94C30F60E773E0CE0101960E94C30FC6
:102230006EE471E0CE0101960E942D0F6FE671E011
:10224000CE0101960E9414106CEB71E0CE01019654
:102250000E9414106BEB71E0CE0101960E941410E5
:102260006DE271E0CE0101960E9414106CE271E003
:10227000CE0101960E9414106EE271E0CE0101962B
:102280000E942D0F63E371E0CE0101960E94C30FFF
:1022900061E371E0CE0101960E94C30F6FE271E02D
:1022A000CE0101960E94C30F65E371E0CE01019655
:1022B0000E94C30F62E873E0CE0101960E942D0FC9
:1022C0006DE773E0CE0101960E942D0F61E873E087
:1022D000CE0101960E942D0F6AEA71E0CE010196AF
:1022E0000E94141060E873E0CE0101960E942D0F49
:1022F00069EA71E0CE0101960E941410C090F102CB
:10230000D090F202E090F302F090F40203E711E0C3
:10231000F801608189819A810E942B0F89819A81BD
:10232000F801608188539F4F0E942B0F89819A8109
:10233000F801608180579E4F0E942B0FF801419158
:102340008F01C701B6010E942E076B017C018981B4
:102350009A8101969A838983F1E0093A1F07C1F6B1
:10236000C092F102D092F202E092F302F092F402F3
:1023700063E773E0CE0101960E942D0F62E771E0E2
:10238000CE0101960E9414106EE573E0CE01019615
:102390000E942D0F63E471E0CE0101960E9414109B
:1023A0006DE573E0CE0101960E942D0F6CE573E0A0
:1023B000CE0101960E942D0F60E673E0CE010196DA
:1023C0000E942D0F65E471E0CE0101960E94141069
:1023D00064E471E0CE0101960E9414106FE573E091
:1023E000CE0101960E942D0F6BE473E0CE010196A1
:1023F0000E942D0F68E271E0CE0101960E94141038
:1024000069E271E0CE0101960E9414106BE271E066
:10241000CE0101960E9414106AE271E0CE0101968D
:102420000E94141066E473E0CE0101960E942D0F05
:10243000C090F102D090F202E090F302F090F4022A
:1024400001EF12E0F801608189819A810E942B0FCF
:1024500089819A81F801608188539F4F0E942B0FD8
:1024600089819A81F801608180579E4F0E942B0FCD
:10247000F80141918F01C701B6010E942E076B013F
:102480007C0189819A8101969A838983F2E0053FD4
:102490001F07C1F6C092F102D092F202E092F3025D
:1024A000F092F4020F900F90DF91CF911F910F9156
:1024B000FF90EF90DF90CF900895AF92BF92CF92B0
:1024C000DF92EF92FF920F931F93CF93DF9300D091
:1024D00000D0CDB7DEB7E0913103F0E0EB50FD4F17
:1024E000108260E572E085EF92E00E947E307C0110
:1024F00060E572E090E080E00E947E308C01E8EDC3
:10250000F2E08FE0DF011D928A95E9F7EBEEAE2E47
:10251000E1E0BE2ED12CC12CD501ED91FD915D01E4
:10252000EE0FFF1FE15CF94F6591749184EC92E02E
:102530000E94773064EC72E0C7010E945837892B03
:1025400079F4C8010E945030F601EE0FFF1FEB53E3
:10255000FE4F0190F081E02D808391839F938EC286
:10256000BFEFCB1ADB0AE3E1CE16D104A9F66AE28B
:1025700076E0C7010E946E30892B09F03EC0C80189
:102580000E944C3020E030E0A9010E941F3718164D
:102590007CF5C8010E944C3060934F01709350014C
:1025A000809351019093520108ED12E024E040E045
:1025B0000E942E3085E693E00E945F0687E992E054
:1025C0000E94F60A88E593E00E945F06C7010E9418
:1025D000F60A86E992E00E94F60A8DE493E00E94F2
:1025E0005F0688ED92E00E94F60A8AE992E0C6C48E
:1025F000C8010E944C309058CFCF65E176E0C7010A
:102600000E946E30892BD9F4C8010E944C3020E022
:1026100030E0A9010E941F37181664F4C8010E9417
:102620004C30609353017093540180935501909303
:102630005601BACFC8010E944C309058F2CF6FEFCC
:1026400075E0C7010E946E30892BD9F4C8010E9441
:102650004C3020E030E0A9010E941F37181664F4C6
:10266000C8010E944C3060935701709358018093C9
:10267000590190935A0198CFC8010E944C3090584C
:10268000F2CF69EE75E0C7010E946E30892BD9F454
:10269000C8010E944C3020E030E0A9010E941F37A1
:1026A000181664F4C8010E944C3060935B0170936B
:1026B0005C0180935D0190935E0176CFC8010E941A
:1026C0004C309058F2CF64ED75E0C7010E946E3037
:1026D000892BD9F4C8010E944C3020E030E0A901D8
:1026E0000E941F37181664F4C8010E944C30609392
:1026F000460170934701809348019093490154CF5C
:10270000C8010E944C309058F2CF6FEB75E0C701C2
:102710000E946E30892BD9F4C8010E944C3020E011
:1027200030E0A9010E941F37181664F4C8010E9406
:102730004C3060934A0170934B0180934C0190930D
:102740004D0132CFC8010E944C309058F2CF6FEA51
:1027500075E0C7010E946E30892B09F062C0C80184
:102760000E944C3020E030E0A9010E941F3718166B
:1027700074F4C8010E944C3020E030E0A9010E94AE
:102780005A3487FF0EC060E070E0CB012CC0C80156
:102790000E944C3020E030E0A9010E941F3718163B
:1027A00094F3C8010E944C3020E030E0A9010E945F
:1027B0001F3718160CF5C8010E944C3020E030E09D
:1027C00040E85FE30E941F3718160CF1C8010E9411
:1027D0004C3020E030E0A9010E941F371816E4F4C5
:1027E000C8010E944C306093630170936401809330
:1027F000650190936601D8CEC8010E944C3020E05C
:1028000030E040E85FEB0E945A3487FFDFCF60E0A2
:1028100070E080E89FE3E7CFC8010E944C309058F9
:10282000E2CF6EE975E0C7010E946E30892B09F096
:1028300062C0C8010E944C3020E030E0A9010E9433
:102840001F37181674F4C8010E944C3020E030E0A5
:10285000A9010E945A3487FF0EC060E070E0CB01EE
:102860002CC0C8010E944C3020E030E0A9010E9439
:102870001F37181694F3C8010E944C3020E030E056
:10288000A9010E941F3718160CF5C8010E944C3090
:1028900020E030E040E85FE30E941F3718160CF19B
:1028A000C8010E944C3020E030E0A9010E941F378F
:1028B0001816E4F4C8010E944C30609367017093CD
:1028C00068018093690190936A016ECEC8010E94ED
:1028D0004C3020E030E040E85FEB0E945A3487FF44
:1028E000DFCF60E070E080E89FE3E7CFC8010E949F
:1028F0004C309058E2CF63E975E0C7010E946E301A
:10290000892B09F062C0C8010E944C3020E030E001
:10291000A9010E941F37181674F4C8010E944C3098
:1029200020E030E0A9010E945A3487FF0EC060E029
:1029300070E0CB012CC0C8010E944C3020E030E098
:10294000A9010E941F37181694F3C8010E944C3049
:1029500020E030E0A9010E941F3718160CF5C801CD
:102960000E944C3020E030E040E85FE30E941F37D7
:1029700018160CF1C8010E944C3020E030E0A9018B
:102980000E941F371816E4F4C8010E944C3060936F
:102990006B0170936C0180936D0190936E0104CE76
:1029A000C8010E944C3020E030E040E85FEB0E941C
:1029B0005A3487FFDFCF60E070E080E89FE3E7CF25
:1029C000C8010E944C309058E2CF69E775E0C7011A
:1029D0000E946E30892B61F4C8010E944C306093D4
:1029E0005F01709360018093610190936201DCCD7F
:1029F00061E675E0C7010E946E30892B59F4C80169
:102A00000E94503021E0892B09F420E020936903D3
:102A1000822F82C162E575E0C7010E946E30892B6A
:102A200051F4C8010E94503021E0892B09F420E0C4
:102A300020937203EDCF6BE375E0C7010E946E3007
:102A4000892B51F4C8010E94503021E0892B09F4F0
:102A500020E020934E01DCCF6CE275E0C7010E94BC
:102A60006E30892BE9F4C8010E94503080936F01C9
:102A700060E00E94BD0480916F011F928F9383E5F7
:102A800092E09F938F9388ED92E09F938F930E94A3
:102A900068370F900F900F900F900F900F908ACD86
:102AA00062E275E0C7010E946E30892B59F4C801BB
:102AB0000E9450308093BC0160E00E94BD04809170
:102AC000BC01DBCF68E175E0C7010E946E30892B45
:102AD00059F4C8010E9450308093BB0160E00E940D
:102AE000BD048091BB01C9CF6EEF74E0C7010E94A5
:102AF0006E30892B09F058C060913D0170913E0104
:102B00008EE594E00E949B06E0915E048E2F90E09B
:102B1000FC01EE0FFF1FE80FF91FE75CFB4F808100
:102B20008F7B8083609137017091380181E694E05A
:102B30000E949B06E09161048E2F90E0FC01EE0F55
:102B4000FF1FE80FF91FE75CFB4F80818F7B8083BD
:102B5000C8010E94503080932D016AE070E080E04F
:102B600090E00E94330560912D0170E081E694E0D1
:102B70000E94D206609137017091380181E694E09D
:102B80000E949B0660912C0170E08EE594E00E940B
:102B9000D20660913D0170913E018EE594E00E9465
:102BA0009B0680912D0169CF63EE74E0C7010E94FE
:102BB0006E30892B09F058C060913701709138014F
:102BC00081E694E00E949B06E09161048E2F90E0E4
:102BD000FC01EE0FFF1FE80FF91FE75CFB4F808140
:102BE0008F7B808360913D0170913E018EE594E082
:102BF0000E949B06E0915E048E2F90E0FC01EE0F98
:102C0000FF1FE80FF91FE75CFB4F80818F7B8083FC
:102C1000C8010E94503080932C016AE070E080E08F
:102C200090E00E94330560912C0170E08EE594E005
:102C30000E94D20660913D0170913E018EE594E0C4
:102C40000E949B0660912D0170E081E694E00E9455
:102C5000D206609137017091380181E694E00E94BC
:102C60009B0680912C0109CF6EEC74E0C7010E9495
:102C70006E30892B51F4C8010E94503021E0892B1D
:102C800009F420E020932E01C3CE67EB74E0C70166
:102C90000E946E30892B91F4C8010E945030893E09
:102CA000F3E09F0714F088EE93E097FF02C090E0F6
:102CB00080E09093300180932F0150CC64EA74E05F
:102CC000C7010E946E30892B51F5C8010E94503017
:102CD00021E0009709F420E020938203892BD1F0B2
:102CE00080917D03882329F062E08091AA010E94EF
:102CF000BD0410E009E08091A901181758F4019F64
:102D0000F0011124ED58FE4F62E080810E94BD0465
:102D10001F5FF1CF809182030E94210F4BCC60E9AD
:102D200074E0C7010E946E30892B41F5C8010E94F2
:102D3000503021E0009709F420E020937D0320919A
:102D400082032223C1F0892B29F062E08091AA013D
:102D50000E94BD0410E009E08091A901181758F401
:102D6000019FF0011124ED58FE4F62E080810E9426
:102D7000BD041F5FF1CF80917D03CECF6CE874E07E
:102D8000C7010E946E30892B51F4C8010E94503057
:102D900021E0892B09F420E02093810339CE6CE7F0
:102DA00074E0C7010E946E30892B59F4C8010E945B
:102DB00050308093AA0162E00E94BD048091AA0174
:102DC0005CCE67E774E0C7010E946E30892B51F436
:102DD000C8010E94503021E0892B09F420E02093A3
:102DE000800316CE65E674E0C7010E946E30892B21
:102DF00079F5C8010E94503097FD23C087309105B6
:102E000014F58093A901809182038823F1F08091C9
:102E10007D03882329F062E08091AA010E94BD040D
:102E200010E009E08091A901181778F4019FF001E2
:102E30001124ED58FE4F62E080810E94BD041F5FA7
:102E4000F1CF80E0DECF86E0DCCF8091A90115CE06
:102E500066E572E0C7010E945837892B09F091C0DE
:102E6000C8010E9450306C015C0121E0A21AB10837
:102E700046E0A416B10408F0F0C160E772E0C801B2
:102E80000E947E3060E772E090E080E00E947E3039
:102E90000E94503099E09A9D90019B9D300D112425
:102EA000D901AD58BE4F7D018C9360E772E090E090
:102EB00080E00E947E300E944C30F7016183728373
:102EC0008383948360E772E090E080E00E947E302C
:102ED0000E944C30D70115966D937D938D939C93F2
:102EE000189762E08C910E94BD0481E594E00E94F5
:102EF0005F0683E792E00E94F60A84E494E00E9471
:102F00005F0684E692E00E94F60AC6010E94940BD6
:102F100082E792E00E94F60A8AE394E00E945F064C
:102F2000F701608170E090E080E04AE00E94910A41
:102F300083E792E00E94F60AD70111966D917D9188
:102F40008D919C91149708ED12E024E040E00E94DE
:102F50002E30C8010E94F60A83E792E00E94F60A2A
:102F6000F701658176818781908524E040E00E94A9
:102F70002E30C8010E94F60A85E792E00E94FD0A01
:102F80006CC166E274E0C7010E946E30892BB9F40F
:102F9000C8010E94503021E0009709F420E02093FE
:102FA0007303892BE9F162E0809172010E94BD04F4
:102FB00065E472E088ED92E00E946137FBCA6EE042
:102FC00074E0C7010E946E30892B59F4C8010E9439
:102FD00050308093720162E00E94BD0480917201C2
:102FE0004CCD6BE074E0C7010E946E30892BD9F4A0
:102FF000C8010E94503021E0009709F420E020939E
:103000004B03892B59F00E94401E65E472E088ED65
:1030100092E00E9461370E94B008CCCA0E94401E14
:103020006AE472E0C7CF67E074E0C7010E946E30C7
:10303000892B61F40E94401EC8010E945030809389
:1030400029010E94B0088091290117CD63E074E046
:10305000C7010E946E30892B61F40E94401EC80196
:103060000E945030809328010E94B008809128016E
:1030700004CD6FEF73E0C7010E946E30892B61F4BD
:103080000E94401EC8010E94503080932A010E9475
:10309000B00880912A01F1CC6BEF73E0C7010E9468
:1030A0006E30892B61F40E94401EC8010E9450308E
:1030B00080932B010E94B00880912B01DECC67EF3A
:1030C00073E0C7010E946E30892B51F4C8010E9441
:1030D000503021E0892B09F420E02093460398CC5E
:1030E00063EF73E0C7010E946E30892B99F4C80129
:1030F0000E94503021E0009709F420E020935E0305
:10310000892B29F062E0809143010E94BD048091E7
:103110005E0302CE60EF73E0C7010E946E30892B20
:1031200079F4C8010E9450308093430190915E036E
:10313000992319F062E00E94BD04809143019DCC67
:103140006CEE73E0C7010E946E30892B51F4C80108
:103150000E94503021E0892B09F420E020935D0388
:1031600057CC68EE73E0C7010E946E30892B51F492
:10317000C8010E94503021E0892B09F420E02093FF
:103180005C0346CC64EE73E0C7010E946E30892B6D
:10319000C1F4C8010E94503021E0009709F420E0FA
:1031A00020936003892B51F062E0809145010E94D9
:1031B000BD0462E0809144010E94BD0480916003DF
:1031C000ABCD61EE73E0C7010E946E30892B59F4DC
:1031D000C8010E9450308093450162E00E94BD0406
:1031E000809145014ACC6EED73E0C7010E946E30BC
:1031F000892B59F4C8010E9450308093440162E049
:103200000E94BD048091440138CC6AED73E0C7018F
:103210000E946E30892B51F4C8010E94503021E089
:10322000892B09F420E020935F03F2CB68E772E07A
:10323000C7010E945837892B39F40E94591086EC37
:1032400093E00E940B0B09C06DE772E0C7010E947A
:103250005837892B99F40E94BA0C109231030F90C1
:103260000F900F900F90DF91CF911F910F91FF90D2
:10327000EF90DF90CF90BF90AF90089566E872E036
:10328000C7010E945837892BA1F41C821B8283E15D
:1032900090E09A838983BE016F5F7F4FCE010396D2
:1032A0000E94C30F68E873E180E090E00E9433055C
:1032B00081C96DE872E0C7010E945837892B91F3EC
:1032C00064E972E0C7010E945837892B31F481E02C
:1032D0008093520387EA93E0B4CF64E872E0C701B9
:1032E0000E945837892BA9F410925203609137013C
:1032F0007091380181E694E00E949B0660913D0147
:1033000070913E018EE594E00E949B0681E993E076
:1033100098CF89E793E095CF0C948135CF92DF92D7
:10332000EF92FF920F931F93CF93DF938C017B015A
:10333000FC01C080D180C6010E948C19C82FC60133
:1033400088539F4F0E948C19D82FC60180579E4FDB
:103350000E948C19CD1327C0C81325C0F701C08364
:103360006091F1027091F2028091F3029091F40267
:10337000F70140810E942E076093F1027093F202E0
:103380008093F3029093F402F80180819181019679
:1033900091838083DF91CF911F910F91FF90EF90E8
:1033A000DF90CF9008956C2F682B6D23C8236C2B72
:1033B000F7016083F801808191810E942B0FF80151
:1033C00080819181F701608188539F4F0E942B0F6C
:1033D000F80180819181F701608180579E4F0E94A2
:1033E0002B0F61E08DE00E94BD0460E08DE00E9443
:1033F0008F0464E670E080E090E00E94330561E0B5
:103400008DE00E948F0462E370E080E090E00E9413
:103410003305A895A5CFAF92BF92CF92DF92EF92DE
:10342000FF920F931F93CF93DF937C01EB016B010E
:1034300084E0C80ED11CF701A080B180C5010E94B4
:103440008C19182FC50188539F4F0E948C19082F83
:10345000C50180579E4F0E948C1910132AC0181363
:1034600028C018836091F1027091F2028091F302FA
:103470009091F40249910E942E076093F10270939B
:10348000F2028093F3029093F402F701808191811C
:10349000019691838083CC15DD0569F6DF91CF918C
:1034A0001F910F91FF90EF90DF90CF90BF90AF9062
:1034B0000895612F682B60231823612B6883F7011F
:1034C000808191810E942B0FF70180819181688119
:1034D00088539F4F0E942B0FF70180819181688153
:1034E00080579E4F0E942B0F61E08DE00E94BD042B
:1034F00060E08DE00E948F0464E670E080E090E080
:103500000E94330561E08DE00E948F0462E370E069
:1035100080E090E00E943305A895A4CFAF92BF92BF
:10352000CF92DF92EF92FF920F931F93CF93DF938F
:103530007C01EB016B0182E0C80ED11CF701A08079
:10354000B180C5010E948C19182FC50188539F4F67
:103550000E948C19082FC50180579E4F0E948C191C
:1035600010132AC0181328C018836091F1027091BB
:10357000F2028091F3029091F40249910E942E0789
:103580006093F1027093F2028093F3029093F4023D
:10359000F70180819181019691838083CC15DD05AF
:1035A00069F6DF91CF911F910F91FF90EF90DF901F
:1035B000CF90BF90AF900895612F682B60231823A0
:1035C000612B6883F701808191810E942B0FF701A5
:1035D00080819181688188539F4F0E942B0FF70152
:1035E00080819181688180579E4F0E942B0F61E0FE
:1035F0008DE00E94BD0460E08DE00E948F0464E6CF
:1036000070E080E090E00E94330561E08DE00E9470
:103610008F0462E370E080E090E00E943305A8959B
:10362000A4CFCF92DF92EF92FF920F931F93CF938D
:10363000DF938C017B01FC01C080D180C6010E9418
:103640008C19C82FC60188539F4F0E948C19D82F00
:10365000C60180579E4F0E948C19CD1327C0C813F6
:1036600025C0F701C0836091F1027091F202809150
:10367000F3029091F402F70140810E942E076093BB
:10368000F1027093F2028093F3029093F402F80136
:1036900080819181019691838083DF91CF911F91E9
:1036A0000F91FF90EF90DF90CF9008956C2F682BD3
:1036B0006D23C8236C2BF7016083F8018081918111
:1036C0000E942B0FF80180819181F701608188535E
:1036D0009F4F0E942B0FF80180819181F70160813B
:1036E00080579E4F0E942B0F61E08DE00E94BD0429
:1036F00060E08DE00E948F0464E670E080E090E07E
:103700000E94330561E08DE00E948F0462E370E067
:1037100080E090E00E943305A895A5CF1F920F92FC
:103720000FB60F9211242F933F938F939F93AF93D4
:10373000BF938091940390919503A0919603B091CB
:1037400097033091930323E0230F2D3758F501960B
:10375000A11DB11D2093930380939403909395032F
:10376000A0939603B0939703809198039091990347
:10377000A0919A03B0919B030196A11DB11D809366
:10378000980390939903A0939A03B0939B03BF91DE
:10379000AF919F918F913F912F910F900FBE0F90FE
:1037A0001F90189526E8230F0296A11DB11DD2CFB8
:1037B0001F920F920FB60F9211242F933F934F93A6
:1037C0005F936F937F938F939F93AF93BF93EF9389
:1037D000FF938CE993E00E94F005FF91EF91BF9178
:1037E000AF919F918F917F916F915F914F913F9199
:1037F0002F910F900FBE0F901F9018951F920F9250
:103800000FB60F9211242F938F939F93EF93FF93F3
:10381000E091AC03F091AD038081E091B203F091AF
:10382000B30382FD1BC090818091B5038F5F8F73BE
:103830002091B603821741F0E091B503F0E0E45621
:10384000FC4F958F8093B503FF91EF919F918F91DE
:103850002F910F900FBE0F901F9018958081F4CF7D
:103860001F920F920FB60F9211242F933F934F93F5
:103870005F936F937F938F939F93AF93BF93CF93F8
:10388000EF93FF9399B18091F002C091ED02C923AB
:10389000282F2095C2232091EA028223292F2095E8
:1038A0008223C82B9093F002C4FF05C0E091180159
:1038B000F09119010995C5FF05C0E0911A01F09139
:1038C0001B010995C6FF05C0E0911C01F0911D0187
:1038D0000995C7FF05C0E0911E01F0911F010995F0
:1038E000C0FF05C0E0912001F09121010995C1FFC1
:1038F00005C0E0912201F09123010995C2FF05C0A6
:10390000E0912401F09125010995C3FF05C0E091E4
:103910002601F09127010995FF91EF91CF91BF9179
:10392000AF919F918F917F916F915F914F913F9157
:103930002F910F900FBE0F901F9018951F920F920E
:103940000FB60F9211242F933F934F935F936F9372
:103950007F938F939F93AF93BF93CF93EF93FF93F7
:1039600096B18091EF02C091EC02C923282F2095D7
:10397000C2232091E9028223292F20958223C82B7C
:103980009093EF02C0FF05C0E0910C01F0910D0192
:103990000995C1FF05C0E0910E01F0910F01099555
:1039A000C2FF05C0E0911001F09111010995C3FF1C
:1039B00005C0E0911201F09113010995C4FF05C003
:1039C000E0911401F09115010995C5FF05C0E09142
:1039D0001601F09117010995FF91EF91CF91BF91D9
:1039E000AF919F918F917F916F915F914F913F9197
:1039F0002F910F900FBE0F901F9018951F920F924E
:103A00000FB60F9211242F933F934F935F936F93B1
:103A10007F938F939F93AF93BF93CF93EF93FF9336
:103A200093B18091EE02C091EB02C923282F20951B
:103A3000C2232091E8028223292F20958223C82BBC
:103A40009093EE02C0FF05C0E0910001F0910101EA
:103A50000995C1FF05C0E0910201F09103010995AC
:103A6000C2FF05C0E0910401F09105010995C3FF73
:103A700005C0E0910601F09107010995C4FF05C05A
:103A8000E0910801F09109010995C5FF05C0E09199
:103A90000A01F0910B010995FF91EF91CF91BF9130
:103AA000AF919F918F917F916F915F914F913F91D6
:103AB0002F910F900FBE0F901F9018951F920F928D
:103AC0000FB60F9211242F933F934F935F936F93F1
:103AD0007F938F939F93AF93BF93CF93DF93EF9396
:103AE000FF938091E702C0915D04D0E087FF24C07E
:103AF00010928500109284008091E7028F5F80937E
:103B0000E7028091E702082E000C990B8C179D07A5
:103B100024F48091E7028C30C4F18091840090916C
:103B20008500049680349C4908F47AC08091840012
:103B300090918500049676C08091E702082E000CD3
:103B4000990B8C179D07C4F6E091E7028E2FEE0FBC
:103B5000990BFC01EE0FFF1FE80FF91FE75CFB4F0D
:103B6000808186FFC9CFE091E7028E2FEE0F990B7F
:103B7000FC01EE0FFF1FE80FF91FE75CFB4F808190
:103B800060E08F730E948F04B7CF20918400309142
:103B90008500E091E7028E2FEE0F990BFC01EE0FEE
:103BA000FF1FE80FF91FE75CFB4F81819281820FB5
:103BB000931F9093890080938800E091E7028E2FF5
:103BC000EE0F990BFC01EE0FFF1FE80FF91FE75CEA
:103BD000FB4F808186FF11C0E091E7028E2FEE0F30
:103BE000990BFC01EE0FFF1FE80FF91FE75CFB4F7D
:103BF000808161E08F730E948F04FF91EF91DF91CC
:103C0000CF91BF91AF919F918F917F916F915F9174
:103C10004F913F912F910F900FBE0F901F901895CD
:103C200080E49CE990938900809388008FEF8093D3
:103C3000E702E3CF1F920F920FB60F9211242F933A
:103C40003F934F935F936F937F938F939F93AF9324
:103C5000BF93EF93FF93A895F0E0E0E00995FF9103
:103C6000EF91BF91AF919F918F917F916F915F91F4
:103C70004F913F912F910F900FBE0F901F9018956D
:103C8000FF920F931F93CF93DF93A8E2B1E06CE212
:103C900071E041E050E02AE936E08D91863108F08C
:103CA00057C090E1883058F091E08E3008F490E0F1
:103CB000990F990F990F8E3008F048C08850890FDE
:103CC000982F969596959695C82FC770911166C0B6
:103CD000811140C03093010120930001E92FF0E0F1
:103CE0008A0102C0000F111FCA95E2F7F02EF0946E
:103CF0008F0105511D4FE80188818F2188838F0135
:103D000008511D4FE80188818F218883E559FF4FB5
:103D10008081CF2DC823C083808181110DC0E091A7
:103D200068008A0102C0000F111F9A95E2F7C801CE
:103D300080958E23809368006A177B0709F0ADCFCA
:103D4000DF91CF911F910F91FF9008958E50B7CFC3
:103D50008FEFB6CF813029F4309303012093020115
:103D6000BDCF823029F43093050120930401B6CFF2
:103D7000833029F43093070120930601AFCF8430BC
:103D800029F43093090120930801A8CF853009F068
:103D9000A5CF30930B0120930A01A0CF913059F5A4
:103DA000883029F430930D0120930C0197CF89308E
:103DB00029F430930F0120930E0190CF8A3029F41B
:103DC000309311012093100189CF8B3029F4309367
:103DD00013012093120182CF8C3029F43093150106
:103DE000209314017BCF8D3009F078CF30931701E9
:103DF0002093160173CF923009F09ECF803129F4C1
:103E0000309321012093200169CF813129F430932F
:103E100023012093220162CF823129F430932501BE
:103E2000209324015BCF833129F430932701209321
:103E3000260154CF843129F43093190120931801BD
:103E40004DCF853129F430931B0120931A0146CFC1
:103E5000863129F430931D0120931C013FCF873117
:103E600009F03CCF30931F0120931E0137CF1092F1
:103E70009F0310929E0388EE93E0A0E0B0E0809351
:103E8000A0039093A103A093A203B093A30386E1A0
:103E900092E090939D0380939C0385EC90E0909337
:103EA000A9038093A80384EC90E09093AB038093E4
:103EB000AA0380EC90E09093AD038093AC0381EC77
:103EC00090E09093AF038093AE0382EC90E09093E8
:103ED000B1038093B00386EC90E09093B30380939A
:103EE000B2031092B5031092B6031092B70310926A
:103EF000B80380915D048C3048F591E0980F909361
:103F00005D048093610490E0FC01EE0FFF1FE80F59
:103F1000F91FE75CFB4F88EB9BE0928381838091E4
:103F20005D048C30B8F491E0980F90935D04809319
:103F30005E0490E0FC01EE0FFF1FE80FF91FE75C45
:103F4000FB4F88EB9BE09283818308958FEF8093F2
:103F50006104E5CF8FEF80935E040895CF93DF93E4
:103F6000CDB7DEB7A1970FB6F894DEBF0FBECDBFB9
:103F7000789484B5826084BD84B5816084BD85B544
:103F8000826085BD85B5816085BD80916E00816050
:103F900080936E00109281008091810082608093F6
:103FA00081008091810081608093810080918000F8
:103FB0008160809380008091B10084608093B10023
:103FC0008091B00081608093B00080917A0084601D
:103FD00080937A0080917A00826080937A00809149
:103FE0007A00816080937A0080917A008068809363
:103FF0007A001092C10061E08DE00E94BD0461E092
:104000008DE00E948F04E091AC03F091AD0382E05B
:104010008083E091A803F091A9031082E091AA03A4
:10402000F091AB0387E080831092B403E091B0037A
:10403000F091B10386E08083E091AE03F091AF038D
:10404000808180618083E091AE03F091AF03808135
:1040500088608083E091AE03F091AF038081806837
:104060008083E091AE03F091AF0380818F7D8083E8
:1040700084E292E00E94840A62E370E080E090E0D3
:104080000E94330560E08DE00E948F04F894A895AB
:104090008091600088618093600087E48093600075
:1040A000789480E092E090938E0380938D039093B8
:1040B0008C0380938B0310928303109284031092DD
:1040C0008503109286031092870310928803109242
:1040D000890310928A03109265031092660310926E
:1040E00067031092680310926103109262031092AA
:1040F000630310926403109274031092750310927C
:10410000760310927703109278031092790310923D
:104110007A0310927B038FEF9FEF90936F0380934E
:104120006E0380E090E0A0E8BFE380936A03909381
:104130006B03A0936C03B0936D0310928F031092E6
:104140009003109291031092920310924E031092DA
:104150004F03109250031092510381E08093520359
:1041600010927C0310925403109255031092560340
:104170001092570318861F82BE01675F7F4FCE01E2
:1041800007960E94111B8985823161F018861F8273
:1041900061E172E0CE0107960E9414100E9459104E
:1041A0001092520381E090E09E838D831092F10281
:1041B0001092F2021092F3021092F4028E010B5F41
:1041C0001F4F67EB71E0C8010E948E1A65EB71E02A
:1041D000C8010E948E1A63EB71E0C8010E948E1A1A
:1041E00069EB71E0C8010E948E1A6FEA71E0C801A4
:1041F0000E948E1A6DEA71E0C8010E948E1A6BEA65
:1042000071E0C8010E948E1A61EB71E0C8010E9442
:104210008E1A6FE471E0C8010E940B1A63E571E029
:10422000C8010E940B1A67E571E0C8010E940B1AD1
:104230006BE571E0C8010E940B1A66E471E0C801E9
:104240000E940B1A6AE471E0C8010E940B1A63E62F
:1042500071E0C8010E940B1A67E671E0C8010E9474
:104260000B1A6BE671E0C8010E940B1A6FE571E052
:10427000C8010E940B1A69E673E0C8010E948E19FA
:1042800067E371E0C8010E948E1A69E371E0C8011A
:104290000E948E1A6BE371E0C8010E948E1A6DE3D2
:1042A00071E0C8010E948E1A6FE371E0C8010E949C
:1042B0008E1A61E471E0C8010E948E1A62E773E011
:1042C000C8010E948E1960E771E0C8010E948E1A31
:1042D00060E773E0C8010E948E1A6EE471E0C801C5
:1042E0000E948E196FE671E0C8010E94111B6CEBF1
:1042F00071E0C8010E94111B6BEB71E0C8010E94C4
:10430000111B6DE271E0C8010E94111B6CE271E0AB
:10431000C8010E94111B6EE271E0C8010E948E1953
:1043200063E371E0C8010E948E1A61E371E0C80185
:104330000E948E1A6FE271E0C8010E948E1A65E336
:1043400071E0C8010E948E1A62E873E0C8010E9401
:104350008E196DE773E0C8010E948E1961E873E061
:10436000C8010E948E196AEA71E0C8010E94111BFF
:1043700060E873E0C8010E948E1969EA71E0C80123
:104380000E94111B63E7E62E61E0F62EAD80BE8031
:10439000C5010E948C19D82EC50188539F4F0E94D9
:1043A0008C19C82EC50180579E4F0E948C19DC10B5
:1043B0001BC1D81219C1D701DC926091F102709132
:1043C000F2028091F3029091F402D7014D917D01A8
:1043D0000E942E076093F1027093F2028093F30221
:1043E0009093F4028D819E8101969E838D83B9EA1C
:1043F000EB16B1E0FB0651F663E773E0C8010E94DB
:104400008E1962E771E0C8010E9414106EE573E036
:10441000C8010E948E1963E471E0C8010E94111B5B
:104420006DE573E0C8010E948E196CE573E0C80168
:104430000E948E1960E673E0C8010E948E1965E43F
:1044400071E0C8010E94111B64E471E0C8010E9480
:10445000111B6FE573E0C8010E948E196BE473E0D5
:10446000C8010E948E1968E271E0C8010E94111B08
:1044700069E271E0C8010E94111B6BE271E0C801A2
:104480000E94111B6AE271E0C8010E94111B66E4E0
:1044900073E0C8010E948E194090F1025090F20220
:1044A0006090F3027090F40219821A821B821C82BF
:1044B000FE0131966F01AD80BE80C5010E948C194E
:1044C000E82EC50188539F4F0E948C19982EC50174
:1044D00080579E4F0E948C19E910BAC0E812B8C0EC
:1044E000D601EC926091F1027091F2028091F30298
:1044F0009091F402D6014D916D010E942E076093B8
:10450000F1027093F2028093F3029093F4028D8192
:104510009E8101969E838D83C016D10661F68981A6
:104520009A81AB81BC81481659066A067B0609F45C
:10453000F0C062E370E080E090E00E94330585ED1A
:1045400096E00E940B0B62E370E080E090E00E9436
:104550003305E09161048E2F90E0FC01EE0FFF1F08
:10456000E80FF91FE75CFB4F808186FF02C08F7B5D
:104570008083E0915E048E2F90E0FC01EE0FFF1F20
:10458000E80FF91FE75CFB4F808186FF02C08F7B3D
:10459000808364E670E080E090E00E94330512E0E2
:1045A00060E0812F0E94BD041F5F1536C9F761E0EE
:1045B0008DE00E94BD0462E370E080E090E00E9424
:1045C00033050FB6F894A8958091600088618093B8
:1045D0006000109260000FBE89EB96E00E940B0B0A
:1045E00010E088EC90E06CC06D2D682B6C21D82217
:1045F0006D29F7016083C5010E942B0F8D819E817B
:10460000D7016C9188539F4F0E942B0F8D819E8103
:10461000F701608180579E4F0E942B0F61E08DE073
:104620000E94BD0460E08DE00E948F0464E670E0AB
:1046300080E090E00E94330561E08DE00E948F04ED
:1046400062E370E080E090E00E943305A895B5CE6B
:10465000FE2CF82AF920E822FE28F601F0826F2DC0
:10466000C5010E942B0F8D819E816F2D88539F4F16
:104670000E942B0F8D819E816F2D80579E4F0E942F
:104680002B0F61E08DE00E94BD0460E08DE00E9490
:104690008F0464E670E080E090E00E94330561E002
:1046A0008DE00E948F0462E370E080E090E00E9461
:1046B0003305A89517CF113009F093CF88E592E024
:1046C00003E06C01990FEE08FF0861E08DE00E94A5
:1046D0008F04C701B6010E94330560E08DE00E949F
:1046E0008F0468EC70E080E090E00E943305015098
:1046F00061F760E971E080E090E0123021F468E752
:1047000075E080E090E00E9433051F5F133099F65A
:1047100063CF809137019091380190935B03809330
:104720005A0380913D0190913E01909359038093EB
:10473000580380912E018093530368E770E080E076
:1047400090E00E9433050E94BA0C68E770E080E0B8
:1047500090E00E9433050E94BA0C60E08091BC0199
:104760000E94BD0460E08091BB010E94BD0460E036
:1047700080916F010E94BD04809182038823D1F053
:1047800080917D03882329F062E08091AA010E9434
:10479000BD0410E009E08091A901181758F4019FA9
:1047A000F0011124ED58FE4F62E080810E94BD04AB
:1047B0001F5FF1CF80917303882329F062E080911D
:1047C00072010E94BD0480914B0381110E94B008C8
:1047D00080915E03882329F062E0809143010E946A
:1047E000BD0480916003882351F062E0809145010F
:1047F0000E94BD0462E0809144010E94BD0460916A
:104800002D0170E081E694E00E94D20660912C01B7
:1048100070E08EE594E00E94D206609137017091BD
:10482000380181E694E00E949B0660913D01709101
:104830003E018EE594E00E949B0664E670E080E015
:1048400090E00E943305A8958CE993E00E94AE05A4
:10485000F82EBFEF8B1729F0ECE28E1315C10E94E2
:104860005D128091360381110DC00E940E05609388
:10487000320370933303809334039093350381E0C4
:1048800080933603C0903203D0903303E09034031A
:10489000F0903503C114D104E104F10409F419C105
:1048A0000E940E056C197D098E099F090E945F34D4
:1048B00020E034E244E759E40E9477366B017C0142
:1048C0000E940E0560933203709333038093340388
:1048D00090933503C0928F03D0929003E09291039E
:1048E000F09292038091BC010E94F9046C019093B4
:1048F0008E0380938D038091BB010E94F9047C019B
:1049000090938C0380938B030091B9011091BA01AD
:104910002091B7013091B8014091B5015091B60195
:104920006091B3017091B401C6010E947207609357
:104930008703709388038093890390938A0300917F
:10494000B1011091B2012091AF013091B0014091BD
:10495000AD015091AE016091AB017091AC01C70106
:104960000E9472076093830370938403809385038E
:104970009093860320918203222309F4CAC0809178
:104980008103882309F4B3C08091AA010E946604C0
:10499000AC0191E04115510509F490E0809180034C
:1049A000981311C020917F0327FB222720F931E0C3
:1049B000452B09F030E0231306C080917E03A1E06F
:1049C0008A2780937E0380917F0390FB87F98093F1
:1049D0007F0380917E03882309F49DC0E0908003CB
:1049E000C090A90110928303109284031092850352
:1049F0001092860310928703109288031092890305
:104A000010928A0303E711E0D12CF12CCD1409F4A4
:104A100082C0F80180810E9466048E159F0581F591
:104A2000D80111962D913D914D915C911497609113
:104A300083037091840380918503909186030E9483
:104A40000B36609383037093840380938503909364
:104A50008603F8012581368147815085609187035F
:104A6000709188038091890390918A030E940B368C
:104A700060938703709388038093890390938A03DC
:104A8000D394075F1F4FC2CF082F880F110BC801A7
:104A90000E943B37892B51F483ED8F0D823030F02B
:104AA000FAE3FF1619F02FE5F212DBCEC8010E94DF
:104AB000503790913103E92FF0E0EB50FD4F8083A8
:104AC00082E0890F8C3308F0CCCE9F5F9093310346
:104AD000C8CE0E940E056093320370933303809317
:104AE000340390933503C12CD12C7601F3CE809101
:104AF0007D03882359F08091AA010E9466043091B9
:104B0000800321E03817190609F020E020937E0386
:104B100060CF10927E0380917C03882331F0109146
:104B20004B03F12E04E0111104C080917F038D7FAF
:104B30006DC00E9466058090470390904803A09046
:104B40004903B0904A03681979098A099B096E32B2
:104B500071058105910508F0F12C015051F7FF20F6
:104B600009F41BC580917F03816080937F032091AE
:104B7000420330914303253631050CF400C58260B1
:104B800080937F038091440390914503853691057E
:104B90000CF4FBC480917F03846080937F031091A9
:104BA0007F0311FF30C060913E0370913F03072ED9
:104BB000000C880B990B0E94613420E030E04AEF32
:104BC00053E40E9477366093830370938403809349
:104BD0008503909386036091400370914103072EF3
:104BE000000C880B990B0E94613420E030E04AEF02
:104BF00053E40E9477366093870370938803809311
:104C0000890390938A03812F12FB83F980937F039A
:104C10008091870390918803A0918903B0918A03C2
:104C20008093780390937903A0937A03B0937B03E6
:104C30008091830390918403A0918503B0918603B2
:104C40008093740390937503A0937603B0937703D6
:104C500080917303882371F0809172010E94660431
:104C6000892B41F4109278031092790310927A0301
:104C700010927B0380917203882309F49EC4E09014
:104C80007003F0907103C0907001D0907101809119
:104C90006F010E94F9048C0190936F0380936E035F
:104CA000B601DD0C880B990B0E9461344B015C014D
:104CB000B801110F880B990B0E946134A501940172
:104CC0000E940A362B013C01B701FF0C880B990B9F
:104CD0000E946134A50194010E940A369B01AC0137
:104CE000C301B2010E94773620E030E0A9010E94A2
:104CF0000B366B017C0120E030E0A9010E945A34A0
:104D000087FD57C420E030E040E85FE3C701B6010B
:104D10000E941F37181634F4C12CD12C30E8E32E32
:104D20003FE3F32EC0926A03D0926B03E0926C03D0
:104D3000F0926D0380916B0190916C01A0916D01D7
:104D4000B0916E018A879B87AC87BD878090670191
:104D500090906801A0906901B0906A018091630110
:104D600090916401A0916501B09166018E879F8743
:104D7000A88BB98B80916A0390916B03A0916C030F
:104D8000B0916D038A8B9B8BAC8BBD8B20E030E0A8
:104D9000A901C501B4010E941F37750164011816ED
:104DA00024F0F7FAF094F7F8F09420E030E0A9014D
:104DB0006E857F85888999890E941F374E845F841C
:104DC00068887988181624F077FA709477F87094C8
:104DD00020E030E0A9016A857B858C859D850E9455
:104DE0001F3718164CF08A859B85AC85BD85B05859
:104DF0008A879B87AC87BD87A30192016A897B89DB
:104E00008C899D890E94C034562E472E382E292E1B
:104E1000C701B60190582A893B894C895D890E9457
:104E2000C0343B018C01C0907403D0907503E090B6
:104E30007603F090770320E030E0A901C701B601C6
:104E40000E945A34882309F4D1C320E030E0A9013C
:104E5000C701B6010E941F37A701960118160CF072
:104E6000B9C3652D742D832D922D0E94C03420E08E
:104E700030E0A9010E940B366B017C01A70196016D
:104E8000B301C8010E941F3718160CF4B3C3A70161
:104E90009601652D742D832D922D0E945A3487FF23
:104EA00004C0C52CD42CE32CF22CC0927403D092F5
:104EB0007503E0927603F0927703209178033091A6
:104EC000790340917A0350917B036A857B858C85B9
:104ED0009D850E94C0342A893B894C895D890E9446
:104EE000C0341B018C012A893B894C895D896A8504
:104EF0007B858C859D8590580E94C0342B013C0198
:104F00009B01AC01B101C8010E945A3487FD16C053
:104F10002A853B854C855D856A897B898C899D893D
:104F20000E94C0342B013C019B01AC01B101C801BE
:104F30000E941F37181614F02101380120E030E0DC
:104F4000A901C701B6010E941F3787FD04C08E84E6
:104F50009F84A888B98820915F01309160014091B9
:104F600061015091620160E070E080E89FE30E947F
:104F70000A366A877B878C879D8720E030E0A9010D
:104F8000C701B6010E941F37A701960118160CF041
:104F900050586A857B858C859D850E94C0346A87C0
:104FA0007B878C879D8720E030E0A901C501B40193
:104FB0000E941F3718160CF020C327E137EB41ED94
:104FC00058E3C501B4010E940B369B01AC016A8510
:104FD0007B858C859D850E9477369B01AC0160E0C6
:104FE00070E080E89FE30E940A364B015C0120E0FC
:104FF00030E0A9010E941F3718161CF0812C912C5B
:105000005401A5019401B201C3010E94C0344B01B7
:105010005C0120E030E040E85FEB0E945A3487FDFD
:10502000F5C220E030E040E85FE3C501B4010E9432
:105030001F37181634F4812C912C20E8A22E2FE370
:10504000B22E8092780390927903A0927A03B09264
:105050007B0320E030E0A901C701B6010E945A3469
:1050600087FF10C080916903882361F0B7FAB0947C
:10507000B7F8B0948092780390927903A0927A0363
:10508000B0927B0380918F0390919003A091910344
:10509000B09192038A879B87AC87BD8780915B0123
:1050A00090915C01A0915D01B0915E018E8B9F8B10
:1050B000A88FB98F8090570190905801A090590106
:1050C000B0905A018091530190915401A0915501E3
:1050D000B09156018A8F9B8FAC8FBD8F40904F014E
:1050E00050905001609051017090520180914E019A
:1050F000811193C21E8E1F8E90E898A3AFE3A9A3DF
:105100008091650390916603A0916703B091680355
:105110008E879F87A88BB98B20E030E0A901C3015F
:10512000B2010E941F3718161CF0412C512C32017D
:10513000A30192016E8D7F8D88A199A10E94C03438
:105140002B013C0120E030E0A9016A8D7B8D8C8D24
:105150009D8D0E941F37181624F01A8E1B8E1C8EF0
:105160001D8E20E030E0A901C501B4010E941F3767
:1051700018161CF0812C912C5401A50194016E8D00
:105180007F8D88A199A10E94C0344B015C0120E071
:1051900030E0A9016E897F89888D998D0E941F3723
:1051A000181624F01E8A1F8A188E198E2E853F85A8
:1051B00048895989C701B6010E940A36D62EC72EE2
:1051C000382E292E20E030E0A9016E857F85888960
:1051D00099890E945A34811129C2C501B40190589D
:1051E0002A853B854C855D850E94C0347B018C01FE
:1051F0002D2D3C2D432D522D0E941F371816B4F033
:10520000A30192016A857B858C859D850E94C034AF
:105210007B018C012D2D3C2D432D522D0E945A34A3
:1052200087FD04C0ED2CFC2C032D122D9701A80145
:105230006E857F85888999890E940B366E877E8B63
:105240001C018E859E89D10180936503909366032E
:10525000A0936703B093680380904A0190904B013C
:10526000A0904C01B0904D01C0904601D0904701F4
:10527000E0904801F0904901409078035090790304
:1052800060907A0370907B03809161039091620338
:10529000A0916303B09164038A8F9B8FAC8FBD8F05
:1052A00020E030E0A901C701B6010E941F3718169F
:1052B0001CF0C12CD12C7601A70196016E8D7F8D3B
:1052C00088A199A10E94C0346B017C0120E030E0EC
:1052D000A901C501B4010E941F3718161CF0812CCA
:1052E000912C54012A8D3B8D4C8D5D8DC301B201F3
:1052F0000E940A36762E672E582E492E20E030E086
:10530000A9016A8D7B8D8C8D9D8D0E945A348111EF
:1053100026C22A853B854C855D85C701B60190581C
:105320000E94C0345B018C01272D362D452D542D54
:105330000E941F371816B4F0A70196016A857B8575
:105340008C859D850E94C0345B018C01272D362DF4
:10535000452D542D0E945A3487FD04C0A72CB62C2D
:10536000052D142D9501A8016A8D7B8D8C8D9D8D49
:105370000E940B365B018C01C501D801809361034B
:1053800090936203A0936303B093640380917203CC
:10539000882309F44EC0CA88DB88EC88FD88F7FAB8
:1053A000F094F7F8F0942E853E89A101C701B6016B
:1053B0000E941F3718160CF463C22E853E89A10186
:1053C0006A897B898C899D890E945A3487FF06C02F
:1053D0009A899E87AB89AE8B2C883D888E859E8965
:1053E000D1018093650390936603A0936703B09304
:1053F00068039501A801C701B6010E941F3718165E
:1054000084F09501A8016A897B898C899D890E9415
:105410005A346501780187FF04C0CA88DB88EC88AC
:10542000FD88C0926103D0926203E0926303F09220
:105430006403809160038823E1F0809145010E941C
:10544000660420915F032817190629F480917F03D1
:105450008F7E80937F03809144010E946604209197
:105460005F032817190629F480917F0380618093D8
:105470007F0380915E03882311F1809143010E9494
:10548000660420915D032817190609F0FDC180917B
:105490005C03882321F080917F0385FF10C0109268
:1054A00065031092660310926703109268031092CE
:1054B000610310926203109263031092640380915F
:1054C0007F0383FF10C01092650310926603109251
:1054D00067031092680310926103109262031092A6
:1054E00063031092640384FF10C01092650310924E
:1054F0006603109267031092680310926103109282
:105500006203109263031092640380906103909091
:105510006203A0906303B090640320E030E0A9012F
:10552000C501B4010E941F3718160CF0B3C12FE655
:1055300032E143E85AE3C501B4010E941F3787FFF7
:10554000B4C1C0906503D0906603E0906703F0900B
:10555000680320E030E0A901C701B6010E941F37AF
:1055600018160CF088C22FE632E143E85AE3C7016F
:10557000B6010E941F3787FF98C160E09CC12C399B
:105580003F4F0CF0FFCA8D7FFBCA8C399F4F0CF048
:1055900006CB80917F038B7F00CB809146038823CD
:1055A00019F010917F03117080917F0310FB83F934
:1055B000BECAC12CD12C7601B5CB80E090E0A0E82A
:1055C000BFE380936A0390936B03A0936C03B09343
:1055D0006D03B0CBB301C8010E94C0349B01AC0184
:1055E00060E070E0CB010E940A3646CCC12CD12C81
:1055F000760144CC6301780158CCA501940167E1A0
:1056000077EB81ED98E30E940A36DFCC812C912C58
:1056100090E8A92E9FEBB92E14CDBA89BE8FEB89E5
:10562000EF8FFC89F8A32D8929A36ACD20E030E013
:10563000A9016E857F85888999890E941F37181670
:105640000CF048C02A8D3B8D4C8D5D8D6E8D7F8D0D
:1056500088A199A10E94C03490582A853B854C8529
:105660005D850E94C0347B018C012D2D3C2D432D86
:10567000522D0E941F371816B4F0A30192016A85BB
:105680007B858C859D850E94C0347B018C012D2DEE
:105690003C2D432D522D0E945A3487FD04C0ED2C21
:1056A000FC2C032D122D9701A8016E857F8588891A
:1056B00099890E940B366E877E8B1C0120E030E0BA
:1056C000A9010E945A3487FFBCCD1E861E8A212C58
:1056D000312CB7CDC501B40190582A853B854C8546
:1056E0005D850E94C0347B018C012D2D3C2D432D06
:1056F000522D0E941F371816F4F02E893F89488DCD
:10570000598D6E8D7F8D88A199A10E94C0342A8504
:105710003B854C855D850E94C0347B018C012D2D1D
:105720003C2D432D522D0E945A3487FD04C0ED2C90
:10573000FC2C032D122D9701A8016E857F85888989
:1057400099890E940B366E877E8B1C0120E030E029
:10575000A9010E941F3718160CF4B7CF72CDA5010E
:1057600094016E8D7F8D88A199A10E94C0344B0158
:105770005C0120E030E0A9016A8D7B8D8C8D9D8DD0
:105780000E941F3718160CF03FC0C501B401905895
:105790002A853B854C855D850E94C0345B018C0168
:1057A000272D362D452D542D0E941F371816B4F085
:1057B000A70196016A857B858C859D850E94C034F2
:1057C0005B018C01272D362D452D542D0E945A3416
:1057D00087FD04C0A72CB62C052D142D9501A8011A
:1057E0006A8D7B8D8C8D9D8D0E940B365B018C01AB
:1057F00020E030E0A9010E945A3487FFBDCDA12CE2
:10580000B12C00E010E0B8CDC701B60190582A8550
:105810003B854C855D850E94C0347B018C01272D22
:10582000362D452D542D0E941F371816B4F0A501B2
:1058300094016A857B858C859D850E94C0347B019F
:105840008C01272D362D452D542D0E945A3487FD6D
:1058500004C0E72CF62C052D142D9701A8016A8DA4
:105860007B8D8C8D9D8D0E940B365B018C0120E021
:1058700030E0A9010E941F3718160CF4C0CF7CCD70
:10588000CE86DE8A1701AACD80917F038062809345
:105890007F0315CE2FE632E143E85AEBC501B40190
:1058A0000E945A3418160CF44CCE80917C03882345
:1058B00009F4EDC061E08DE00E948F04E0914101A8
:1058C000F0914201FB8BEA8B80913F019091400166
:1058D0009F878E8720903D0130903E01A0913B0133
:1058E000B0913C01BB87AA87E0903901F0903A0162
:1058F0000091370110913801809165039091660302
:10590000A0916703B09168038E8B9F8BA88FB98F8E
:105910009C01AD01C501B4010E940B362B013C0175
:1059200020E030E0A9010E945A348111BFC0B801C3
:10593000012E000C880B990B0E9461340E94E936FD
:10594000AB012A853B8537FF03C03195219531098D
:10595000F801E21BF30B4E175F073CF0F801E20F72
:10596000F31F4E175F070CF4FB01F0935B03E0930A
:105970005A03A50194016E897F89888D998D0E94B3
:105980000A366B017C0120E030E0A9010E945A3404
:105990008111DCC0B101032C000C880B990B0E9413
:1059A00061340E94E936AB012A893B8937FF03C085
:1059B000319521953109F101E21BF30B4E175F0779
:1059C0003CF0F101E20FF31F4E175F070CF4FB01EF
:1059D000F0935903E09358030E9466054B015C0164
:1059E00080917C03882341F098EB89169BE099060F
:1059F000A104B10408F043C18091370190913801AE
:105A000090935B0380935A0380913D0190913E01F6
:105A100090935903809358030091350110913601FA
:105A2000101611061CF0A1E0A0937C03C090870320
:105A3000D0908803E0908903F0908A0320E030E062
:105A4000A901C701B6010E941F3718160CF0D1C07A
:105A50002FE632E143E85AE3C701B6010E945A3407
:105A600087FDD2C010925403109255031092560332
:105A70001092570304C12FE632E143E85AEBC70105
:105A8000B6010E945A3418160CF477CD0ECF0E943E
:105A9000660526E930E040E050E00E94D9356B34DD
:105AA00071058105910508F405CF67CD20E030E050
:105AB000A901C301B2010E941F37181614F5B701DE
:105AC000600F711F072E000C880B990B0E94613428
:105AD0006B017C016A857B85600F711F072E000CAE
