:100000000C9420030C9448030C9448030C9448036C
:100010000C9448030C9448030C9448030C94480334
:100020000C9448030C9448030C9448030C94070D5B
:100030000C9448030C9448030C9448030C94480314
:100040000C94650C0C9448030C94D50C0C94AF0CD8
:100050000C9448030C9448030C9448030C944803F4
:100060000C9448030C9448034E414E494E49545950
:10007000494E46CDCCCC3D0AD7233C17B7D1387773
:10008000CC2B329595E6241FB14F0A000020410089
:1000900000C84200401C4620BCBE4CCA1B0E5AAED3
:1000A000C59D7400407A10F35A00A0724E180900E2
:1000B00010A5D4E80000E87648170000E40B5402CD
:1000C0000000CA9A3B000000E1F505000080969808
:1000D00000000040420F000000A086010000001058
:1000E0002700000000E8030000000064000000009A
:1000F000000A00000000000100000000002C76D87B
:1001000088DC674F0823DFC1DFAE59E1B1B796E560
:10011000E3E453C63AE651997696E8E6C28426EBC4
:10012000898C9B62ED407C6FFCEFBC9C9F40F2BAD7
:10013000A56FA5F490055A2AF75C936B6CF9676D6F
:10014000C11BFCE0E40D47FEF520E6B500D0ED90C4
:100150002E0300943577050080841E080000204E91
:100160000A000000C80C333333330F986E1283112A
:1001700041EF8D2114893BE65516CFFEE6DB18D101
:10018000844B381BF77C1D901DA4BBE424203284D3
:10019000725E228100C9F124ECA1E53D272252497B
:1001A0004748545F4D4F544F525F434F4E54524F48
:1001B0004C4C45525F50494E223A2000224C454655
:1001C000545F4D4F544F525F434F4E54524F4C4C1F
:1001D00045525F50494E223A2000224A4F595F59FA
:1001E0005F50494E223A2000224A4F595F585F50D3
:1001F000494E223A2000225052494E545F564152F5
:100200004941424C45535F494E54455256414C5F1B
:100210004D494C4C4953223A200022535045454405
:100220005F4B4E4F425F50494E223A2000225343CB
:10023000414C455F414343454C5F574954485F53E8
:1002400050454544223A20002253504545445F4BD7
:100250004E4F425F464153545F56414C223A200074
:100260002253504545445F4B4E4F425F534C4F57CE
:100270005F56414C223A2000225553455F5350456A
:1002800045445F4B4E4F42223A2000225249474894
:10029000545F4D4F544F525F46415354223A200011
:1002A0002252494748545F4D4F544F525F534C4F71
:1002B00057223A20002252494748545F4D4F544F2D
:1002C000525F43454E544552223A2000224C454647
:1002D000545F4D4F544F525F46415354223A2000D1
:1002E000224C4546545F4D4F544F525F534C4F572D
:1002F000223A2000224C4546545F4D4F544F525FE6
:1003000043454E544552223A20002252455645520A
:1003100053455F5455524E5F494E5F5245564552C4
:100320005345223A2000225343414C455F545552D5
:100330004E494E475F5748454E5F4D4F56494E47D1
:10034000223A2000225455524E5F535045454422D4
:100350003A200022464153544553545F4241434B97
:1003600057415244223A20002246415354455354A7
:100370005F464F5257415244223A2000224445439F
:10038000454C45524154494F4E5F5455524E494E8B
:1003900047223A200022414343454C4552415449AB
:1003A0004F4E5F5455524E494E47223A2000224448
:1003B0004543454C45524154494F4E5F4241434BA2
:1003C00057415244223A200022414343454C455272
:1003D0004154494F4E5F4241434B57415244223AA8
:1003E000200022444543454C45524154494F4E5FFD
:1003F000464F5257415244223A200022414343453E
:100400004C45524154494F4E5F464F52574152441A
:10041000223A200022595F444541445A4F4E45221A
:100420003A200022434F4E54524F4C5F444F574E98
:10043000223A200022434F4E54524F4C5F43454EC8
:100440005445525F59223A200022434F4E54524F96
:100450004C5F5550223A200022585F444541445A8F
:100460004F4E45223A200022434F4E54524F4C5F8C
:100470004C454654223A200022434F4E54524F4C92
:100480005F43454E5445525F58223A200022434F65
:100490004E54524F4C5F5249474854223A20007BF9
:1004A0002263757272656E742073657474696E6709
:1004B000732C2076657273696F6E3A223A2000229F
:1004C00076616C7565223A20220022736574746926
:1004D0006E67223A2022007B22726573756C74224B
:1004E0003A20226368616E676522007B2272657321
:1004F000756C74223A20226E6F206368616E6765A6
:10050000227D007B22726573756C74223A202273FF
:1005100061766564227D002273706565644B6E6F41
:100520006256616C223A20002272696768744D6FCE
:10053000746F72577269746556616C223A2000229A
:100540006C6566744D6F746F72577269746556612D
:100550006C223A2000227370656564546F4472699E
:100560007665223A2000227475726E546F44726967
:100570007665223A200022737065656450726F635D
:100580006573736564223A2000227475726E50722E
:100590006F636573736564223A200022737065652A
:1005A00064496E707574223A2000227475726E4927
:1005B0006E707574223A2000226A6F795956616C08
:1005C000223A2000226A6F795856616C223A200044
:1005D0007B2263757272656E742076616C756573CB
:1005E0002C206D696C6C69733A223A20000000007F
:1005F00000240027002A0000000000250028002B0E
:1006000000040404040404040402020202020203BB
:1006100003030303030102040810204080010204C5
:100620000810200102040810200000000800020148
:100630000000030407000000000000000000C30DDC
:1006400011241FBECFEFD8E0DEBFCDBF14E0A0E085
:10065000B1E0EAECFCE402C005900D92A032B107D3
:10066000D9F725E0A0E2B4E001C01D92A836B20798
:10067000E1F713E0C0E2D3E004C02197FE010E943D
:100680008F23CF31D107C9F70E944A0E0C946326FD
:100690000C94000090E0FC01E75DF94F2491FC010F
:1006A000EB5EF94F3491FC01EF5FF94FE491EE23DB
:1006B000C9F0222339F0233001F1A8F4213019F1D7
:1006C000223029F1F0E0EE0FFF1FE950FA4FA5911B
:1006D000B4918FB7F894EC91611126C030953E2308
:1006E0003C938FBF08952730A9F02830C9F02430FB
:1006F00049F7809180008F7D03C0809180008F77C3
:1007000080938000DFCF84B58F7784BDDBCF84B545
:100710008F7DFBCF8091B0008F778093B000D2CFD8
:100720008091B0008F7DF9CF3E2BDACFCF93DF934E
:1007300090E0FC01EB5EF94F24918F5F994FFC0133
:1007400084918823D1F090E0880F991FFC01E35138
:10075000FA4FA591B491FC01E950FA4FC591D4919B
:1007600061110EC09FB7F8948C91E22FE0958E2313
:100770008C932881E223E8839FBFDF91CF91089576
:100780008FB7F894EC91E22BEC938FBFF6CF8E30BD
:1007900008F08E508770806480937C0080917A008E
:1007A000806480937A0080917A0086FDFCCF8091EE
:1007B00078009091790008953FB7F894809194045F
:1007C00090919504A0919604B091970426B5A89BAA
:1007D00005C02F3F19F00196A11DB11D3FBFBA2FD3
:1007E000A92F982F8827BC01CD01620F711D811D93
:1007F000911D42E0660F771F881F991F4A95D1F718
:100800000895AF92BF92CF92DF92EF92FF920F9333
:100810001F93CF93DF936C017B018B01040F151F96
:10082000EB015E01AE18BF08C017D10759F06991FE
:10083000D601ED91FC910190F081E02DC601099562
:10084000892B79F7C501DF91CF911F910F91FF900F
:10085000EF90DF90CF90BF90AF900895FC01538D43
:10086000448D252F30E0842F90E0821B930B54178A
:1008700010F0CF96089501970895FC01918D828D17
:10088000981761F0A28DAE0FBF2FB11D5D968C91B0
:10089000928D9F5F9F73928F90E008958FEF9FEFEF
:1008A0000895FC01918D828D981731F0828DE80FAB
:1008B000F11D858D90E008958FEF9FEF0895FC0165
:1008C000918D228D892F90E0805C9F4F821B910932
:1008D0008F739927089588E994E00E945F0421E0CE
:1008E000892B09F420E0822F089580E090E0892B85
:1008F00029F00E946B0481110C9400000895FC0102
:10090000A48DA80FB92FB11DA35ABF4F2C91848D70
:1009100090E001968F739927848FA689B7892C93CD
:10092000A089B1898C91837080648C93938D848D20
:10093000981306C00288F389E02D80818F7D808323
:100940000895EF92FF920F931F93CF93DF93EC01E3
:1009500081E0888F9B8D8C8D98131AC0E889F98966
:10096000808185FF15C09FB7F894EE89FF89608369
:10097000E889F98980818370806480839FBF81E0EA
:1009800090E0DF91CF911F910F91FF90EF9008952C
:10099000F62E0B8D10E00F5F1F4F0F731127E02E07
:1009A0008C8D8E110CC00FB607FCFACFE889F9893F
:1009B000808185FFF5CFCE010E947F04F1CFEB8DC2
:1009C000EC0FFD2FF11DE35AFF4FF0829FB7F89413
:1009D0000B8FEA89FB8980818062CFCF0F931F93B1
:1009E000CF93DF938C01D0E0C0E0F801EC0FFD1F46
:1009F0006491662341F088E994E00E94A104892B68
:100A000011F02196F2CFCE01DF91CF911F910F917E
:100A10000895CF93DF93EC01888D8823B9F0AA89DC
:100A2000BB89E889F9898C9185FD03C0808186FDA9
:100A30000DC00FB607FCF7CF8C9185FFF2CF8081F8
:100A400085FFEDCFCE010E947F04E9CFDF91CF91EA
:100A50000895DC01EC91EC3090F511968C91119792
:100A600028E830E0281B310987FD3395220F331F1A
:100A7000220F331F6217730784F012968C9128E5BA
:100A800032E0281B310987FD3395220F331F220FD7
:100A9000331F621773070CF49B0122503109220F98
:100AA000331F4FB7F8948E2F90E0FC01EE0FFF1F1D
:100AB000E80FF91FEB5CFA4F328321834FBF089593
:100AC0001F93CF93DF93EC01162F88818C3008F0B1
:100AD0004EC061E0812F0E9496038881282F30E06C
:100AE000F901EE0FFF1FE20FF31FEB5CFA4F1F73CC
:100AF0006081607C612B608319821A822CE0622FF6
:100B00000E948323829FB001112430E020E0AB01DA
:100B1000420F531FFA01EE0FFF1FE40FF51FEB5CAE
:100B2000FA4F908196FD16C02F5F3F4F2C30310554
:100B300071F781110FC01092800082E080938100D4
:100B40001092850010928400B19A80916F008260AB
:100B500080936F00E8818E2F90E0FC01EE0FFF1F65
:100B6000E80FF91FEB5CFA4F8081806480838881F5
:100B7000DF91CF911F9108952F923F924F925F92F4
:100B80006F927F928F929F92AF92BF92CF92DF929D
:100B9000EF92FF920F931F93CF93DF93EC017A01B3
:100BA000690117FF02C010E000E06C157D050CF034
:100BB00006C11701201A310A812C912C5401C2154B
:100BC000D3056CF5072E000C880B990B0E94BB20F7
:100BD0004B015C01BE010D2E000C880B990B0E948D
:100BE000BB20A50194010E9464222B013C01B101AC
:100BF000330C880B990B0E94BB20A50194010E9425
:100C000064229B01AC01C301B2010E94D12220E009
:100C100030E040E85FE30E9464224B015C010E0D6E
:100C20001F1D0C171D0784F5B601DD0C880B990BF1
:100C30000E94BB206B017C01BE01DD0F880B990B6C
:100C40000E94BB20A70196010E9464224B015C0117
:100C5000B7FAB094B7F8B094B801110F880B990B9C
:100C60000E94BB20A70196010E9464229B01AC0157
:100C7000C501B4010E94D12220E030E040E85FE3EA
:100C80000E9465224B015C0120E030E040E85FEB10
:100C9000C501B4010E94B42087FD83C020E030E08C
:100CA00040E85FE3C501B4010E94792318160CF4F3
:100CB0007FC0C501B401DF91CF911F910F91FF90CB
:100CC000EF90DF90CF90BF90AF909F908F907F90EC
:100CD0006F905F904F903F902F90089518012E0CC9
:100CE0003F1C812C912C54012C163D066CF5072ECF
:100CF000000C880B990B0E94BB204B015C01BE01CC
:100D00000D2E000C880B990B0E94BB20A5019401AD
:100D10000E9464222B013C01B101330C880B990B1A
:100D20000E94BB20A50194010E9464229B01AC019A
:100D3000C301B2010E94D12220E030E040E85FE32D
:100D40000E9464224B015C01E01AF10ACE15DF0516
:100D50000CF09ACFB601DD0C880B990B0E94BB20DA
:100D60004B015C01BE01DD0F880B990B0E94BB207B
:100D7000A50194010E9464222B013C0177FA709432
:100D800077F87094B701FF0C880B990B0E94BB2079
:100D9000A50194010E9464229B01AC01C301B20130
:100DA00069CF812C912C90E8A92E9FEBB92E81CF91
:100DB000812C912C80E8A82E8FE3B82E7ACFC6160E
:100DC000D7060CF48BCF812C912C540172CFFC01EF
:100DD00001900020E9F73197AF01481B590BBC0186
:100DE00088E994E00C9401048F929F92AF92BF9295
:100DF0000F931F93CF93DF93CDB7DEB7A1970FB6B5
:100E0000F894DEBF0FBECDBF19A2423008F44AE00D
:100E10008E010F5D1F4F842E912CB12CA12CA501AA
:100E200094010E943322E62FB901CA01EA30F4F49A
:100E3000E05DD801EE938D01232B242B252B79F730
:100E400090E080E0109719F0CD010E94E706A1968E
:100E50000FB6F894DEBF0FBECDBFDF91CF911F91CB
:100E60000F91BF90AF909F908F900895E95CE1CF74
:100E7000009711F00C94E70690E080E00895CF937E
:100E8000DF930E94E706EC0186E691E00E94E70608
:100E90008C0F9D1FDF91CF910895CF92DF92EF923B
:100EA000FF92CF93DF936C01990FEE08FF08F7FED6
:100EB00019C06DE288E994E00E94A104EC01662764
:100EC0007727CB016C197D098E099F094AE00E94A2
:100ED000F4068C0F9D1FDF91CF91FF90EF90DF9074
:100EE000CF9008954AE0C701B601DF91CF91FF90FE
:100EF000EF90DF90CF900C94F4064F925F926F9238
:100F00007F928F929F92AF92BF92CF92DF92EF9299
:100F1000FF92CF936B017C01AC019B010E947E2369
:100F2000882389F089E691E0CF91FF90EF90DF90E0
:100F3000CF90BF90AF909F908F907F906F905F9079
:100F40004F900C94E70646015701E894B7F82FEF4D
:100F50003FEF4FE75FE7C501B4010E947E23811197
:100F60000DC02FEF3FEF4FE75FE7C501B4010E94CF
:100F7000B42018161CF48DE691E0D6CF2FEF3FEF8A
:100F80004FE75FE4C701B6010E94792318161CF4ED
:100F900081E791E0C9CF2FEF3FEF4FE75FECC7014B
:100FA000B6010E94B42087FDF3CF20E030E0A90114
:100FB000C701B6010E94B420B12CA12C87FF0AC042
:100FC0006DE288E994E00E94A1045C01F7FAF094D4
:100FD000F7F8F09426E137EB41E558E3C701B60195
:100FE0000E9465222B013C010E944A236B017C0177
:100FF0000E94B9209B01AC01C301B2010E9464228E
:101000002B013C014AE0C701B6010E94F4067C01B5
:10101000EA0CFB1C6EE288E994E00E94A104E80E51
:10102000F91EC5E0C15019F120E030E040E251E482
:10103000C301B2010E941A212B013C010E944A23E4
:101040004B01B12CA12C4AE0C501B4010E94F40669
:10105000E80EF91EC501B4010E94B9209B01AC0144
:10106000C301B2010E9464222B013C01DBCFC70106
:10107000CF91FF90EF90DF90CF90BF90AF909F9077
:101080008F907F906F905F904F900895682F70E0E1
:1010900090E080E04AE00C94F4068FE994E00E942E
:1010A000EE0481E090E00E944D0789E194E00E9407
:1010B00038078DE894E00E94EE0480914A019091F7
:1010C0004B010E944D0789E194E00E94380788E7B0
:1010D00094E00E94EE0480914801909149010E94A1
:1010E0004D0789E194E00E94380787E694E00E946A
:1010F000EE0480914601909147010E944D0789E1DD
:1011000094E00E94380788E594E00E94EE04809104
:101110004C0190914D010E944D0789E194E00E949D
:10112000380789E494E00E94EE0480914201909196
:1011300043010E944D0789E194E00E94380784E34F
:1011400094E00E94EE0480914001909141010E9440
:101150004D0789E194E00E94380783E294E00E9401
:10116000EE0480913E0190913F010E944D0789E17C
:1011700094E00E94380784E194E00E94EE0480919C
:101180004401909145010E944D0789E194E00E943D
:1011900038078BEF93E00E94EE0460911501709187
:1011A000160180911701909118010E947D0789E135
:1011B00094E00E94380782EE93E00E94EE04609172
:1011C000190170911A0180911B0190911C010E94DC
:1011D0007D0789E194E00E94380788EC93E00E9443
:1011E000EE0460911D0170911E0180911F0190918C
:1011F00020010E947D0789E194E00E9438078EEA71
:1012000093E00E94EE04609121017091220180918F
:101210002301909124010E947D0789E194E00E94BE
:10122000380785E993E00E94EE0460910C0170910B
:101230000D0180910E0190910F010E947D0789E1BF
:1012400094E00E9438078CE793E00E94EE046091DE
:1012500010017091110180911201909113010E946F
:101260007D0789E194E00E94380788E693E00E94B8
:10127000EE046091250170912601809127019091E3
:1012800028010E947D0789E194E00E94380783E5E8
:1012900093E00E94EE046091290170912A018091EF
:1012A0002B0190912C010E947D0789E194E00E941E
:1012B000380784E493E00E94EE0460912D01709160
:1012C0002E0180912F01909130010E947D0789E1CC
:1012D00094E00E94380786E293E00E94EE04609159
:1012E0003A0170913B0180913C0190913D010E9437
:1012F0007D0789E194E00E9438078AE093E00E942C
:10130000EE04809173048111E2C08AE791E00E94AB
:10131000380789E194E00E94380784EF92E00E9448
:10132000EE0480915201909153010E944D0789E192
:1013300094E00E94380780EE92E00E94EE048091D3
:101340000401909105010E944D0789E194E00E94FB
:1013500038078CEC92E00E94EE0480910601909197
:1013600007010E944D0789E194E00E94380785EB50
:1013700092E00E94EE0480915001909151010E94F0
:101380004D0789E194E00E94380780EA92E00E94CC
:10139000EE0480910801909109010E944D0789E1B6
:1013A00094E00E9438078BE892E00E94EE0480915E
:1013B0000A0190910B010E944D0789E194E00E947F
:1013C000380788E792E00E94EE048091760481114C
:1013D00081C08AE791E00E94380789E194E00E9489
:1013E000380780E692E00E94EE04809138019091E7
:1013F00039010E944D0789E194E00E94380788E492
:1014000092E00E94EE0480917404909175040E9411
:101410004D0789E194E00E9438078DE292E00E9436
:10142000EE0480911401811158C08AE791E00E9476
:10143000380789E194E00E9438078AE192E00E942F
:10144000EE04809137010E94460889E194E00E94F1
:10145000380786EF91E00E94EE048091020190919E
:1014600003010E944D0789E194E00E94380788EE4D
:1014700091E00E94EE0480914F010E94460889E1AC
:1014800094E00E9438078AED91E00E94EE0480917A
:101490004E010E94460889E194E00E9438078CEBD7
:1014A00091E00E94EE04809101010E94460889E1CA
:1014B00094E00E9438078DE991E00E94EE0480914B
:1014C00000010E9446088DE194E00C943F0785E7F7
:1014D00091E01DCF85E791E07ECF85E791E0A7CF32
:1014E000FF920F931F93CF93DF93EC01F62E0881A9
:1014F0001981C8010E94DB21F81621F06F2DC80167
:101500000E94E321CE01DF91CF911F910F91FF90B7
:101510000895CF93DF9300D0CDB7DEB7FB01608194
:10152000FC0120813181A9014F5F5F4F51834083CE
:101530003A832983CE0101960E94700A0F900F9082
:10154000DF91CF910895CF93DF9300D0CDB7DEB771
:10155000FB016081FC0120813181A9014F5F5F4F58
:10156000518340833A832983CE0101960E94700AF9
:101570000F900F90DF91CF910895CF92DF92EF926D
:10158000FF920F931F93CF93DF9300D0CDB7DEB7B9
:101590007C018B016B0184E0C80ED11CF8016191C4
:1015A0008F01F701808191819C012F5F3F4F318333
:1015B00020839A838983CE0101960E94700A0C15BC
:1015C0001D0561F70F900F90DF91CF911F910F9143
:1015D000FF90EF90DF90CF900895EF92FF920F93DE
:1015E0001F93CF93DF9300D0CDB7DEB78C017B0183
:1015F000FB016081FC01808191819C012F5F3F4F45
:10160000318320839A838983CE0101960E94700AD8
:10161000F7016181F801808191819C012F5F3F4F2B
:10162000318320839A838983CE0101960E94700AB8
:101630000F900F90DF91CF911F910F91FF90EF903E
:101640000895CF93DF9300D0CDB7DEB781E090E06F
:101650009A8389836AE471E0CE0101960E94ED0AC3
:1016600068E471E0CE0101960E94ED0A66E471E043
:10167000CE0101960E94ED0A6CE471E0CE01019664
:101680000E94ED0A62E471E0CE0101960E94ED0A2B
:1016900060E471E0CE0101960E94ED0A6EE371E014
:1016A000CE0101960E94ED0A64E471E0CE0101963C
:1016B0000E94ED0A65E171E0CE0101960E94BD0A2B
:1016C00069E171E0CE0101960E94BD0A6DE171E011
:1016D000CE0101960E94BD0A61E271E0CE01019641
:1016E0000E94BD0A6CE071E0CE0101960E94BD0A25
:1016F00060E171E0CE0101960E94BD0A65E271E0F1
:10170000CE0101960E94BD0A69E271E0CE01019608
:101710000E94BD0A6DE271E0CE0101960E94BD0AF1
:101720006AE371E0CE0101960E94BD0A64E171E0B6
:10173000CE0101960E94A30A63E774E0CE010196F0
:101740000E94A30A62E571E0CE0101960E94ED0AB3
:1017500064E071E0CE0101960E94ED0A66E071E05E
:10176000CE0101960E94ED0A60E571E0CE0101967E
:101770000E94ED0A68E071E0CE0101960E94ED0A38
:101780006AE071E0CE0101960E94ED0A66E774E01E
:10179000CE0101960E94A30A68E371E0CE01019692
:1017A0000E94ED0A64E774E0CE0101960E94ED0A02
:1017B00062E071E0CE0101960E94ED0A6FE471E0F3
:1017C000CE0101960E94890A6EE471E0CE01019675
:1017D0000E94890A61E071E0CE0101960E94890AA7
:1017E00060E071E0CE0101960E94890A67E371E032
:1017F000CE0101960E94890A0F900F90DF91CF9140
:101800000895CF93DF93FC01EB01808191819C01CE
:101810002F5F3F4F318320830E94DB218883DF913C
:10182000CF910895CF93DF93FC01EB0180819181EB
:101830009C012F5F3F4F318320830E94DB218883EF
:10184000DF91CF910895EF92FF920F931F93CF9363
:10185000DF938C01EB017B0184E0E80EF11CF801C1
:10186000808191819C012F5F3F4F318320830E94B3
:10187000DB218993CE15DF0591F7DF91CF911F9181
:101880000F91FF90EF9008950F931F93CF93DF93E5
:10189000EC018B01888199819C012F5F3F4F398337
:1018A00028830E94DB21F8018083888199819C0133
:1018B0002F5F3F4F398328830E94DB21F80181830A
:1018C000DF91CF911F910F9108951F920F920FB644
:1018D0000F9211242F933F938F939F93AF93BF93B6
:1018E0008091900490919104A0919204B0919304FE
:1018F00030918F0423E0230F2D3758F50196A11D59
:10190000B11D20938F048093900490939104A09331
:101910009204B09393048091940490919504A091C3
:101920009604B09197040196A11DB11D8093940473
:1019300090939504A0939604B0939704BF91AF91B0
:101940009F918F913F912F910F900FBE0F901F90FD
:10195000189526E8230F0296A11DB11DD2CF1F9224
:101960000F920FB60F9211242F933F934F935F93D3
:101970006F937F938F939F93AF93BF93EF93FF9357
:1019800088E994E00E947F04FF91EF91BF91AF91AD
:101990009F918F917F916F915F914F913F912F9187
:1019A0000F900FBE0F901F9018951F920F920FB6B9
:1019B0000F9211242F938F939F93EF93FF93E091B6
:1019C000A804F091A9048081E091AE04F091AF04E5
:1019D00082FD1BC090818091B1048F5F8F73209135
:1019E000B204821741F0E091B104F0E0E856FB4FF9
:1019F000958F8093B104FF91EF919F918F912F91DB
:101A00000F900FBE0F901F9018958081F4CF1F92FA
:101A10000F920FB60F9211242F933F934F935F9322
:101A20006F937F938F939F93AF93BF93CF93DF93E6
:101A3000EF93FF9380912004C0915905D0E087FF78
:101A400024C01092850010928400809120048F5F42
:101A50008093200480912004082E000C990B8C1791
:101A60009D0724F4809120048C30C4F1809184007F
:101A700090918500049680349C4908F47AC0809146
:101A8000840090918500049676C080912004082EF1
:101A9000000C990B8C179D07C4F6E09120048E2F43
:101AA000EE0F990BFC01EE0FFF1FE80FF91FEB5C27
:101AB000FA4F808186FFC9CFE09120048E2FEE0F70
:101AC000990BFC01EE0FFF1FE80FF91FEB5CFA4FBB
:101AD000808160E08F730E944A03B7CF2091840019
:101AE00030918500E09120048E2FEE0F990BFC01C0
:101AF000EE0FFF1FE80FF91FEB5CFA4F8181928117
:101B0000820F931F9093890080938800E0912004B6
:101B10008E2FEE0F990BFC01EE0FFF1FE80FF91F40
:101B2000EB5CFA4F808186FF11C0E09120048E2F7C
:101B3000EE0F990BFC01EE0FFF1FE80FF91FEB5C96
:101B4000FA4F808161E08F730E944A03FF91EF9109
:101B5000DF91CF91BF91AF919F918F917F916F91C5
:101B60005F914F913F912F910F900FBE0F901F905B
:101B7000189580E49CE990938900809388008FEF0A
:101B800080932004E3CF10929B0410929A0488EE75
:101B900093E0A0E0B0E080939C0490939D04A09318
:101BA0009E04B0939F0488E591E0909399048093FC
:101BB000980485EC90E09093A5048093A40484ECB1
:101BC00090E09093A7048093A60480EC90E090931B
:101BD000A9048093A80481EC90E09093AB048093D7
:101BE000AA0482EC90E09093AD048093AC0486EC60
:101BF00090E09093AF048093AE041092B1041092E1
:101C0000B2041092B3041092B404809152019091E6
:101C100053019093630580936205809150019091E8
:101C200051019093610580936005809159058C3036
:101C300048F591E0980F9093590580935D0590E0E9
:101C4000FC01EE0FFF1FE80FF91FEB5CFA4F88EB6A
:101C50009BE092838183809159058C30B8F491E0A8
:101C6000980F9093590580935A0590E0FC01EE0F70
:101C7000FF1FE80FF91FEB5CFA4F88EB9BE09283A4
:101C8000818308958FEF80935D05E5CF8FEF80937B
:101C90005A050895CF93DF93CDB7DEB76C970FB693
:101CA000F894DEBF0FBECDBF789484B5826084BD4A
:101CB00084B5816084BD85B5826085BD85B5816050
:101CC00085BD80916E00816080936E0010928100CE
:101CD0008091810082608093810080918100816089
:101CE000809381008091800081608093800080914A
:101CF000B10084608093B1008091B00081608093D6
:101D0000B00080917A00846080937A0080917A009C
:101D1000826080937A0080917A00816080937A005B
:101D200080917A00806880937A001092C100E091DF
:101D3000A804F091A90482E08083E091A404F091CA
:101D4000A5041082E091A604F091A70480E18083AD
:101D50001092B004E091AC04F091AD0486E0808371
:101D6000E091AA04F091AB04808180618083E091CE
:101D7000AA04F091AB04808188608083E091AA047A
:101D8000F091AB04808180688083E091AA04F09197
:101D9000AB0480818F7D808390E080E00E94DB2116
:101DA000882339F060E090E080E00E94E3210E9407
:101DB000210B81E090E09A8389836AE471E0CE018F
:101DC00001960E94440C68E471E0CE0101960E94E5
:101DD000440C66E471E0CE0101960E94440C6CE470
:101DE00071E0CE0101960E94440C62E471E0CE01E4
:101DF00001960E94440C60E471E0CE0101960E94BD
:101E0000440C6EE371E0CE0101960E94440C64E440
:101E100071E0CE0101960E94440C65E171E0CE01B3
:101E200001960E94230C69E171E0CE0101960E94A7
:101E3000230C6DE171E0CE0101960E94230C61E25A
:101E400071E0CE0101960E94230C6CE071E0CE019E
:101E500001960E94230C60E171E0CE0101960E9480
:101E6000230C65E271E0CE0101960E94230C69E229
:101E700071E0CE0101960E94230C6DE271E0CE016B
:101E800001960E94230C6AE371E0CE0101960E9444
:101E9000230C64E171E0CE0101960E94120C63E70D
:101EA00074E0CE0101960E94120C62E571E0CE0151
:101EB00001960E94440C64E071E0CE0101960E94FC
:101EC000440C66E071E0CE0101960E94440C60E58E
:101ED00071E0CE0101960E94440C68E071E0CE01F1
:101EE00001960E94440C6AE071E0CE0101960E94C6
:101EF000440C66E774E0CE0101960E94120C68E380
:101F000071E0CE0101960E94440C64E774E0CE01BA
:101F100001960E94440C62E071E0CE0101960E949D
:101F2000440C6FE471E0CE0101960E94010C6EE456
:101F300071E0CE0101960E94010C61E071E0CE01DA
:101F400001960E94010C60E071E0CE0101960E94B2
:101F5000010C67E371E0CE0101960E94010C0E9422
:101F60004D0860E080914F010E94960360E08091EF
:101F70004E010E94960360E0809137010E94960313
:101F80006091010170E08DE595E00E94600560912F
:101F9000000170E08AE595E00E94600560915201C1
:101FA000709153018DE595E00E94290560915001E3
:101FB000709151018AE595E00E9429050E94DC0399
:101FC0004B015C0149EDC42E49E0D42EE12CF12CEB
:101FD0000E94DC03681979098A099B09683E7340ED
:101FE00081059105A8F321E0C21AD108E108F108A2
:101FF00088EE880E83E0981EA11CB11CC114D10488
:10200000E104F10429F788E994E00E943D04F82EE8
:10201000BFEF8B1709F473C4ECE28E130C94581ABB
:10202000E0916204F0E0E05DFB4F108260E871E057
:1020300080E394E00E94D81C7C0160E871E090E0AD
:1020400080E00E94D81C8C01A1E2B4E0EFE01D9278
:10205000EA95E9F763E871E0C7010E94B223892B92
:10206000C9F5C8010E94BA1C80934A0190934B01A4
:102070009F938F9381E991E09F938F93E1E2F4E046
:10208000FF93EF930E94C2230F900F900F900F9039
:102090000F900F9087ED94E00E94EE0489E194E0A8
:1020A0000E9438078AEC94E00E94EE04C7010E9467
:1020B000380788E194E00E9438078FEB94E00E9493
:1020C000EE0481E294E00E9438078CE194E00E94E3
:1020D0003F0713C464E971E0C7010E94B223892B52
:1020E00041F4C8010E94BA1C8093480190934901B1
:1020F000BFCF65EA71E0C7010E94B223892B41F48A
:10210000C8010E94BA1C8093460190934701B0CF4A
:1021100062EB71E0C7010E94B223892B69F4C80108
:102120000E94BA1C97FF03C09195819591098093F5
:102130004C0190934D019CCF6DEB71E0C7010E9463
:10214000B223892B41F4C8010E94BA1C809342013A
:10215000909343018DCF68EC71E0C7010E94B223D8
:10216000892B41F4C8010E94BA1C809340019093CE
:1021700041017ECF69ED71E0C7010E94B223892B36
:1021800041F4C8010E94BA1C80933E0190933F0124
:102190006FCF66EE71E0C7010E94B223892B69F40C
:1021A000C8010E94BA1C97FF03C0919581959109BF
:1021B00080934401909345015BCF61EF71E0C701CB
:1021C0000E94B223892B09F5C8010E94B61C20E0A9
:1021D00030E0A9010E947923181694F4C8010E94E6
:1021E000B61C6093150170931601809317019093AC
:1021F000180101E214E024E040E00E94981C4ACF5C
:10220000C8010E94B61C9058ECCF66E072E0C7018E
:102210000E94B223892BD9F4C8010E94B61C20E089
:1022200030E0A9010E947923181664F4C8010E94C5
:10223000B61C6093190170931A0180931B0190934F
:102240001C01D7CFC8010E94B61C9058F2CF6BE199
:1022500072E0C7010E94B223892BD9F4C8010E9401
:10226000B61C20E030E0A9010E947923181664F41E
:10227000C8010E94B61C60931D0170931E018093DB
:102280001F0190932001B5CFC8010E94B61C905841
:10229000F2CF61E372E0C7010E94B223892BD9F427
:1022A000C8010E94B61C20E030E0A9010E947923F9
:1022B000181664F4C8010E94B61C60932101709343
:1022C0002201809323019093240193CFC8010E949F
:1022D000B61C9058F2CF67E472E0C7010E94B223A7
:1022E000892BD9F4C8010E94B61C20E030E0A90176
:1022F0000E947923181664F4C8010E94B61C6093EA
:102300000C0170930D0180930E0190930F0171CF1A
:10231000C8010E94B61C9058F2CF6CE572E0C7016C
:102320000E94B223892BD9F4C8010E94B61C20E078
:1023300030E0A9010E947923181664F4C8010E94B4
:10234000B61C609310017093110180931201909359
:1023500013014FCFC8010E94B61C9058F2CF61E71D
:1023600072E0C7010E94B223892B09F062C0C80144
:102370000E94B61C20E030E0A9010E9479231816C3
:1023800074F4C8010E94B61C20E030E0A9010E944C
:10239000B42087FF0EC060E070E0CB012CC0C80104
:1023A0000E94B61C20E030E0A9010E947923181693
:1023B00094F3C8010E94B61C20E030E0A9010E94FD
:1023C000792318160CF5C8010E94B61C20E030E0F5
:1023D00040E85FE30E94792318160CF1C8010E94BF
:1023E000B61C20E030E0A9010E9479231816E4F41D
:1023F000C8010E94B61C609325017093260180934A
:10240000270190932801F5CEC8010E94B61C20E058
:1024100030E040E85FEB0E94B42087FFDFCF60E050
:1024200070E080E89FE3E7CFC8010E94B61C905897
:10243000E2CF61E872E0C7010E94B223892B09F064
:1024400062C0C8010E94B61C20E030E0A9010E94D1
:102450007923181674F4C8010E94B61C20E030E0FD
:10246000A9010E94B42087FF0EC060E070E0CB019C
:102470002CC0C8010E94B61C20E030E0A9010E94D7
:102480007923181694F3C8010E94B61C20E030E0AE
:10249000A9010E94792318160CF5C8010E94B61CE8
:1024A00020E030E040E85FE30E94792318160CF149
:1024B000C8010E94B61C20E030E0A9010E947923E7
:1024C0001816E4F4C8010E94B61C609329017093A9
:1024D0002A0180932B0190932C018BCEC8010E947E
:1024E000B61C20E030E040E85FEB0E94B42087FF9C
:1024F000DFCF60E070E080E89FE3E7CFC8010E9493
:10250000B61C9058E2CF62E972E0C7010E94B22384
:10251000892B09F062C0C8010E94B61C20E030E09F
:10252000A9010E947923181674F4C8010E94B61CF0
:1025300020E030E0A9010E94B42087FF0EC060E0D7
:1025400070E0CB012CC0C8010E94B61C20E030E036
:10255000A9010E947923181694F3C8010E94B61CA1
:1025600020E030E0A9010E94792318160CF5C8017B
:102570000E94B61C20E030E040E85FE30E9479232F
:1025800018160CF1C8010E94B61C20E030E0A90129
:102590000E9479231816E4F4C8010E94B61C6093C7
:1025A0002D0170932E0180932F019093300121CE45
:1025B000C8010E94B61C20E030E040E85FEB0E94BA
:1025C000B42087FFDFCF60E070E080E89FE3E7CFD3
:1025D000C8010E94B61C9058E2CF6DE972E0C701B5
:1025E0000E94B223892B61F4C8010E94B61C60933B
:1025F0003A0170933B0180933C0190933D01F9CDEA
:1026000067EB72E0C7010E94B223892BA1F4C801D5
:102610000E94BA1C21E0009709F420E020931401E5
:1026200065E771E0892B11F46AE771E081E294E0DB
:102630000E94BB232FCD6EEC72E0C7010E94B22333
:10264000892B51F4C8010E94BA1C21E0009709F4BB
:1026500020E020937304E4CF66EE72E0C7010E948D
:10266000B223892B41F4C8010E94BA1C8093520105
:1026700090935301FDCC68EF72E0C7010E94B22332
:10268000892B41F4C8010E94BA1C809304019093E5
:102690000501EECC68E073E0C7010E94B223892BEC
:1026A00041F4C8010E94BA1C80930601909307016F
:1026B000DFCC68E173E0C7010E94B223892B41F4AB
:1026C000C8010E94BA1C8093500190935101D0CC54
:1026D0006BE273E0C7010E94B223892B41F4C80169
:1026E0000E94BA1C8093080190930901C1CC6CE34D
:1026F00073E0C7010E94B223892B41F4C8010E94F4
:10270000BA1C80930A0190930B01B2CC6DE473E084
:10271000C7010E94B223892B51F4C8010E94BA1C40
:1027200021E0009709F420E02093760479CF6CE54E
:1027300073E0C7010E94B223892B41F4C8010E94B3
:10274000BA1C809338019093390192CC60E773E012
:10275000C7010E94B223892B41F4C8010E94BA1C10
:10276000809374049093750483CC64E873E0C7018C
:102770000E94B223892B41F4C8010E94BA1C8093A5
:1027800002019093030174CC64EA73E0C7010E94D4
:10279000B223892B61F4C8010E94BA1C80934F01B7
:1027A00060E00E94960380914F011F9262CC6EEA16
:1027B00073E0C7010E94B223892B59F4C8010E941B
:1027C000BA1C80934E0160E00E94960380914E01F6
:1027D000ECCF68EB73E0C7010E94B223892B61F54F
:1027E00060915201709153018DE595E00E94290599
:1027F000E0915D058E2F90E0FC01EE0FFF1FE80FCA
:10280000F91FEB5CFA4F80818F7B8083C8010E94A7
:10281000BA1C80930101BC0177278DE595E00E94E9
:10282000600560915201709153018DE595E00E9421
:10283000290580910101B9CF62ED73E0C7010E94C3
:10284000B223892B61F560915001709151018AE5A5
:1028500095E00E942905E0915A058E2F90E0FC0139
:10286000EE0FFF1FE80FF91FEB5CFA4F80818F7BA3
:102870008083C8010E94BA1C80930001BC017727A5
:102880008AE595E00E9460056091500170915101C8
:102890008AE595E00E9429058091000186CF6DEEC2
:1028A00073E0C7010E94B223892B59F4C8010E942A
:1028B000BA1C8093370160E00E9496038091370133
:1028C00074CF6CEF73E0C7010E94B223892B59F4D7
:1028D0000E94210B83E095E00E94EE0486E691E0E1
:1028E0000E94E7060AC061E074E0C7010E94B223BB
:1028F000892B09F0C0C50E944D0810926204C09057
:102900006304D0906404E0906504F0906604C11400
:10291000D104E104F10409F4F0C50E94DC036C1950
:102920007D098E099F090E94B92020E034E244E726
:1029300059E40E94D1226D877E878F87988B0E94F1
:10294000DC03609363047093640480936504909344
:1029500066048D859E85AF85B88980938B0490939E
:102960008C04A0938D04B0938E0480914F010E943B
:10297000C7036C0190938A048093890480914E016F
:102980000E94C7037C019093880480938704009180
:102990004C0110914D0120914A0130914B01409121
:1029A0004801509149016091460170914701C6016B
:1029B0000E94BC054B015C018092830490928404C8
:1029C000A0928504B09286040091440110914501C3
:1029D00020914201309143014091400150914101C9
:1029E00060913E0170913F01C7010E94BC056B01DF
:1029F0007C01C0927F04D0928004E0928104F09226
:102A00008204C0927B04D0927C04E0927D04F09218
:102A10007E0420913A0130913B0140913C0150915C
:102A20003D0160E070E080E89FE30E9464222B019A
:102A30003C0120E030E0A901C701B6010E947923E2
:102A4000181624F0F7FAF094F7F8F094A70196011D
:102A5000C301B2010E941A219B01AC0160E070E049
:102A600080E89FE30E9464226B017C0120E030E05B
:102A7000A9010E94792318161CF0C12CD12C7601D3
:102A8000A7019601C501B4010E941A216093770441
:102A9000709378048093790490937A0480917604FB
:102AA000882309F43DC5C0907404D0907504E0906B
:102AB0003801F0903901809137010E94C7038C01E1
:102AC0009093360180933501B701FF0C880B990B69
:102AD0000E94BB204B015C01B801110F880B990BC0
:102AE0000E94BB20A50194010E9464222B013C019D
:102AF000B601DD0C880B990B0E94BB20A501940147
:102B00000E9464229B01AC01C301B2010E94D12248
:102B100020E030E0A9010E9465226B017C0120E0E9
:102B200030E0A9010E94B42087FDF6C420E030E027
:102B300040E85FE3C701B6010E947923181634F418
:102B4000C12CD12C80E8E82E8FE3F82EC092310101
:102B5000D0923201E0923301F092340180902D0145
:102B600090902E01A0902F01B0903001C0902901CB
:102B7000D0902A01E0902B01F0902C01409025018B
:102B800050902601609027017090280180913101BA
:102B900090913201A0913301B091340189879A87D5
:102BA000AB87BC8720E030E0A901C701B6010E94D5
:102BB0007923181624F0F7FAF094F7F8F09420E04F
:102BC00030E0A901C301B2010E947923181624F054
:102BD00077FA709477F8709420E030E0A901C5018D
:102BE000B4010E947923181624F0B7FAB094B7F80C
:102BF000B094A301920169857A858B859C850E949A
:102C00001A216B837D83898B9A8BC701B6019058FB
:102C100029853A854B855C850E941A216B017C01D0
:102C200040907B0450907C0460907D0470907E0402
:102C300020E030E0A901C301B2010E94B420882342
:102C400009F487C420E030E0A901C301B2010E9469
:102C50007923A301920118160CF06FC46B817D815A
:102C600089899A890E941A2120E030E0A9010E94F6
:102C700065221B018C019101A801B601C7010E94C8
:102C8000792318160CF46AC49101A8016B817D8127
:102C900089899A890E94B42087FF04C02B803D80D7
:102CA00009891A89C101D80180937B0490937C041F
:102CB000A0937D04B0937E04209177043091780432
:102CC0004091790450917A04C501B4010E941A21FF
:102CD00029853A854B855C850E941A212B013C0190
:102CE00029853A854B855C85C501B40190580E94C1
:102CF0001A216B017C01AC019B01B201C3010E944E
:102D0000B42087FD14C0A501940169857A858B855F
:102D10009C850E941A216B017C01AC019B01B201D0
:102D2000C3010E947923181614F062017301C09246
:102D30007704D0927804E0927904F0927A0420E04B
:102D400030E0A901B101C8010E94B42087FF10C082
:102D500080917304882361F0F7FAF094F7F8F09407
:102D6000C0927704D0927804E0927904F0927A04C9
:102D70008091210190912201A0912301B091240121
:102D80008B8B9C8BAD8BBE8B80901D0190901E0118
:102D9000A0901F01B09020018091190190911A011B
:102DA000A0911B01B0911C01898F9A8FAB8FBC8FB2
:102DB0004090150150901601609017017090180115
:102DC000809114018111CDC3198A1A8A90E89F8BD2
:102DD000AFE3A88FC0906F04D0907004E0907104AE
:102DE000F090720420E030E0A901C301B2010E941A
:102DF000792318161CF0412C512C3201A3019201A9
:102E000069897A898F89988D0E941A212B013C014A
:102E100020E030E0A901698D7A8D8B8D9C8D0E9418
:102E20007923181624F0198E1A8E1B8E1C8E20E022
:102E300030E0A901C501B4010E94792318161CF0E5
:102E4000812C912C5401A501940169897A898F897B
:102E5000988D0E941A214B015C0120E030E0A9010D
:102E60006B897C898D899E890E947923181624F0AC
:102E70001B8A1C8A1D8A1E8AA7019601B101C801FE
:102E80000E946422362E272E8B839D8320E030E023
:102E9000A901C701B6010E94B42081116BC3C5010D
:102EA000B40190582D853E854F8558890E941A217E
:102EB0005B018C019B01AC01632D722D8B819D8187
:102EC0000E94B42087FD18C0A30192016D857E8504
:102ED0008F8598890E941A215B018C019B01AC01AE
:102EE000632D722D8B819D810E947923181624F009
:102EF000A32CB22C0B811D819501A801C701B6013D
:102F00000E946522362E272E8B839D83832D922D42
:102F1000AB81BD8180936F0490937004A093710482
:102F2000B09372048090100190901101A090120152
:102F3000B0901301C0900C01D0900D01E0900E01F3
:102F4000F0900F01409077045090780460907904DD
:102F500070907A0480916B0490916C04A0916D0440
:102F6000B0916E048B8B9C8BAD8BBE8B20E030E0E0
:102F7000A901C701B6010E94792318161CF0C12CC3
:102F8000D12C7601A701960169897A898F89988D5C
:102F90000E941A216B017C0120E030E0A901C501EB
:102FA000B4010E94792318161CF0812C912C540135
:102FB0002B893C894D895E89C301B2010E9464223C
:102FC000462E672E582E792E20E030E0A9016B891D
:102FD0007C898D899E890E94B420811168C32D85CA
:102FE0003E854F855889C701B60190580E941A2125
:102FF0005B018C019B01AC01642D762D852D972DF5
:103000000E94B42087FD18C0A70196016D857E85BA
:103010008F8598890E941A215B018C019B01AC016C
:10302000642D762D852D972D0E947923181624F076
:10303000A42CB62C052D172D9501A8016B897C8930
:103040008D899E890E9465225B018C01C501D80192
:1030500080936B0490936C04A0936D04B0936E0402
:1030600080917604882309F451C0C984DA84EB8402
:10307000FC84F7FAF094F7F8F094232D322D4B816D
:103080005D81C701B6010E94792318160CF4A8C30C
:10309000232D322D4B815D8169857A858B859C85B9
:1030A0000E94B42087FF06C039842A849B859B83B5
:1030B000AC85AD83832D922DAB81BD8180936F0450
:1030C00090937004A0937104B09372049501A801C9
:1030D000C701B6010E947923181684F09501A80152
:1030E00069857A858B859C850E94B420650178016D
:1030F00087FF04C0C984DA84EB84FC84C0926B042B
:10310000D0926C04E0926D04F0926E04E0910A019A
:10311000F0910B01FA87E9878091080190910901EC
:103120009C838B832090500130905101A091060127
:10313000B0910701BE87AD87E0900401F0900501D2
:10314000009152011091530180916F04909170048D
:10315000A0917104B09172048D839E83AF83B88770
:1031600040906B0450906C0460906D0470906E04FD
:10317000A3019201BC01CD010E9465224B015C01BB
:1031800020E030E0A9010E94B42081112EC3B801D3
:10319000012E000C880B990B0E94BB200E94432338
:1031A0009B014D855E8557FF03C05195419551099F
:1031B0007801E41AF50A2E153F053CF07801E40E7B
:1031C000F51E2E153F050CF47B01F0926305E0928D
:1031D0006205A30192016D817E818F8198850E9495
:1031E00064224B015C0120E030E0A9010E94B42080
:1031F00081114BC3B101032C000C880B990B0E9469
:10320000BB200E944323AB0129853A8537FF03C0C9
:10321000319521953109F101E21BF30B4E175F0740
:103220003CF0F101E20FF31F4E175F070CF4FB01B6
:10323000F0936105E0936005B7018DE595E00E948C
:10324000290560916005709161058AE595E00E940D
:103250002905809102019091030197FDFCC02FB7D1
:10326000F89440919004509191046091920470916F
:1032700093042FBF009167041091680420916904A2
:1032800030916A04401B510B620B730B092E000C2A
:10329000AA0BBB0B481759076A077B0708F4DBC06A
:1032A0002FB7F8948091900490919104A09192048A
:1032B000B09193042FBF8093670490936804A09308
:1032C0006904B0936A0480ED95E00E94EE042FB784
:1032D000F89460919004709191048091920490917F
:1032E00093042FBF4AE00E94F40689E194E00E9413
:1032F000380784EC95E00E94EE0480918904909157
:103300008A040E944D0789E194E00E94380788EB07
:1033100095E00E94EE0480918704909188040E94B9
:103320004D0789E194E00E9438078AEA95E00E94FF
:10333000EE046091830470918404809185049091DF
:1033400086040E947D0789E194E00E9438078BE99A
:1033500095E00E94EE0460917F047091800480915A
:103360008104909182040E947D0789E194E00E948B
:10337000380789E895E00E94EE0460917704709127
:1033800078048091790490917A040E947D0789E104
:1033900094E00E94380786E795E00E94EE04609171
:1033A0007B0470917C0480917D0490917E040E9446
:1033B0007D0789E194E00E94380786E695E00E9447
:1033C000EE0460916B0470916C0480916D04909197
:1033D0006E040E947D0789E194E00E94380785E52C
:1033E00095E00E94EE0460916F04709170048091EA
:1033F0007104909172040E947D0789E194E00E941B
:1034000038078FE395E00E94EE0480916205909169
:1034100063050E944D0789E194E00E94380788E225
:1034200095E00E94EE0480916005909161050E94F4
:103430004D0789E194E00E94380787E195E00E94FA
:10344000EE0480913501909136010E944D078DE187
:1034500094E00E943F07A0E0B0E0AB2B11F40C9485
:1034600003100E946B04882311F40C9403100E9433
:1034700000000C9403106AE074E0C7010E94B223BC
:10348000892B51F461E090E080E00E94E321F0E0BC
:10349000E0E009950C944A1061E174E0C7010E94D4
:1034A000B223009711F4FC01F4CF8BEE94E014CA20
:1034B000082F880F110BC8010E949523892B51F406
:1034C00083ED8F0D823030F0FAE3FF1619F02FE50F
:1034D000F21215CAC8010E94AA2390916204292FF2
:1034E00030E0F901E05DFB4F8083203331050CF0C3
:1034F00006CA9F5F9093620402CA0E94DC03609335
:1035000063047093640480936504909366041D863D
:103510001E861F86188A1DCAC12CD12C760116CB97
:1035200080E090E0A0E8BFE3809331019093320106
:10353000A0933301B093340111CBB601C7010E94AF
:103540001A219B01AC0160E070E0CB010E94642273
:1035500090CB212C312C00E010E08DCB160187019F
:10356000A1CBB985B98BEA85EA8BFB85FF8B2C85CE
:10357000288F30CC20E030E0A901C701B6010E94BD
:10358000792318160CF04BC0298D3A8D4B8D5C8D2C
:1035900069897A898F89988D0E941A2190582D8582
:1035A0003E854F8558890E941A215B018C019B0141
:1035B000AC01632D722D8B819D810E94B42087FD0B
:1035C00018C0A30192016D857E858F8598890E9420
:1035D0001A215B018C019B01AC01632D722D8B8143
:1035E0009D810E947923181624F0A32CB22C0B8104
:1035F0001D819501A801C701B6010E946522362EE2
:10360000272E8B839D8320E030E0A9010E94B42007
:1036100087FF7CCC312C212C1B821D8277CCC501ED
:10362000B40190582D853E854F8558890E941A21F6
:103630005B018C019B01AC01632D722D8B819D81FF
:103640000E94B42087FD20C02B893C894D895E896A
:1036500069897A898F89988D0E941A212D853E85E6
:103660004F8558890E941A215B018C019B01AC0196
:10367000632D722D8B819D810E947923181624F071
:10368000A32CB22C0B811D819501A801C701B601A5
:103690000E946522362E272E8B839D8320E030E00A
:1036A000A9010E94792318160CF4B4CF2FCCA501E0
:1036B000940169897A898F89988D0E941A214B011A
:1036C0005C0120E030E0A9016B897C898D899E89AD
:1036D0000E94792318160CF043C0C501B40190581C
:1036E0002D853E854F8558890E941A215B018C01EA
:1036F0009B01AC01642D762D852D972D0E94B42061
:1037000087FD18C0A70196016D857E858F859889F4
:103710000E941A215B018C019B01AC01642D762D66
:10372000852D972D0E947923181624F0A42CB62CF1
:10373000052D172D9501A8016B897C898D899E899E
:103740000E9465225B018C0120E030E0A9010E940B
:10375000B42087FF7BCCA12CB12C00E010E076CC0C
:10376000C701B60190582D853E854F8558890E9426
:103770001A217B018C019B01AC01642D762D852DD6
:10378000972D0E94B42087FD18C0A50194016D8576
:103790007E858F8598890E941A217B018C019B016F
:1037A000AC01642D762D852D972D0E947923181656
:1037B00024F0E42CF62C052D172D9701A8016B8918
:1037C0007C898D899E890E9465225B018C0120E0A5
:1037D00030E0A9010E94792318160CF4BCCF36CC36
:1037E0003C2C2D2CEB82FD8265CC20E030E0A90141
:1037F000C501B4010E947923181614F5B701600FB2
:10380000711F072E000C880B990B0E94BB206B01C7
:103810007C016D857E85600F711F072E000C880B63
:10382000990B0E94BB20A70196010E946422A5016A
:1038300094010E941A21A70196010E946522AECC34
:10384000B8016E197F09072E000C880B990B0E9496
:10385000BB206B017C01B801AD85BE856A1B7B0B6B
:10386000072E000C880B990B0E94BB20A701960124
:103870000E946422A50194010E941A219B01AC01BF
:10388000C701B6010E94642289CC20E030E0A90182
:10389000C501B4010E94792318161CF56B817C8147
:1038A000620D731D072E000C880B990B0E94BB2024
:1038B0002B013C0169857A85620D731D072E000C72
:1038C000880B990B0E94BB20A30192010E946422E5
:1038D000A50194010E941A21A30192010E94652270
:1038E00090CCB101EB81FC816E1B7F0B072E000C8D
:1038F000880B990B0E94BB202B013C01B1018985EB
:103900009A85681B790B072E000C880B990B0E9477
:10391000BB20A30192010E946422A50194010E9490
:103920001A219B01AC01C301B2010E94642269CC3F
:10393000EF920F931F93CF93DF93E80134E047FD9D
:1039400034E1042E000C550B57FF03C051954195EF
:103950005109E32E022F242FAE010E940C1DCE012F
:10396000DF91CF911F910F91EF90089566277727F0
:103970000C946B1EFC0188279927E8942191203232
:10398000E9F3293010F02E30C8F32B3241F02D32FC
:1039900039F4689404C00E94041D820F911D219186
:1039A00020532A30C0F31EF4909581959F4F0895BF
:1039B00044E655E00E94DD1C0895FA01A191B08112
:1039C000009719F41097E1F0CD01DC01CD010D90C5
:1039D000002011F4C00113C0FB012191222319F032
:1039E0002015D9F7F3CFFB012191201519F41E9270
:1039F000119606C02223C1F70D900020A1F7D00137
:103A0000FA01A193B08308957AE0979F902D879F44
:103A1000802D910D11240895A9E0B0E0E2E1FDE1CF
:103A20000C9402226A01F22EB02E102FFBE3AF2E6F
:103A3000A01608F41BE31F5F012F27E0AE014F5FC4
:103A40005F4F0E94BB1FBC018981982F99709130F4
:103A500009F43FC09BE2E1FC04C09E2D9170E0FCA4
:103A60003AC05E2D5071E82FE87083FF46C084E0B5
:103A7000911101C083E0EF2DE81B8F1508F0E0E005
:103A8000D6018E2F20E2552351F1992329F0D6013A
:103A90009C93C60101966C0196012D5F3F4FE2FE9B
:103AA00024C08EE4D6018C9391E411969C931197D7
:103AB00012968C93D9018E2F90E281111BC0E20FD8
:103AC000F32FF11D10828EEF9FEF2996ECE00C94FE
:103AD0001E229DE2C6CF90E2C4CF2D93815081116A
:103AE000FCCFCE0ED11CE0E0D0CF8EE6D6018C9379
:103AF00091E6DBCF9D938150E0CF482F447082FF49
:103B00003DC084E0911101C083E08F1510F4EF2DCA
:103B1000E81BD6018E2F20E2552309F1992329F0C5
:103B2000D6019C93C60101966C0196012D5F3F4F13
:103B3000E2FE1BC089E4D6018C938EE411968C932F
:103B4000119786E412968C93D9018E2F90E28823E8
:103B500009F4B5CF9D938150FACF2D9381508111F7
:103B6000FCCFCE0ED11CE0E0D9CF89E6D6018C93F4
:103B70008EE611968C93119786E6E4CF9B0177FF32
:103B800002C030E020E0A1E0B0E0911102C0B0E05E
:103B9000A0E0F9013196AE0FBF1F8B2C912CBB20FA
:103BA00009F461C05401EFEFAE1ABE0AAA0DBB1DA5
:103BB000FA161B0619F014F04F2D4A1B511188C03C
:103BC000E3FC59C07601A42FB0E2A1114FC0C40E8E
:103BD000D11C992309F45BC040E0D6011196F6018F
:103BE00090836D01552309F448C0012F060F9A8177
:103BF000582F507184FF03C0913309F401501016FF
:103C00000CF047C0093008F008E0EEE2FE2E5B0140
:103C1000A01AB10885019194819491082F3F320731
:103C200029F4D601FC92F60131966F0162177307F1
:103C300094F1021713077CF5DB01A21BB30BAA2436
:103C4000A394B12CAC0EBD1EAA0DBB1D11968C9178
:103C500021503109D601119628153905F4F0F601E5
:103C600080836D01DBCFB12CA12CA0CFF701B193E4
:103C70007F01A150AACF9111B0CFD601942F50E36C
:103C800002C05D9391509111FCCFC40ED11C40E055
:103C9000ACCF01E0BACF80E3DBCF6217730731F41A
:103CA000963388F4953311F4552369F0F601808337
:103CB000FD01842F90E2811108C0A40FB11D1C9258
:103CC00090E080E002CF81E3F1CF91938150F3CF78
:103CD000911183CF8ACFB0E0A0E0E1E7FEE10C9440
:103CE00002225C017B016115710519F0DB018D93E6
:103CF0009C9385010F5F1F4FF501D0818D2F90E0C0
:103D00000E9493206C01892BB9F5DD32B9F50F5F64
:103D10001F4FD5011196DC91C1E05801F1E0AF1AB7
:103D2000B10843E050E060E770E0C5010E949C20CC
:103D3000892B69F5680182E0C80ED11C45E050E08E
:103D40006BE670E0C6010E949C20892B21F468017B
:103D500097E0C90ED11CE114F10419F0D701CD92FE
:103D6000DC9260E070E080E89FEFC111FFC060E08E
:103D700070E080E89FE7FAC05801BBCFDB3229F43E
:103D800085010E5F1F4FF501D181C0E0C6CF43E032
:103D900050E068E670E0C5010E949C20892BE9F0A4
:103DA000F80110E000E020E030E0A9015F01B0ED93
:103DB0008B2E8D0E89E08815C8F19C2E689491F8A1
:103DC0008C2F8870C2FF16C0811102C00F5F1F4F79
:103DD0003196D501DC91C92DE9CFE114F10429F028
:103DE0000E5F1F4FF7011183008360E070E080ECED
:103DF0009FE7BCC0882311F001501109A5E0B0E095
:103E00000E94F1219B01AC01220F331F441F551F5B
:103E1000280D311D411D511D283999E939074907E0
:103E200099E15907A8F2C6609C2ED2CFAEEF8A1254
:103E300006C0C3FD3CC09C2E689493F8C9CFDF7DBB
:103E4000D534A9F580818D3239F4C061DF01129635
:103E5000818162E070E006C0DF018B32C1F3119610
:103E600061E070E080535D01A61AB70A8A30F8F469
:103E7000E0E8CE16ECE0DE065CF4B601660F771FD4
:103E8000660F771FC60ED71ECC0CDD1CC80ED11CCA
:103E90005D01FFEFAF1ABF0A8C9180538A30A8F101
:103EA000C4FF03C0D194C194D1080C0D1D1DC1FFE6
:103EB00009C0E114F10431F081E0A81AB108D7017A
:103EC000AD92BC92CA01B9010E94B920C370C3303F
:103ED00009F490584B015C0120E030E0A9010E94F8
:103EE000B420882309F440C0CFE9D0E017FF05C013
:103EF000119501951109C7E8D0E06E01B8E1CB1A20
:103F0000D10880E2E82EF12C0FC0D501B1CFFE011F
:103F100025913591459154910E191F09C501B401A0
:103F20000E941A214B015C01D501C4010E151F0529
:103F300074F72497F594E794CC16DD06A9F78A2F39
:103F4000880F8B2F881F8F3F49F020E030E0A901B8
:103F5000C501B4010E94B420811106C082E290E044
:103F60009093670580936605C501B401CDB7DEB7B0
:103F7000ECE00C941E22283008F027E03327DA0109
:103F8000990F311D87FD916000966105710539F427
:103F900032602E5F3D9330E32A95E1F708959F3F0D
:103FA00030F080387105610509F03C5F3C5F3D935E
:103FB000913008F08068911DDF93CF931F930F938A
:103FC000FF92EF92192F987F9695E92F96959695E7
:103FD000E90FFF27E350FF4F99273327EE24FF24F3
:103FE000A701E70105900894079428F4360FE71E0F
:103FF000F81E491F511D660F771F881F991F0694D1
:10400000A1F70590079428F4E70EF81E491F561FE4
:10401000C11D770F881F991F661F0694A1F7059091
:10402000079428F4F80E491F561FC71FD11D880F8B
:10403000991F661F771F0694A1F70590079420F437
:10404000490F561FC71FD81F990F661F771F881F5C
:104050000694A9F784911095177041F0D695C795ED
:1040600057954795F794E7941A95C1F7E3EAF0E07E
:1040700068941590159135916591959105907FE221
:104080007395E118F10A430B560BC90BD009C0F721
:10409000E10CF11E431F561FC91FD01D7EF4703363
:1040A00011F48A95E6CFE894015030F0080F0AF435
:1040B0000027021708F4202F2395022F7A3328F0C7
:1040C00079E37D932A95E9F710C07D932A9589F6C7
:1040D000069497956795379517951794E118F10A07
:1040E000430B560BC90BD00998F023957E9173951D
:1040F0007A3308F070E37C932013B8F77E917061F7
:104100007D9330F0839571E37D9370E32A95E1F719
:104110001124EF90FF900F911F91CF91DF9199277C
:1041200087FD9095089591110C948721803219F0A4
:1041300089508550C8F70895FB01DC01415050407B
:1041400088F08D9181341CF08B350CF4805E659184
:1041500061341CF06B350CF4605E861B611171F3E9
:10416000990B0895881BFCCF0E94F62008F481E08B
:104170000895E89409C097FB3EF49095809570955A
:1041800061957F4F8F4F9F4F9923A9F0F92F96E9A3
:10419000BB279395F695879577956795B795F11118
:1041A000F8CFFAF4BB0F11F460FF1BC06F5F7F4FB5
:1041B0008F4F9F4F16C0882311F096E911C07723C7
:1041C00021F09EE8872F762F05C0662371F096E8D0
:1041D000862F70E060E02AF09A95660F771F881F9F
:1041E000DAF7880F9695879597F90895990F000843
:1041F000550FAA0BE0E8FEEF16161706E807F907B9
:10420000C0F012161306E407F50798F0621B730B53
:10421000840B950B39F40A2661F0232B242B252BD4
:1042200021F408950A2609F4A140A6958FEF811D77
:10423000811D08950E942D210C94A1210E9493219B
:1042400038F00E949A2120F0952311F00C948A21D5
:104250000C94902111240C94D5210E94B22170F36A
:10426000959FC1F3950F50E0551F629FF001729F1B
:10427000BB27F00DB11D639FAA27F00DB11DAA1F2A
:10428000649F6627B00DA11D661F829F2227B00D77
:10429000A11D621F739FB00DA11D621F839FA00D02
:1042A000611D221F749F3327A00D611D231F849F52
:1042B000600D211D822F762F6A2F11249F575040A9
:1042C0009AF0F1F088234AF0EE0FFF1FBB1F661F24
:1042D000771F881F91505040A9F79E3F510580F0ED
:1042E0000C948A210C94D5215F3FE4F3983ED4F3DB
:1042F000869577956795B795F795E7959F5FC1F791
:10430000FE2B880F911D9695879597F9089599270B
:104310008827089597F99F6780E870E060E0089526
:104320009FEF80EC089500240A94161617061806CD
:104330000906089500240A941216130614060506A9
:104340000895092E0394000C11F4882352F0BB0F3A
:1043500040F4BF2B11F460FF04C06F5F7F4F8F4F9D
:104360009F4F089557FD9058440F551F59F05F3FD8
:1043700071F04795880F97FB991F61F09F3F79F087
:1043800087950895121613061406551FF2CF469509
:10439000F1DF08C0161617061806991FF1CF86958B
:1043A0007105610508940895E894BB27662777276F
:1043B000CB0197F90895F999FECF92BD81BDF89A86
:1043C000992780B50895262FF999FECF1FBA92BD7F
:1043D00081BD20BD0FB6F894FA9AF99A0FBE0196E6
:1043E00008950E945522A59F900DB49F900DA49F03
:1043F000800D911D112408952F923F924F925F924C
:104400006F927F928F929F92AF92BF92CF92DF92E4
:10441000EF92FF920F931F93CF93DF93CDB7DEB749
:10442000CA1BDB0B0FB6F894DEBF0FBECDBF0994DD
:104430002A88398848885F846E847D848C849B8434
:10444000AA84B984C884DF80EE80FD800C811B8142
:10445000AA81B981CE0FD11D0FB6F894DEBF0FBE71
:10446000CDBFED010895A1E21A2EAA1BBB1BFD01D1
:104470000DC0AA1FBB1FEE1FFF1FA217B307E40743
:10448000F50720F0A21BB30BE40BF50B661F771F9B
:10449000881F991F1A9469F760957095809590957B
:1044A0009B01AC01BD01CF010895A29FB001B39F54
:1044B000C001A39F700D811D1124911DB29F700D2D
:1044C000811D1124911D08955058BB27AA270E94D1
:1044D0007C220C94A1210E94932138F00E949A2101
:1044E00020F039F49F3F19F426F40C9490210EF437
:1044F000E095E7FB0C948A21E92F0E94B22158F342
:10450000BA17620773078407950720F079F4A6F5B8
:104510000C94D4210EF4E0950B2EBA2FA02D0B0194
:10452000B90190010C01CA01A0011124FF27591BF8
:1045300099F0593F50F4503E68F11A16F040A22FFE
:10454000232F342F4427585FF3CF4695379527956F
:10455000A795F0405395C9F77EF41F16BA0B620B6E
:10456000730B840BBAF09150A1F0FF0FBB1F661FB5
:10457000771F881FC2F70EC0BA0F621F731F841FF8
:1045800048F4879577956795B795F7959E3F08F01E
:10459000B0CF9395880F08F09927EE0F97958795E0
:1045A00008950E94E5220C94A1210E949A2158F0BE
:1045B0000E94932140F029F45F3F29F00C948A2156
:1045C00051110C94D5210C9490210E94B22168F3D2
:1045D0009923B1F3552391F3951B550BBB27AA27BC
:1045E00062177307840738F09F5F5F4F220F331FF6
:1045F000441FAA1FA9F335D00E2E3AF0E0E832D0BE
:1046000091505040E695001CCAF72BD0FE2F29D0C0
:10461000660F771F881FBB1F261737074807AB0792
:10462000B0E809F0BB0B802DBF01FF2793585F4F07
:104630003AF09E3F510578F00C948A210C94D521D4
:104640005F3FE4F3983ED4F3869577956795B795E9
:10465000F7959F5FC9F7880F911D9695879597F9F4
:104660000895E1E0660F771F881FBB1F621773076D
:104670008407BA0720F0621B730B840BBA0BEE1F82
:1046800088F7E09508950E944A236894B1110C942C
:10469000D52108950E94BA2188F09F5798F0B92F2C
:1046A0009927B751B0F0E1F0660F771F881F991F67
:1046B0001AF0BA95C9F714C0B13091F00E94D42114
:1046C000B1E008950C94D421672F782F8827B85F24
:1046D00039F0B93FCCF3869577956795B395D9F7BF
:1046E0003EF490958095709561957F4F8F4F9F4FC9
:1046F00008950E94F62008F48FEF08950E94F62096
:10470000880B990B0895991B79E004C0991F96179F
:1047100008F0961B881F7A95C9F780950895EE0FCB
:10472000FF1F0590F491E02D099491110C948721BD
:1047300080538A5018F0865C0C94A223089585FD5E
:104740000C948721806291110C94872181568A51A3
:10475000D8F708959111089581568A5108F480522E
:1047600085580895FB01DC018D910190801901109D
:10477000D9F3990B0895FB01DC0101900D92002003
:10478000E1F70895AEE0B0E0E8ECF3E20C940A2221
:104790000D891E8986E08C831A8309838FEF9FE73A
:1047A0009E838D83AE01475E5F4F6F89788DCE010A
:1047B00001960E94E5232F813885020F131FF8010F
:1047C00010822E96E4E00C942622ABE0B0E0EBEEF3
:1047D000F3E20C94FC217C013B018A01FC0117826D
:1047E0001682838181FFC8C1CE0101965C01F70169
:1047F0009381F30193FD859193FF81913F0188237C
:1048000009F453C1853239F493FD859193FF819169
:104810003F01853229F4B70190E00E94D525E7CF0A
:10482000912C212C312CFFE1F31538F08B3211F152
:1048300090F4803209F1833229F137FC3CC020ED3D
:10484000280F2A3050F536FE20C08AE0989E200DB1
:104850001124922E06C08D3291F0803371F7689446
:1048600030F8F30193FD859193FF81913F01811110
:10487000DACF21C0689431F8689432F8F2CF6894A6
:1048800033F8EFCF689434F8ECCFEAE02E9E200D99
:104890001124222E689435F8E4CF8E3229F436FCA8
:1048A00004C1689436F8DDCF8C3619F4689437F873
:1048B000D8CF8836B1F2982F9F7D95549330E0F091
:1048C0008336A1F18337C1F1833509F063C0280134
:1048D000F2E04F0E511CF801C080D180692D70E0CC
:1048E00036FC02C06FEF7FEFC6010E94BF254C016E
:1048F000689437F882010AC00C5F1F4FFFE3F98309
:1049000088248394912C6501E89437F833FE2DC0F8
:10491000522C8114910471F5552009F468CFB70128
:1049200080E290E00E94D5255A94F6CFF80180816C
:1049300089830E5F1F4FE4CF2801F2E04F0E511C18
:10494000F801C080D180692D70E036FC02C06FEFA5
:104950007FEFC6010E94CA254C018201D5CFB70165
:1049600080E290E00E94D5252A942814190409F0C9
:10497000B0F7CECFF60137FC859137FE81916F01FC
:10498000B70190E00E94D52551105A94F1E08F1A9A
:104990009108BFCF843619F0893609F077C0F80145
:1049A00037FE6BC060817181828193810C5F1F4FE4
:1049B000F32DFF763F2E97FF09C090958095709557
:1049C00061957F4F8F4F9F4F689437F82AE030E012
:1049D000A5010E940526C82ECA188C2C432C36FE31
:1049E0000CC0E89440F8C91440F434FE05C032FC11
:1049F00003C0F32DFE7E4F2E892C44FE95C0FE0190
:104A0000EC0DF11D8081803309F087C0242D297EB3
:104A1000422E842D8870582E43FC95C040FE8FC0D6
:104A20009C2C821418F42C0C922C981844FE91C0E3
:104A3000B70180E390E00E94D52542FE09C088E7D7
:104A400090E041FE02C088E590E0B7010E94D525C4
:104A5000C91408F48AC0CA94D12C9FEFC91AD90A84
:104A6000CA0CDB1CF60182916F01B70190E00E9435
:104A7000D525AC14BD04B1F74FCF60817181072EED
:104A8000000C880B990B0E5F1F4F92CFD32CE8942C
:104A9000D4F82AE030E0853739F1232D297FD22E52
:104AA0008F3601F148F48835A9F0F70186819781A6
:104AB0002B96E2E10C941822803749F08837A9F749
:104AC000D4FE02C06894D2F820E130E00DC06894B2
:104AD000D4F8F6CF34FE03C0822F8660D82E20E1B2
:104AE00032E002C028E030E0F801D7FE0FC060815C
:104AF0007181828193810C5F1F4FA5010E94052661
:104B0000C82ECA183D2CE89437F867CF60817181B0
:104B100090E080E00E5F1F4FF0CF42FC02C0839414
:104B200078CF8394839475CF842D867809F471CFE0
:104B3000F6CFB70180E290E00E94D52583948214DD
:104B4000C0F3512C73CF522C5818821408F46ECF36
:104B5000F8CF842D867809F47BCF8BE241FE80E28A
:104B600047FC8DE2B70190E071CFB70180E390E0A0
:104B70000E94D5259A946CCF8FEF9FEF99CFFC01BF
:104B80000590615070400110D8F7809590958E0F78
:104B90009F1F0895FC016150704001900110D8F7EB
:104BA000809590958E0F9F1F08950F931F93CF931D
:104BB000DF93182F092FEB018B8181FD09C01FEFB7
:104BC0000FEF812F902FDF91CF911F910F910895BB
:104BD00082FF14C02E813F818C819D812817390767
:104BE0003CF4E881F981CF01019699838883108391
:104BF0008E819F8101969F838E83E3CFE885F9851F
:104C0000812F0995892BA1F3DACFFA01AA27283041
:104C100051F1203181F1E8946F936E7F6E5F7F4F89
:104C20008F4F9F4FAF4FB1E03ED0B4E03CD0670F05
:104C3000781F891F9A1FA11D680F791F8A1F911D58
:104C4000A11D6A0F711D811D911DA11D20D009F4A8
:104C500068943F912AE0269F11243019305D3193EA
:104C6000DEF6CF010895462F4770405D4193B3E0D3
:104C70000FD0C9F7F6CF462F4F70405D4A3318F07A
:104C8000495D31FD4052419302D0A9F7EACFB4E02B
:104C9000A6959795879577956795BA95C9F70097E3
:104CA0006105710508959B01AC010A2E0694579584
:104CB000479537952795BA95C9F7620F731F841FDB
:0A4CC000951FA01D0895F894FFCF82
:104CCA00050364001900F4011900F4010000803F93
:104CDA000000004001000000400000C03F0000004A
:104CEA003F000020403333333F9A99193F000000B8
:104CFA003F0000803FFFFF1224040000003F7C01B8
:104D0A00FF017E020A008101FD0178020A00100EED
:104D1A00DC05DC0500000000A10401042E040905DD
:104D2A005F043D0451040D0A006E616E00696E66EF
:104D3A00006F766600747275650066616C73650053
:104D4A003A2C00434F4E54524F4C5F5249474854F5
:104D5A0000256400434F4E54524F4C5F43454E5416
:104D6A0045525F5800434F4E54524F4C5F4C454694
:104D7A005400585F444541445A4F4E4500434F4EF4
:104D8A0054524F4C5F555000434F4E54524F4C5F54
:104D9A0043454E5445525F5900434F4E54524F4C6F
:104DAA005F444F574E00595F444541445A4F4E4560
:104DBA0000414343454C45524154494F4E5F464F8B
:104DCA00525741524400444543454C455241544987
:104DDA004F4E5F464F525741524400414343454C60
:104DEA0045524154494F4E5F4241434B5741524409
:104DFA0000444543454C45524154494F4E5F424158
:104E0A00434B5741524400414343454C4552415458
:104E1A00494F4E5F5455524E494E4700444543450B
:104E2A004C45524154494F4E5F5455524E494E4794
:104E3A0000464153544553545F464F5257415244DA
:104E4A0000464153544553545F4241434B574152E4
:104E5A0044005455524E5F53504545440053434114
:104E6A004C455F5455524E494E475F5748454E5F31
:104E7A004D4F56494E47005343414C455F414343CA
:104E8A00454C5F574954485F535045454400524585
:104E9A0056455253455F5455524E5F494E5F5245EF
:104EAA005645525345004C4546545F4D4F544F5258
:104EBA005F43454E544552004C4546545F4D4F544E
:104ECA004F525F534C4F57004C4546545F4D4F5419
:104EDA004F525F464153540052494748545F4D4F21
:104EEA00544F525F43454E54455200524947485425
:104EFA005F4D4F544F525F534C4F570052494748EA
:104F0A00545F4D4F544F525F4641535400555345D9
:104F1A005F53504545445F4B4E4F42005350454501
:104F2A00445F4B4E4F425F534C4F575F56414C00C4
:104F3A0053504545445F4B4E4F425F464153545F81
:104F4A0056414C005052494E545F564152494142D3
:104F5A004C45535F494E54455256414C5F4D494C5E
:104F6A004C4953004A4F595F585F50494E004A4FC7
:104F7A00595F595F50494E004C4546545F4D4F5456
:104F8A004F525F434F4E54524F4C4C45525F50491B
:104F9A004E0052494748545F4D4F544F525F434F5A
:104FAA004E54524F4C4C45525F50494E0053504557
:104FBA0045445F4B4E4F425F50494E005341564560
:104FCA000053455454494E4753005245564552548E
:104FDA00005245424F4F5400222C2000227D0000EF
:00000001FF
