:100000000C9421040C9449040C9449040C94061695
:100010000C94A6150C9438150C9422170C944904D2
:100020000C9449040C9449040C9449040C946616ED
:100030000C9449040C9449040C9449040C9449040C
:100040000C9496140C9449040C9406150C94E0142A
:100050000C9449040C9449040C9449040C944904EC
:100060000C9449040C9449044E414E494E4954594C
:10007000494E46CDCCCC3D0AD7233C17B7D1387773
:10008000CC2B329595E6241FB14F0A000020410089
:1000900000C84200401C4620BCBE4CCA1B0E5AAED3
:1000A000C59D7400407A10F35A00A0724E180900E2
:1000B00010A5D4E80000E87648170000E40B5402CD
:1000C0000000CA9A3B000000E1F505000080969808
:1000D00000000040420F000000A086010000001058
:1000E0002700000000E8030000000064000000009A
:1000F000000A00000000000100000000002C76D87B
:1001000088DC674F0823DFC1DFAE59E1B1B796E560
:10011000E3E453C63AE651997696E8E6C28426EBC4
:10012000898C9B62ED407C6FFCEFBC9C9F40F2BAD7
:10013000A56FA5F490055A2AF75C936B6CF9676D6F
:10014000C11BFCE0E40D47FEF520E6B500D0ED90C4
:100150002E0300943577050080841E080000204E91
:100160000A000000C80C333333330F986E1283112A
:1001700041EF8D2114893BE65516CFFEE6DB18D101
:10018000844B381BF77C1D901DA4BBE424203284D3
:10019000725E228100C9F124ECA1E53D272243488B
:1001A00045434B53554D223A005D2C002C002C004A
:1001B000223A5B002244524956455F425554544FFF
:1001C0004E5F004A4F595F43414C49425F434F5590
:1001D0004E540052494748545F4D4F544F525F5060
:1001E000554C5345004C4546545F4D4F544F525F5C
:1001F00050554C53450053504545445F4B4E4F427C
:100200005F464153545F56414C0053504545445F4F
:100210004B4E4F425F534C4F575F56414C00524933
:100220004748545F4D4F544F525F4641535400521C
:10023000494748545F4D4F544F525F534C4F5700FE
:1002400052494748545F4D4F544F525F43454E54B7
:100250004552004C4546545F4D4F544F525F464106
:100260005354004C4546545F4D4F544F525F534CCE
:100270004F57004C4546545F4D4F544F525F4345D6
:100280004E544552005354574D42005343414C4540
:100290005F5455524E494E475F5748454E5F4D4F4C
:1002A00056494E47005455524E5F53504545440001
:1002B000464153544553545F4241434B5741524486
:1002C00000464153544553545F464F5257415244A0
:1002D00000444543454C45524154494F4E5F5455A7
:1002E000524E494E4700414343454C4552415449C3
:1002F0004F4E5F5455524E494E4700444543454C7E
:1003000045524154494F4E5F4241434B574152443D
:1003100000414343454C45524154494F4E5F424191
:10032000434B5741524400444543454C4552415488
:10033000494F4E5F464F5257415244004143434557
:100340004C45524154494F4E5F464F5257415244DB
:1003500000595F444541445A4F4E4500434F4E5467
:10036000524F4C5F444F574E00434F4E54524F4CE8
:100370005F43454E5445525F5900434F4E54524FD0
:100380004C5F555000585F444541445A4F4E45001C
:10039000434F4E54524F4C5F4C45465400434F4ED2
:1003A00054524F4C5F43454E5445525F5800434FA3
:1003B0004E54524F4C5F5249474854006375727215
:1003C000656E742073657474696E67732C2076652E
:1003D0007273696F6E3A007B00000000006410B712
:1003E0001DC8206E3BAC30D9269041DC76F4516BB1
:1003F0006B5861B24D3C7105502083B8ED44930FAA
:10040000F0E8A3D6D68CB361CBB0C2649BD4D2D370
:100410008678E20AA01CF2BDBD7B226572726F7203
:10042000223A2022656570726F6D206661696C7575
:100430007265227D007B226572726F72223A2022E1
:10044000656570726F6D206661696C757265227D7D
:10045000002276616C7565223A2022002273657451
:1004600074696E67223A2022007B22726573756C74
:1004700074223A20226368616E676522007B2272D3
:100480006573756C74223A20226E6F206368616E0A
:100490006765227D007B22726573756C74223A2039
:1004A0002273746F70706564227D007B22726573A5
:1004B000756C74223A20226D6F76656D656E7420BE
:1004C000616C6C6F776564227D007B227265737549
:1004D0006C74223A20227361766564227D00424169
:1004E00048004642004E4200554F42004E535500D0
:1004F0005350480053500055535300414200524D51
:10050000004E52530052505000524350005254502B
:1005100000525350005552005354454552494E47DE
:100520005F4F46465F5357495443485F50494E001A
:100530005354454552494E475F4F46465F535749CE
:10054000544348002276616C7565223A5B00227341
:10055000657474696E67223A2022007B227265738B
:10056000756C74223A20226368616E676522004EC2
:10057000554D5F44524956455F425554544F4E5372
:10058000004253414800425554544F4E5F4D4F4432
:10059000455F50494E00424D54005553455F42550A
:1005A00054544F4E5F4D4F44455F50494E00454EA9
:1005B00041424C455F425554544F4E5F4354524C58
:1005C0000053544152545F4D4F544F525F50554C5D
:1005D00053455F54494D4500454E41424C455F539C
:1005E0005441525455505F50554C53450052494761
:1005F00048545F4D4F544F525F434F4E54524F4CEF
:100600004C45525F50494E004C4546545F4D4F5447
:100610004F525F434F4E54524F4C4C45525F5049DE
:100620004E004A4F595F595F50494E004A4F595F3B
:10063000585F50494E0053504545445F4B4E4F4222
:100640005F50494E005343414C455F414343454C45
:100650005F574954485F5350454544005553455FE3
:1006600053504545445F4B4E4F420052455645520C
:1006700053455F5455524E5F494E5F524556455261
:10068000534500AE039D03900385037A0369035C21
:100690000351033C0327031103FB02E602D102C10D
:1006A00002B002A5028B0285026B0673026302533D
:1006B0000240022F021E025C060A02F601450636BF
:1006C000062C0622060806ED05D805E501D301C172
:1006D00005C301AE059A059605860581056F0530AF
:1006E000051805F704F404F004EC04E804E504E25A
:1006F00004DE04150511050D05050509050105FEB6
:1007000004FB042C22434845434B53554D223A00E9
:1007100022625F6D5F70223A0073746F7042697479
:100720007300627574746F6E73006A6F794F4B005B
:100730006D6F76656D656E74416C6C6F7765640086
:1007400073706565644B6E6F6256616C00726967A9
:1007500068744D6F746F72577269746556616C007E
:100760006C6566744D6F746F72577269746556610B
:100770006C007370656564546F44726976650074CB
:1007800075726E546F447269766500737065656446
:1007900050726F636573736564007475726E507226
:1007A0006F636573736564007370656564496E702B
:1007B0007574007475726E496E707574006A6F7925
:1007C0005956616C006A6F795856616C0063757296
:1007D00072656E742076616C7565732C206D696C22
:1007E0006C69733A0000000000240027002A000012
:1007F000000000250028002B000000000023002638
:100800000029000404040404040404020202020295
:1008100002030303030303010204081020408001C4
:100820000204081020010204081020000000080043
:1008300002010000030407000000000000000000A7
:100840003F1811241FBECFEFD8E0DEBFCDBF12E0AE
:10085000A0E0B1E0E2E4F4E702C005900D92A43E0E
:10086000B107D9F724E0A4EEB2E001C01D92A43A8A
:10087000B207E1F714E0C1E2D4E004C02197FE0121
:100880000E944B37C032D107C9F70E94B6180C94AA
:100890001F3A0C940000833081F028F4813099F0E5
:1008A0008230A9F008958730A9F08830C9F08430EB
:1008B000B1F4809180008F7D03C0809180008F779C
:1008C00080938000089584B58F7784BD089584B5A2
:1008D0008F7DFBCF8091B0008F778093B00008951B
:1008E0008091B0008F7DF9CFCF93DF93282F30E038
:1008F000F901E55DF74F8491F901E95EF74FD49175
:10090000F901ED5FF74FC491CC23A1F081110E9452
:100910004B04EC2FF0E0EE0FFF1FE750F84FA591CE
:10092000B491EC91ED2381E090E009F480E0DF9157
:10093000CF91089580E090E0FACF1F93CF93DF939B
:10094000282F30E0F901E55DF74F8491F901E95E68
:10095000F74FD491F901ED5FF74FC491CC23A9F083
:10096000162F81110E944B04EC2FF0E0EE0FFF1FB9
:10097000E151F84FA591B4918FB7F894EC91111112
:1009800008C0D095DE23DC938FBFDF91CF911F91FC
:100990000895DE2BF8CFCF93DF9390E0FC01E95E62
:1009A000F74F24918D5F974FFC0184918823C9F004
:1009B00090E0880F991FFC01EB51F84FA591B4917D
:1009C000FC01E151F84FC591D49161110DC09FB761
:1009D000F8948C91209582238C93888128232883F6
:1009E0009FBFDF91CF910895623051F49FB7F89483
:1009F0003C91822F809583238C93E8812E2BEFCF1F
:100A00008FB7F894EC912E2B2C938FBFEACF8E30BA
:100A100008F08E508770806480937C0080917A000B
:100A2000806480937A0080917A0086FDFCCF80916B
:100A300078009091790008953FB7F8948091D4039D
:100A40009091D503A091D603B091D70326B5A89B6A
:100A500005C02F3F19F00196A11DB11D3FBFBA2F50
:100A6000A92F982F8827BC01CD01620F711D811D10
:100A7000911D42E0660F771F881F991F4A95D1F795
:100A800008958F929F92AF92BF92CF92DF92EF9292
:100A9000FF926B017C010E941C054B015C01C1149B
:100AA000D104E104F104B9F00E941C056819790928
:100AB0008A099B09683E73408105910580F321E016
:100AC000C21AD108E108F10888EE880E83E0981E6A
:100AD000A11CB11CE4CFFF90EF90DF90CF90BF90AE
:100AE000AF909F908F9008952FB7F8946091D003A6
:100AF0007091D1038091D2039091D3032FBF0895B9
:100B0000AF92BF92CF92DF92EF92FF920F931F931B
:100B1000CF93DF936C017B018B01040F151FEB0159
:100B20005E01AE18BF08C017D10759F06991D60110
:100B3000ED91FC910190F081E02DC6010995892B82
:100B400079F7C501DF91CF911F910F91FF90EF9041
:100B5000DF90CF90BF90AF900895FC01538D448DEE
:100B6000252F30E0842F90E0821B930B541710F058
:100B7000CF96089501970895FC01918D828D981765
:100B800061F0A28DAE0FBF2FB11D5D968C91928D3D
:100B90009F5F9F73928F90E008958FEF9FEF08956E
:100BA000FC01918D828D981731F0828DE80FF11D37
:100BB000858D90E008958FEF9FEF0895FC01918D52
:100BC000228D892F90E0805C9F4F821B91098F734B
:100BD0009927089588ED93E00E94DE0521E0892B96
:100BE00009F420E0822F089580E090E0892B29F01D
:100BF0000E94EA0581110C9400000895FC01A48D67
:100C0000A80FB92FB11DA35ABF4F2C91848D90E02E
:100C100001968F739927848FA689B7892C93A08911
:100C2000B1898C91837080648C93938D848D98139B
:100C300006C00288F389E02D80818F7D808308952E
:100C4000EF92FF920F931F93CF93DF93EC0181E01C
:100C5000888F9B8D8C8D98131AC0E889F9898081C3
:100C600085FF15C09FB7F894EE89FF896083E889F6
:100C7000F98980818370806480839FBF81E090E0E8
:100C8000DF91CF911F910F91FF90EF900895F62E75
:100C90000B8D10E00F5F1F4F0F731127E02E8C8D0F
:100CA0008E110CC00FB607FCFACFE889F989808154
:100CB00085FFF5CFCE010E94FE05F1CFEB8DEC0F45
:100CC000FD2FF11DE35AFF4FF0829FB7F8940B8F71
:100CD000EA89FB8980818062CFCF0F931F93CF93E6
:100CE000DF938C01D0E0C0E0F801EC0FFD1F6491B0
:100CF000662341F088ED93E00E942006892B11F0D5
:100D00002196F2CFCE01DF91CF911F910F910895DF
:100D1000CF93DF93EC01888D8823B9F0AA89BB8932
:100D2000E889F9898C9185FD03C0808186FD0DC01D
:100D30000FB607FCF7CF8C9185FFF2CF808185FF3E
:100D4000EDCFCE010E94FE05E9CFDF91CF9108954E
:100D50000895DC01EC91EC3090F511968C9111978F
:100D600028E830E0281B310987FD3395220F331F17
:100D7000220F331F6217730784F012968C9128E5B7
:100D800032E0281B310987FD3395220F331F220FD4
:100D9000331F621773070CF49B0122503109220F95
:100DA000331F4FB7F8948E2F90E0FC01EE0FFF1F1A
:100DB000E80FF91FEB58FB4F328321834FBF089593
:100DC0001F93CF93DF93EC01162F88818C3008F0AE
:100DD0004EC061E0812F0E94CB048881282F30E033
:100DE000F901EE0FFF1FE20FF31FEB58FB4F1F73CC
:100DF0006081607C612B608319821A822CE0622FF3
:100E00000E943F37829FB001112430E020E0AB0107
:100E1000420F531FFA01EE0FFF1FE40FF51FEB58AF
:100E2000FB4F908196FD16C02F5F3F4F2C30310550
:100E300071F781110FC01092800082E080938100D1
:100E40001092850010928400B19A80916F008260A8
:100E500080936F00E8818E2F90E0FC01EE0FFF1F62
:100E6000E80FF91FEB58FB4F8081806480838881F5
:100E7000DF91CF911F9108950F931F93E42FE627E1
:100E8000EF7024E0E29FF0011124E752FC4F05913E
:100E900015912591349154E09695879577956795AE
:100EA0005A95D1F76027712782279327E42FE2957F
:100EB000EF70E627EF7024E0E29FF0011124E75283
:100EC000FC4F0591159125913491E4E09695879515
:100ED00077956795EA95D1F7602771278227932741
:100EE0001F910F9108950E946D0620918703309104
:100EF0008803820F931F909388038093870308953C
:100F00002F923F924F925F926F927F928F929F9219
:100F1000AF92BF92CF92DF92EF92FF920F931F9307
:100F2000CF93DF93EC016A01790117FF02C010E053
:100F300000E06E157F050CF019C11601201A310A68
:100F4000C215D3050CF093C0621573050CF08FC069
:100F5000072E000C880B990B0E9477344B015C0123
:100F6000BE010D2E000C880B990B0E947734A50151
:100F700094010E9420362B013C01B101330C880BF7
:100F8000990B0E947734A50194010E9420369B01A1
:100F9000AC01C301B2010E948D3620E030E040E890
:100FA0005FE30E9420364B015C010C0D1D1D0C17E8
:100FB0001D079CF50E151F0584F5B701FF0C880B66
:100FC000990B0E9477346B017C01BE01DD0F880B09
:100FD000990B0E947734A70196010E9420364B019D
:100FE0005C01B7FAB094B7F8B094B801110F880B50
:100FF000990B0E947734A70196010E9420369B012D
:10100000AC01C501B4010E948D3620E030E040E81B
:101010005FE30E9421364B015C0120E030E040E8B4
:101020005FEBC501B4010E94703487FD91C020E0E0
:1010300030E040E85FE3C501B4010E94353718167F
:101040000CF48DC0C501B401DF91CF911F910F91B8
:10105000FF90EF90DF90CF90BF90AF909F908F90D8
:101060007F906F905F904F903F902F900895812CCC
:10107000912C54019ACF18012C0C3D1C2C163D06C6
:101080000CF062C0261637060CF05EC0072E000C6E
:10109000880B990B0E9477344B015C01BE010D2E29
:1010A000000C880B990B0E947734A50194010E94D3
:1010B00020362B013C01B101330C880B990B0E94A7
:1010C0007734A50194010E9420369B01AC01C30135
:1010D000B2010E948D3620E030E040E85FE30E94DC
:1010E00020364B015C01C01AD10ACC15DD050CF08D
:1010F00094CFEC14FD040CF090CFB701FF0C880BDB
:10110000990B0E9477344B015C01BE01DD0F880B07
:10111000990B0E947734A50194010E9420362B017F
:101120003C0177FA709477F87094B601DD0C880B67
:10113000990B0E947734A50194010E9420369B01EF
:10114000AC01C301B2015FCF812C912C5401CBCFF4
:10115000812C912C90E8A92E9FEBB92E73CF812C76
:10116000912C80E8A82E8FE3B82E6CCFE616F706F8
:101170000CF481CF812C912C540164CFAF92BF929B
:10118000CF92DF92EF92FF920F931F93CF93DF9353
:101190008091BB0384608093BB0398E2A92E91E009
:1011A000B92E2CE2E22E21E0F22E850162E0D80178
:1011B0008D918D010E94CB04E016F106B9F7E1ECA8
:1011C000F1E089ECC82E81E0D82E41E050E0219179
:1011D0003191E50189915E01863188F590E1883091
:1011E00050F091E08E3008F490E0990F990F990F2C
:1011F0008E3018F58850890FA82FA695A695A6952C
:1012000009F081C081111DC03093010120930001BC
:101210008A0101C0000F8A95EAF7202F8091E80229
:10122000802B8093E8028091E502802B8093E50279
:1012300083B18093EB0280E030C08E50DCCF8FEF23
:10124000DBCF813029F43093030120930201E0CFFA
:10125000823009F042C03093050120930401877069
:101260008A0101C0000F8A95EAF7202F8A2F90E0AB
:10127000BC0168517D4FEB013881302B3883BC01B4
:101280006B517D4FEB013881302B3883A13009F44D
:1012900054C070F2A23009F493C0B0E0A559BF4F1A
:1012A0009C91292B2C93909168009A0101C0220FE8
:1012B0008A95EAF7892F822B80936800CE16DF0685
:1012C00009F085CFDF91CF911F910F91FF90EF90A3
:1012D000DF90CF90BF90AF900895833029F4309382
:1012E000070120930601BBCF843029F43093090114
:1012F00020930801B4CF853009F08ACF30930B01D9
:1013000020930A01ACCFA13009F040C08830D9F455
:1013100030930D0120930C0187708A0101C0000FEA
:101320008A95EAF7202F8091E902802B8093E902C9
:101330008091E602802B8093E60286B18093EC02D6
:1013400081E090E0AACF893029F430930F012093F7
:101350000E01E2CF8A3029F430931101209310015D
:10136000DBCF8B3029F4309313012093120177CF18
:101370008C3029F4309315012093140170CF8D30F7
:1013800059F6309317012093160169CFA23009F066
:1013900095CF8031D9F430932101209320018770BB
:1013A0008A0101C0000F8A95EAF7202F8091EA0296
:1013B000802B8093EA028091E702802B8093E702E2
:1013C00089B18093ED0282E090E067CF813129F40A
:1013D0003093230120932201E2CF823129F430930C
:1013E000250120932401DBCF833129F43093270199
:1013F00020932601D4CF843129F43093190120930E
:101400001801CDCF853129F430931B0120931A01A7
:1014100026CF863129F430931D0120931C011FCF64
:10142000873109F0BCCF30931F0120931E0117CFE5
:10143000CF92DF92EF92FF920F931F93CF93DF93A0
:10144000C82FD0E0FE01E85DFE4F80810E94740449
:101450008E01000F111F000F111F0197E1F40E9470
:101460001C05F801EE58FC4F6083718382839383DF
:101470000E947405609382037093830380938403B6
:1014800090938503DF91CF911F910F91FF90EF9083
:10149000DF90CF9008950E941C050E581C4FF80154
:1014A000C080D180E280F3806C197D098E099F098C
:1014B000613771418140910528F70E941C05F801B0
:1014C0000081118122813381601B710B820B930B90
:1014D0008B019C01055F1140210931090F3C174028
:1014E0002105310578F6683E23E072077CF0613D06
:1014F00047E0740714F060ED77E06C5D7540CC0F49
:10150000DD1FC659DC4F79836883BCCF6CE07EEF6A
:10151000F6CF83E00C94180A82E00C94180A80E05D
:101520000C94180A81E00C94180AFC010190002028
:10153000E9F73197AF01481B590BBC0188ED93E0E7
:101540000C9480058F929F92AF92BF920F931F933E
:10155000CF93DF93CDB7DEB7A1970FB6F894DEBF78
:101560000FBECDBF19A2423008F44AE08E010F5DD4
:101570001F4F842E912CB12CA12CA50194010E9407
:10158000EF35E62FB901CA01EA30F4F4E05DD80185
:10159000EE938D01232B242B252B79F790E080E00F
:1015A000109719F0CD010E94950AA1960FB6F894F4
:1015B000DEBF0FBECDBFDF91CF911F910F91BF90C6
:1015C000AF909F908F900895E95CE1CFCF92DF922A
:1015D000EF92FF92CF93DF936B017C016DE288ED78
:1015E00093E00E942006EC0166277727CB016C1957
:1015F0007D098E099F094AE00E94A20A8C0F9D1F57
:10160000DF91CF91FF90EF90DF90CF9008950097FA
:1016100011F00C94950A90E080E00895CF93DF9349
:101620000E946D06EC0184E592E00E94950A8C0F01
:101630009D1FDF91CF910895CF93DF930E94950A6C
:10164000EC0184E592E00E94950A8C0F9D1FDF91CA
:10165000CF9108950F931F93CF938C01C62F809144
:101660008703909188030396909388038093870360
:101670008DED92E00E94070BC8010E946D0620913B
:10168000870330918803820F931F90938803809380
:10169000870387E592E00E94070B8AE592E0C1117B
:1016A00002C081E692E00E94950A20918703309162
:1016B0008803820F931F9093880380938703CF91B1
:1016C0001F910F9108950F931F93CF93DF938C0178
:1016D000EB0180918703909188030596909388038E
:1016E000809387038DED92E00E94070BC8010E9452
:1016F0006D062091870330918803820F931F90938A
:1017000088038093870387E592E00E94070BBE0160
:10171000DD0F880B990B97FF14C00E94E60A2091F9
:10172000870330918803820F931F909388038093DF
:10173000870387EC92E0DF91CF911F910F910C947A
:10174000070B4AE00E94A20AEACFBC01990F880B5E
:10175000990B97FD0C94E60A4AE00C94A20A4F926A
:101760005F926F927F928F929F92AF92BF92CF9231
:10177000DF92EF92FF920F931F93CF936B017C0147
:10178000742EAC019B010E943A37882399F089E6B8
:1017900092E0CF911F910F91FF90EF90DF90CF904B
:1017A000BF90AF909F908F907F906F905F904F9081
:1017B0000C94950A46015701E894B7F82FEF3FEFD4
:1017C0004FE75FE7C501B4010E943A3781110DC0B0
:1017D0002FEF3FEF4FE75FE7C501B4010E94703480
:1017E00018161CF48DE692E0D4CF2FEF3FEF4FE7B1
:1017F0005FE4C701B6010E94353718161CF481E773
:1018000092E0C7CF2FEF3FEF4FE75FECC701B60184
:101810000E94703487FDF3CF20E030E0A901C701BA
:10182000B6010E94703410E000E087FF0AC06DE24C
:1018300088ED93E00E9420068C01F7FAF094F7F807
:10184000F094C0E060E070E080E09FE37C1641F03F
:1018500020E030E040E251E40E948D36CF5FF6CFC9
:10186000A70196010E9421362B013C010E940637F8
:101870004B015C014AE00E94A20A7C01E00EF11ECD
:10188000CC23C1F1C501B4010E9475349B01AC01A8
:10189000C301B2010E9420364B015C016EE288ED6B
:1018A00093E00E942006E80EF91EC15018F120E0D6
:1018B00030E040E251E4C501B4010E94D6342B016E
:1018C0003C010E9406374B01B12CA12C4AE0C50116
:1018D000B4010E94A20AE80EF91EC501B4010E94DB
:1018E00075349B01AC01C301B2010E9420364B014B
:1018F0005C01DBCFC701CF911F910F91FF90EF905B
:10190000DF90CF90BF90AF909F908F907F906F901F
:101910005F904F900895CF92DF92EF92FF92CF9316
:10192000DF93EC016A017B0180918703909188032A
:10193000059690938803809387038DED92E00E9433
:10194000070BCE010E946D0620918703309188031A
:10195000820F931F909388038093870387E592E01B
:101960000E94070B44E0C701B6010E94AF0B209113
:10197000870330918803820F931F9093880380938D
:10198000870387EC92E00E94070B88ED93E0DF91DC
:10199000CF91FF90EF90DF90CF900C9488060F933B
:1019A0001F93CF93DF9382E090E09093880380931E
:1019B000870387ED93E00E946D0664E170E08CEB95
:1019C00093E00E94630B6091BB017091BC018EEAB1
:1019D00093E00E94630B6091B9017091BA018DE9A7
:1019E00093E00E94630B6091B7017091B80180E9A8
:1019F00093E00E94630B6091BD017091BE0185E888
:101A000093E00E94630B6091B3017091B4018AE787
:101A100093E00E94630B6091B1017091B20189E67D
:101A200093E00E94630B6091AF017091B0018CE56F
:101A300093E00E94630B6091B5017091B60181E55E
:101A400093E00E94630B40914F01509150016091CF
:101A50005101709152018CE393E00E948B0C4091F4
:101A6000530150915401609155017091560187E2E4
:101A700093E00E948B0C4091570150915801609166
:101A8000590170915A0181E193E00E948B0C4091C1
:101A90005B0150915C0160915D0170915E018BEF83
:101AA00092E00E948B0C4091460150914701609159
:101AB00048017091490186EE92E00E948B0C4091A2
:101AC0004A0150914B0160914C0170914D0181EDA3
:101AD00092E00E948B0C40916701509168016091E7
:101AE000690170916A0181EC92E00E948B0C409137
:101AF0006B0150916C0160916D0170916E0180EBF2
:101B000092E00E948B0C40916F01509170016091A6
:101B100071017091720185EA92E00E948B0C4091F4
:101B20005F015091600160916101709162018BE8E9
:101B300092E00E948B0C409163015091640160918E
:101B400065017091660185E892E00E948B0C6091BE
:101B5000A4038BE696E00E942A0B609137017091F6
:101B6000380183E792E00E94630B60913901709124
:101B70003A0183E692E00E94630B60913B01709111
:101B80003C0183E592E00E94630B60913D017091FE
:101B90003E0180E492E00E94630B60913F017091EE
:101BA00040018FE292E00E94630B609141017091CD
:101BB00042018EE192E00E94630B6091AD038CE5DF
:101BC00096E00E942A0B60917401709175018AE081
:101BD00092E00E94630B6091AB037091AC0386EFBF
:101BE00091E00E94630B60914E0185E496E00E94B3
:101BF0002A0B6091730170E086E396E00E94630B0C
:101C00006091C00170E08CE296E00E94630B6091ED
:101C1000BF0170E082E296E00E94630B60912E01AA
:101C200070E088E096E00E94630B60912D0170E007
:101C30008DEE95E00E94630B60912C0188ED95E09C
:101C40000E942A0B609133017091340185EE91E07E
:101C50000E94630B609131017091320183ED91E03C
:101C60000E94630B60912F017091300181EC95E02F
:101C70000E94630B609135017091360183EC91E015
:101C80000E94630B6091BE038EEA95E00E942A0BCE
:101C90006091B9038AE995E00E942A0B6091AE0138
:101CA00070E086E895E00E94630B6091BD0386E9D1
:101CB00095E00E942A0B6091BC0381E895E00E94A8
:101CC0002A0B6091B8038BEF94E00E942A0B60917D
:101CD000AD0170E08FE695E00E94630BC7E7D1E0AD
:101CE00001E010E084EB91E00E947307C8010E94BC
:101CF000A50B2091870330918803820F931F909347
:101D000088038093870380EB91E00E9473076881CA
:101D100070E090E080E04AE00E94A20A20918703F0
:101D200030918803820F931F9093880380938703D9
:101D30008EEA91E00E94730769817A818B819C8190
:101D400044E00E94AF0B2091870330918803820FFB
:101D5000931F90938803809387038CEA91E00E94FD
:101D600073076D817E818F81988544E00E94AF0B5F
:101D70002091870330918803820F931F90938803EB
:101D80008093870389EA91E00E9473070F5F1F4FDA
:101D900029960730110509F0A5CF6091AE0380E3C5
:101DA00095E00E942A0B6091760170E088E195E051
:101DB0000E94630B6091860385E195E00E942A0BE7
:101DC0006091280170E08DE095E00E94630B6091C6
:101DD000290170E081E195E00E94630B60912A0186
:101DE00070E089E095E00E94630B60912B0170E048
:101DF00085E095E00E94630B6091680381E095E0C7
:101E00000E942A0B6091690370E08EEF94E00E94BB
:101E1000630B6091990387EF94E00E942A0B609115
:101E2000430170E084EF94E00E94630B609198039B
:101E300080EF94E00E942A0B609197038CEE94E06F
:101E40000E942A0B60919B0388EE94E00E942A0B6B
:101E50006091450170E085EE94E00E94630B609113
:101E6000440170E082EE94E00E94630B60919A035B
:101E70008EED94E00E942A0B8DE991E00E94730799
:101E8000809187039091880304960E94A50B8BECA8
:101E900092E0DF91CF911F910F910C941C0B65E79D
:101EA00072E0811102C06AE772E080E193E00C9475
:101EB00077370C949F35CF92DF92EF92FF920F937A
:101EC0001F93CF93DF93EC018B01C090EE02D09073
:101ED000EF02E090F002F090F102FB016081888156
:101EE00099810E94590F88819981F80160819395A9
:101EF0000E94590F88819981F80160819E5F0E943C
:101F0000590FF8014081C701B6010E943C072881A2
:101F100039812F5F3F4F398328836093EE0270939E
:101F2000EF028093F0029093F102DF91CF911F9125
:101F30000F91FF90EF90DF90CF900895AF92BF92F6
:101F4000CF92DF92EF92FF920F931F93CF93DF9385
:101F50008C01EB01C090EE02D090EF02E090F00215
:101F6000F090F1025B0184E0A80EB11C6881F801D9
:101F7000808191810E94590FF8018081918168814F
:101F800093950E94590FF8018081918168819E5F2D
:101F90000E94590F4991C701B6010E943C076B018D
:101FA0007C01F80180819181019691838083AC1638
:101FB000BD06E1F6C092EE02D092EF02E092F0028E
:101FC000F092F102DF91CF911F910F91FF90EF906E
:101FD000DF90CF90BF90AF900895AF92BF92CF9215
:101FE000DF92EF92FF920F931F93CF93DF938C01B9
:101FF000EB01C090EE02D090EF02E090F002F09082
:10200000F1025B0182E0A80EB11C6881F8018081B9
:1020100091810E94590FF801808191816881939587
:102020000E94590FF8018081918168819E5F0E9412
:10203000590F4991C701B6010E943C076B017C0111
:10204000F80180819181019691838083AC16BD0651
:10205000E1F6C092EE02D092EF02E092F002F0922E
:10206000F102DF91CF911F910F91FF90EF90DF90E0
:10207000CF90BF90AF900895CF92DF92EF92FF92F2
:102080000F931F93CF93DF93EC018B01C090EE026F
:10209000D090EF02E090F002F090F102FB0160813D
:1020A000888199810E94590F88819981F801608106
:1020B00093950E94590F88819981F80160819E5FF4
:1020C0000E94590FF8014081C701B6010E943C07E8
:1020D000288139812F5F3F4F398328836093EE0237
:1020E0007093EF028093F0029093F102DF91CF9111
:1020F0001F910F91FF90EF90DF90CF900895CF92B6
:10210000DF92EF92FF920F931F93CF93DF9300D054
:10211000CDB7DEB781E090E09A8389831092EE021A
:102120001092EF021092F0021092F1026BEB71E04C
:10213000CE0101960E94ED0F69EB71E0CE01019690
:102140000E94ED0F67EB71E0CE0101960E94ED0F4A
:102150006DEB71E0CE0101960E94ED0F63EB71E033
:10216000CE0101960E94ED0F61EB71E0CE01019668
:102170000E94ED0F6FEA71E0CE0101960E94ED0F13
:1021800065EB71E0CE0101960E94ED0F6FE471E006
:10219000CE0101960E949E0F63E571E0CE0101968B
:1021A0000E949E0F67E571E0CE0101960E949E0F8E
:1021B0006BE571E0CE0101960E949E0F66E471E02E
:1021C000CE0101960E949E0F6AE471E0CE01019655
:1021D0000E949E0F67E671E0CE0101960E949E0F5D
:1021E0006BE671E0CE0101960E949E0F6FE671E0F2
:1021F000CE0101960E949E0F6FE571E0CE0101961F
:102200000E949E0F63E671E0CE0101960E949E0F30
:1022100064EA73E0CE0101960E945B0F67E371E010
:10222000CE0101960E94ED0F69E371E0CE010196A7
:102230000E94ED0F6BE371E0CE0101960E94ED0F5D
:102240006DE371E0CE0101960E94ED0F6FE371E046
:10225000CE0101960E94ED0F61E471E0CE0101967E
:102260000E94ED0F6DEA73E0CE0101960E945B0FB4
:1022700064E771E0CE0101960E94ED0F6BEA73E016
:10228000CE0101960E94ED0F6EE471E0CE01019641
:102290000E945B0F63E771E0CE0101960E943C1043
:1022A00060EC71E0CE0101960E943C106FEB71E092
:1022B000CE0101960E943C106EE271E0CE010196C3
:1022C0000E943C106DE271E0CE0101960E943C102C
:1022D0006CE271E0CE0101960E945B0F63E371E056
:1022E000CE0101960E94ED0F61E371E0CE010196EF
:1022F0000E94ED0F6FE271E0CE0101960E94ED0F9A
:1023000065E371E0CE0101960E94ED0F6EEB73E084
:10231000CE0101960E945B0F69EB73E0CE0101963E
:102320000E945B0F6DEB73E0CE0101960E945B0F84
:102330006EEA71E0CE0101960E943C106CEB73E0F6
:10234000CE0101960E945B0F6DEA71E0CE0101960D
:102350000E943C10C090EE02D090EF02E090F0029C
:10236000F090F10207E711E0F801608189819A811C
:102370000E94590F89819A81F801608193950E948A
:10238000590F89819A81F80160819E5F0E94590FDF
:10239000F80141918F01C701B6010E943C076B0112
:1023A0007C0189819A8101969A838983F1E00D3AB3
:1023B0001F07D1F6C092EE02D092EF02E092F00237
:1023C000F092F1026EEA73E0CE0101960E945B0F7B
:1023D00066E771E0CE0101960E943C1069E973E066
:1023E000CE0101960E945B0F63E471E0CE0101967D
:1023F0000E943C1068E973E0CE0101960E945B0FD9
:1024000067E973E0CE0101960E945B0F6BE973E010
:10241000CE0101960E945B0F65E471E0CE0101964A
:102420000E943C1064E471E0CE0101960E943C10D1
:102430006AE973E0CE0101960E945B0F66E873E0E3
:10244000CE0101960E945B0F69E271E0CE01019618
:102450000E943C1068E271E0CE0101960E943C109F
:102460006BE271E0CE0101960E943C106AE271E0DD
:10247000CE0101960E943C1068E673E0CE01019601
:102480000E945B0F69E673E0CE0101960E943C104A
:1024900068EB73E0CE0101960E945B0FC090EE02E4
:1024A000D090EF02E090F002F090F1020EEE12E018
:1024B000F801608189819A810E94590F89819A81EE
:1024C000F801608193950E94590F89819A81F801E2
:1024D00060819E5F0E94590FF80141918F01C701F1
:1024E000B6010E943C076B017C0189819A810196AB
:1024F0009A838983F2E0023F1F07D1F6C092EE0271
:10250000D092EF02E092F002F092F1020F900F9061
:10251000DF91CF911F910F91FF90EF90DF90CF90BF
:1025200008950C949735CF92DF92EF92FF920F931C
:102530001F93CF93DF938C017B01FC01C080D1807E
:10254000C6010E949112C82FC60193950E94911254
:10255000D82FC6019E5F0E949112CD1327C0C813C9
:1025600025C0F701C0836091EE027091EF02809167
:10257000F0029091F102F70140810E943C076093C4
:10258000EE027093EF028093F0029093F102F80153
:1025900080819181019691838083DF91CF911F91FA
:1025A0000F91FF90EF90DF90CF9008956C2F682BE4
:1025B0006D23C8236C2BF7016083F8018081918122
:1025C0000E94590FF80180819181F70160819395F4
:1025D0000E94590FF80180819181F70160819E5F0F
:1025E0000E94590F61E08DE00E94CB0460E08DE015
:1025F0000E949D0464E670E080E090E00E94410546
:1026000061E08DE00E949D0462E370E080E090E074
:102610000E944105A895A7CFAF92BF92CF92DF92BB
:10262000EF92FF920F931F93CF93DF937C01EB0107
:102630006B0184E0C80ED11CF701A080B180C501F8
:102640000E949112182FC50193950E949112082F94
:10265000C5019E5F0E94911210132AC0181328C052
:1026600018836091EE027091EF028091F0029091D8
:10267000F10249910E943C076093EE027093EF02D1
:102680008093F0029093F102F7018081918101968D
:1026900091838083CC15DD0579F6DF91CF911F9171
:1026A0000F91FF90EF90DF90CF90BF90AF90089583
:1026B000612F682B60231823612B6883F7018081C9
:1026C00091810E94590FF7018081918168819395D2
:1026D0000E94590FF7018081918168819E5F0E945D
:1026E000590F61E08DE00E94CB0460E08DE00E9414
:1026F0009D0464E670E080E090E00E94410561E0A6
:102700008DE00E949D0462E370E080E090E00E9412
:102710004105A895A6CFAF92BF92CF92DF92EF92DC
:10272000FF920F931F93CF93DF937C01EB016B011B
:1027300082E0C80ED11CF701A080B180C5010E94C3
:102740009112182FC50193950E949112082FC5016F
:102750009E5F0E94911210132AC0181328C018837C
:102760006091EE027091EF028091F0029091F1027F
:1027700049910E943C076093EE027093EF028093B0
:10278000F0029093F102F70180819181019691838B
:102790008083CC15DD0579F6DF91CF911F910F91E4
:1027A000FF90EF90DF90CF90BF90AF900895612F92
:1027B000682B60231823612B6883F7018081918146
:1027C0000E94590FF70180819181688193950E9441
:1027D000590FF7018081918168819E5F0E94590F96
:1027E00061E08DE00E94CB0460E08DE00E949D04DA
:1027F00064E670E080E090E00E94410561E08DE0D9
:102800000E949D0462E370E080E090E00E94410538
:10281000A895A6CFCF92DF92EF92FF920F931F93CE
:10282000CF93DF938C017B01FC01C080D180C60176
:102830000E949112C82FC60193950E949112D82F21
:10284000C6019E5F0E949112CD1327C0C81325C0F8
:10285000F701C0836091EE027091EF028091F00267
:102860009091F102F70140810E943C076093EE02D3
:102870007093EF028093F0029093F102F80180814F
:102880009181019691838083DF91CF911F910F9168
:10289000FF90EF90DF90CF9008956C2F682B6D2301
:1028A000C8236C2BF7016083F801808191810E941D
:1028B000590FF80180819181F701608193950E9401
:1028C000590FF80180819181F70160819E5F0E941C
:1028D000590F61E08DE00E94CB0460E08DE00E9422
:1028E0009D0464E670E080E090E00E94410561E0B4
:1028F0008DE00E949D0462E370E080E090E00E9421
:102900004105A895A7CF9F938F9380E892E09F936E
:102910008F9380E193E09F938F930E947E370F9077
:102920000F900F900F900F900F9008951F920F929D
:102930000FB60F9211242F933F938F939F93AF93D2
:10294000BF938091D0039091D103A091D203B09115
:10295000D3033091CF0323E0230F2D3758F5019691
:10296000A11DB11D2093CF038093D0039093D10379
:10297000A093D203B093D3038091D4039091D50355
:10298000A091D603B091D7030196A11DB11D8093EC
:10299000D4039093D503A093D603B093D703BF91EC
:1029A000AF919F918F913F912F910F900FBE0F90FC
:1029B0001F90189526E8230F0296A11DB11DD2CFB6
:1029C0001F920F920FB60F9211242F933F934F93A4
:1029D0005F936F937F938F939F93AF93BF93EF9387
:1029E000FF9388ED93E00E94FE05FF91EF91BF9168
:1029F000AF919F918F917F916F915F914F913F9197
:102A00002F910F900FBE0F901F9018951F920F924D
:102A10000FB60F9211242F938F939F93EF93FF93F1
:102A2000E091E803F091E9038081E091EE03F091F9
:102A3000EF0382FD1BC090818091F1038F5F8F7344
:102A40002091F203821741F0E091F103F0E0E852A7
:102A5000FC4F958F8093F103FF91EF919F918F91A0
:102A60002F910F900FBE0F901F9018958081F4CF7B
:102A70001F920F920FB60F9211242F933F934F93F3
:102A80005F936F937F938F939F93AF93BF93CF93F6
:102A9000EF93FF9399B18091ED02C091EA02C923AF
:102AA000282F2095C2232091E7028223292F2095E9
:102AB0008223C82B9093ED02C4FF05C0E09118015A
:102AC000F09119010995C5FF05C0E0911A01F09137
:102AD0001B010995C6FF05C0E0911C01F0911D0185
:102AE0000995C7FF05C0E0911E01F0911F010995EE
:102AF000C0FF05C0E0912001F09121010995C1FFBF
:102B000005C0E0912201F09123010995C2FF05C0A3
:102B1000E0912401F09125010995C3FF05C0E091E2
:102B20002601F09127010995FF91EF91CF91BF9177
:102B3000AF919F918F917F916F915F914F913F9155
:102B40002F910F900FBE0F901F9018951F920F920C
:102B50000FB60F9211242F933F934F935F936F9370
:102B60007F938F939F93AF93BF93CF93EF93FF93F5
:102B700096B18091EC02C091E902C923282F2095DB
:102B8000C2232091E6028223292F20958223C82B7D
:102B90009093EC02C0FF05C0E0910C01F0910D0193
:102BA0000995C1FF05C0E0910E01F0910F01099553
:102BB000C2FF05C0E0911001F09111010995C3FF1A
:102BC00005C0E0911201F09113010995C4FF05C001
:102BD000E0911401F09115010995C5FF05C0E09140
:102BE0001601F09117010995FF91EF91CF91BF91D7
:102BF000AF919F918F917F916F915F914F913F9195
:102C00002F910F900FBE0F901F9018951F920F924B
:102C10000FB60F9211242F933F934F935F936F93AF
:102C20007F938F939F93AF93BF93CF93EF93FF9334
:102C300093B18091EB02C091E802C923282F20951F
:102C4000C2232091E5028223292F20958223C82BBD
:102C50009093EB02C0FF05C0E0910001F0910101EB
:102C60000995C1FF05C0E0910201F09103010995AA
:102C7000C2FF05C0E0910401F09105010995C3FF71
:102C800005C0E0910601F09107010995C4FF05C058
:102C9000E0910801F09109010995C5FF05C0E09197
:102CA0000A01F0910B010995FF91EF91CF91BF912E
:102CB000AF919F918F917F916F915F914F913F91D4
:102CC0002F910F900FBE0F901F9018951F920F928B
:102CD0000FB60F9211242F933F934F935F936F93EF
:102CE0007F938F939F93AF93BF93CF93DF93EF9394
:102CF000FF938091E402C0919904D0E087FF24C043
:102D000010928500109284008091E4028F5F80937E
:102D1000E4028091E402082E000C990B8C179D07A9
:102D200024F48091E4028C30C4F18091840090916D
:102D30008500049680349C4908F47AC08091840010
:102D400090918500049676C08091E402082E000CD4
:102D5000990B8C179D07C4F6E091E4028E2FEE0FBD
:102D6000990BFC01EE0FFF1FE80FF91FEB58FB4F0B
:102D7000808186FFC9CFE091E4028E2FEE0F990B80
:102D8000FC01EE0FFF1FE80FF91FEB58FB4F80818E
:102D900060E08F730E949D04B7CF20918400309132
:102DA0008500E091E4028E2FEE0F990BFC01EE0FEF
:102DB000FF1FE80FF91FEB58FB4F81819281820FB3
:102DC000931F9093890080938800E091E4028E2FF6
:102DD000EE0F990BFC01EE0FFF1FE80FF91FEB58E8
:102DE000FB4F808186FF11C0E091E4028E2FEE0F31
:102DF000990BFC01EE0FFF1FE80FF91FEB58FB4F7B
:102E0000808161E08F730E949D04FF91EF91DF91BB
:102E1000CF91BF91AF919F918F917F916F915F9172
:102E20004F913F912F910F900FBE0F901F901895CB
:102E300080E49CE990938900809388008FEF8093D1
:102E4000E402E3CF1F920F920FB60F9211242F933B
:102E50003F934F935F936F937F938F939F93AF9322
:102E6000BF93EF93FF93A895F0E0E0E00995FF9101
:102E7000EF91BF91AF919F918F917F916F915F91F2
:102E80004F913F912F910F900FBE0F901F9018956B
:102E9000FF920F931F93CF93DF93A8E2B1E06CE210
:102EA00071E041E050E028EA36E08D91863108F08B
:102EB00057C090E1883058F091E08E3008F490E0EF
:102EC000990F990F990F8E3008F048C08850890FDC
:102ED000982F969596959695C82FC770911166C0B4
:102EE000811140C03093010120930001E92FF0E0EF
:102EF0008A0102C0000F111FCA95E2F7F02EF0946C
:102F00008F0108511D4FE80188818F2188838F012F
:102F10000B511D4FE80188818F218883E559FF4FB0
:102F20008081CF2DC823C083808181110DC0E091A5
:102F300068008A0102C0000F111F9A95E2F7C801CC
:102F400080958E23809368006A177B0709F0ADCFC8
:102F5000DF91CF911F910F91FF9008958E50B7CFC1
:102F60008FEFB6CF813029F4309303012093020113
:102F7000BDCF823029F43093050120930401B6CFF0
:102F8000833029F43093070120930601AFCF8430BA
:102F900029F43093090120930801A8CF853009F066
:102FA000A5CF30930B0120930A01A0CF913059F5A2
:102FB000883029F430930D0120930C0197CF89308C
:102FC00029F430930F0120930E0190CF8A3029F419
:102FD000309311012093100189CF8B3029F4309365
:102FE00013012093120182CF8C3029F43093150104
:102FF000209314017BCF8D3009F078CF30931701E7
:103000002093160173CF923009F09ECF803129F4BE
:10301000309321012093200169CF813129F430932D
:1030200023012093220162CF823129F430932501BC
:10303000209324015BCF833129F43093270120931F
:10304000260154CF843129F43093190120931801BB
:103050004DCF853129F430931B0120931A0146CFBF
:10306000863129F430931D0120931C013FCF873115
:1030700009F03CCF30931F0120931E0137CF1092EF
:10308000DB031092DA0388EE93E0A0E0B0E08093D7
:10309000DC039093DD03A093DE03B093DF0386E4AB
:1030A00092E09093D9038093D80385EC90E09093BD
:1030B000E5038093E40384EC90E09093E70380932E
:1030C000E60380EC90E09093E9038093E80381ECC1
:1030D00090E09093EB038093EA0382EC90E090936E
:1030E000ED038093EC0386EC90E09093EF038093E4
:1030F000EE031092F1031092F2031092F303109278
:10310000F403809199048C3048F591E0980F9093E6
:10311000990480939D0490E0FC01EE0FFF1FE80FDF
:10312000F91FEB58FB4F88EB9BE0928381838091E2
:1031300099048C30B8F491E0980F9093990480939F
:103140009A0490E0FC01EE0FFF1FE80FF91FEB5807
:10315000FB4F88EB9BE09283818308958FEF8093F0
:103160009D04E5CF8FEF80939A040895CF93DF936A
:10317000CDB7DEB7E6970FB6F894DEBF0FBECDBF72
:10318000789484B5826084BD84B5816084BD85B542
:10319000826085BD85B5816085BD80916E0081604E
:1031A00080936E00109281008091810082608093F4
:1031B00081008091810081608093810080918000F6
:1031C0008160809380008091B10084608093B10021
:1031D0008091B00081608093B00080917A0084601B
:1031E00080937A0080917A00826080937A00809147
:1031F0007A00816080937A0080917A008068809361
:103200007A001092C10061E08DE00E94CB0461E081
:103210008DE00E949D04E091E803F091E90382E0D3
:103220008083E091E403F091E5031082E091E603EE
:10323000F091E70387E080831092F003E091EC03C4
:10324000F091ED0386E08083E091EA03F091EB03D7
:10325000808180618083E091EA03F091EB038081BB
:1032600088608083E091EA03F091EB0380818068BD
:103270008083E091EA03F091EB0380818F7D80836E
:1032800084E592E00E94950A62E370E080E090E0BD
:103290000E94410560E08DE00E949D04F894A8958D
:1032A0008091600088618093600087E48093600073
:1032B000789480E092E09093CA038093C90390933E
:1032C000C8038093C7031092BF031092C0031092EB
:1032D000C1031092C2031092C3031092C403109250
:1032E000C5031092C6031092A0031092A10310927E
:1032F000A2031092A30310929C0310929D031092BC
:103300009E0310929F031092AF031092B00310928D
:10331000B1031092B2031092B3031092B40310924F
:10332000B5031092B6038FEF9FEF9093AA0380939B
:10333000A90380E090E0A0E8BFE38093A503909309
:10334000A603A093A703B093A8031092CB031092F7
:10335000CC031092CD031092CE03109289031092E9
:103360008A0310928B0310928C0381E080938D036B
:103370001092B70310928F03109290031092910352
:10338000109292031A8E198EBE01655E7F4FCE0198
:1033900049960E940A148B8D843161F01A8E198E21
:1033A00069EC71E0CE0149960E943C100E947F10AA
:1033B00010928D0381E090E09A8B898B1092EE023F
:1033C0001092EF021092F0021092F1026BEB71E09A
:1033D000CE0141960E948B1369EB71E0CE014196BC
:1033E0000E948B1367EB71E0CE0141960E948B1314
:1033F0006DEB71E0CE0141960E948B1363EB71E09F
:10340000CE0141960E948B1361EB71E0CE01419693
:103410000E948B136FEA71E0CE0141960E948B13DC
:1034200065EB71E0CE0141960E948B136FE471E071
:10343000CE0141960E940C1363E571E0CE014196E6
:103440000E940C1367E571E0CE0141960E940C13B7
:103450006BE571E0CE0141960E940C1366E471E0C9
:10346000CE0141960E940C136AE471E0CE014196B0
:103470000E940C1367E671E0CE0141960E940C1386
:103480006BE671E0CE0141960E940C136FE671E08D
:10349000CE0141960E940C136FE571E0CE0141967A
:1034A0000E940C1363E671E0CE0141960E940C135A
:1034B00064EA73E0CE0141960E94931267E371E0E3
:1034C000CE0141960E948B1369E371E0CE014196D3
:1034D0000E948B136BE371E0CE0141960E948B1327
:1034E0006DE371E0CE0141960E948B136FE371E0B2
:1034F000CE0141960E948B1361E471E0CE014196AA
:103500000E948B136DEA73E0CE0141960E949312E4
:1035100064E771E0CE0141960E948B136BEA73E081
:10352000CE0141960E948B136EE471E0CE0141966C
:103530000E94931263E771E0CE0141960E940A1443
:1035400060EC71E0CE0141960E940A146FEB71E0CD
:10355000CE0141960E940A146EE271E0CE014196BE
:103560000E940A146DE271E0CE0141960E940A1495
:103570006CE271E0CE0141960E94931263E371E028
:10358000CE0141960E948B1361E371E0CE0141961A
:103590000E948B136FE271E0CE0141960E948B1363
:1035A00065E371E0CE0141960E948B136EEB73E0F0
:1035B000CE0141960E94931269EB73E0CE014196D1
:1035C0000E9493126DEB73E0CE0141960E9493121C
:1035D0006EEA71E0CE0141960E940A146CEB73E032
:1035E000CE0141960E9493126DEA71E0CE014196A0
:1035F0000E940A1407E711E0C988DA88C6010E9410
:103600009112F82EC60193950E949112E82EC601E0
:103610009E5F0E949112FE1038C1F81236C1D80187
:10362000FC926091EE027091EF028091F002909115
:10363000F102D8014D918D010E943C076093EE028A
:103640007093EF028093F0029093F10289899A8936
:1036500001969A8B898BB1E00D3A1B0769F66EEAE9
:1036600073E0CE0141960E94931266E771E0CE01AD
:1036700041960E943C1069E973E0CE0141960E9498
:10368000931263E471E0CE0141960E940A1468E946
:1036900073E0CE0141960E94931267E973E0CE0178
:1036A00041960E9493126BE973E0CE0141960E940D
:1036B000931265E471E0CE0141960E940A1464E41D
:1036C00071E0CE0141960E940A146AE973E0CE01CE
:1036D00041960E94931266E873E0CE0141960E94E3
:1036E000931269E271E0CE0141960E940A1468E2E9
:1036F00071E0CE0141960E940A146BE271E0CE01A6
:1037000041960E940A146AE271E0CE0141960E943D
:103710000A1468E673E0CE0141960E94931269E6AE
:1037200073E0CE0141960E940A1468EB73E0CE016B
:1037300041960E9493124090EE025090EF026090EA
:10374000F0027090F10219821A821B821C828E0193
:103750000F5F1F4F6E01E5E0CE0ED11CA988BA881D
:10376000C5010E949112F82EC50193950E949112F5
:10377000E82EC5019E5F0E949112FE10B8C0F8129B
:10378000B6C0D801FC926091EE027091EF02809178
:10379000F0029091F102D8014D918D010E943C07F9
:1037A0006093EE027093EF028093F0029093F10227
:1037B00089899A8901969A8B898B0C151D0571F65A
:1037C00089819A81AB81BC81481659066A067B06BD
:1037D00009F4EEC062E370E080E090E00E944105F1
:1037E00085E394E00E940E0B62E370E080E090E0DD
:1037F0000E944105E0919D048E2F90E0FC01EE0FA8
:10380000FF1FE80FF91FEB58FB4F808186FF02C0B6
:103810008F7B8083E0919A048E2F90E0FC01EE0F65
:10382000FF1FE80FF91FEB58FB4F808186FF02C096
:103830008F7B808364E670E080E090E00E94410529
:1038400012E060E0812F0E94CB041F5F1536C9F79C
:1038500061E08DE00E94CB0462E370E080E090E0E4
:103860000E9441050FB6F894A89580916000886188
:1038700080936000109260000FBE89E194E00E9486
:103880000E0B10E088EC90E06AC06F2D682B6E2163
:10389000F8226F29F8016083C6010E94590F8989B7
:1038A0009A89D8016C9193950E94590F89899A89B8
:1038B000F80160819E5F0E94590F61E08DE00E94D7
:1038C000CB0460E08DE00E949D0464E670E080E03F
:1038D00090E00E94410561E08DE00E949D0462E35A
:1038E00070E080E090E00E944105A8959ACE6F2D8F
:1038F000682B6E21F8226F29F801608389899A89E3
:103900000E94590F89899A89D8016C9193950E94D8
:10391000590F89899A89F80160819E5F0E94590F29
:1039200061E08DE00E94CB0460E08DE00E949D0488
:1039300064E670E080E090E00E94410561E08DE087
:103940000E949D0462E370E080E090E00E944105E7
:10395000A89519CF113009F095CF88E592E003E0E2
:103960006C01990FEE08FF0861E08DE00E949D0454
:10397000C701B6010E94410560E08DE00E949D04F0
:1039800068EC70E080E090E00E944105015061F732
:1039900060E971E080E090E0123021F468E775E0C2
:1039A00080E090E00E9441051F5F133099F665CFDB
:1039B00080913701909138019093960380939503FD
:1039C00080913D0190913E019093940380939303E5
:1039D00080912C0180938E0368E770E080E090E096
:1039E0000E9441050E94CF0C6AEF70E080E090E0F9
:1039F0000E9441050E94CF0C60E08091C0010E94AE
:103A0000CB0460E08091BF010E94CB0460E0809114
:103A100073010E94CB048091BE038823D1F0809172
:103A2000B903882329F062E08091AE010E94CB04A3
:103A300010E009E08091AD01181758F4019FF001E2
:103A40001124E958FE4F62E080810E94CB041F5F81
:103A5000F1CF8091AE03882329F062E08091760156
:103A60000E94CB048091860381110E94BE08809140
:103A70009903882329F062E0809143010E94CB04DE
:103A800080919B03882351F062E0809145010E9460
:103A9000CB0462E0809144010E94CB0460912E012E
:103AA00070E08DE994E00E94E00660912D0170E0E5
:103AB0008AE994E00E94E006609137017091380134
:103AC0008DE994E00E94A90660913D0170913E014C
:103AD0008AE994E00E94A90664E670E080E090E044
:103AE0000E944105A89588ED93E00E94BC05F82E40
:103AF000BFEF8B1709F43CC5ECE28E139EC6E09134
:103B00005B03F0E0E15EFC4F108263E872E08FE15E
:103B100093E00E9494307C0163E872E090E080E0E2
:103B20000E9494308C018FE0A0E1B3E01D928A9551
:103B3000E9F75CE1A52E52E0B52ED12CC12CD501C0
:103B4000ED91FD915D01EE0FFF1FED57F94F65916E
:103B5000749182EF92E00E948D3062EF72E0C701B3
:103B60000E946E37892B81F4C8010E946630F601ED
:103B7000EE0FFF1FEA50FE4F0190F081E02D918380
:103B800080830E9483146DC0BFEFCB1ADB0AE3E190
:103B9000CE16D104A1F620EEA22E21E0B22ED12C19
:103BA000C12C9C2CD501ED91FD915D01EE0FFF1F05
:103BB000ED57F94F6591749182EF92E00E948D303C
:103BC00062EF72E0C7010E946E37892B09F07FC057
:103BD000F601EE0FFF1FE653FE4FC080D180C801F3
:103BE0000E9462302B013C0187EF890D823008F082
:103BF00056C0F60140825182628273828AEF890D3B
:103C0000833020F5F60180809180A280B38020E08F
:103C100030E0A901C501B4010E94703487FD53C092
:103C200020E030E040E85FE3C501B4010E94353791
:103C3000181634F4812C912C10E8A12E1FE3B12E1C
:103C4000D6018D929D92AD92BC921397F601608140
:103C500071818281938100E113E024E040E00E94C1
:103C6000443089E694E00E946D0687EC92E00E9461
:103C7000070B8CE594E00E946D06C7010E94070BBC
:103C800086EC92E00E94070B81E594E00E946D06AD
:103C900080E193E00E94070B8AEC92E0D6C220E01C
:103CA00030E0A901C301B2010E943537181624F093
:103CB00077FA709477F87094D6014D925D926D9278
:103CC0007C9213979BCF812C912C5401B9CFFFEF9D
:103CD000CF1ADF0A2BE0C216D10409F062CF6BE6DF
:103CE00076E0C7010E948430892B59F4C8010E94F4
:103CF000663021E0892B09F420E02093A403822F71
:103D000071C16CE576E0C7010E948430892B51F4C3
:103D1000C8010E94663021E0892B09F420E020933D
:103D2000AD03EDCF65E476E0C7010E948430892BB6
:103D300051F4C8010E94663021E0892B09F420E08B
:103D400020934E01DCCF66E376E0C7010E94843009
:103D5000892B61F4C8010E9466308093730160E092
:103D60000E94CB048091730190E00BCF6CE276E06F
:103D7000C7010E948430892B59F4C8010E94663023
:103D80008093C00160E00E94CB048091C001ECCF21
:103D900062E276E0C7010E948430892B59F4C801A1
:103DA0000E9466308093BF0160E00E94CB04809146
:103DB000BF01DACF68E076E0C7010E948430892B2A
:103DC00009F058C060913D0170913E018AE994E08C
:103DD0000E94A906E0919A048E2F90E0FC01EE0F5C
:103DE000FF1FE80FF91FEB58FB4F80818F7B80830B
:103DF00060913701709138018DE994E00E94A90625
:103E0000E0919D048E2F90E0FC01EE0FFF1FE80F64
:103E1000F91FEB58FB4F80818F7B8083C8010E9484
:103E2000663080932E016AE070E080E090E00E94AE
:103E3000410560912E0170E08DE994E00E94E0065A
:103E400060913701709138018DE994E00E94A906D4
:103E500060912D0170E08AE994E00E94E006609193
:103E60003D0170913E018AE994E00E94A90680918B
:103E70002E017ACF6DEE75E0C7010E948430892B48
:103E800009F058C060913701709138018DE994E0D4
:103E90000E94A906E0919D048E2F90E0FC01EE0F98
:103EA000FF1FE80FF91FEB58FB4F80818F7B80834A
:103EB00060913D0170913E018AE994E00E94A9065B
:103EC000E0919A048E2F90E0FC01EE0FFF1FE80FA7
:103ED000F91FEB58FB4F80818F7B8083C8010E94C4
:103EE000663080932D016AE070E080E090E00E94EF
:103EF000410560912D0170E08AE994E00E94E0069E
:103F000060913D0170913E018AE994E00E94A9060A
:103F100060912E0170E08DE994E00E94E0066091CE
:103F20003701709138018DE994E00E94A9068091D3
:103F30002D011ACF68ED75E0C7010E948430892BEE
:103F400051F4C8010E94663021E0892B09F420E079
:103F500020932C01D4CE61EC75E0C7010E9484301F
:103F6000892B91F4C8010E946630893E43E0940792
:103F700014F088EE93E097FF02C090E080E0909309
:103F8000300180932F01FDCD6EEA75E0C7010E94DC
:103F90008430892B51F5C8010E94663021E00097DA
:103FA00009F420E02093BE03892BD1F08091B9035E
:103FB000882329F062E08091AE010E94CB0410E0DA
:103FC0008091AD01181760F459E0519FF001112460
:103FD000E958FE4F62E080810E94CB041F5FF0CF62
:103FE0008091BE030E944F0F3CCE6AE975E0C70185
:103FF0000E948430892B41F5C8010E94663021E07F
:10400000009709F420E02093B9032091BE032223F6
:10401000C1F0892B29F062E08091AE010E94CB04AF
:1040200010E08091AD01181760F489E0819FF001E4
:104030001124E958FE4F62E080810E94CB041F5F8B
:10404000F0CF8091B903CECF66E975E0C7010E9439
:104050008430892B51F4C8010E94663021E0892BFD
:1040600009F420E02093BD034ACE66E875E0C7015D
:104070000E948430892B59F4C8010E9466308093D5
:10408000AE0162E00E94CB048091AE016DCE61E88A
:1040900075E0C7010E948430892B51F4C8010E9449
:1040A000663021E0892B09F420E02093BC0327CE61
:1040B0006FE675E0C7010E948430892B79F5C8014D
:1040C0000E94663097FD23C08730910514F58093D8
:1040D000AD018091BE038823F1F08091B90388235C
:1040E00029F062E08091AE010E94CB0410E0809143
:1040F000AD01181780F499E0919FF0011124E9585F
:10410000FE4F62E080810E94CB041F5FF0CF80E011
:10411000DECF86E0DCCF8091AD0126CE66E872E08E
:10412000C7010E946E37892B09F092C0C8010E9416
:1041300066306C015C01A1E0AA1AB108B6E0AB16CA
:10414000B10408F013C260EA72E0C8010E94943022
:1041500060EA72E090E080E00E9494300E94663055
:10416000E9E0EA9D9001EB9D300D1124A901495829
:104170005E4F7A01DA018C9360EA72E090E080E0B1
:104180000E9494300E946230F701618372838383BE
:10419000948360EA72E090E080E00E9494300E9494
:1041A0006230D70115966D937D938D939C931897EC
:1041B00062E08C910E94CB048BE595E00E946D0635
:1041C00083EA92E00E94070B8EE495E00E946D0660
:1041D00084E992E00E94070BC6010E94A50B82EAC7
:1041E00092E00E94070B84E495E00E946D06F701BF
:1041F000608170E090E080E04AE00E94A20A83EAD9
:1042000092E00E94070BD70111966D917D918D91DF
:104210009C91149700E113E024E040E00E944430B8
:10422000C8010E94070B83EA92E00E94070BF70186
:10423000658176818781908524E040E00E9444304A
:10424000C8010E94070B85EA92E00E941C0B8EC1F8
:1042500060E375E0C7010E948430892BB9F4C8017E
:104260000E94663021E0009709F420E02093AE031D
:10427000892BE9F162E0809176010E94CB0465E729
:1042800072E080E193E00E947737EBCC68E175E063
:10429000C7010E948430892B59F4C8010E946630FE
:1042A0008093760162E00E94CB04809176015CCD20
:1042B00065E175E0C7010E948430892BD9F4C801FB
:1042C0000E94663021E0009709F420E020938603E5
:1042D000892B59F00E94481765E772E080E193E06E
:1042E0000E9477370E94BE08BCCC0E9448176AE73C
:1042F00072E0C7CF61E175E0C7010E948430892B6D
:1043000061F40E944817C8010E9466308093290119
:104310000E94BE088091290127CD6DE075E0C7019C
:104320000E948430892B61F40E944817C8010E94C2
:104330006630809328010E94BE088091280114CD28
:1043400069E075E0C7010E948430892B61F40E9406
:104350004817C8010E94663080932A010E94BE0857
:1043600080912A0101CD65E075E0C7010E9484308B
:10437000892B61F40E944817C8010E94663080931F
:104380002B010E94BE0880912B01EECC61E075E00C
:10439000C7010E948430892B51F4C8010E94663005
:1043A00021E0892B09F420E020936803A8CC6EEF6C
:1043B00074E0C7010E948430892B49F4C8010E942F
:1043C0006630833008F082E080936903CDCC6BEFD8
:1043D00074E0C7010E948430892B51F4C8010E9407
:1043E000663021E0892B09F420E02093B80387CCC4
:1043F00067EF74E0C7010E948430892B99F4C801EB
:104400000E94663021E0009709F420E02093990390
:10441000892B29F062E0809143010E94CB048091B6
:104420009903E0CD64EF74E0C7010E948430892BCA
:1044300079F4C8010E9466308093430190919903FA
:10444000992319F062E00E94CB04809143018CCC47
:1044500060EF74E0C7010E948430892B51F4C801D9
:104460000E94663021E0892B09F420E02093980314
:1044700046CC6CEE74E0C7010E948430892B51F465
:10448000C8010E94663021E0892B09F420E02093C6
:10449000970335CC68EE74E0C7010E948430892B05
:1044A000C1F4C8010E94663021E0009709F420E0C1
:1044B00020939B03892B51F062E0809145010E947B
:1044C000CB0462E0809144010E94CB0480919B0365
:1044D00089CD65EE74E0C7010E948430892B59F4C0
:1044E000C8010E9466308093450162E00E94CB04BF
:1044F0008091450139CC62EE74E0C7010E9484309E
:10450000892B59F4C8010E9466308093440162E00F
:104510000E94CB048091440127CC6EED74E0C7016A
:104520000E948430892B51F4C8010E94663021E03A
:10453000892B09F420E020939A03E1CB68EA72E02A
:10454000C7010E946E37892B39F40E947F108AECD4
:1045500094E00E940E0B0AC06DEA72E0C7010E944F
:104560006E37892B09F01BC10E94CF0C10925B03A0
:104570008091600381110DC00E941C0560935C0353
:1045800070935D0380935E0390935F0381E080935B
:104590006003C0905C03D0905D03E0905E03F090F8
:1045A0005F03C114D104E104F10409F46BC10E945A
:1045B0001C056C197D098E099F090E94753420E045
:1045C00034E244E759E40E948D366B017C010E947D
:1045D0001C0560935C0370935D0380935E0390936E
:1045E0005F03C092CB03D092CC03E092CD03F09254
:1045F000CE038091C0010E9407056C019093CA030D
:104600008093C9038091BF010E9407057C019093AC
:10461000C8038093C7030091BD011091BE01209192
:10462000BB013091BC014091B9015091BA01609138
:10463000B7017091B801C6010E9480076093C3035F
:104640007093C4038093C5039093C6030091B50192
:104650001091B6012091B3013091B4014091B101A4
:104660005091B2016091AF017091B001C7010E94F9
:1046700080076093BF037093C0038093C10390933E
:10468000C2032091BE03222309F41CC18091BD0303
:10469000882309F405C18091AE010E947404AC0125
:1046A00091E04115510509F490E08091BC03981305
:1046B00011C02091BB0327FB222720F931E0452BB5
:1046C00009F030E0231306C08091BA0321E082276D
:1046D0008093BA038091BB0390FB87F98093BB035F
:1046E0008091BA03882309F4EFC0E090BC03C09026
:1046F000AD018091B803811110C01092BF031092D8
:10470000C0031092C1031092C2031092C30310920F
:10471000C4031092C5031092C60307E711E0D12C21
:10472000F12CCD1409F4D0C0D8018C910E947404EE
:104730008E159F0581F5F8012181328143815481D5
:104740006091BF037091C0038091C1039091C20337
:104750000E9421366093BF037093C0038093C1030E
:104760009093C203D80115962D913D914D915C9186
:1047700018976091C3037091C4038091C503909111
:10478000C6030E9421366093C3037093C4038093D1
:10479000C5039093C603D394075F1F4FC2CF66EB48
:1047A00072E0C7010E946E37892BA1F41A8A198A18
:1047B00045E150E05A834983BE016F5F7F4FCE01D0
:1047C00041960E94ED0F68E873E180E090E00E945E
:1047D000410547CA6DEB72E0C7010E946E37892B15
:1047E00091F364EC72E0C7010E946E37892B31F4BB
:1047F00081E080938D038BEA94E0ABCE64EB72E0B2
:10480000C7010E946E37892BA9F410928D03609125
:104810003701709138018DE994E00E94A9066091FA
:104820003D0170913E018AE994E00E94A90685E964
:1048300094E08FCE8DE794E08CCE082F880F110B7B
:10484000C8010E945137892B51F483ED8F0D8230BE
:1048500030F05AE3F51619F08FE5F81289CEC80149
:104860000E94663790915B03E92FF0E0E15EFC4F18
:10487000808382E0890F8C3308F07ACE9F5F90931B
:104880005B0376CE0E941C0560935C0370935D030E
:1048900080935E0390935F03C12CD12C7601A1CE4F
:1048A0008091B903882359F08091AE010E9474046D
:1048B0003091BC0321E03817190609F020E020935D
:1048C000BA030ECF1092BA038091B703882309F47C
:1048D0004BC6D09086038091BB038D7F877FDD2000
:1048E00009F406C10E9474050091820310918303AC
:1048F0002091840330918503601B710B820B930B15
:10490000CC24C394673471058105910508F0C12C4E
:10491000F8948E010F5F1F4FDE015196980190E0D1
:1049200080E0FC01EE0FFF1FEE0FFF1FEE58FC4F63
:104930004081518162817381F90141935193619367
:1049400071939F01FC01EE0FFF1FE659FC4F408160
:1049500051814D935D9301968430910511F77894C0
:104960007801F0E1EF0EF11C0E941C05D8018D903A
:104970009D90AD90BD908D01681979098A099B09B8
:10498000613771418140910508F0C12CE016F106B4
:1049900059F7CC2009F4DAC58091BB03816080937C
:1049A000BB032D893E89253631050CF447C0826052
:1049B0008093BB038F89988D853691050CF444C094
:1049C0008091BB0384608093BB038B899C89C196D3
:1049D0008336910510F41C8A1B8A89899A89C196AD
:1049E0008336910510F41A8A198A1091BB0311FFBE
:1049F00033C06B897C89072E000C880B990B0E94B1
:104A0000773420E030E04AEF53E40E948D36609323
:104A1000BF037093C0038093C1039093C20369895D
:104A20007A89072E000C880B990B0E94773420E0BE
:104A300030E04AEF53E40E948D364FC02C393F4F8F
:104A40000CF0B8CF8D7FB4CF8C399F4F0CF0BDCF19
:104A50008091BB038B7FB7CF80916903C090BF0368
:104A6000D090C003E090C103F090C203813009F000
:104A700013C56B897C89072E000C880B990B0E944B
:104A8000773420E030E04AEF53E40E948D36A701EE
:104A900096010E9421366093BF037093C0038093F8
:104AA000C1039093C20369897A89072E000C880B91
:104AB000990B0E94773420E030E04AEF53E40E94E3
:104AC0008D369B01AC016091C3037091C40380914A
:104AD000C5039091C6030E9421366093C30370936F
:104AE000C4038093C5039093C603812F12FB83F9FF
:104AF0008093BB038091C3039091C403A091C5032D
:104B0000B091C6038093B3039093B403A093B5030D
:104B1000B093B6038091BF039091C003A091C103ED
:104B2000B091C2038093AF039093B003A093B103FD
:104B3000B093B2038091AE03882371F08091760127
:104B40000E947404892B41F41092B3031092B403B1
:104B50001092B5031092B6038091AD03882309F437
:104B60000AC5E090AB03F090AC03C0907401D09004
:104B70007501809173010E9407058C019093AA032F
:104B80008093A903B601DD0C880B990B0E94773442
:104B90004B015C01B801110F880B990B0E9477340F
:104BA000A50194010E9420362B013C01B701FF0CA6
:104BB000880B990B0E947734A50194010E9420363E
:104BC0009B01AC01C301B2010E948D3620E030E0B0
:104BD000A9010E9421366B017C0120E030E0A9018F
:104BE0000E94703487FDC3C420E030E040E85FE3FA
:104BF000C701B6010E943537181634F4C12CD12CE8
:104C000030E8E32E3FE3F32EC092A503D092A60333
:104C1000E092A703F092A80380916F019091700138
:104C2000A0917101B09172018C8F9D8FAE8FBF8F5B
:104C300080916B0190916C01A0916D01B0916E011A
:104C400088A399A3AAA3BBA3809067019090680151
:104C5000A0906901B0906A018091A5039091A6038C
:104C6000A091A703B091A8038CA39DA3AEA3BFA35B
:104C700020E030E0A90168A179A18AA19BA10E944E
:104C80003537C8A0D9A0EAA0FBA0181624F0F7FA7F
:104C9000F094F7F8F09420E030E0A901C501B401E8
:104CA0000E94353724013501181624F077FA7094E4
:104CB00077F8709420E030E0A9016C8D7D8D8E8DA9
:104CC0009F8D0E94353718164CF08C8D9D8DAE8DC2
:104CD000BF8DB0588C8F9D8FAE8FBF8FA301920177
:104CE0006CA17DA18EA19FA10E94D634562E472E85
:104CF000382E292EC701B60190582CA13DA14EA1F6
:104D00005FA10E94D6343B018C01C090AF03D090CC
:104D1000B003E090B103F090B20320E030E0A901CD
:104D2000C701B6010E947034882309F43DC420E015
:104D300030E0A901C701B6010E943537A7019601ED
:104D400018160CF025C4652D742D832D922D0E940C
:104D5000D63420E030E0A9010E9421366B017C01AD
:104D6000A7019601B301C8010E94353718160CF44B
:104D70001FC4A7019601652D742D832D922D0E94CD
:104D8000703487FF04C0C52CD42CE32CF22CC092C5
:104D9000AF03D092B003E092B103F092B20320913E
:104DA000B3033091B4034091B5035091B6036C8DB9
:104DB0007D8D8E8D9F8D0E94D6342CA13DA14EA15C
:104DC0005FA10E94D6341B018C012CA13DA14EA1F4
:104DD0005FA16C8D7D8D8E8D9F8D90580E94D634F5
:104DE0002B013C019B01AC01B101C8010E94703450
:104DF00087FD16C02C8D3D8D4E8D5F8D6CA17DA1E4
:104E00008EA19FA10E94D6342B013C019B01AC01D5
:104E1000B101C8010E943537181614F0210138017C
:104E200020E030E0A901C701B6010E94353787FFB5
:104E3000C2C360916301709164018091650190919A
:104E4000660188A099A0AAA0BBA020915F01309123
:104E5000600140916101509162010E94D6349B0132
:104E6000AC0160E070E080E89FE30E9420366C8F28
:104E70007D8F8E8F9F8F20E030E0A901C701B601A2
:104E80000E943537A701960118160CF050586C8D0A
:104E90007D8D8E8D9F8D0E94D6346C8F7D8F8E8FF1
:104EA0009F8F20E030E0A901C501B4010E94353791
:104EB00018160CF085C327E137EB41ED58E3C50127
:104EC000B4010E9421369B01AC016C8D7D8D8E8DCD
:104ED0009F8D0E948D369B01AC0160E070E080E800
:104EE0009FE30E9420364B015C0120E030E0A901E5
:104EF0000E94353718161CF0812C912C5401A50105
:104F00009401B201C3010E94D6344B015C0120E040
:104F100030E040E85FEB0E94703487FD5AC320E028
:104F200030E040E85FE3C501B4010E943537181650
:104F300034F4812C912C20E8A22E2FE3B22E809203
:104F4000B3039092B403A092B503B092B60320E0ED
:104F500030E0A901C701B6010E94703487FF10C07C
:104F60008091A403882361F0B7FAB094B7F8B094A5
:104F70008092B3039092B403A092B503B092B603AB
:104F80008091CB039091CC03A091CD03B091CE033F
:104F90008C8F9D8FAE8FBF8F80915B0190915C0154
:104FA000A0915D01B0915E0188A799A7AAA7BBA7B0
:104FB0008090570190905801A0905901B0905A01EB
:104FC0008091530190915401A0915501B0915601E7
:104FD00088AB99ABAAABBBAB40904F01509050014E
:104FE000609051017090520180914E018111F8C280
:104FF0001CA61CAA90E89DABAFE3AEAB8091A003CA
:105000009091A103A091A203B091A30388A399A3B7
:10501000AAA3BBA320E030E0A901C301B2010E9412
:10502000353718161CF0412C512C3201A301920186
:105030006CA57CA98DA99EA90E94D6342B013C01A8
:1050400020E030E0A90168A979A98AA99BA90E945A
:105050003537181624F018AA19AA1AAA1BAA20E094
:1050600030E0A901C501B4010E94353718161CF0C3
:10507000812C912C5401A50194016CA57CA98DA9CA
:105080009EA90E94D6344B015C0120E030E0A901CA
:1050900068A579A58AA59BA50E943537181624F026
:1050A00018A619A61AA61BA628A139A14AA15BA178
:1050B000C701B6010E942036D62EC72E382E292EC3
:1050C00020E030E0A90168A179A18AA19BA10E94FA
:1050D000703481118EC2C501B40190582C8D3D8D64
:1050E0004E8D5F8D0E94D6347B018C019B01AC01FB
:1050F0006D2D7C2D832D922D0E94703487FD18C05C
:10510000A30192016C8D7D8D8E8D9F8D0E94D63472
:105110007B018C019B01AC016D2D7C2D832D922D8B
:105120000E943537181624F0ED2CFC2C032D122D7F
:105130009701A80168A179A18AA19BA10E942136AB
:1051400068A378A71C0188A198A5D1018093A0032A
:105150009093A103A093A203B093A30380904A016C
:1051600090904B01A0904C01B0904D01C090460131
:10517000D0904701E0904801F09049014090B3037E
:105180005090B4036090B5037090B60380919C0377
:1051900090919D03A0919E03B0919F0388AB99AB22
:1051A000AAABBBAB20E030E0A901C701B6010E9469
:1051B000353718161CF0C12CD12C7601A7019601A9
:1051C0006CA57CA98DA99EA90E94D6346B017C0197
:1051D00020E030E0A901C501B4010E94353718165E
:1051E0001CF0812C912C540128A939A94AA95BA94A
:1051F000C301B2010E942036762E672E582E492E0A
:1052000020E030E0A90168A979A98AA99BA90E9498
:10521000703481118FC22C8D3D8D4E8D5F8DC701F5
:10522000B60190580E94D6345B018C019B01AC0101
:10523000672D762D852D942D0E94703487FD18C022
:10524000A70196016C8D7D8D8E8D9F8D0E94D63429
:105250005B018C019B01AC01672D762D852D942D72
:105260000E943537181624F0A72CB62C052D142DC6
:105270009501A80168A979A98AA99BA90E9421364C
:105280005B018C01C501D80180939C0390939D0321
:10529000A0939E03B0939F038091AD03882309F4EC
:1052A0004EC0CCA0DDA0EEA0FFA0F7FAF094F7F876
:1052B000F09428A138A5A101C701B6010E94353795
:1052C00018160CF4D0C228A138A5A1016CA17DA1AB
:1052D0008EA19FA10E94703487FF06C09CA198A355
:1052E000ADA1A8A72EA03FA088A198A5D101809329
:1052F000A0039093A103A093A203B093A3039501ED
:10530000A801C701B6010E943537181684F095012F
:10531000A8016CA17DA18EA19FA10E94703465019E
:10532000780187FF04C0CCA0DDA0EEA0FFA0C09252
:105330009C03D0929D03E0929E03F0929F03809184
:105340009B03882309F493C2809145010E94740451
:1053500020919A032817190629F48091BB038F7EA8
:105360008093BB03809144010E94740420919A03AE
:105370002817190629F48091BB0380618093BB0331
:1053800080919903882311F1809143010E94740454
:10539000209198032817190609F06DC28091970390
:1053A000882321F08091BB0385FF10C01092A003D9
:1053B0001092A1031092A2031092A30310929C03D7
:1053C00010929D0310929E0310929F038091BB0345
:1053D00083FF10C01092A0031092A1031092A203A9
:1053E0001092A30310929C0310929D0310929E03AF
:1053F00010929F0384FF10C01092A0031092A1038B
:105400001092A2031092A30310929C0310929D038A
:1054100010929E0310929F03B091B703B8A380909F
:105420009C0390909D03A0909E03B0909F03BB238C
:1054300009F41EC320E030E0A901C501B4010E94B7
:10544000353718160CF01DC22FE632E143E85AE357
:10545000C501B4010E94353787FF1EC2C090A0036A
:10546000D090A103E090A203F090A30320E030E0ED
:10547000A901C701B6010E94353718160CF0ECC21D
:105480002FE632E143E85AE3C701B6010E943537FF
:1054900087FF02C260E001C2823009F026CB20E023
:1054A00030E0A901C701B6010E9435371816C4F5CE
:1054B0002FE632E143E85AE3C701B6010E943537CF
:1054C00018160CF496CAC090C303D090C403E090A1
:1054D000C503F090C60320E030E0A901C701B60182
:1054E0000E94353718163CF52FE632E143E85AE3BF
:1054F000C701B6010E94353718160CF47ACA10920B
:10550000BF031092C0031092C1031092C203109205
:10551000C3031092C4031092C5031092C603E5CAD8
:105520002FE632E143E85AEBC701B6010E9470341E
:1055300087FD5FCAC8CF2FE632E143E85AEBC701C7
:10554000B6010E94703487FFDACF53CA8091680396
:10555000882321F08091BB038170D82E8091BB03FA
:10556000D0FA83F98D7FC4CA8091BB03FBCFC12CD5
:10557000D12C760149CB80E090E0A0E8BFE3809396
:10558000A5039093A603A093A703B093A80344CBCD
:10559000B301C8010E94D6349B01AC0160E070E009
:1055A000CB010E942036DACBC12CD12C7601D8CB8E
:1055B00063017801ECCB60E070E080E89FE345CCCC
:1055C000A501940167E177EB81ED98E30E94203615
:1055D0007ACC812C912C90E8A92E9FEBB92EAFCCE0
:1055E000BCA1BCA7EDA1ECABFEA1FDAB2FA12EABE6
:1055F00005CD20E030E0A90168A179A18AA19BA195
:105600000E94353718160CF04CC028A939A94AA9B0
:105610005BA96CA57CA98DA99EA90E94D63490583F
:105620002C8D3D8D4E8D5F8D0E94D6347B018C017B
:105630009B01AC016D2D7C2D832D922D0E94703429
:1056400087FD18C0A30192016C8D7D8D8E8D9F8D7D
:105650000E94D6347B018C019B01AC016D2D7C2D09
:10566000832D922D0E943537181624F0ED2CFC2C3A
:10567000032D122D9701A80168A179A18AA19BA1F0
:105680000E94213668A378A71C0120E030E0A90120
:105690000E94703487FF57CD18A218A6212C312CF8
:1056A00052CDC501B40190582C8D3D8D4E8D5F8D2E
:1056B0000E94D6347B018C019B01AC016D2D7C2DA9
:1056C000832D922D0E94703487FD20C028A539A516
:1056D0004AA55BA56CA57CA98DA99EA90E94D6347C
:1056E0002C8D3D8D4E8D5F8D0E94D6347B018C01BB
:1056F0009B01AC016D2D7C2D832D922D0E943537A1
:10570000181624F0ED2CFC2C032D122D9701A80166
:1057100068A179A18AA19BA10E94213668A378A7DC
:105720001C0120E030E0A9010E94353718160CF466
:10573000B3CF09CDA50194016CA57CA98DA99EA923
:105740000E94D6344B015C0120E030E0A90168A939
:1057500079A98AA99BA90E94353718160CF043C075
:10576000C501B40190582C8D3D8D4E8D5F8D0E94EA
:10577000D6345B018C019B01AC01672D762D852D04
:10578000942D0E94703487FD18C0A70196016C8D7E
:105790007D8D8E8D9F8D0E94D6345B018C019B0187
:1057A000AC01672D762D852D942D0E943537181666
:1057B00024F0A72CB62C052D142D9501A80168A95D
:1057C00079A98AA99BA90E9421365B018C0120E05E
:1057D00030E0A9010E94703487FF54CDA12CB12C78
:1057E00000E010E04FCDC701B60190582C8D3D8DE3
:1057F0004E8D5F8D0E94D6347B018C019B01AC01E4
:10580000672D762D852D942D0E94703487FD18C04C
:10581000A50194016C8D7D8D8E8D9F8D0E94D63457
:105820007B018C019B01AC01672D762D852D942D7C
:105830000E943537181624F0E72CF62C052D142D70
:105840009701A80168A979A98AA99BA90E94213674
:105850005B018C0120E030E0A9010E943537181669
:105860000CF4BCCF0FCDC8A2D8A617013DCD8091B6
:10587000BB038F7E83CD8091BB0380628093BB038B
:10588000A5CD2FE632E143E85AEBC501B4010E94F1
:10589000703418160CF4E2CD61E08DE00E949D0496
:1058A000E0914101F0914201FDA3ECA340913F0141
:1058B0005091400159A748A720903D0130903E01EA
:1058C00080913B0190913C019D8F8C8FE09039013C
:1058D000F0903A0100913701109138018091A003B6
:1058E0009091A103A091A203B091A3038CA79DA7BF
:1058F000AEA7BFA79C01AD01C501B4010E9421362E
:105900002B013C0120E030E0A9010E94703481119C
:10591000BEC0B801012E000C880B990B0E94773491
:105920000E94FF36AB012C8D3D8D37FF03C03195B2
:1059300021953109F801E21BF30B4E175F073CF08C
:10594000F801E20FF31F4E175F070CF4FB01F09311
:105950009603E0939503A50194016CA57DA58EA502
:105960009FA50E9420366B017C0120E030E0A90158
:105970000E9470348111DBC0B101032C000C880B34
:10598000990B0E9477340E94FF36AB012CA13DA1F8
:1059900037FF03C0319521953109F101E21BF30B6B
:1059A0004E175F073CF0F101E20FF31F4E175F0740
:1059B0000CF4FB01F0939403E09393030E947405AD
:1059C0006B017C0158A1552341F088EBC8168BE090
:1059D000D806E104F10408F043C1809137019091A9
:1059E0003801909396038093950380913D019091A7
:1059F0003E0190939403809393030091350110919D
:105A00003601101611061CF081E08093B7038090D8
:105A1000C3039090C403A090C503B090C60320E0D8
:105A200030E0A901C501B4010E94353718160CF009
:105A3000D1C02FE632E143E85AE3C501B4010E9428
:105A4000703487FDD2C010928F0310929003109291
:105A500091031092920304C12FE632E143E85AEB1E
:105A6000C701B6010E94703418160CF413CD14CF80
:105A70000E94740526E930E040E050E00E94EF35D6
:105A80006B3471058105910508F406CF03CD20E044
:105A900030E0A901C301B2010E943537181614F590
:105AA000B701600F711F072E000C880B990B0E9425
:105AB00077346B017C016C8D7D8D600F711F072E1B
:105AC000000C880B990B0E947734A70196010E9465
:105AD0002036A30192010E94D634A70196010E94AC
