:100000000C948F020C94B7020C94B7020C94B702B4
:100010000C94B7020C94B7020C94B7020C94B7027C
:100020000C94B7020C94B7020C94B7020C944B0AD0
:100030000C94B7020C94B7020C94B7020C94B7025C
:100040000C94A9090C94B7020C94190A0C94F309A6
:100050000C94B7020C94B7020C94B7020C94B7023C
:100060000C94B7020C94B7024E414E494E49545974
:10007000494E46CDCCCC3D0AD7233C17B7D1387773
:10008000CC2B329595E6241FB14F0A000020410089
:1000900000C84200401C4620BCBE4CCA1B0E5AAED3
:1000A000C59D742253504545445F4B4E4F425F50AF
:1000B000494E223A20002252494748545F4D4F543E
:1000C0004F525F434F4E54524F4C4C45525F504934
:1000D0004E223A2000224C4546545F4D4F544F5219
:1000E0005F434F4E54524F4C4C45525F50494E2245
:1000F0003A2000224A4F595F595F50494E223A2018
:1001000000224A4F595F585F50494E223A20002240
:100110005052494E545F5641524941424C45535FFB
:10012000494E54455256414C5F4D494C4C4953221F
:100130003A20002253504545445F4B4E4F425F46A4
:100140004153545F56414C223A20002253504545BA
:10015000445F4B4E4F425F534C4F575F56414C22CA
:100160003A2000225553455F53504545445F4B4E5E
:100170004F42223A20002252494748545F4D4F5483
:100180004F525F46415354223A2000225249474879
:10019000545F4D4F544F525F534C4F57223A2000FB
:1001A0002252494748545F4D4F544F525F43454E8A
:1001B000544552223A2000224C4546545F4D4F543C
:1001C0004F525F46415354223A2000224C45465438
:1001D0005F4D4F544F525F534C4F57223A200022ED
:1001E0004C4546545F4D4F544F525F43454E544526
:1001F00052223A200022524556455253455F5455EB
:10020000524E5F494E5F52455645525345223A2061
:1002100000225343414C455F414343454C5F57499E
:1002200054485F5350454544223A200022534341ED
:100230004C455F5455524E494E475F5748454E5FB7
:100240004D4F56494E47223A2000225455524E5F98
:100250005350454544223A200022464153544553C9
:10026000545F4241434B57415244223A20002246B8
:100270004153544553545F464F5257415244223ADA
:10028000200022444543454C45524154494F4E5F5E
:100290005455524E494E47223A200022414343458D
:1002A0004C45524154494F4E5F5455524E494E476A
:1002B000223A200022444543454C45524154494F7F
:1002C0004E5F4241434B57415244223A2000224163
:1002D0004343454C45524154494F4E5F4241434B85
:1002E00057415244223A200022444543454C45524E
:1002F0004154494F4E5F464F5257415244223A2093
:100300000022414343454C45524154494F4E5F46BC
:100310004F5257415244223A200022595F444541EE
:10032000445A4F4E45223A200022434F4E54524FDA
:100330004C5F444F574E223A200022434F4E5452B6
:100340004F4C5F43454E5445525F59223A2000229C
:10035000434F4E54524F4C5F5550223A2000225882
:100360005F444541445A4F4E45223A200022434FB4
:100370004E54524F4C5F4C454654223A2000224383
:100380004F4E54524F4C5F43454E5445525F582296
:100390003A200022434F4E54524F4C5F5249474837
:1003A00054223A20007B2263757272656E7420734A
:1003B000657474696E67732C2076657273696F6EED
:1003C0003A223A20007B22726573756C74223A20BF
:1003D0002273756363657373227D007B227265737C
:1003E000756C74223A20226E6F206368616E6765B7
:1003F000227D002273706565644B6E6F625363618A
:100400006C6572223A20002272696768744D6F74BD
:100410006F72577269746556616C223A2000226CC3
:100420006566744D6F746F72577269746556616C4E
:10043000223A200022737065656450726F636573A1
:10044000736564223A2000227475726E50726F6375
:100450006573736564223A20002273706565645485
:100460006F4472697665223A2000227475726E5468
:100470006F4472697665223A200022737065656464
:10048000496E707574223A2000227475726E496E3E
:10049000707574223A2000226A6F795956616C2275
:1004A0003A2000226A6F795856616C223A20007B0C
:1004B0002263757272656E742076616C7565732C3B
:1004C000206D696C6C69733A223A200000000000CC
:1004D000240027002A0000000000250028002B002F
:1004E00004040404040404040202020202020303DA
:1004F00003030303010204081020408001020408E2
:100500001020010204081020000000080002010071
:10051000000304070000000000000000070B112486
:100520001FBECFEFD8E0DEBFCDBF14E0A0E0B1E04A
:10053000ECEEFBE302C005900D92A230B107D9F7B3
:1005400025E0A2E0B4E001C01D92AB33B207E1F7B1
:1005500012E0CFE8D2E004C02197FE010E94C81D3E
:10056000CE38D107C9F70E948E0B0C94F41D0C9461
:10057000000090E0FC01E85FFA4F2491FC01EC5090
:10058000FB4F3491FC01E052FB4FE491EE23C9F0A4
:10059000222339F0233001F1A8F4213019F122305F
:1005A00029F1F0E0EE0FFF1FEA52FB4FA591B49145
:1005B0008FB7F894EC91611126C030953E233C939F
:1005C0008FBF08952730A9F02830C9F0243049F7AB
:1005D000809180008F7D03C0809180008F77809311
:1005E0008000DFCF84B58F7784BDDBCF84B58F7D6E
:1005F000FBCF8091B0008F778093B000D2CF8091F5
:10060000B0008F7DF9CF3E2BDACFCF93DF9390E010
:10061000FC01EC50FB4F249180529B4FFC018491D4
:100620008823D1F090E0880F991FFC01E453FB4F21
:10063000A591B491FC01EA52FB4FC591D49161118F
:100640000EC09FB7F8948C91E22FE0958E238C9387
:100650002881E223E8839FBFDF91CF9108958FB770
:10066000F894EC91E22BEC938FBFF6CF8E3008F02C
:100670008E508770806480937C0080917A008064C3
:1006800080937A0080917A0086FDFCCF809178007B
:100690009091790008953FB7F89480916704909104
:1006A0006804A0916904B0916A0426B5A89B05C0AE
:1006B0002F3F19F00196A11DB11D3FBFBA2FA92FE1
:1006C000982F8827BC01CD01620F711D811D911DDE
:1006D00042E0660F771F881F991F4A95D1F708954A
:1006E000AF92BF92CF92DF92EF92FF920F931F9340
:1006F000CF93DF936C017B018B01040F151FEB017E
:100700005E01AE18BF08C017D10759F06991D60134
:10071000ED91FC910190F081E02DC6010995892BA6
:1007200079F7C501DF91CF911F910F91FF90EF9065
:10073000DF90CF90BF90AF900895FC01538D448D12
:10074000252F30E0842F90E0821B930B541710F07C
:10075000CF96089501970895FC01918D828D981789
:1007600061F0A28DAE0FBF2FB11D5D968C91928D61
:100770009F5F9F73928F90E008958FEF9FEF089592
:10078000FC01918D828D981731F0828DE80FF11D5B
:10079000858D90E008958FEF9FEF0895FC01918D76
:1007A000228D892F90E0805C9F4F821B91098F736F
:1007B000992708958BE694E00E94CE0321E0892BCF
:1007C00009F420E0822F089580E090E0892B29F041
:1007D0000E94DA0381110C9400000895FC01A48D9D
:1007E000A80FB92FB11DA35ABF4F2C91848D90E053
:1007F00001968F739927848FA689B7892C93A08936
:10080000B1898C91837080648C93938D848D9813BF
:1008100006C00288F389E02D80818F7D8083089552
:10082000EF92FF920F931F93CF93DF93EC0181E040
:10083000888F9B8D8C8D98131AC0E889F9898081E7
:1008400085FF15C09FB7F894EE89FF896083E8891A
:10085000F98980818370806480839FBF81E090E00C
:10086000DF91CF911F910F91FF90EF900895F62E99
:100870000B8D10E00F5F1F4F0F731127E02E8C8D33
:100880008E110CC00FB607FCFACFE889F989808178
:1008900085FFF5CFCE010E94EE03F1CFEB8DEC0F7B
:1008A000FD2FF11DE35AFF4FF0829FB7F8940B8F95
:1008B000EA89FB8980818062CFCF0F931F93CF930A
:1008C000DF938C01D0E0C0E0F801EC0FFD1F6491D4
:1008D000662341F08BE694E00E941004892B11F00E
:1008E0002196F2CFCE01DF91CF911F910F91089504
:1008F000CF93DF93EC01888D8823B9F0AA89BB8957
:10090000E889F9898C9185FD03C0808186FD0DC041
:100910000FB607FCF7CF8C9185FFF2CF808185FF62
:10092000EDCFCE010E94EE03E9CFDF91CF91089584
:10093000DC01EC91EC3090F511968C91119728E840
:1009400030E0281B310987FD3395220F331F220F1A
:10095000331F6217730784F012968C9128E532E0FA
:10096000281B310987FD3395220F331F220F331FB8
:10097000621773070CF49B0122503109220F331FB9
:100980004FB7F8948E2F90E0FC01EE0FFF1FE80F99
:10099000F91FE85FFA4F328321834FBF08951F93F9
:1009A000CF93DF93EC01162F88818C3008F04EC076
:1009B00061E0812F0E9405038881282F30E0F90132
:1009C000EE0FFF1FE20FF31FE85FFA4F1F73608106
:1009D000607C612B608319821A822CE0622F0E9456
:1009E000BC1D829FB001112430E020E0AB01420F1A
:1009F000531FFA01EE0FFF1FE40FF51FE85FFA4FD8
:100A0000908196FD16C02F5F3F4F2C30310571F756
:100A100081110FC01092800082E0809381001092BB
:100A2000850010928400B19A80916F00826080935B
:100A30006F00E8818E2F90E0FC01EE0FFF1FE80FA2
:100A4000F91FE85FFA4F8081806480838881DF919D
:100A5000CF911F9108952F923F924F925F926F9284
:100A60007F928F929F92AF92BF92CF92DF92EF923E
:100A7000FF920F931F93CF93DF93EC017A016901EB
:100A800017FF02C010E000E06C157D050CF006C1F8
:100A90001701201A310A812C912C5401C215D3055B
:100AA0006CF5072E000C880B990B0E94F41A4B0171
:100AB0005C01BE010D2E000C880B990B0E94F41AEC
:100AC000A50194010E949D1C2B013C01B101330C36
:100AD000880B990B0E94F41AA50194010E949D1C99
:100AE0009B01AC01C301B2010E940A1D20E030E06D
:100AF00040E85FE30E949D1C4B015C010E0D1F1D31
:100B00000C171D0784F5B601DD0C880B990B0E94AC
:100B1000F41A6B017C01BE01DD0F880B990B0E945A
:100B2000F41AA70196010E949D1C4B015C01B7FAC3
:100B3000B094B7F8B094B801110F880B990B0E94CC
:100B4000F41AA70196010E949D1C9B01AC01C501EE
:100B5000B4010E940A1D20E030E040E85FE30E94FB
:100B60009E1C4B015C0120E030E040E85FEBC501DA
:100B7000B4010E94ED1A87FD83C020E030E040E818
:100B80005FE3C501B4010E94B21D18160CF47FC0CA
:100B9000C501B401DF91CF911F910F91FF90EF90AC
:100BA000DF90CF90BF90AF909F908F907F906F908D
:100BB0005F904F903F902F90089518012E0C3F1C8E
:100BC000812C912C54012C163D066CF5072E000C3F
:100BD000880B990B0E94F41A4B015C01BE010D2E8B
:100BE000000C880B990B0E94F41AA50194010E9435
:100BF0009D1C2B013C01B101330C880B990B0E9409
:100C0000F41AA50194010E949D1C9B01AC01C30133
:100C1000B2010E940A1D20E030E040E85FE30E943C
:100C20009D1C4B015C01E01AF10ACE15DF050CF0AA
:100C30009ACFB601DD0C880B990B0E94F41A4B0178
:100C40005C01BE01DD0F880B990B0E94F41AA5010F
:100C500094010E949D1C2B013C0177FA709477F857
:100C60007094B701FF0C880B990B0E94F41AA50130
:100C700094010E949D1C9B01AC01C301B20169CF8C
:100C8000812C912C90E8A92E9FEBB92E81CF812C3D
:100C9000912C80E8A82E8FE3B82E7ACFC616D706FF
:100CA0000CF48BCF812C912C540172CFFC0101905C
:100CB0000020E9F73197AF01481B590BBC018BE6C7
:100CC00094E00C9470038F929F92AF92BF920F9317
:100CD0001F93CF93DF93CDB7DEB7A1970FB6F894EC
:100CE000DEBF0FBECDBF19A2423008F44AE08E012C
:100CF0000F5D1F4F842E912CB12CA12CA5019401C6
:100D00000E946C1CE62FB901CA01EA30F4F4E05DE0
:100D1000D801EE938D01232B242B252B79F790E01E
:100D200080E0109719F0CD010E945606A1960FB6EB
:100D3000F894DEBF0FBECDBFDF91CF911F910F9111
:100D4000BF90AF909F908F900895E95CE1CF0C9495
:100D50005606CF92DF92EF92FF92CF93DF936C0112
:100D6000990FEE08FF08F7FE19C06DE28BE694E0DC
:100D70000E941004EC0166277727CB016C197D09CE
:100D80008E099F094AE00E9463068C0F9D1FDF9128
:100D9000CF91FF90EF90DF90CF9008954AE0C70188
:100DA000B601DF91CF91FF90EF90DF90CF900C9440
:100DB00063064F925F926F927F928F929F92AF9253
:100DC000BF92CF92DF92EF92FF92CF936B017C01A3
:100DD000842EAC019B010E94B71D882389F084E614
:100DE00091E0CF91FF90EF90DF90CF90BF90AF90C8
:100DF0009F908F907F906F905F904F900C945606CD
:100E000026013701E89477F82FEF3FEF4FE75FE7D0
:100E1000C301B2010E94B71D81110DC02FEF3FEF3A
:100E20004FE75FE7C301B2010E94ED1A18161CF4E8
:100E300088E691E0D6CF2FEF3FEF4FE75FE4C701A1
:100E4000B6010E94B21D18161CF48CE691E0C9CFC1
:100E50002FEF3FEF4FE75FECC701B6010E94ED1A9D
:100E600087FDF3CF20E030E0A901C701B6010E9461
:100E7000ED1AB12CA12C87FF0AC06DE28BE694E03D
:100E80000E9410045C01F7FAF094F7F8F094C82D72
:100E900060E070E080E09FE3912C20E030E040E2F1
:100EA00051E40E940A1D93949814B8F3A701960187
:100EB0000E949E1C2B013C010E94831D6B017C0142
:100EC0000E94F21A9B01AC01C301B2010E949D1C59
:100ED0002B013C014AE0C701B6010E9463067C0178
:100EE0006EE28BE694E00E941004E80EF91EEA0C14
:100EF000FB1CC15018F120E030E040E251E4C30196
:100F0000B2010E94531B2B013C010E94831D4B0127
:100F1000B12CA12C4AE0C501B4010E946306E80E81
:100F2000F91EC501B4010E94F21A9B01AC01C30174
:100F3000B2010E949D1C2B013C01DBCFC701CF9168
:100F4000FF90EF90DF90CF90BF90AF909F908F90E9
:100F50007F906F905F904F900895682F70E090E0C1
:100F600080E04AE00C946306FF920F931F93CF93A7
:100F7000DF93EC01F62E08811981C8010E94141C30
:100F8000F81621F06F2DC8010E941C1CCE01DF91C4
:100F9000CF911F910F91FF900895CF93DF9300D0D1
:100FA000CDB7DEB7FB016081FC0120813181A90151
:100FB0004F5F5F4F518340833A832983CE0101966F
:100FC0000E94B4070F900F90DF91CF910895CF93B7
:100FD000DF9300D0CDB7DEB7FB016081FC0120813B
:100FE0003181A9014F5F5F4F518340833A83298349
:100FF000CE0101960E94B4070F900F90DF91CF9120
:101000000895CF92DF92EF92FF920F931F93CF93A9
:10101000DF9300D0CDB7DEB77C018B016B0184E09C
:10102000C80ED11CF80161918F01F7018081918177
:101030009C012F5F3F4F318320839A838983CE01A8
:1010400001960E94B4070C151D0561F70F900F90D3
:10105000DF91CF911F910F91FF90EF90DF90CF9094
:101060000895EF92FF920F931F93CF93DF9300D0D9
:10107000CDB7DEB78C017B01FB016081FC01808173
:1010800091819C012F5F3F4F318320839A83898315
:10109000CE0101960E94B407F7016181F8018081B9
:1010A00091819C012F5F3F4F318320839A838983F5
:1010B000CE0101960E94B4070F900F90DF91CF915F
:1010C0001F910F91FF90EF900895CF93DF9300D081
:1010D000CDB7DEB781E090E09A83898368E471E060
:1010E000CE0101960E94310866E471E0CE010196BE
:1010F0000E94310864E471E0CE0101960E9431083B
:101100006AE471E0CE0101960E94310860E471E06A
:10111000CE0101960E9431086EE371E0CE01019686
:101120000E9431086CE371E0CE0101960E94310803
:1011300062E471E0CE0101960E94310865E171E040
:10114000CE0101960E94010869E171E0CE0101968D
:101150000E9401086DE171E0CE0101960E94010834
:1011600061E271E0CE0101960E9401086CE071E03D
:10117000CE0101960E94010860E171E0CE01019666
:101180000E94010865E271E0CE0101960E9401080B
:1011900069E271E0CE0101960E9401086DE271E002
:1011A000CE0101960E94010868E371E0CE0101962C
:1011B0000E94010864E171E0CE0101960E94E707F8
:1011C00066E474E0CE0101960E94E70760E571E0F5
:1011D000CE0101960E94310864E071E0CE010196D3
:1011E0000E94310866E071E0CE0101960E9431084C
:1011F0006EE471E0CE0101960E94310868E071E072
:10120000CE0101960E9431086AE071E0CE0101969C
:101210000E94310869E474E0CE0101960E94E7075C
:1012200066E371E0CE0101960E94310867E474E044
:10123000CE0101960E94310862E071E0CE01019674
:101240000E9431086DE471E0CE0101960E94CD0745
:101250006CE471E0CE0101960E94CD0761E071E07F
:10126000CE0101960E94CD0760E071E0CE010196AB
:101270000E94CD0765E371E0CE0101960E94CD0783
:101280000F900F90DF91CF910895CF93DF93FC01E2
:10129000EB01808191819C012F5F3F4F318320833F
:1012A0000E94141C8883DF91CF910895CF93DF9320
:1012B000FC01EB01808191819C012F5F3F4F3183C5
:1012C00020830E94141C8883DF91CF910895EF92B0
:1012D000FF920F931F93CF93DF938C01EB017B0160
:1012E00084E0E80EF11CF801808191819C012F5F60
:1012F0003F4F318320830E94141C8993CE15DF0554
:1013000091F7DF91CF911F910F91FF90EF9008958A
:101310000F931F93CF93DF93EC018B018881998109
:101320009C012F5F3F4F398328830E94141CF801D2
:101330008083888199819C012F5F3F4F3983288367
:101340000E94141CF8018183DF91CF911F910F91AE
:1013500008951F920F920FB60F9211242F933F936F
:101360008F939F93AF93BF93809163049091640494
:10137000A0916504B09166043091620423E0230FCC
:101380002D3758F50196A11DB11D2093620480935D
:10139000630490936404A0936504B0936604809101
:1013A000670490916804A0916904B0916A04019661
:1013B000A11DB11D8093670490936804A0936904F4
:1013C000B0936A04BF91AF919F918F913F912F91FC
:1013D0000F900FBE0F901F90189526E8230F0296CE
:1013E000A11DB11DD2CF1F920F920FB60F921124E3
:1013F0002F933F934F935F936F937F938F939F931D
:10140000AF93BF93EF93FF938BE694E00E94EE03BC
:10141000FF91EF91BF91AF919F918F917F916F91CC
:101420005F914F913F912F910F900FBE0F901F90A2
:1014300018951F920F920FB60F9211242F938F932E
:101440009F93EF93FF93E0917B04F0917C04808164
:10145000E0918104F091820482FD1BC09081809113
:1014600084048F5F8F7320918504821741F0E0918F
:101470008404F0E0E559FB4F958F80938404FF913D
:10148000EF919F918F912F910F900FBE0F901F9012
:1014900018958081F4CF1F920F920FB60F921124EE
:1014A0002F933F934F935F936F937F938F939F936C
:1014B000AF93BF93CF93DF93EF93FF938091020499
:1014C000C0912C05D0E087FF24C0109285001092B7
:1014D0008400809102048F5F809302048091020453
:1014E000082E000C990B8C179D0724F480910204A0
:1014F0008C30C4F1809184009091850004968034F2
:101500009C4908F47AC080918400909185000496EB
:1015100076C080910204082E000C990B8C179D0751
:10152000C4F6E09102048E2FEE0F990BFC01EE0F32
:10153000FF1FE80FF91FE85FFA4F808186FFC9CFD0
:10154000E09102048E2FEE0F990BFC01EE0FFF1FAE
:10155000E80FF91FE85FFA4F808160E08F730E9407
:10156000B902B7CF2091840030918500E091020448
:101570008E2FEE0F990BFC01EE0FFF1FE80FF91FE6
:10158000E85FFA4F81819281820F931F90938900C7
:1015900080938800E09102048E2FEE0F990BFC01DE
:1015A000EE0FFF1FE80FF91FE85FFA4F808186FFFB
:1015B00011C0E09102048E2FEE0F990BFC01EE0F8B
:1015C000FF1FE80FF91FE85FFA4F808161E08F731A
:1015D0000E94B902FF91EF91DF91CF91BF91AF913E
:1015E0009F918F917F916F915F914F913F912F913B
:1015F0000F900FBE0F901F90189580E49CE9909378
:101600008900809388008FEF80930204E3CF1092CB
:101610006E0410926D0488EE93E0A0E0B0E0809339
:101620006F0490937004A0937104B093720486E5E4
:1016300091E090936C0480936B0485EC90E0909320
:1016400078048093770484EC90E090937A048093FC
:10165000790480EC90E090937C0480937B0481EC8F
:1016600090E090937E0480937D0482EC90E09093D0
:10167000800480937F0486EC90E0909382048093B2
:1016800081041092840410928504109286041092B2
:101690008704809150019091510190933605809379
:1016A000350580914E0190914F01909334058093C0
:1016B000330580912C058C3048F591E0980F90937C
:1016C0002C058093300590E0FC01EE0FFF1FE80F22
:1016D000F91FE85FFA4F88EB9BE09283818380914A
:1016E0002C058C30B8F491E0980F90932C058093E2
:1016F0002D0590E0FC01EE0FFF1FE80FF91FE85FDA
:10170000FA4F88EB9BE09283818308958FEF80935B
:101710003005E5CF8FEF80932D050895CF93DF93AC
:10172000CDB7DEB7A1970FB6F894DEBF0FBECDBF21
:10173000789484B5826084BD84B5816084BD85B5AC
:10174000826085BD85B5816085BD80916E008160B8
:1017500080936E001092810080918100826080935E
:101760008100809181008160809381008091800060
:101770008160809380008091B10084608093B1008B
:101780008091B00081608093B00080917A00846085
:1017900080937A0080917A00826080937A008091B1
:1017A0007A00816080937A0080917A0080688093CB
:1017B0007A001092C100E0917B04F0917C0482E0F9
:1017C0008083E0917704F09178041082E0917904AD
:1017D000F0917A0480E1808310928304E0917F0489
:1017E000F091800486E08083E0917D04F0917E0496
:1017F000808180618083E0917D04F0917E0480810E
:1018000088608083E0917D04F0917E04808180680F
:101810008083E0917D04F0917E0480818F7D8083C0
:1018200090E080E00E94141C813039F061E090E08B
:1018300080E00E941C1C0E94650881E090E09A8371
:10184000898368E471E0CE0101960E94880966E40C
:1018500071E0CE0101960E94880964E471E0CE0136
:1018600001960E9488096AE471E0CE0101960E9407
:10187000880960E471E0CE0101960E9488096EE358
:1018800071E0CE0101960E9488096CE371E0CE01FF
:1018900001960E94880962E471E0CE0101960E94DF
:1018A000880965E171E0CE0101960E94670969E14E
:1018B00071E0CE0101960E9467096DE171E0CE01F1
:1018C00001960E94670961E271E0CE0101960E94D3
:1018D00067096CE071E0CE0101960E94670960E142
:1018E00071E0CE0101960E94670965E271E0CE01C8
:1018F00001960E94670969E271E0CE0101960E949B
:1019000067096DE271E0CE0101960E94670968E304
:1019100071E0CE0101960E94670964E171E0CE0199
:1019200001960E94560966E474E0CE0101960E9479
:10193000560960E571E0CE0101960E94880964E0D5
:1019400071E0CE0101960E94880966E071E0CE0147
:1019500001960E9488096EE471E0CE0101960E9412
:10196000880968E071E0CE0101960E9488096AE06A
:1019700071E0CE0101960E94880969E474E0CE010D
:1019800001960E94560966E371E0CE0101960E941D
:10199000880967E474E0CE0101960E94880962E03C
:1019A00071E0CE0101960E9488096DE471E0CE01DC
:1019B00001960E9445096CE471E0CE0101960E94F7
:1019C000450961E071E0CE0101960E94450960E0A1
:1019D00071E0CE0101960E94450965E371E0CE01F8
:1019E00001960E94450985EA93E00E945D0481E02A
:1019F00090E00E94A9068BE791E00E94A70683E988
:101A000093E00E945D0480914801909149010E94F9
:101A1000A9068BE791E00E94A7068EE793E00E945B
:101A20005D0480914601909147010E94A9068BE7D1
:101A300091E00E94A7068DE693E00E945D048091EC
:101A40004401909145010E94A9068BE791E00E9414
:101A5000A7068EE593E00E945D0480914A01909173
:101A60004B010E94A9068BE791E00E94A7068FE434
:101A700093E00E945D0480914001909141010E9499
:101A8000A9068BE791E00E94A7068AE393E00E94F3
:101A90005D0480913E0190913F010E94A9068BE771
:101AA00091E00E94A70689E293E00E945D04809184
:101AB0003C0190913D010E94A9068BE791E00E94B4
:101AC000A7068AE193E00E945D0480914201909113
:101AD00043010E94A9068BE791E00E94A70681E0DE
:101AE00093E00E945D046091150170911601809150
:101AF00017019091180144E050E00E94D9068BE74D
:101B000091E00E94A70688EE92E00E945D04609139
:101B1000190170911A0180911B0190911C0144E000
:101B200050E00E94D9068BE791E00E94A7068EEC58
:101B300092E00E945D0460911D0170911E018091F0
:101B40001F019091200144E050E00E94D9068BE7EC
:101B500091E00E94A70684EB92E00E945D046091F0
:101B6000210170912201809123019091240144E090
:101B700050E00E94D9068BE791E00E94A7068BE90E
:101B800092E00E945D0460910C0170910D018091C2
:101B90000E0190910F0144E050E00E94D9068BE7BE
:101BA00091E00E94A70682E892E00E945D046091A5
:101BB000100170911101809112019091130144E084
:101BC00050E00E94D9068BE791E00E94A7068EE6BE
:101BD00092E00E945D046091250170912601809140
:101BE00027019091280144E050E00E94D9068BE73C
:101BF00091E00E94A70689E592E00E945D04609151
:101C0000290170912A0180912B0190912C0144E0CF
:101C100050E00E94D9068BE791E00E94A7068AE473
:101C200092E00E945D0460912D0170912E018091DF
:101C30002F019091300144E050E00E94D9068BE7DB
:101C400091E00E94A7068CE292E00E945D04609100
:101C500038017091390180913A0190913B0144E043
:101C600050E00E94D9068BE791E00E94A70681E12F
:101C700092E00E945D0480911401882309F445C11B
:101C800080E791E00E94A7068BE791E00E94A706FB
:101C900085EF91E00E945D0480914604882309F459
:101CA00037C180E791E00E94A7068BE791E00E9490
:101CB000A7068FED91E00E945D0480915001909104
:101CC00051010E94A9068BE791E00E94A7068BECC8
:101CD00091E00E945D0480910401909105010E94B1
:101CE000A9068BE791E00E94A70687EB91E00E948E
:101CF0005D0480910601909107010E94A9068BE77F
:101D000091E00E94A70680EA91E00E945D04809124
:101D10004E0190914F010E94A9068BE791E00E942D
:101D2000A7068BE891E00E945D04809108019091E4
:101D300009010E94A9068BE791E00E94A70686E7A9
:101D400091E00E945D0480910A0190910B010E9434
:101D5000A9068BE791E00E94A70683E691E00E9426
:101D60005D0480914904882309F4D5C080E791E09F
:101D70000E94A7068BE791E00E94A7068BE491E002
:101D80000E945D0480913601909137010E94A9065E
:101D90008BE791E00E94A70683E391E00E945D0437
:101DA00080914704909148040E94A9068BE791E036
:101DB0000E94A7068FE091E00E945D0480910201DD
:101DC000909103010E94A9068BE791E00E94A7066B
:101DD00081E091E00E945D0480914D010E94AD0779
:101DE0008BE791E00E94A70683EF90E00E945D04DC
:101DF00080914C010E94AD078BE791E00E94A706FD
:101E000085ED90E00E945D04809101010E94AD0784
:101E10008BE791E00E94A70686EB90E00E945D04AC
:101E2000809100010E94AD078BE791E00E94A70618
:101E300083EA90E00E945D04809135010E94AD0725
:101E40008EE791E00E94560680E891E00E945606D7
:101E500060E080914D010E94050360E080914C019B
:101E60000E94050360E0809135010E9405036091A6
:101E7000010170E080E395E00E94CF0460910001D1
:101E800070E08DE295E00E94CF0460915001709166
:101E9000510180E395E00E94980460914E01709199
:101EA0004F018DE295E00E9498048BE694E00E9439
:101EB000AC03182F8F3F09F467C28C3209F0B3C707
:101EC000E0913504F0E0ED5FFB4F108263E871E0D4
:101ED00083E094E00E9448198C0163E871E090E08F
:101EE00080E00E9448197C0166E871E0C8010E9408
:101EF000EB1D892B99F4C7010E942A19909349017F
:101F00008093480185EC93E037C285E791E0BACE33
:101F100085E791E0C8CE85E791E02ACF64E971E0DA
:101F2000C8010E94EB1D892B41F4C7010E942A19A8
:101F30009093470180934601E5CF65EA71E0C801BF
:101F40000E94EB1D892B41F4C7010E942A1990932E
:101F5000450180934401D6CF62EB71E0C8010E9435
:101F6000EB1D892B41F4C7010E942A1990934B0164
:101F700080934A01C7CF6DEB71E0C8010E94EB1D51
:101F8000892B41F4C7010E942A1990934101809343
:101F90004001B8CF68EC71E0C8010E94EB1D892BAD
:101FA00041F4C7010E942A1990933F0180933E019A
:101FB000A9CF69ED71E0C8010E94EB1D892B41F4A6
:101FC000C7010E942A1990933D0180933C019ACF4A
:101FD00066EE71E0C8010E94EB1D892B41F4C70138
:101FE0000E942A1990934301809342018BCF61EFA5
:101FF00071E0C8010E94EB1D892B61F4C7010E94AA
:102000002619609315017093160180931701909320
:10201000180178CF66E072E0C8010E94EB1D892BA1
:1020200061F4C7010E9426196093190170931A0187
:1020300080931B0190931C0165CF6BE172E0C80196
:102040000E94EB1D892B61F4C7010E942619609341
:102050001D0170931E0180931F019093200152CFA8
:1020600061E372E0C8010E94EB1D892B61F4C70196
:102070000E9426196093210170932201809323010D
:10208000909324013FCF67E472E0C8010E94EB1DEA
:10209000892B61F4C7010E94261960930C0170938B
:1020A0000D0180930E0190930F012CCF6CE572E02F
:1020B000C8010E94EB1D892B61F4C7010E942619FB
:1020C000609310017093110180931201909313019A
:1020D00019CF61E772E0C8010E94EB1D892B61F402
:1020E000C7010E94261960932501709326018093F1
:1020F00027019093280106CF61E872E0C8010E9491
:10210000EB1D892B61F4C7010E94261960932901F8
:1021100070932A0180932B0190932C01F3CE62E9F6
:1021200072E0C8010E94EB1D892B61F4C7010E9477
:10213000261960932D0170932E0180932F019093A7
:102140003001E0CE6DE972E0C8010E94EB1D892BE1
:1021500061F4C7010E942619609338017093390118
:1021600080933A0190933B01CDCE67EB72E0C801BA
:102170000E94EB1D892B51F4C7010E942A1921E00E
:10218000892B09F420E020931401BCCE6EEC72E0A0
:10219000C8010E94EB1D892B51F4C7010E942A1926
:1021A00021E0892B09F420E020934604ABCE66EEB3
:1021B00072E0C8010E94EB1D892B41F4C7010E9407
:1021C0002A1990935101809350019CCE68EF72E0E0
:1021D000C8010E94EB1D892B41F4C7010E942A19F6
:1021E00090930501809304018DCE68E073E0C801EF
:1021F0000E94EB1D892B41F4C7010E942A1990937C
:102200000701809306017ECE68E173E0C8010E9459
:10221000EB1D892B41F4C7010E942A1990934F01AD
:1022200080934E016FCE6BE273E0C8010E94EB1DFC
:10223000892B41F4C7010E942A19909309018093C8
:10224000080160CE6CE373E0C8010E94EB1D892B8E
:1022500041F4C7010E942A1990930B0180930A014F
:1022600051CE6DE473E0C8010E94EB1D892B51F43F
:10227000C7010E942A1921E0892B09F420E020934C
:10228000490440CE6CE573E0C8010E94EB1D892B28
:1022900041F4C7010E942A199093370180933601B7
:1022A00031CE60E773E0C8010E94EB1D892B41F439
:1022B000C7010E942A19909348048093470422CEB4
:1022C00064E873E0C8010E94EB1D892B41F4C7014B
:1022D0000E942A19909303018093020113CE64EAAD
:1022E00073E0C8010E94EB1D892B31F4C7010E94E5
:1022F0002A1980934D0106CE6EEA73E0C8010E9450
:10230000EB1D892B31F4C7010E942A1980934C01DF
:10231000F9CD68EB73E0C8010E94EB1D892B31F405
:10232000C7010E942A1980930101ECCD62ED73E090
:10233000C8010E94EB1D892B31F4C7010E942A19A4
:1023400080930001DFCD6DEE73E0C8010E94EB1DAC
:10235000892B31F4C7010E942A1980933501D2CD0F
:102360006CEF73E0C8010E94EB1D892B19F40E94E9
:102370006508C8CD8BED93E00E945D0480E891E094
:102380000E94560610923504C0903604D09037044F
:10239000E0903804F0903904C114D104E104F10450
:1023A00009F465C50E944B036C197D098E099F09CC
:1023B0000E94F21A20E034E244E759E40E940A1D28
:1023C00069877A878B879C870E944B0360933604CA
:1023D00070933704809338049093390489859A85E3
:1023E000AB85BC8580935E0490935F04A0936004EA
:1023F000B093610480914D010E9436036C0190936B
:102400005D0480935C0480914C010E9436037C0142
:1024100090935B0480935A0400914A0110914B0100
:102420002091480130914901409146015091470166
:102430006091440170914501C6010E942B054B013A
:102440005C018092560490925704A0925804B09276
:1024500059040091420110914301209140013091B3
:10246000410140913E0150913F0160913C017091CA
:102470003D01C7010E942B056B017C01C0925204F3
:10248000D0925304E0925404F0925504C0924E044A
:10249000D0924F04E0925004F09251042091380100
:1024A0003091390140913A0150913B0160E070E078
:1024B00080E89FE30E949D1C2B013C0120E030E05E
:1024C000A901C701B6010E94B21D181624F0F7FA3F
:1024D000F094F7F8F094A7019601C301B2010E94AD
:1024E000531B9B01AC0160E070E080E89FE30E9419
:1024F0009D1C6B017C0120E030E0A9010E94B21D0F
:1025000018161CF0C12CD12C7601A7019601C5012B
:10251000B4010E94531B60934A0470934B04809350
:102520004C0490934D0480914904882309F47DC0A4
:10253000709035016091470470914804072E000C9B
:10254000880B990B0E94F41A4B015C0160913601D3
:1025500070913701072E000C880B990B0E94F41A1A
:102560006B017C01872D0E9436038C01A701960127
:10257000C501B4010E949D1C4B015C01B801110F03
:10258000880B990B0E94F41AA70196010E949D1CCA
:10259000A50194010E940A1D20E030E0A9010E94DB
:1025A0009E1C20E030E0A9010E94ED1A87FD6EC458
:1025B000872D0E943603BC01990F880B990B0E944E
:1025C000F41AA70196010E949D1CA50194010E9486
:1025D0000A1D20E030E0A9010E949E1C20E030E0AE
:1025E00040E85FE30E94B21D18160CF453C4872D17
:1025F0000E943603BC01990F880B990B0E94F41AB4
:10260000A70196010E949D1CA50194010E940A1D2C
:1026100020E030E0A9010E949E1C6093310170937C
:102620003201809333019093340180902D0190907A
:102630002E01A0902F01B090300190913101998B23
:10264000A0913201AB8BB0913301BC8B209134014E
:102650002D8B209125013091260140912701509129
:102660002801692F7A2F8B2F9D890E94531B1B01F4
:102670002C016091290170912A0180912B01909188
:102680002C01905829893B894C895D890E94531BF4
:102690003B018F839A8BC0904E04D0904F04E09002
:1026A0005004F090510420E030E0A901C701B601C8
:1026B0000E94ED1A882309F4FFC320E030E0A9014D
:1026C000C701B6010E94B21DA701960118160CF0B1
:1026D000E6C3B101C2010E94531B20E030E0A90112
:1026E0000E949E1C6D877B838C012D853B81A801F8
:1026F000B3018F819A890E94B21D18160CF4E1C3B0
:102700002D853B81A801B101C2010E94ED1A87FF0E
:1027100003C02D863B8282018D859B81D8018093E9
:102720004E0490934F04A0935004B0935104209111
:102730004A0430914B0440914C0450914D04C50122
:10274000B4010E94531B29893B894C895D890E94F1
:10275000531B3B012C0129893B894C895D89C501AB
:10276000B40190580E94531B6B017C01AC019B018A
:10277000B301C2010E94ED1A87FD14C029893B896B
:102780004C895D89C501B4010E94531B6B017C011A
:10279000AC019B01B301C2010E94B21D181614F0D6
:1027A00063017201C0924A04D0924B04E0924C043F
:1027B000F0924D0420E030E0A9016D857B81C801D5
:1027C0000E94ED1A87FF10C080914604882361F0B3
:1027D000F7FAF094F7F8F094C0924A04D0924B04C0
:1027E000E0924C04F0924D048091210190912201DD
:1027F000A0912301B09124018E8B9F8BA88FB98F5C
:1028000040901D0150901E0160901F0170902001AA
:102810008091190190911A01A0911B01B0911C01A6
:102820008A8F9B8FAC8FBD8F809015019090160181
:10283000A0901701B090180180911401811146C336
:10284000312C212C90E89F83AFE3AA8BC0904204E7
:10285000D0904304E0904404F090450420E030E040
:10286000A901C501B4010E94B21D18161CF0812CEB
:10287000912C5401A5019401632D722D8F819A89A9
:102880000E94531B6E8F7F8F88A399A320E030E0B6
:10289000A9016A8D7B8D8C8D9D8D0E94B21D1816AD
:1028A00024F01A8E1B8E1C8E1D8E20E030E0A901B4
:1028B000C301B2010E94B21D18161CF0412C512C0C
:1028C0003201A3019201632D722D8F819A890E949A
:1028D000531B4B015C0120E030E0A9016E897F8928
:1028E000888D998D0E94B21D181624F01E8A1F8AA9
:1028F000188E198EA70196016D857B81C8010E94F3
:102900009D1C3B018C0120E030E0A901C701B6010C
:102910000E94ED1A8111E1C2C501B40190582985C8
:102920003A854B855C850E94531B4B015C019301EA
:10293000A8010E94B21D1816A4F02E8D3F8D48A14B
:1029400059A169857A858B859C850E94531B4B0113
:102950005C019301A8010E94ED1A87FD02C04301AA
:1029600058019401A501C701B6010E949E1C6D8704
:102970007E878F87988B8D859E85AF85B88980935C
:10298000420490934304A0934404B09345044090C0
:10299000100150901101609012017090130180900D
:1029A0000C0190900D01A0900E01B0900F0180914C
:1029B0004A0490914B04A0914C04B0914D048B8338
:1029C0009C83AD83BE83C0903E04D0903F04E090D2
:1029D0004004F090410420E030E0A901C501B401B9
:1029E0000E94B21D18161CF0812C912C5401A501D7
:1029F000940169897B898C899D890E94531B4B01B5
:102A00005C0120E030E0A901C301B2010E94B21DC7
:102A100018161CF0412C512C3201A70196016B8134
:102A20007C818D819E810E949D1C362E272E8B835A
:102A30009F8320E030E0A901C701B6010E94ED1A92
:102A40008111D6C229853A854B855C85C501B401C3
:102A500090580E94531B3B018C01232D322D4B813A
:102A60005F810E94B21D1816B4F0A501940169851A
:102A70007A858B859C850E94531B3B018C01232DFD
:102A8000322D4B815F810E94ED1A87FD04C0632CBB
:102A9000722C0B811F819301A801C701B6010E940E
:102AA0009E1C6B017C01C0923E04D0923F04E092D8
:102AB0004004F0924104A0910A01B0910B01BC8343
:102AC000AB83209108013091090138872F838091D1
:102AD0004E0190914F019A878987009106011091CC
:102AE0000701609004017090050120905001309022
:102AF00051012D853E854F855889C701B6010E9439
:102B00009E1C4B015C0120E030E0A9010E94ED1AFF
:102B10008111F6C2B101032C000C880B990B0E94A5
:102B2000F41A0E947C1D9B01A80117FF03C0519558
:102B3000419551098101041B150B201731073CF009
:102B40008101040F151F201731070CF48B0110931E
:102B5000360500933505A70196016D857E858F8525
:102B600098890E949D1C6B017C0120E030E0A90146
:102B70000E94ED1A811111C3A985BA85BD01BB0F51
:102B8000880B990B0E94F41A0E947C1DFB014B815B
:102B90005C8157FF03C051954195510929853A85BC
:102BA000241B350BE217F30744F029853A85240FDF
:102BB000351FE217F3070CF49B0130933405209383
:102BC0003305B80180E395E00E94980460913305D5
:102BD000709134058DE295E00E9498048091020185
:102BE0009091030197FD12C12FB7F89440916304AF
:102BF0005091640460916504709166042FBF009148
:102C00003A0410913B0420913C0430913D04401B58
:102C1000510B620B730B092E000CAA0BBB0B481750
:102C200059076A077B0708F4F1C02FB7F894809121
:102C3000630490916404A0916504B09166042FBF71
:102C400080933A0490933B04A0933C04B0933D04DA
:102C50008FEA94E00E945D042FB7F89460916304BA
:102C60007091640480916504909166042FBF4AE0DE
:102C70000E9463068BE791E00E94A70683EA94E036
:102C80000E945D0480915C0490915D040E94A906FD
:102C90008BE791E00E94A70687E994E00E945D041B
:102CA00080915A0490915B040E94A9068BE791E001
:102CB0000E94A70689E894E00E945D046091560492
:102CC00070915704809158049091590443E050E06A
:102CD0000E94D9068BE791E00E94A7068AE794E05C
:102CE0000E945D04609152047091530480915404D9
:102CF0009091550443E050E00E94D9068BE791E0A3
:102D00000E94A7068AE694E00E945D0460913E045A
:102D100070913F04809140049091410443E050E061
:102D20000E94D9068BE791E00E94A70689E594E00E
:102D30000E945D04609142047091430480914404B8
:102D40009091450443E050E00E94D9068BE791E062
:102D50000E94A70687E494E00E945D0460913E040F
:102D600070913F04809140049091410443E050E011
:102D70000E94D9068BE791E00E94A70684E394E0C5
:102D80000E945D0460914204709143048091440468
:102D90009091450443E050E00E94D9068BE791E012
:102DA0000E94A7068EE194E00E945D0480913505A3
:102DB000909136050E94A9068BE791E00E94A70634
:102DC00087E094E00E945D04809133059091340582
:102DD0000E94A9068BE791E00E94A70683EF93E08B
:102DE0000E945D0460913101709132018091330144
:102DF0009091340143E050E00E94D9068EE791E0C3
:102E00000E94560680E891E00E94560680E090E01D
:102E1000892B09F44AC80E94DA03882309F445C8BB
:102E20000E94000042C8E82E880FFF08C7010E94D8
:102E3000CE1D892B49F483ED810F823028F01A339F
:102E400019F01F3509F0A0CAC7010E94E31D909137
:102E50003504292F30E0F901ED5FFB4F80832033EB
:102E600031050CF091CA9F5F909335048DCA0E9482
:102E70004B03609336047093370480933804909327
:102E8000390419861A861B861C86A8CA60E070E081
:102E9000CB01C3CB60E070E080E89FE3BECBB30121
:102EA0008F819A890E94531B9B01AC0160E070E006
:102EB000CB010E949D1C16CC1D861B8200E010E0F9
:102EC00014CC6D867B820F811A8926CC39882B8899
:102ED000BC89BF832D892A8BB9CC20E030E0A901C1
:102EE000C701B6010E94B21D18160CF043C02A8D0E
:102EF0003B8D4C8D5D8D632D722D8F819A890E9443
:102F0000531B905829853A854B855C850E94531B3D
:102F10004B015C019301A8010E94B21D1816A4F098
:102F20002E8D3F8D48A159A169857A858B859C8519
:102F30000E94531B4B015C019301A8010E94ED1AF2
:102F400087FD02C0430158019401A501C701B601E4
:102F50000E949E1C6D877E878F87988B20E030E0D3
:102F6000A9010E94ED1A87FF06CD1D861E861F86C9
:102F7000188A01CDC501B401905829853A854B8541
:102F80005C850E94531B4B015C019301A8010E94C8
:102F9000B21D1816D4F02E893F89488D598D632DA6
:102FA000722D8F819A890E94531B29853A854B8502
:102FB0005C850E94531B4B015C019301A8010E9498
:102FC000ED1A87FD02C0430158019401A501C70114
:102FD000B6010E949E1C6D877E878F87988B20E0AC
:102FE00030E0A9010E94B21D18160CF4BECFC3CC6C
:102FF000A301920169897B898C899D890E94531B59
:103000002B013C0120E030E0A901C701B6010E947C
:10301000B21D1816E4F5C301B201905829853A850E
:103020004B855C850E94531B3B018C01232D322D67
:103030004B815F810E94B21D1816B4F0A501940166
:1030400069857A858B859C850E94531B3B018C0189
:10305000232D322D4B815F810E94ED1A87FD04C024
:10306000632C722C0B811F819301A801C701B6014B
:103070000E949E1C6B017C0120E030E0A9010E94AF
:10308000ED1A87FF10CDC12CD12C76010CCDC501D6
:10309000B401905829853A854B855C850E94531B65
:1030A0005B018C01232D322D4B815F810E94B21D6B
:1030B0001816B4F0A301920169857A858B859C85E9
:1030C0000E94531B5B018C01232D322D4B815F81AC
:1030D0000E94ED1A87FD04C0A32CB22C0B811F8126
:1030E0009501A801C701B6010E949E1C6B017C01DD
:1030F00020E030E0A9010E94B21D181624F2D3CCC2
:1031000020E030E0A901C501B4010E94B21D1816EB
:103110000CF5B301620D731D072E000C880B990B83
:103120000E94F41A2B013C01B801620D731D072E99
:10313000000C880B990B0E94F41AA30192010E94C3
:103140009D1CA50194010E94531BA30192010E94A2
:103150009E1CE7CCB10166197709072E000C880B7D
:10316000990B0E94F41A2B013C01B101601B710BF9
:10317000072E000C880B990B0E94F41AA3019201F0
:103180000E949D1CA50194010E94531B9B01AC0150
:10319000C301B2010E949D1CC4CC20E030E0A90113
:1031A000C701B6010E94B21D18163CF56F817885E3
:1031B00029853A85620F731F072E000C880B990B27
:1031C0000E94F41A4B015C016B817C8189859A8590
:1031D000680F791F072E000C880B990B0E94F41AB8
:1031E000A50194010E949D1CA70196010E94531BFA
:1031F000A50194010E949E1CC7CC69857A85AF8188
:10320000B8856A1B7B0B072E000C880B990B0E945C
:10321000F41A4B015C0169857A852B813C81621B24
:10322000730B072E000C880B990B0E94F41AA50152
:1032300094010E949D1CA70196010E94531B9B01B3
:10324000AC01C501B4010E949D1C9ECC6627772766
:103250000C947C19FC0188279927E894219120324D
:10326000E9F3293010F02E30C8F32B3241F02D3223
:1032700039F4689404C00E947419820F911D219141
:1032800020532A30C0F31EF4909581959F4F0895E6
:1032900047E355E00E944D190895FA01A191B081CC
:1032A000009719F41097E1F0CD01DC01CD010D90EC
:1032B000002011F4C00113C0FB012191222319F059
:1032C0002015D9F7F3CFFB012191201519F41E9297
:1032D000119606C02223C1F70D900020A1F7D0015E
:1032E000FA01A193B08308957AE0979F902D879F6C
:1032F000802D910D11240895B0E0A0E0E2E8F9E1FD
:103300000C943B1C5C017B016115710519F0DB011C
:103310008D939C9385010F5F1F4FF501D0818D2FF9
:1033200090E00E94CC1A6C01892BB9F5DD32B9F519
:103330000F5F1F4FD5011196DC91C1E05801F1E0FC
:10334000AF1AB10843E050E060E770E0C5010E94A9
:10335000D51A892B69F5680182E0C80ED11C45E0B9
:1033600050E06BE670E0C6010E94D51A892B21F46B
:10337000680197E0C90ED11CE114F10419F0D701DE
:10338000CD92DC9260E070E080E89FEFC111FFC059
:1033900060E070E080E89FE7FAC05801BBCFDB3205
:1033A00029F485010E5F1F4FF501D181C0E0C6CF22
:1033B00043E050E068E670E0C5010E94D51A892B11
:1033C000E9F0F80110E000E020E030E0A9015F0141
:1033D000B0ED8B2E8D0E89E08815C8F19C2E689477
:1033E00091F88C2F8870C2FF16C0811102C00F5F48
:1033F0001F4F3196D501DC91C92DE9CFE114F104BD
:1034000029F00E5F1F4FF7011183008360E070E029
:1034100080EC9FE7BCC0882311F001501109A5E0A2
:10342000B0E00E942A1C9B01AC01220F331F441FF5
:10343000551F280D311D411D511D283999E93907A6
:10344000490799E15907A8F2C6609C2ED2CFAEEF8A
:103450008A1206C0C3FD3CC09C2E689493F8C9CF65
:10346000DF7DD534A9F580818D3239F4C061DF016B
:103470001296818162E070E006C0DF018B32C1F3F9
:10348000119661E070E080535D01A61AB70A8A3098
:10349000F8F4E0E8CE16ECE0DE065CF4B601660F68
:1034A000771F660F771FC60ED71ECC0CDD1CC80E0B
:1034B000D11C5D01FFEFAF1ABF0A8C9180538A3097
:1034C000A8F1C4FF03C0D194C194D1080C0D1D1DF7
:1034D000C1FF09C0E114F10431F081E0A81AB1087C
:1034E000D701AD92BC92CA01B9010E94F21AC37011
:1034F000C33009F490584B015C0120E030E0A90191
:103500000E94ED1A882309F440C0CFE9D0E017FFEC
:1035100005C0119501951109C7E8D0E06E01B8E129
:10352000CB1AD10880E2E82EF12C0FC0D501B1CF23
:10353000FE0125913591459154910E191F09C50140
:10354000B4010E94531B4B015C01D501C4010E154F
:103550001F0574F72497F594E794CC16DD06A9F7B8
:103560008A2F880F8B2F881F8F3F49F020E030E093
:10357000A901C501B4010E94ED1A811106C082E2C1
:1035800090E090933A0580933905C501B401CDB719
:10359000DEB7ECE00C94571C91110C94C01B8032E8
:1035A00019F089508550C8F70895FB01DC0141509E
:1035B000504088F08D9181341CF08B350CF4805E86
:1035C000659161341CF06B350CF4605E861B6111F3
:1035D00071F3990B0895881BFCCF0E942F1B08F4F0
:1035E00081E00895E89409C097FB3EF4909580959A
:1035F000709561957F4F8F4F9F4F9923A9F0F92FB9
:1036000096E9BB279395F695879577956795B79536
:10361000F111F8CFFAF4BB0F11F460FF1BC06F5F1C
:103620007F4F8F4F9F4F16C0882311F096E911C02E
:10363000772321F09EE8872F762F05C0662371F04F
:1036400096E8862F70E060E02AF09A95660F771F63
:10365000881FDAF7880F9695879597F90895990F3F
:103660000008550FAA0BE0E8FEEF16161706E8074C
:10367000F907C0F012161306E407F50798F0621B6D
:10368000730B840B950B39F40A2661F0232B242B42
:10369000252B21F408950A2609F4A140A6958FEF61
:1036A000811D811D08950E94661B0C94DA1B0E94E7
:1036B000CC1B38F00E94D31B20F0952311F00C9402
:1036C000C31B0C94C91B11240C940E1C0E94EB1BF1
:1036D00070F3959FC1F3950F50E0551F629FF00165
:1036E000729FBB27F00DB11D639FAA27F00DB11D7E
:1036F000AA1F649F6627B00DA11D661F829F222707
:10370000B00DA11D621F739FB00DA11D621F839F8D
:10371000A00D611D221F749F3327A00D611D231F63
:10372000849F600D211D822F762F6A2F11249F57B1
:1037300050409AF0F1F088234AF0EE0FFF1FBB1FB4
:10374000661F771F881F91505040A9F79E3F510573
:1037500080F00C94C31B0C940E1C5F3FE4F3983E66
:10376000D4F3869577956795B795F795E7959F5F1D
:10377000C1F7FE2B880F911D9695879597F90895AF
:1037800099278827089597F99F6780E870E060E09F
:1037900008959FEF80EC089500240A9416161706EA
:1037A00018060906089500240A9412161306140632
:1037B00005060895092E0394000C11F4882352F095
:1037C000BB0F40F4BF2B11F460FF04C06F5F7F4F4D
:1037D0008F4F9F4F089557FD9058440F551F59F034
:1037E0005F3F71F04795880F97FB991F61F09F3FEE
:1037F00079F087950895121613061406551FF2CF17
:103800004695F1DF08C0161617061806991FF1CF66
:1038100086957105610508940895E894BB2766278D
:103820007727CB0197F90895F999FECF92BD81BD15
:10383000F89A992780B50895262FF999FECF1FBAD7
:1038400092BD81BD20BD0FB6F894FA9AF99A0FBEC9
:10385000019608950E948E1CA59F900DB49F900D17
:10386000A49F800D911D112408952F923F924F9295
:103870005F926F927F928F929F92AF92BF92CF9200
:10388000DF92EF92FF920F931F93CF93DF93CDB709
:10389000DEB7CA1BDB0B0FB6F894DEBF0FBECDBF81
:1038A00009942A88398848885F846E847D848C8452
:1038B0009B84AA84B984C884DF80EE80FD800C815B
:1038C0001B81AA81B981CE0FD11D0FB6F894DEBF3E
:1038D0000FBECDBFED010895A1E21A2EAA1BBB1B9E
:1038E000FD010DC0AA1FBB1FEE1FFF1FA217B307CC
:1038F000E407F50720F0A21BB30BE40BF50B661FE2
:10390000771F881F991F1A9469F7609570958095A5
:1039100090959B01AC01BD01CF010895A29FB0011C
:10392000B39FC001A39F700D811D1124911DB29FF3
:10393000700D811D1124911D08955058BB27AA2791
:103940000E94B51C0C94DA1B0E94CC1B38F00E941C
:10395000D31B20F039F49F3F19F426F40C94C91BB3
:103960000EF4E095E7FB0C94C31BE92F0E94EB1BC0
:1039700058F3BA17620773078407950720F079F4A4
:10398000A6F50C940D1C0EF4E0950B2EBA2FA02D6D
:103990000B01B90190010C01CA01A0011124FF27FC
:1039A000591B99F0593F50F4503E68F11A16F040F7
:1039B000A22F232F342F4427585FF3CF46953795F6
:1039C0002795A795F0405395C9F77EF41F16BA0BBB
:1039D000620B730B840BBAF09150A1F0FF0FBB1F69
:1039E000661F771F881FC2F70EC0BA0F621F731FB2
:1039F000841F48F4879577956795B795F7959E3F0F
:103A000008F0B0CF9395880F08F09927EE0F97959F
:103A1000879508950E941E1D0C94DA1B0E94D31BEB
:103A200058F00E94CC1B40F029F45F3F29F00C9421
:103A3000C31B51110C940E1C0C94C91B0E94EB1B50
:103A400068F39923B1F3552391F3951B550BBB27CD
:103A5000AA2762177307840738F09F5F5F4F220F12
:103A6000331F441FAA1FA9F335D00E2E3AF0E0E809
:103A700032D091505040E695001CCAF72BD0FE2F53
:103A800029D0660F771F881FBB1F261737074807E7
:103A9000AB07B0E809F0BB0B802DBF01FF2793589F
:103AA0005F4F3AF09E3F510578F00C94C31B0C9485
:103AB0000E1C5F3FE4F3983ED4F3869577956795A7
:103AC000B795F7959F5FC9F7880F911D96958795D4
:103AD00097F90895E1E0660F771F881FBB1F6217F3
:103AE00073078407BA0720F0621B730B840BBA0BB1
:103AF000EE1F88F7E09508950E94831D6894B11128
:103B00000C940E1C08950E94F31B88F09F5798F0A8
:103B1000B92F9927B751B0F0E1F0660F771F881FD2
:103B2000991F1AF0BA95C9F714C0B13091F00E94EC
:103B30000D1CB1E008950C940D1C672F782F882779
:103B4000B85F39F0B93FCCF3869577956795B39513
:103B5000D9F73EF490958095709561957F4F8F4F82
:103B60009F4F08950E942F1B08F48FEF08950E9425
:103B70002F1B880B990B0895991B79E004C0991F9E
:103B8000961708F0961B881F7A95C9F780950895B7
:103B9000EE0FFF1F0590F491E02D099491110C9404
:103BA000C01B80538A5018F0865C0C94DB1D08956E
:103BB00085FD0C94C01B806291110C94C01B815632
:103BC0008A51D8F708959111089581568A5108F4C1
:103BD000805285580895FB01DC018D910190801978
:0C3BE0000110D9F3990B0895F894FFCF61
:103BEC00050364001900F4011900F4010000803F82
:103BFC000000004001000000400000C03F00000039
:103C0C003F000020403333333F9A99193F000000A6
:103C1C003F0000803F1224040000003F7C01FF01A4
:103C2C007E0219008101FD0178021900100EDC05DD
:103C3C00DC0500000000100470039D037804CE0323
:103C4C00AC03C0036E616E00696E66006F76660031
:103C5C00747275650066616C7365002C20007D00C4
:103C6C000D0A003A2C00434F4E54524F4C5F5249B0
:103C7C0047485400434F4E54524F4C5F43454E54AB
:103C8C0045525F5800434F4E54524F4C5F4C454683
:103C9C005400585F444541445A4F4E4500434F4EE3
:103CAC0054524F4C5F555000434F4E54524F4C5F43
:103CBC0043454E5445525F5900434F4E54524F4C5E
:103CCC005F444F574E00595F444541445A4F4E454F
:103CDC0000414343454C45524154494F4E5F464F7A
:103CEC00525741524400444543454C455241544976
:103CFC004F4E5F464F525741524400414343454C4F
:103D0C0045524154494F4E5F4241434B57415244F7
:103D1C0000444543454C45524154494F4E5F424146
:103D2C00434B5741524400414343454C4552415447
:103D3C00494F4E5F5455524E494E470044454345FA
:103D4C004C45524154494F4E5F5455524E494E4783
:103D5C0000464153544553545F464F5257415244C9
:103D6C0000464153544553545F4241434B574152D3
:103D7C0044005455524E5F53504545440053434103
:103D8C004C455F5455524E494E475F5748454E5F20
:103D9C004D4F56494E47005343414C455F414343B9
:103DAC00454C5F574954485F535045454400524574
:103DBC0056455253455F5455524E5F494E5F5245DE
:103DCC005645525345004C4546545F4D4F544F5247
:103DDC005F43454E544552004C4546545F4D4F543D
:103DEC004F525F534C4F57004C4546545F4D4F5408
:103DFC004F525F464153540052494748545F4D4F10
:103E0C00544F525F43454E54455200524947485413
:103E1C005F4D4F544F525F534C4F570052494748D8
:103E2C00545F4D4F544F525F4641535400555345C8
:103E3C005F53504545445F4B4E4F420053504545F0
:103E4C00445F4B4E4F425F534C4F575F56414C00B3
:103E5C0053504545445F4B4E4F425F464153545F70
:103E6C0056414C005052494E545F564152494142C2
:103E7C004C45535F494E54455256414C5F4D494C4D
:103E8C004C4953004A4F595F585F50494E004A4FB6
:103E9C00595F595F50494E004C4546545F4D4F5445
:103EAC004F525F434F4E54524F4C4C45525F50490A
:103EBC004E0052494748545F4D4F544F525F434F49
:103ECC004E54524F4C4C45525F50494E0053504546
:103EDC0045445F4B4E4F425F50494E00534156454F
:023EEC000000D4
:00000001FF
