:100000000C94C8030C94F0030C94F0030C94291D79
:100010000C94C91C0C945B1C0C94451E0C94F003AE
:100020000C94F0030C94F0030C94F0030C94891DD1
:100030000C94F0030C94F0030C94F0030C94F00374
:100040000C94B91B0C94F0030C94291C0C94031C05
:100050000C94F0030C94F0030C94F0030C94F00354
:100060000C94F0030C94F0034E414E494E49545900
:10007000494E46CDCCCC3D0AD7233C17B7D1387773
:10008000CC2B329595E6241FB14F0A000020410089
:1000900000C84200401C4620BCBE4CCA1B0E5AAED3
:1000A000C59D7400407A10F35A00A0724E180900E2
:1000B00010A5D4E80000E87648170000E40B5402CD
:1000C0000000CA9A3B000000E1F505000080969808
:1000D00000000040420F000000A086010000001058
:1000E0002700000000E8030000000064000000009A
:1000F000000A00000000000100000000002C76D87B
:1001000088DC674F0823DFC1DFAE59E1B1B796E560
:10011000E3E453C63AE651997696E8E6C28426EBC4
:10012000898C9B62ED407C6FFCEFBC9C9F40F2BAD7
:10013000A56FA5F490055A2AF75C936B6CF9676D6F
:10014000C11BFCE0E40D47FEF520E6B500D0ED90C4
:100150002E0300943577050080841E080000204E91
:100160000A000000C80C333333330F986E1283112A
:1001700041EF8D2114893BE65516CFFEE6DB18D101
:10018000844B381BF77C1D901DA4BBE424203284D3
:10019000725E228100C9F124ECA1E53D272243488B
:1001A00045434B53554D223A005D2C002C002C004A
:1001B000223A5B002244524956455F425554544FFF
:1001C0004E5F0063757272656E7420736574746936
:1001D0006E67732C2076657273696F6E3A007B00D0
:1001E000000000006410B71DC8206E3BAC30D9265B
:1001F0009041DC76F4516B6B5861B24D3C71055007
:100200002083B8ED44930FF0E8A3D6D68CB361CB2E
:10021000B0C2649BD4D2D38678E20AA01CF2BDBDE2
:100220002276616C7565223A20220022736574740F
:10023000696E67223A2022007B22726573756C74A6
:10024000223A20226368616E676522007B22726514
:1002500073756C74223A20226E6F206368616E673A
:1002600065227D007B22726573756C74223A2022B0
:1002700073746F70706564227D007B227265737584
:100280006C74223A20226D6F76656D656E74206104
:100290006C6C6F776564227D007B22726573756C70
:1002A00074223A20227361766564227D0052435F96
:1002B00053504545445F50494E0052435F54555298
:1002C0004E5F50494E005553455F524300535445CD
:1002D0004552494E475F4F46465F5357495443483E
:1002E0005F50494E005354454552494E475F4F4673
:1002F000465F535749544348002276616C75652226
:100300003A5B002273657474696E67223A2022009A
:100310007B22726573756C74223A20226368616E69
:10032000676522004E554D5F44524956455F425520
:1003300054544F4E5300425554544F4E5F4D4F440A
:10034000455F50494E005553455F425554544F4EFA
:100350005F4D4F44455F50494E00454E41424C452C
:100360005F425554544F4E5F4354524C004A4F59CC
:100370005F43414C49425F434F554E5400535441F3
:1003800052545F4D4F544F525F50554C53455F543C
:10039000494D450052494748545F4D4F544F525FB5
:1003A00050554C5345004C4546545F4D4F544F52A9
:1003B0005F50554C534500454E41424C455F5354A8
:1003C00041525455505F50554C534500524947488F
:1003D000545F4D4F544F525F434F4E54524F4C4C0D
:1003E00045525F50494E004C4546545F4D4F544F67
:1003F000525F434F4E54524F4C4C45525F50494E02
:10040000004A4F595F595F50494E004A4F595F5853
:100410005F50494E0053504545445F4B4E4F425F3D
:1004200050494E005343414C455F414343454C5F67
:10043000574954485F53504545440053504545443F
:100440005F4B4E4F425F464153545F56414C005301
:10045000504545445F4B4E4F425F534C4F575F569C
:10046000414C005553455F53504545445F4B4E4FFB
:10047000420052494748545F4D4F544F525F4641E6
:1004800053540052494748545F4D4F544F525F53A5
:100490004C4F570052494748545F4D4F544F525F9D
:1004A00043454E544552004C4546545F4D4F544FC2
:1004B000525F46415354004C4546545F4D4F544F94
:1004C000525F534C4F57004C4546545F4D4F544F6D
:1004D000525F43454E54455200524556455253458E
:1004E0005F5455524E5F494E5F52455645525345F3
:1004F000005343414C455F5455524E494E475F5758
:1005000048454E5F4D4F56494E47005455524E5F39
:10051000535045454400464153544553545F42416E
:10052000434B5741524400464153544553545F4650
:100530004F525741524400444543454C4552415463
:10054000494F4E5F5455524E494E47004143434533
:100550004C45524154494F4E5F5455524E494E47B7
:1005600000444543454C45524154494F4E5F42413A
:10057000434B5741524400414343454C455241543B
:10058000494F4E5F4241434B57415244004445431B
:10059000454C45524154494F4E5F464F5257415288
:1005A0004400414343454C45524154494F4E5F46F8
:1005B0004F525741524400595F444541445A4F4EAF
:1005C0004500434F4E54524F4C5F444F574E0043EB
:1005D0004F4E54524F4C5F43454E5445525F590065
:1005E000434F4E54524F4C5F555000585F44454165
:1005F000445A4F4E4500434F4E54524F4C5F4C456A
:10060000465400434F4E54524F4C5F43454E544561
:10061000525F5800434F4E54524F4C5F5249474827
:1006200054007B226572726F72223A2022656570D7
:10063000726F6D206661696C757265227D007B2228
:100640006572726F72223A2022656570726F6D203A
:100650006661696C757265227D00222C43484543B2
:100660004B53554D223A0022625F6D5F70223A0073
:10067000627574746F6E73006A6F794F4B006D6FA3
:1006800076656D656E74416C6C6F77656400737030
:100690006565644B6E6F6256616C00726967687461
:1006A0004D6F746F72577269746556616C006C653A
:1006B00066744D6F746F72577269746556616C0021
:1006C0007370656564546F44726976650074757201
:1006D0006E546F447269766500737065656450721C
:1006E0006F636573736564007475726E50726F63C7
:1006F0006573736564007370656564496E707574C5
:10070000007475726E496E707574006A6F7959560F
:10071000616C006A6F795856616C0063757272651E
:100720006E742076616C7565732C206D696C6C69D4
:10073000733A0000000000240027002A0000000097
:1007400000250028002B00000000002300260029BF
:10075000000404040404040404020202020202036A
:100760000303030303010204081020408001020474
:1007700008102001020408102000000008000201F7
:1007800000000304070000000000000000006B20D0
:1007900011241FBECFEFD8E0DEBFCDBF12E0A0E036
:1007A000B1E0E8EDF5E702C005900D92A834B1077D
:1007B000D9F723E0A8E4B2E001C01D92A13DB20741
:1007C000E1F713E0C8ECD3E004C02197FE010E94DA
:1007D0001638C73CD107C9F70E94E2200C94EA3AC8
:1007E0000C940000833081F028F4813099F082303D
:1007F000A9F008958730A9F08830C9F08430B1F4A9
:10080000809180008F7D03C0809180008F778093DE
:100810008000089584B58F7784BD089584B58F7D59
:10082000FBCF8091B0008F778093B00008958091C6
:10083000B0008F7DF9CFCF93DF93282F30E0F901FF
:10084000E758F84F8491F901EB59F84FD491F90129
:10085000EF5AF84FC491CC23A1F081110E94F2030A
:10086000EC2FF0E0EE0FFF1FE95BF84FA591B4917C
:10087000EC91ED2381E090E009F480E0DF91CF91ED
:10088000089580E090E0FACF1F93CF93DF93282F55
:1008900030E0F901E758F84F8491F901EB59F84F2E
:1008A000D491F901EF5AF84FC491CC23A9F0162F37
:1008B00081110E94F203EC2FF0E0EE0FFF1FE35CCA
:1008C000F84FA591B4918FB7F894EC91111108C02D
:1008D000D095DE23DC938FBFDF91CF911F910895D8
:1008E000DE2BF8CFCF93DF9390E0FC01EB59F84F6C
:1008F00024918F5A984FFC0184918823C9F090E08D
:10090000880F991FFC01ED5CF84FA591B491FC0193
:10091000E35CF84FC591D49161110DC09FB7F89475
:100920008C91209582238C938881282328839FBFD4
:10093000DF91CF910895623051F49FB7F8943C91C4
:10094000822F809583238C93E8812E2BEFCF8FB756
:10095000F894EC912E2B2C938FBFEACF8E3008F0B9
:100960008E508770806480937C0080917A008064D0
:1009700080937A0080917A0086FDFCCF8091780088
:100980009091790008953FB7F89480910103909178
:100990000203A0910303B091040326B5A89B05C0F0
:1009A0002F3F19F00196A11DB11D3FBFBA2FA92FEE
:1009B000982F8827BC01CD01620F711D811D911DEB
:1009C00042E0660F771F881F991F4A95D1F7089557
:1009D0008F929F92AF92BF92CF92DF92EF92FF924F
:1009E0006B017C010E94C3044B015C01C114D10462
:1009F000E104F104B9F00E94C304681979098A0975
:100A00009B09683E73408105910580F321E0C21A7D
:100A1000D108E108F10888EE880E83E0981EA11C39
:100A2000B11CE4CFFF90EF90DF90CF90BF90AF90DC
:100A30009F908F900895AF92BF92CF92DF92EF92E6
:100A4000FF920F931F93CF93DF936C017B018B0178
:100A5000040F151FEB015E01AE18BF08C017D107C8
:100A600059F06991D601ED91FC910190F081E02D52
:100A7000C6010995892B79F7C501DF91CF911F91A7
:100A80000F91FF90EF90DF90CF90BF90AF900895BF
:100A9000FC01538D448D252F30E0842F90E0821B84
:100AA000930B541710F0CF96089501970895FC0109
:100AB000918D828D981761F0A28DAE0FBF2FB11D61
:100AC0005D968C91928D9F5F9F73928F90E00895B9
:100AD0008FEF9FEF0895FC01918D828D981731F073
:100AE000828DE80FF11D858D90E008958FEF9FEFC7
:100AF0000895FC01918D228D892F90E0805C9F4F9D
:100B0000821B91098F739927089585E093E00E94D5
:100B1000790521E0892B09F420E0822F089580E0F7
:100B200090E0892B29F00E94850581110C9400002A
:100B30000895FC01A48DA80FB92FB11DA35ABF4F72
:100B40002C91848D90E001968F739927848FA689CC
:100B5000B7892C93A089B1898C91837080648C9320
:100B6000938D848D981306C00288F389E02D8081CF
:100B70008F7D80830895EF92FF920F931F93CF9301
:100B8000DF93EC0181E0888F9B8D8C8D98131AC0C8
:100B9000E889F989808185FF15C09FB7F894EE89AF
:100BA000FF896083E889F98980818370806480830C
:100BB0009FBF81E090E0DF91CF911F910F91FF9057
:100BC000EF900895F62E0B8D10E00F5F1F4F0F73FF
:100BD0001127E02E8C8D8E110CC00FB607FCFACFBA
:100BE000E889F989808185FFF5CFCE010E949905BA
:100BF000F1CFEB8DEC0FFD2FF11DE35AFF4FF0828B
:100C00009FB7F8940B8FEA89FB8980818062CFCFF0
:100C10000F931F93CF93DF938C01D0E0C0E0F801D6
:100C2000EC0FFD1F6491662341F085E093E00E9484
:100C3000BB05892B11F02196F2CFCE01DF91CF9128
:100C40001F910F910895CF93DF93EC01888D882336
:100C5000B9F0AA89BB89E889F9898C9185FD03C01F
:100C6000808186FD0DC00FB607FCF7CF8C9185FF04
:100C7000F2CF808185FFEDCFCE010E949905E9CFAB
:100C8000DF91CF9108958130F1F0B0F08230E9F03A
:100C9000E82FF0E0E559FF4F9081692B6083909138
:100CA000680021E030E001C0220F8A95EAF7892F21
:100CB000822B80936800089593B1E42FF0E0E25A0C
:100CC000FD4F9083E5CF96B1F8CF99B1F6CF089557
:100CD000DC01EC91EC3090F511968C91119728E89D
:100CE00030E0281B310987FD3395220F331F220F77
:100CF000331F6217730784F012968C9128E532E057
:100D0000281B310987FD3395220F331F220F331F14
:100D1000621773070CF49B0122503109220F331F15
:100D20004FB7F8948E2F90E0FC01EE0FFF1FE80FF5
:100D3000F91FEE55FC4F328321834FBF08951F9357
:100D4000CF93DF93EC01162F88818C3008F04EC0D2
:100D500061E0812F0E9472048881282F30E0F90120
:100D6000EE0FFF1FE20FF31FEE55FC4F1F73608164
:100D7000607C612B608319821A822CE0622F0E94B2
:100D80000A38829FB001112430E020E0AB01420F0D
:100D9000531FFA01EE0FFF1FE40FF51FEE55FC4F36
:100DA000908196FD16C02F5F3F4F2C30310571F7B3
:100DB00081110FC01092800082E080938100109218
:100DC000850010928400B19A80916F0082608093B8
:100DD0006F00E8818E2F90E0FC01EE0FFF1FE80FFF
:100DE000F91FEE55FC4F8081806480838881DF91FC
:100DF000CF911F9108950F931F93E42FE627EF7073
:100E000024E0E29FF0011124E052FE4F059115917C
:100E10002591349154E096958795779567955A95E5
:100E2000D1F76027712782279327E42FE295EF708F
:100E3000E627EF7024E0E29FF0011124E052FE4F1C
:100E40000591159125913491E4E0969587957795D4
:100E50006795EA95D1F760277127822793271F911D
:100E60000F9108950E9408062091BE023091BF02A2
:100E7000820F931F9093BF028093BE0208952F921A
:100E80003F924F925F926F927F928F929F92AF921A
:100E9000BF92CF92DF92EF92FF920F931F93CF9367
:100EA000DF93EC016A01790117FF02C010E000E056
:100EB0006E157F050CF019C11601201A310AC215F2
:100EC000D3050CF093C0621573050CF08FC0072E8C
:100ED000000C880B990B0E9442354B015C01BE014E
:100EE0000D2E000C880B990B0E944235A501940130
:100EF0000E94EB362B013C01B101330C880B990B9E
:100F00000E944235A50194010E94EB369B01AC0181
:100F1000C301B2010E94583720E030E040E85FE3AF
:100F20000E94EB364B015C010C0D1D1D0C171D07BB
:100F30009CF50E151F0584F5B701FF0C880B990B66
:100F40000E9442356B017C01BE01DD0F880B990BBD
:100F50000E944235A70196010E94EB364B015C01CD
:100F6000B7FAB094B7F8B094B801110F880B990B89
:100F70000E944235A70196010E94EB369B01AC010D
:100F8000C501B4010E94583720E030E040E85FE33B
:100F90000E94EC364B015C0120E030E040E85FEB62
:100FA000C501B4010E943B3587FD91C020E030E0CF
:100FB00040E85FE3C501B4010E94003818160CF444
:100FC0008DC0C501B401DF91CF911F910F91FF90AA
:100FD000EF90DF90CF90BF90AF909F908F907F90D9
:100FE0006F905F904F903F902F900895812C912C9F
:100FF00054019ACF18012C0C3D1C2C163D060CF008
:1010000062C0261637060CF05EC0072E000C880B57
:10101000990B0E9442354B015C01BE010D2E000C64
:10102000880B990B0E944235A50194010E94EB3672
:101030002B013C01B101330C880B990B0E94423506
:10104000A50194010E94EB369B01AC01C301B201E2
:101050000E94583720E030E040E85FE30E94EB3622
:101060004B015C01C01AD10ACC15DD050CF094CF00
:10107000EC14FD040CF090CFB701FF0C880B990B1A
:101080000E9442354B015C01BE01DD0F880B990BBC
:101090000E944235A50194010E94EB362B013C01D0
:1010A00077FA709477F87094B601DD0C880B990B81
:1010B0000E944235A50194010E94EB369B01AC01D0
:1010C000C301B2015FCF812C912C5401CBCF812C75
:1010D000912C90E8A92E9FEBB92E73CF812C912CE7
:1010E00080E8A82E8FE3B82E6CCFE616F7060CF436
:1010F00081CF812C912C540164CF62E08091290131
:101100000E94720462E0809128010E947204909112
:101110002801963108F06FC080E1983058F081E0E6
:101120009E3008F480E0880F880F880F9E3008F00A
:1011300060C09850980F892F86958695869509F0FE
:101140008AC091115AC02FED3AE0309301012093EB
:101150000001977061E070E001C0660F9A95EAF7B0
:10116000E82FF0E0DF01A55ABD4F9C91962B9C9390
:10117000E85AFD4F9081962B9083482F0E9443069A
:1011800090912901963108F0EDC080E1983058F037
:1011900081E09E3008F480E0880F880F880F9E3031
:1011A00008F0DEC09850980F892F86958695869511
:1011B00009F008C19111D8C022EE3AE03093010144
:1011C00020930001977061E070E001C0660F9A956E
:1011D000EAF7E82FF0E0DF01A55ABD4F9C91962B6E
:1011E0009C93E85AFD4F9081962B9083482F0C9446
:1011F00043069E509FCF9FEF9ECF913039F42FED45
:101200003AE03093030120930201A3CF923039F4E6
:101210002FED3AE030930501209304019ACF9330EB
:1012200039F42FED3AE0309307012093060191CF76
:10123000943039F42FED3AE03093090120930801FE
:1012400088CF953009F085CF2FED3AE030930B0130
:1012500020930A017ECF8130B9F5983039F42FED13
:101260003AE030930D0120930C0173CF993039F49B
:101270002FED3AE030930F0120930E016ACF9A30A0
:1012800039F42FED3AE0309311012093100161CF32
:101290009B3039F42FED3AE0309313012093120183
:1012A00058CF9C3039F42FED3AE03093150120935C
:1012B00014014FCF9D3009F04CCF2FED3AE0309321
:1012C00017012093160145CF823009F059CF903194
:1012D00039F42FED3AE0309321012093200139CFEA
:1012E000913139F42FED3AE030932301209322011C
:1012F00030CF923139F42FED3AE03093250120932D
:10130000240127CF933139F42FED3AE030932701B0
:10131000209326011ECF943139F42FED3AE030931B
:1013200019012093180115CF953139F42FED3AE0CA
:1013300030931B0120931A010CCF963139F42FED15
:101340003AE030931D0120931C0103CF973109F03F
:1013500000CF2FED3AE030931F0120931E01F9CE0C
:101360009E5021CF9FEF20CF913039F422EE3AE00A
:10137000309303012093020125CF923039F422EEFD
:101380003AE030930501209304011CCF933039F4E7
:1013900022EE3AE0309307012093060113CF9430F8
:1013A00039F422EE3AE030930901209308010ACF84
:1013B000953009F007CF22EE3AE030930B012093ED
:1013C0000A0100CF8130B9F5983039F422EE3AE0C5
:1013D00030930D0120930C01F5CE993039F422EEB3
:1013E0003AE030930F0120930E01ECCE9A3039F49D
:1013F00022EE3AE03093110120931001E3CE9B30AE
:1014000039F422EE3AE03093130120931201DACE40
:101410009C3039F422EE3AE0309315012093140108
:10142000D1CE9D3009F0CECE22EE3AE030931701B6
:1014300020931601C7CE823009F049C0903139F4AB
:1014400022EE3AE03093210120932001BBCE91316E
:1014500039F422EE3AE03093230120932201B2CEF8
:10146000923139F422EE3AE03093250120932401A1
:10147000A9CE933139F422EE3AE03093270120933C
:101480002601A0CE943139F422EE3AE030931901CE
:101490002093180197CE953139F422EE3AE030933B
:1014A0001B0120931A018ECE963139F422EE3AE0D8
:1014B00030931D0120931C0185CE973109F082CE17
:1014C00022EE3AE030931F0120931E017BCE089557
:1014D000CF92DF92EF92FF92CF93DF93C82FD0E0AD
:1014E000FE01E85DFE4F80810E941B04CC0FDD1FD2
:1014F000CC0FDD1F019779F40E94C304CA54DD4F5D
:10150000688379838A839B83DF91CF91FF90EF90EB
:10151000DF90CF9008950E94C304FE01EA54FD4F6E
:10152000C080D180E280F3806C197D098E099F090B
:1015300060347C4981059105D8F50E94C3046C197B
:101540007D098E099F096C5D7540810991090E9492
:10155000403520E030E04AEF53E40E9458376B01F9
:101560007C0120E030E040E85FEB0E943B3587FDE6
:1015700011C020E030E040E85FE3C701B6010E94FF
:101580000038181674F0C255DD4FC882D982EA823D
:10159000FB82BACFC12CD12C90E8E92E9FEBF92E1B
:1015A000F2CFC12CD12C80E8E82E8FE3F82EEBCFC0
:1015B000C255DD4F188219821A821B82A5CF80E0A6
:1015C0000C94680A81E00C94680AFC0101900020E8
:1015D000E9F73197AF01481B590BBC0185E093E057
:1015E0000C941B05009711F00C94E50A90E080E044
:1015F00008950F931F93CF93DF938C01EB0180919C
:10160000BE029091BF0205969093BF028093BE02E6
:1016100082E492E00E94F20AC8010E94080620912A
:10162000BE023091BF02820F931F9093BF0280933E
:10163000BE028CEC91E00E94F20A90E080E02097DC
:1016400019F0CE010E94E50A2091BE023091BF023E
:10165000820F931F9093BF028093BE0280E392E0BB
:10166000DF91CF911F910F910C94F20A8F929F926C
:10167000AF92BF920F931F93CF93DF93CDB7DEB797
:10168000A1970FB6F894DEBF0FBECDBF19A24230AE
:1016900008F44AE08E010F5D1F4F842E912CB12C6F
:1016A000A12CA50194010E94BA36E62FB901CA0106
:1016B000EA30F4F4E05DD801EE938D01232B242B66
:1016C000252B79F790E080E0109719F0CD010E946A
:1016D000E50AA1960FB6F894DEBF0FBECDBFDF912D
:1016E000CF911F910F91BF90AF909F908F900895D1
:1016F000E95CE1CFCF93DF930E94E50AEC018FEC28
:1017000091E00E94E50A8C0F9D1FDF91CF91089513
:10171000CF93DF930E940806EC018FEC91E00E94CA
:10172000E50A8C0F9D1FDF91CF910895CF92DF9234
:10173000EF92FF92CF93DF9397FF1BC06B017C0169
:101740006DE285E093E00E94BB05EC0166277727F8
:10175000CB016C197D098E099F094AE00E94360B66
:101760008C0F9D1FDF91CF91FF90EF90DF90CF9076
:1017700008954AE0DF91CF91FF90EF90DF90CF90F6
:101780000C94360B0F931F93CF93DF938C01EB01D7
:101790008091BE029091BF0205969093BF02809304
:1017A000BE0282E492E00E94F20AC8010E9408068A
:1017B0002091BE023091BF02820F931F9093BF020F
:1017C0008093BE028CEC91E00E94F20ABE01DD0F14
:1017D000880B990B0E94960B2091BE023091BF029C
:1017E000820F931F9093BF028093BE0280E392E02A
:1017F000DF91CF911F910F910C94F20A4F925F925B
:101800006F927F928F929F92AF92BF92CF92DF9210
:10181000EF92FF920F931F93CF936B017C01742E75
:10182000AC019B010E940538882399F082ED91E07C
:10183000CF911F910F91FF90EF90DF90CF90BF90CD
:10184000AF909F908F907F906F905F904F900C948F
:10185000E50A46015701E894B7F82FEF3FEF4FE74D
:101860005FE7C501B4010E94053881110DC02FEF5B
:101870003FEF4FE75FE7C501B4010E943B35181603
:101880001CF486ED91E0D4CF2FEF3FEF4FE75FE4FC
:10189000C701B6010E94003818161CF48AED91E0C9
:1018A000C7CF2FEF3FEF4FE75FECC701B6010E94B4
:1018B0003B3587FDF3CF20E030E0A901C701B60139
:1018C0000E943B3510E000E087FF0AC06DE285E032
:1018D00093E00E94BB058C01F7FAF094F7F8F094BE
:1018E000C0E060E070E080E09FE37C1641F020E023
:1018F00030E040E251E40E945837CF5FF6CFA701B5
:1019000096010E94EC362B013C010E94D1374B011D
:101910005C014AE00E94360B7C01E00EF11ECC23F4
:10192000C1F1C501B4010E9440359B01AC01C30166
:10193000B2010E94EB364B015C016EE285E093E060
:101940000E94BB05E80EF91EC15018F120E030E0FE
:1019500040E251E4C501B4010E94A1352B013C01D4
:101960000E94D1374B01B12CA12C4AE0C501B40132
:101970000E94360BE80EF91EC501B4010E944035E5
:101980009B01AC01C301B2010E94EB364B015C012B
:10199000DBCFC701CF911F910F91FF90EF90DF90A8
:1019A000CF90BF90AF909F908F907F906F905F90FF
:1019B0004F900895CF92DF92EF92FF92CF93DF93F3
:1019C000EC016A017B018091BE029091BF020596F5
:1019D0009093BF028093BE0282E492E00E94F20ADA
:1019E000CE010E9408062091BE023091BF02820FF4
:1019F000931F9093BF028093BE028CEC91E00E94F3
:101A0000F20A42E0C701B6010E94FE0B2091BE021D
:101A10003091BF02820F931F9093BF028093BE024A
:101A200080E392E0DF91CF91FF90EF90DF90CF9035
:101A30000C94F20A0F931F93CF938C01C62F8091C1
:101A4000BE029091BF0205969093BF028093BE02A2
:101A500082E492E00E94F20AC8010E9408062091E6
:101A6000BE023091BF02820F931F9093BF028093FA
:101A7000BE028CEC91E00E94F20A6C2F70E090E0C4
:101A800080E04AE00E94360B2091BE023091BF02F6
:101A9000820F931F9093BF028093BE0280E392E077
:101AA000CF911F910F910C94F20ACF92DF92EF9297
:101AB000FF92CF93DF9382E090E09093BF028093F8
:101AC000BE028EED91E00E94080660E170E083ECBA
:101AD00091E00E94C20B6091B3017091B40184E166
:101AE00096E00E94C20B6091B1017091B20183E057
:101AF00096E00E94C20B6091AF017091B00186EF39
:101B000095E00E94C20B6091B5017091B6018BEE19
:101B100095E00E94C20B6091AB017091AC0180EE28
:101B200095E00E94C20B6091A9017091AA018FEC0F
:101B300095E00E94C20B6091A7017091A80182EC10
:101B400095E00E94C20B6091AD017091AE0187EBF0
:101B500095E00E94C20B40914B0150914C01609165
:101B60004D0170914E0182EA95E00E94DA0C40919D
:101B70004F015091500160915101709152018DE8D7
:101B800095E00E94DA0C409153015091540160910C
:101B900055017091560187E795E00E94DA0C40915B
:101BA0005701509158016091590170915A0181E695
:101BB00095E00E94DA0C40914201509143016091FE
:101BC0004401709145018CE495E00E94DA0C40914B
:101BD000460150914701609148017091490187E3A6
:101BE00095E00E94DA0C40915F0150916001609194
:101BF00061017091620187E295E00E94DA0C4091E8
:101C0000630150916401609165017091660186E104
:101C100095E00E94DA0C4091670150916801609153
:101C2000690170916A018BE095E00E94DA0C4091A5
:101C30005B0150915C0160915D0170915E0181EFEB
:101C400094E00E94DA0C8091D60263EE71E0882362
:101C500011F06EED71E089ED94E00E94F90A609157
:101C600036017091370187EC94E00E94C20B6091BD
:101C700038017091390187EB94E00E94C20B6091AA
:101C80003A0170913B0187EA94E00E94C20B609197
:101C90003C0170913D0184E994E00E94C20B609187
:101CA0003E0170913F0183E894E00E94C20B609175
:101CB00040017091410182E794E00E94C20B809143
:101CC000DF0263EE71E0882311F06EED71E083E6D0
:101CD00094E00E94F90A60916C0170916D018FE4AB
:101CE00094E00E94C20B6091DD027091DE028BE3F2
:101CF00094E00E94C20B80914A0163EE71E0882358
:101D000011F06EED71E084E294E00E94F90A6091B6
:101D10006B0185E194E00E941A0D6091B8018BE09F
:101D200094E00E941A0D6091B70181E094E00E9456
:101D30001A0D60912C0187EE93E00E941A0D6091BC
:101D40002B018CEC93E00E941A0D80912D0163EE23
:101D500071E0882311F06EED71E087EB93E00E9453
:101D6000F90A609132017091330186EA93E00E9492
:101D7000C20B609130017091310184E993E00E94BF
:101D8000C20B60912E0170912F018DE793E00E94AC
:101D9000C20B60913401709135018DE693E00E9491
:101DA000C20B8091EB0263EE71E0882311F06EEDBF
:101DB00071E08AE593E00E94F90A8091EA0263EEFD
:101DC00071E0882311F06EED71E086E493E00E94EB
:101DD000F90A6091A50186E393E00E941A0D6091D3
:101DE000A60184E293E00E941A0DCFE6D1E0C12C57
:101DF000D12C7601C39484EB91E00E943207C70195
:101E0000B6010E94960B2091BE023091BF02820F54
:101E1000931F9093BF028093BE0280EB91E00E94DB
:101E20003207688170E090E080E04AE00E94360B63
:101E30002091BE023091BF02820F931F9093BF0288
:101E40008093BE028EEA91E00E94320769817A8116
:101E50008B819C8144E00E94FE0B2091BE02309158
:101E6000BF02820F931F9093BF028093BE028CEA41
:101E700091E00E9432076D817E818F81988544E0D8
:101E80000E94FE0B2091BE023091BF02820F931F71
:101E90009093BF028093BE0289EA91E00E943207CC
:101EA0008FEFC81AD80AE80AF80A299687E0C816F8
:101EB000D104E104F10409F09ECF8091E00263EEC9
:101EC00071E0882311F06EED71E085EE92E00E94E2
:101ED000F90A60916E018DEC92E00E941A0D8091DA
:101EE0002A0163EE71E0882311F06EED71E086EC5B
:101EF00092E00E94F90A609128018DEA92E00E9426
:101F00001A0D609129018AEB92E00E941A0D8DE969
:101F100091E00E9432076091BE027091BF026C5F37
:101F20007F4F072E000C880B990B0E94960B84E3C1
:101F300092E0DF91CF91FF90EF90DF90CF900C94E3
:101F40007A0B0C946A36CF92DF92EF92FF920F9346
:101F50001F93CF93DF93EC018B01C0906102D0906F
:101F60006202E0906302F0906402FB01608188816C
:101F700099810E94A10F88819981F801608188531D
:101F80009F4F0E94A10F88819981F801608180573D
:101F90009E4F0E94A10FF8014081C701B6010E9427
:101FA000FB06288139812F5F3F4F39832883609357
:101FB0006102709362028093630290936402DF91E6
:101FC000CF911F910F91FF90EF90DF90CF900895E8
:101FD000AF92BF92CF92DF92EF92FF920F931F9337
:101FE000CF93DF938C01EB01C0906102D09062022D
:101FF000E0906302F09064025B0184E0A80EB11CE3
:102000006881F801808191810E94A10FF80180818F
:102010009181688188539F4F0E94A10FF8018081B0
:102020009181688180579E4F0E94A10F4991C701FD
:10203000B6010E94FB066B017C01F8018081918151
:10204000019691838083AC16BD06D1F6C0926102E1
:10205000D0926202E0926302F0926402DF91CF912B
:102060001F910F91FF90EF90DF90CF90BF90AF90B6
:102070000895AF92BF92CF92DF92EF92FF920F93AB
:102080001F93CF93DF938C01EB01C0906102D0903E
:102090006202E0906302F09064025B0182E0A80EAD
:1020A000B11C6881F801808191810E94A10FF80123
:1020B00080819181688188539F4F0E94A10FF80110
:1020C00080819181688180579E4F0E94A10F499124
:1020D000C701B6010E94FB066B017C01F8018081FB
:1020E0009181019691838083AC16BD06D1F6C09292
:1020F0006102D0926202E0926302F0926402DF9188
:10210000CF911F910F91FF90EF90DF90CF90BF90F4
:10211000AF900895CF92DF92EF92FF920F931F93AB
:10212000CF93DF93EC018B01C0906102D0906202EB
:10213000E0906302F0906402FB01608188819981E4
:102140000E94A10F88819981F801608188539F4F77
:102150000E94A10F88819981F801608180579E4F6C
:102160000E94A10FF8014081C701B6010E94FB0641
:10217000288139812F5F3F4F398328836093610223
:10218000709362028093630290936402DF91CF9117
:102190001F910F91FF90EF90DF90CF900895CF9215
:1021A000DF92EF92FF920F931F93CF93DF9300D0B4
:1021B000CDB7DEB781E090E09A8389831092610207
:1021C00010926202109263021092640263EB71E05B
:1021D000CE0101960E94391061EB71E0CE010196AB
:1021E0000E9439106FEA71E0CE0101960E94391009
:1021F00065EB71E0CE0101960E9439106BEA71E047
:10220000CE0101960E94391069EA71E0CE01019673
:102210000E94391067EA71E0CE0101960E943910E0
:102220006DEA71E0CE0101960E9439106BE471E015
:10223000CE0101960E94E80F6FE471E0CE01019695
:102240000E94E80F63E571E0CE0101960E94E80F5D
:1022500067E571E0CE0101960E94E80F62E471E04B
:10226000CE0101960E94E80F66E471E0CE0101966E
:102270000E94E80F6FE571E0CE0101960E94E80F21
:1022800063E671E0CE0101960E94E80F67E671E017
:10229000CE0101960E94E80F6BE571E0CE01019638
:1022A0000E94E80F6AE471E0CE0101960E94A30F3C
:1022B00066ED72E0CE0101960E94A30F66E371E025
:1022C000CE0101960E94391068E371E0CE010196BB
:1022D0000E9439106AE371E0CE0101960E94391024
:1022E0006CE371E0CE0101960E9439106EE371E05B
:1022F000CE0101960E94391060E471E0CE01019692
:102300000E9439106FED72E0CE0101960E94A30F7A
:102310006CE671E0CE0101960E9439106DED72E01D
:10232000CE0101960E94391068EB71E0CE01019652
:102330000E948A1067EB71E0CE0101960E948A101C
:102340006CE271E0CE0101960E948A106BE271E0AE
:10235000CE0101960E948A106BE671E0CE010196D3
:102360000E948A1062E371E0CE0101960E9439104A
:1023700060E371E0CE0101960E9439106EE271E0D7
:10238000CE0101960E9439106DE271E0CE010196F6
:102390000E94A30F64E371E0CE0101960E94391000
:1023A00065EA71E0CE0101960E948A106BEE72E040
:1023B000CE0101960E94A30F6AEE72E0CE01019653
:1023C0000E94A30F66EA71E0CE0101960E948A1076
:1023D000C0906102D0906202E0906302F0906402CB
:1023E0000FE611E0F801608189819A810E94A10FB6
:1023F00089819A81F801608188539F4F0E94A10FC3
:1024000089819A81F801608180579E4F0E94A10FB7
:10241000F80141918F01C701B6010E94FB066B01D3
:102420007C0189819A8101969A838983F1E0053A3A
:102430001F07C1F6C0926102D0926202E09263026D
:10244000F092640260EE72E0CE0101960E94A30F4A
:102450006EE671E0CE0101960E948A106AE271E098
:10246000CE0101960E94A30F68E271E0CE010196B1
:102470000E948A1069E271E0CE0101960E948A10E2
:10248000C0906102D0906202E0906302F09064021A
:1024900001E612E0F801608189819A810E94A10F12
:1024A00089819A81F801608188539F4F0E94A10F12
:1024B00089819A81F801608180579E4F0E94A10F07
:1024C000F80141918F01C701B6010E94FB066B0123
:1024D0007C0189819A8101969A838983F2E005368D
:1024E0001F07C1F6C0926102D0926202E0926302BD
:1024F000F09264020F900F90DF91CF911F910F9196
:10250000FF90EF90DF90CF900895AF92BF92CF925F
:10251000DF92EF92FF920F931F93CF93DF9300D040
:1025200000D0CDB7DEB7E091A102F0E0EB59FD4F4E
:10253000108269EE71E085E692E00E945F317C01D5
:1025400069EE71E090E080E00E945F318C0168E408
:10255000C62E62E0D62E8FE0F60111928A95E9F739
:1025600064E176E0C7010E945631892BA9F5C801C4
:102570000E9438318093B3019093B4019F938F935D
:102580008CEE91E09F938F93DF92CF920E94493817
:102590000F900F900F900F900F900F9088E392E0A4
:1025A0000E94080680E392E00E94F20A8BE292E029
:1025B0000E940806C7010E94F20A8FE292E00E9480
:1025C000F20A80E292E00E94080688E492E00E940B
:1025D000F20A83E392E0E1C563E076E0C7010E947E
:1025E0005631892B41F4C8010E9438318093B101E2
:1025F0009093B201C3CF66EF75E0C7010E945631D8
:10260000892B41F4C8010E9438318093AF01909327
:10261000B001B4CF6BEE75E0C7010E945631892B33
:10262000B9F4C8010E94383197FF03C09195819594
:1026300091098093B5019093B6019F938F938CEE8F
:1026400091E09F938F9388E492E09F938F939ECF26
:1026500060EE75E0C7010E945631892B41F4C80134
:102660000E9438318093AB019093AC0187CF6FEC1F
:1026700075E0C7010E945631892B41F4C8010E94C0
:1026800038318093A9019093AA0178CF62EC75E06C
:10269000C7010E945631892B41F4C8010E9438318C
:1026A0008093A7019093A80169CF67EB75E0C701FC
:1026B0000E945631892B69F4C8010E94383197FF76
:1026C00003C09195819591098093AD019093AE01DE
:1026D000B4CF62EA75E0C7010E945631892B09F533
:1026E000C8010E94343120E030E0A9010E94003886
:1026F000181694F4C8010E94343160934B01709312
:102700004C0180934D0190934E0108E412E024E0C7
:1027100040E00E94163142CFC8010E9434319058E7
:10272000ECCF6DE875E0C7010E945631892BD9F4D2
:10273000C8010E94343120E030E0A9010E94003835
:10274000181664F4C8010E94343160934F017093ED
:1027500050018093510190935201D7CFC8010E943C
:1027600034319058F2CF67E775E0C7010E945631C7
:10277000892BD9F4C8010E94343120E030E0A9014E
:102780000E940038181664F4C8010E943431609326
:102790005301709354018093550190935601B5CF26
:1027A000C8010E9434319058F2CF61E675E0C7014C
:1027B0000E945631892BD9F4C8010E94343120E09F
:1027C00030E0A9010E940038181664F4C8010E9484
:1027D000343160935701709358018093590190935D
:1027E0005A0193CFC8010E9434319058F2CF6CE463
:1027F00075E0C7010E945631892BD9F4C8010E94A7
:10280000343120E030E0A9010E940038181664F449
:10281000C8010E9434316093420170934301809358
:1028200044019093450171CFC8010E943431905802
:10283000F2CF67E375E0C7010E945631892BD9F4C6
:10284000C8010E94343120E030E0A9010E94003824
:10285000181664F4C8010E943431609346017093E5
:10286000470180934801909349014FCFC8010E94CE
:1028700034319058F2CF67E275E0C7010E945631BB
:10288000892B09F062C0C8010E94343120E030E099
:10289000A9010E940038181674F4C8010E9434314E
:1028A00020E030E0A9010E943B3587FF0EC060E0C8
:1028B00070E0CB012CC0C8010E94343120E030E030
:1028C000A9010E940038181694F3C8010E943431FF
:1028D00020E030E0A9010E94003818160CF5C8016C
:1028E0000E94343120E030E040E85FE30E9400388D
:1028F00018160CF1C8010E94343120E030E0A90123
:102900000E9400381816E4F4C8010E943431609324
:102910005F01709360018093610190936201F5CE35
:10292000C8010E94343120E030E040E85FEB0E94B3
:102930003B3587FFDFCF60E070E080E89FE3E7CFC3
:10294000C8010E9434319058E2CF66E175E0C701BA
:102950000E945631892B09F062C0C8010E943431AF
:1029600020E030E0A9010E940038181674F4C80174
:102970000E94343120E030E0A9010E943B3587FFFE
:102980000EC060E070E0CB012CC0C8010E94343161
:1029900020E030E0A9010E940038181694F3C80125
:1029A0000E94343120E030E0A9010E94003818165E
:1029B0000CF5C8010E94343120E030E040E85FE3CC
:1029C0000E94003818160CF1C8010E94343120E032
:1029D00030E0A9010E9400381816E4F4C8010E94F2
:1029E0003431609363017093640180936501909327
:1029F00066018BCEC8010E94343120E030E040E80F
:102A00005FEB0E943B3587FFDFCF60E070E080E83E
:102A10009FE3E7CFC8010E9434319058E2CF6BE0CA
:102A200075E0C7010E945631892B09F062C0C801C8
:102A30000E94343120E030E0A9010E9400381816CD
:102A400074F4C8010E94343120E030E0A9010E94F2
:102A50003B3587FF0EC060E070E0CB012CC0C801A1
:102A60000E94343120E030E0A9010E94003818169D
:102A700094F3C8010E94343120E030E0A9010E94A3
:102A8000003818160CF5C8010E94343120E030E0FF
:102A900040E85FE30E94003818160CF1C8010E945C
:102AA000343120E030E0A9010E9400381816E4F427
:102AB000C8010E943431609367017093680180936C
:102AC000690190936A0121CEC8010E94343120E04F
:102AD00030E040E85FEB0E943B3587FFDFCF60E0EE
:102AE00070E080E89FE3E7CFC8010E94343190583E
:102AF000E2CF61EF74E0C7010E945631892B61F487
:102B0000C8010E94343160935B0170935C01809333
:102B10005D0190935E01F9CD69ED74E0C7010E94FB
:102B20005631892B99F4C8010E94383121E0009771
:102B300009F420E02093D602892B09F41FC26EED20
:102B400071E088E492E00E94423828CD67EC74E09E
:102B5000C7010E945631892B41F4C8010E943831C7
:102B6000809336019093370168CD67EB74E0C7011D
:102B70000E945631892B41F4C8010E94383180935C
:102B800038019093390159CD67EA74E0C7010E947A
:102B90005631892B41F4C8010E94383180933A01A3
:102BA00090933B014ACD64E974E0C7010E9456311D
:102BB000892B41F4C8010E94383180933C019093E5
:102BC0003D013BCD63E874E0C7010E945631892B7B
:102BD00041F4C8010E94383180933E0190933F0137
:102BE0002CCD62E774E0C7010E945631892B41F475
:102BF000C8010E94383180934001909341011DCD5E
:102C000063E674E0C7010E945631892B51F4C80174
:102C10000E94383121E0009709F420E02093DF0280
:102C20008BCF6FE474E0C7010E945631892B41F4C9
:102C3000C8010E94383180936C0190936D01FDCCE6
:102C40006BE374E0C7010E945631892B41F4C8013F
:102C50000E9438318093DD029093DE02EECC64E274
:102C600074E0C7010E945631892B51F4C8010E94BB
:102C7000383121E0009709F420E020934A015CCF2D
:102C800065E174E0C7010E945631892B61F4C801E7
:102C90000E94383180936B0160E00E947204809141
:102CA0006B011F92CBCC6BE074E0C7010E945631E0
:102CB000892B59F4C8010E9438318093B80160E033
:102CC0000E9472048091B801ECCF61E074E0C7010A
:102CD0000E945631892B59F4C8010E9438318093E3
:102CE000B70160E00E9472048091B701DACF67EE0D
:102CF00073E0C7010E945631892B09F058C06091DA
:102D00003C0170913D0187EC93E00E946806E091E0
:102D1000C7038E2F90E0FC01EE0FFF1FE80FF91F95
:102D2000EE55FC4F80818F7B8083609136017091DE
:102D300037018AEC93E00E946806E091CA038E2F67
:102D400090E0FC01EE0FFF1FE80FF91FEE55FC4F5E
:102D500080818F7B8083C8010E94383180932C0151
:102D60006AE070E080E090E00E94E80460912C014D
:102D700070E08AEC93E00E949F06609136017091AA
:102D800037018AEC93E00E94680660912B0170E0A5
:102D900087EC93E00E949F0660913C0170913D0199
:102DA00087EC93E00E94680680912C017ACF6CEC4E
:102DB00073E0C7010E945631892B09F058C0609119
:102DC0003601709137018AEC93E00E946806E09129
:102DD000CA038E2F90E0FC01EE0FFF1FE80FF91FD2
:102DE000EE55FC4F80818F7B808360913C01709118
:102DF0003D0187EC93E00E946806E091C7038E2FA7
:102E000090E0FC01EE0FFF1FE80FF91FEE55FC4F9D
:102E100080818F7B8083C8010E94383180932B0191
:102E20006AE070E080E090E00E94E80460912B018D
:102E300070E087EC93E00E949F0660913C017091E6
:102E40003D0187EC93E00E94680660912C0170E0E0
:102E50008AEC93E00E949F066091360170913701E1
:102E60008AEC93E00E94680680912B011ACF67EBF1
:102E700073E0C7010E945631892B51F4C8010E94AA
:102E8000383121E0009709F420E020932D0154CE41
:102E900066EA73E0C7010E945631892B41F4C801EC
:102EA0000E9438318093320190933301C6CB64E99C
:102EB00073E0C7010E945631892B41F4C8010E947A
:102EC00038318093300190933101B7CB6DE773E0D7
:102ED000C7010E945631892B91F4C8010E943831F4
:102EE000893EF3E09F0714F088EE93E097FF02C05D
:102EF00090E080E090932F0180932E019ECB6DE6B1
:102F000073E0C7010E945631892B41F4C8010E9429
:102F1000383180933401909335018FCB6AE573E0AB
:102F2000C7010E945631892B61F5C8010E943831D2
:102F300021E0009709F420E02093EB02892BD1F0E7
:102F40008091EA02882329F062E08091A5010E9425
:102F5000720410E009E08091A601181758F4019F4F
:102F6000F0011124E159FE4F62E080810E94720459
:102F70001F5FF1CF8091EB028111E1CD63EE71E033
:102F8000E0CD66E473E0C7010E945631892B41F51C
:102F9000C8010E94383121E0009709F420E0209315
:102FA000EA022091EB022223C1F0892B29F062E092
:102FB0008091A5010E94720410E009E08091A601B1
:102FC000181758F4019FF0011124E159FE4F62E0F7
:102FD00080810E9472041F5FF1CF8091EA02CCCF02
:102FE00066E373E0C7010E945631892B59F4C8018A
:102FF0000E9438318093A50162E00E9472048091A2
:10300000A5014FCE64E273E0C7010E945631892BBF
:1030100079F5C8010E94383197FD23C087309105AA
:1030200014F58093A6018091EB028823F1F0809142
:10303000EA02882329F062E08091A5010E947204CF
:1030400010E009E08091A601181778F4019FF001C3
:103050001124E159FE4F62E080810E9472041F5FDB
:10306000F1CF80E0DECF86E0DCCF8091A60119CEE3
:103070006FEE71E0C7010E943938892B09F090C0CA
:10308000C8010E9438316C015C0121E0A21AB1082C
:1030900046E0A416B10408F00BC169E072E0C80173
:1030A0000E945F3169E072E090E080E00E945F3151
:1030B0000E94383199E09A9D90019B9D300D11241A
:1030C000F901E159FE4F7F01808369E072E090E0F1
:1030D00080E00E945F310E943431F7016183728386
:1030E0008383948369E072E090E080E00E945F3126
:1030F0000E943431F701658376838783908762E08D
:1031000080810E94720480E193E00E9408068CE0B6
:1031100092E00E94F20A83E093E00E9408068DEF9D
:1031200091E00E94F20AB601DD0C880B990B0E9417
:10313000960B8BE092E00E94F20A89EF92E00E94E7
:103140000806F701608170E090E080E04AE00E94AC
:10315000360B8CE092E00E94F20AF70161817281E5
:103160008381948108E412E024E040E00E9416315B
:10317000C8010E94F20A8CE092E00E94F20AF70174
:10318000658176818781908524E040E00E94163138
:10319000C8010E94F20A8EE092E00E947A0B88C079
:1031A00065EE72E0C7010E945631892B91F4C80187
:1031B0000E94383121E0009709F420E02093E002DA
:1031C000892B09F4DBCE62E080916E010E947204CB
:1031D000B6CC6DEC72E0C7010E945631892B59F4D0
:1031E000C8010E94383180936E0162E00E9472042F
:1031F00080916E0156CD66EC72E0C7010E94563197
:10320000892BC9F4C8010E94383121E0009709F4E4
:1032100020E020932A01892B59F00E94861E6EED32
:1032200071E088E492E00E9442380E947D08B6C9AD
:103230000E94861EA3CE6AEB72E0C7010E9456313F
:10324000892B61F40E94861EC8010E943831809348
:1032500028010E947D088091280123CD6DEA72E04B
:10326000C7010E945631892B61F40E94861EC80155
:103270000E943831809329010E947D0880912901A4
:1032800010CD61E172E0C7010E943938892B39F411
:103290000E94CF1089E992E00E94880B09C066E184
:1032A00072E0C7010E943938892B99F40E94550DAC
:1032B0001092A1020F900F900F900F90DF91CF917D
:1032C0001F910F91FF90EF90DF90CF90BF90AF9044
:1032D00008956FE172E0C7010E943938892BA1F48B
:1032E0001C821B8281E190E09A838983BE016F5F1B
:1032F0007F4FCE0103960E94391068E873E180E0A9
:1033000090E00E94E8044AC966E272E0C7010E94A8
:103310003938892B91F36DE272E0C7010E94393888
:10332000892B31F481E08093C4028AE792E0B4CF24
:103330006DE172E0C7010E943938892BA9F410921F
:10334000C40260913601709137018AEC93E00E94CB
:10335000680660913C0170913D0187EC93E00E940A
:10336000680684E692E098CF8CE492E095CF0C94C6
:103370006236CF92DF92EF92FF920F931F93CF931B
:10338000DF938C017B01FC01C080D180C6010E94CB
:10339000B719C82FC60188539F4F0E94B719D82F5D
:1033A000C60180579E4F0E94B719CD1327C0C8137E
:1033B00025C0F701C0836091610270916202809123
:1033C000630290916402F70140810E94FB066093C2
:1033D0006102709362028093630290936402F80129
:1033E00080819181019691838083DF91CF911F919C
:1033F0000F91FF90EF90DF90CF9008956C2F682B86
:103400006D23C8236C2BF7016083F80180819181C3
:103410000E94A10FF80180819181F701608188539A
:103420009F4F0E94A10FF80180819181F701608177
:1034300080579E4F0E94A10F61E08DE00E947204B0
:1034400060E08DE00E94440464E670E080E090E07B
:103450000E94E80461E08DE00E94440462E370E0B1
:1034600080E090E00E94E804A895A5CFAF92BF92BB
:10347000CF92DF92EF92FF920F931F93CF93DF9340
:103480007C01EB016B0184E0C80ED11CF701A08028
:10349000B180C5010E94B719182FC50188539F4FED
:1034A0000E94B719082FC50180579E4F0E94B71977
:1034B00010132AC0181328C01883609161027091FC
:1034C0006202809163029091640249910E94FB061E
:1034D000609361027093620280936302909364022E
:1034E000F70180819181019691838083CC15DD0560
:1034F00069F6DF91CF911F910F91FF90EF90DF90D0
:10350000CF90BF90AF900895612F682B6023182350
:10351000612B6883F701808191810E94A10FF701DF
:1035200080819181688188539F4F0E94A10FF7018C
:1035300080819181688180579E4F0E94A10F61E038
:103540008DE00E94720460E08DE00E94440464E615
:1035500070E080E090E00E94E80461E08DE00E946D
:10356000440462E370E080E090E00E94E804A895E3
:10357000A4CFAF92BF92CF92DF92EF92FF920F93C0
:103580001F93CF93DF937C01EB016B0182E0C80EA8
:10359000D11CF701A080B180C5010E94B719182F76
:1035A000C50188539F4F0E94B719082FC501805746
:1035B0009E4F0E94B71910132AC0181328C01883F1
:1035C0006091610270916202809163029091640245
:1035D00049910E94FB06609361027093620280939E
:1035E000630290936402F701808191810196918337
:1035F0008083CC15DD0569F6DF91CF911F910F9186
:10360000FF90EF90DF90CF90BF90AF900895612F23
:10361000682B60231823612B6883F70180819181D7
:103620000E94A10FF70180819181688188539F4F8B
:103630000E94A10FF70180819181688180579E4F80
:103640000E94A10F61E08DE00E94720460E08DE0B5
:103650000E94440464E670E080E090E00E94E80488
:1036600061E08DE00E94440462E370E080E090E05D
:103670000E94E804A895A4CFCF92DF92EF92FF9228
:103680000F931F93CF93DF938C017B01FC01C080CC
:10369000D180C6010E94B719C82FC60188539F4F19
:1036A0000E94B719D82FC60180579E4F0E94B719A4
:1036B000CD1327C0C81325C0F701C08360916102F4
:1036C000709162028091630290916402F7014081DF
:1036D0000E94FB0660936102709362028093630212
:1036E00090936402F8018081918101969183808397
:1036F000DF91CF911F910F91FF90EF90DF90CF90CE
:1037000008956C2F682B6D23C8236C2BF701608301
:10371000F801808191810E94A10FF801808191813F
:10372000F701608188539F4F0E94A10FF8018081AB
:103730009181F701608180579E4F0E94A10F61E047
:103740008DE00E94720460E08DE00E94440464E613
:1037500070E080E090E00E94E80461E08DE00E946B
:10376000440462E370E080E090E00E94E804A895E1
:10377000A5CF1F920F920FB60F9211242F933F9354
:103780008F939F93AF93BF938091FD029091FE0220
:10379000A091FF02B09100033091FC0223E0230FBF
:1037A0002D3758F50196A11DB11D2093FC02809381
:1037B000FD029093FE02A093FF02B093000380915C
:1037C000010390910203A0910303B09104030196B9
:1037D000A11DB11D8093010390930203A0930303E5
:1037E000B0930403BF91AF919F918F913F912F911F
:1037F0000F900FBE0F901F90189526E8230F02968A
:10380000A11DB11DD2CF1F920F920FB60F9211249E
:103810002F933F934F935F936F937F938F939F93D8
:10382000AF93BF93EF93FF9385E093E00E949905D8
:10383000FF91EF91BF91AF919F918F917F916F9188
:103840005F914F913F912F910F900FBE0F901F905E
:1038500018951F920F920FB60F9211242F938F93EA
:103860009F93EF93FF93E0911503F09116038081EE
:10387000E0911B03F0911C0382FD1BC0908180919D
:103880001E038F5F8F7320911F03821741F0E09119
:103890001E03F0E0EB5FFC4F958F80931E03FF91BA
:1038A000EF919F918F912F910F900FBE0F901F90CE
:1038B00018958081F4CF1F920F920FB60F921124AA
:1038C0002F933F934F935F936F937F938F939F9328
:1038D000AF93BF93CF93EF93FF9399B18091600221
:1038E000C0915D02C923282F2095C22320915A023E
:1038F0008223292F20958223C82B90936002C4FF36
:1039000005C0E0911801F09119010995C5FF05C0A6
:10391000E0911A01F0911B010995C6FF05C0E091E5
:103920001C01F0911D010995C7FF05C0E0911E0122
:10393000F0911F010995C0FF05C0E0912001F091B1
:1039400021010995C1FF05C0E0912201F0912301F9
:103950000995C2FF05C0E0912401F0912501099568
:10396000C3FF05C0E0912601F09127010995FF9161
:10397000EF91CF91BF91AF919F918F917F916F9177
:103980005F914F913F912F910F900FBE0F901F901D
:1039900018951F920F920FB60F9211242F933F93F9
:1039A0004F935F936F937F938F939F93AF93BF9347
:1039B000CF93EF93FF9396B180915F02C0915C0229
:1039C000C923282F2095C223209159028223292F11
:1039D00020958223C82B90935F02C0FF05C0E09121
:1039E0000C01F0910D010995C1FF05C0E0910E0198
:1039F000F0910F010995C2FF05C0E0911001F0910F
:103A000011010995C3FF05C0E0911201F091130166
:103A10000995C4FF05C0E0911401F09115010995C5
:103A2000C5FF05C0E0911601F09117010995FF91BE
:103A3000EF91CF91BF91AF919F918F917F916F91B6
:103A40005F914F913F912F910F900FBE0F901F905C
:103A500018951F920F920FB60F9211242F933F9338
:103A60004F935F936F937F938F939F93AF93BF9386
:103A7000CF93EF93FF9393B180915E02C0915B026D
:103A8000C923282F2095C223209158028223292F51
:103A900020958223C82B90935E02C0FF05C0E09161
:103AA0000001F09101010995C1FF05C0E0910201FB
:103AB000F09103010995C2FF05C0E0910401F09166
:103AC00005010995C3FF05C0E0910601F0910701CA
:103AD0000995C4FF05C0E0910801F091090109951D
:103AE000C5FF05C0E0910A01F0910B010995FF9116
:103AF000EF91CF91BF91AF919F918F917F916F91F6
:103B00005F914F913F912F910F900FBE0F901F909B
:103B100018951F920F920FB60F9211242F933F9377
:103B20004F935F936F937F938F939F93AF93BF93C5
:103B3000CF93DF93EF93FF9380915702C091C60319
:103B4000D0E087FF24C010928500109284008091FD
:103B500057028F5F8093570280915702082E000C06
:103B6000990B8C179D0724F4809157028C30C4F177
:103B70008091840090918500049680349C4908F4DB
:103B80007AC08091840090918500049676C08091DF
:103B90005702082E000C990B8C179D07C4F6E09174
:103BA00057028E2FEE0F990BFC01EE0FFF1FE80F4F
:103BB000F91FEE55FC4F808186FFC9CFE091570277
:103BC0008E2FEE0F990BFC01EE0FFF1FE80FF91F70
:103BD000EE55FC4F808160E08F730E944404B7CFA4
:103BE0002091840030918500E09157028E2FEE0FD6
:103BF000990BFC01EE0FFF1FE80FF91FEE55FC4F6C
:103C000081819281820F931F909389008093880015
:103C1000E09157028E2FEE0F990BFC01EE0FFF1F64
:103C2000E80FF91FEE55FC4F808186FF11C0E0912F
:103C300057028E2FEE0F990BFC01EE0FFF1FE80FBE
:103C4000F91FEE55FC4F808161E08F730E944404A0
:103C5000FF91EF91DF91CF91BF91AF919F918F91A4
:103C60007F916F915F914F913F912F910F900FBE78
:103C70000F901F90189580E49CE9909389008093A1
:103C800088008FEF80935702E3CF1F920F920FB6F9
:103C90000F9211242F933F934F935F936F937F93D2
:103CA0008F939F93AF93BF93EF93FF93A895F0E00B
:103CB000E0E00995FF91EF91BF91AF919F918F91B6
:103CC0007F916F915F914F913F912F910F900FBE18
:103CD0000F901F901895E82FF0E0E559FF4F908165
:103CE000609569236083908191110FC040916800B5
:103CF00021E030E0B90102C0660F771F8A95E2F734
:103D0000CB018095842380936800089590912801C9
:103D1000963108F073C080E1983058F081E09E3011
:103D200008F480E0880F880F880F9E3008F064C088
:103D30009850980F892F869586958695292F2770FC
:103D400081118CC091115CC047E656E0509301018F
:103D50004093000161E070E001C0660F2A95EAF728
:103D6000E82FF0E0362F3095DF01A55ABD4F2C919A
:103D700023232C93E85AFD4F9081932390830E9434
:103D80006B1E90912901963108F0EFC080E19830C8
:103D900058F081E09E3008F480E0880F880F880F8B
:103DA0009E3008F0E0C09850980F892F8695869530
:103DB0008695292F2770811108C19111D8C047E637
:103DC00056E0509301014093000161E070E001C0B2
:103DD000660F2A95EAF7E82FF0E0362F3095DF01DD
:103DE000A55ABD4F2C9123232C93E85AFD4F908167
:103DF000932390830C946B1E9E509BCF9FEF9ACF82
:103E0000913039F447E656E05093030140930201A4
:103E1000A1CF923039F447E656E050930501409324
:103E2000040198CF933039F447E656E050930701E8
:103E3000409306018FCF943039F447E656E0509313
:103E400009014093080186CF953009F083CF47E6FA
:103E500056E050930B0140930A017CCF8130B9F5B5
:103E6000983039F447E656E050930D0140930C0129
:103E700071CF993039F447E656E050930F014093E3
:103E80000E0168CF9A3039F447E656E0509311019D
:103E9000409310015FCF9B3039F447E656E05093D2
:103EA00013014093120156CF9C3039F447E656E097
:103EB00050931501409314014DCF9D3009F04ACF26
:103EC00047E656E0509317014093160143CF8230E6
:103ED00009F057CF903139F447E656E0509321016D
:103EE0004093200137CF913139F447E656E05093A3
:103EF0002301409322012ECF923139F447E656E058
:103F0000509325014093240125CF933139F447E69E
:103F100056E050932701409326011CCF943139F489
:103F200047E656E0509319014093180113CF95319D
:103F300039F447E656E050931B0140931A010ACF2B
:103F4000963139F447E656E050931D0140931C0129
:103F500001CF973109F0FECE47E656E050931F019E
:103F600040931E01F7CE9E501FCF9FEF1ECF913082
:103F700039F447E656E0509303014093020125CF00
:103F8000923039F447E656E050930501409304011E
:103F90001CCF933039F447E656E050930701409325
:103FA000060113CF943039F447E656E050930901E7
:103FB000409308010ACF953009F007CF47E656E055
:103FC00050930B0140930A0100CF8130B9F598302E
:103FD00039F447E656E050930D0140930C01F5CEBD
:103FE000993039F447E656E050930F0140930E01A3
:103FF000ECCE9A3039F447E656E0509311014093E5
:104000001001E3CE9B3039F447E656E0509313019C
:1040100040931201DACE9C3039F447E656E05093D3
:10402000150140931401D1CE9D3009F0CECE47E664
:1040300056E05093170140931601C7CE823009F025
:1040400049C0903139F447E656E05093210140933E
:104050002001BBCE913139F447E656E0509323015D
:1040600040932201B2CE923139F447E656E05093A4
:10407000250140932401A9CE933139F447E656E057
:104080005093270140932601A0CE943139F447E69E
:1040900056E0509319014093180197CE953139F4A9
:1040A00047E656E050931B0140931A018ECE96319D
:1040B00039F447E656E050931D0140931C0185CE2C
:1040C000973109F082CE47E656E050931F014093A6
:1040D0001E017BCE0895109208031092070388EE0C
:1040E00093E0A0E0B0E08093090390930A03A093CB
:1040F0000B03B0930C038EEB91E090930603809337
:10410000050385EC90E0909312038093110384ECF7
:1041100090E0909314038093130380EC90E09093CD
:1041200016038093150381EC90E09093180380931D
:10413000170382EC90E090931A038093190386ECA6
:1041400090E090931C0380931B0310921E03109227
:104150001F0310922003109221038091C6038C301C
:1041600048F591E0980F9093C6038093CA0390E0BE
:10417000FC01EE0FFF1FE80FF91FEE55FC4F88EB17
:104180009BE0928381838091C6038C30B8F491E0E8
:10419000980F9093C6038093C70390E0FC01EE0F45
:1041A000FF1FE80FF91FEE55FC4F88EB9BE0928351
:1041B000818308958FEF8093CA03E5CF8FEF8093BB
:1041C000C7030895CF93DF93CDB7DEB7A1970FB69E
:1041D000F894DEBF0FBECDBF789484B5826084BDF5
:1041E00084B5816084BD85B5826085BD85B58160FB
:1041F00085BD80916E00816080936E001092810079
:104200008091810082608093810080918100816033
:1042100080938100809180008160809380008091F4
:10422000B10084608093B1008091B0008160809380
:10423000B00080917A00846080937A0080917A0047
:10424000826080937A0080917A00816080937A0006
:1042500080917A00806880937A001092C10061E0BA
:104260008DE00E94720461E08DE00E944404E091C0
:104270001503F091160382E08083E0911103F09121
:1042800012031082E0911303F091140387E08083FE
:1042900010921D03E0911903F0911A0386E08083C8
:1042A000E0911703F0911803808180618083E09191
:1042B0001703F0911803808188608083E0911703D1
:1042C000F0911803808180688083E0911703F0915A
:1042D000180380818F7D80838FEC91E00E94E50A36
:1042E00062E370E080E090E00E94E80460E08DE02E
:1042F0000E944404F894A89580916000886180939E
:10430000600087E480936000789480E092E090936E
:10431000F7028093F6029093F5028093F4021092D4
:10432000EC021092ED021092EE021092EF02109247
:10433000F0021092F1021092F2021092F302109227
:10434000D2021092D3021092D4021092D50210928F
:10435000CE021092CF021092D0021092D10210928F
:10436000E1021092E2021092E3021092E402109233
:10437000E5021092E6021092E7021092E8028FEF37
:104380009FEF9093DC028093DB0280E090E0A0E856
:10439000BFE38093D7029093D802A093D902B09341
:1043A000DA021092F8021092F9021092FA021092B8
:1043B000FB021092C0021092C1021092C20210922F
:1043C000C30281E08093C4021092E9021092C602F7
:1043D0001092C7021092C8021092C90218861F825A
:1043E000BE01675F7F4FCE0107960E943C1B898507
:1043F000803161F018861F8269EB71E0CE0107966B
:104400000E948A100E94CF101092C40281E090E0B6
:104410009E838D8310926102109262021092630259
:10442000109264028E010B5F1F4F63EB71E0C801B5
:104430000E94B91A61EB71E0C8010E94B91A6FEAD3
:1044400071E0C8010E94B91A65EB71E0C8010E94D1
:10445000B91A6BEA71E0C8010E94B91A69EA71E001
:10446000C8010E94B91A67EA71E0C8010E94B91A2E
:104470006DEA71E0C8010E94B91A6BE471E0C801ED
:104480000E94361A6FE471E0C8010E94361A63E593
:1044900071E0C8010E94361A67E571E0C8010E9408
:1044A000361A62E471E0C8010E94361A66E471E0CF
:1044B000C8010E94361A6FE571E0C8010E94361AE1
:1044C00063E671E0C8010E94361A67E671E0C80130
:1044D0000E94361A6BE571E0C8010E94361A6AE440
:1044E00071E0C8010E94B91966ED72E0C8010E942E
:1044F000B91966E371E0C8010E94B91A68E371E076
:10450000C8010E94B91A6AE371E0C8010E94B91A91
:104510006CE371E0C8010E94B91A6EE371E0C80152
:104520000E94B91A60E471E0C8010E94B91A6FEDE7
:1045300072E0C8010E94B9196CE671E0C8010E94DE
:10454000B91A6DED72E0C8010E94B91A68EB71E00A
:10455000C8010E943C1B67EB71E0C8010E943C1B34
:104560006CE271E0C8010E943C1B6BE271E0C80183
:104570000E943C1B6BE671E0C8010E943C1B62E399
:1045800071E0C8010E94B91A60E371E0C8010E949D
:10459000B91A6EE271E0C8010E94B91A6DE271E0C9
:1045A000C8010E94B91964E371E0C8010E94B91AF8
:1045B00065EA71E0C8010E943C1B6BEE72E0C80125
:1045C0000E94B9196AEE72E0C8010E94B91966EA40
:1045D00071E0C8010E943C1B6FE6E62E61E0F62EFA
:1045E000AD80BE80C5010E94B719D82EC501885381
:1045F0009F4F0E94B719C82EC50180579E4F0E9439
:10460000B719DC10A7C1D812A5C1D701DC926091FF
:104610006102709162028091630290916402D701FD
:104620004D917D010E94FB066093610270936202CE
:1046300080936302909364028D819E8101969E8394
:104640008D83B5EAEB16B1E0FB0651F660EE72E041
:10465000C8010E94B9196EE671E0C8010E943C1BB6
:104660006AE271E0C8010E94B91968E271E0C8010C
:104670000E943C1B69E271E0C8010E943C1B409013
:10468000610250906202609063027090640219822D
:104690001A821B821C82FE0131966F01AD80BE80A2
:1046A000C5010E94B719E82EC50188539F4F0E948B
:1046B000B719982EC50180579E4F0E94B719E9106F
:1046C0007DC1E8127BC1D601EC92609161027091CC
:1046D00062028091630290916402D6014D916D0156
:1046E0000E94FB06609361027093620280936302F2
:1046F000909364028D819E8101969E838D83C01666
:10470000D10661F689819A81AB81BC814816590630
:104710006A067B0609F485C162E370E080E090E000
:104720000E94E8048EE396E00E94880B62E370E04A
:1047300080E090E00E94E804E091CA038E2F90E0B0
:10474000FC01EE0FFF1FE80FF91FEE55FC4F8081B3
:1047500086FF02C08F7B8083E091C7038E2F90E09D
:10476000FC01EE0FFF1FE80FF91FEE55FC4F808193
:1047700086FF02C08F7B808364E670E080E090E07B
:104780000E94E80412E060E0812F0E9472041F5F23
:104790001536C9F761E08DE00E94720462E370E0B3
:1047A00080E090E00E94E8040FB6F894A89580910C
:1047B0006000886180936000109260000FBE82E20A
:1047C00096E00E94880B61E08DE00E94440468EC52
:1047D00070E080E090E00E94E80460E08DE00E94DC
:1047E000440468EC70E080E090E00E94E80461E03E
:1047F0008DE00E94440468EC70E080E090E00E944C
:10480000E80460E08DE00E94440468EC70E080E021
:1048100090E00E94E80461E08DE00E94440468ECAE
:1048200070E080E090E00E94E80460E08DE00E948B
:10483000440468EC70E080E090E00E94E80460E9E5
:1048400071E080E090E00E94E80461E08DE00E9469
:10485000440464EF71E080E090E00E94E80460E0CE
:104860008DE00E94440460E971E080E090E00E94E5
:10487000E80461E08DE00E94440464EF71E080E0B0
:1048800090E00E94E80460E08DE00E94440460E94A
:1048900071E080E090E00E94E80461E08DE00E9419
:1048A000440464EF71E080E090E00E94E80460E07E
:1048B0008DE00E94440460E971E080E090E00E9495
:1048C000E80460E971E080E090E00E94E80461E0C3
:1048D0008DE00E94440468EC70E080E090E00E946B
:1048E000E80460E08DE00E94440468EC70E080E041
:1048F00090E00E94E80461E08DE00E94440468ECCE
:1049000070E080E090E00E94E80460E08DE00E94AA
:10491000440468EC70E080E090E00E94E80461E00C
:104920008DE00E94440468EC70E080E090E00E941A
:10493000E80460E08DE00E94440468EC70E080E0F0
:1049400090E00E94E80468EE73E080E090E00E944E
:10495000E80435CF6D2D682B6C21D8226D29F70125
:104960006083C5010E94A10F8D819E81D7016C914A
:1049700088539F4F0E94A10F8D819E81F701608116
:1049800080579E4F0E94A10F61E08DE00E9472044B
:1049900060E08DE00E94440464E670E080E090E016
:1049A0000E94E80461E08DE00E94440462E370E04C
:1049B00080E090E00E94E804A89529CEFE2CF82A19
:1049C000F920E822FE28F601F0826F2DC5010E9431
:1049D000A10F8D819E816F2D88539F4F0E94A10F43
:1049E0008D819E816F2D80579E4F0E94A10F61E0A7
:1049F0008DE00E94720460E08DE00E94440464E651
:104A000070E080E090E00E94E80461E08DE00E94A8
:104A1000440462E370E080E090E00E94E804A8951E
:104A200054CE80913601909137019093CD028093BE
:104A3000CC0280913C0190913D019093CB028093F8
:104A4000CA0280912D018093C50264E670E080E087
:104A500090E00E94E8040E94550D64E670E080E05A
:104A600090E00E94E8040E94550D60E08091B8013A
:104A70000E94720460E08091B7010E94720460E0BD
:104A800080916B010E9472048091EB028823D1F027
:104A90008091EA02882329F062E08091A5010E94BA
:104AA000720410E009E08091A601181758F4019FE4
:104AB000F0011124E159FE4F62E080810E947204EE
:104AC0001F5FF1CF8091E002882329F062E080919E
:104AD0006E010E94720460912C0170E08AEC93E0F8
:104AE0000E949F0660912B0170E087EC93E00E948A
:104AF0009F0660913601709137018AEC93E00E9425
:104B0000680660913C0170913D0187EC93E00E9442
:104B1000680664E670E080E090E00E94E8040E948D
:104B20007D08A89585E093E00E945705F82EBFEF19
:104B30008B1729F0ECE28E13ECC00E948512809155
:104B4000A60281110DC00E94C3046093A20270935B
:104B5000A3028093A4029093A50281E08093A60211
:104B6000C090A202D090A302E090A402F090A5020F
:104B7000C114D104E104F10409F4F0C00E94C3049B
:104B80006C197D098E099F090E94403520E034E2AE
:104B900044E759E40E9458376E8B7F8B888F998F3A
:104BA0000E94C3046093A2027093A3028093A402A4
:104BB0009093A5028E899F89A88DB98D8093F80264
:104BC0009093F902A093FA02B093FB028091B8018E
:104BD0000E94AE046C019093F7028093F6028091DC
:104BE000B7010E94AE047C019093F5028093F40219
:104BF0000091B5011091B6012091B3013091B4013B
:104C00004091B1015091B2016091AF017091B0013A
:104C1000C6010E943F076093F0027093F1028093F7
:104C2000F2029093F3020091AD011091AE01209138
:104C3000AB013091AC014091A9015091AA01609162
:104C4000A7017091A801C7010E943F076093EC0281
:104C50007093ED028093EE029093EF028091EB024D
:104C6000882309F491C0E090A6018091EA028111A5
:104C700084C01092EC021092ED021092EE0210929B
:104C8000EF021092F0021092F1021092F2021092D2
:104C9000F3020FE611E0F12CEF1409F475C0D8010E
:104CA0008C910E941B04892B81F5F80121813281AE
:104CB000438154816091EC027091ED028091EE028B
:104CC0009091EF020E94EC366093EC027093ED023B
:104CD0008093EE029093EF02D80115962D913D91AD
:104CE0004D915C9118976091F0027091F102809162
:104CF000F2029091F3020E94EC366093F0027093FE
:104D0000F1028093F2029093F302F394075F1F4F36
:104D1000C3CF082F880F110BC8010E941C38892BA4
:104D200051F483ED8F0D823030F0FAE3FF1619F065
:104D30002FE5F21204CFC8010E9431389091A102F0
:104D4000E92FF0E0EB59FD4F808382E0890F8C332F
:104D500008F0F5CE9F5F9093A102F1CE0E94C304AC
:104D60006093A2027093A3028093A4029093A50281
:104D70001E8A1F8A188E198E1DCF8091A5010E9450
:104D80001B04892B09F475CF8091E902882309F46B
:104D90004AC00E94C3046B017C018090B6029090CF
:104DA000B702A090B802B090B9020E94C30400916B
:104DB000BA021091BB022091BC023091BD02601B6F
:104DC000710B820B930B61347C498105910558F579
:104DD000C818D908EA08FB08E1E4CE16ECE9DE06BB
:104DE000E104F10400F58091B2029091B302A09128
:104DF000B402B091B5028093EC029093ED02A093BF
:104E0000EE02B093EF028091AE029091AF02A091BA
:104E1000B002B091B1028093F0029093F102A0939E
:104E2000F202B093F3028091F0029091F102A0910E
:104E3000F202B091F3028093E5029093E602A09310
:104E4000E702B093E8028091EC029091ED02A0910C
:104E5000EE02B091EF028093E1029093E202A09300
:104E6000E302B093E4028091E002882371F0809124
:104E70006E010E941B04892B41F41092E5021092EE
:104E8000E6021092E7021092E8028091DF02882386
:104E900009F419C4C090DD02D090DE02E0906C01EC
:104EA000F0906D0180916B010E94AE048C01909393
:104EB000DC028093DB02B701FF0C880B990B0E9488
:104EC00042354B015C01B801110F880B990B0E9410
:104ED0004235A50194010E94EB362B013C01B6013D
:104EE000DD0C880B990B0E944235A50194010E94AC
:104EF000EB369B01AC01C301B2010E94583720E0A0
:104F000030E0A9010E94EC366B017C0120E030E02A
:104F1000A9010E943B3587FDD2C320E030E040E884
:104F20005FE3C701B6010E940038181634F4C12CA3
:104F3000D12C30E8E32E3FE3F32EC092D702D0927B
:104F4000D802E092D902F092DA0280916701909142
:104F50006801A0916901B0916A018A879B87AC873B
:104F6000BD878090630190906401A0906501B0902E
:104F7000660180915F0190916001A0916101B09103
:104F800062018E879F87A88BB98B8091D702909101
:104F9000D802A091D902B091DA028A8B9B8BAC8B9C
:104FA000BD8B20E030E0A901C501B4010E940038AA
:104FB00075016401181624F0F7FAF094F7F8F094EC
:104FC00020E030E0A9016E857F85888999890E945B
:104FD00000384E845F8468887988181624F077FA40
:104FE000709477F8709420E030E0A9016A857B85A1
:104FF0008C859D850E94003818164CF08A859B850B
:10500000AC85BD85B0588A879B87AC87BD87A301D7
:1050100092016A897B898C899D890E94A135562ECF
:10502000472E382E292EC701B60190582A893B8970
:105030004C895D890E94A1353B018C01C090E10241
:10504000D090E202E090E302F090E40220E030E051
:10505000A901C701B6010E943B35882309F44CC35E
:1050600020E030E0A901C701B6010E940038A70185
:10507000960118160CF034C3652D742D832D922DD6
:105080000E94A13520E030E0A9010E94EC366B01BE
:105090007C01A7019601B301C8010E9400381816CF
:1050A0000CF42EC3A7019601652D742D832D922D2E
:1050B0000E943B3587FF04C0C52CD42CE32CF22C76
:1050C000C092E102D092E202E092E302F092E402A6
:1050D0002091E5023091E6024091E7025091E8020A
:1050E0006A857B858C859D850E94A1352A893B89AF
:1050F0004C895D890E94A1351B018C012A893B895D
:105100004C895D896A857B858C859D8590580E9438
:10511000A1352B013C019B01AC01B101C8010E94EA
:105120003B3587FD16C02A853B854C855D856A89A0
:105130007B898C899D890E94A1352B013C019B01B3
:10514000AC01B101C8010E940038181614F0210109
:10515000380120E030E0A901C701B6010E94003803
:1051600087FD04C08E849F84A888B98820915B0144
:1051700030915C0140915D0150915E0160E070E012
:1051800080E89FE30E94EB366A877B878C879D8748
:1051900020E030E0A901C701B6010E940038A70154
:1051A000960118160CF050586A857B858C859D8574
:1051B0000E94A1356A877B878C879D8720E030E03D
:1051C000A901C501B4010E94003818160CF09BC259
:1051D00027E137EB41ED58E3C501B4010E94EC36FD
:1051E0009B01AC016A857B858C859D850E94583723
:1051F0009B01AC0160E070E080E89FE30E94EB3629
:105200004B015C0120E030E0A9010E940038181633
:105210001CF0812C912C5401A5019401B201C30111
:105220000E94A1354B015C0120E030E040E85FEBDB
:105230000E943B3587FD70C220E030E040E85FE32C
:10524000C501B4010E940038181634F4812C912C49
:1052500020E8A22E2FE3B22E8092E5029092E60281
:10526000A092E702B092E80220E030E0A901C70175
:10527000B6010E943B3587FF10C08091D60288237B
:1052800061F0B7FAB094B7F8B0948092E5029092CA
:10529000E602A092E702B092E80280915701909155
:1052A0005801A0915901B0915A018E879F87A88B10
:1052B000B98B8090530190905401A0905501B0900B
:1052C000560180914F0190915001A0915101B091F0
:1052D00052018B8F9C8FAD8FBE8F40904B015090B1
:1052E0004C0160904D0170904E0180914A018111F6
:1052F0001AC21A8E1F8E90E898A3AFE3A9A38091DB
:10530000D2029091D302A091D402B091D5028A87A3
:105310009B87AC87BD8720E030E0A901C301B201C3
:105320000E94003818161CF0412C512C3201A301A8
:1053300092016A8D7F8D88A199A10E94A1352B01D0
:105340003C0120E030E0A9016B8D7C8D8D8D9E8D20
:105350000E940038181624F01B8E1C8E1D8E1E8E87
:1053600020E030E0A901C501B4010E940038181600
:105370001CF0812C912C5401A50194016A8D7F8D24
:1053800088A199A10E94A1354B015C0120E030E089
:10539000A9016E857F85888999890E940038181631
:1053A00024F01E861F86188A198A2A853B854C851B
:1053B0005D85C701B6010E94EB36D62EC72E382E6A
:1053C000292E20E030E0A9016A857B858C859D85AA
:1053D0000E943B358111B0C1C501B40190582E899E
:1053E0003F89488D598D0E94A1357B018C019B011D
:1053F000AC016D2D7C2D832D922D0E943B3587FDB8
:1054000018C0A30192016E897F89888D998D0E94B1
:10541000A1357B018C019B01AC016D2D7C2D832D71
:10542000922D0E940038181624F0ED2CFC2C032D30
:10543000122D9701A8016A857B858C859D850E9428
:10544000EC36362E272E8A879E87832D922DAA85AD
:10545000BE858093D2029093D302A093D402B093DE
:10546000D5028090460190904701A0904801B090ED
:105470004901C0904201D0904301E0904401F09076
:1054800045014090E5025090E6026090E70270907E
:10549000E8028091CE029091CF02A091D002B0910B
:1054A000D1028B8F9C8FAD8FBE8F20E030E0A901A1
:1054B000C701B6010E94003818161CF0C12CD12C6F
:1054C0007601A70196016A8D7F8D88A199A10E941E
:1054D000A1356B017C0120E030E0A901C501B401D8
:1054E0000E94003818161CF0812C912C54012B8D31
:1054F0003C8D4D8D5E8DC301B2010E94EB36462E70
:10550000672E582E792E20E030E0A9016B8D7C8D1E
:105510008D8D9E8D0E943B358111B1C12E893F89B1
:10552000488D598DC701B60190580E94A1355B0185
:105530008C019B01AC01642D762D852D972D0E9449
:105540003B3587FD18C0A70196016E897F89888D3C
:10555000998D0E94A1355B018C019B01AC01642DEA
:10556000762D852D972D0E940038181624F0A42C36
:10557000B62C052D172D9501A8016B8D7C8D8D8D79
:105580009E8D0E94EC365B018C01C501D801809391
:10559000CE029093CF02A093D002B093D10280911B
:1055A000DF02882309F451C0CA88DB88EC88FD88B3
:1055B000F7FAF094F7F8F094232D322D4A855E85A2
:1055C000C701B6010E94003818160CF4F1C1232D52
:1055D000322D4A855E856A897B898C899D890E94E6
:1055E0003B3587FF06C03A882B889C899A87AD890E
:1055F000AE87832D922DAA85BE858093D20290938B
:10560000D302A093D402B093D5029501A801C7019B
:10561000B6010E940038181684F09501A8016A8925
:105620007B898C899D890E943B356501780187FFC4
:1056300004C0CA88DB88EC88FD88C092CE02D09274
:10564000CF02E092D002F092D1028090CE029090F0
:10565000CF02A090D002B090D10220E030E0A901AA
:10566000C501B4010E94003818160CF0A6C12FE63F
:1056700032E143E85AE3C501B4010E94003887FFD4
:10568000A7C1C090D202D090D302E090D402F09093
:10569000D50220E030E0A901C701B6010E94003820
:1056A00018160CF07DC22FE632E143E85AE3C70139
:1056B000B6010E94003887FF8BC160E08AC1C12C0F
:1056C000D12C76013ACC80E090E0A0E8BFE3809353
:1056D000D7029093D802A093D902B093DA0235CCC6
:1056E000B301C8010E94A1359B01AC0160E070E0EC
:1056F000CB010E94EB36CBCCC12CD12C7601C9CC8E
:1057000063017801DDCCA501940167E177EB81EDC0
:1057100098E30E94EB3664CD812C912C90E8A92E61
:105720009FEBB92E99CDBA89BA8FEB89EF8FFC899F
:10573000F8A32D8929A3E3CD20E030E0A9016A85F3
:105740007B858C859D850E94003818160CF04DC015
:105750002B8D3C8D4D8D5E8D6A8D7F8D88A199A19D
:105760000E94A13590582E893F89488D598D0E94FD
:10577000A1357B018C019B01AC016D2D7C2D832D0E
:10578000922D0E943B3587FD18C0A30192016E89BE
:105790007F89888D998D0E94A1357B018C019B01A9
:1057A000AC016D2D7C2D832D922D0E940038181692
:1057B00024F0ED2CFC2C032D122D9701A8016A85F5
:1057C0007B858C859D850E94EC36362E272E8A8718
:1057D0009E8720E030E0A9010E943B3587FF35CE4F
:1057E000312C212C1A861E8630CEC501B40190586A
:1057F0002E893F89488D598D0E94A1357B018C01EE
:105800009B01AC016D2D7C2D832D922D0E943B358B
:1058100087FD20C02E853F85488959896A8D7F8DF7
:1058200088A199A10E94A1352E893F89488D598D63
:105830000E94A1357B018C019B01AC016D2D7C2D5B
:10584000832D922D0E940038181624F0ED2CFC2C8C
:10585000032D122D9701A8016A857B858C859D8576
:105860000E94EC36362E272E8A879E8720E030E075
:10587000A9010E94003818160CF4B2CFE6CDA5019C
:1058800094016A8D7F8D88A199A10E94A1354B0159
:105890005C0120E030E0A9016B8D7C8D8D8D9E8DAB
:1058A0000E94003818160CF043C0C501B40190588E
:1058B0002E893F89488D598D0E94A1355B018C014D
:1058C0009B01AC01642D762D852D972D0E943B35D3
:1058D00087FD18C0A70196016E897F89888D998DF3
:1058E0000E94A1355B018C019B01AC01642D762DDA
:1058F000852D972D0E940038181624F0A42CB62C64
:10590000052D172D9501A8016B8D7C8D8D8D9E8D9C
:105910000E94EC365B018C0120E030E0A9010E947E
:105920003B3587FF32CEA12CB12C00E010E02DCE0C
:10593000C701B60190582E893F89488D598D0E9424
:10594000A1357B018C019B01AC01642D762D852D49
:10595000972D0E943B3587FD18C0A50194016E89E3
:105960007F89888D998D0E94A1357B018C019B01D7
:10597000AC01642D762D852D972D0E9400381816C8
:1059800024F0E42CF62C052D172D9701A8016B8D22
:105990007C8D8D8D9E8D0E94EC365B018C0120E00C
:1059A00030E0A9010E94003818160CF4BCCFEDCDF0
:1059B0003C2C2D2CEA86FE861CCE2FE632E143E8F5
:1059C0005AEBC501B4010E943B3518160CF459CEB0
:1059D00061E08DE00E944404E0914001F0914101BA
:1059E000FB8BEA8B80913E0190913F019B878A87D8
:1059F00020903C0130903D01A0913A01B0913B01D3
:105A0000BF8BAE8BE0903801F090390100913601E8
:105A1000109137018091D2029091D302A091D402CB
:105A2000B091D5028E879F87A88BB98B9C01AD0161
:105A3000C501B4010E94EC362B013C0120E030E0AE
:105A4000A9010E943B358111B7C0B801012E000C9D
:105A5000880B990B0E9442350E94CA37AB012E89F0
:105A60003F8937FF03C0319521953109F801E21BC9
:105A7000F30B4E175F073CF0F801E20FF31F4E17D0
:105A80005F070CF4FB01F093CD02E093CC02A5017B
:105A900094016E857F85888999890E94EB366B0118
:105AA0007C0120E030E0A9010E943B358111D4C087
:105AB000B101032C000C880B990B0E9442350E9407
:105AC000CA37AB012A893B8937FF03C0319521953D
:105AD0003109F101E21BF30B4E175F073CF0F101B6
